{
  "_format": "hh-sol-artifact-1",
  "contractName": "BlockEstateMarket",
  "sourceName": "contracts/BlockEstate/BlockEstateMarket.sol",
  "abi": [
    {
      "inputs": [
        {
          "internalType": "address",
          "name": "_blockEstateAssetsAddress",
          "type": "address"
        },
        {
          "internalType": "address",
          "name": "_blockEstateSharesAddress",
          "type": "address"
        },
        {
          "internalType": "address",
          "name": "_usdAddress",
          "type": "address"
        }
      ],
      "stateMutability": "nonpayable",
      "type": "constructor"
    },
    {
      "anonymous": false,
      "inputs": [
        {
          "indexed": false,
          "internalType": "address",
          "name": "old",
          "type": "address"
        },
        {
          "indexed": false,
          "internalType": "address",
          "name": "updated",
          "type": "address"
        }
      ],
      "name": "BlockEstateAssetsAddressUpdated",
      "type": "event"
    },
    {
      "anonymous": false,
      "inputs": [
        {
          "indexed": false,
          "internalType": "address",
          "name": "old",
          "type": "address"
        },
        {
          "indexed": false,
          "internalType": "address",
          "name": "updated",
          "type": "address"
        }
      ],
      "name": "BlockEstateRentalsAddressUpdated",
      "type": "event"
    },
    {
      "anonymous": false,
      "inputs": [
        {
          "indexed": false,
          "internalType": "address",
          "name": "old",
          "type": "address"
        },
        {
          "indexed": false,
          "internalType": "address",
          "name": "updated",
          "type": "address"
        }
      ],
      "name": "BlockEstateSharesAddressUpdated",
      "type": "event"
    },
    {
      "anonymous": false,
      "inputs": [
        {
          "indexed": true,
          "internalType": "address",
          "name": "previousOwner",
          "type": "address"
        },
        {
          "indexed": true,
          "internalType": "address",
          "name": "newOwner",
          "type": "address"
        }
      ],
      "name": "OwnershipTransferred",
      "type": "event"
    },
    {
      "anonymous": false,
      "inputs": [
        {
          "indexed": false,
          "internalType": "address",
          "name": "account",
          "type": "address"
        }
      ],
      "name": "Paused",
      "type": "event"
    },
    {
      "anonymous": false,
      "inputs": [
        {
          "indexed": false,
          "internalType": "uint256",
          "name": "listingId",
          "type": "uint256"
        },
        {
          "indexed": false,
          "internalType": "uint256",
          "name": "tokenId",
          "type": "uint256"
        },
        {
          "indexed": false,
          "internalType": "uint256",
          "name": "price",
          "type": "uint256"
        },
        {
          "indexed": false,
          "internalType": "uint256",
          "name": "amount",
          "type": "uint256"
        },
        {
          "indexed": false,
          "internalType": "address",
          "name": "seller",
          "type": "address"
        }
      ],
      "name": "SharesListingCreated",
      "type": "event"
    },
    {
      "anonymous": false,
      "inputs": [
        {
          "indexed": false,
          "internalType": "uint256",
          "name": "listingId",
          "type": "uint256"
        },
        {
          "indexed": false,
          "internalType": "uint256",
          "name": "tokenId",
          "type": "uint256"
        },
        {
          "indexed": false,
          "internalType": "uint256",
          "name": "price",
          "type": "uint256"
        },
        {
          "indexed": false,
          "internalType": "uint256",
          "name": "amount",
          "type": "uint256"
        },
        {
          "indexed": false,
          "internalType": "address",
          "name": "seller",
          "type": "address"
        }
      ],
      "name": "SharesListingDeleted",
      "type": "event"
    },
    {
      "anonymous": false,
      "inputs": [
        {
          "indexed": false,
          "internalType": "uint256",
          "name": "sharesListingPoolId",
          "type": "uint256"
        },
        {
          "indexed": false,
          "internalType": "uint256",
          "name": "tokenId",
          "type": "uint256"
        },
        {
          "indexed": false,
          "internalType": "address",
          "name": "seller",
          "type": "address"
        },
        {
          "indexed": false,
          "internalType": "uint256",
          "name": "price",
          "type": "uint256"
        },
        {
          "indexed": false,
          "internalType": "uint256",
          "name": "amount",
          "type": "uint256"
        }
      ],
      "name": "SharesListingPoolCreated",
      "type": "event"
    },
    {
      "anonymous": false,
      "inputs": [
        {
          "indexed": false,
          "internalType": "uint256",
          "name": "sharesListingPoolId",
          "type": "uint256"
        },
        {
          "indexed": false,
          "internalType": "uint256",
          "name": "amount",
          "type": "uint256"
        }
      ],
      "name": "SharesListingPoolDeposit",
      "type": "event"
    },
    {
      "anonymous": false,
      "inputs": [
        {
          "indexed": false,
          "internalType": "uint256",
          "name": "sharesListingPoolId",
          "type": "uint256"
        },
        {
          "indexed": false,
          "internalType": "uint256",
          "name": "tokenId",
          "type": "uint256"
        },
        {
          "indexed": false,
          "internalType": "uint256",
          "name": "price",
          "type": "uint256"
        },
        {
          "indexed": false,
          "internalType": "uint256",
          "name": "amount",
          "type": "uint256"
        },
        {
          "indexed": false,
          "internalType": "address",
          "name": "seller",
          "type": "address"
        },
        {
          "indexed": false,
          "internalType": "address",
          "name": "buyer",
          "type": "address"
        }
      ],
      "name": "SharesListingPoolPurchase",
      "type": "event"
    },
    {
      "anonymous": false,
      "inputs": [
        {
          "indexed": false,
          "internalType": "uint256",
          "name": "sharesListingPoolId",
          "type": "uint256"
        },
        {
          "indexed": false,
          "internalType": "uint256",
          "name": "amount",
          "type": "uint256"
        }
      ],
      "name": "SharesListingPoolWithdraw",
      "type": "event"
    },
    {
      "anonymous": false,
      "inputs": [
        {
          "indexed": false,
          "internalType": "uint256",
          "name": "listingId",
          "type": "uint256"
        },
        {
          "indexed": false,
          "internalType": "uint256",
          "name": "tokenId",
          "type": "uint256"
        },
        {
          "indexed": false,
          "internalType": "uint256",
          "name": "price",
          "type": "uint256"
        },
        {
          "indexed": false,
          "internalType": "uint256",
          "name": "amount",
          "type": "uint256"
        },
        {
          "indexed": false,
          "internalType": "address",
          "name": "seller",
          "type": "address"
        },
        {
          "indexed": false,
          "internalType": "address",
          "name": "buyer",
          "type": "address"
        }
      ],
      "name": "SharesListingPurchased",
      "type": "event"
    },
    {
      "anonymous": false,
      "inputs": [
        {
          "indexed": false,
          "internalType": "address",
          "name": "account",
          "type": "address"
        }
      ],
      "name": "Unpaused",
      "type": "event"
    },
    {
      "inputs": [
        {
          "internalType": "uint256",
          "name": "groupInvestmentId",
          "type": "uint256"
        }
      ],
      "name": "acceptGroupInvestment",
      "outputs": [],
      "stateMutability": "nonpayable",
      "type": "function"
    },
    {
      "inputs": [
        {
          "internalType": "address",
          "name": "",
          "type": "address"
        },
        {
          "internalType": "uint256",
          "name": "",
          "type": "uint256"
        }
      ],
      "name": "addressToSharesListingPoolIds",
      "outputs": [
        {
          "internalType": "uint256",
          "name": "",
          "type": "uint256"
        }
      ],
      "stateMutability": "view",
      "type": "function"
    },
    {
      "inputs": [],
      "name": "blockEstateAssetsAddress",
      "outputs": [
        {
          "internalType": "address",
          "name": "",
          "type": "address"
        }
      ],
      "stateMutability": "view",
      "type": "function"
    },
    {
      "inputs": [],
      "name": "blockEstateSharesAddress",
      "outputs": [
        {
          "internalType": "address",
          "name": "",
          "type": "address"
        }
      ],
      "stateMutability": "view",
      "type": "function"
    },
    {
      "inputs": [
        {
          "internalType": "uint256",
          "name": "listingId",
          "type": "uint256"
        },
        {
          "internalType": "address[]",
          "name": "investors",
          "type": "address[]"
        },
        {
          "internalType": "uint256[]",
          "name": "sharesAmounts",
          "type": "uint256[]"
        }
      ],
      "name": "createSharesGroupInvestment",
      "outputs": [],
      "stateMutability": "nonpayable",
      "type": "function"
    },
    {
      "inputs": [
        {
          "internalType": "uint256",
          "name": "tokenId",
          "type": "uint256"
        },
        {
          "internalType": "uint256",
          "name": "price",
          "type": "uint256"
        },
        {
          "internalType": "uint256",
          "name": "amount",
          "type": "uint256"
        }
      ],
      "name": "createSharesListing",
      "outputs": [],
      "stateMutability": "nonpayable",
      "type": "function"
    },
    {
      "inputs": [
        {
          "internalType": "uint256",
          "name": "tokenId",
          "type": "uint256"
        },
        {
          "internalType": "uint256",
          "name": "price",
          "type": "uint256"
        },
        {
          "internalType": "uint256",
          "name": "amount",
          "type": "uint256"
        }
      ],
      "name": "createSharesListingPool",
      "outputs": [],
      "stateMutability": "nonpayable",
      "type": "function"
    },
    {
      "inputs": [
        {
          "internalType": "uint256",
          "name": "listingId",
          "type": "uint256"
        }
      ],
      "name": "deleteSharesListing",
      "outputs": [],
      "stateMutability": "nonpayable",
      "type": "function"
    },
    {
      "inputs": [
        {
          "internalType": "uint256",
          "name": "_amount",
          "type": "uint256"
        }
      ],
      "name": "deposit",
      "outputs": [],
      "stateMutability": "nonpayable",
      "type": "function"
    },
    {
      "inputs": [
        {
          "internalType": "uint256",
          "name": "sharesListingPoolId",
          "type": "uint256"
        },
        {
          "internalType": "uint256",
          "name": "amount",
          "type": "uint256"
        }
      ],
      "name": "depositSharesListingPool",
      "outputs": [],
      "stateMutability": "nonpayable",
      "type": "function"
    },
    {
      "inputs": [
        {
          "internalType": "address",
          "name": "",
          "type": "address"
        }
      ],
      "name": "fundsPool",
      "outputs": [
        {
          "internalType": "uint256",
          "name": "",
          "type": "uint256"
        }
      ],
      "stateMutability": "view",
      "type": "function"
    },
    {
      "inputs": [
        {
          "internalType": "uint256",
          "name": "",
          "type": "uint256"
        }
      ],
      "name": "groupInvestments",
      "outputs": [
        {
          "internalType": "uint256",
          "name": "investmentId",
          "type": "uint256"
        },
        {
          "internalType": "uint256",
          "name": "listingId",
          "type": "uint256"
        },
        {
          "internalType": "bool",
          "name": "isActive",
          "type": "bool"
        }
      ],
      "stateMutability": "view",
      "type": "function"
    },
    {
      "inputs": [
        {
          "internalType": "address",
          "name": "",
          "type": "address"
        },
        {
          "internalType": "address",
          "name": "",
          "type": "address"
        },
        {
          "internalType": "uint256[]",
          "name": "",
          "type": "uint256[]"
        },
        {
          "internalType": "uint256[]",
          "name": "",
          "type": "uint256[]"
        },
        {
          "internalType": "bytes",
          "name": "",
          "type": "bytes"
        }
      ],
      "name": "onERC1155BatchReceived",
      "outputs": [
        {
          "internalType": "bytes4",
          "name": "",
          "type": "bytes4"
        }
      ],
      "stateMutability": "nonpayable",
      "type": "function"
    },
    {
      "inputs": [
        {
          "internalType": "address",
          "name": "",
          "type": "address"
        },
        {
          "internalType": "address",
          "name": "",
          "type": "address"
        },
        {
          "internalType": "uint256",
          "name": "",
          "type": "uint256"
        },
        {
          "internalType": "uint256",
          "name": "",
          "type": "uint256"
        },
        {
          "internalType": "bytes",
          "name": "",
          "type": "bytes"
        }
      ],
      "name": "onERC1155Received",
      "outputs": [
        {
          "internalType": "bytes4",
          "name": "",
          "type": "bytes4"
        }
      ],
      "stateMutability": "nonpayable",
      "type": "function"
    },
    {
      "inputs": [],
      "name": "owner",
      "outputs": [
        {
          "internalType": "address",
          "name": "",
          "type": "address"
        }
      ],
      "stateMutability": "view",
      "type": "function"
    },
    {
      "inputs": [],
      "name": "pause",
      "outputs": [],
      "stateMutability": "nonpayable",
      "type": "function"
    },
    {
      "inputs": [],
      "name": "paused",
      "outputs": [
        {
          "internalType": "bool",
          "name": "",
          "type": "bool"
        }
      ],
      "stateMutability": "view",
      "type": "function"
    },
    {
      "inputs": [
        {
          "internalType": "uint256",
          "name": "sharesListingPoolId",
          "type": "uint256"
        },
        {
          "internalType": "uint256",
          "name": "amount",
          "type": "uint256"
        }
      ],
      "name": "purchaseFromSharesListingPool",
      "outputs": [],
      "stateMutability": "nonpayable",
      "type": "function"
    },
    {
      "inputs": [
        {
          "internalType": "uint256",
          "name": "listingId",
          "type": "uint256"
        }
      ],
      "name": "purchaseSharesListing",
      "outputs": [],
      "stateMutability": "nonpayable",
      "type": "function"
    },
    {
      "inputs": [],
      "name": "readAllGroupInvestments",
      "outputs": [
        {
          "components": [
            {
              "internalType": "uint256",
              "name": "investmentId",
              "type": "uint256"
            },
            {
              "internalType": "uint256",
              "name": "listingId",
              "type": "uint256"
            },
            {
              "internalType": "address[]",
              "name": "investors",
              "type": "address[]"
            },
            {
              "internalType": "uint256[]",
              "name": "sharesAmounts",
              "type": "uint256[]"
            },
            {
              "internalType": "address[]",
              "name": "accepted",
              "type": "address[]"
            },
            {
              "internalType": "bool",
              "name": "isActive",
              "type": "bool"
            }
          ],
          "internalType": "struct BlockEstateMarket.GroupInvestment[]",
          "name": "",
          "type": "tuple[]"
        }
      ],
      "stateMutability": "view",
      "type": "function"
    },
    {
      "inputs": [],
      "name": "readAllSharesListingPools",
      "outputs": [
        {
          "components": [
            {
              "internalType": "uint256",
              "name": "sharesListingPoolId",
              "type": "uint256"
            },
            {
              "internalType": "uint256",
              "name": "tokenId",
              "type": "uint256"
            },
            {
              "internalType": "address",
              "name": "seller",
              "type": "address"
            },
            {
              "internalType": "uint256",
              "name": "price",
              "type": "uint256"
            },
            {
              "internalType": "uint256",
              "name": "amount",
              "type": "uint256"
            }
          ],
          "internalType": "struct BlockEstateMarket.SharesListingPool[]",
          "name": "",
          "type": "tuple[]"
        }
      ],
      "stateMutability": "view",
      "type": "function"
    },
    {
      "inputs": [],
      "name": "readAllSharesListings",
      "outputs": [
        {
          "components": [
            {
              "internalType": "uint256",
              "name": "listingId",
              "type": "uint256"
            },
            {
              "internalType": "uint256",
              "name": "tokenId",
              "type": "uint256"
            },
            {
              "internalType": "uint256",
              "name": "price",
              "type": "uint256"
            },
            {
              "internalType": "uint256",
              "name": "amount",
              "type": "uint256"
            },
            {
              "internalType": "address",
              "name": "seller",
              "type": "address"
            },
            {
              "internalType": "bool",
              "name": "isActive",
              "type": "bool"
            }
          ],
          "internalType": "struct BlockEstateMarket.SharesListing[]",
          "name": "",
          "type": "tuple[]"
        }
      ],
      "stateMutability": "view",
      "type": "function"
    },
    {
      "inputs": [
        {
          "internalType": "uint256",
          "name": "investmentId",
          "type": "uint256"
        }
      ],
      "name": "readGroupInvestment",
      "outputs": [
        {
          "components": [
            {
              "internalType": "uint256",
              "name": "investmentId",
              "type": "uint256"
            },
            {
              "internalType": "uint256",
              "name": "listingId",
              "type": "uint256"
            },
            {
              "internalType": "address[]",
              "name": "investors",
              "type": "address[]"
            },
            {
              "internalType": "uint256[]",
              "name": "sharesAmounts",
              "type": "uint256[]"
            },
            {
              "internalType": "address[]",
              "name": "accepted",
              "type": "address[]"
            },
            {
              "internalType": "bool",
              "name": "isActive",
              "type": "bool"
            }
          ],
          "internalType": "struct BlockEstateMarket.GroupInvestment",
          "name": "",
          "type": "tuple"
        }
      ],
      "stateMutability": "view",
      "type": "function"
    },
    {
      "inputs": [],
      "name": "readGroupInvestmentsByAccount",
      "outputs": [
        {
          "components": [
            {
              "internalType": "uint256",
              "name": "investmentId",
              "type": "uint256"
            },
            {
              "internalType": "uint256",
              "name": "listingId",
              "type": "uint256"
            },
            {
              "internalType": "address[]",
              "name": "investors",
              "type": "address[]"
            },
            {
              "internalType": "uint256[]",
              "name": "sharesAmounts",
              "type": "uint256[]"
            },
            {
              "internalType": "address[]",
              "name": "accepted",
              "type": "address[]"
            },
            {
              "internalType": "bool",
              "name": "isActive",
              "type": "bool"
            }
          ],
          "internalType": "struct BlockEstateMarket.GroupInvestment[]",
          "name": "",
          "type": "tuple[]"
        }
      ],
      "stateMutability": "view",
      "type": "function"
    },
    {
      "inputs": [
        {
          "internalType": "address",
          "name": "account",
          "type": "address"
        }
      ],
      "name": "readListingsByAccount",
      "outputs": [
        {
          "components": [
            {
              "internalType": "uint256",
              "name": "listingId",
              "type": "uint256"
            },
            {
              "internalType": "uint256",
              "name": "tokenId",
              "type": "uint256"
            },
            {
              "internalType": "uint256",
              "name": "price",
              "type": "uint256"
            },
            {
              "internalType": "uint256",
              "name": "amount",
              "type": "uint256"
            },
            {
              "internalType": "address",
              "name": "seller",
              "type": "address"
            },
            {
              "internalType": "bool",
              "name": "isActive",
              "type": "bool"
            }
          ],
          "internalType": "struct BlockEstateMarket.SharesListing[]",
          "name": "",
          "type": "tuple[]"
        }
      ],
      "stateMutability": "view",
      "type": "function"
    },
    {
      "inputs": [
        {
          "internalType": "uint256",
          "name": "tokenId",
          "type": "uint256"
        }
      ],
      "name": "readListingsByAsset",
      "outputs": [
        {
          "components": [
            {
              "internalType": "uint256",
              "name": "listingId",
              "type": "uint256"
            },
            {
              "internalType": "uint256",
              "name": "tokenId",
              "type": "uint256"
            },
            {
              "internalType": "uint256",
              "name": "price",
              "type": "uint256"
            },
            {
              "internalType": "uint256",
              "name": "amount",
              "type": "uint256"
            },
            {
              "internalType": "address",
              "name": "seller",
              "type": "address"
            },
            {
              "internalType": "bool",
              "name": "isActive",
              "type": "bool"
            }
          ],
          "internalType": "struct BlockEstateMarket.SharesListing[]",
          "name": "",
          "type": "tuple[]"
        }
      ],
      "stateMutability": "view",
      "type": "function"
    },
    {
      "inputs": [
        {
          "internalType": "address",
          "name": "account",
          "type": "address"
        },
        {
          "internalType": "uint256",
          "name": "tokenId",
          "type": "uint256"
        }
      ],
      "name": "readSharesBalanceInPoolsOf",
      "outputs": [
        {
          "internalType": "uint256",
          "name": "",
          "type": "uint256"
        }
      ],
      "stateMutability": "view",
      "type": "function"
    },
    {
      "inputs": [
        {
          "internalType": "address",
          "name": "account",
          "type": "address"
        }
      ],
      "name": "readSharesListingPoolsByAccount",
      "outputs": [
        {
          "components": [
            {
              "internalType": "uint256",
              "name": "sharesListingPoolId",
              "type": "uint256"
            },
            {
              "internalType": "uint256",
              "name": "tokenId",
              "type": "uint256"
            },
            {
              "internalType": "address",
              "name": "seller",
              "type": "address"
            },
            {
              "internalType": "uint256",
              "name": "price",
              "type": "uint256"
            },
            {
              "internalType": "uint256",
              "name": "amount",
              "type": "uint256"
            }
          ],
          "internalType": "struct BlockEstateMarket.SharesListingPool[]",
          "name": "",
          "type": "tuple[]"
        }
      ],
      "stateMutability": "view",
      "type": "function"
    },
    {
      "inputs": [
        {
          "internalType": "uint256",
          "name": "tokenId",
          "type": "uint256"
        }
      ],
      "name": "readSharesListingPoolsByAsset",
      "outputs": [
        {
          "components": [
            {
              "internalType": "uint256",
              "name": "sharesListingPoolId",
              "type": "uint256"
            },
            {
              "internalType": "uint256",
              "name": "tokenId",
              "type": "uint256"
            },
            {
              "internalType": "address",
              "name": "seller",
              "type": "address"
            },
            {
              "internalType": "uint256",
              "name": "price",
              "type": "uint256"
            },
            {
              "internalType": "uint256",
              "name": "amount",
              "type": "uint256"
            }
          ],
          "internalType": "struct BlockEstateMarket.SharesListingPool[]",
          "name": "",
          "type": "tuple[]"
        }
      ],
      "stateMutability": "view",
      "type": "function"
    },
    {
      "inputs": [
        {
          "internalType": "uint256",
          "name": "groupInvestmentId",
          "type": "uint256"
        }
      ],
      "name": "refuseGroupInvestment",
      "outputs": [],
      "stateMutability": "nonpayable",
      "type": "function"
    },
    {
      "inputs": [],
      "name": "renounceOwnership",
      "outputs": [],
      "stateMutability": "nonpayable",
      "type": "function"
    },
    {
      "inputs": [
        {
          "internalType": "uint256",
          "name": "groupInvestmentId",
          "type": "uint256"
        }
      ],
      "name": "revokeGroupInvestment",
      "outputs": [],
      "stateMutability": "nonpayable",
      "type": "function"
    },
    {
      "inputs": [
        {
          "internalType": "address",
          "name": "_blockEstateAssetsAddress",
          "type": "address"
        }
      ],
      "name": "setBlockEstateAssetsAddress",
      "outputs": [],
      "stateMutability": "nonpayable",
      "type": "function"
    },
    {
      "inputs": [
        {
          "internalType": "address",
          "name": "_blockEstateRentalsAddress",
          "type": "address"
        }
      ],
      "name": "setBlockEstateRentalsAddress",
      "outputs": [],
      "stateMutability": "nonpayable",
      "type": "function"
    },
    {
      "inputs": [
        {
          "internalType": "address",
          "name": "_blockEstateSharesAddress",
          "type": "address"
        }
      ],
      "name": "setBlockEstateSharesAddress",
      "outputs": [],
      "stateMutability": "nonpayable",
      "type": "function"
    },
    {
      "inputs": [
        {
          "internalType": "uint256",
          "name": "",
          "type": "uint256"
        }
      ],
      "name": "sharesListingPools",
      "outputs": [
        {
          "internalType": "uint256",
          "name": "sharesListingPoolId",
          "type": "uint256"
        },
        {
          "internalType": "uint256",
          "name": "tokenId",
          "type": "uint256"
        },
        {
          "internalType": "address",
          "name": "seller",
          "type": "address"
        },
        {
          "internalType": "uint256",
          "name": "price",
          "type": "uint256"
        },
        {
          "internalType": "uint256",
          "name": "amount",
          "type": "uint256"
        }
      ],
      "stateMutability": "view",
      "type": "function"
    },
    {
      "inputs": [
        {
          "internalType": "uint256",
          "name": "",
          "type": "uint256"
        }
      ],
      "name": "sharesListings",
      "outputs": [
        {
          "internalType": "uint256",
          "name": "listingId",
          "type": "uint256"
        },
        {
          "internalType": "uint256",
          "name": "tokenId",
          "type": "uint256"
        },
        {
          "internalType": "uint256",
          "name": "price",
          "type": "uint256"
        },
        {
          "internalType": "uint256",
          "name": "amount",
          "type": "uint256"
        },
        {
          "internalType": "address",
          "name": "seller",
          "type": "address"
        },
        {
          "internalType": "bool",
          "name": "isActive",
          "type": "bool"
        }
      ],
      "stateMutability": "view",
      "type": "function"
    },
    {
      "inputs": [
        {
          "internalType": "bytes4",
          "name": "interfaceId",
          "type": "bytes4"
        }
      ],
      "name": "supportsInterface",
      "outputs": [
        {
          "internalType": "bool",
          "name": "",
          "type": "bool"
        }
      ],
      "stateMutability": "view",
      "type": "function"
    },
    {
      "inputs": [
        {
          "internalType": "address",
          "name": "from",
          "type": "address"
        },
        {
          "internalType": "address",
          "name": "to",
          "type": "address"
        },
        {
          "internalType": "uint256",
          "name": "amount",
          "type": "uint256"
        }
      ],
      "name": "transferFunds",
      "outputs": [],
      "stateMutability": "nonpayable",
      "type": "function"
    },
    {
      "inputs": [
        {
          "internalType": "address",
          "name": "newOwner",
          "type": "address"
        }
      ],
      "name": "transferOwnership",
      "outputs": [],
      "stateMutability": "nonpayable",
      "type": "function"
    },
    {
      "inputs": [],
      "name": "unpause",
      "outputs": [],
      "stateMutability": "nonpayable",
      "type": "function"
    },
    {
      "inputs": [],
      "name": "usd",
      "outputs": [
        {
          "internalType": "contract IERC20",
          "name": "",
          "type": "address"
        }
      ],
      "stateMutability": "view",
      "type": "function"
    },
    {
      "inputs": [
        {
          "internalType": "address",
          "name": "",
          "type": "address"
        },
        {
          "internalType": "uint256",
          "name": "",
          "type": "uint256"
        }
      ],
      "name": "userGroupInvestments",
      "outputs": [
        {
          "internalType": "uint256",
          "name": "",
          "type": "uint256"
        }
      ],
      "stateMutability": "view",
      "type": "function"
    },
    {
      "inputs": [
        {
          "internalType": "address",
          "name": "",
          "type": "address"
        },
        {
          "internalType": "uint256",
          "name": "",
          "type": "uint256"
        }
      ],
      "name": "userListings",
      "outputs": [
        {
          "internalType": "uint256",
          "name": "",
          "type": "uint256"
        }
      ],
      "stateMutability": "view",
      "type": "function"
    },
    {
      "inputs": [
        {
          "internalType": "uint256",
          "name": "_amount",
          "type": "uint256"
        }
      ],
      "name": "withdraw",
      "outputs": [],
      "stateMutability": "nonpayable",
      "type": "function"
    },
    {
      "inputs": [
        {
          "internalType": "uint256",
          "name": "sharesListingPoolId",
          "type": "uint256"
        },
        {
          "internalType": "uint256",
          "name": "amount",
          "type": "uint256"
        }
      ],
      "name": "withdrawSharesListingPool",
      "outputs": [],
      "stateMutability": "nonpayable",
      "type": "function"
    }
  ],
  "bytecode": "0x60806040523480156200001157600080fd5b5060405162004f3e38038062004f3e8339810160408190526200003491620001d9565b6200003f336200016c565b6000805460ff60a01b19169055600180556001600160a01b0383166200009b5760405162461bcd60e51b815260206004820152600c60248201526b7a65726f206164647265737360a01b60448201526064015b60405180910390fd5b6001600160a01b038216620000e25760405162461bcd60e51b815260206004820152600c60248201526b7a65726f206164647265737360a01b604482015260640162000092565b6001600160a01b038116620001295760405162461bcd60e51b815260206004820152600c60248201526b7a65726f206164647265737360a01b604482015260640162000092565b600580546001600160a01b039485166001600160a01b03199182161790915560068054938516938216939093179092556008805491909316911617905562000223565b600080546001600160a01b038381166001600160a01b0319831681178455604051919092169283917f8be0079c531659141344cd1fd0a4f28419497f9722a3daafe3b4186f6b6457e09190a35050565b80516001600160a01b0381168114620001d457600080fd5b919050565b600080600060608486031215620001ef57600080fd5b620001fa84620001bc565b92506200020a60208501620001bc565b91506200021a60408501620001bc565b90509250925092565b614d0b80620002336000396000f3fe608060405234801561001057600080fd5b506004361061028a5760003560e01c80638456cb591161015c578063cf7080eb116100ce578063eb9e00b911610087578063eb9e00b914610700578063f23a6e6114610713578063f255ac8a14610732578063f2fde38b1461073a578063f486ca581461074d578063f5f333971461075557600080fd5b8063cf7080eb14610650578063d05ee8d21461069f578063d63a6ccd146106b4578063d956c104146106c7578063e2b90598146106da578063e8c7d99a146106ed57600080fd5b80639f653c51116101205780639f653c511461054f578063a0b7dfdb14610562578063a81269fa146105df578063a8e8f0cd146105f2578063b6b55f2514610605578063bc197c811461061857600080fd5b80638456cb59146104fd57806386cfa7d3146105055780638c0ba022146105185780638da5cb5b1461052b5780639a5d65241461053c57600080fd5b80634e697728116102005780636b78018b116101b95780636b78018b146103fa5780636e86e79514610425578063715018a6146104455780637716e5731461044d5780637e2cb96c146104d75780637fa3d39e146104ea57600080fd5b80634e697728146103945780635131e4e71461039c5780635a74874b146103af5780635c975abb146103c25780635ce02655146103d457806363571e65146103e757600080fd5b80632f3ae1d5116102525780632f3ae1d514610305578063367eeb47146103255780633f4ba83a146103455780634147e8fd1461034d578063416968181461036e578063469fc5291461038157600080fd5b806301ffc9a71461028f578063097dd3a4146102b75780631501bf03146102cc57806323be15bb146102df5780632e1a7d4d146102f2575b600080fd5b6102a261029d3660046143e3565b610775565b60405190151581526020015b60405180910390f35b6102ca6102c5366004614414565b6107ac565b005b6102ca6102da36600461445c565b610bd2565b6102ca6102ed366004614498565b610ce7565b6102ca610300366004614498565b611165565b610318610313366004614498565b611263565b6040516102ae91906144b1565b610338610333366004614498565b611387565b6040516102ae9190614528565b6102ca6114b4565b61036061035b36600461459e565b6114c6565b6040519081526020016102ae565b6102ca61037c366004614498565b6114f7565b61036061038f36600461459e565b611622565b6103386116ab565b6102ca6103aa3660046145c8565b6117cd565b6102ca6103bd366004614498565b611864565b600054600160a01b900460ff166102a2565b6102ca6103e23660046145e3565b611927565b6102ca6103f53660046145c8565b611ad1565b60055461040d906001600160a01b031681565b6040516001600160a01b0390911681526020016102ae565b6103606104333660046145c8565b60096020526000908152604090205481565b6102ca611b68565b61049f61045b366004614498565b600a6020526000908152604090208054600182015460028301546003840154600490940154929391929091906001600160a01b03811690600160a01b900460ff1686565b6040805196875260208701959095529385019290925260608401526001600160a01b03166080830152151560a082015260c0016102ae565b6103186104e53660046145c8565b611b7a565b6102ca6104f83660046145e3565b611c98565b6102ca611e9c565b61036061051336600461459e565b611eac565b6102ca610526366004614498565b611ec8565b6000546001600160a01b031661040d565b6102ca61054a366004614498565b61203b565b60065461040d906001600160a01b031681565b6105a9610570366004614498565b600c6020526000908152604090208054600182015460028301546003840154600490940154929391926001600160a01b03909116919085565b6040805195865260208601949094526001600160a01b03909216928401929092526060830191909152608082015260a0016102ae565b6102ca6105ed3660046145c8565b61233a565b61036061060036600461459e565b6123d1565b6102ca610613366004614498565b6123ed565b610637610626366004614748565b63bc197c8160e01b95945050505050565b6040516001600160e01b031990911681526020016102ae565b61068261065e366004614498565b600e6020526000908152604090208054600182015460059092015490919060ff1683565b6040805193845260208401929092521515908201526060016102ae565b6106a7612490565b6040516102ae91906148d1565b60085461040d906001600160a01b031681565b6103386106d53660046145c8565b612699565b6102ca6106e83660046145e3565b6127fe565b6102ca6106fb366004614933565b612af7565b6102ca61070e366004614414565b6130b1565b6106376107213660046149fd565b63f23a6e6160e01b95945050505050565b6106a761365b565b6102ca6107483660046145c8565b613899565b61031861390f565b610768610763366004614498565b613a19565b6040516102ae9190614a61565b60006001600160e01b03198216630271189760e51b14806107a657506301ffc9a760e01b6001600160e01b03198316145b92915050565b600554604051634f558e7960e01b81526004810185905284916001600160a01b031690634f558e7990602401602060405180830381865afa1580156107f5573d6000803e3d6000fd5b505050506040513d601f19601f820116820180604052508101906108199190614a74565b6108625760405162461bcd60e51b8152602060048201526015602482015274417373657420646f6573206e6f742065786973742160581b60448201526064015b60405180910390fd5b600654604051627eeac760e11b81523360048201819052602482018790529186916000916001600160a01b03169062fdd58e90604401602060405180830381865afa1580156108b5573d6000803e3d6000fd5b505050506040513d601f19601f820116820180604052508101906108d99190614a96565b116109185760405162461bcd60e51b815260206004820152600f60248201526e3737ba1039b430b932b437b63232b960891b6044820152606401610859565b610920613b77565b600085116109605760405162461bcd60e51b815260206004820152600d60248201526c1c1c9a58d9480f080c481554d1609a1b6044820152606401610859565b600084116109805760405162461bcd60e51b815260040161085990614aaf565b60065460405163e985e9c560e01b81523360048201523060248201526001600160a01b039091169063e985e9c590604401602060405180830381865afa1580156109ce573d6000803e3d6000fd5b505050506040513d601f19601f820116820180604052508101906109f29190614a74565b610a355760405162461bcd60e51b81526020600482015260146024820152731b9bdd08185c1c1c9bdd995908199bdc88185b1b60621b6044820152606401610859565b600654604051637921219560e11b81526001600160a01b039091169063f242432a90610a6b90339030908b908a90600401614ad3565b600060405180830381600087803b158015610a8557600080fd5b505af1158015610a99573d6000803e3d6000fd5b505050506040518060a00160405280610ab160035490565b81526020810188905233604082015260608101879052608001859052600c6000610ada60035490565b81526020808201929092526040908101600090812084518155848401516001820155848301516002820180546001600160a01b0319166001600160a01b039092169190911790556060850151600380830191909155608090950151600490910155338152600d90925290209054815460018101835560009283526020909220909101557f612c47c93a38c3d19962445858bd6728e5e62913bf78ff53f27726dd6fa64dc9610b8760035490565b60408051918252602082018990523390820152606081018790526080810186905260a00160405180910390a1610bc1600380546001019055565b610bca60018055565b505050505050565b336001600160a01b0384161480610bf357506007546001600160a01b031633145b610c2d5760405162461bcd60e51b815260206004820152600b60248201526a1b9bdd08185b1b1bddd95960aa1b6044820152606401610859565b6001600160a01b038316600090815260096020526040902054811115610c885760405162461bcd60e51b815260206004820152601060248201526f6e6f7420656e6f7567682066756e647360801b6044820152606401610859565b6001600160a01b03831660009081526009602052604081208054839290610cb0908490614b21565b90915550506001600160a01b03821660009081526009602052604081208054839290610cdd908490614b34565b9091555050505050565b6000818152600e602052604090206005015460ff16610d185760405162461bcd60e51b815260040161085990614b47565b6000805b6000838152600e6020526040902060020154811015610dd1576000838152600e60205260409020600201805433919083908110610d5b57610d5b614b97565b6000918252602090912001546001600160a01b031603610d7a57600191505b6000838152600e60205260409020600201805433919083908110610da057610da0614b97565b6000918252602090912001546001600160a01b031603610dbf57600191505b80610dc981614bad565b915050610d1c565b5080610def5760405162461bcd60e51b815260040161085990614bc6565b60005b6000838152600e6020526040902060040154811015610ea5576000838152600e60205260409020600401805433919083908110610e3157610e31614b97565b6000918252602090912001546001600160a01b031603610e935760405162461bcd60e51b815260206004820152601760248201527f53656e64657220616c72656164792061636365707465640000000000000000006044820152606401610859565b80610e9d81614bad565b915050610df2565b506000828152600e60209081526040822060040180546001810182559083529082200180546001600160a01b031916331790555b6000838152600e60205260409020600201548110156110d7576008546000848152600e60205260408120600201805491926001600160a01b03169163dd62ed3e919085908110610f2b57610f2b614b97565b60009182526020909120015460405160e083901b6001600160e01b03191681526001600160a01b039091166004820152306024820152604401602060405180830381865afa158015610f81573d6000803e3d6000fd5b505050506040513d601f19601f82011682018060405250810190610fa59190614a96565b6000858152600e6020526040902060030180549192509083908110610fcc57610fcc614b97565b90600052602060002001548110156110c45760005b6000858152600e60205260409020600401548110156110c2576000858152600e6020526040902060020180548490811061101d5761101d614b97565b6000918252602080832090910154878352600e909152604090912060040180546001600160a01b03909216918390811061105957611059614b97565b6000918252602090912001546001600160a01b0316036110b0576000858152600e6020526040902060040180548490811061109657611096614b97565b600091825260209091200180546001600160a01b03191690555b806110ba81614bad565b915050610fe1565b505b50806110cf81614bad565b915050610ed9565b506000828152600e60205260409020600281015460049091015403611161576000828152600e60205260409020600101546111129083613bd0565b6000828152600e602052604081208181556001810182905590611138600283018261425f565b61114660038301600061425f565b61115460048301600061425f565b50600501805460ff191690555b5050565b61116d613b77565b336000908152600960205260409020548111156111bf5760405162461bcd60e51b815260206004820152601060248201526f6e6f7420656e6f7567682066756e647360801b6044820152606401610859565b60085460405163a9059cbb60e01b8152336004820152602481018390526001600160a01b039091169063a9059cbb906044016020604051808303816000875af1158015611210573d6000803e3d6000fd5b505050506040513d601f19601f820116820180604052508101906112349190614a74565b503360009081526009602052604081208054839290611254908490614b21565b90915550506001805550565b50565b6060600061127060035490565b6001600160401b0381111561128757611287614605565b6040519080825280602002602001820160405280156112c057816020015b6112ad61427d565b8152602001906001900390816112a55790505b5090506000805b60035481101561137e576000818152600c602052604090206001015485900361136c576000818152600c6020908152604091829020825160a0810184528154815260018201549281019290925260028101546001600160a01b031692820192909252600382015460608201526004909101546080820152835184908490811061135257611352614b97565b6020026020010181905250818061136890614bad565b9250505b8061137681614bad565b9150506112c7565b50909392505050565b6060600061139460025490565b6001600160401b038111156113ab576113ab614605565b6040519080825280602002602001820160405280156113e457816020015b6113d16142b5565b8152602001906001900390816113c95790505b5090506000805b60025481101561137e576000818152600a60205260409020600101548590036114a2576000818152600a6020908152604091829020825160c08101845281548152600182015492810192909252600281015492820192909252600382015460608201526004909101546001600160a01b0381166080830152600160a01b900460ff16151560a0820152835184908490811061148857611488614b97565b6020026020010181905250818061149e90614bad565b9250505b806114ac81614bad565b9150506113eb565b6114bc614080565b6114c46140da565b565b600d60205281600052604060002081815481106114e257600080fd5b90600052602060002001600091509150505481565b6114ff613b77565b6000818152600a60205260409020600401546001600160a01b031633146115685760405162461bcd60e51b815260206004820152601e60248201527f4f6e6c792073656c6c65722063616e2064656c657465206c697374696e6700006044820152606401610859565b6000818152600a60209081526040918290206001810154600282015460038301546004909301548551878152948501929092528385015260608301919091526001600160a01b0316608082015290517f9eec8eb2210167a0d90bf048cbbd21154b36b1941fa1413a1294343b0f38c5999181900360a00190a16000818152600a602052604081208181556001810182905560028101829055600381019190915560040180546001600160a81b031916905561126060018055565b600080805b6003548110156116a3576000818152600c60205260409020600101548414801561166d57506000818152600c60205260409020600201546001600160a01b038681169116145b15611691576000818152600c602052604090206004015461168e9083614b34565b91505b8061169b81614bad565b915050611627565b509392505050565b606060006116b860025490565b6001600160401b038111156116cf576116cf614605565b60405190808252806020026020018201604052801561170857816020015b6116f56142b5565b8152602001906001900390816116ed5790505b50905060005b6002548110156117c7576000818152600a6020526040902060010154156117b5576000818152600a6020908152604091829020825160c08101845281548152600182015492810192909252600281015492820192909252600382015460608201526004909101546001600160a01b0381166080830152600160a01b900460ff16151560a082015282518390839081106117a9576117a9614b97565b60200260200101819052505b806117bf81614bad565b91505061170e565b50919050565b6117d5614080565b6001600160a01b0381166117fb5760405162461bcd60e51b815260040161085990614bfd565b600654604080516001600160a01b03928316815291831660208301527f1a41fb6f752ad018610bf79716ec70546bbda4a0235520e04158d3c4f3486230910160405180910390a1600680546001600160a01b0319166001600160a01b0392909216919091179055565b6000818152600e602052604090206005015460ff166118955760405162461bcd60e51b815260040161085990614b47565b6000805b6000838152600e6020526040902060020154811015611909576000838152600e602052604090206002018054339190839081106118d8576118d8614b97565b6000918252602090912001546001600160a01b0316036118f757600191505b8061190181614bad565b915050611899565b50806111125760405162461bcd60e51b815260040161085990614bc6565b6000828152600c602052604081206001015490036119575760405162461bcd60e51b815260040161085990614c23565b6000828152600c60205260409020600201546001600160a01b031633146119d25760405162461bcd60e51b815260206004820152602960248201527f4f6e6c792073656c6c65722063616e206465706f73697420696e746f206c69736044820152681d1a5b99c81c1bdbdb60ba1b6064820152608401610859565b600081116119f25760405162461bcd60e51b815260040161085990614aaf565b6006546000838152600c602052604090819020600101549051637921219560e11b81526001600160a01b039092169163f242432a91611a3991339130918790600401614ad3565b600060405180830381600087803b158015611a5357600080fd5b505af1158015611a67573d6000803e3d6000fd5b5050506000838152600c602052604081206004018054849350909190611a8e908490614b34565b909155505060408051838152602081018390527f8be5e17e9428777180e5d4111e24d61d3bff785f2fb3cdf994d6563161f4563e91015b60405180910390a15050565b611ad9614080565b6001600160a01b038116611aff5760405162461bcd60e51b815260040161085990614bfd565b600554604080516001600160a01b03928316815291831660208301527f3c382290b39c0f8e7c9445f3393899e71f6f8b9a411021501c650ff68fa83b99910160405180910390a1600580546001600160a01b0319166001600160a01b0392909216919091179055565b611b70614080565b6114c4600061412f565b60606000611b8760035490565b6001600160401b03811115611b9e57611b9e614605565b604051908082528060200260200182016040528015611bd757816020015b611bc461427d565b815260200190600190039081611bbc5790505b50905060005b600354811015611c91576000818152600c60205260409020600201546001600160a01b03808616911603611c7f576000818152600c6020908152604091829020825160a0810184528154815260018201549281019290925260028101546001600160a01b0316928201929092526003820154606082015260049091015460808201528251839083908110611c7357611c73614b97565b60200260200101819052505b80611c8981614bad565b915050611bdd565b5092915050565b6000828152600c60205260408120600101549003611cc85760405162461bcd60e51b815260040161085990614c23565b6000828152600c60205260409020600201546001600160a01b03163314611d445760405162461bcd60e51b815260206004820152602a60248201527f4f6e6c792073656c6c65722063616e2077697468647261772066726f6d206c696044820152691cdd1a5b99c81c1bdbdb60b21b6064820152608401610859565b60008111611d645760405162461bcd60e51b815260040161085990614aaf565b6000828152600c6020526040902060040154811115611dc55760405162461bcd60e51b815260206004820152601960248201527f4e6f7420656e6f7567682073686172657320696e20706f6f6c000000000000006044820152606401610859565b6006546000838152600c602052604090819020600101549051637921219560e11b81526001600160a01b039092169163f242432a91611e0c91309133918790600401614ad3565b600060405180830381600087803b158015611e2657600080fd5b505af1158015611e3a573d6000803e3d6000fd5b5050506000838152600c602052604081206004018054849350909190611e61908490614b21565b909155505060408051838152602081018390527f2590ddccb521e3f8172beb6ef2ef25c9d728d204ce8dd070fec6f03af61b6f699101611ac5565b611ea4614080565b6114c461417f565b600b60205281600052604060002081815481106114e257600080fd5b6000818152600e602052604090206005015460ff16611ef95760405162461bcd60e51b815260040161085990614b47565b6000805b6000838152600e6020526040902060020154811015611f6d576000838152600e60205260409020600201805433919083908110611f3c57611f3c614b97565b6000918252602090912001546001600160a01b031603611f5b57600191505b80611f6581614bad565b915050611efd565b5080611f8b5760405162461bcd60e51b815260040161085990614bc6565b60005b6000838152600e6020526040902060040154811015612036576000838152600e60205260409020600401805433919083908110611fcd57611fcd614b97565b6000918252602090912001546001600160a01b031603612024576000838152600e6020526040902060040180548290811061200a5761200a614b97565b600091825260209091200180546001600160a01b03191690555b8061202e81614bad565b915050611f8e565b505050565b612043613b77565b6000818152600a6020526040812060010154900361209d5760405162461bcd60e51b81526020600482015260176024820152764c697374696e6720646f6573206e6f742065786973742160481b6044820152606401610859565b6000818152600a6020526040902060040154336001600160a01b03909116036120d85760405162461bcd60e51b815260040161085990614c5a565b6000818152600a6020526040902060040154600160a01b900460ff1615156001146121455760405162461bcd60e51b815260206004820152601d60248201527f536861726573206c697374696e67206973206e6f7420616374697665210000006044820152606401610859565b6000818152600a60208181526040808420815160c08101835281548152600182018054828601526002830180548386019081526003850180546060860152600480870180546001600160a01b0380821660808a01908152600160a01b830460ff16151560a08b01528f8f529c909b52978c9055948b9055928a9055989098556001600160a81b031990931690556008549451955192516323b872dd60e01b81523392810192909252948316602482015260448101919091529116906323b872dd906064016020604051808303816000875af1158015612228573d6000803e3d6000fd5b505050506040513d601f19601f8201168201806040525081019061224c9190614a74565b50600654608082015160208301516060840151604051637921219560e11b81526001600160a01b039094169363f242432a9361228e9390923392600401614ad3565b600060405180830381600087803b1580156122a857600080fd5b505af11580156122bc573d6000803e3d6000fd5b50505060208083015160408085015160608087015160808089015185518b815297880196909652938601929092528401526001600160a01b03909116908201523360a08201527fb976e14df17a9b70d6dd3b3dcae82e3c877a71c73c5e950e486fe9918998e7ab915060c00160405180910390a15061126060018055565b612342614080565b6001600160a01b0381166123685760405162461bcd60e51b815260040161085990614bfd565b600754604080516001600160a01b03928316815291831660208301527f9e79c9f3bb21678f981d22aa2076abfb5cbf0052f45853459abf5015197f2de3910160405180910390a1600780546001600160a01b0319166001600160a01b0392909216919091179055565b600f60205281600052604060002081815481106114e257600080fd5b6123f5613b77565b6008546040516323b872dd60e01b8152336004820152306024820152604481018390526001600160a01b03909116906323b872dd906064016020604051808303816000875af115801561244c573d6000803e3d6000fd5b505050506040513d601f19601f820116820180604052508101906124709190614a74565b503360009081526009602052604081208054839290611254908490614b34565b6060600061249d60045490565b6001600160401b038111156124b4576124b4614605565b6040519080825280602002602001820160405280156124ed57816020015b6124da6142f6565b8152602001906001900390816124d25790505b50905060005b6004548110156117c7576000818152600e602052604090206005015460ff1615612687576000818152600e6020908152604091829020825160c081018452815481526001820154818401526002820180548551818602810186018752818152929593949386019383018282801561259357602002820191906000526020600020905b81546001600160a01b03168152600190910190602001808311612575575b50505050508152602001600382018054806020026020016040519081016040528092919081815260200182805480156125eb57602002820191906000526020600020905b8154815260200190600101908083116125d7575b505050505081526020016004820180548060200260200160405190810160405280929190818152602001828054801561264d57602002820191906000526020600020905b81546001600160a01b0316815260019091019060200180831161262f575b50505091835250506005919091015460ff161515602090910152825183908390811061267b5761267b614b97565b60200260200101819052505b8061269181614bad565b9150506124f3565b6001600160a01b0381166000908152600b6020526040812054606091906001600160401b038111156126cd576126cd614605565b60405190808252806020026020018201604052801561270657816020015b6126f36142b5565b8152602001906001900390816126eb5790505b50905060005b6001600160a01b0384166000908152600b6020526040902054811015611c91576001600160a01b0384166000908152600b602052604081208054600a9291908490811061275b5761275b614b97565b600091825260208083209091015483528281019390935260409182019020815160c0810183528154815260018201549381019390935260028101549183019190915260038101546060830152600401546001600160a01b038116608083015260ff600160a01b90910416151560a082015282518390839081106127e0576127e0614b97565b602002602001018190525080806127f690614bad565b91505061270c565b612806613b77565b6000828152600c602052604081206001015490036128365760405162461bcd60e51b815260040161085990614c23565b6000828152600c6020526040902060020154336001600160a01b03909116036128715760405162461bcd60e51b815260040161085990614c5a565b6000828152600c60205260409020600401548111156128d25760405162461bcd60e51b815260206004820181905260248201527f4e6f7420656e6f75676820736861726573206c697374656420696e20706f6f6c6044820152606401610859565b6000828152600c60205260408120600301546128ee9083614c9c565b336000908152600960205260409020549091508111156129505760405162461bcd60e51b815260206004820152601d60248201527f4e6f7420656e6f7567682066756e647320666f722070757263686173650000006044820152606401610859565b600082116129705760405162461bcd60e51b815260040161085990614aaf565b336000908152600960205260408120805483929061298f908490614b21565b90915550506000838152600c60209081526040808320600201546001600160a01b031683526009909152812080548392906129cb908490614b34565b90915550506006546000848152600c602052604090819020600101549051637921219560e11b81526001600160a01b039092169163f242432a91612a1791309133918890600401614ad3565b600060405180830381600087803b158015612a3157600080fd5b505af1158015612a45573d6000803e3d6000fd5b5050506000848152600c602052604081206004018054859350909190612a6c908490614b21565b90915550506000838152600c60209081526040918290206001810154600382015460029092015484518881529384019190915292820152606081018490526001600160a01b0390911660808201523360a08201527f2863381484f9cc73ecc2d0c2150ef67453492eb688e99bf4ac56f4be9a335c509060c00160405180910390a15061116160018055565b6000838152600a60205260408120600101549003612b505760405162461bcd60e51b8152602060048201526016602482015275131a5cdd1a5b99c8191bd95cc81b9bdd08195e1a5cdd60521b6044820152606401610859565b6000838152600a6020526040902060040154600160a01b900460ff16612bb05760405162461bcd60e51b81526020600482015260156024820152744c697374696e67206973206e6f742061637469766560581b6044820152606401610859565b6001825111612c015760405162461bcd60e51b815260206004820152601e60248201527f4d7573742068617665206174206c65617374203220696e766573746f727300006044820152606401610859565b8051825114612c675760405162461bcd60e51b815260206004820152602c60248201527f496e766573746f727320616e642073686172657320616d6f756e7473206c656e60448201526b0cee8d040dad2e6dac2e8c6d60a31b6064820152608401610859565b6000805b8351811015612cad57828181518110612c8657612c86614b97565b602002602001015182612c999190614b34565b915080612ca581614bad565b915050612c6b565b506000848152600a60205260409020600301548114612d285760405162461bcd60e51b815260206004820152603160248201527f546f74616c2073686172657320616d6f756e7420646f6573206e6f74206d617460448201527018da081b1a5cdd1a5b99c8185b5bdd5b9d607a1b6064820152608401610859565b6000805b8451811015612efe576000848281518110612d4957612d49614b97565b602002602001015111612daa5760405162461bcd60e51b8152602060048201526024808201527f53686172657320616d6f756e74206d75737420626520677265617465722074686044820152630616e20360e41b6064820152608401610859565b60006001600160a01b0316858281518110612dc757612dc7614b97565b60200260200101516001600160a01b031603612e255760405162461bcd60e51b815260206004820152601e60248201527f496e766573746f7220616464726573732063616e6e6f742062652030783000006044820152606401610859565b6000868152600a602052604090206004015485516001600160a01b0390911690869083908110612e5757612e57614b97565b60200260200101516001600160a01b031603612eb55760405162461bcd60e51b815260206004820152601960248201527f53656c6c65722063616e6e6f7420626520696e766573746f72000000000000006044820152606401610859565b336001600160a01b0316858281518110612ed157612ed1614b97565b60200260200101516001600160a01b031603612eec57600191505b80612ef681614bad565b915050612d2c565b5080612f1c5760405162461bcd60e51b815260040161085990614bc6565b6000805b60018651612f2e9190614b21565b811015612fb65760015b8651811015612fa357868181518110612f5357612f53614b97565b60200260200101516001600160a01b0316878381518110612f7657612f76614b97565b60200260200101516001600160a01b031603612f9157600192505b80612f9b81614bad565b915050612f38565b5080612fae81614bad565b915050612f20565b5080156130055760405162461bcd60e51b815260206004820152601a60248201527f4475706c696361746520696e766573746f7220616464726573730000000000006044820152606401610859565b600480546000818152600e6020908152604080832093845560019093018a90559254815220865161303e9260029092019188019061432e565b5083600e600061304d60045490565b81526020019081526020016000206003019080519060200190613071929190614393565b506001600e600061308160045490565b81526020810191909152604001600020600501805460ff1916911515919091179055600480546001019055610bca565b600554604051634f558e7960e01b81526004810185905284916001600160a01b031690634f558e7990602401602060405180830381865afa1580156130fa573d6000803e3d6000fd5b505050506040513d601f19601f8201168201806040525081019061311e9190614a74565b6131625760405162461bcd60e51b8152602060048201526015602482015274417373657420646f6573206e6f742065786973742160581b6044820152606401610859565b600654604051627eeac760e11b81523360048201819052602482018790529186916000916001600160a01b03169062fdd58e90604401602060405180830381865afa1580156131b5573d6000803e3d6000fd5b505050506040513d601f19601f820116820180604052508101906131d99190614a96565b116132185760405162461bcd60e51b815260206004820152600f60248201526e3737ba1039b430b932b437b63232b960891b6044820152606401610859565b613220613b77565b600085116132605760405162461bcd60e51b815260206004820152600d60248201526c1c1c9a58d9480f080c481554d1609a1b6044820152606401610859565b600084116132805760405162461bcd60e51b815260040161085990614aaf565b60065460405163e985e9c560e01b81523360048201523060248201526001600160a01b039091169063e985e9c590604401602060405180830381865afa1580156132ce573d6000803e3d6000fd5b505050506040513d601f19601f820116820180604052508101906132f29190614a74565b6133355760405162461bcd60e51b81526020600482015260146024820152731b9bdd08185c1c1c9bdd995908199bdc88185b1b60621b6044820152606401610859565b8360005b336000908152600b602052604090205481101561345657336000908152600b6020526040812080548a92600a9290918590811061337857613378614b97565b90600052602060002001548152602001908152602001600020600101541480156133ee5750336000908152600b602052604081208054600a929190849081106133c3576133c3614b97565b9060005260206000200154815260200190815260200160002060040160149054906101000a900460ff165b1561344457336000908152600b602052604081208054600a9291908490811061341957613419614b97565b9060005260206000200154815260200190815260200160002060030154826134419190614b34565b91505b8061344e81614bad565b915050613339565b50600654604051627eeac760e11b8152336004820152602481018990526001600160a01b039091169062fdd58e90604401602060405180830381865afa1580156134a4573d6000803e3d6000fd5b505050506040513d601f19601f820116820180604052508101906134c89190614a96565b81111561350b5760405162461bcd60e51b81526020600482015260116024820152706e6f7420656e6f7567682073686172657360781b6044820152606401610859565b6040518060c0016040528061351f60025490565b8152602081018990526040810188905260608101879052336080820152600160a090910152600a600061355160025490565b81526020808201929092526040908101600090812084518155848401516001820155848301516002808301919091556060860151600383015560808601516004909201805460a0909701511515600160a01b026001600160a81b03199097166001600160a01b0390931692909217959095179055338152600b9092529020906135d8905490565b815460018101835560009283526020909220909101557f97dcdac6c7238ca7fc3ad41c8a17e1ac9825015db181b6f7d0a8e444dbd1128661361860025490565b60408051918252602082018a905281018890526060810187905233608082015260a00160405180910390a1613651600280546001019055565b50610bca60018055565b336000908152600f6020526040812054606091906001600160401b0381111561368657613686614605565b6040519080825280602002602001820160405280156136bf57816020015b6136ac6142f6565b8152602001906001900390816136a45790505b50905060005b336000908152600f60205260409020548110156117c757336000908152600f602052604081208054600e9291908490811061370257613702614b97565b906000526020600020015481526020019081526020016000206040518060c001604052908160008201548152602001600182015481526020016002820180548060200260200160405190810160405280929190818152602001828054801561379357602002820191906000526020600020905b81546001600160a01b03168152600190910190602001808311613775575b50505050508152602001600382018054806020026020016040519081016040528092919081815260200182805480156137eb57602002820191906000526020600020905b8154815260200190600101908083116137d7575b505050505081526020016004820180548060200260200160405190810160405280929190818152602001828054801561384d57602002820191906000526020600020905b81546001600160a01b0316815260019091019060200180831161382f575b50505091835250506005919091015460ff161515602090910152825183908390811061387b5761387b614b97565b6020026020010181905250808061389190614bad565b9150506136c5565b6138a1614080565b6001600160a01b0381166139065760405162461bcd60e51b815260206004820152602660248201527f4f776e61626c653a206e6577206f776e657220697320746865207a65726f206160448201526564647265737360d01b6064820152608401610859565b6112608161412f565b6060600061391c60035490565b6001600160401b0381111561393357613933614605565b60405190808252806020026020018201604052801561396c57816020015b61395961427d565b8152602001906001900390816139515790505b50905060005b6003548110156117c7576000818152600c602052604090206001015415613a07576000818152600c6020908152604091829020825160a0810184528154815260018201549281019290925260028101546001600160a01b03169282019290925260038201546060820152600490910154608082015282518390839081106139fb576139fb614b97565b60200260200101819052505b80613a1181614bad565b915050613972565b613a216142f6565b6000828152600e6020908152604091829020825160c0810184528154815260018201548184015260028201805485518186028101860187528181529295939493860193830182828015613a9d57602002820191906000526020600020905b81546001600160a01b03168152600190910190602001808311613a7f575b5050505050815260200160038201805480602002602001604051908101604052809291908181526020018280548015613af557602002820191906000526020600020905b815481526020019060010190808311613ae1575b5050505050815260200160048201805480602002602001604051908101604052809291908181526020018280548015613b5757602002820191906000526020600020905b81546001600160a01b03168152600190910190602001808311613b39575b50505091835250506005919091015460ff16151560209091015292915050565b600260015403613bc95760405162461bcd60e51b815260206004820152601f60248201527f5265656e7472616e637947756172643a207265656e7472616e742063616c6c006044820152606401610859565b6002600155565b613bd8613b77565b6000828152600a60205260408120600101549003613c325760405162461bcd60e51b81526020600482015260176024820152764c697374696e6720646f6573206e6f742065786973742160481b6044820152606401610859565b6000828152600a6020526040902060040154336001600160a01b0390911603613c6d5760405162461bcd60e51b815260040161085990614c5a565b6000828152600a6020526040902060040154600160a01b900460ff161515600114613cda5760405162461bcd60e51b815260206004820152601d60248201527f536861726573206c697374696e67206973206e6f7420616374697665210000006044820152606401610859565b6000828152600a60209081526040808320815160c08082018452825482526001808401805484880152600280860180548689015260038701805460608801526004880180546001600160a01b03811660808a015260ff600160a01b820416151560a08a0152988c9055938b9055908a90558990556001600160a81b03199095169055878752600e86528487208551928301865280548352908101548287015292830180548551818802810188018752818152939796929586019392830182828015613dce57602002820191906000526020600020905b81546001600160a01b03168152600190910190602001808311613db0575b5050505050815260200160038201805480602002602001604051908101604052809291908181526020018280548015613e2657602002820191906000526020600020905b815481526020019060010190808311613e12575b5050505050815260200160048201805480602002602001604051908101604052809291908181526020018280548015613e8857602002820191906000526020600020905b81546001600160a01b03168152600190910190602001808311613e6a575b50505091835250506005919091015460ff161515602090910152905060005b81604001515181101561407457600083606001518460400151613eca9190614cb3565b9050600083606001518381518110613ee457613ee4614b97565b602002602001015182613ef79190614c9c565b600854604086015180519293506001600160a01b03909116916323b872dd919086908110613f2757613f27614b97565b602090810291909101015160808801516040516001600160e01b031960e085901b1681526001600160a01b03928316600482015291166024820152604481018490526064016020604051808303816000875af1158015613f8b573d6000803e3d6000fd5b505050506040513d601f19601f82011682018060405250810190613faf9190614a74565b506006546080860151604086015180516001600160a01b039093169263f242432a92919087908110613fe357613fe3614b97565b602002602001015188602001518860600151888151811061400657614006614b97565b60200260200101516040518563ffffffff1660e01b815260040161402d9493929190614ad3565b600060405180830381600087803b15801561404757600080fd5b505af115801561405b573d6000803e3d6000fd5b505050505050808061406c90614bad565b915050613ea7565b50505061116160018055565b6000546001600160a01b031633146114c45760405162461bcd60e51b815260206004820181905260248201527f4f776e61626c653a2063616c6c6572206973206e6f7420746865206f776e65726044820152606401610859565b6140e26141c2565b6000805460ff60a01b191690557f5db9ee0a495bf2e6ff9c91a7834c1ba4fdd244a5e8aa4e537bd38aeae4b073aa335b6040516001600160a01b03909116815260200160405180910390a1565b600080546001600160a01b038381166001600160a01b0319831681178455604051919092169283917f8be0079c531659141344cd1fd0a4f28419497f9722a3daafe3b4186f6b6457e09190a35050565b614187614212565b6000805460ff60a01b1916600160a01b1790557f62e78cea01bee320cd4e420270b5ea74000d11b0c9f74754ebdbfc544b05a2586141123390565b600054600160a01b900460ff166114c45760405162461bcd60e51b815260206004820152601460248201527314185d5cd8589b194e881b9bdd081c185d5cd95960621b6044820152606401610859565b600054600160a01b900460ff16156114c45760405162461bcd60e51b815260206004820152601060248201526f14185d5cd8589b194e881c185d5cd95960821b6044820152606401610859565b508054600082559060005260206000209081019061126091906143ce565b6040518060a00160405280600081526020016000815260200160006001600160a01b0316815260200160008152602001600081525090565b6040518060c001604052806000815260200160008152602001600081526020016000815260200160006001600160a01b031681526020016000151581525090565b6040518060c0016040528060008152602001600081526020016060815260200160608152602001606081526020016000151581525090565b828054828255906000526020600020908101928215614383579160200282015b8281111561438357825182546001600160a01b0319166001600160a01b0390911617825560209092019160019091019061434e565b5061438f9291506143ce565b5090565b828054828255906000526020600020908101928215614383579160200282015b828111156143835782518255916020019190600101906143b3565b5b8082111561438f57600081556001016143cf565b6000602082840312156143f557600080fd5b81356001600160e01b03198116811461440d57600080fd5b9392505050565b60008060006060848603121561442957600080fd5b505081359360208301359350604090920135919050565b80356001600160a01b038116811461445757600080fd5b919050565b60008060006060848603121561447157600080fd5b61447a84614440565b925061448860208501614440565b9150604084013590509250925092565b6000602082840312156144aa57600080fd5b5035919050565b602080825282518282018190526000919060409081850190868401855b8281101561451b578151805185528681015187860152858101516001600160a01b031686860152606080820151908601526080908101519085015260a090930192908501906001016144ce565b5091979650505050505050565b602080825282518282018190526000919060409081850190868401855b8281101561451b5781518051855286810151878601528581015186860152606080820151908601526080808201516001600160a01b03169086015260a09081015115159085015260c09093019290850190600101614545565b600080604083850312156145b157600080fd5b6145ba83614440565b946020939093013593505050565b6000602082840312156145da57600080fd5b61440d82614440565b600080604083850312156145f657600080fd5b50508035926020909101359150565b634e487b7160e01b600052604160045260246000fd5b604051601f8201601f191681016001600160401b038111828210171561464357614643614605565b604052919050565b60006001600160401b0382111561466457614664614605565b5060051b60200190565b600082601f83011261467f57600080fd5b8135602061469461468f8361464b565b61461b565b82815260059290921b840181019181810190868411156146b357600080fd5b8286015b848110156146ce57803583529183019183016146b7565b509695505050505050565b600082601f8301126146ea57600080fd5b81356001600160401b0381111561470357614703614605565b614716601f8201601f191660200161461b565b81815284602083860101111561472b57600080fd5b816020850160208301376000918101602001919091529392505050565b600080600080600060a0868803121561476057600080fd5b61476986614440565b945061477760208701614440565b935060408601356001600160401b038082111561479357600080fd5b61479f89838a0161466e565b945060608801359150808211156147b557600080fd5b6147c189838a0161466e565b935060808801359150808211156147d757600080fd5b506147e4888289016146d9565b9150509295509295909350565b600081518084526020808501945080840160005b8381101561482a5781516001600160a01b031687529582019590820190600101614805565b509495945050505050565b80518252600060208083015181850152604083015160c0604086015261485e60c08601826147f1565b60608581015187830391880191909152805180835290840192506000918401905b8083101561489f578351825292840192600192909201919084019061487f565b506080860151935086810360808801526148b981856147f1565b935050505060a08301516116a360a086018215159052565b6000602080830181845280855180835260408601915060408160051b870101925083870160005b8281101561492657603f19888603018452614914858351614835565b945092850192908501906001016148f8565b5092979650505050505050565b60008060006060848603121561494857600080fd5b833592506020808501356001600160401b038082111561496757600080fd5b818701915087601f83011261497b57600080fd5b813561498961468f8261464b565b81815260059190911b8301840190848101908a8311156149a857600080fd5b938501935b828510156149cd576149be85614440565b825293850193908501906149ad565b9650505060408701359250808311156149e557600080fd5b50506149f38682870161466e565b9150509250925092565b600080600080600060a08688031215614a1557600080fd5b614a1e86614440565b9450614a2c60208701614440565b9350604086013592506060860135915060808601356001600160401b03811115614a5557600080fd5b6147e4888289016146d9565b60208152600061440d6020830184614835565b600060208284031215614a8657600080fd5b8151801515811461440d57600080fd5b600060208284031215614aa857600080fd5b5051919050565b6020808252600a9082015269616d6f756e74203c203160b01b604082015260600190565b6001600160a01b0394851681529290931660208301526040820152606081019190915260a06080820181905260009082015260c00190565b634e487b7160e01b600052601160045260246000fd5b818103818111156107a6576107a6614b0b565b808201808211156107a6576107a6614b0b565b60208082526030908201527f47726f757020696e766573746d656e74206973206e6f7420616374697665206f60408201526f1c88191bd95cc81b9bdd08195e1a5cdd60821b606082015260800190565b634e487b7160e01b600052603260045260246000fd5b600060018201614bbf57614bbf614b0b565b5060010190565b60208082526017908201527f53656e646572206d75737420626520696e766573746f72000000000000000000604082015260600190565b6020808252600c908201526b7a65726f206164647265737360a01b604082015260600190565b6020808252601c908201527f4c697374696e6720506f6f6c20646f6573206e6f742065786973742100000000604082015260600190565b60208082526022908201527f53656c6c65722063616e6e6f7420627579207468656972206f776e2073686172604082015261657360f01b606082015260800190565b80820281158282048414176107a6576107a6614b0b565b600082614cd057634e487b7160e01b600052601260045260246000fd5b50049056fea264697066735822122043a44f5a39367633737fcf5d6338d4698ae1fb46fe9c6ab6c155bf944381316964736f6c63430008120033",
  "linkReferences": {},
  "deployedLinkReferences": {}
}