{
  "_format": "hh-sol-artifact-1",
  "contractName": "BlockEstate",
  "sourceName": "contracts/BlockEstate.sol",
  "abi": [
    {
      "inputs": [],
      "stateMutability": "nonpayable",
      "type": "constructor"
    },
    {
      "anonymous": false,
      "inputs": [
        {
          "indexed": true,
          "internalType": "address",
          "name": "account",
          "type": "address"
        },
        {
          "indexed": true,
          "internalType": "address",
          "name": "operator",
          "type": "address"
        },
        {
          "indexed": false,
          "internalType": "bool",
          "name": "approved",
          "type": "bool"
        }
      ],
      "name": "ApprovalForAll",
      "type": "event"
    },
    {
      "anonymous": false,
      "inputs": [
        {
          "indexed": false,
          "internalType": "uint256",
          "name": "tokenId",
          "type": "uint256"
        }
      ],
      "name": "AssetCreated",
      "type": "event"
    },
    {
      "anonymous": false,
      "inputs": [
        {
          "indexed": true,
          "internalType": "address",
          "name": "previousOwner",
          "type": "address"
        },
        {
          "indexed": true,
          "internalType": "address",
          "name": "newOwner",
          "type": "address"
        }
      ],
      "name": "OwnershipTransferred",
      "type": "event"
    },
    {
      "anonymous": false,
      "inputs": [
        {
          "indexed": false,
          "internalType": "uint256",
          "name": "assetId",
          "type": "uint256"
        },
        {
          "indexed": false,
          "internalType": "uint256",
          "name": "sharesId",
          "type": "uint256"
        },
        {
          "indexed": false,
          "internalType": "address[]",
          "name": "holders",
          "type": "address[]"
        },
        {
          "indexed": false,
          "internalType": "uint8[]",
          "name": "shares",
          "type": "uint8[]"
        }
      ],
      "name": "SharesCreated",
      "type": "event"
    },
    {
      "anonymous": false,
      "inputs": [
        {
          "indexed": true,
          "internalType": "address",
          "name": "operator",
          "type": "address"
        },
        {
          "indexed": true,
          "internalType": "address",
          "name": "from",
          "type": "address"
        },
        {
          "indexed": true,
          "internalType": "address",
          "name": "to",
          "type": "address"
        },
        {
          "indexed": false,
          "internalType": "uint256[]",
          "name": "ids",
          "type": "uint256[]"
        },
        {
          "indexed": false,
          "internalType": "uint256[]",
          "name": "values",
          "type": "uint256[]"
        }
      ],
      "name": "TransferBatch",
      "type": "event"
    },
    {
      "anonymous": false,
      "inputs": [
        {
          "indexed": true,
          "internalType": "address",
          "name": "operator",
          "type": "address"
        },
        {
          "indexed": true,
          "internalType": "address",
          "name": "from",
          "type": "address"
        },
        {
          "indexed": true,
          "internalType": "address",
          "name": "to",
          "type": "address"
        },
        {
          "indexed": false,
          "internalType": "uint256",
          "name": "id",
          "type": "uint256"
        },
        {
          "indexed": false,
          "internalType": "uint256",
          "name": "value",
          "type": "uint256"
        }
      ],
      "name": "TransferSingle",
      "type": "event"
    },
    {
      "anonymous": false,
      "inputs": [
        {
          "indexed": false,
          "internalType": "string",
          "name": "value",
          "type": "string"
        },
        {
          "indexed": true,
          "internalType": "uint256",
          "name": "id",
          "type": "uint256"
        }
      ],
      "name": "URI",
      "type": "event"
    },
    {
      "inputs": [
        {
          "internalType": "address",
          "name": "account",
          "type": "address"
        },
        {
          "internalType": "uint256",
          "name": "id",
          "type": "uint256"
        }
      ],
      "name": "balanceOf",
      "outputs": [
        {
          "internalType": "uint256",
          "name": "",
          "type": "uint256"
        }
      ],
      "stateMutability": "view",
      "type": "function"
    },
    {
      "inputs": [
        {
          "internalType": "address[]",
          "name": "accounts",
          "type": "address[]"
        },
        {
          "internalType": "uint256[]",
          "name": "ids",
          "type": "uint256[]"
        }
      ],
      "name": "balanceOfBatch",
      "outputs": [
        {
          "internalType": "uint256[]",
          "name": "",
          "type": "uint256[]"
        }
      ],
      "stateMutability": "view",
      "type": "function"
    },
    {
      "inputs": [
        {
          "internalType": "address",
          "name": "account",
          "type": "address"
        },
        {
          "internalType": "uint256",
          "name": "id",
          "type": "uint256"
        },
        {
          "internalType": "uint256",
          "name": "value",
          "type": "uint256"
        }
      ],
      "name": "burn",
      "outputs": [],
      "stateMutability": "nonpayable",
      "type": "function"
    },
    {
      "inputs": [
        {
          "internalType": "address",
          "name": "account",
          "type": "address"
        },
        {
          "internalType": "uint256[]",
          "name": "ids",
          "type": "uint256[]"
        },
        {
          "internalType": "uint256[]",
          "name": "values",
          "type": "uint256[]"
        }
      ],
      "name": "burnBatch",
      "outputs": [],
      "stateMutability": "nonpayable",
      "type": "function"
    },
    {
      "inputs": [
        {
          "internalType": "uint8",
          "name": "category",
          "type": "uint8"
        },
        {
          "internalType": "string",
          "name": "street",
          "type": "string"
        },
        {
          "internalType": "uint16",
          "name": "number",
          "type": "uint16"
        },
        {
          "internalType": "string",
          "name": "city",
          "type": "string"
        },
        {
          "internalType": "string",
          "name": "country",
          "type": "string"
        }
      ],
      "name": "createAsset",
      "outputs": [],
      "stateMutability": "nonpayable",
      "type": "function"
    },
    {
      "inputs": [
        {
          "internalType": "uint256",
          "name": "estateId",
          "type": "uint256"
        },
        {
          "internalType": "address[]",
          "name": "holders",
          "type": "address[]"
        },
        {
          "internalType": "uint8[]",
          "name": "shares",
          "type": "uint8[]"
        }
      ],
      "name": "createShares",
      "outputs": [],
      "stateMutability": "nonpayable",
      "type": "function"
    },
    {
      "inputs": [
        {
          "internalType": "uint256",
          "name": "tokenId",
          "type": "uint256"
        }
      ],
      "name": "deleteAsset",
      "outputs": [],
      "stateMutability": "nonpayable",
      "type": "function"
    },
    {
      "inputs": [
        {
          "internalType": "uint256",
          "name": "id",
          "type": "uint256"
        }
      ],
      "name": "exists",
      "outputs": [
        {
          "internalType": "bool",
          "name": "",
          "type": "bool"
        }
      ],
      "stateMutability": "view",
      "type": "function"
    },
    {
      "inputs": [
        {
          "internalType": "address",
          "name": "owner",
          "type": "address"
        }
      ],
      "name": "getOwnedTokens",
      "outputs": [
        {
          "internalType": "uint256[]",
          "name": "",
          "type": "uint256[]"
        }
      ],
      "stateMutability": "view",
      "type": "function"
    },
    {
      "inputs": [
        {
          "internalType": "uint256",
          "name": "assetId",
          "type": "uint256"
        }
      ],
      "name": "getSharesIdByAssetId",
      "outputs": [
        {
          "internalType": "uint256",
          "name": "",
          "type": "uint256"
        }
      ],
      "stateMutability": "view",
      "type": "function"
    },
    {
      "inputs": [
        {
          "internalType": "address",
          "name": "account",
          "type": "address"
        },
        {
          "internalType": "address",
          "name": "operator",
          "type": "address"
        }
      ],
      "name": "isApprovedForAll",
      "outputs": [
        {
          "internalType": "bool",
          "name": "",
          "type": "bool"
        }
      ],
      "stateMutability": "view",
      "type": "function"
    },
    {
      "inputs": [],
      "name": "owner",
      "outputs": [
        {
          "internalType": "address",
          "name": "",
          "type": "address"
        }
      ],
      "stateMutability": "view",
      "type": "function"
    },
    {
      "inputs": [],
      "name": "readAllAssets",
      "outputs": [
        {
          "components": [
            {
              "internalType": "uint256",
              "name": "tokenId",
              "type": "uint256"
            },
            {
              "internalType": "enum BlockEstateAssets.AssetCategory",
              "name": "category",
              "type": "uint8"
            },
            {
              "components": [
                {
                  "internalType": "string",
                  "name": "street",
                  "type": "string"
                },
                {
                  "internalType": "uint16",
                  "name": "number",
                  "type": "uint16"
                },
                {
                  "internalType": "string",
                  "name": "city",
                  "type": "string"
                },
                {
                  "internalType": "string",
                  "name": "country",
                  "type": "string"
                }
              ],
              "internalType": "struct BlockEstateAssets.AssetLocation",
              "name": "location",
              "type": "tuple"
            }
          ],
          "internalType": "struct BlockEstateAssets.Asset[]",
          "name": "",
          "type": "tuple[]"
        }
      ],
      "stateMutability": "view",
      "type": "function"
    },
    {
      "inputs": [
        {
          "internalType": "uint256",
          "name": "tokenId",
          "type": "uint256"
        }
      ],
      "name": "readAsset",
      "outputs": [
        {
          "components": [
            {
              "internalType": "uint256",
              "name": "tokenId",
              "type": "uint256"
            },
            {
              "internalType": "enum BlockEstateAssets.AssetCategory",
              "name": "category",
              "type": "uint8"
            },
            {
              "components": [
                {
                  "internalType": "string",
                  "name": "street",
                  "type": "string"
                },
                {
                  "internalType": "uint16",
                  "name": "number",
                  "type": "uint16"
                },
                {
                  "internalType": "string",
                  "name": "city",
                  "type": "string"
                },
                {
                  "internalType": "string",
                  "name": "country",
                  "type": "string"
                }
              ],
              "internalType": "struct BlockEstateAssets.AssetLocation",
              "name": "location",
              "type": "tuple"
            }
          ],
          "internalType": "struct BlockEstateAssets.Asset",
          "name": "",
          "type": "tuple"
        }
      ],
      "stateMutability": "view",
      "type": "function"
    },
    {
      "inputs": [],
      "name": "renounceOwnership",
      "outputs": [],
      "stateMutability": "nonpayable",
      "type": "function"
    },
    {
      "inputs": [
        {
          "internalType": "address",
          "name": "from",
          "type": "address"
        },
        {
          "internalType": "address",
          "name": "to",
          "type": "address"
        },
        {
          "internalType": "uint256[]",
          "name": "ids",
          "type": "uint256[]"
        },
        {
          "internalType": "uint256[]",
          "name": "amounts",
          "type": "uint256[]"
        },
        {
          "internalType": "bytes",
          "name": "data",
          "type": "bytes"
        }
      ],
      "name": "safeBatchTransferFrom",
      "outputs": [],
      "stateMutability": "nonpayable",
      "type": "function"
    },
    {
      "inputs": [
        {
          "internalType": "address",
          "name": "from",
          "type": "address"
        },
        {
          "internalType": "address",
          "name": "to",
          "type": "address"
        },
        {
          "internalType": "uint256",
          "name": "id",
          "type": "uint256"
        },
        {
          "internalType": "uint256",
          "name": "amount",
          "type": "uint256"
        },
        {
          "internalType": "bytes",
          "name": "data",
          "type": "bytes"
        }
      ],
      "name": "safeTransferFrom",
      "outputs": [],
      "stateMutability": "nonpayable",
      "type": "function"
    },
    {
      "inputs": [
        {
          "internalType": "address",
          "name": "operator",
          "type": "address"
        },
        {
          "internalType": "bool",
          "name": "approved",
          "type": "bool"
        }
      ],
      "name": "setApprovalForAll",
      "outputs": [],
      "stateMutability": "nonpayable",
      "type": "function"
    },
    {
      "inputs": [
        {
          "internalType": "string",
          "name": "newuri",
          "type": "string"
        }
      ],
      "name": "setURI",
      "outputs": [],
      "stateMutability": "nonpayable",
      "type": "function"
    },
    {
      "inputs": [
        {
          "internalType": "bytes4",
          "name": "interfaceId",
          "type": "bytes4"
        }
      ],
      "name": "supportsInterface",
      "outputs": [
        {
          "internalType": "bool",
          "name": "",
          "type": "bool"
        }
      ],
      "stateMutability": "view",
      "type": "function"
    },
    {
      "inputs": [
        {
          "internalType": "uint256",
          "name": "id",
          "type": "uint256"
        }
      ],
      "name": "totalSupply",
      "outputs": [
        {
          "internalType": "uint256",
          "name": "",
          "type": "uint256"
        }
      ],
      "stateMutability": "view",
      "type": "function"
    },
    {
      "inputs": [
        {
          "internalType": "address",
          "name": "newOwner",
          "type": "address"
        }
      ],
      "name": "transferOwnership",
      "outputs": [],
      "stateMutability": "nonpayable",
      "type": "function"
    },
    {
      "inputs": [
        {
          "internalType": "uint256",
          "name": "tokenId",
          "type": "uint256"
        }
      ],
      "name": "updateAsset",
      "outputs": [],
      "stateMutability": "nonpayable",
      "type": "function"
    },
    {
      "inputs": [
        {
          "internalType": "uint256",
          "name": "",
          "type": "uint256"
        }
      ],
      "name": "uri",
      "outputs": [
        {
          "internalType": "string",
          "name": "",
          "type": "string"
        }
      ],
      "stateMutability": "view",
      "type": "function"
    }
  ],
  "bytecode": "0x60806040523480156200001157600080fd5b506040518060600160405280602d81526020016200645d602d91396200003d816200007b60201b60201c565b506200005e620000526200009060201b60201c565b6200009860201b60201c565b6200007560086200015e60201b620016b71760201c565b620004d5565b80600290816200008c9190620003ee565b5050565b600033905090565b6000600360009054906101000a900473ffffffffffffffffffffffffffffffffffffffff16905081600360006101000a81548173ffffffffffffffffffffffffffffffffffffffff021916908373ffffffffffffffffffffffffffffffffffffffff1602179055508173ffffffffffffffffffffffffffffffffffffffff168173ffffffffffffffffffffffffffffffffffffffff167f8be0079c531659141344cd1fd0a4f28419497f9722a3daafe3b4186f6b6457e060405160405180910390a35050565b6001816000016000828254019250508190555050565b600081519050919050565b7f4e487b7100000000000000000000000000000000000000000000000000000000600052604160045260246000fd5b7f4e487b7100000000000000000000000000000000000000000000000000000000600052602260045260246000fd5b60006002820490506001821680620001f657607f821691505b6020821081036200020c576200020b620001ae565b5b50919050565b60008190508160005260206000209050919050565b60006020601f8301049050919050565b600082821b905092915050565b600060088302620002767fffffffffffffffffffffffffffffffffffffffffffffffffffffffffffffffff8262000237565b62000282868362000237565b95508019841693508086168417925050509392505050565b6000819050919050565b6000819050919050565b6000620002cf620002c9620002c3846200029a565b620002a4565b6200029a565b9050919050565b6000819050919050565b620002eb83620002ae565b62000303620002fa82620002d6565b84845462000244565b825550505050565b600090565b6200031a6200030b565b62000327818484620002e0565b505050565b5b818110156200034f576200034360008262000310565b6001810190506200032d565b5050565b601f8211156200039e57620003688162000212565b620003738462000227565b8101602085101562000383578190505b6200039b620003928562000227565b8301826200032c565b50505b505050565b600082821c905092915050565b6000620003c360001984600802620003a3565b1980831691505092915050565b6000620003de8383620003b0565b9150826002028217905092915050565b620003f98262000174565b67ffffffffffffffff8111156200041557620004146200017f565b5b620004218254620001dd565b6200042e82828562000353565b600060209050601f83116001811462000466576000841562000451578287015190505b6200045d8582620003d0565b865550620004cd565b601f198416620004768662000212565b60005b82811015620004a05784890151825560018201915060208501945060208101905062000479565b86831015620004c05784890151620004bc601f891682620003b0565b8355505b6001600288020188555050505b505050505050565b615f7880620004e56000396000f3fe608060405234801561001057600080fd5b50600436106101575760003560e01c80636b20c454116100c3578063bd85b0391161007c578063bd85b039146103d2578063d9d6165514610402578063e985e9c514610432578063f242432a14610462578063f2fde38b1461047e578063f5298aca1461049a57610157565b80636b20c45414610326578063715018a6146103425780637eb79b531461034c5780638da5cb5b14610368578063a22cb46514610386578063ba8420c4146103a257610157565b80632eb2c2d6116101155780632eb2c2d6146102545780632ee5ba2c14610270578063410e4e9f1461028e57806343d7abeb146102aa5780634e1273f4146102c65780634f558e79146102f657610157565b8062fdd58e1461015c57806301ffc9a71461018c57806302fe5305146101bc5780630488a3b9146101d85780630e89341c14610208578063110b55af14610238575b600080fd5b61017660048036038101906101719190613862565b6104b6565b60405161018391906138b1565b60405180910390f35b6101a660048036038101906101a19190613924565b61057e565b6040516101b3919061396c565b60405180910390f35b6101d660048036038101906101d19190613acd565b610660565b005b6101f260048036038101906101ed9190613b16565b610674565b6040516101ff9190613d26565b60405180910390f35b610222600480360381019061021d9190613b16565b610973565b60405161022f9190613d92565b60405180910390f35b610252600480360381019061024d9190613e19565b610a07565b005b61026e60048036038101906102699190614051565b610a2f565b005b610278610ad0565b6040516102859190614232565b60405180910390f35b6102a860048036038101906102a39190613b16565b610d5e565b005b6102c460048036038101906102bf91906143da565b610e52565b005b6102e060048036038101906102db9190614465565b610e76565b6040516102ed919061458c565b60405180910390f35b610310600480360381019061030b9190613b16565b610f8f565b60405161031d919061396c565b60405180910390f35b610340600480360381019061033b91906145ae565b610fa3565b005b61034a611040565b005b61036660048036038101906103619190613b16565b611054565b005b610370611351565b60405161037d9190614648565b60405180910390f35b6103a0600480360381019061039b919061468f565b61137b565b005b6103bc60048036038101906103b79190613b16565b611391565b6040516103c991906138b1565b60405180910390f35b6103ec60048036038101906103e79190613b16565b6113ae565b6040516103f991906138b1565b60405180910390f35b61041c600480360381019061041791906146cf565b6113cb565b604051610429919061458c565b60405180910390f35b61044c600480360381019061044791906146fc565b611462565b604051610459919061396c565b60405180910390f35b61047c6004803603810190610477919061473c565b6114f6565b005b610498600480360381019061049391906146cf565b611597565b005b6104b460048036038101906104af91906147d3565b61161a565b005b60008073ffffffffffffffffffffffffffffffffffffffff168373ffffffffffffffffffffffffffffffffffffffff1603610526576040517f08c379a000000000000000000000000000000000000000000000000000000000815260040161051d90614898565b60405180910390fd5b60008083815260200190815260200160002060008473ffffffffffffffffffffffffffffffffffffffff1673ffffffffffffffffffffffffffffffffffffffff16815260200190815260200160002054905092915050565b60007fd9b67a26000000000000000000000000000000000000000000000000000000007bffffffffffffffffffffffffffffffffffffffffffffffffffffffff1916827bffffffffffffffffffffffffffffffffffffffffffffffffffffffff1916148061064957507f0e89341c000000000000000000000000000000000000000000000000000000007bffffffffffffffffffffffffffffffffffffffffffffffffffffffff1916827bffffffffffffffffffffffffffffffffffffffffffffffffffffffff1916145b806106595750610658826116cd565b5b9050919050565b610668611737565b610671816117b5565b50565b61067c6136f8565b8161068681610f8f565b6106c5576040517f08c379a00000000000000000000000000000000000000000000000000000000081526004016106bc90614904565b60405180910390fd5b600060066000838152602001908152602001600020600001540361071e576040517f08c379a000000000000000000000000000000000000000000000000000000000815260040161071590614970565b60405180910390fd5b60066000848152602001908152602001600020604051806060016040529081600082015481526020016001820160009054906101000a900460ff16600181111561076b5761076a613b52565b5b600181111561077d5761077c613b52565b5b8152602001600282016040518060800160405290816000820180546107a1906149bf565b80601f01602080910402602001604051908101604052809291908181526020018280546107cd906149bf565b801561081a5780601f106107ef5761010080835404028352916020019161081a565b820191906000526020600020905b8154815290600101906020018083116107fd57829003601f168201915b505050505081526020016001820160009054906101000a900461ffff1661ffff1661ffff168152602001600282018054610853906149bf565b80601f016020809104026020016040519081016040528092919081815260200182805461087f906149bf565b80156108cc5780601f106108a1576101008083540402835291602001916108cc565b820191906000526020600020905b8154815290600101906020018083116108af57829003601f168201915b505050505081526020016003820180546108e5906149bf565b80601f0160208091040260200160405190810160405280929190818152602001828054610911906149bf565b801561095e5780601f106109335761010080835404028352916020019161095e565b820191906000526020600020905b81548152906001019060200180831161094157829003601f168201915b50505050508152505081525050915050919050565b606060028054610982906149bf565b80601f01602080910402602001604051908101604052809291908181526020018280546109ae906149bf565b80156109fb5780601f106109d0576101008083540402835291602001916109fb565b820191906000526020600020905b8154815290600101906020018083116109de57829003601f168201915b50505050509050919050565b610a1e610a1460086117c8565b86868686866117d6565b610a2860086116b7565b5050505050565b610a37611bd2565b73ffffffffffffffffffffffffffffffffffffffff168573ffffffffffffffffffffffffffffffffffffffff161480610a7d5750610a7c85610a77611bd2565b611462565b5b610abc576040517f08c379a0000000000000000000000000000000000000000000000000000000008152600401610ab390614a62565b60405180910390fd5b610ac98585858585611bda565b5050505050565b60606005805480602002602001604051908101604052809291908181526020016000905b82821015610d555783829060005260206000209060060201604051806060016040529081600082015481526020016001820160009054906101000a900460ff166001811115610b4657610b45613b52565b5b6001811115610b5857610b57613b52565b5b815260200160028201604051806080016040529081600082018054610b7c906149bf565b80601f0160208091040260200160405190810160405280929190818152602001828054610ba8906149bf565b8015610bf55780601f10610bca57610100808354040283529160200191610bf5565b820191906000526020600020905b815481529060010190602001808311610bd857829003601f168201915b505050505081526020016001820160009054906101000a900461ffff1661ffff1661ffff168152602001600282018054610c2e906149bf565b80601f0160208091040260200160405190810160405280929190818152602001828054610c5a906149bf565b8015610ca75780601f10610c7c57610100808354040283529160200191610ca7565b820191906000526020600020905b815481529060010190602001808311610c8a57829003601f168201915b50505050508152602001600382018054610cc0906149bf565b80601f0160208091040260200160405190810160405280929190818152602001828054610cec906149bf565b8015610d395780601f10610d0e57610100808354040283529160200191610d39565b820191906000526020600020905b815481529060010190602001808311610d1c57829003601f168201915b5050505050815250508152505081526020019060010190610af4565b50505050905090565b80610d6881610f8f565b610da7576040517f08c379a0000000000000000000000000000000000000000000000000000000008152600401610d9e90614904565b60405180910390fd5b6000600660008381526020019081526020016000206000015403610e00576040517f08c379a0000000000000000000000000000000000000000000000000000000008152600401610df790614970565b60405180910390fd5b816001610e0d33836104b6565b14610e4d576040517f08c379a0000000000000000000000000000000000000000000000000000000008152600401610e4490614ace565b60405180910390fd5b505050565b610e67610e5f60086117c8565b848484611efb565b610e7160086116b7565b505050565b60608151835114610ebc576040517f08c379a0000000000000000000000000000000000000000000000000000000008152600401610eb390614b60565b60405180910390fd5b6000835167ffffffffffffffff811115610ed957610ed86139a2565b5b604051908082528060200260200182016040528015610f075781602001602082028036833780820191505090505b50905060005b8451811015610f8457610f54858281518110610f2c57610f2b614b80565b5b6020026020010151858381518110610f4757610f46614b80565b5b60200260200101516104b6565b828281518110610f6757610f66614b80565b5b60200260200101818152505080610f7d90614bde565b9050610f0d565b508091505092915050565b600080610f9b836113ae565b119050919050565b610fab611bd2565b73ffffffffffffffffffffffffffffffffffffffff168373ffffffffffffffffffffffffffffffffffffffff161480610ff15750610ff083610feb611bd2565b611462565b5b611030576040517f08c379a000000000000000000000000000000000000000000000000000000000815260040161102790614a62565b60405180910390fd5b61103b8383836121a0565b505050565b611048611737565b611052600061246e565b565b8061105e81610f8f565b61109d576040517f08c379a000000000000000000000000000000000000000000000000000000000815260040161109490614904565b60405180910390fd5b60006006600083815260200190815260200160002060000154036110f6576040517f08c379a00000000000000000000000000000000000000000000000000000000081526004016110ed90614970565b60405180910390fd5b81600161110333836104b6565b14611143576040517f08c379a000000000000000000000000000000000000000000000000000000000815260040161113a90614ace565b60405180910390fd5b61114f3384600161161a565b60005b60058054905081101561134b57836005828154811061117457611173614b80565b5b90600052602060002090600602016000015403611338576005600160058054905061119f9190614c26565b815481106111b0576111af614b80565b5b9060005260206000209060060201600582815481106111d2576111d1614b80565b5b9060005260206000209060060201600082015481600001556001820160009054906101000a900460ff168160010160006101000a81548160ff0219169083600181111561122257611221613b52565b5b02179055506002820181600201600082018160000190816112439190614e1c565b506001820160009054906101000a900461ffff168160010160006101000a81548161ffff021916908361ffff160217905550600282018160020190816112899190614e1c565b506003820181600301908161129e9190614e1c565b50505090505060058054806112b6576112b5614f04565b5b60019003818190600052602060002090600602016000808201600090556001820160006101000a81549060ff021916905560028201600080820160006112fc9190613731565b6001820160006101000a81549061ffff02191690556002820160006113219190613731565b6003820160006113319190613731565b5050505090555b808061134390614bde565b915050611152565b50505050565b6000600360009054906101000a900473ffffffffffffffffffffffffffffffffffffffff16905090565b61138d611386611bd2565b8383612534565b5050565b600060076000838152602001908152602001600020549050919050565b600060046000838152602001908152602001600020549050919050565b6060600960008373ffffffffffffffffffffffffffffffffffffffff1673ffffffffffffffffffffffffffffffffffffffff16815260200190815260200160002080548060200260200160405190810160405280929190818152602001828054801561145657602002820191906000526020600020905b815481526020019060010190808311611442575b50505050509050919050565b6000600160008473ffffffffffffffffffffffffffffffffffffffff1673ffffffffffffffffffffffffffffffffffffffff16815260200190815260200160002060008373ffffffffffffffffffffffffffffffffffffffff1673ffffffffffffffffffffffffffffffffffffffff16815260200190815260200160002060009054906101000a900460ff16905092915050565b6114fe611bd2565b73ffffffffffffffffffffffffffffffffffffffff168573ffffffffffffffffffffffffffffffffffffffff16148061154457506115438561153e611bd2565b611462565b5b611583576040517f08c379a000000000000000000000000000000000000000000000000000000000815260040161157a90614a62565b60405180910390fd5b61159085858585856126a0565b5050505050565b61159f611737565b600073ffffffffffffffffffffffffffffffffffffffff168173ffffffffffffffffffffffffffffffffffffffff160361160e576040517f08c379a000000000000000000000000000000000000000000000000000000000815260040161160590614fa5565b60405180910390fd5b6116178161246e565b50565b611622611bd2565b73ffffffffffffffffffffffffffffffffffffffff168373ffffffffffffffffffffffffffffffffffffffff161480611668575061166783611662611bd2565b611462565b5b6116a7576040517f08c379a000000000000000000000000000000000000000000000000000000000815260040161169e90614a62565b60405180910390fd5b6116b283838361293b565b505050565b6001816000016000828254019250508190555050565b60007f01ffc9a7000000000000000000000000000000000000000000000000000000007bffffffffffffffffffffffffffffffffffffffffffffffffffffffff1916827bffffffffffffffffffffffffffffffffffffffffffffffffffffffff1916149050919050565b61173f611bd2565b73ffffffffffffffffffffffffffffffffffffffff1661175d611351565b73ffffffffffffffffffffffffffffffffffffffff16146117b3576040517f08c379a00000000000000000000000000000000000000000000000000000000081526004016117aa90615011565b60405180910390fd5b565b80600290816117c49190615031565b5050565b600081600001549050919050565b8484848484600060018111156117ef576117ee613b52565b5b60ff168560ff161015801561181c575060018081111561181257611811613b52565b5b60ff168560ff1611155b61185b576040517f08c379a00000000000000000000000000000000000000000000000000000000081526004016118529061514f565b60405180910390fd5b600284511161189f576040517f08c379a0000000000000000000000000000000000000000000000000000000008152600401611896906151e1565b60405180910390fd5b60008361ffff16116118e6576040517f08c379a00000000000000000000000000000000000000000000000000000000081526004016118dd90615273565b60405180910390fd5b600082511161192a576040517f08c379a000000000000000000000000000000000000000000000000000000000815260040161192190615305565b60405180910390fd5b600381511161196e576040517f08c379a000000000000000000000000000000000000000000000000000000000815260040161196590615397565b60405180910390fd5b600060405180606001604052808d81526020018c60ff16600181111561199757611996613b52565b5b60018111156119a9576119a8613b52565b5b815260200160405180608001604052808d81526020018c61ffff1681526020018b81526020018a81525081525090506119f4338d600160405180602001604052806000815250612b81565b60058190806001815401808255809150506001900390600052602060002090600602016000909190919091506000820151816000015560208201518160010160006101000a81548160ff02191690836001811115611a5557611a54613b52565b5b02179055506040820151816002016000820151816000019081611a789190615031565b5060208201518160010160006101000a81548161ffff021916908361ffff1602179055506040820151816002019081611ab19190615031565b506060820151816003019081611ac79190615031565b505050505080600660008e81526020019081526020016000206000820151816000015560208201518160010160006101000a81548160ff02191690836001811115611b1557611b14613b52565b5b02179055506040820151816002016000820151816000019081611b389190615031565b5060208201518160010160006101000a81548161ffff021916908361ffff1602179055506040820151816002019081611b719190615031565b506060820151816003019081611b879190615031565b5050509050507fe9667cd49094a292b02a1d8555f54c265b42912082c2f32b2050393b06d835988c604051611bbc91906138b1565b60405180910390a1505050505050505050505050565b600033905090565b8151835114611c1e576040517f08c379a0000000000000000000000000000000000000000000000000000000008152600401611c1590615429565b60405180910390fd5b600073ffffffffffffffffffffffffffffffffffffffff168473ffffffffffffffffffffffffffffffffffffffff1603611c8d576040517f08c379a0000000000000000000000000000000000000000000000000000000008152600401611c84906154bb565b60405180910390fd5b6000611c97611bd2565b9050611ca7818787878787612d31565b60005b8451811015611e58576000858281518110611cc857611cc7614b80565b5b602002602001015190506000858381518110611ce757611ce6614b80565b5b60200260200101519050600080600084815260200190815260200160002060008b73ffffffffffffffffffffffffffffffffffffffff1673ffffffffffffffffffffffffffffffffffffffff16815260200190815260200160002054905081811015611d88576040517f08c379a0000000000000000000000000000000000000000000000000000000008152600401611d7f9061554d565b60405180910390fd5b81810360008085815260200190815260200160002060008c73ffffffffffffffffffffffffffffffffffffffff1673ffffffffffffffffffffffffffffffffffffffff168152602001908152602001600020819055508160008085815260200190815260200160002060008b73ffffffffffffffffffffffffffffffffffffffff1673ffffffffffffffffffffffffffffffffffffffff1681526020019081526020016000206000828254611e3d919061556d565b9250508190555050505080611e5190614bde565b9050611caa565b508473ffffffffffffffffffffffffffffffffffffffff168673ffffffffffffffffffffffffffffffffffffffff168273ffffffffffffffffffffffffffffffffffffffff167f4a39dc06d4c0dbc64b70af90fd698a233a518aa5d07e595d983b8c0526c8f7fb8787604051611ecf9291906155a1565b60405180910390a4611ee58187878787876130a1565b611ef38187878787876130a9565b505050505050565b82611f0581610f8f565b611f44576040517f08c379a0000000000000000000000000000000000000000000000000000000008152600401611f3b90614904565b60405180910390fd5b6000600660008381526020019081526020016000206000015403611f9d576040517f08c379a0000000000000000000000000000000000000000000000000000000008152600401611f9490614970565b60405180910390fd5b836001611faa33836104b6565b14611fea576040517f08c379a0000000000000000000000000000000000000000000000000000000008152600401611fe190614ace565b60405180910390fd5b825184511461202e576040517f08c379a00000000000000000000000000000000000000000000000000000000081526004016120259061564a565b60405180910390fd5b600080600090505b84518160ff16101561208057848160ff168151811061205857612057614b80565b5b60200260200101518261206b919061566a565b915080806120789061569f565b915050612036565b5060648160ff16146120c7576040517f08c379a00000000000000000000000000000000000000000000000000000000081526004016120be90615714565b60405180910390fd5b60005b85518160ff1610156121415761212e868260ff16815181106120ef576120ee614b80565b5b602002602001015189878460ff168151811061210e5761210d614b80565b5b602002602001015160ff1660405180602001604052806000815250612b81565b80806121399061569f565b9150506120ca565b508660076000888152602001908152602001600020819055507f5c874c1354792f06977014451e4027ebe8d3e323fecc234d41fe0f1cab13f68f8688878760405161218f94939291906158b0565b60405180910390a150505050505050565b600073ffffffffffffffffffffffffffffffffffffffff168373ffffffffffffffffffffffffffffffffffffffff160361220f576040517f08c379a000000000000000000000000000000000000000000000000000000000815260040161220690615975565b60405180910390fd5b8051825114612253576040517f08c379a000000000000000000000000000000000000000000000000000000000815260040161224a90615429565b60405180910390fd5b600061225d611bd2565b905061227d81856000868660405180602001604052806000815250612d31565b60005b83518110156123ca57600084828151811061229e5761229d614b80565b5b6020026020010151905060008483815181106122bd576122bc614b80565b5b60200260200101519050600080600084815260200190815260200160002060008973ffffffffffffffffffffffffffffffffffffffff1673ffffffffffffffffffffffffffffffffffffffff1681526020019081526020016000205490508181101561235e576040517f08c379a000000000000000000000000000000000000000000000000000000000815260040161235590615a07565b60405180910390fd5b81810360008085815260200190815260200160002060008a73ffffffffffffffffffffffffffffffffffffffff1673ffffffffffffffffffffffffffffffffffffffff1681526020019081526020016000208190555050505080806123c290614bde565b915050612280565b50600073ffffffffffffffffffffffffffffffffffffffff168473ffffffffffffffffffffffffffffffffffffffff168273ffffffffffffffffffffffffffffffffffffffff167f4a39dc06d4c0dbc64b70af90fd698a233a518aa5d07e595d983b8c0526c8f7fb86866040516124429291906155a1565b60405180910390a4612468818560008686604051806020016040528060008152506130a1565b50505050565b6000600360009054906101000a900473ffffffffffffffffffffffffffffffffffffffff16905081600360006101000a81548173ffffffffffffffffffffffffffffffffffffffff021916908373ffffffffffffffffffffffffffffffffffffffff1602179055508173ffffffffffffffffffffffffffffffffffffffff168173ffffffffffffffffffffffffffffffffffffffff167f8be0079c531659141344cd1fd0a4f28419497f9722a3daafe3b4186f6b6457e060405160405180910390a35050565b8173ffffffffffffffffffffffffffffffffffffffff168373ffffffffffffffffffffffffffffffffffffffff16036125a2576040517f08c379a000000000000000000000000000000000000000000000000000000000815260040161259990615a99565b60405180910390fd5b80600160008573ffffffffffffffffffffffffffffffffffffffff1673ffffffffffffffffffffffffffffffffffffffff16815260200190815260200160002060008473ffffffffffffffffffffffffffffffffffffffff1673ffffffffffffffffffffffffffffffffffffffff16815260200190815260200160002060006101000a81548160ff0219169083151502179055508173ffffffffffffffffffffffffffffffffffffffff168373ffffffffffffffffffffffffffffffffffffffff167f17307eab39ab6107e8899845ad3d59bd9653f200f220920489ca2b5937696c3183604051612693919061396c565b60405180910390a3505050565b600073ffffffffffffffffffffffffffffffffffffffff168473ffffffffffffffffffffffffffffffffffffffff160361270f576040517f08c379a0000000000000000000000000000000000000000000000000000000008152600401612706906154bb565b60405180910390fd5b6000612719611bd2565b9050600061272685613280565b9050600061273385613280565b9050612743838989858589612d31565b600080600088815260200190815260200160002060008a73ffffffffffffffffffffffffffffffffffffffff1673ffffffffffffffffffffffffffffffffffffffff168152602001908152602001600020549050858110156127da576040517f08c379a00000000000000000000000000000000000000000000000000000000081526004016127d19061554d565b60405180910390fd5b85810360008089815260200190815260200160002060008b73ffffffffffffffffffffffffffffffffffffffff1673ffffffffffffffffffffffffffffffffffffffff168152602001908152602001600020819055508560008089815260200190815260200160002060008a73ffffffffffffffffffffffffffffffffffffffff1673ffffffffffffffffffffffffffffffffffffffff168152602001908152602001600020600082825461288f919061556d565b925050819055508773ffffffffffffffffffffffffffffffffffffffff168973ffffffffffffffffffffffffffffffffffffffff168573ffffffffffffffffffffffffffffffffffffffff167fc3d58168c5ae7397731d063d5bbf3d657854427343f4c083240f7aacaa2d0f628a8a60405161290c929190615ab9565b60405180910390a4612922848a8a86868a6130a1565b612930848a8a8a8a8a6132fa565b505050505050505050565b600073ffffffffffffffffffffffffffffffffffffffff168373ffffffffffffffffffffffffffffffffffffffff16036129aa576040517f08c379a00000000000000000000000000000000000000000000000000000000081526004016129a190615975565b60405180910390fd5b60006129b4611bd2565b905060006129c184613280565b905060006129ce84613280565b90506129ee83876000858560405180602001604052806000815250612d31565b600080600087815260200190815260200160002060008873ffffffffffffffffffffffffffffffffffffffff1673ffffffffffffffffffffffffffffffffffffffff16815260200190815260200160002054905084811015612a85576040517f08c379a0000000000000000000000000000000000000000000000000000000008152600401612a7c90615a07565b60405180910390fd5b84810360008088815260200190815260200160002060008973ffffffffffffffffffffffffffffffffffffffff1673ffffffffffffffffffffffffffffffffffffffff16815260200190815260200160002081905550600073ffffffffffffffffffffffffffffffffffffffff168773ffffffffffffffffffffffffffffffffffffffff168573ffffffffffffffffffffffffffffffffffffffff167fc3d58168c5ae7397731d063d5bbf3d657854427343f4c083240f7aacaa2d0f628989604051612b52929190615ab9565b60405180910390a4612b78848860008686604051806020016040528060008152506130a1565b50505050505050565b600073ffffffffffffffffffffffffffffffffffffffff168473ffffffffffffffffffffffffffffffffffffffff1603612bf0576040517f08c379a0000000000000000000000000000000000000000000000000000000008152600401612be790615b54565b60405180910390fd5b6000612bfa611bd2565b90506000612c0785613280565b90506000612c1485613280565b9050612c2583600089858589612d31565b8460008088815260200190815260200160002060008973ffffffffffffffffffffffffffffffffffffffff1673ffffffffffffffffffffffffffffffffffffffff1681526020019081526020016000206000828254612c84919061556d565b925050819055508673ffffffffffffffffffffffffffffffffffffffff16600073ffffffffffffffffffffffffffffffffffffffff168473ffffffffffffffffffffffffffffffffffffffff167fc3d58168c5ae7397731d063d5bbf3d657854427343f4c083240f7aacaa2d0f628989604051612d02929190615ab9565b60405180910390a4612d19836000898585896130a1565b612d28836000898989896132fa565b50505050505050565b612d3f8686868686866134d1565b60005b835181101561309857600073ffffffffffffffffffffffffffffffffffffffff168573ffffffffffffffffffffffffffffffffffffffff1614612e0057600960008673ffffffffffffffffffffffffffffffffffffffff1673ffffffffffffffffffffffffffffffffffffffff168152602001908152602001600020848281518110612dd157612dd0614b80565b5b602002602001015190806001815401808255809150506001900390600052602060002001600090919091909150555b600073ffffffffffffffffffffffffffffffffffffffff168673ffffffffffffffffffffffffffffffffffffffff161461308557828181518110612e4757612e46614b80565b5b6020026020010151612e7387868481518110612e6657612e65614b80565b5b60200260200101516104b6565b036130845760005b845181101561308257848281518110612e9757612e96614b80565b5b6020026020010151600960008973ffffffffffffffffffffffffffffffffffffffff1673ffffffffffffffffffffffffffffffffffffffff1681526020019081526020016000208281548110612ef057612eef614b80565b5b90600052602060002001540361306f57600960008873ffffffffffffffffffffffffffffffffffffffff1673ffffffffffffffffffffffffffffffffffffffff1681526020019081526020016000206001600960008a73ffffffffffffffffffffffffffffffffffffffff1673ffffffffffffffffffffffffffffffffffffffff16815260200190815260200160002080549050612f8e9190614c26565b81548110612f9f57612f9e614b80565b5b9060005260206000200154600960008973ffffffffffffffffffffffffffffffffffffffff1673ffffffffffffffffffffffffffffffffffffffff1681526020019081526020016000208281548110612ffb57612ffa614b80565b5b9060005260206000200181905550600960008873ffffffffffffffffffffffffffffffffffffffff1673ffffffffffffffffffffffffffffffffffffffff16815260200190815260200160002080548061305857613057614f04565b5b600190038181906000526020600020016000905590555b808061307a90614bde565b915050612e7b565b505b5b808061309090614bde565b915050612d42565b50505050505050565b505050505050565b6130c88473ffffffffffffffffffffffffffffffffffffffff166134e7565b15613278578373ffffffffffffffffffffffffffffffffffffffff1663bc197c8187878686866040518663ffffffff1660e01b815260040161310e959493929190615bc9565b6020604051808303816000875af192505050801561314a57506040513d601f19601f820116820180604052508101906131479190615c46565b60015b6131ef57613156615c80565b806308c379a0036131b2575061316a615ca2565b8061317557506131b4565b806040517f08c379a00000000000000000000000000000000000000000000000000000000081526004016131a99190613d92565b60405180910390fd5b505b6040517f08c379a00000000000000000000000000000000000000000000000000000000081526004016131e690615da4565b60405180910390fd5b63bc197c8160e01b7bffffffffffffffffffffffffffffffffffffffffffffffffffffffff1916817bffffffffffffffffffffffffffffffffffffffffffffffffffffffff191614613276576040517f08c379a000000000000000000000000000000000000000000000000000000000815260040161326d90615e36565b60405180910390fd5b505b505050505050565b60606000600167ffffffffffffffff81111561329f5761329e6139a2565b5b6040519080825280602002602001820160405280156132cd5781602001602082028036833780820191505090505b50905082816000815181106132e5576132e4614b80565b5b60200260200101818152505080915050919050565b6133198473ffffffffffffffffffffffffffffffffffffffff166134e7565b156134c9578373ffffffffffffffffffffffffffffffffffffffff1663f23a6e6187878686866040518663ffffffff1660e01b815260040161335f959493929190615e56565b6020604051808303816000875af192505050801561339b57506040513d601f19601f820116820180604052508101906133989190615c46565b60015b613440576133a7615c80565b806308c379a00361340357506133bb615ca2565b806133c65750613405565b806040517f08c379a00000000000000000000000000000000000000000000000000000000081526004016133fa9190613d92565b60405180910390fd5b505b6040517f08c379a000000000000000000000000000000000000000000000000000000000815260040161343790615da4565b60405180910390fd5b63f23a6e6160e01b7bffffffffffffffffffffffffffffffffffffffffffffffffffffffff1916817bffffffffffffffffffffffffffffffffffffffffffffffffffffffff1916146134c7576040517f08c379a00000000000000000000000000000000000000000000000000000000081526004016134be90615e36565b60405180910390fd5b505b505050505050565b6134df86868686868661350a565b505050505050565b6000808273ffffffffffffffffffffffffffffffffffffffff163b119050919050565b613518868686868686613520565b505050505050565b61352e8686868686866136f0565b600073ffffffffffffffffffffffffffffffffffffffff168573ffffffffffffffffffffffffffffffffffffffff16036135df5760005b83518110156135dd5782818151811061358157613580614b80565b5b6020026020010151600460008684815181106135a05761359f614b80565b5b6020026020010151815260200190815260200160002060008282546135c5919061556d565b92505081905550806135d690614bde565b9050613565565b505b600073ffffffffffffffffffffffffffffffffffffffff168473ffffffffffffffffffffffffffffffffffffffff16036136e85760005b83518110156136e657600084828151811061363457613633614b80565b5b60200260200101519050600084838151811061365357613652614b80565b5b60200260200101519050600060046000848152602001908152602001600020549050818110156136b8576040517f08c379a00000000000000000000000000000000000000000000000000000000081526004016136af90615f22565b60405180910390fd5b8181036004600085815260200190815260200160002081905550505050806136df90614bde565b9050613616565b505b505050505050565b505050505050565b6040518060600160405280600081526020016000600181111561371e5761371d613b52565b5b815260200161372b613771565b81525090565b50805461373d906149bf565b6000825580601f1061374f575061376e565b601f01602090049060005260206000209081019061376d919061379d565b5b50565b604051806080016040528060608152602001600061ffff16815260200160608152602001606081525090565b5b808211156137b657600081600090555060010161379e565b5090565b6000604051905090565b600080fd5b600080fd5b600073ffffffffffffffffffffffffffffffffffffffff82169050919050565b60006137f9826137ce565b9050919050565b613809816137ee565b811461381457600080fd5b50565b60008135905061382681613800565b92915050565b6000819050919050565b61383f8161382c565b811461384a57600080fd5b50565b60008135905061385c81613836565b92915050565b60008060408385031215613879576138786137c4565b5b600061388785828601613817565b92505060206138988582860161384d565b9150509250929050565b6138ab8161382c565b82525050565b60006020820190506138c660008301846138a2565b92915050565b60007fffffffff0000000000000000000000000000000000000000000000000000000082169050919050565b613901816138cc565b811461390c57600080fd5b50565b60008135905061391e816138f8565b92915050565b60006020828403121561393a576139396137c4565b5b60006139488482850161390f565b91505092915050565b60008115159050919050565b61396681613951565b82525050565b6000602082019050613981600083018461395d565b92915050565b600080fd5b600080fd5b6000601f19601f8301169050919050565b7f4e487b7100000000000000000000000000000000000000000000000000000000600052604160045260246000fd5b6139da82613991565b810181811067ffffffffffffffff821117156139f9576139f86139a2565b5b80604052505050565b6000613a0c6137ba565b9050613a1882826139d1565b919050565b600067ffffffffffffffff821115613a3857613a376139a2565b5b613a4182613991565b9050602081019050919050565b82818337600083830152505050565b6000613a70613a6b84613a1d565b613a02565b905082815260208101848484011115613a8c57613a8b61398c565b5b613a97848285613a4e565b509392505050565b600082601f830112613ab457613ab3613987565b5b8135613ac4848260208601613a5d565b91505092915050565b600060208284031215613ae357613ae26137c4565b5b600082013567ffffffffffffffff811115613b0157613b006137c9565b5b613b0d84828501613a9f565b91505092915050565b600060208284031215613b2c57613b2b6137c4565b5b6000613b3a8482850161384d565b91505092915050565b613b4c8161382c565b82525050565b7f4e487b7100000000000000000000000000000000000000000000000000000000600052602160045260246000fd5b60028110613b9257613b91613b52565b5b50565b6000819050613ba382613b81565b919050565b6000613bb382613b95565b9050919050565b613bc381613ba8565b82525050565b600081519050919050565b600082825260208201905092915050565b60005b83811015613c03578082015181840152602081019050613be8565b60008484015250505050565b6000613c1a82613bc9565b613c248185613bd4565b9350613c34818560208601613be5565b613c3d81613991565b840191505092915050565b600061ffff82169050919050565b613c5f81613c48565b82525050565b60006080830160008301518482036000860152613c828282613c0f565b9150506020830151613c976020860182613c56565b5060408301518482036040860152613caf8282613c0f565b91505060608301518482036060860152613cc98282613c0f565b9150508091505092915050565b6000606083016000830151613cee6000860182613b43565b506020830151613d016020860182613bba565b5060408301518482036040860152613d198282613c65565b9150508091505092915050565b60006020820190508181036000830152613d408184613cd6565b905092915050565b600082825260208201905092915050565b6000613d6482613bc9565b613d6e8185613d48565b9350613d7e818560208601613be5565b613d8781613991565b840191505092915050565b60006020820190508181036000830152613dac8184613d59565b905092915050565b600060ff82169050919050565b613dca81613db4565b8114613dd557600080fd5b50565b600081359050613de781613dc1565b92915050565b613df681613c48565b8114613e0157600080fd5b50565b600081359050613e1381613ded565b92915050565b600080600080600060a08688031215613e3557613e346137c4565b5b6000613e4388828901613dd8565b955050602086013567ffffffffffffffff811115613e6457613e636137c9565b5b613e7088828901613a9f565b9450506040613e8188828901613e04565b935050606086013567ffffffffffffffff811115613ea257613ea16137c9565b5b613eae88828901613a9f565b925050608086013567ffffffffffffffff811115613ecf57613ece6137c9565b5b613edb88828901613a9f565b9150509295509295909350565b600067ffffffffffffffff821115613f0357613f026139a2565b5b602082029050602081019050919050565b600080fd5b6000613f2c613f2784613ee8565b613a02565b90508083825260208201905060208402830185811115613f4f57613f4e613f14565b5b835b81811015613f785780613f64888261384d565b845260208401935050602081019050613f51565b5050509392505050565b600082601f830112613f9757613f96613987565b5b8135613fa7848260208601613f19565b91505092915050565b600067ffffffffffffffff821115613fcb57613fca6139a2565b5b613fd482613991565b9050602081019050919050565b6000613ff4613fef84613fb0565b613a02565b9050828152602081018484840111156140105761400f61398c565b5b61401b848285613a4e565b509392505050565b600082601f83011261403857614037613987565b5b8135614048848260208601613fe1565b91505092915050565b600080600080600060a0868803121561406d5761406c6137c4565b5b600061407b88828901613817565b955050602061408c88828901613817565b945050604086013567ffffffffffffffff8111156140ad576140ac6137c9565b5b6140b988828901613f82565b935050606086013567ffffffffffffffff8111156140da576140d96137c9565b5b6140e688828901613f82565b925050608086013567ffffffffffffffff811115614107576141066137c9565b5b61411388828901614023565b9150509295509295909350565b600081519050919050565b600082825260208201905092915050565b6000819050602082019050919050565b60006060830160008301516141646000860182613b43565b5060208301516141776020860182613bba565b506040830151848203604086015261418f8282613c65565b9150508091505092915050565b60006141a8838361414c565b905092915050565b6000602082019050919050565b60006141c882614120565b6141d2818561412b565b9350836020820285016141e48561413c565b8060005b858110156142205784840389528151614201858261419c565b945061420c836141b0565b925060208a019950506001810190506141e8565b50829750879550505050505092915050565b6000602082019050818103600083015261424c81846141bd565b905092915050565b600067ffffffffffffffff82111561426f5761426e6139a2565b5b602082029050602081019050919050565b600061429361428e84614254565b613a02565b905080838252602082019050602084028301858111156142b6576142b5613f14565b5b835b818110156142df57806142cb8882613817565b8452602084019350506020810190506142b8565b5050509392505050565b600082601f8301126142fe576142fd613987565b5b813561430e848260208601614280565b91505092915050565b600067ffffffffffffffff821115614332576143316139a2565b5b602082029050602081019050919050565b600061435661435184614317565b613a02565b9050808382526020820190506020840283018581111561437957614378613f14565b5b835b818110156143a2578061438e8882613dd8565b84526020840193505060208101905061437b565b5050509392505050565b600082601f8301126143c1576143c0613987565b5b81356143d1848260208601614343565b91505092915050565b6000806000606084860312156143f3576143f26137c4565b5b60006144018682870161384d565b935050602084013567ffffffffffffffff811115614422576144216137c9565b5b61442e868287016142e9565b925050604084013567ffffffffffffffff81111561444f5761444e6137c9565b5b61445b868287016143ac565b9150509250925092565b6000806040838503121561447c5761447b6137c4565b5b600083013567ffffffffffffffff81111561449a576144996137c9565b5b6144a6858286016142e9565b925050602083013567ffffffffffffffff8111156144c7576144c66137c9565b5b6144d385828601613f82565b9150509250929050565b600081519050919050565b600082825260208201905092915050565b6000819050602082019050919050565b60006145158383613b43565b60208301905092915050565b6000602082019050919050565b6000614539826144dd565b61454381856144e8565b935061454e836144f9565b8060005b8381101561457f5781516145668882614509565b975061457183614521565b925050600181019050614552565b5085935050505092915050565b600060208201905081810360008301526145a6818461452e565b905092915050565b6000806000606084860312156145c7576145c66137c4565b5b60006145d586828701613817565b935050602084013567ffffffffffffffff8111156145f6576145f56137c9565b5b61460286828701613f82565b925050604084013567ffffffffffffffff811115614623576146226137c9565b5b61462f86828701613f82565b9150509250925092565b614642816137ee565b82525050565b600060208201905061465d6000830184614639565b92915050565b61466c81613951565b811461467757600080fd5b50565b60008135905061468981614663565b92915050565b600080604083850312156146a6576146a56137c4565b5b60006146b485828601613817565b92505060206146c58582860161467a565b9150509250929050565b6000602082840312156146e5576146e46137c4565b5b60006146f384828501613817565b91505092915050565b60008060408385031215614713576147126137c4565b5b600061472185828601613817565b925050602061473285828601613817565b9150509250929050565b600080600080600060a08688031215614758576147576137c4565b5b600061476688828901613817565b955050602061477788828901613817565b94505060406147888882890161384d565b93505060606147998882890161384d565b925050608086013567ffffffffffffffff8111156147ba576147b96137c9565b5b6147c688828901614023565b9150509295509295909350565b6000806000606084860312156147ec576147eb6137c4565b5b60006147fa86828701613817565b935050602061480b8682870161384d565b925050604061481c8682870161384d565b9150509250925092565b7f455243313135353a2061646472657373207a65726f206973206e6f742061207660008201527f616c6964206f776e657200000000000000000000000000000000000000000000602082015250565b6000614882602a83613d48565b915061488d82614826565b604082019050919050565b600060208201905081810360008301526148b181614875565b9050919050565b7f546f6b656e20646f6573206e6f74206578697374210000000000000000000000600082015250565b60006148ee601583613d48565b91506148f9826148b8565b602082019050919050565b6000602082019050818103600083015261491d816148e1565b9050919050565b7f546f6b656e206973206e6f7420616e2041737365742100000000000000000000600082015250565b600061495a601683613d48565b915061496582614924565b602082019050919050565b600060208201905081810360008301526149898161494d565b9050919050565b7f4e487b7100000000000000000000000000000000000000000000000000000000600052602260045260246000fd5b600060028204905060018216806149d757607f821691505b6020821081036149ea576149e9614990565b5b50919050565b7f455243313135353a2063616c6c6572206973206e6f7420746f6b656e206f776e60008201527f6572206f7220617070726f766564000000000000000000000000000000000000602082015250565b6000614a4c602e83613d48565b9150614a57826149f0565b604082019050919050565b60006020820190508181036000830152614a7b81614a3f565b9050919050565b7f43616c6c657220646f6573206e6f74206f776e20417373657421000000000000600082015250565b6000614ab8601a83613d48565b9150614ac382614a82565b602082019050919050565b60006020820190508181036000830152614ae781614aab565b9050919050565b7f455243313135353a206163636f756e747320616e6420696473206c656e67746860008201527f206d69736d617463680000000000000000000000000000000000000000000000602082015250565b6000614b4a602983613d48565b9150614b5582614aee565b604082019050919050565b60006020820190508181036000830152614b7981614b3d565b9050919050565b7f4e487b7100000000000000000000000000000000000000000000000000000000600052603260045260246000fd5b7f4e487b7100000000000000000000000000000000000000000000000000000000600052601160045260246000fd5b6000614be98261382c565b91507fffffffffffffffffffffffffffffffffffffffffffffffffffffffffffffffff8203614c1b57614c1a614baf565b5b600182019050919050565b6000614c318261382c565b9150614c3c8361382c565b9250828203905081811115614c5457614c53614baf565b5b92915050565b600081549050614c69816149bf565b9050919050565b60008190508160005260206000209050919050565b60006020601f8301049050919050565b600082821b905092915050565b600060088302614cd27fffffffffffffffffffffffffffffffffffffffffffffffffffffffffffffffff82614c95565b614cdc8683614c95565b95508019841693508086168417925050509392505050565b6000819050919050565b6000614d19614d14614d0f8461382c565b614cf4565b61382c565b9050919050565b6000819050919050565b614d3383614cfe565b614d47614d3f82614d20565b848454614ca2565b825550505050565b600090565b614d5c614d4f565b614d67818484614d2a565b505050565b5b81811015614d8b57614d80600082614d54565b600181019050614d6d565b5050565b601f821115614dd057614da181614c70565b614daa84614c85565b81016020851015614db9578190505b614dcd614dc585614c85565b830182614d6c565b50505b505050565b600082821c905092915050565b6000614df360001984600802614dd5565b1980831691505092915050565b6000614e0c8383614de2565b9150826002028217905092915050565b818103614e2a575050614f02565b614e3382614c5a565b67ffffffffffffffff811115614e4c57614e4b6139a2565b5b614e5682546149bf565b614e61828285614d8f565b6000601f831160018114614e905760008415614e7e578287015490505b614e888582614e00565b865550614efb565b601f198416614e9e87614c70565b9650614ea986614c70565b60005b82811015614ed157848901548255600182019150600185019450602081019050614eac565b86831015614eee5784890154614eea601f891682614de2565b8355505b6001600288020188555050505b5050505050505b565b7f4e487b7100000000000000000000000000000000000000000000000000000000600052603160045260246000fd5b7f4f776e61626c653a206e6577206f776e657220697320746865207a65726f206160008201527f6464726573730000000000000000000000000000000000000000000000000000602082015250565b6000614f8f602683613d48565b9150614f9a82614f33565b604082019050919050565b60006020820190508181036000830152614fbe81614f82565b9050919050565b7f4f776e61626c653a2063616c6c6572206973206e6f7420746865206f776e6572600082015250565b6000614ffb602083613d48565b915061500682614fc5565b602082019050919050565b6000602082019050818103600083015261502a81614fee565b9050919050565b61503a82613bc9565b67ffffffffffffffff811115615053576150526139a2565b5b61505d82546149bf565b615068828285614d8f565b600060209050601f83116001811461509b5760008415615089578287015190505b6150938582614e00565b8655506150fb565b601f1984166150a986614c70565b60005b828110156150d1578489015182556001820191506020850194506020810190506150ac565b868310156150ee57848901516150ea601f891682614de2565b8355505b6001600288020188555050505b505050505050565b7f496e76616c69642061737365742063617465676f727921000000000000000000600082015250565b6000615139601783613d48565b915061514482615103565b602082019050919050565b600060208201905081810360008301526151688161512c565b9050919050565b7f537472656574206e616d652073686f756c64206265206174206c65617374203360008201527f2063686172616374657273206c6f6e6721000000000000000000000000000000602082015250565b60006151cb603183613d48565b91506151d68261516f565b604082019050919050565b600060208201905081810360008301526151fa816151be565b9050919050565b7f537472656574206e756d6265722073686f756c64206265206174206c6561737460008201527f2031210000000000000000000000000000000000000000000000000000000000602082015250565b600061525d602383613d48565b915061526882615201565b604082019050919050565b6000602082019050818103600083015261528c81615250565b9050919050565b7f43697479206e616d652073686f756c64206265206174206c656173742031206360008201527f6861726163746572206c6f6e6721000000000000000000000000000000000000602082015250565b60006152ef602e83613d48565b91506152fa82615293565b604082019050919050565b6000602082019050818103600083015261531e816152e2565b9050919050565b7f436f756e747279206e616d652073686f756c64206265206174206c656173742060008201527f342063686172616374657273206c6f6e67210000000000000000000000000000602082015250565b6000615381603283613d48565b915061538c82615325565b604082019050919050565b600060208201905081810360008301526153b081615374565b9050919050565b7f455243313135353a2069647320616e6420616d6f756e7473206c656e6774682060008201527f6d69736d61746368000000000000000000000000000000000000000000000000602082015250565b6000615413602883613d48565b915061541e826153b7565b604082019050919050565b6000602082019050818103600083015261544281615406565b9050919050565b7f455243313135353a207472616e7366657220746f20746865207a65726f20616460008201527f6472657373000000000000000000000000000000000000000000000000000000602082015250565b60006154a5602583613d48565b91506154b082615449565b604082019050919050565b600060208201905081810360008301526154d481615498565b9050919050565b7f455243313135353a20696e73756666696369656e742062616c616e636520666f60008201527f72207472616e7366657200000000000000000000000000000000000000000000602082015250565b6000615537602a83613d48565b9150615542826154db565b604082019050919050565b600060208201905081810360008301526155668161552a565b9050919050565b60006155788261382c565b91506155838361382c565b925082820190508082111561559b5761559a614baf565b5b92915050565b600060408201905081810360008301526155bb818561452e565b905081810360208301526155cf818461452e565b90509392505050565b7f4561636820686f6c646572206e6565647320616e20616d6f756e74206f66207360008201527f6861726573207370656369666965642100000000000000000000000000000000602082015250565b6000615634603083613d48565b915061563f826155d8565b604082019050919050565b6000602082019050818103600083015261566381615627565b9050919050565b600061567582613db4565b915061568083613db4565b9250828201905060ff81111561569957615698614baf565b5b92915050565b60006156aa82613db4565b915060ff82036156bd576156bc614baf565b5b600182019050919050565b7f53756d206f66207368617265732073686f756c6420657175616c203130302100600082015250565b60006156fe601f83613d48565b9150615709826156c8565b602082019050919050565b6000602082019050818103600083015261572d816156f1565b9050919050565b600081519050919050565b600082825260208201905092915050565b6000819050602082019050919050565b615769816137ee565b82525050565b600061577b8383615760565b60208301905092915050565b6000602082019050919050565b600061579f82615734565b6157a9818561573f565b93506157b483615750565b8060005b838110156157e55781516157cc888261576f565b97506157d783615787565b9250506001810190506157b8565b5085935050505092915050565b600081519050919050565b600082825260208201905092915050565b6000819050602082019050919050565b61582781613db4565b82525050565b6000615839838361581e565b60208301905092915050565b6000602082019050919050565b600061585d826157f2565b61586781856157fd565b93506158728361580e565b8060005b838110156158a357815161588a888261582d565b975061589583615845565b925050600181019050615876565b5085935050505092915050565b60006080820190506158c560008301876138a2565b6158d260208301866138a2565b81810360408301526158e48185615794565b905081810360608301526158f88184615852565b905095945050505050565b7f455243313135353a206275726e2066726f6d20746865207a65726f206164647260008201527f6573730000000000000000000000000000000000000000000000000000000000602082015250565b600061595f602383613d48565b915061596a82615903565b604082019050919050565b6000602082019050818103600083015261598e81615952565b9050919050565b7f455243313135353a206275726e20616d6f756e7420657863656564732062616c60008201527f616e636500000000000000000000000000000000000000000000000000000000602082015250565b60006159f1602483613d48565b91506159fc82615995565b604082019050919050565b60006020820190508181036000830152615a20816159e4565b9050919050565b7f455243313135353a2073657474696e6720617070726f76616c2073746174757360008201527f20666f722073656c660000000000000000000000000000000000000000000000602082015250565b6000615a83602983613d48565b9150615a8e82615a27565b604082019050919050565b60006020820190508181036000830152615ab281615a76565b9050919050565b6000604082019050615ace60008301856138a2565b615adb60208301846138a2565b9392505050565b7f455243313135353a206d696e7420746f20746865207a65726f2061646472657360008201527f7300000000000000000000000000000000000000000000000000000000000000602082015250565b6000615b3e602183613d48565b9150615b4982615ae2565b604082019050919050565b60006020820190508181036000830152615b6d81615b31565b9050919050565b600081519050919050565b600082825260208201905092915050565b6000615b9b82615b74565b615ba58185615b7f565b9350615bb5818560208601613be5565b615bbe81613991565b840191505092915050565b600060a082019050615bde6000830188614639565b615beb6020830187614639565b8181036040830152615bfd818661452e565b90508181036060830152615c11818561452e565b90508181036080830152615c258184615b90565b90509695505050505050565b600081519050615c40816138f8565b92915050565b600060208284031215615c5c57615c5b6137c4565b5b6000615c6a84828501615c31565b91505092915050565b60008160e01c9050919050565b600060033d1115615c9f5760046000803e615c9c600051615c73565b90505b90565b600060443d10615d2f57615cb46137ba565b60043d036004823e80513d602482011167ffffffffffffffff82111715615cdc575050615d2f565b808201805167ffffffffffffffff811115615cfa5750505050615d2f565b80602083010160043d038501811115615d17575050505050615d2f565b615d26826020018501866139d1565b82955050505050505b90565b7f455243313135353a207472616e7366657220746f206e6f6e2d4552433131353560008201527f526563656976657220696d706c656d656e746572000000000000000000000000602082015250565b6000615d8e603483613d48565b9150615d9982615d32565b604082019050919050565b60006020820190508181036000830152615dbd81615d81565b9050919050565b7f455243313135353a204552433131353552656365697665722072656a6563746560008201527f6420746f6b656e73000000000000000000000000000000000000000000000000602082015250565b6000615e20602883613d48565b9150615e2b82615dc4565b604082019050919050565b60006020820190508181036000830152615e4f81615e13565b9050919050565b600060a082019050615e6b6000830188614639565b615e786020830187614639565b615e8560408301866138a2565b615e9260608301856138a2565b8181036080830152615ea48184615b90565b90509695505050505050565b7f455243313135353a206275726e20616d6f756e74206578636565647320746f7460008201527f616c537570706c79000000000000000000000000000000000000000000000000602082015250565b6000615f0c602883613d48565b9150615f1782615eb0565b604082019050919050565b60006020820190508181036000830152615f3b81615eff565b905091905056fea2646970667358221220897e4b4f78509158b0e6f9f57fd52d18f3660afcd5e101127c8c7db5a79feb4064736f6c6343000811003368747470733a2f2f626c6f636b6573746174652e616c65786f6368732e64652f6170692f6d657461646174612f",
  "linkReferences": {},
  "deployedLinkReferences": {}
}