{
  "_format": "hh-sol-artifact-1",
  "contractName": "BlockEstateMarket",
  "sourceName": "contracts/BlockEstateMarket.sol",
  "abi": [
    {
      "inputs": [
        {
          "internalType": "address",
          "name": "_blockEstateAssetsAddress",
          "type": "address"
        },
        {
          "internalType": "address",
          "name": "_blockEstateSharesAddress",
          "type": "address"
        }
      ],
      "stateMutability": "nonpayable",
      "type": "constructor"
    },
    {
      "anonymous": false,
      "inputs": [
        {
          "indexed": false,
          "internalType": "address",
          "name": "old",
          "type": "address"
        },
        {
          "indexed": false,
          "internalType": "address",
          "name": "updated",
          "type": "address"
        }
      ],
      "name": "BlockEstateAssetsAddressUpdated",
      "type": "event"
    },
    {
      "anonymous": false,
      "inputs": [
        {
          "indexed": false,
          "internalType": "address",
          "name": "old",
          "type": "address"
        },
        {
          "indexed": false,
          "internalType": "address",
          "name": "updated",
          "type": "address"
        }
      ],
      "name": "BlockEstateSharesAddressUpdated",
      "type": "event"
    },
    {
      "anonymous": false,
      "inputs": [
        {
          "indexed": true,
          "internalType": "address",
          "name": "previousOwner",
          "type": "address"
        },
        {
          "indexed": true,
          "internalType": "address",
          "name": "newOwner",
          "type": "address"
        }
      ],
      "name": "OwnershipTransferred",
      "type": "event"
    },
    {
      "anonymous": false,
      "inputs": [
        {
          "indexed": false,
          "internalType": "address",
          "name": "account",
          "type": "address"
        }
      ],
      "name": "Paused",
      "type": "event"
    },
    {
      "anonymous": false,
      "inputs": [
        {
          "indexed": false,
          "internalType": "uint256",
          "name": "listingId",
          "type": "uint256"
        },
        {
          "indexed": false,
          "internalType": "uint256",
          "name": "tokenId",
          "type": "uint256"
        },
        {
          "indexed": false,
          "internalType": "uint256",
          "name": "price",
          "type": "uint256"
        },
        {
          "indexed": false,
          "internalType": "uint256",
          "name": "amount",
          "type": "uint256"
        },
        {
          "indexed": false,
          "internalType": "address",
          "name": "seller",
          "type": "address"
        }
      ],
      "name": "SharesListingCreated",
      "type": "event"
    },
    {
      "anonymous": false,
      "inputs": [
        {
          "indexed": false,
          "internalType": "uint256",
          "name": "listingId",
          "type": "uint256"
        },
        {
          "indexed": false,
          "internalType": "uint256",
          "name": "tokenId",
          "type": "uint256"
        },
        {
          "indexed": false,
          "internalType": "uint256",
          "name": "price",
          "type": "uint256"
        },
        {
          "indexed": false,
          "internalType": "uint256",
          "name": "amount",
          "type": "uint256"
        },
        {
          "indexed": false,
          "internalType": "address",
          "name": "seller",
          "type": "address"
        }
      ],
      "name": "SharesListingDeleted",
      "type": "event"
    },
    {
      "anonymous": false,
      "inputs": [
        {
          "indexed": false,
          "internalType": "uint256",
          "name": "listingId",
          "type": "uint256"
        },
        {
          "indexed": false,
          "internalType": "uint256",
          "name": "tokenId",
          "type": "uint256"
        },
        {
          "indexed": false,
          "internalType": "uint256",
          "name": "price",
          "type": "uint256"
        },
        {
          "indexed": false,
          "internalType": "uint256",
          "name": "amount",
          "type": "uint256"
        },
        {
          "indexed": false,
          "internalType": "address",
          "name": "seller",
          "type": "address"
        },
        {
          "indexed": false,
          "internalType": "address",
          "name": "buyer",
          "type": "address"
        }
      ],
      "name": "SharesListingPurchased",
      "type": "event"
    },
    {
      "anonymous": false,
      "inputs": [
        {
          "indexed": false,
          "internalType": "address",
          "name": "account",
          "type": "address"
        }
      ],
      "name": "Unpaused",
      "type": "event"
    },
    {
      "inputs": [],
      "name": "blockEstateAssetsAddress",
      "outputs": [
        {
          "internalType": "address",
          "name": "",
          "type": "address"
        }
      ],
      "stateMutability": "view",
      "type": "function"
    },
    {
      "inputs": [],
      "name": "blockEstateSharesAddress",
      "outputs": [
        {
          "internalType": "address",
          "name": "",
          "type": "address"
        }
      ],
      "stateMutability": "view",
      "type": "function"
    },
    {
      "inputs": [
        {
          "internalType": "uint256",
          "name": "tokenId",
          "type": "uint256"
        },
        {
          "internalType": "uint256",
          "name": "price",
          "type": "uint256"
        },
        {
          "internalType": "uint256",
          "name": "amount",
          "type": "uint256"
        }
      ],
      "name": "createSharesListing",
      "outputs": [],
      "stateMutability": "nonpayable",
      "type": "function"
    },
    {
      "inputs": [
        {
          "internalType": "uint256",
          "name": "listingId",
          "type": "uint256"
        }
      ],
      "name": "deleteSharesListing",
      "outputs": [],
      "stateMutability": "nonpayable",
      "type": "function"
    },
    {
      "inputs": [],
      "name": "owner",
      "outputs": [
        {
          "internalType": "address",
          "name": "",
          "type": "address"
        }
      ],
      "stateMutability": "view",
      "type": "function"
    },
    {
      "inputs": [],
      "name": "pause",
      "outputs": [],
      "stateMutability": "nonpayable",
      "type": "function"
    },
    {
      "inputs": [],
      "name": "paused",
      "outputs": [
        {
          "internalType": "bool",
          "name": "",
          "type": "bool"
        }
      ],
      "stateMutability": "view",
      "type": "function"
    },
    {
      "inputs": [
        {
          "internalType": "uint256",
          "name": "listingId",
          "type": "uint256"
        }
      ],
      "name": "purchaseSharesListing",
      "outputs": [],
      "stateMutability": "payable",
      "type": "function"
    },
    {
      "inputs": [],
      "name": "readAllSharesListings",
      "outputs": [
        {
          "components": [
            {
              "internalType": "uint256",
              "name": "listingId",
              "type": "uint256"
            },
            {
              "internalType": "uint256",
              "name": "tokenId",
              "type": "uint256"
            },
            {
              "internalType": "uint256",
              "name": "price",
              "type": "uint256"
            },
            {
              "internalType": "uint256",
              "name": "amount",
              "type": "uint256"
            },
            {
              "internalType": "address",
              "name": "seller",
              "type": "address"
            },
            {
              "internalType": "bool",
              "name": "isActive",
              "type": "bool"
            }
          ],
          "internalType": "struct BlockEstateMarket.SharesListing[]",
          "name": "",
          "type": "tuple[]"
        }
      ],
      "stateMutability": "view",
      "type": "function"
    },
    {
      "inputs": [
        {
          "internalType": "address",
          "name": "account",
          "type": "address"
        }
      ],
      "name": "readListingsByAccount",
      "outputs": [
        {
          "components": [
            {
              "internalType": "uint256",
              "name": "listingId",
              "type": "uint256"
            },
            {
              "internalType": "uint256",
              "name": "tokenId",
              "type": "uint256"
            },
            {
              "internalType": "uint256",
              "name": "price",
              "type": "uint256"
            },
            {
              "internalType": "uint256",
              "name": "amount",
              "type": "uint256"
            },
            {
              "internalType": "address",
              "name": "seller",
              "type": "address"
            },
            {
              "internalType": "bool",
              "name": "isActive",
              "type": "bool"
            }
          ],
          "internalType": "struct BlockEstateMarket.SharesListing[]",
          "name": "",
          "type": "tuple[]"
        }
      ],
      "stateMutability": "view",
      "type": "function"
    },
    {
      "inputs": [
        {
          "internalType": "uint256",
          "name": "tokenId",
          "type": "uint256"
        }
      ],
      "name": "readListingsByAsset",
      "outputs": [
        {
          "components": [
            {
              "internalType": "uint256",
              "name": "listingId",
              "type": "uint256"
            },
            {
              "internalType": "uint256",
              "name": "tokenId",
              "type": "uint256"
            },
            {
              "internalType": "uint256",
              "name": "price",
              "type": "uint256"
            },
            {
              "internalType": "uint256",
              "name": "amount",
              "type": "uint256"
            },
            {
              "internalType": "address",
              "name": "seller",
              "type": "address"
            },
            {
              "internalType": "bool",
              "name": "isActive",
              "type": "bool"
            }
          ],
          "internalType": "struct BlockEstateMarket.SharesListing[]",
          "name": "",
          "type": "tuple[]"
        }
      ],
      "stateMutability": "view",
      "type": "function"
    },
    {
      "inputs": [],
      "name": "renounceOwnership",
      "outputs": [],
      "stateMutability": "nonpayable",
      "type": "function"
    },
    {
      "inputs": [
        {
          "internalType": "address",
          "name": "_blockEstateAssetsAddress",
          "type": "address"
        }
      ],
      "name": "setBlockEstateAssetsAddress",
      "outputs": [],
      "stateMutability": "nonpayable",
      "type": "function"
    },
    {
      "inputs": [
        {
          "internalType": "address",
          "name": "_blockEstateSharesAddress",
          "type": "address"
        }
      ],
      "name": "setBlockEstateSharesAddress",
      "outputs": [],
      "stateMutability": "nonpayable",
      "type": "function"
    },
    {
      "inputs": [
        {
          "internalType": "uint256",
          "name": "",
          "type": "uint256"
        }
      ],
      "name": "sharesListings",
      "outputs": [
        {
          "internalType": "uint256",
          "name": "listingId",
          "type": "uint256"
        },
        {
          "internalType": "uint256",
          "name": "tokenId",
          "type": "uint256"
        },
        {
          "internalType": "uint256",
          "name": "price",
          "type": "uint256"
        },
        {
          "internalType": "uint256",
          "name": "amount",
          "type": "uint256"
        },
        {
          "internalType": "address",
          "name": "seller",
          "type": "address"
        },
        {
          "internalType": "bool",
          "name": "isActive",
          "type": "bool"
        }
      ],
      "stateMutability": "view",
      "type": "function"
    },
    {
      "inputs": [
        {
          "internalType": "address",
          "name": "newOwner",
          "type": "address"
        }
      ],
      "name": "transferOwnership",
      "outputs": [],
      "stateMutability": "nonpayable",
      "type": "function"
    },
    {
      "inputs": [],
      "name": "unpause",
      "outputs": [],
      "stateMutability": "nonpayable",
      "type": "function"
    },
    {
      "inputs": [
        {
          "internalType": "address",
          "name": "",
          "type": "address"
        },
        {
          "internalType": "uint256",
          "name": "",
          "type": "uint256"
        }
      ],
      "name": "userListings",
      "outputs": [
        {
          "internalType": "uint256",
          "name": "",
          "type": "uint256"
        }
      ],
      "stateMutability": "view",
      "type": "function"
    }
  ],
  "bytecode": "0x60806040523480156200001157600080fd5b5060405162001a8b38038062001a8b833981016040819052620000349162000181565b6200003f3362000114565b6000805460ff60a01b19169055600180556001600160a01b0382166200009b5760405162461bcd60e51b815260206004820152600c60248201526b7a65726f206164647265737360a01b60448201526064015b60405180910390fd5b6001600160a01b038116620000e25760405162461bcd60e51b815260206004820152600c60248201526b7a65726f206164647265737360a01b604482015260640162000092565b600380546001600160a01b039384166001600160a01b03199182161790915560048054929093169116179055620001b9565b600080546001600160a01b038381166001600160a01b0319831681178455604051919092169283917f8be0079c531659141344cd1fd0a4f28419497f9722a3daafe3b4186f6b6457e09190a35050565b80516001600160a01b03811681146200017c57600080fd5b919050565b600080604083850312156200019557600080fd5b620001a08362000164565b9150620001b06020840162000164565b90509250929050565b6118c280620001c96000396000f3fe6080604052600436106101095760003560e01c80637716e573116100955780639a5d6524116100645780639a5d65241461033f5780639f653c5114610352578063d956c10414610372578063eb9e00b914610392578063f2fde38b146103b257600080fd5b80637716e573146102475780638456cb59146102de57806386cfa7d3146102f35780638da5cb5b1461032157600080fd5b80635131e4e7116100dc5780635131e4e7146101905780635c975abb146101b057806363571e65146101da5780636b78018b146101fa578063715018a61461023257600080fd5b8063367eeb471461010e5780633f4ba83a14610144578063416968181461015b5780634e6977281461017b575b600080fd5b34801561011a57600080fd5b5061012e6101293660046116ad565b6103d2565b60405161013b91906116c6565b60405180910390f35b34801561015057600080fd5b50610159610509565b005b34801561016757600080fd5b506101596101763660046116ad565b61051b565b34801561018757600080fd5b5061012e61064e565b34801561019c57600080fd5b506101596101ab366004611765565b610771565b3480156101bc57600080fd5b50600054600160a01b900460ff16604051901515815260200161013b565b3480156101e657600080fd5b506101596101f5366004611765565b610827565b34801561020657600080fd5b5060035461021a906001600160a01b031681565b6040516001600160a01b03909116815260200161013b565b34801561023e57600080fd5b506101596108dd565b34801561025357600080fd5b506102a66102623660046116ad565b60056020526000908152604090208054600182015460028301546003840154600490940154929391929091906001600160a01b03811690600160a01b900460ff1686565b6040805196875260208701959095529385019290925260608401526001600160a01b03166080830152151560a082015260c00161013b565b3480156102ea57600080fd5b506101596108ef565b3480156102ff57600080fd5b5061031361030e366004611787565b6108ff565b60405190815260200161013b565b34801561032d57600080fd5b506000546001600160a01b031661021a565b61015961034d3660046116ad565b610930565b34801561035e57600080fd5b5060045461021a906001600160a01b031681565b34801561037e57600080fd5b5061012e61038d366004611765565b610d35565b34801561039e57600080fd5b506101596103ad3660046117b1565b610ea2565b3480156103be57600080fd5b506101596103cd366004611765565b6113be565b606060006103df60025490565b67ffffffffffffffff8111156103f7576103f76117dd565b60405190808252806020026020018201604052801561043057816020015b61041d61166c565b8152602001906001900390816104155790505b5090506000805b600254811015610500576000818152600560205260409020600101548590036104ee57600081815260056020908152604091829020825160c08101845281548152600182015492810192909252600281015492820192909252600382015460608201526004909101546001600160a01b0381166080830152600160a01b900460ff16151560a082015283518490849081106104d4576104d46117f3565b602002602001018190525081806104ea9061181f565b9250505b806104f88161181f565b915050610437565b50909392505050565b610511611434565b61051961148e565b565b6105236114e3565b6000818152600560205260409020600401546001600160a01b031633146105915760405162461bcd60e51b815260206004820152601e60248201527f4f6e6c792073656c6c65722063616e2064656c657465206c697374696e67000060448201526064015b60405180910390fd5b6000818152600560209081526040918290206001810154600282015460038301546004909301548551878152948501929092528385015260608301919091526001600160a01b0316608082015290517f9eec8eb2210167a0d90bf048cbbd21154b36b1941fa1413a1294343b0f38c5999181900360a00190a160008181526005602052604081208181556001810182905560028101829055600381019190915560040180546001600160a81b031916905561064b60018055565b50565b6060600061065b60025490565b67ffffffffffffffff811115610673576106736117dd565b6040519080825280602002602001820160405280156106ac57816020015b61069961166c565b8152602001906001900390816106915790505b50905060005b60025481101561076b576000818152600560205260409020600101541561075957600081815260056020908152604091829020825160c08101845281548152600182015492810192909252600281015492820192909252600382015460608201526004909101546001600160a01b0381166080830152600160a01b900460ff16151560a0820152825183908390811061074d5761074d6117f3565b60200260200101819052505b806107638161181f565b9150506106b2565b50919050565b610779611434565b6001600160a01b0381166107be5760405162461bcd60e51b815260206004820152600c60248201526b7a65726f206164647265737360a01b6044820152606401610588565b600454604080516001600160a01b03928316815291831660208301527f1a41fb6f752ad018610bf79716ec70546bbda4a0235520e04158d3c4f3486230910160405180910390a1600480546001600160a01b0319166001600160a01b0392909216919091179055565b61082f611434565b6001600160a01b0381166108745760405162461bcd60e51b815260206004820152600c60248201526b7a65726f206164647265737360a01b6044820152606401610588565b600354604080516001600160a01b03928316815291831660208301527f3c382290b39c0f8e7c9445f3393899e71f6f8b9a411021501c650ff68fa83b99910160405180910390a1600380546001600160a01b0319166001600160a01b0392909216919091179055565b6108e5611434565b610519600061153c565b6108f7611434565b61051961158c565b6006602052816000526040600020818154811061091b57600080fd5b90600052602060002001600091509150505481565b6109386114e3565b60008181526005602052604081206001015490036109985760405162461bcd60e51b815260206004820152601760248201527f4c697374696e6720646f6573206e6f74206578697374210000000000000000006044820152606401610588565b600081815260056020526040902060040154336001600160a01b0390911603610a0e5760405162461bcd60e51b815260206004820152602260248201527f53656c6c65722063616e6e6f7420627579207468656972206f776e2073686172604482015261657360f01b6064820152608401610588565b6000818152600560205260409020600201543414610a665760405162461bcd60e51b8152602060048201526015602482015274507269636520646f6573206e6f74206d617463682160581b6044820152606401610588565b600081815260056020526040902060040154600160a01b900460ff161515600114610ad35760405162461bcd60e51b815260206004820152601d60248201527f536861726573206c697374696e67206973206e6f7420616374697665210000006044820152606401610588565b6000600560008381526020019081526020016000206040518060c0016040529081600082015481526020016001820154815260200160028201548152602001600382015481526020016004820160009054906101000a90046001600160a01b03166001600160a01b03166001600160a01b031681526020016004820160149054906101000a900460ff1615151515815250509050600560008381526020019081526020016000206000808201600090556001820160009055600282016000905560038201600090556004820160006101000a8154906001600160a01b0302191690556004820160146101000a81549060ff02191690555050600460009054906101000a90046001600160a01b03166001600160a01b031663f242432a826080015133846020015185606001516040518563ffffffff1660e01b8152600401610c5194939291906001600160a01b0394851681529290931660208301526040820152606081019190915260a06080820181905260009082015260c00190565b600060405180830381600087803b158015610c6b57600080fd5b505af1158015610c7f573d6000803e3d6000fd5b50505060808201516040516001600160a01b0390911691503480156108fc02916000818181858888f19350505050158015610cbe573d6000803e3d6000fd5b5060208181015160608084015160808086015160408051898152968701959095523486860152928501919091526001600160a01b03909116908301523360a0830152517fb976e14df17a9b70d6dd3b3dcae82e3c877a71c73c5e950e486fe9918998e7ab9181900360c00190a15061064b60018055565b6001600160a01b0381166000908152600660205260408120546060919067ffffffffffffffff811115610d6a57610d6a6117dd565b604051908082528060200260200182016040528015610da357816020015b610d9061166c565b815260200190600190039081610d885790505b50905060005b6001600160a01b038416600090815260066020526040902054811015610e9b576001600160a01b03841660009081526006602052604081208054600592919084908110610df857610df86117f3565b600091825260208083209091015483528281019390935260409182019020815160c0810183528154815260018201549381019390935260028101549183019190915260038101546060830152600401546001600160a01b038116608083015260ff600160a01b90910416151560a08201528251839083908110610e7d57610e7d6117f3565b60200260200101819052508080610e939061181f565b915050610da9565b5092915050565b600354604051634f558e7960e01b81526004810185905284916001600160a01b031690634f558e7990602401602060405180830381865afa158015610eeb573d6000803e3d6000fd5b505050506040513d601f19601f82011682018060405250810190610f0f9190611838565b610f535760405162461bcd60e51b8152602060048201526015602482015274417373657420646f6573206e6f742065786973742160581b6044820152606401610588565b60048054604051627eeac760e11b8152339281018390526024810187905286916000916001600160a01b039091169062fdd58e90604401602060405180830381865afa158015610fa7573d6000803e3d6000fd5b505050506040513d601f19601f82011682018060405250810190610fcb919061185a565b1161100a5760405162461bcd60e51b815260206004820152600f60248201526e3737ba1039b430b932b437b63232b960891b6044820152606401610588565b6110126114e3565b600085116110525760405162461bcd60e51b815260206004820152600d60248201526c7072696365203c20312077656960981b6044820152606401610588565b6000841161108f5760405162461bcd60e51b815260206004820152600a602482015269616d6f756e74203c203160b01b6044820152606401610588565b8360005b336000908152600660205260409020548110156111b05733600090815260066020526040812080548a926005929091859081106110d2576110d26117f3565b90600052602060002001548152602001908152602001600020600101541480156111485750336000908152600660205260408120805460059291908490811061111d5761111d6117f3565b9060005260206000200154815260200190815260200160002060040160149054906101000a900460ff165b1561119e573360009081526006602052604081208054600592919084908110611173576111736117f3565b90600052602060002001548152602001908152602001600020600301548261119b9190611873565b91505b806111a88161181f565b915050611093565b5060048054604051627eeac760e11b81523392810192909252602482018990526001600160a01b03169062fdd58e90604401602060405180830381865afa1580156111ff573d6000803e3d6000fd5b505050506040513d601f19601f82011682018060405250810190611223919061185a565b8111156112665760405162461bcd60e51b81526020600482015260116024820152706e6f7420656e6f7567682073686172657360781b6044820152606401610588565b6040518060c0016040528061127a60025490565b8152602081018990526040810188905260608101879052336080820152600160a090910152600560006112ac60025490565b81526020808201929092526040908101600090812084518155848401516001820155848301516002808301919091556060860151600383015560808601516004909201805460a0909701511515600160a01b026001600160a81b03199097166001600160a01b03909316929092179590951790553381526006909252902090611333905490565b815460018101835560009283526020909220909101557f97dcdac6c7238ca7fc3ad41c8a17e1ac9825015db181b6f7d0a8e444dbd1128661137360025490565b60408051918252602082018a905281018890526060810187905233608082015260a00160405180910390a16113ac600280546001019055565b506113b660018055565b505050505050565b6113c6611434565b6001600160a01b03811661142b5760405162461bcd60e51b815260206004820152602660248201527f4f776e61626c653a206e6577206f776e657220697320746865207a65726f206160448201526564647265737360d01b6064820152608401610588565b61064b8161153c565b6000546001600160a01b031633146105195760405162461bcd60e51b815260206004820181905260248201527f4f776e61626c653a2063616c6c6572206973206e6f7420746865206f776e65726044820152606401610588565b6114966115cf565b6000805460ff60a01b191690557f5db9ee0a495bf2e6ff9c91a7834c1ba4fdd244a5e8aa4e537bd38aeae4b073aa335b6040516001600160a01b03909116815260200160405180910390a1565b6002600154036115355760405162461bcd60e51b815260206004820152601f60248201527f5265656e7472616e637947756172643a207265656e7472616e742063616c6c006044820152606401610588565b6002600155565b600080546001600160a01b038381166001600160a01b0319831681178455604051919092169283917f8be0079c531659141344cd1fd0a4f28419497f9722a3daafe3b4186f6b6457e09190a35050565b61159461161f565b6000805460ff60a01b1916600160a01b1790557f62e78cea01bee320cd4e420270b5ea74000d11b0c9f74754ebdbfc544b05a2586114c63390565b600054600160a01b900460ff166105195760405162461bcd60e51b815260206004820152601460248201527314185d5cd8589b194e881b9bdd081c185d5cd95960621b6044820152606401610588565b600054600160a01b900460ff16156105195760405162461bcd60e51b815260206004820152601060248201526f14185d5cd8589b194e881c185d5cd95960821b6044820152606401610588565b6040518060c001604052806000815260200160008152602001600081526020016000815260200160006001600160a01b031681526020016000151581525090565b6000602082840312156116bf57600080fd5b5035919050565b602080825282518282018190526000919060409081850190868401855b8281101561173c5781518051855286810151878601528581015186860152606080820151908601526080808201516001600160a01b03169086015260a09081015115159085015260c090930192908501906001016116e3565b5091979650505050505050565b80356001600160a01b038116811461176057600080fd5b919050565b60006020828403121561177757600080fd5b61178082611749565b9392505050565b6000806040838503121561179a57600080fd5b6117a383611749565b946020939093013593505050565b6000806000606084860312156117c657600080fd5b505081359360208301359350604090920135919050565b634e487b7160e01b600052604160045260246000fd5b634e487b7160e01b600052603260045260246000fd5b634e487b7160e01b600052601160045260246000fd5b60006001820161183157611831611809565b5060010190565b60006020828403121561184a57600080fd5b8151801515811461178057600080fd5b60006020828403121561186c57600080fd5b5051919050565b8082018082111561188657611886611809565b9291505056fea2646970667358221220ba83141f6a5b6299738d0374c2669a7135c1b341de1305f6b221259adc29239964736f6c63430008120033",
  "linkReferences": {},
  "deployedLinkReferences": {}
}