{
  "_format": "hh-sol-artifact-1",
  "contractName": "BlockEstateMarket",
  "sourceName": "contracts/BlockEstateMarket.sol",
  "abi": [
    {
      "inputs": [
        {
          "internalType": "address",
          "name": "_blockEstateAssetsAddress",
          "type": "address"
        },
        {
          "internalType": "address",
          "name": "_blockEstateSharesAddress",
          "type": "address"
        }
      ],
      "stateMutability": "nonpayable",
      "type": "constructor"
    },
    {
      "anonymous": false,
      "inputs": [
        {
          "indexed": false,
          "internalType": "uint256",
          "name": "tokenId",
          "type": "uint256"
        },
        {
          "indexed": false,
          "internalType": "uint256",
          "name": "price",
          "type": "uint256"
        }
      ],
      "name": "AssetListingCreated",
      "type": "event"
    },
    {
      "anonymous": false,
      "inputs": [
        {
          "indexed": false,
          "internalType": "uint256",
          "name": "tokenId",
          "type": "uint256"
        },
        {
          "indexed": false,
          "internalType": "address",
          "name": "seller",
          "type": "address"
        },
        {
          "indexed": false,
          "internalType": "address",
          "name": "buyer",
          "type": "address"
        }
      ],
      "name": "AssetListingPurchased",
      "type": "event"
    },
    {
      "anonymous": false,
      "inputs": [
        {
          "indexed": true,
          "internalType": "address",
          "name": "previousOwner",
          "type": "address"
        },
        {
          "indexed": true,
          "internalType": "address",
          "name": "newOwner",
          "type": "address"
        }
      ],
      "name": "OwnershipTransferred",
      "type": "event"
    },
    {
      "anonymous": false,
      "inputs": [
        {
          "indexed": false,
          "internalType": "address",
          "name": "account",
          "type": "address"
        }
      ],
      "name": "Paused",
      "type": "event"
    },
    {
      "anonymous": false,
      "inputs": [
        {
          "indexed": false,
          "internalType": "uint256",
          "name": "listingId",
          "type": "uint256"
        },
        {
          "indexed": false,
          "internalType": "uint256",
          "name": "tokenId",
          "type": "uint256"
        },
        {
          "indexed": false,
          "internalType": "uint256",
          "name": "price",
          "type": "uint256"
        },
        {
          "indexed": false,
          "internalType": "uint256",
          "name": "amount",
          "type": "uint256"
        },
        {
          "indexed": false,
          "internalType": "address",
          "name": "seller",
          "type": "address"
        }
      ],
      "name": "SharesListingCreated",
      "type": "event"
    },
    {
      "anonymous": false,
      "inputs": [
        {
          "indexed": false,
          "internalType": "uint256",
          "name": "listingId",
          "type": "uint256"
        },
        {
          "indexed": false,
          "internalType": "uint256",
          "name": "tokenId",
          "type": "uint256"
        },
        {
          "indexed": false,
          "internalType": "uint256",
          "name": "price",
          "type": "uint256"
        },
        {
          "indexed": false,
          "internalType": "uint256",
          "name": "amount",
          "type": "uint256"
        },
        {
          "indexed": false,
          "internalType": "address",
          "name": "seller",
          "type": "address"
        }
      ],
      "name": "SharesListingDeleted",
      "type": "event"
    },
    {
      "anonymous": false,
      "inputs": [
        {
          "indexed": false,
          "internalType": "uint256",
          "name": "listingId",
          "type": "uint256"
        },
        {
          "indexed": false,
          "internalType": "uint256",
          "name": "tokenId",
          "type": "uint256"
        },
        {
          "indexed": false,
          "internalType": "uint256",
          "name": "price",
          "type": "uint256"
        },
        {
          "indexed": false,
          "internalType": "uint256",
          "name": "amount",
          "type": "uint256"
        },
        {
          "indexed": false,
          "internalType": "address",
          "name": "seller",
          "type": "address"
        },
        {
          "indexed": false,
          "internalType": "address",
          "name": "buyer",
          "type": "address"
        }
      ],
      "name": "SharesListingPurchased",
      "type": "event"
    },
    {
      "anonymous": false,
      "inputs": [
        {
          "indexed": false,
          "internalType": "address",
          "name": "account",
          "type": "address"
        }
      ],
      "name": "Unpaused",
      "type": "event"
    },
    {
      "inputs": [
        {
          "internalType": "uint256",
          "name": "",
          "type": "uint256"
        }
      ],
      "name": "assetListings",
      "outputs": [
        {
          "internalType": "uint256",
          "name": "tokenId",
          "type": "uint256"
        },
        {
          "internalType": "uint256",
          "name": "price",
          "type": "uint256"
        },
        {
          "internalType": "address",
          "name": "seller",
          "type": "address"
        },
        {
          "internalType": "address",
          "name": "buyer",
          "type": "address"
        },
        {
          "internalType": "bool",
          "name": "isSold",
          "type": "bool"
        },
        {
          "internalType": "bool",
          "name": "isActive",
          "type": "bool"
        }
      ],
      "stateMutability": "view",
      "type": "function"
    },
    {
      "inputs": [],
      "name": "blockEstateAssetsAddress",
      "outputs": [
        {
          "internalType": "address",
          "name": "",
          "type": "address"
        }
      ],
      "stateMutability": "view",
      "type": "function"
    },
    {
      "inputs": [],
      "name": "blockEstateSharesAddress",
      "outputs": [
        {
          "internalType": "address",
          "name": "",
          "type": "address"
        }
      ],
      "stateMutability": "view",
      "type": "function"
    },
    {
      "inputs": [
        {
          "internalType": "uint256",
          "name": "tokenId",
          "type": "uint256"
        },
        {
          "internalType": "uint256",
          "name": "price",
          "type": "uint256"
        }
      ],
      "name": "createAssetListing",
      "outputs": [],
      "stateMutability": "nonpayable",
      "type": "function"
    },
    {
      "inputs": [
        {
          "internalType": "uint256",
          "name": "tokenId",
          "type": "uint256"
        },
        {
          "internalType": "uint256",
          "name": "price",
          "type": "uint256"
        },
        {
          "internalType": "uint256",
          "name": "amount",
          "type": "uint256"
        }
      ],
      "name": "createSharesListing",
      "outputs": [],
      "stateMutability": "nonpayable",
      "type": "function"
    },
    {
      "inputs": [
        {
          "internalType": "uint256",
          "name": "listingId",
          "type": "uint256"
        }
      ],
      "name": "deleteSharesListing",
      "outputs": [],
      "stateMutability": "nonpayable",
      "type": "function"
    },
    {
      "inputs": [],
      "name": "owner",
      "outputs": [
        {
          "internalType": "address",
          "name": "",
          "type": "address"
        }
      ],
      "stateMutability": "view",
      "type": "function"
    },
    {
      "inputs": [],
      "name": "pause",
      "outputs": [],
      "stateMutability": "nonpayable",
      "type": "function"
    },
    {
      "inputs": [],
      "name": "paused",
      "outputs": [
        {
          "internalType": "bool",
          "name": "",
          "type": "bool"
        }
      ],
      "stateMutability": "view",
      "type": "function"
    },
    {
      "inputs": [
        {
          "internalType": "uint256",
          "name": "tokenId",
          "type": "uint256"
        }
      ],
      "name": "purchaseAssetListing",
      "outputs": [],
      "stateMutability": "payable",
      "type": "function"
    },
    {
      "inputs": [
        {
          "internalType": "uint256",
          "name": "listingId",
          "type": "uint256"
        }
      ],
      "name": "purchaseSharesListing",
      "outputs": [],
      "stateMutability": "payable",
      "type": "function"
    },
    {
      "inputs": [],
      "name": "readAllAssetListings",
      "outputs": [
        {
          "components": [
            {
              "internalType": "uint256",
              "name": "tokenId",
              "type": "uint256"
            },
            {
              "internalType": "uint256",
              "name": "price",
              "type": "uint256"
            },
            {
              "internalType": "address",
              "name": "seller",
              "type": "address"
            },
            {
              "internalType": "address",
              "name": "buyer",
              "type": "address"
            },
            {
              "internalType": "bool",
              "name": "isSold",
              "type": "bool"
            },
            {
              "internalType": "bool",
              "name": "isActive",
              "type": "bool"
            }
          ],
          "internalType": "struct BlockEstateMarket.AssetListing[]",
          "name": "",
          "type": "tuple[]"
        }
      ],
      "stateMutability": "view",
      "type": "function"
    },
    {
      "inputs": [],
      "name": "readAllSharesListings",
      "outputs": [
        {
          "components": [
            {
              "internalType": "uint256",
              "name": "listingId",
              "type": "uint256"
            },
            {
              "internalType": "uint256",
              "name": "tokenId",
              "type": "uint256"
            },
            {
              "internalType": "uint256",
              "name": "price",
              "type": "uint256"
            },
            {
              "internalType": "uint256",
              "name": "amount",
              "type": "uint256"
            },
            {
              "internalType": "address",
              "name": "seller",
              "type": "address"
            },
            {
              "internalType": "bool",
              "name": "isActive",
              "type": "bool"
            }
          ],
          "internalType": "struct BlockEstateMarket.SharesListing[]",
          "name": "",
          "type": "tuple[]"
        }
      ],
      "stateMutability": "view",
      "type": "function"
    },
    {
      "inputs": [
        {
          "internalType": "address",
          "name": "account",
          "type": "address"
        }
      ],
      "name": "readListingsByAccount",
      "outputs": [
        {
          "components": [
            {
              "internalType": "uint256",
              "name": "listingId",
              "type": "uint256"
            },
            {
              "internalType": "uint256",
              "name": "tokenId",
              "type": "uint256"
            },
            {
              "internalType": "uint256",
              "name": "price",
              "type": "uint256"
            },
            {
              "internalType": "uint256",
              "name": "amount",
              "type": "uint256"
            },
            {
              "internalType": "address",
              "name": "seller",
              "type": "address"
            },
            {
              "internalType": "bool",
              "name": "isActive",
              "type": "bool"
            }
          ],
          "internalType": "struct BlockEstateMarket.SharesListing[]",
          "name": "",
          "type": "tuple[]"
        }
      ],
      "stateMutability": "view",
      "type": "function"
    },
    {
      "inputs": [],
      "name": "renounceOwnership",
      "outputs": [],
      "stateMutability": "nonpayable",
      "type": "function"
    },
    {
      "inputs": [
        {
          "internalType": "address",
          "name": "_blockEstateAssetsAddress",
          "type": "address"
        }
      ],
      "name": "setBlockEstateAssetsAddress",
      "outputs": [],
      "stateMutability": "nonpayable",
      "type": "function"
    },
    {
      "inputs": [
        {
          "internalType": "address",
          "name": "_blockEstateSharesAddress",
          "type": "address"
        }
      ],
      "name": "setBlockEstateSharesAddress",
      "outputs": [],
      "stateMutability": "nonpayable",
      "type": "function"
    },
    {
      "inputs": [
        {
          "internalType": "uint256",
          "name": "",
          "type": "uint256"
        }
      ],
      "name": "sharesListings",
      "outputs": [
        {
          "internalType": "uint256",
          "name": "listingId",
          "type": "uint256"
        },
        {
          "internalType": "uint256",
          "name": "tokenId",
          "type": "uint256"
        },
        {
          "internalType": "uint256",
          "name": "price",
          "type": "uint256"
        },
        {
          "internalType": "uint256",
          "name": "amount",
          "type": "uint256"
        },
        {
          "internalType": "address",
          "name": "seller",
          "type": "address"
        },
        {
          "internalType": "bool",
          "name": "isActive",
          "type": "bool"
        }
      ],
      "stateMutability": "view",
      "type": "function"
    },
    {
      "inputs": [
        {
          "internalType": "address",
          "name": "newOwner",
          "type": "address"
        }
      ],
      "name": "transferOwnership",
      "outputs": [],
      "stateMutability": "nonpayable",
      "type": "function"
    },
    {
      "inputs": [],
      "name": "unpause",
      "outputs": [],
      "stateMutability": "nonpayable",
      "type": "function"
    },
    {
      "inputs": [
        {
          "internalType": "address",
          "name": "",
          "type": "address"
        },
        {
          "internalType": "uint256",
          "name": "",
          "type": "uint256"
        }
      ],
      "name": "userListings",
      "outputs": [
        {
          "internalType": "uint256",
          "name": "",
          "type": "uint256"
        }
      ],
      "stateMutability": "view",
      "type": "function"
    }
  ],
  "bytecode": "0x60806040523480156200001157600080fd5b5060405162001ffa38038062001ffa8339810160408190526200003491620000ef565b6200003f3362000082565b6000805460ff60a01b1916905560018055600380546001600160a01b039384166001600160a01b0319918216179091556004805492909316911617905562000127565b600080546001600160a01b038381166001600160a01b0319831681178455604051919092169283917f8be0079c531659141344cd1fd0a4f28419497f9722a3daafe3b4186f6b6457e09190a35050565b80516001600160a01b0381168114620000ea57600080fd5b919050565b600080604083850312156200010357600080fd5b6200010e83620000d2565b91506200011e60208401620000d2565b90509250929050565b611ec380620001376000396000f3fe60806040526004361061012a5760003560e01c80638456cb59116100ab5780639f653c511161006f5780639f653c5114610416578063acfb2eb314610436578063bc056d2414610449578063d956c1041461046b578063eb9e00b91461048b578063f2fde38b146104ab57600080fd5b80638456cb59146102ff57806386cfa7d3146103145780638da5cb5b146103425780639a5d6524146103605780639bdec1a81461037357600080fd5b80635c975abb116100f25780635c975abb146101d157806363571e65146101fb5780636b78018b1461021b578063715018a6146102535780637716e5731461026857600080fd5b806321d5c71b1461012f5780633f4ba83a1461015157806341696818146101665780634e697728146101865780635131e4e7146101b1575b600080fd5b34801561013b57600080fd5b5061014f61014a366004611bf5565b6104cb565b005b34801561015d57600080fd5b5061014f610734565b34801561017257600080fd5b5061014f610181366004611c17565b610746565b34801561019257600080fd5b5061019b610862565b6040516101a89190611c30565b60405180910390f35b3480156101bd57600080fd5b5061014f6101cc366004611cc8565b610985565b3480156101dd57600080fd5b50600054600160a01b900460ff1660405190151581526020016101a8565b34801561020757600080fd5b5061014f610216366004611cc8565b6109af565b34801561022757600080fd5b5060035461023b906001600160a01b031681565b6040516001600160a01b0390911681526020016101a8565b34801561025f57600080fd5b5061014f6109d9565b34801561027457600080fd5b506102c7610283366004611c17565b60066020526000908152604090208054600182015460028301546003840154600490940154929391929091906001600160a01b03811690600160a01b900460ff1686565b6040805196875260208701959095529385019290925260608401526001600160a01b03166080830152151560a082015260c0016101a8565b34801561030b57600080fd5b5061014f6109eb565b34801561032057600080fd5b5061033461032f366004611cec565b6109fb565b6040519081526020016101a8565b34801561034e57600080fd5b506000546001600160a01b031661023b565b61014f61036e366004611c17565b610a2c565b34801561037f57600080fd5b506103d861038e366004611c17565b6005602052600090815260409020805460018201546002830154600390930154919290916001600160a01b039182169181169060ff600160a01b8204811691600160a81b90041686565b6040805196875260208701959095526001600160a01b03938416948601949094529116606084015215156080830152151560a082015260c0016101a8565b34801561042257600080fd5b5060045461023b906001600160a01b031681565b61014f610444366004611c17565b610d86565b34801561045557600080fd5b5061045e6110af565b6040516101a89190611d18565b34801561047757600080fd5b5061019b610486366004611cc8565b611295565b34801561049757600080fd5b5061014f6104a6366004611d95565b6113fb565b3480156104b757600080fd5b5061014f6104c6366004611cc8565b611906565b6003546040516331a9108f60e11b815260048101849052839133916001600160a01b0390911690636352211e90602401602060405180830381865afa158015610518573d6000803e3d6000fd5b505050506040513d601f19601f8201168201806040525081019061053c9190611dc1565b6001600160a01b0316146105975760405162461bcd60e51b815260206004820152601a60248201527f43616c6c657220646f6573206e6f74206f776e2041737365742100000000000060448201526064015b60405180910390fd5b600082116105e75760405162461bcd60e51b815260206004820152601f60248201527f50726963652073686f756c64206265206174206c656173742031207765692100604482015260640161058e565b6000838152600560205260409020541561063b5760405162461bcd60e51b8152602060048201526015602482015274417373657420616c7265616479206c69737465642160581b604482015260640161058e565b6040805160c08101825284815260208082018581523383850190815260006060850181815260808601828152600160a088018181528c85526005909752928890209651875593519186019190915590516002850180546001600160a01b039283166001600160a01b0319909116179055905160039094018054925193511515600160a81b0260ff60a81b19941515600160a01b026001600160a81b031990941695909216949094179190911791909116179055517ff1a91e6f24c2fde773766e074a64a2f99ad10d6912a29bfc44b32db0a7accf25906107279085908590918252602082015260400190565b60405180910390a1505050565b61073c61197c565b6107446119d6565b565b6000818152600660205260409020600401546001600160a01b031633146107af5760405162461bcd60e51b815260206004820152601e60248201527f4f6e6c792073656c6c65722063616e2064656c657465206c697374696e670000604482015260640161058e565b6000818152600660209081526040918290206001810154600282015460038301546004909301548551878152948501929092528385015260608301919091526001600160a01b0316608082015290517f9eec8eb2210167a0d90bf048cbbd21154b36b1941fa1413a1294343b0f38c5999181900360a00190a160009081526006602052604081208181556001810182905560028101829055600381019190915560040180546001600160a81b0319169055565b6060600061086f60025490565b67ffffffffffffffff81111561088757610887611dde565b6040519080825280602002602001820160405280156108c057816020015b6108ad611bb4565b8152602001906001900390816108a55790505b50905060005b60025481101561097f576000818152600660205260409020600101541561096d57600081815260066020908152604091829020825160c08101845281548152600182015492810192909252600281015492820192909252600382015460608201526004909101546001600160a01b0381166080830152600160a01b900460ff16151560a0820152825183908390811061096157610961611df4565b60200260200101819052505b8061097781611e20565b9150506108c6565b50919050565b61098d61197c565b600480546001600160a01b0319166001600160a01b0392909216919091179055565b6109b761197c565b600380546001600160a01b0319166001600160a01b0392909216919091179055565b6109e161197c565b6107446000611a2b565b6109f361197c565b610744611a7b565b60076020528160005260406000208181548110610a1757600080fd5b90600052602060002001600091509150505481565b610a34611abe565b6000818152600660205260408120600101549003610a945760405162461bcd60e51b815260206004820152601760248201527f4c697374696e6720646f6573206e6f7420657869737421000000000000000000604482015260640161058e565b600081815260066020526040902060040154336001600160a01b0390911603610b0a5760405162461bcd60e51b815260206004820152602260248201527f53656c6c65722063616e6e6f7420627579207468656972206f776e2073686172604482015261657360f01b606482015260840161058e565b6000818152600660205260409020600201543414610b625760405162461bcd60e51b8152602060048201526015602482015274507269636520646f6573206e6f74206d617463682160581b604482015260640161058e565b600081815260066020526040902060040154600160a01b900460ff161515600114610bcf5760405162461bcd60e51b815260206004820152601d60248201527f536861726573206c697374696e67206973206e6f742061637469766521000000604482015260640161058e565b6000818152600660205260408082206004808201805460ff60a01b198116909155815460018401546003909401549451637921219560e11b81526001600160a01b03928316938101939093523360248401526044830193909352606482019390935260a0608482015260a4810193909352169063f242432a9060c401600060405180830381600087803b158015610c6557600080fd5b505af1158015610c79573d6000803e3d6000fd5b5050506000828152600660205260408082206004015490516001600160a01b0390911692503480156108fc0292909190818181858888f19350505050158015610cc6573d6000803e3d6000fd5b5060008181526006602090815260409182902060018101546003820154600490920154845186815293840191909152348385015260608301919091526001600160a01b031660808201523360a082015290517fb976e14df17a9b70d6dd3b3dcae82e3c877a71c73c5e950e486fe9918998e7ab9181900360c00190a160008181526006602052604081208181556001810182905560028101829055600381019190915560040180546001600160a81b0319169055610d8360018055565b50565b610d8e611abe565b6000818152600560205260408120549003610ddf5760405162461bcd60e51b81526020600482015260116024820152704173736574206e6f74206c69737465642160781b604482015260640161058e565b6000818152600560205260409020600101543414610e375760405162461bcd60e51b8152602060048201526015602482015274507269636520646f6573206e6f74206d617463682160581b604482015260640161058e565b600081815260056020526040902060030154600160a81b900460ff161515600114610ea45760405162461bcd60e51b815260206004820152601c60248201527f4173736574206c697374696e67206973206e6f74206163746976652100000000604482015260640161058e565b600081815260056020526040902060030154600160a01b900460ff1615610f0d5760405162461bcd60e51b815260206004820152601e60248201527f4173736574206c697374696e6720697320616c726561647920736f6c64210000604482015260640161058e565b6000818152600560205260409081902060038082018054600160a01b6001600160a81b03199091163360ff60a01b1916171760ff60a81b19811690915590546002909201549251632142170760e11b81526001600160a01b0393841660048201529083166024820152604481018490529116906342842e0e90606401600060405180830381600087803b158015610fa357600080fd5b505af1158015610fb7573d6000803e3d6000fd5b5050506000828152600560205260408082206002015490516001600160a01b0390911692503480156108fc0292909190818181858888f19350505050158015611004573d6000803e3d6000fd5b50600081815260056020908152604091829020600281015460039091015483518581526001600160a01b0392831693810193909352168183015290517f3350c3b4245b5a0cf503136a77f59725db483e024c5550b05ccfb3bbd236b2fd9181900360600190a1600081815260056020526040812081815560018101919091556002810180546001600160a01b031916905560030180546001600160b01b0319169055610d8360018055565b60606000600360009054906101000a90046001600160a01b03166001600160a01b03166318160ddd6040518163ffffffff1660e01b8152600401602060405180830381865afa158015611106573d6000803e3d6000fd5b505050506040513d601f19601f8201168201806040525081019061112a9190611e39565b905060008167ffffffffffffffff81111561114757611147611dde565b6040519080825280602002602001820160405280156111a757816020015b6040805160c08101825260008082526020808301829052928201819052606082018190526080820181905260a082015282526000199092019101816111655790505b50905060005b8281101561128e5760006005816111c5846001611e52565b815260200190815260200160002060000154111561127c57600560006111ec836001611e52565b81526020808201929092526040908101600020815160c0810183528154815260018201549381019390935260028101546001600160a01b039081169284019290925260030154908116606083015260ff600160a01b8204811615156080840152600160a81b90910416151560a0820152825183908390811061127057611270611df4565b60200260200101819052505b8061128681611e20565b9150506111ad565b5092915050565b6001600160a01b0381166000908152600760205260408120546060919067ffffffffffffffff8111156112ca576112ca611dde565b60405190808252806020026020018201604052801561130357816020015b6112f0611bb4565b8152602001906001900390816112e85790505b50905060005b6001600160a01b03841660009081526007602052604090205481101561128e576001600160a01b0384166000908152600760205260408120805460069291908490811061135857611358611df4565b600091825260208083209091015483528281019390935260409182019020815160c0810183528154815260018201549381019390935260028101549183019190915260038101546060830152600401546001600160a01b038116608083015260ff600160a01b90910416151560a082015282518390839081106113dd576113dd611df4565b602002602001018190525080806113f390611e20565b915050611309565b600354604051634f558e7960e01b81526004810185905284916001600160a01b031690634f558e7990602401602060405180830381865afa158015611444573d6000803e3d6000fd5b505050506040513d601f19601f820116820180604052508101906114689190611e6b565b6114ac5760405162461bcd60e51b8152602060048201526015602482015274417373657420646f6573206e6f742065786973742160581b604482015260640161058e565b60048054604051627eeac760e11b8152339281018390526024810187905286916000916001600160a01b039091169062fdd58e90604401602060405180830381865afa158015611500573d6000803e3d6000fd5b505050506040513d601f19601f820116820180604052508101906115249190611e39565b116115635760405162461bcd60e51b815260206004820152600f60248201526e3737ba1039b430b932b437b63232b960891b604482015260640161058e565b600085116115a35760405162461bcd60e51b815260206004820152600d60248201526c7072696365203c20312077656960981b604482015260640161058e565b600084116115e05760405162461bcd60e51b815260206004820152600a602482015269616d6f756e74203c203160b01b604482015260640161058e565b8360005b336000908152600760205260409020548110156117015733600090815260076020526040812080548a9260069290918590811061162357611623611df4565b90600052602060002001548152602001908152602001600020600101541480156116995750336000908152600760205260408120805460069291908490811061166e5761166e611df4565b9060005260206000200154815260200190815260200160002060040160149054906101000a900460ff165b156116ef5733600090815260076020526040812080546006929190849081106116c4576116c4611df4565b9060005260206000200154815260200190815260200160002060030154826116ec9190611e52565b91505b806116f981611e20565b9150506115e4565b5060048054604051627eeac760e11b81523392810192909252602482018990526001600160a01b03169062fdd58e90604401602060405180830381865afa158015611750573d6000803e3d6000fd5b505050506040513d601f19601f820116820180604052508101906117749190611e39565b8111156117b75760405162461bcd60e51b81526020600482015260116024820152706e6f7420656e6f7567682073686172657360781b604482015260640161058e565b6040518060c001604052806117cb60025490565b8152602081018990526040810188905260608101879052336080820152600160a090910152600660006117fd60025490565b81526020808201929092526040908101600090812084518155848401516001820155848301516002808301919091556060860151600383015560808601516004909201805460a0909701511515600160a01b026001600160a81b03199097166001600160a01b03909316929092179590951790553381526007909252902090611884905490565b815460018101835560009283526020909220909101557f97dcdac6c7238ca7fc3ad41c8a17e1ac9825015db181b6f7d0a8e444dbd112866118c460025490565b60408051918252602082018a905281018890526060810187905233608082015260a00160405180910390a16118fd600280546001019055565b50505050505050565b61190e61197c565b6001600160a01b0381166119735760405162461bcd60e51b815260206004820152602660248201527f4f776e61626c653a206e6577206f776e657220697320746865207a65726f206160448201526564647265737360d01b606482015260840161058e565b610d8381611a2b565b6000546001600160a01b031633146107445760405162461bcd60e51b815260206004820181905260248201527f4f776e61626c653a2063616c6c6572206973206e6f7420746865206f776e6572604482015260640161058e565b6119de611b17565b6000805460ff60a01b191690557f5db9ee0a495bf2e6ff9c91a7834c1ba4fdd244a5e8aa4e537bd38aeae4b073aa335b6040516001600160a01b03909116815260200160405180910390a1565b600080546001600160a01b038381166001600160a01b0319831681178455604051919092169283917f8be0079c531659141344cd1fd0a4f28419497f9722a3daafe3b4186f6b6457e09190a35050565b611a83611b67565b6000805460ff60a01b1916600160a01b1790557f62e78cea01bee320cd4e420270b5ea74000d11b0c9f74754ebdbfc544b05a258611a0e3390565b600260015403611b105760405162461bcd60e51b815260206004820152601f60248201527f5265656e7472616e637947756172643a207265656e7472616e742063616c6c00604482015260640161058e565b6002600155565b600054600160a01b900460ff166107445760405162461bcd60e51b815260206004820152601460248201527314185d5cd8589b194e881b9bdd081c185d5cd95960621b604482015260640161058e565b600054600160a01b900460ff16156107445760405162461bcd60e51b815260206004820152601060248201526f14185d5cd8589b194e881c185d5cd95960821b604482015260640161058e565b6040518060c001604052806000815260200160008152602001600081526020016000815260200160006001600160a01b031681526020016000151581525090565b60008060408385031215611c0857600080fd5b50508035926020909101359150565b600060208284031215611c2957600080fd5b5035919050565b602080825282518282018190526000919060409081850190868401855b82811015611ca65781518051855286810151878601528581015186860152606080820151908601526080808201516001600160a01b03169086015260a09081015115159085015260c09093019290850190600101611c4d565b5091979650505050505050565b6001600160a01b0381168114610d8357600080fd5b600060208284031215611cda57600080fd5b8135611ce581611cb3565b9392505050565b60008060408385031215611cff57600080fd5b8235611d0a81611cb3565b946020939093013593505050565b602080825282518282018190526000919060409081850190868401855b82811015611ca6578151805185528681015187860152858101516001600160a01b03908116878701526060808301519091169086015260808082015115159086015260a09081015115159085015260c09093019290850190600101611d35565b600080600060608486031215611daa57600080fd5b505081359360208301359350604090920135919050565b600060208284031215611dd357600080fd5b8151611ce581611cb3565b634e487b7160e01b600052604160045260246000fd5b634e487b7160e01b600052603260045260246000fd5b634e487b7160e01b600052601160045260246000fd5b600060018201611e3257611e32611e0a565b5060010190565b600060208284031215611e4b57600080fd5b5051919050565b80820180821115611e6557611e65611e0a565b92915050565b600060208284031215611e7d57600080fd5b81518015158114611ce557600080fdfea264697066735822122080dbd4b1559d0c6adb176f92946734816b79c065554185f6edbe1ed4182fe8b064736f6c63430008120033",
  "linkReferences": {},
  "deployedLinkReferences": {}
}