{
  "_format": "hh-sol-artifact-1",
  "contractName": "BlockEstateShares",
  "sourceName": "contracts/BlockEstate/BlockEstateShares.sol",
  "abi": [
    {
      "inputs": [
        {
          "internalType": "address",
          "name": "_blockEstateAssetsAddress",
          "type": "address"
        }
      ],
      "stateMutability": "nonpayable",
      "type": "constructor"
    },
    {
      "anonymous": false,
      "inputs": [
        {
          "indexed": true,
          "internalType": "address",
          "name": "account",
          "type": "address"
        },
        {
          "indexed": true,
          "internalType": "address",
          "name": "operator",
          "type": "address"
        },
        {
          "indexed": false,
          "internalType": "bool",
          "name": "approved",
          "type": "bool"
        }
      ],
      "name": "ApprovalForAll",
      "type": "event"
    },
    {
      "anonymous": false,
      "inputs": [
        {
          "indexed": false,
          "internalType": "address",
          "name": "old",
          "type": "address"
        },
        {
          "indexed": false,
          "internalType": "address",
          "name": "updated",
          "type": "address"
        }
      ],
      "name": "BlockEstateAssetsAddressUpdated",
      "type": "event"
    },
    {
      "anonymous": false,
      "inputs": [
        {
          "indexed": false,
          "internalType": "address",
          "name": "old",
          "type": "address"
        },
        {
          "indexed": false,
          "internalType": "address",
          "name": "updated",
          "type": "address"
        }
      ],
      "name": "BlockEstateMarketAddressUpdated",
      "type": "event"
    },
    {
      "anonymous": false,
      "inputs": [
        {
          "indexed": true,
          "internalType": "address",
          "name": "previousOwner",
          "type": "address"
        },
        {
          "indexed": true,
          "internalType": "address",
          "name": "newOwner",
          "type": "address"
        }
      ],
      "name": "OwnershipTransferred",
      "type": "event"
    },
    {
      "anonymous": false,
      "inputs": [
        {
          "indexed": false,
          "internalType": "address",
          "name": "account",
          "type": "address"
        }
      ],
      "name": "Paused",
      "type": "event"
    },
    {
      "anonymous": false,
      "inputs": [
        {
          "indexed": false,
          "internalType": "uint256",
          "name": "tokenId",
          "type": "uint256"
        },
        {
          "indexed": false,
          "internalType": "uint256",
          "name": "amount",
          "type": "uint256"
        }
      ],
      "name": "SharesCreated",
      "type": "event"
    },
    {
      "anonymous": false,
      "inputs": [
        {
          "indexed": true,
          "internalType": "address",
          "name": "operator",
          "type": "address"
        },
        {
          "indexed": true,
          "internalType": "address",
          "name": "from",
          "type": "address"
        },
        {
          "indexed": true,
          "internalType": "address",
          "name": "to",
          "type": "address"
        },
        {
          "indexed": false,
          "internalType": "uint256[]",
          "name": "ids",
          "type": "uint256[]"
        },
        {
          "indexed": false,
          "internalType": "uint256[]",
          "name": "values",
          "type": "uint256[]"
        }
      ],
      "name": "TransferBatch",
      "type": "event"
    },
    {
      "anonymous": false,
      "inputs": [
        {
          "indexed": true,
          "internalType": "address",
          "name": "operator",
          "type": "address"
        },
        {
          "indexed": true,
          "internalType": "address",
          "name": "from",
          "type": "address"
        },
        {
          "indexed": true,
          "internalType": "address",
          "name": "to",
          "type": "address"
        },
        {
          "indexed": false,
          "internalType": "uint256",
          "name": "id",
          "type": "uint256"
        },
        {
          "indexed": false,
          "internalType": "uint256",
          "name": "value",
          "type": "uint256"
        }
      ],
      "name": "TransferSingle",
      "type": "event"
    },
    {
      "anonymous": false,
      "inputs": [
        {
          "indexed": false,
          "internalType": "string",
          "name": "value",
          "type": "string"
        },
        {
          "indexed": true,
          "internalType": "uint256",
          "name": "id",
          "type": "uint256"
        }
      ],
      "name": "URI",
      "type": "event"
    },
    {
      "anonymous": false,
      "inputs": [
        {
          "indexed": false,
          "internalType": "address",
          "name": "account",
          "type": "address"
        }
      ],
      "name": "Unpaused",
      "type": "event"
    },
    {
      "inputs": [
        {
          "internalType": "address",
          "name": "account",
          "type": "address"
        },
        {
          "internalType": "uint256",
          "name": "id",
          "type": "uint256"
        }
      ],
      "name": "balanceOf",
      "outputs": [
        {
          "internalType": "uint256",
          "name": "",
          "type": "uint256"
        }
      ],
      "stateMutability": "view",
      "type": "function"
    },
    {
      "inputs": [
        {
          "internalType": "address[]",
          "name": "accounts",
          "type": "address[]"
        },
        {
          "internalType": "uint256[]",
          "name": "ids",
          "type": "uint256[]"
        }
      ],
      "name": "balanceOfBatch",
      "outputs": [
        {
          "internalType": "uint256[]",
          "name": "",
          "type": "uint256[]"
        }
      ],
      "stateMutability": "view",
      "type": "function"
    },
    {
      "inputs": [],
      "name": "blockEstateAssetsAddress",
      "outputs": [
        {
          "internalType": "address",
          "name": "",
          "type": "address"
        }
      ],
      "stateMutability": "view",
      "type": "function"
    },
    {
      "inputs": [],
      "name": "blockEstateMarketAddress",
      "outputs": [
        {
          "internalType": "address",
          "name": "",
          "type": "address"
        }
      ],
      "stateMutability": "view",
      "type": "function"
    },
    {
      "inputs": [
        {
          "internalType": "address",
          "name": "account",
          "type": "address"
        },
        {
          "internalType": "uint256",
          "name": "id",
          "type": "uint256"
        },
        {
          "internalType": "uint256",
          "name": "value",
          "type": "uint256"
        }
      ],
      "name": "burn",
      "outputs": [],
      "stateMutability": "nonpayable",
      "type": "function"
    },
    {
      "inputs": [
        {
          "internalType": "address",
          "name": "account",
          "type": "address"
        },
        {
          "internalType": "uint256[]",
          "name": "ids",
          "type": "uint256[]"
        },
        {
          "internalType": "uint256[]",
          "name": "values",
          "type": "uint256[]"
        }
      ],
      "name": "burnBatch",
      "outputs": [],
      "stateMutability": "nonpayable",
      "type": "function"
    },
    {
      "inputs": [
        {
          "internalType": "uint256",
          "name": "tokenId",
          "type": "uint256"
        },
        {
          "internalType": "uint256",
          "name": "amount",
          "type": "uint256"
        }
      ],
      "name": "burnShares",
      "outputs": [],
      "stateMutability": "nonpayable",
      "type": "function"
    },
    {
      "inputs": [
        {
          "internalType": "address",
          "name": "to",
          "type": "address"
        },
        {
          "internalType": "uint256",
          "name": "tokenId",
          "type": "uint256"
        },
        {
          "internalType": "uint8",
          "name": "sharesOption",
          "type": "uint8"
        }
      ],
      "name": "createSharesAtCreation",
      "outputs": [],
      "stateMutability": "nonpayable",
      "type": "function"
    },
    {
      "inputs": [
        {
          "internalType": "uint256",
          "name": "tokenId",
          "type": "uint256"
        },
        {
          "internalType": "address[]",
          "name": "holders",
          "type": "address[]"
        },
        {
          "internalType": "uint256[]",
          "name": "amounts",
          "type": "uint256[]"
        }
      ],
      "name": "createSharesBatch",
      "outputs": [],
      "stateMutability": "nonpayable",
      "type": "function"
    },
    {
      "inputs": [
        {
          "internalType": "uint256",
          "name": "id",
          "type": "uint256"
        }
      ],
      "name": "exists",
      "outputs": [
        {
          "internalType": "bool",
          "name": "",
          "type": "bool"
        }
      ],
      "stateMutability": "view",
      "type": "function"
    },
    {
      "inputs": [
        {
          "internalType": "address",
          "name": "account",
          "type": "address"
        },
        {
          "internalType": "address",
          "name": "operator",
          "type": "address"
        }
      ],
      "name": "isApprovedForAll",
      "outputs": [
        {
          "internalType": "bool",
          "name": "",
          "type": "bool"
        }
      ],
      "stateMutability": "view",
      "type": "function"
    },
    {
      "inputs": [],
      "name": "owner",
      "outputs": [
        {
          "internalType": "address",
          "name": "",
          "type": "address"
        }
      ],
      "stateMutability": "view",
      "type": "function"
    },
    {
      "inputs": [],
      "name": "pause",
      "outputs": [],
      "stateMutability": "nonpayable",
      "type": "function"
    },
    {
      "inputs": [],
      "name": "paused",
      "outputs": [
        {
          "internalType": "bool",
          "name": "",
          "type": "bool"
        }
      ],
      "stateMutability": "view",
      "type": "function"
    },
    {
      "inputs": [
        {
          "internalType": "uint256",
          "name": "tokenId",
          "type": "uint256"
        }
      ],
      "name": "readShareholdersByToken",
      "outputs": [
        {
          "internalType": "address[]",
          "name": "",
          "type": "address[]"
        }
      ],
      "stateMutability": "view",
      "type": "function"
    },
    {
      "inputs": [
        {
          "internalType": "address",
          "name": "holder",
          "type": "address"
        }
      ],
      "name": "readSharesByHolder",
      "outputs": [
        {
          "internalType": "uint256[]",
          "name": "",
          "type": "uint256[]"
        }
      ],
      "stateMutability": "view",
      "type": "function"
    },
    {
      "inputs": [],
      "name": "renounceOwnership",
      "outputs": [],
      "stateMutability": "nonpayable",
      "type": "function"
    },
    {
      "inputs": [
        {
          "internalType": "address",
          "name": "from",
          "type": "address"
        },
        {
          "internalType": "address",
          "name": "to",
          "type": "address"
        },
        {
          "internalType": "uint256[]",
          "name": "ids",
          "type": "uint256[]"
        },
        {
          "internalType": "uint256[]",
          "name": "amounts",
          "type": "uint256[]"
        },
        {
          "internalType": "bytes",
          "name": "data",
          "type": "bytes"
        }
      ],
      "name": "safeBatchTransferFrom",
      "outputs": [],
      "stateMutability": "nonpayable",
      "type": "function"
    },
    {
      "inputs": [
        {
          "internalType": "address",
          "name": "from",
          "type": "address"
        },
        {
          "internalType": "address",
          "name": "to",
          "type": "address"
        },
        {
          "internalType": "uint256",
          "name": "id",
          "type": "uint256"
        },
        {
          "internalType": "uint256",
          "name": "amount",
          "type": "uint256"
        },
        {
          "internalType": "bytes",
          "name": "data",
          "type": "bytes"
        }
      ],
      "name": "safeTransferFrom",
      "outputs": [],
      "stateMutability": "nonpayable",
      "type": "function"
    },
    {
      "inputs": [
        {
          "internalType": "address",
          "name": "operator",
          "type": "address"
        },
        {
          "internalType": "bool",
          "name": "approved",
          "type": "bool"
        }
      ],
      "name": "setApprovalForAll",
      "outputs": [],
      "stateMutability": "nonpayable",
      "type": "function"
    },
    {
      "inputs": [
        {
          "internalType": "address",
          "name": "_blockEstateAssetsAddress",
          "type": "address"
        }
      ],
      "name": "setBlockEstateAssetsAddress",
      "outputs": [],
      "stateMutability": "nonpayable",
      "type": "function"
    },
    {
      "inputs": [
        {
          "internalType": "address",
          "name": "_blockEstateMarketAddress",
          "type": "address"
        }
      ],
      "name": "setBlockEstateMarketAddress",
      "outputs": [],
      "stateMutability": "nonpayable",
      "type": "function"
    },
    {
      "inputs": [
        {
          "internalType": "string",
          "name": "newuri",
          "type": "string"
        }
      ],
      "name": "setURI",
      "outputs": [],
      "stateMutability": "nonpayable",
      "type": "function"
    },
    {
      "inputs": [
        {
          "internalType": "uint256",
          "name": "",
          "type": "uint256"
        },
        {
          "internalType": "uint256",
          "name": "",
          "type": "uint256"
        }
      ],
      "name": "shareholdersHistory",
      "outputs": [
        {
          "internalType": "address",
          "name": "",
          "type": "address"
        }
      ],
      "stateMutability": "view",
      "type": "function"
    },
    {
      "inputs": [
        {
          "internalType": "bytes4",
          "name": "interfaceId",
          "type": "bytes4"
        }
      ],
      "name": "supportsInterface",
      "outputs": [
        {
          "internalType": "bool",
          "name": "",
          "type": "bool"
        }
      ],
      "stateMutability": "view",
      "type": "function"
    },
    {
      "inputs": [
        {
          "internalType": "address",
          "name": "",
          "type": "address"
        },
        {
          "internalType": "uint256",
          "name": "",
          "type": "uint256"
        }
      ],
      "name": "tokenHistory",
      "outputs": [
        {
          "internalType": "uint256",
          "name": "",
          "type": "uint256"
        }
      ],
      "stateMutability": "view",
      "type": "function"
    },
    {
      "inputs": [
        {
          "internalType": "uint256",
          "name": "id",
          "type": "uint256"
        }
      ],
      "name": "totalSupply",
      "outputs": [
        {
          "internalType": "uint256",
          "name": "",
          "type": "uint256"
        }
      ],
      "stateMutability": "view",
      "type": "function"
    },
    {
      "inputs": [
        {
          "internalType": "uint256[]",
          "name": "tokenIds",
          "type": "uint256[]"
        }
      ],
      "name": "totalSupplyBatch",
      "outputs": [
        {
          "internalType": "uint256[]",
          "name": "",
          "type": "uint256[]"
        }
      ],
      "stateMutability": "view",
      "type": "function"
    },
    {
      "inputs": [
        {
          "internalType": "address",
          "name": "newOwner",
          "type": "address"
        }
      ],
      "name": "transferOwnership",
      "outputs": [],
      "stateMutability": "nonpayable",
      "type": "function"
    },
    {
      "inputs": [],
      "name": "unpause",
      "outputs": [],
      "stateMutability": "nonpayable",
      "type": "function"
    },
    {
      "inputs": [
        {
          "internalType": "uint256",
          "name": "",
          "type": "uint256"
        }
      ],
      "name": "uri",
      "outputs": [
        {
          "internalType": "string",
          "name": "",
          "type": "string"
        }
      ],
      "stateMutability": "view",
      "type": "function"
    }
  ],
  "bytecode": "0x60806040523480156200001157600080fd5b50604051620035933803806200359383398101604081905262000034916200014b565b6040518060600160405280603481526020016200355f603491396200005981620000e7565b506200006533620000f9565b6003805460ff60a01b1916905560016005556001600160a01b038116620000c15760405162461bcd60e51b815260206004820152600c60248201526b7a65726f206164647265737360a01b604482015260640160405180910390fd5b600680546001600160a01b0319166001600160a01b0392909216919091179055620002ee565b6002620000f5828262000222565b5050565b600380546001600160a01b038381166001600160a01b0319831681179093556040519116919082907f8be0079c531659141344cd1fd0a4f28419497f9722a3daafe3b4186f6b6457e090600090a35050565b6000602082840312156200015e57600080fd5b81516001600160a01b03811681146200017657600080fd5b9392505050565b634e487b7160e01b600052604160045260246000fd5b600181811c90821680620001a857607f821691505b602082108103620001c957634e487b7160e01b600052602260045260246000fd5b50919050565b601f8211156200021d57600081815260208120601f850160051c81016020861015620001f85750805b601f850160051c820191505b81811015620002195782815560010162000204565b5050505b505050565b81516001600160401b038111156200023e576200023e6200017d565b62000256816200024f845462000193565b84620001cf565b602080601f8311600181146200028e5760008415620002755750858301515b600019600386901b1c1916600185901b17855562000219565b600085815260208120601f198616915b82811015620002bf578886015182559484019460019091019084016200029e565b5085821015620002de5787850151600019600388901b60f8161c191681555b5050505050600190811b01905550565b61326180620002fe6000396000f3fe608060405234801561001057600080fd5b50600436106101e45760003560e01c80636b78018b1161010f5780638da5cb5b116100a2578063e985e9c511610071578063e985e9c514610446578063f242432a14610482578063f2fde38b14610495578063f5298aca146104a857600080fd5b80638da5cb5b146103ef578063a22cb46514610400578063b8cbbd9014610413578063bd85b0391461042657600080fd5b80637c6f5127116100de5780637c6f5127146103ae5780637e25349b146103c15780638456cb59146103d45780638947473f146103dc57600080fd5b80636b78018b14610355578063704f27d414610380578063715018a61461039357806377954ac21461039b57600080fd5b80634cfe601a116101875780635ed8bcbf116101565780635ed8bcbf14610309578063634837e71461031c57806363571e651461032f5780636b20c4541461034257600080fd5b80634cfe601a146102a25780634e1273f4146102b55780634f558e79146102d55780635c975abb146102f757600080fd5b80630e89341c116101c35780630e89341c146102475780632eb2c2d6146102675780633f4ba83a1461027a57806343e4c8cc1461028257600080fd5b8062fdd58e146101e957806301ffc9a71461020f57806302fe530514610232575b600080fd5b6101fc6101f73660046123a9565b6104bb565b6040519081526020015b60405180910390f35b61022261021d3660046123eb565b610554565b6040519015158152602001610206565b6102456102403660046124d3565b6105a4565b005b61025a610255366004612523565b6105b8565b6040516102069190612582565b610245610275366004612649565b61064c565b610245610698565b610295610290366004612523565b6106aa565b60405161020691906126f6565b6102456102b0366004612743565b610980565b6102c86102c33660046127cf565b610a3d565b604051610206919061286d565b6102226102e3366004612523565b600090815260046020526040902054151590565b600354600160a01b900460ff16610222565b610245610317366004612880565b610b66565b6102c861032a366004612743565b610cf9565b61024561033d366004612743565b610d64565b6102456103503660046128ec565b610e21565b600654610368906001600160a01b031681565b6040516001600160a01b039091168152602001610206565b61024561038e366004612934565b610e69565b610245610f03565b6102c86103a936600461297c565b610f15565b6102456103bc3660046129b0565b610fcf565b6101fc6103cf3660046123a9565b61104a565b61024561107b565b600754610368906001600160a01b031681565b6003546001600160a01b0316610368565b61024561040e3660046129e0565b61108b565b6103686104213660046129b0565b611096565b6101fc610434366004612523565b60009081526004602052604090205490565b610222610454366004612a19565b6001600160a01b03918216600090815260016020908152604080832093909416825291909152205460ff1690565b610245610490366004612a47565b6110ce565b6102456104a3366004612743565b611113565b6102456104b6366004612aaf565b611189565b60006001600160a01b03831661052b5760405162461bcd60e51b815260206004820152602a60248201527f455243313135353a2061646472657373207a65726f206973206e6f742061207660448201526930b634b21037bbb732b960b11b60648201526084015b60405180910390fd5b506000818152602081815260408083206001600160a01b03861684529091529020545b92915050565b60006001600160e01b03198216636cdb3d1360e11b148061058557506001600160e01b031982166303a24d0760e21b145b8061054e57506301ffc9a760e01b6001600160e01b031983161461054e565b6105ac6111cc565b6105b581611226565b50565b6060600280546105c790612ae4565b80601f01602080910402602001604051908101604052809291908181526020018280546105f390612ae4565b80156106405780601f1061061557610100808354040283529160200191610640565b820191906000526020600020905b81548152906001019060200180831161062357829003601f168201915b50505050509050919050565b6001600160a01b03851633148061066857506106688533610454565b6106845760405162461bcd60e51b815260040161052290612b1e565b6106918585858585611232565b5050505050565b6106a06111cc565b6106a86113ea565b565b600081815260086020526040812054606091906001600160401b038111156106d4576106d461240f565b6040519080825280602002602001820160405280156106fd578160200160208202803683370190505b5090506000805b60008581526008602052604090205481101561087e576000858152600860205260408120805461075a91908490811061073f5761073f612b6c565b6000918252602090912001546001600160a01b0316876104bb565b111561086c576000805b84518110156107f357600087815260086020526040902080548490811061078d5761078d612b6c565b60009182526020909120015485516001600160a01b03909116908690839081106107b9576107b9612b6c565b60200260200101516001600160a01b0316036107e15760019150836107dd81612b98565b9450505b806107eb81612b98565b915050610764565b508061086a57600086815260086020526040902080548390811061081957610819612b6c565b9060005260206000200160009054906101000a90046001600160a01b031684838151811061084957610849612b6c565b60200260200101906001600160a01b031690816001600160a01b0316815250505b505b8061087681612b98565b915050610704565b50600081835161088e9190612bb1565b6001600160401b038111156108a5576108a561240f565b6040519080825280602002602001820160405280156108ce578160200160208202803683370190505b5090506000805b84518110156109755760006001600160a01b03168582815181106108fb576108fb612b6c565b60200260200101516001600160a01b0316146109635784818151811061092357610923612b6c565b602002602001015183838151811061093d5761093d612b6c565b6001600160a01b03909216602092830291909101909101528161095f81612b98565b9250505b8061096d81612b98565b9150506108d5565b509095945050505050565b6109886111cc565b6001600160a01b0381166109cd5760405162461bcd60e51b815260206004820152600c60248201526b7a65726f206164647265737360a01b6044820152606401610522565b600754604080516001600160a01b03928316815291831660208301527f5d9e527e2ab85eed8c12dbfdfa49903b509f3b367dec19463530d787dcfd2854910160405180910390a1600780546001600160a01b0319166001600160a01b0383169081179091556105b590600161108b565b60608151835114610aa25760405162461bcd60e51b815260206004820152602960248201527f455243313135353a206163636f756e747320616e6420696473206c656e677468604482015268040dad2e6dac2e8c6d60bb1b6064820152608401610522565b600083516001600160401b03811115610abd57610abd61240f565b604051908082528060200260200182016040528015610ae6578160200160208202803683370190505b50905060005b8451811015610b5e57610b31858281518110610b0a57610b0a612b6c565b6020026020010151858381518110610b2457610b24612b6c565b60200260200101516104bb565b828281518110610b4357610b43612b6c565b6020908102919091010152610b5781612b98565b9050610aec565b509392505050565b6006546040516331a9108f60e11b81526004810185905233916001600160a01b031690636352211e90602401602060405180830381865afa158015610baf573d6000803e3d6000fd5b505050506040513d601f19601f82011682018060405250810190610bd39190612bc4565b6001600160a01b031614610c1f5760405162461bcd60e51b815260206004820152601360248201527221b0b63632b91034b9903737ba1037bbb732b960691b6044820152606401610522565b60005b8251811015610cf3576000828281518110610c3f57610c3f612b6c565b602002602001015111610c945760405162461bcd60e51b815260206004820152601c60248201527f4d75737420637265617465206174206c656173742031205368617265000000006044820152606401610522565b610ce1838281518110610ca957610ca9612b6c565b602002602001015185848481518110610cc457610cc4612b6c565b60200260200101516040518060200160405280600081525061143f565b80610ceb81612b98565b915050610c22565b50505050565b6001600160a01b03811660009081526009602090815260409182902080548351818402810184019094528084526060939283018282801561064057602002820191906000526020600020905b815481526020019060010190808311610d455750505050509050919050565b610d6c6111cc565b6001600160a01b038116610db15760405162461bcd60e51b815260206004820152600c60248201526b7a65726f206164647265737360a01b6044820152606401610522565b600654604080516001600160a01b03928316815291831660208301527f3c382290b39c0f8e7c9445f3393899e71f6f8b9a411021501c650ff68fa83b99910160405180910390a1600680546001600160a01b0319166001600160a01b0383169081179091556105b590600161108b565b6001600160a01b038316331480610e3d5750610e3d8333610454565b610e595760405162461bcd60e51b815260040161052290612b1e565b610e64838383611571565b505050565b6006546001600160a01b03163314610ed35760405162461bcd60e51b815260206004820152602760248201527f43616c6c6572206973206e6f7420426c6f636b457374617465417373657420636044820152661bdb9d1c9858dd60ca1b6064820152608401610522565b610e648383610ee384600a612cc5565b610eee906064612cd4565b6040518060200160405280600081525061143f565b610f0b6111cc565b6106a86000611717565b6060600082516001600160401b03811115610f3257610f3261240f565b604051908082528060200260200182016040528015610f5b578160200160208202803683370190505b50905060005b8351811015610fc857610f99848281518110610f7f57610f7f612b6c565b602002602001015160009081526004602052604090205490565b828281518110610fab57610fab612b6c565b602090810291909101015280610fc081612b98565b915050610f61565b5092915050565b6006546001600160a01b0316331461103b5760405162461bcd60e51b815260206004820152602960248201527f43616c6c6572206d75737420626520426c6f636b4573746174654173736574736044820152680818dbdb9d1c9858dd60ba1b6064820152608401610522565b611046338383611189565b5050565b6009602052816000526040600020818154811061106657600080fd5b90600052602060002001600091509150505481565b6110836111cc565b6106a8611769565b6110463383836117ac565b600860205281600052604060002081815481106110b257600080fd5b6000918252602090912001546001600160a01b03169150829050565b6001600160a01b0385163314806110ea57506110ea8533610454565b6111065760405162461bcd60e51b815260040161052290612b1e565b610691858585858561188c565b61111b6111cc565b6001600160a01b0381166111805760405162461bcd60e51b815260206004820152602660248201527f4f776e61626c653a206e6577206f776e657220697320746865207a65726f206160448201526564647265737360d01b6064820152608401610522565b6105b581611717565b6001600160a01b0383163314806111a557506111a58333610454565b6111c15760405162461bcd60e51b815260040161052290612b1e565b610e648383836119d2565b6003546001600160a01b031633146106a85760405162461bcd60e51b815260206004820181905260248201527f4f776e61626c653a2063616c6c6572206973206e6f7420746865206f776e65726044820152606401610522565b60026110468282612d31565b81518351146112535760405162461bcd60e51b815260040161052290612df0565b6001600160a01b0384166112795760405162461bcd60e51b815260040161052290612e38565b33611288818787878787611af4565b60005b845181101561136e5760008582815181106112a8576112a8612b6c565b6020026020010151905060008583815181106112c6576112c6612b6c565b602090810291909101810151600084815280835260408082206001600160a01b038e1683529093529190912054909150818110156113165760405162461bcd60e51b815260040161052290612e7d565b6000838152602081815260408083206001600160a01b038e8116855292528083208585039055908b16825281208054849290611353908490612ec7565b925050819055505050508061136790612b98565b905061128b565b50846001600160a01b0316866001600160a01b0316826001600160a01b03167f4a39dc06d4c0dbc64b70af90fd698a233a518aa5d07e595d983b8c0526c8f7fb87876040516113be929190612eda565b60405180910390a46113d4818787878787611e28565b6113e2818787878787611ec4565b505050505050565b6113f261201f565b6003805460ff60a01b191690557f5db9ee0a495bf2e6ff9c91a7834c1ba4fdd244a5e8aa4e537bd38aeae4b073aa335b6040516001600160a01b03909116815260200160405180910390a1565b6001600160a01b03841661149f5760405162461bcd60e51b815260206004820152602160248201527f455243313135353a206d696e7420746f20746865207a65726f206164647265736044820152607360f81b6064820152608401610522565b3360006114ab8561206f565b905060006114b88561206f565b90506114c983600089858589611af4565b6000868152602081815260408083206001600160a01b038b168452909152812080548792906114f9908490612ec7565b909155505060408051878152602081018790526001600160a01b03808a1692600092918716917fc3d58168c5ae7397731d063d5bbf3d657854427343f4c083240f7aacaa2d0f62910160405180910390a461155983600089858589611e28565b611568836000898989896120ba565b50505050505050565b6001600160a01b0383166115975760405162461bcd60e51b815260040161052290612f08565b80518251146115b85760405162461bcd60e51b815260040161052290612df0565b60003390506115db81856000868660405180602001604052806000815250611af4565b60005b83518110156116a05760008482815181106115fb576115fb612b6c565b60200260200101519050600084838151811061161957611619612b6c565b602090810291909101810151600084815280835260408082206001600160a01b038c1683529093529190912054909150818110156116695760405162461bcd60e51b815260040161052290612f4b565b6000928352602083815260408085206001600160a01b038b168652909152909220910390558061169881612b98565b9150506115de565b5060006001600160a01b0316846001600160a01b0316826001600160a01b03167f4a39dc06d4c0dbc64b70af90fd698a233a518aa5d07e595d983b8c0526c8f7fb86866040516116f1929190612eda565b60405180910390a4610cf381856000868660405180602001604052806000815250611e28565b600380546001600160a01b038381166001600160a01b0319831681179093556040519116919082907f8be0079c531659141344cd1fd0a4f28419497f9722a3daafe3b4186f6b6457e090600090a35050565b611771612175565b6003805460ff60a01b1916600160a01b1790557f62e78cea01bee320cd4e420270b5ea74000d11b0c9f74754ebdbfc544b05a2586114223390565b816001600160a01b0316836001600160a01b03160361181f5760405162461bcd60e51b815260206004820152602960248201527f455243313135353a2073657474696e6720617070726f76616c20737461747573604482015268103337b91039b2b63360b91b6064820152608401610522565b6001600160a01b03838116600081815260016020908152604080832094871680845294825291829020805460ff191686151590811790915591519182527f17307eab39ab6107e8899845ad3d59bd9653f200f220920489ca2b5937696c31910160405180910390a3505050565b6001600160a01b0384166118b25760405162461bcd60e51b815260040161052290612e38565b3360006118be8561206f565b905060006118cb8561206f565b90506118db838989858589611af4565b6000868152602081815260408083206001600160a01b038c1684529091529020548581101561191c5760405162461bcd60e51b815260040161052290612e7d565b6000878152602081815260408083206001600160a01b038d8116855292528083208985039055908a16825281208054889290611959908490612ec7565b909155505060408051888152602081018890526001600160a01b03808b16928c821692918816917fc3d58168c5ae7397731d063d5bbf3d657854427343f4c083240f7aacaa2d0f62910160405180910390a46119b9848a8a86868a611e28565b6119c7848a8a8a8a8a6120ba565b505050505050505050565b6001600160a01b0383166119f85760405162461bcd60e51b815260040161052290612f08565b336000611a048461206f565b90506000611a118461206f565b9050611a3183876000858560405180602001604052806000815250611af4565b6000858152602081815260408083206001600160a01b038a16845290915290205484811015611a725760405162461bcd60e51b815260040161052290612f4b565b6000868152602081815260408083206001600160a01b038b81168086529184528285208a8703905582518b81529384018a90529092908816917fc3d58168c5ae7397731d063d5bbf3d657854427343f4c083240f7aacaa2d0f62910160405180910390a461156884886000868660405180602001604052806000815250611e28565b611afc612175565b611b0a8686868686866121c2565b60005b8351811015611568576001600160a01b03851615611b75576001600160a01b03851660009081526009602052604090208451859083908110611b5157611b51612b6c565b60209081029190910181015182546001810184556000938452919092200155611bf0565b6003546001600160a01b0316331480611b9857506006546001600160a01b031633145b611bf05760405162461bcd60e51b815260206004820152602360248201527f4f6e6c7920636f6e7472616374206f776e65722063616e206275726e2053686160448201526272657360e81b6064820152608401610522565b6001600160a01b03861615611e1657600754604051633655b04160e21b81526001600160a01b038881166004830152600092169063d956c10490602401600060405180830381865afa158015611c4a573d6000803e3d6000fd5b505050506040513d6000823e601f3d908101601f19168201604052611c729190810190612f8f565b90506000611c8c88878581518110610b2457610b24612b6c565b9050848381518110611ca057611ca0612b6c565b6020026020010151811015611cee5760405162461bcd60e51b8152602060048201526014602482015273696e73756666696369656e742062616c616e636560601b6044820152606401610522565b6000805b8351811015611d9d57878581518110611d0d57611d0d612b6c565b6020026020010151848281518110611d2757611d27612b6c565b602002602001015160200151148015611d5a5750838181518110611d4d57611d4d612b6c565b602002602001015160a001515b15611d8b57838181518110611d7157611d71612b6c565b60200260200101516060015182611d889190612ec7565b91505b80611d9581612b98565b915050611cf2565b50858481518110611db057611db0612b6c565b60200260200101518183611dc49190612bb1565b1015611e125760405162461bcd60e51b815260206004820152601f60248201527f616d6f756e74206578636565647320756e6c6f636b65642062616c616e6365006044820152606401610522565b5050505b80611e2081612b98565b915050611b0d565b611e3061233b565b60005b8351811015611eb9576001600160a01b03851615611ea75760086000858381518110611e6157611e61612b6c565b602090810291909101810151825281810192909252604001600090812080546001810182559082529190200180546001600160a01b0319166001600160a01b0387161790555b80611eb181612b98565b915050611e33565b506113e26001600555565b6001600160a01b0384163b156113e25760405163bc197c8160e01b81526001600160a01b0385169063bc197c8190611f089089908990889088908890600401613089565b6020604051808303816000875af1925050508015611f43575060408051601f3d908101601f19168201909252611f40918101906130e7565b60015b611fef57611f4f613104565b806308c379a003611f885750611f63613120565b80611f6e5750611f8a565b8060405162461bcd60e51b81526004016105229190612582565b505b60405162461bcd60e51b815260206004820152603460248201527f455243313135353a207472616e7366657220746f206e6f6e2d455243313135356044820152732932b1b2b4bb32b91034b6b83632b6b2b73a32b960611b6064820152608401610522565b6001600160e01b0319811663bc197c8160e01b146115685760405162461bcd60e51b81526004016105229061319e565b600354600160a01b900460ff166106a85760405162461bcd60e51b815260206004820152601460248201527314185d5cd8589b194e881b9bdd081c185d5cd95960621b6044820152606401610522565b604080516001808252818301909252606091600091906020808301908036833701905050905082816000815181106120a9576120a9612b6c565b602090810291909101015292915050565b6001600160a01b0384163b156113e25760405163f23a6e6160e01b81526001600160a01b0385169063f23a6e61906120fe90899089908890889088906004016131e6565b6020604051808303816000875af1925050508015612139575060408051601f3d908101601f19168201909252612136918101906130e7565b60015b61214557611f4f613104565b6001600160e01b0319811663f23a6e6160e01b146115685760405162461bcd60e51b81526004016105229061319e565b600354600160a01b900460ff16156106a85760405162461bcd60e51b815260206004820152601060248201526f14185d5cd8589b194e881c185d5cd95960821b6044820152606401610522565b6001600160a01b0385166122495760005b8351811015612247578281815181106121ee576121ee612b6c565b60200260200101516004600086848151811061220c5761220c612b6c565b6020026020010151815260200190815260200160002060008282546122319190612ec7565b90915550612240905081612b98565b90506121d3565b505b6001600160a01b0384166113e25760005b835181101561156857600084828151811061227757612277612b6c565b60200260200101519050600084838151811061229557612295612b6c565b60200260200101519050600060046000848152602001908152602001600020549050818110156123185760405162461bcd60e51b815260206004820152602860248201527f455243313135353a206275726e20616d6f756e74206578636565647320746f74604482015267616c537570706c7960c01b6064820152608401610522565b6000928352600460205260409092209103905561233481612b98565b905061225a565b60026005540361238d5760405162461bcd60e51b815260206004820152601f60248201527f5265656e7472616e637947756172643a207265656e7472616e742063616c6c006044820152606401610522565b6002600555565b6001600160a01b03811681146105b557600080fd5b600080604083850312156123bc57600080fd5b82356123c781612394565b946020939093013593505050565b6001600160e01b0319811681146105b557600080fd5b6000602082840312156123fd57600080fd5b8135612408816123d5565b9392505050565b634e487b7160e01b600052604160045260246000fd5b60c081018181106001600160401b03821117156124445761244461240f565b60405250565b601f8201601f191681016001600160401b038111828210171561246f5761246f61240f565b6040525050565b60006001600160401b0383111561248f5761248f61240f565b6040516124a6601f8501601f19166020018261244a565b8091508381528484840111156124bb57600080fd5b83836020830137600060208583010152509392505050565b6000602082840312156124e557600080fd5b81356001600160401b038111156124fb57600080fd5b8201601f8101841361250c57600080fd5b61251b84823560208401612476565b949350505050565b60006020828403121561253557600080fd5b5035919050565b6000815180845260005b8181101561256257602081850181015186830182015201612546565b506000602082860101526020601f19601f83011685010191505092915050565b602081526000612408602083018461253c565b60006001600160401b038211156125ae576125ae61240f565b5060051b60200190565b600082601f8301126125c957600080fd5b813560206125d682612595565b6040516125e3828261244a565b83815260059390931b850182019282810191508684111561260357600080fd5b8286015b8481101561261e5780358352918301918301612607565b509695505050505050565b600082601f83011261263a57600080fd5b61240883833560208501612476565b600080600080600060a0868803121561266157600080fd5b853561266c81612394565b9450602086013561267c81612394565b935060408601356001600160401b038082111561269857600080fd5b6126a489838a016125b8565b945060608801359150808211156126ba57600080fd5b6126c689838a016125b8565b935060808801359150808211156126dc57600080fd5b506126e988828901612629565b9150509295509295909350565b6020808252825182820181905260009190848201906040850190845b818110156127375783516001600160a01b031683529284019291840191600101612712565b50909695505050505050565b60006020828403121561275557600080fd5b813561240881612394565b600082601f83011261277157600080fd5b8135602061277e82612595565b60405161278b828261244a565b83815260059390931b85018201928281019150868411156127ab57600080fd5b8286015b8481101561261e5780356127c281612394565b83529183019183016127af565b600080604083850312156127e257600080fd5b82356001600160401b03808211156127f957600080fd5b61280586838701612760565b9350602085013591508082111561281b57600080fd5b50612828858286016125b8565b9150509250929050565b600081518084526020808501945080840160005b8381101561286257815187529582019590820190600101612846565b509495945050505050565b6020815260006124086020830184612832565b60008060006060848603121561289557600080fd5b8335925060208401356001600160401b03808211156128b357600080fd5b6128bf87838801612760565b935060408601359150808211156128d557600080fd5b506128e2868287016125b8565b9150509250925092565b60008060006060848603121561290157600080fd5b833561290c81612394565b925060208401356001600160401b038082111561292857600080fd5b6128bf878388016125b8565b60008060006060848603121561294957600080fd5b833561295481612394565b925060208401359150604084013560ff8116811461297157600080fd5b809150509250925092565b60006020828403121561298e57600080fd5b81356001600160401b038111156129a457600080fd5b61251b848285016125b8565b600080604083850312156129c357600080fd5b50508035926020909101359150565b80151581146105b557600080fd5b600080604083850312156129f357600080fd5b82356129fe81612394565b91506020830135612a0e816129d2565b809150509250929050565b60008060408385031215612a2c57600080fd5b8235612a3781612394565b91506020830135612a0e81612394565b600080600080600060a08688031215612a5f57600080fd5b8535612a6a81612394565b94506020860135612a7a81612394565b9350604086013592506060860135915060808601356001600160401b03811115612aa357600080fd5b6126e988828901612629565b600080600060608486031215612ac457600080fd5b8335612acf81612394565b95602085013595506040909401359392505050565b600181811c90821680612af857607f821691505b602082108103612b1857634e487b7160e01b600052602260045260246000fd5b50919050565b6020808252602e908201527f455243313135353a2063616c6c6572206973206e6f7420746f6b656e206f776e60408201526d195c881bdc88185c1c1c9bdd995960921b606082015260800190565b634e487b7160e01b600052603260045260246000fd5b634e487b7160e01b600052601160045260246000fd5b600060018201612baa57612baa612b82565b5060010190565b8181038181111561054e5761054e612b82565b600060208284031215612bd657600080fd5b815161240881612394565b600181815b80851115612c1c578160001904821115612c0257612c02612b82565b80851615612c0f57918102915b93841c9390800290612be6565b509250929050565b600082612c335750600161054e565b81612c405750600061054e565b8160018114612c565760028114612c6057612c7c565b600191505061054e565b60ff841115612c7157612c71612b82565b50506001821b61054e565b5060208310610133831016604e8410600b8410161715612c9f575081810a61054e565b612ca98383612be1565b8060001904821115612cbd57612cbd612b82565b029392505050565b600061240860ff841683612c24565b808202811582820484141761054e5761054e612b82565b601f821115610e6457600081815260208120601f850160051c81016020861015612d125750805b601f850160051c820191505b818110156113e257828155600101612d1e565b81516001600160401b03811115612d4a57612d4a61240f565b612d5e81612d588454612ae4565b84612ceb565b602080601f831160018114612d935760008415612d7b5750858301515b600019600386901b1c1916600185901b1785556113e2565b600085815260208120601f198616915b82811015612dc257888601518255948401946001909101908401612da3565b5085821015612de05787850151600019600388901b60f8161c191681555b5050505050600190811b01905550565b60208082526028908201527f455243313135353a2069647320616e6420616d6f756e7473206c656e677468206040820152670dad2e6dac2e8c6d60c31b606082015260800190565b60208082526025908201527f455243313135353a207472616e7366657220746f20746865207a65726f206164604082015264647265737360d81b606082015260800190565b6020808252602a908201527f455243313135353a20696e73756666696369656e742062616c616e636520666f60408201526939103a3930b739b332b960b11b606082015260800190565b8082018082111561054e5761054e612b82565b604081526000612eed6040830185612832565b8281036020840152612eff8185612832565b95945050505050565b60208082526023908201527f455243313135353a206275726e2066726f6d20746865207a65726f206164647260408201526265737360e81b606082015260800190565b60208082526024908201527f455243313135353a206275726e20616d6f756e7420657863656564732062616c604082015263616e636560e01b606082015260800190565b60006020808385031215612fa257600080fd5b82516001600160401b03811115612fb857600080fd5b8301601f81018513612fc957600080fd5b8051612fd481612595565b60408051612fe2838261244a565b83815260c0938402850186019386820193508985111561300157600080fd5b948601945b8486101561307c5780868b03121561301e5760008081fd5b825161302981612425565b86518152878701518882015283870151848201526060808801519082015260808088015161305681612394565b9082015260a087810151613069816129d2565b9082015284529485019492860192613006565b5098975050505050505050565b6001600160a01b0386811682528516602082015260a0604082018190526000906130b590830186612832565b82810360608401526130c78186612832565b905082810360808401526130db818561253c565b98975050505050505050565b6000602082840312156130f957600080fd5b8151612408816123d5565b600060033d111561311d5760046000803e5060005160e01c5b90565b600060443d101561312e5790565b6040516003193d81016004833e81513d6001600160401b03816024840111818411171561315d57505050505090565b82850191508151818111156131755750505050505090565b843d870101602082850101111561318f5750505050505090565b6109756020828601018761244a565b60208082526028908201527f455243313135353a204552433131353552656365697665722072656a656374656040820152676420746f6b656e7360c01b606082015260800190565b6001600160a01b03868116825285166020820152604081018490526060810183905260a0608082018190526000906132209083018461253c565b97965050505050505056fea264697066735822122037ca9cd82a9b7a114242b17f82f3fce9277b3ef4e9fa426c8561ea264189f80964736f6c6343000812003368747470733a2f2f626c6f636b6573746174652e616c65786f6368732e64652f6170692f6d657461646174612f7368617265732f",
  "linkReferences": {},
  "deployedLinkReferences": {}
}