{
  "_format": "hh-sol-artifact-1",
  "contractName": "BlockEstateMarket",
  "sourceName": "contracts/BlockEstate/BlockEstateMarket.sol",
  "abi": [
    {
      "inputs": [
        {
          "internalType": "address",
          "name": "_blockEstateAssetsAddress",
          "type": "address"
        },
        {
          "internalType": "address",
          "name": "_blockEstateSharesAddress",
          "type": "address"
        },
        {
          "internalType": "address",
          "name": "_usdAddress",
          "type": "address"
        }
      ],
      "stateMutability": "nonpayable",
      "type": "constructor"
    },
    {
      "anonymous": false,
      "inputs": [
        {
          "indexed": false,
          "internalType": "address",
          "name": "old",
          "type": "address"
        },
        {
          "indexed": false,
          "internalType": "address",
          "name": "updated",
          "type": "address"
        }
      ],
      "name": "BlockEstateAssetsAddressUpdated",
      "type": "event"
    },
    {
      "anonymous": false,
      "inputs": [
        {
          "indexed": false,
          "internalType": "address",
          "name": "old",
          "type": "address"
        },
        {
          "indexed": false,
          "internalType": "address",
          "name": "updated",
          "type": "address"
        }
      ],
      "name": "BlockEstateSharesAddressUpdated",
      "type": "event"
    },
    {
      "anonymous": false,
      "inputs": [
        {
          "indexed": true,
          "internalType": "address",
          "name": "previousOwner",
          "type": "address"
        },
        {
          "indexed": true,
          "internalType": "address",
          "name": "newOwner",
          "type": "address"
        }
      ],
      "name": "OwnershipTransferred",
      "type": "event"
    },
    {
      "anonymous": false,
      "inputs": [
        {
          "indexed": false,
          "internalType": "address",
          "name": "account",
          "type": "address"
        }
      ],
      "name": "Paused",
      "type": "event"
    },
    {
      "anonymous": false,
      "inputs": [
        {
          "indexed": false,
          "internalType": "uint256",
          "name": "listingId",
          "type": "uint256"
        },
        {
          "indexed": false,
          "internalType": "uint256",
          "name": "tokenId",
          "type": "uint256"
        },
        {
          "indexed": false,
          "internalType": "uint256",
          "name": "price",
          "type": "uint256"
        },
        {
          "indexed": false,
          "internalType": "uint256",
          "name": "amount",
          "type": "uint256"
        },
        {
          "indexed": false,
          "internalType": "address",
          "name": "seller",
          "type": "address"
        }
      ],
      "name": "SharesListingCreated",
      "type": "event"
    },
    {
      "anonymous": false,
      "inputs": [
        {
          "indexed": false,
          "internalType": "uint256",
          "name": "listingId",
          "type": "uint256"
        },
        {
          "indexed": false,
          "internalType": "uint256",
          "name": "tokenId",
          "type": "uint256"
        },
        {
          "indexed": false,
          "internalType": "uint256",
          "name": "price",
          "type": "uint256"
        },
        {
          "indexed": false,
          "internalType": "uint256",
          "name": "amount",
          "type": "uint256"
        },
        {
          "indexed": false,
          "internalType": "address",
          "name": "seller",
          "type": "address"
        }
      ],
      "name": "SharesListingDeleted",
      "type": "event"
    },
    {
      "anonymous": false,
      "inputs": [
        {
          "indexed": false,
          "internalType": "uint256",
          "name": "listingId",
          "type": "uint256"
        },
        {
          "indexed": false,
          "internalType": "uint256",
          "name": "tokenId",
          "type": "uint256"
        },
        {
          "indexed": false,
          "internalType": "uint256",
          "name": "price",
          "type": "uint256"
        },
        {
          "indexed": false,
          "internalType": "uint256",
          "name": "amount",
          "type": "uint256"
        },
        {
          "indexed": false,
          "internalType": "address",
          "name": "seller",
          "type": "address"
        },
        {
          "indexed": false,
          "internalType": "address",
          "name": "buyer",
          "type": "address"
        }
      ],
      "name": "SharesListingPurchased",
      "type": "event"
    },
    {
      "anonymous": false,
      "inputs": [
        {
          "indexed": false,
          "internalType": "address",
          "name": "account",
          "type": "address"
        }
      ],
      "name": "Unpaused",
      "type": "event"
    },
    {
      "inputs": [
        {
          "internalType": "uint256",
          "name": "groupInvestmentId",
          "type": "uint256"
        }
      ],
      "name": "acceptGroupInvestment",
      "outputs": [],
      "stateMutability": "nonpayable",
      "type": "function"
    },
    {
      "inputs": [],
      "name": "blockEstateAssetsAddress",
      "outputs": [
        {
          "internalType": "address",
          "name": "",
          "type": "address"
        }
      ],
      "stateMutability": "view",
      "type": "function"
    },
    {
      "inputs": [],
      "name": "blockEstateSharesAddress",
      "outputs": [
        {
          "internalType": "address",
          "name": "",
          "type": "address"
        }
      ],
      "stateMutability": "view",
      "type": "function"
    },
    {
      "inputs": [
        {
          "internalType": "uint256",
          "name": "listingId",
          "type": "uint256"
        },
        {
          "internalType": "address[]",
          "name": "investors",
          "type": "address[]"
        },
        {
          "internalType": "uint256[]",
          "name": "sharesAmounts",
          "type": "uint256[]"
        }
      ],
      "name": "createSharesGroupInvestment",
      "outputs": [],
      "stateMutability": "nonpayable",
      "type": "function"
    },
    {
      "inputs": [
        {
          "internalType": "uint256",
          "name": "tokenId",
          "type": "uint256"
        },
        {
          "internalType": "uint256",
          "name": "price",
          "type": "uint256"
        },
        {
          "internalType": "uint256",
          "name": "amount",
          "type": "uint256"
        }
      ],
      "name": "createSharesListing",
      "outputs": [],
      "stateMutability": "nonpayable",
      "type": "function"
    },
    {
      "inputs": [
        {
          "internalType": "uint256",
          "name": "listingId",
          "type": "uint256"
        }
      ],
      "name": "deleteSharesListing",
      "outputs": [],
      "stateMutability": "nonpayable",
      "type": "function"
    },
    {
      "inputs": [
        {
          "internalType": "uint256",
          "name": "",
          "type": "uint256"
        }
      ],
      "name": "groupInvestments",
      "outputs": [
        {
          "internalType": "uint256",
          "name": "investmentId",
          "type": "uint256"
        },
        {
          "internalType": "uint256",
          "name": "listingId",
          "type": "uint256"
        },
        {
          "internalType": "bool",
          "name": "isActive",
          "type": "bool"
        }
      ],
      "stateMutability": "view",
      "type": "function"
    },
    {
      "inputs": [],
      "name": "owner",
      "outputs": [
        {
          "internalType": "address",
          "name": "",
          "type": "address"
        }
      ],
      "stateMutability": "view",
      "type": "function"
    },
    {
      "inputs": [],
      "name": "pause",
      "outputs": [],
      "stateMutability": "nonpayable",
      "type": "function"
    },
    {
      "inputs": [],
      "name": "paused",
      "outputs": [
        {
          "internalType": "bool",
          "name": "",
          "type": "bool"
        }
      ],
      "stateMutability": "view",
      "type": "function"
    },
    {
      "inputs": [
        {
          "internalType": "uint256",
          "name": "listingId",
          "type": "uint256"
        }
      ],
      "name": "purchaseSharesListing",
      "outputs": [],
      "stateMutability": "nonpayable",
      "type": "function"
    },
    {
      "inputs": [],
      "name": "readAllGroupInvestments",
      "outputs": [
        {
          "components": [
            {
              "internalType": "uint256",
              "name": "investmentId",
              "type": "uint256"
            },
            {
              "internalType": "uint256",
              "name": "listingId",
              "type": "uint256"
            },
            {
              "internalType": "address[]",
              "name": "investors",
              "type": "address[]"
            },
            {
              "internalType": "uint256[]",
              "name": "sharesAmounts",
              "type": "uint256[]"
            },
            {
              "internalType": "address[]",
              "name": "accepted",
              "type": "address[]"
            },
            {
              "internalType": "bool",
              "name": "isActive",
              "type": "bool"
            }
          ],
          "internalType": "struct BlockEstateMarket.GroupInvestment[]",
          "name": "",
          "type": "tuple[]"
        }
      ],
      "stateMutability": "view",
      "type": "function"
    },
    {
      "inputs": [],
      "name": "readAllSharesListings",
      "outputs": [
        {
          "components": [
            {
              "internalType": "uint256",
              "name": "listingId",
              "type": "uint256"
            },
            {
              "internalType": "uint256",
              "name": "tokenId",
              "type": "uint256"
            },
            {
              "internalType": "uint256",
              "name": "price",
              "type": "uint256"
            },
            {
              "internalType": "uint256",
              "name": "amount",
              "type": "uint256"
            },
            {
              "internalType": "address",
              "name": "seller",
              "type": "address"
            },
            {
              "internalType": "bool",
              "name": "isActive",
              "type": "bool"
            }
          ],
          "internalType": "struct BlockEstateMarket.SharesListing[]",
          "name": "",
          "type": "tuple[]"
        }
      ],
      "stateMutability": "view",
      "type": "function"
    },
    {
      "inputs": [
        {
          "internalType": "uint256",
          "name": "investmentId",
          "type": "uint256"
        }
      ],
      "name": "readGroupInvestment",
      "outputs": [
        {
          "components": [
            {
              "internalType": "uint256",
              "name": "investmentId",
              "type": "uint256"
            },
            {
              "internalType": "uint256",
              "name": "listingId",
              "type": "uint256"
            },
            {
              "internalType": "address[]",
              "name": "investors",
              "type": "address[]"
            },
            {
              "internalType": "uint256[]",
              "name": "sharesAmounts",
              "type": "uint256[]"
            },
            {
              "internalType": "address[]",
              "name": "accepted",
              "type": "address[]"
            },
            {
              "internalType": "bool",
              "name": "isActive",
              "type": "bool"
            }
          ],
          "internalType": "struct BlockEstateMarket.GroupInvestment",
          "name": "",
          "type": "tuple"
        }
      ],
      "stateMutability": "view",
      "type": "function"
    },
    {
      "inputs": [],
      "name": "readGroupInvestmentsByAccount",
      "outputs": [
        {
          "components": [
            {
              "internalType": "uint256",
              "name": "investmentId",
              "type": "uint256"
            },
            {
              "internalType": "uint256",
              "name": "listingId",
              "type": "uint256"
            },
            {
              "internalType": "address[]",
              "name": "investors",
              "type": "address[]"
            },
            {
              "internalType": "uint256[]",
              "name": "sharesAmounts",
              "type": "uint256[]"
            },
            {
              "internalType": "address[]",
              "name": "accepted",
              "type": "address[]"
            },
            {
              "internalType": "bool",
              "name": "isActive",
              "type": "bool"
            }
          ],
          "internalType": "struct BlockEstateMarket.GroupInvestment[]",
          "name": "",
          "type": "tuple[]"
        }
      ],
      "stateMutability": "view",
      "type": "function"
    },
    {
      "inputs": [
        {
          "internalType": "address",
          "name": "account",
          "type": "address"
        }
      ],
      "name": "readListingsByAccount",
      "outputs": [
        {
          "components": [
            {
              "internalType": "uint256",
              "name": "listingId",
              "type": "uint256"
            },
            {
              "internalType": "uint256",
              "name": "tokenId",
              "type": "uint256"
            },
            {
              "internalType": "uint256",
              "name": "price",
              "type": "uint256"
            },
            {
              "internalType": "uint256",
              "name": "amount",
              "type": "uint256"
            },
            {
              "internalType": "address",
              "name": "seller",
              "type": "address"
            },
            {
              "internalType": "bool",
              "name": "isActive",
              "type": "bool"
            }
          ],
          "internalType": "struct BlockEstateMarket.SharesListing[]",
          "name": "",
          "type": "tuple[]"
        }
      ],
      "stateMutability": "view",
      "type": "function"
    },
    {
      "inputs": [
        {
          "internalType": "uint256",
          "name": "tokenId",
          "type": "uint256"
        }
      ],
      "name": "readListingsByAsset",
      "outputs": [
        {
          "components": [
            {
              "internalType": "uint256",
              "name": "listingId",
              "type": "uint256"
            },
            {
              "internalType": "uint256",
              "name": "tokenId",
              "type": "uint256"
            },
            {
              "internalType": "uint256",
              "name": "price",
              "type": "uint256"
            },
            {
              "internalType": "uint256",
              "name": "amount",
              "type": "uint256"
            },
            {
              "internalType": "address",
              "name": "seller",
              "type": "address"
            },
            {
              "internalType": "bool",
              "name": "isActive",
              "type": "bool"
            }
          ],
          "internalType": "struct BlockEstateMarket.SharesListing[]",
          "name": "",
          "type": "tuple[]"
        }
      ],
      "stateMutability": "view",
      "type": "function"
    },
    {
      "inputs": [
        {
          "internalType": "uint256",
          "name": "groupInvestmentId",
          "type": "uint256"
        }
      ],
      "name": "refuseGroupInvestment",
      "outputs": [],
      "stateMutability": "nonpayable",
      "type": "function"
    },
    {
      "inputs": [],
      "name": "renounceOwnership",
      "outputs": [],
      "stateMutability": "nonpayable",
      "type": "function"
    },
    {
      "inputs": [
        {
          "internalType": "uint256",
          "name": "groupInvestmentId",
          "type": "uint256"
        }
      ],
      "name": "revokeGroupInvestment",
      "outputs": [],
      "stateMutability": "nonpayable",
      "type": "function"
    },
    {
      "inputs": [
        {
          "internalType": "address",
          "name": "_blockEstateAssetsAddress",
          "type": "address"
        }
      ],
      "name": "setBlockEstateAssetsAddress",
      "outputs": [],
      "stateMutability": "nonpayable",
      "type": "function"
    },
    {
      "inputs": [
        {
          "internalType": "address",
          "name": "_blockEstateSharesAddress",
          "type": "address"
        }
      ],
      "name": "setBlockEstateSharesAddress",
      "outputs": [],
      "stateMutability": "nonpayable",
      "type": "function"
    },
    {
      "inputs": [
        {
          "internalType": "uint256",
          "name": "",
          "type": "uint256"
        }
      ],
      "name": "sharesListings",
      "outputs": [
        {
          "internalType": "uint256",
          "name": "listingId",
          "type": "uint256"
        },
        {
          "internalType": "uint256",
          "name": "tokenId",
          "type": "uint256"
        },
        {
          "internalType": "uint256",
          "name": "price",
          "type": "uint256"
        },
        {
          "internalType": "uint256",
          "name": "amount",
          "type": "uint256"
        },
        {
          "internalType": "address",
          "name": "seller",
          "type": "address"
        },
        {
          "internalType": "bool",
          "name": "isActive",
          "type": "bool"
        }
      ],
      "stateMutability": "view",
      "type": "function"
    },
    {
      "inputs": [
        {
          "internalType": "address",
          "name": "newOwner",
          "type": "address"
        }
      ],
      "name": "transferOwnership",
      "outputs": [],
      "stateMutability": "nonpayable",
      "type": "function"
    },
    {
      "inputs": [],
      "name": "unpause",
      "outputs": [],
      "stateMutability": "nonpayable",
      "type": "function"
    },
    {
      "inputs": [],
      "name": "usd",
      "outputs": [
        {
          "internalType": "contract IERC20",
          "name": "",
          "type": "address"
        }
      ],
      "stateMutability": "view",
      "type": "function"
    },
    {
      "inputs": [
        {
          "internalType": "address",
          "name": "",
          "type": "address"
        },
        {
          "internalType": "uint256",
          "name": "",
          "type": "uint256"
        }
      ],
      "name": "userGroupInvestments",
      "outputs": [
        {
          "internalType": "uint256",
          "name": "",
          "type": "uint256"
        }
      ],
      "stateMutability": "view",
      "type": "function"
    },
    {
      "inputs": [
        {
          "internalType": "address",
          "name": "",
          "type": "address"
        },
        {
          "internalType": "uint256",
          "name": "",
          "type": "uint256"
        }
      ],
      "name": "userListings",
      "outputs": [
        {
          "internalType": "uint256",
          "name": "",
          "type": "uint256"
        }
      ],
      "stateMutability": "view",
      "type": "function"
    }
  ],
  "bytecode": "0x60806040523480156200001157600080fd5b5060405162003cf638038062003cf68339810160408190526200003491620001d9565b6200003f336200016c565b6000805460ff60a01b19169055600180556001600160a01b0383166200009b5760405162461bcd60e51b815260206004820152600c60248201526b7a65726f206164647265737360a01b60448201526064015b60405180910390fd5b6001600160a01b038216620000e25760405162461bcd60e51b815260206004820152600c60248201526b7a65726f206164647265737360a01b604482015260640162000092565b6001600160a01b038116620001295760405162461bcd60e51b815260206004820152600c60248201526b7a65726f206164647265737360a01b604482015260640162000092565b600480546001600160a01b039485166001600160a01b03199182161790915560058054938516938216939093179092556006805491909316911617905562000223565b600080546001600160a01b038381166001600160a01b0319831681178455604051919092169283917f8be0079c531659141344cd1fd0a4f28419497f9722a3daafe3b4186f6b6457e09190a35050565b80516001600160a01b0381168114620001d457600080fd5b919050565b600080600060608486031215620001ef57600080fd5b620001fa84620001bc565b92506200020a60208501620001bc565b91506200021a60408501620001bc565b90509250925092565b613ac380620002336000396000f3fe608060405234801561001057600080fd5b50600436106101c45760003560e01c80638c0ba022116100f9578063d63a6ccd11610097578063eb9e00b911610071578063eb9e00b914610460578063f255ac8a14610473578063f2fde38b1461047b578063f5f333971461048e57600080fd5b8063d63a6ccd14610427578063d956c1041461043a578063e8c7d99a1461044d57600080fd5b80639f653c51116100d35780639f653c511461039d578063a8e8f0cd146103b0578063cf7080eb146103c3578063d05ee8d21461041257600080fd5b80638c0ba022146103665780638da5cb5b146103795780639a5d65241461038a57600080fd5b80635c975abb11610166578063715018a611610140578063715018a6146102ab5780637716e573146102b35780638456cb591461033d57806386cfa7d31461034557600080fd5b80635c975abb1461025057806363571e651461026d5780636b78018b1461028057600080fd5b806341696818116101a2578063416968181461020f5780634e697728146102225780635131e4e71461022a5780635a74874b1461023d57600080fd5b806323be15bb146101c9578063367eeb47146101de5780633f4ba83a14610207575b600080fd5b6101dc6101d7366004613279565b6104ae565b005b6101f16101ec366004613279565b610956565b6040516101fe9190613292565b60405180910390f35b6101dc610a8d565b6101dc61021d366004613279565b610a9f565b6101f1610bcd565b6101dc610238366004613331565b610cf0565b6101dc61024b366004613279565b610da6565b600054600160a01b900460ff1660405190151581526020016101fe565b6101dc61027b366004613331565b610e94565b600454610293906001600160a01b031681565b6040516001600160a01b0390911681526020016101fe565b6101dc610f4a565b6103056102c1366004613279565b60076020526000908152604090208054600182015460028301546003840154600490940154929391929091906001600160a01b03811690600160a01b900460ff1686565b6040805196875260208701959095529385019290925260608401526001600160a01b03166080830152151560a082015260c0016101fe565b6101dc610f5c565b610358610353366004613353565b610f6c565b6040519081526020016101fe565b6101dc610374366004613279565b610f9d565b6000546001600160a01b0316610293565b6101dc610398366004613279565b61113b565b600554610293906001600160a01b031681565b6103586103be366004613353565b61143a565b6103f56103d1366004613279565b60096020526000908152604090208054600182015460059092015490919060ff1683565b6040805193845260208401929092521515908201526060016101fe565b61041a611456565b6040516101fe9190613465565b600654610293906001600160a01b031681565b6101f1610448366004613331565b611660565b6101dc61045b36600461359d565b6117cd565b6101dc61046e366004613668565b611c4f565b61041a612220565b6101dc610489366004613331565b61245f565b6104a161049c366004613279565b6124d5565b6040516101fe9190613694565b60008181526009602052604090206005015460ff1661052d5760405162461bcd60e51b815260206004820152603060248201527f47726f757020696e766573746d656e74206973206e6f7420616374697665206f60448201526f1c88191bd95cc81b9bdd08195e1a5cdd60821b60648201526084015b60405180910390fd5b6000805b6000838152600960205260409020600201548110156105a1576000838152600960205260409020600201805433919083908110610570576105706136a7565b6000918252602090912001546001600160a01b03160361058f57600191505b80610599816136d3565b915050610531565b50806105bf5760405162461bcd60e51b8152600401610524906136ec565b60005b600083815260096020526040902060040154811015610675576000838152600960205260409020600401805433919083908110610601576106016136a7565b6000918252602090912001546001600160a01b0316036106635760405162461bcd60e51b815260206004820152601760248201527f53656e64657220616c72656164792061636365707465640000000000000000006044820152606401610524565b8061066d816136d3565b9150506105c2565b506000828152600960209081526040822060040180546001810182559083529082200180546001600160a01b031916331790555b6000838152600960205260409020600201548110156108a7576006546000848152600960205260408120600201805491926001600160a01b03169163dd62ed3e9190859081106106fb576106fb6136a7565b60009182526020909120015460405160e083901b6001600160e01b03191681526001600160a01b039091166004820152306024820152604401602060405180830381865afa158015610751573d6000803e3d6000fd5b505050506040513d601f19601f820116820180604052508101906107759190613723565b60008581526009602052604090206003018054919250908390811061079c5761079c6136a7565b90600052602060002001548110156108945760005b6000858152600960205260409020600401548110156108925760008581526009602052604090206002018054849081106107ed576107ed6136a7565b60009182526020808320909101548783526009909152604090912060040180546001600160a01b039092169183908110610829576108296136a7565b6000918252602090912001546001600160a01b031603610880576000858152600960205260409020600401805484908110610866576108666136a7565b600091825260209091200180546001600160a01b03191690555b8061088a816136d3565b9150506107b1565b505b508061089f816136d3565b9150506106a9565b506000828152600960205260409020600281015460049091015403610952576108e760405180606001604052806034815260200161393560349139612633565b6000828152600960205260409020600101546109039083612676565b60008281526009602052604081208181556001810182905590610929600283018261312d565b61093760038301600061312d565b61094560048301600061312d565b50600501805460ff191690555b5050565b6060600061096360025490565b67ffffffffffffffff81111561097b5761097b6134c7565b6040519080825280602002602001820160405280156109b457816020015b6109a161314b565b8152602001906001900390816109995790505b5090506000805b600254811015610a8457600081815260076020526040902060010154859003610a7257600081815260076020908152604091829020825160c08101845281548152600182015492810192909252600281015492820192909252600382015460608201526004909101546001600160a01b0381166080830152600160a01b900460ff16151560a08201528351849084908110610a5857610a586136a7565b60200260200101819052508180610a6e906136d3565b9250505b80610a7c816136d3565b9150506109bb565b50909392505050565b610a95612db0565b610a9d612e0a565b565b610aa7612e5f565b6000818152600760205260409020600401546001600160a01b03163314610b105760405162461bcd60e51b815260206004820152601e60248201527f4f6e6c792073656c6c65722063616e2064656c657465206c697374696e6700006044820152606401610524565b6000818152600760209081526040918290206001810154600282015460038301546004909301548551878152948501929092528385015260608301919091526001600160a01b0316608082015290517f9eec8eb2210167a0d90bf048cbbd21154b36b1941fa1413a1294343b0f38c5999181900360a00190a160008181526007602052604081208181556001810182905560028101829055600381019190915560040180546001600160a81b0319169055610bca60018055565b50565b60606000610bda60025490565b67ffffffffffffffff811115610bf257610bf26134c7565b604051908082528060200260200182016040528015610c2b57816020015b610c1861314b565b815260200190600190039081610c105790505b50905060005b600254811015610cea5760008181526007602052604090206001015415610cd857600081815260076020908152604091829020825160c08101845281548152600182015492810192909252600281015492820192909252600382015460608201526004909101546001600160a01b0381166080830152600160a01b900460ff16151560a08201528251839083908110610ccc57610ccc6136a7565b60200260200101819052505b80610ce2816136d3565b915050610c31565b50919050565b610cf8612db0565b6001600160a01b038116610d3d5760405162461bcd60e51b815260206004820152600c60248201526b7a65726f206164647265737360a01b6044820152606401610524565b600554604080516001600160a01b03928316815291831660208301527f1a41fb6f752ad018610bf79716ec70546bbda4a0235520e04158d3c4f3486230910160405180910390a1600580546001600160a01b0319166001600160a01b0392909216919091179055565b60008181526009602052604090205415610e025760405162461bcd60e51b815260206004820152601f60248201527f47726f757020696e766573746d656e7420646f6573206e6f74206578697374006044820152606401610524565b6000805b600083815260096020526040902060020154811015610e76576000838152600960205260409020600201805433919083908110610e4557610e456136a7565b6000918252602090912001546001600160a01b031603610e6457600191505b80610e6e816136d3565b915050610e06565b50806109035760405162461bcd60e51b8152600401610524906136ec565b610e9c612db0565b6001600160a01b038116610ee15760405162461bcd60e51b815260206004820152600c60248201526b7a65726f206164647265737360a01b6044820152606401610524565b600454604080516001600160a01b03928316815291831660208301527f3c382290b39c0f8e7c9445f3393899e71f6f8b9a411021501c650ff68fa83b99910160405180910390a1600480546001600160a01b0319166001600160a01b0392909216919091179055565b610f52612db0565b610a9d6000612eb8565b610f64612db0565b610a9d612f08565b60086020528160005260406000208181548110610f8857600080fd5b90600052602060002001600091509150505481565b60008181526009602052604090205415610ff95760405162461bcd60e51b815260206004820152601f60248201527f47726f757020696e766573746d656e7420646f6573206e6f74206578697374006044820152606401610524565b6000805b60008381526009602052604090206002015481101561106d57600083815260096020526040902060020180543391908390811061103c5761103c6136a7565b6000918252602090912001546001600160a01b03160361105b57600191505b80611065816136d3565b915050610ffd565b508061108b5760405162461bcd60e51b8152600401610524906136ec565b60005b6000838152600960205260409020600401548110156111365760008381526009602052604090206004018054339190839081106110cd576110cd6136a7565b6000918252602090912001546001600160a01b03160361112457600083815260096020526040902060040180548290811061110a5761110a6136a7565b600091825260209091200180546001600160a01b03191690555b8061112e816136d3565b91505061108e565b505050565b611143612e5f565b600081815260076020526040812060010154900361119d5760405162461bcd60e51b81526020600482015260176024820152764c697374696e6720646f6573206e6f742065786973742160481b6044820152606401610524565b600081815260076020526040902060040154336001600160a01b03909116036111d85760405162461bcd60e51b81526004016105249061373c565b600081815260076020526040902060040154600160a01b900460ff1615156001146112455760405162461bcd60e51b815260206004820152601d60248201527f536861726573206c697374696e67206973206e6f7420616374697665210000006044820152606401610524565b6000818152600760208181526040808420815160c08101835281548152600182018054828601526002830180548386019081526003850180546060860152600480870180546001600160a01b0380821660808a01908152600160a01b830460ff16151560a08b01528f8f529c909b52978c9055948b9055928a9055989098556001600160a81b031990931690556006549451955192516323b872dd60e01b81523392810192909252948316602482015260448101919091529116906323b872dd906064016020604051808303816000875af1158015611328573d6000803e3d6000fd5b505050506040513d601f19601f8201168201806040525081019061134c919061377e565b50600554608082015160208301516060840151604051637921219560e11b81526001600160a01b039094169363f242432a9361138e93909233926004016137a0565b600060405180830381600087803b1580156113a857600080fd5b505af11580156113bc573d6000803e3d6000fd5b50505060208083015160408085015160608087015160808089015185518b815297880196909652938601929092528401526001600160a01b03909116908201523360a08201527fb976e14df17a9b70d6dd3b3dcae82e3c877a71c73c5e950e486fe9918998e7ab915060c00160405180910390a150610bca60018055565b600a6020528160005260406000208181548110610f8857600080fd5b6060600061146360035490565b67ffffffffffffffff81111561147b5761147b6134c7565b6040519080825280602002602001820160405280156114b457816020015b6114a161318c565b8152602001906001900390816114995790505b50905060005b600354811015610cea5760008181526009602052604090206005015460ff161561164e57600081815260096020908152604091829020825160c081018452815481526001820154818401526002820180548551818602810186018752818152929593949386019383018282801561155a57602002820191906000526020600020905b81546001600160a01b0316815260019091019060200180831161153c575b50505050508152602001600382018054806020026020016040519081016040528092919081815260200182805480156115b257602002820191906000526020600020905b81548152602001906001019080831161159e575b505050505081526020016004820180548060200260200160405190810160405280929190818152602001828054801561161457602002820191906000526020600020905b81546001600160a01b031681526001909101906020018083116115f6575b50505091835250506005919091015460ff1615156020909101528251839083908110611642576116426136a7565b60200260200101819052505b80611658816136d3565b9150506114ba565b6001600160a01b0381166000908152600860205260408120546060919067ffffffffffffffff811115611695576116956134c7565b6040519080825280602002602001820160405280156116ce57816020015b6116bb61314b565b8152602001906001900390816116b35790505b50905060005b6001600160a01b0384166000908152600860205260409020548110156117c6576001600160a01b03841660009081526008602052604081208054600792919084908110611723576117236136a7565b600091825260208083209091015483528281019390935260409182019020815160c0810183528154815260018201549381019390935260028101549183019190915260038101546060830152600401546001600160a01b038116608083015260ff600160a01b90910416151560a082015282518390839081106117a8576117a86136a7565b602002602001018190525080806117be906136d3565b9150506116d4565b5092915050565b60008381526007602052604081206001015490036118265760405162461bcd60e51b8152602060048201526016602482015275131a5cdd1a5b99c8191bd95cc81b9bdd08195e1a5cdd60521b6044820152606401610524565b600083815260076020526040902060040154600160a01b900460ff166118865760405162461bcd60e51b81526020600482015260156024820152744c697374696e67206973206e6f742061637469766560581b6044820152606401610524565b80518251146118ec5760405162461bcd60e51b815260206004820152602c60248201527f496e766573746f727320616e642073686172657320616d6f756e7473206c656e60448201526b0cee8d040dad2e6dac2e8c6d60a31b6064820152608401610524565b6000805b83518110156119325782818151811061190b5761190b6136a7565b60200260200101518261191e91906137d8565b91508061192a816136d3565b9150506118f0565b5060008481526007602052604090206003015481146119ad5760405162461bcd60e51b815260206004820152603160248201527f546f74616c2073686172657320616d6f756e7420646f6573206e6f74206d617460448201527018da081b1a5cdd1a5b99c8185b5bdd5b9d607a1b6064820152608401610524565b6000805b8451811015611b835760008482815181106119ce576119ce6136a7565b602002602001015111611a2f5760405162461bcd60e51b8152602060048201526024808201527f53686172657320616d6f756e74206d75737420626520677265617465722074686044820152630616e20360e41b6064820152608401610524565b60006001600160a01b0316858281518110611a4c57611a4c6136a7565b60200260200101516001600160a01b031603611aaa5760405162461bcd60e51b815260206004820152601e60248201527f496e766573746f7220616464726573732063616e6e6f742062652030783000006044820152606401610524565b60008681526007602052604090206004015485516001600160a01b0390911690869083908110611adc57611adc6136a7565b60200260200101516001600160a01b031603611b3a5760405162461bcd60e51b815260206004820152601960248201527f53656c6c65722063616e6e6f7420626520696e766573746f72000000000000006044820152606401610524565b336001600160a01b0316858281518110611b5657611b566136a7565b60200260200101516001600160a01b031603611b7157600191505b80611b7b816136d3565b9150506119b1565b5080611ba15760405162461bcd60e51b8152600401610524906136ec565b600380546000818152600960209081526040808320938455600190930189905592548152208551611bda926002909201918701906131c4565b508260096000611be960035490565b81526020019081526020016000206003019080519060200190611c0d929190613229565b50600160096000611c1d60035490565b81526020810191909152604001600020600501805460ff19169115159190911790556003805460010190555050505050565b60048054604051634f558e7960e01b815291820185905284916001600160a01b0390911690634f558e7990602401602060405180830381865afa158015611c9a573d6000803e3d6000fd5b505050506040513d601f19601f82011682018060405250810190611cbe919061377e565b611d025760405162461bcd60e51b8152602060048201526015602482015274417373657420646f6573206e6f742065786973742160581b6044820152606401610524565b600554604051627eeac760e11b81523360048201819052602482018790529186916000916001600160a01b03169062fdd58e90604401602060405180830381865afa158015611d55573d6000803e3d6000fd5b505050506040513d601f19601f82011682018060405250810190611d799190613723565b11611db85760405162461bcd60e51b815260206004820152600f60248201526e3737ba1039b430b932b437b63232b960891b6044820152606401610524565b611dc0612e5f565b60008511611e005760405162461bcd60e51b815260206004820152600d60248201526c1c1c9a58d9480f080c481554d1609a1b6044820152606401610524565b60008411611e3d5760405162461bcd60e51b815260206004820152600a602482015269616d6f756e74203c203160b01b6044820152606401610524565b60055460405163e985e9c560e01b81523360048201523060248201526001600160a01b039091169063e985e9c590604401602060405180830381865afa158015611e8b573d6000803e3d6000fd5b505050506040513d601f19601f82011682018060405250810190611eaf919061377e565b611ef25760405162461bcd60e51b81526020600482015260146024820152731b9bdd08185c1c1c9bdd995908199bdc88185b1b60621b6044820152606401610524565b8360005b336000908152600860205260409020548110156120135733600090815260086020526040812080548a92600792909185908110611f3557611f356136a7565b9060005260206000200154815260200190815260200160002060010154148015611fab57503360009081526008602052604081208054600792919084908110611f8057611f806136a7565b9060005260206000200154815260200190815260200160002060040160149054906101000a900460ff165b15612001573360009081526008602052604081208054600792919084908110611fd657611fd66136a7565b906000526020600020015481526020019081526020016000206003015482611ffe91906137d8565b91505b8061200b816136d3565b915050611ef6565b50600554604051627eeac760e11b8152336004820152602481018990526001600160a01b039091169062fdd58e90604401602060405180830381865afa158015612061573d6000803e3d6000fd5b505050506040513d601f19601f820116820180604052508101906120859190613723565b8111156120c85760405162461bcd60e51b81526020600482015260116024820152706e6f7420656e6f7567682073686172657360781b6044820152606401610524565b6040518060c001604052806120dc60025490565b8152602081018990526040810188905260608101879052336080820152600160a0909101526007600061210e60025490565b81526020808201929092526040908101600090812084518155848401516001820155848301516002808301919091556060860151600383015560808601516004909201805460a0909701511515600160a01b026001600160a81b03199097166001600160a01b03909316929092179590951790553381526008909252902090612195905490565b815460018101835560009283526020909220909101557f97dcdac6c7238ca7fc3ad41c8a17e1ac9825015db181b6f7d0a8e444dbd112866121d560025490565b60408051918252602082018a905281018890526060810187905233608082015260a00160405180910390a161220e600280546001019055565b5061221860018055565b505050505050565b336000908152600a60205260408120546060919067ffffffffffffffff81111561224c5761224c6134c7565b60405190808252806020026020018201604052801561228557816020015b61227261318c565b81526020019060019003908161226a5790505b50905060005b336000908152600a6020526040902054811015610cea57336000908152600a6020526040812080546009929190849081106122c8576122c86136a7565b906000526020600020015481526020019081526020016000206040518060c001604052908160008201548152602001600182015481526020016002820180548060200260200160405190810160405280929190818152602001828054801561235957602002820191906000526020600020905b81546001600160a01b0316815260019091019060200180831161233b575b50505050508152602001600382018054806020026020016040519081016040528092919081815260200182805480156123b157602002820191906000526020600020905b81548152602001906001019080831161239d575b505050505081526020016004820180548060200260200160405190810160405280929190818152602001828054801561241357602002820191906000526020600020905b81546001600160a01b031681526001909101906020018083116123f5575b50505091835250506005919091015460ff1615156020909101528251839083908110612441576124416136a7565b60200260200101819052508080612457906136d3565b91505061228b565b612467612db0565b6001600160a01b0381166124cc5760405162461bcd60e51b815260206004820152602660248201527f4f776e61626c653a206e6577206f776e657220697320746865207a65726f206160448201526564647265737360d01b6064820152608401610524565b610bca81612eb8565b6124dd61318c565b600082815260096020908152604091829020825160c081018452815481526001820154818401526002820180548551818602810186018752818152929593949386019383018282801561255957602002820191906000526020600020905b81546001600160a01b0316815260019091019060200180831161253b575b50505050508152602001600382018054806020026020016040519081016040528092919081815260200182805480156125b157602002820191906000526020600020905b81548152602001906001019080831161259d575b505050505081526020016004820180548060200260200160405190810160405280929190818152602001828054801561261357602002820191906000526020600020905b81546001600160a01b031681526001909101906020018083116125f5575b50505091835250506005919091015460ff16151560209091015292915050565b610bca816040516024016126479190613837565b60408051601f198184030181529190526020810180516001600160e01b031663104c13eb60e21b179052612f4b565b61267e612e5f565b6126a16040518060600160405280603381526020016139b8603391398383612f6c565b6126ed604051806060016040528060318152602001613a3460319139600084815260076020526040902060018101546002820154600490920154909190600160a01b900460ff16612fb3565b60008281526007602052604081206001015490036127475760405162461bcd60e51b81526020600482015260176024820152764c697374696e6720646f6573206e6f742065786973742160481b6044820152606401610524565b600082815260076020526040902060040154336001600160a01b03909116036127825760405162461bcd60e51b81526004016105249061373c565b600082815260076020526040902060040154600160a01b900460ff1615156001146127ef5760405162461bcd60e51b815260206004820152601d60248201527f536861726573206c697374696e67206973206e6f7420616374697665210000006044820152606401610524565b6128106040518060600160405280602581526020016139eb60259139612633565b6000828152600760209081526040808320815160c08082018452825482526001808401805484880152600280860180548689015260038701805460608801526004880180546001600160a01b03811660808a015260ff600160a01b820416151560a08a0152988c9055938b9055908a90558990556001600160a81b0319909516905587875260098652848720855192830186528054835290810154828701529283018054855181880281018801875281815293979692958601939283018282801561290457602002820191906000526020600020905b81546001600160a01b031681526001909101906020018083116128e6575b505050505081526020016003820180548060200260200160405190810160405280929190818152602001828054801561295c57602002820191906000526020600020905b815481526020019060010190808311612948575b50505050508152602001600482018054806020026020016040519081016040528092919081815260200182805480156129be57602002820191906000526020600020905b81546001600160a01b031681526001909101906020018083116129a0575b50505091835250506005919091015460ff16151560209182015260408051606081019091526023808252929350612a1092909161396990830139620f42408460400151612a0b919061384a565b613002565b60005b816040015151811015612da457600083606001516064612a33919061386c565b83606001518381518110612a4957612a496136a7565b60200260200101516064612a5d919061386c565b612a67919061384a565b9050612aad604051806060016040528060248152602001613a106024913984606001518481518110612a9b57612a9b6136a7565b60200260200101518660600151612f6c565b600084606001518560400151612ac3919061384a565b9050612b0d6040518060400160405280601b81526020017f3d2045564d203d205072696365207065722053686172653a2025730000000000815250620f424083612a0b919061384a565b600084606001518481518110612b2557612b256136a7565b602002602001015182612b38919061386c565b9050612b76604051806040016040528060118152602001703d2045564d203d2050726963653a20257360781b815250620f424083612a0b919061384a565b612bc7604051806060016040528060298152602001613a6560299139612b9f620f42408461384a565b87604001518781518110612bb557612bb56136a7565b60200260200101518960800151613047565b600654604086015180516001600160a01b03909216916323b872dd919087908110612bf457612bf46136a7565b602090810291909101015160808901516040516001600160e01b031960e085901b1681526001600160a01b03928316600482015291166024820152604481018490526064016020604051808303816000875af1158015612c58573d6000803e3d6000fd5b505050506040513d601f19601f82011682018060405250810190612c7c919061377e565b50612cdf6040518060600160405280602c815260200161398c602c913986606001518681518110612caf57612caf6136a7565b6020026020010151886080015188604001518881518110612cd257612cd26136a7565b6020026020010151613047565b6005546080870151604087015180516001600160a01b039093169263f242432a92919088908110612d1257612d126136a7565b6020026020010151896020015189606001518981518110612d3557612d356136a7565b60200260200101516040518563ffffffff1660e01b8152600401612d5c94939291906137a0565b600060405180830381600087803b158015612d7657600080fd5b505af1158015612d8a573d6000803e3d6000fd5b505050505050508080612d9c906136d3565b915050612a13565b50505061095260018055565b6000546001600160a01b03163314610a9d5760405162461bcd60e51b815260206004820181905260248201527f4f776e61626c653a2063616c6c6572206973206e6f7420746865206f776e65726044820152606401610524565b612e12613090565b6000805460ff60a01b191690557f5db9ee0a495bf2e6ff9c91a7834c1ba4fdd244a5e8aa4e537bd38aeae4b073aa335b6040516001600160a01b03909116815260200160405180910390a1565b600260015403612eb15760405162461bcd60e51b815260206004820152601f60248201527f5265656e7472616e637947756172643a207265656e7472616e742063616c6c006044820152606401610524565b6002600155565b600080546001600160a01b038381166001600160a01b0319831681178455604051919092169283917f8be0079c531659141344cd1fd0a4f28419497f9722a3daafe3b4186f6b6457e09190a35050565b612f106130e0565b6000805460ff60a01b1916600160a01b1790557f62e78cea01bee320cd4e420270b5ea74000d11b0c9f74754ebdbfc544b05a258612e423390565b80516a636f6e736f6c652e6c6f67602083016000808483855afa5050505050565b611136838383604051602401612f8493929190613883565b60408051601f198184030181529190526020810180516001600160e01b031663ca47c4eb60e01b179052612f4b565b612ffc84848484604051602401612fcd94939291906138a8565b60408051601f198184030181529190526020810180516001600160e01b0316633b136dc960e11b179052612f4b565b50505050565b61095282826040516024016130189291906138d9565b60408051601f198184030181529190526020810180516001600160e01b0316632d839cb360e21b179052612f4b565b612ffc8484848460405160240161306194939291906138fb565b60408051601f198184030181529190526020810180516001600160e01b0316632f515bd760e11b179052612f4b565b600054600160a01b900460ff16610a9d5760405162461bcd60e51b815260206004820152601460248201527314185d5cd8589b194e881b9bdd081c185d5cd95960621b6044820152606401610524565b600054600160a01b900460ff1615610a9d5760405162461bcd60e51b815260206004820152601060248201526f14185d5cd8589b194e881c185d5cd95960821b6044820152606401610524565b5080546000825590600052602060002090810190610bca9190613264565b6040518060c001604052806000815260200160008152602001600081526020016000815260200160006001600160a01b031681526020016000151581525090565b6040518060c0016040528060008152602001600081526020016060815260200160608152602001606081526020016000151581525090565b828054828255906000526020600020908101928215613219579160200282015b8281111561321957825182546001600160a01b0319166001600160a01b039091161782556020909201916001909101906131e4565b50613225929150613264565b5090565b828054828255906000526020600020908101928215613219579160200282015b82811115613219578251825591602001919060010190613249565b5b808211156132255760008155600101613265565b60006020828403121561328b57600080fd5b5035919050565b602080825282518282018190526000919060409081850190868401855b828110156133085781518051855286810151878601528581015186860152606080820151908601526080808201516001600160a01b03169086015260a09081015115159085015260c090930192908501906001016132af565b5091979650505050505050565b80356001600160a01b038116811461332c57600080fd5b919050565b60006020828403121561334357600080fd5b61334c82613315565b9392505050565b6000806040838503121561336657600080fd5b61336f83613315565b946020939093013593505050565b600081518084526020808501945080840160005b838110156133b65781516001600160a01b031687529582019590820190600101613391565b509495945050505050565b80518252600060208083015181850152604083015160c060408601526133ea60c086018261337d565b60608581015187830391880191909152805180835290840192506000918401905b8083101561342b578351825292840192600192909201919084019061340b565b50608086015193508681036080880152613445818561337d565b935050505060a083015161345d60a086018215159052565b509392505050565b6000602080830181845280855180835260408601915060408160051b870101925083870160005b828110156134ba57603f198886030184526134a88583516133c1565b9450928501929085019060010161348c565b5092979650505050505050565b634e487b7160e01b600052604160045260246000fd5b604051601f8201601f1916810167ffffffffffffffff81118282101715613506576135066134c7565b604052919050565b600067ffffffffffffffff821115613528576135286134c7565b5060051b60200190565b600082601f83011261354357600080fd5b813560206135586135538361350e565b6134dd565b82815260059290921b8401810191818101908684111561357757600080fd5b8286015b84811015613592578035835291830191830161357b565b509695505050505050565b6000806000606084860312156135b257600080fd5b8335925060208085013567ffffffffffffffff808211156135d257600080fd5b818701915087601f8301126135e657600080fd5b81356135f46135538261350e565b81815260059190911b8301840190848101908a83111561361357600080fd5b938501935b828510156136385761362985613315565b82529385019390850190613618565b96505050604087013592508083111561365057600080fd5b505061365e86828701613532565b9150509250925092565b60008060006060848603121561367d57600080fd5b505081359360208301359350604090920135919050565b60208152600061334c60208301846133c1565b634e487b7160e01b600052603260045260246000fd5b634e487b7160e01b600052601160045260246000fd5b6000600182016136e5576136e56136bd565b5060010190565b60208082526017908201527f53656e646572206d75737420626520696e766573746f72000000000000000000604082015260600190565b60006020828403121561373557600080fd5b5051919050565b60208082526022908201527f53656c6c65722063616e6e6f7420627579207468656972206f776e2073686172604082015261657360f01b606082015260800190565b60006020828403121561379057600080fd5b8151801515811461334c57600080fd5b6001600160a01b0394851681529290931660208301526040820152606081019190915260a06080820181905260009082015260c00190565b808201808211156137eb576137eb6136bd565b92915050565b6000815180845260005b81811015613817576020818501810151868301820152016137fb565b506000602082860101526020601f19601f83011685010191505092915050565b60208152600061334c60208301846137f1565b60008261386757634e487b7160e01b600052601260045260246000fd5b500490565b80820281158282048414176137eb576137eb6136bd565b60608152600061389660608301866137f1565b60208301949094525060400152919050565b6080815260006138bb60808301876137f1565b60208301959095525060408101929092521515606090910152919050565b6040815260006138ec60408301856137f1565b90508260208301529392505050565b60808152600061390e60808301876137f1565b6020830195909552506001600160a01b039283166040820152911660609091015291905056fe3d2045564d203d20416c6c20696e766573746f72732061636365707465642c2070757263686173696e67207368617265732e2e2e3d2045564d203d204c697374696e6720546f74616c2050726963653a202573205553443d2045564d203d205472616e7366657272696e67202573205368617265732066726f6d20257320746f2025733d2045564d203d2070757263686173655368617265734c697374696e674672616374696f6e616c697a65642825732c202573293d2045564d203d2050617373656420616c6c20726571756972652073746174656d656e74733d2045564d203d20427579696e67202573206f6620257320546f74616c205368617265733d2045564d203d204c697374696e67200a546f6b656e2049443a20257350726963653a2025730a4163746976653a2025733d2045564d203d205472616e7366657272696e67202573205553442066726f6d20257320746f202573a264697066735822122001f7bed6187718788076b00604b1e04e19328f3527d84eb451357c0d6537074c64736f6c63430008120033",
  "linkReferences": {},
  "deployedLinkReferences": {}
}