{
  "_format": "hh-sol-artifact-1",
  "contractName": "BlockEstateMarket",
  "sourceName": "contracts/BlockEstate/BlockEstateMarket.sol",
  "abi": [
    {
      "inputs": [
        {
          "internalType": "address",
          "name": "_blockEstateAssetsAddress",
          "type": "address"
        },
        {
          "internalType": "address",
          "name": "_blockEstateSharesAddress",
          "type": "address"
        },
        {
          "internalType": "address",
          "name": "_usdAddress",
          "type": "address"
        }
      ],
      "stateMutability": "nonpayable",
      "type": "constructor"
    },
    {
      "anonymous": false,
      "inputs": [
        {
          "indexed": false,
          "internalType": "address",
          "name": "old",
          "type": "address"
        },
        {
          "indexed": false,
          "internalType": "address",
          "name": "updated",
          "type": "address"
        }
      ],
      "name": "BlockEstateAssetsAddressUpdated",
      "type": "event"
    },
    {
      "anonymous": false,
      "inputs": [
        {
          "indexed": false,
          "internalType": "address",
          "name": "old",
          "type": "address"
        },
        {
          "indexed": false,
          "internalType": "address",
          "name": "updated",
          "type": "address"
        }
      ],
      "name": "BlockEstateSharesAddressUpdated",
      "type": "event"
    },
    {
      "anonymous": false,
      "inputs": [
        {
          "indexed": true,
          "internalType": "address",
          "name": "previousOwner",
          "type": "address"
        },
        {
          "indexed": true,
          "internalType": "address",
          "name": "newOwner",
          "type": "address"
        }
      ],
      "name": "OwnershipTransferred",
      "type": "event"
    },
    {
      "anonymous": false,
      "inputs": [
        {
          "indexed": false,
          "internalType": "address",
          "name": "account",
          "type": "address"
        }
      ],
      "name": "Paused",
      "type": "event"
    },
    {
      "anonymous": false,
      "inputs": [
        {
          "indexed": false,
          "internalType": "uint256",
          "name": "listingId",
          "type": "uint256"
        },
        {
          "indexed": false,
          "internalType": "uint256",
          "name": "tokenId",
          "type": "uint256"
        },
        {
          "indexed": false,
          "internalType": "uint256",
          "name": "price",
          "type": "uint256"
        },
        {
          "indexed": false,
          "internalType": "uint256",
          "name": "amount",
          "type": "uint256"
        },
        {
          "indexed": false,
          "internalType": "address",
          "name": "seller",
          "type": "address"
        }
      ],
      "name": "SharesListingCreated",
      "type": "event"
    },
    {
      "anonymous": false,
      "inputs": [
        {
          "indexed": false,
          "internalType": "uint256",
          "name": "listingId",
          "type": "uint256"
        },
        {
          "indexed": false,
          "internalType": "uint256",
          "name": "tokenId",
          "type": "uint256"
        },
        {
          "indexed": false,
          "internalType": "uint256",
          "name": "price",
          "type": "uint256"
        },
        {
          "indexed": false,
          "internalType": "uint256",
          "name": "amount",
          "type": "uint256"
        },
        {
          "indexed": false,
          "internalType": "address",
          "name": "seller",
          "type": "address"
        }
      ],
      "name": "SharesListingDeleted",
      "type": "event"
    },
    {
      "anonymous": false,
      "inputs": [
        {
          "indexed": false,
          "internalType": "uint256",
          "name": "listingId",
          "type": "uint256"
        },
        {
          "indexed": false,
          "internalType": "uint256",
          "name": "tokenId",
          "type": "uint256"
        },
        {
          "indexed": false,
          "internalType": "uint256",
          "name": "price",
          "type": "uint256"
        },
        {
          "indexed": false,
          "internalType": "uint256",
          "name": "amount",
          "type": "uint256"
        },
        {
          "indexed": false,
          "internalType": "address",
          "name": "seller",
          "type": "address"
        },
        {
          "indexed": false,
          "internalType": "address",
          "name": "buyer",
          "type": "address"
        }
      ],
      "name": "SharesListingPurchased",
      "type": "event"
    },
    {
      "anonymous": false,
      "inputs": [
        {
          "indexed": false,
          "internalType": "address",
          "name": "account",
          "type": "address"
        }
      ],
      "name": "Unpaused",
      "type": "event"
    },
    {
      "inputs": [
        {
          "internalType": "uint256",
          "name": "groupInvestmentId",
          "type": "uint256"
        }
      ],
      "name": "acceptGroupInvestment",
      "outputs": [],
      "stateMutability": "nonpayable",
      "type": "function"
    },
    {
      "inputs": [],
      "name": "blockEstateAssetsAddress",
      "outputs": [
        {
          "internalType": "address",
          "name": "",
          "type": "address"
        }
      ],
      "stateMutability": "view",
      "type": "function"
    },
    {
      "inputs": [],
      "name": "blockEstateSharesAddress",
      "outputs": [
        {
          "internalType": "address",
          "name": "",
          "type": "address"
        }
      ],
      "stateMutability": "view",
      "type": "function"
    },
    {
      "inputs": [
        {
          "internalType": "uint256",
          "name": "listingId",
          "type": "uint256"
        },
        {
          "internalType": "address[]",
          "name": "investors",
          "type": "address[]"
        },
        {
          "internalType": "uint256[]",
          "name": "sharesAmounts",
          "type": "uint256[]"
        }
      ],
      "name": "createSharesGroupInvestment",
      "outputs": [],
      "stateMutability": "nonpayable",
      "type": "function"
    },
    {
      "inputs": [
        {
          "internalType": "uint256",
          "name": "tokenId",
          "type": "uint256"
        },
        {
          "internalType": "uint256",
          "name": "price",
          "type": "uint256"
        },
        {
          "internalType": "uint256",
          "name": "amount",
          "type": "uint256"
        }
      ],
      "name": "createSharesListing",
      "outputs": [],
      "stateMutability": "nonpayable",
      "type": "function"
    },
    {
      "inputs": [
        {
          "internalType": "uint256",
          "name": "listingId",
          "type": "uint256"
        }
      ],
      "name": "deleteSharesListing",
      "outputs": [],
      "stateMutability": "nonpayable",
      "type": "function"
    },
    {
      "inputs": [
        {
          "internalType": "uint256",
          "name": "",
          "type": "uint256"
        }
      ],
      "name": "groupInvestments",
      "outputs": [
        {
          "internalType": "uint256",
          "name": "investmentId",
          "type": "uint256"
        },
        {
          "internalType": "uint256",
          "name": "listingId",
          "type": "uint256"
        },
        {
          "internalType": "bool",
          "name": "isActive",
          "type": "bool"
        }
      ],
      "stateMutability": "view",
      "type": "function"
    },
    {
      "inputs": [],
      "name": "owner",
      "outputs": [
        {
          "internalType": "address",
          "name": "",
          "type": "address"
        }
      ],
      "stateMutability": "view",
      "type": "function"
    },
    {
      "inputs": [],
      "name": "pause",
      "outputs": [],
      "stateMutability": "nonpayable",
      "type": "function"
    },
    {
      "inputs": [],
      "name": "paused",
      "outputs": [
        {
          "internalType": "bool",
          "name": "",
          "type": "bool"
        }
      ],
      "stateMutability": "view",
      "type": "function"
    },
    {
      "inputs": [
        {
          "internalType": "uint256",
          "name": "listingId",
          "type": "uint256"
        }
      ],
      "name": "purchaseSharesListing",
      "outputs": [],
      "stateMutability": "nonpayable",
      "type": "function"
    },
    {
      "inputs": [],
      "name": "readAllGroupInvestments",
      "outputs": [
        {
          "components": [
            {
              "internalType": "uint256",
              "name": "investmentId",
              "type": "uint256"
            },
            {
              "internalType": "uint256",
              "name": "listingId",
              "type": "uint256"
            },
            {
              "internalType": "address[]",
              "name": "investors",
              "type": "address[]"
            },
            {
              "internalType": "uint256[]",
              "name": "sharesAmounts",
              "type": "uint256[]"
            },
            {
              "internalType": "address[]",
              "name": "accepted",
              "type": "address[]"
            },
            {
              "internalType": "bool",
              "name": "isActive",
              "type": "bool"
            }
          ],
          "internalType": "struct BlockEstateMarket.GroupInvestment[]",
          "name": "",
          "type": "tuple[]"
        }
      ],
      "stateMutability": "view",
      "type": "function"
    },
    {
      "inputs": [],
      "name": "readAllSharesListings",
      "outputs": [
        {
          "components": [
            {
              "internalType": "uint256",
              "name": "listingId",
              "type": "uint256"
            },
            {
              "internalType": "uint256",
              "name": "tokenId",
              "type": "uint256"
            },
            {
              "internalType": "uint256",
              "name": "price",
              "type": "uint256"
            },
            {
              "internalType": "uint256",
              "name": "amount",
              "type": "uint256"
            },
            {
              "internalType": "address",
              "name": "seller",
              "type": "address"
            },
            {
              "internalType": "bool",
              "name": "isActive",
              "type": "bool"
            }
          ],
          "internalType": "struct BlockEstateMarket.SharesListing[]",
          "name": "",
          "type": "tuple[]"
        }
      ],
      "stateMutability": "view",
      "type": "function"
    },
    {
      "inputs": [
        {
          "internalType": "uint256",
          "name": "investmentId",
          "type": "uint256"
        }
      ],
      "name": "readGroupInvestment",
      "outputs": [
        {
          "components": [
            {
              "internalType": "uint256",
              "name": "investmentId",
              "type": "uint256"
            },
            {
              "internalType": "uint256",
              "name": "listingId",
              "type": "uint256"
            },
            {
              "internalType": "address[]",
              "name": "investors",
              "type": "address[]"
            },
            {
              "internalType": "uint256[]",
              "name": "sharesAmounts",
              "type": "uint256[]"
            },
            {
              "internalType": "address[]",
              "name": "accepted",
              "type": "address[]"
            },
            {
              "internalType": "bool",
              "name": "isActive",
              "type": "bool"
            }
          ],
          "internalType": "struct BlockEstateMarket.GroupInvestment",
          "name": "",
          "type": "tuple"
        }
      ],
      "stateMutability": "view",
      "type": "function"
    },
    {
      "inputs": [],
      "name": "readGroupInvestmentsByAccount",
      "outputs": [
        {
          "components": [
            {
              "internalType": "uint256",
              "name": "investmentId",
              "type": "uint256"
            },
            {
              "internalType": "uint256",
              "name": "listingId",
              "type": "uint256"
            },
            {
              "internalType": "address[]",
              "name": "investors",
              "type": "address[]"
            },
            {
              "internalType": "uint256[]",
              "name": "sharesAmounts",
              "type": "uint256[]"
            },
            {
              "internalType": "address[]",
              "name": "accepted",
              "type": "address[]"
            },
            {
              "internalType": "bool",
              "name": "isActive",
              "type": "bool"
            }
          ],
          "internalType": "struct BlockEstateMarket.GroupInvestment[]",
          "name": "",
          "type": "tuple[]"
        }
      ],
      "stateMutability": "view",
      "type": "function"
    },
    {
      "inputs": [
        {
          "internalType": "address",
          "name": "account",
          "type": "address"
        }
      ],
      "name": "readListingsByAccount",
      "outputs": [
        {
          "components": [
            {
              "internalType": "uint256",
              "name": "listingId",
              "type": "uint256"
            },
            {
              "internalType": "uint256",
              "name": "tokenId",
              "type": "uint256"
            },
            {
              "internalType": "uint256",
              "name": "price",
              "type": "uint256"
            },
            {
              "internalType": "uint256",
              "name": "amount",
              "type": "uint256"
            },
            {
              "internalType": "address",
              "name": "seller",
              "type": "address"
            },
            {
              "internalType": "bool",
              "name": "isActive",
              "type": "bool"
            }
          ],
          "internalType": "struct BlockEstateMarket.SharesListing[]",
          "name": "",
          "type": "tuple[]"
        }
      ],
      "stateMutability": "view",
      "type": "function"
    },
    {
      "inputs": [
        {
          "internalType": "uint256",
          "name": "tokenId",
          "type": "uint256"
        }
      ],
      "name": "readListingsByAsset",
      "outputs": [
        {
          "components": [
            {
              "internalType": "uint256",
              "name": "listingId",
              "type": "uint256"
            },
            {
              "internalType": "uint256",
              "name": "tokenId",
              "type": "uint256"
            },
            {
              "internalType": "uint256",
              "name": "price",
              "type": "uint256"
            },
            {
              "internalType": "uint256",
              "name": "amount",
              "type": "uint256"
            },
            {
              "internalType": "address",
              "name": "seller",
              "type": "address"
            },
            {
              "internalType": "bool",
              "name": "isActive",
              "type": "bool"
            }
          ],
          "internalType": "struct BlockEstateMarket.SharesListing[]",
          "name": "",
          "type": "tuple[]"
        }
      ],
      "stateMutability": "view",
      "type": "function"
    },
    {
      "inputs": [
        {
          "internalType": "uint256",
          "name": "groupInvestmentId",
          "type": "uint256"
        }
      ],
      "name": "refuseGroupInvestment",
      "outputs": [],
      "stateMutability": "nonpayable",
      "type": "function"
    },
    {
      "inputs": [],
      "name": "renounceOwnership",
      "outputs": [],
      "stateMutability": "nonpayable",
      "type": "function"
    },
    {
      "inputs": [
        {
          "internalType": "uint256",
          "name": "groupInvestmentId",
          "type": "uint256"
        }
      ],
      "name": "revokeGroupInvestment",
      "outputs": [],
      "stateMutability": "nonpayable",
      "type": "function"
    },
    {
      "inputs": [
        {
          "internalType": "address",
          "name": "_blockEstateAssetsAddress",
          "type": "address"
        }
      ],
      "name": "setBlockEstateAssetsAddress",
      "outputs": [],
      "stateMutability": "nonpayable",
      "type": "function"
    },
    {
      "inputs": [
        {
          "internalType": "address",
          "name": "_blockEstateSharesAddress",
          "type": "address"
        }
      ],
      "name": "setBlockEstateSharesAddress",
      "outputs": [],
      "stateMutability": "nonpayable",
      "type": "function"
    },
    {
      "inputs": [
        {
          "internalType": "uint256",
          "name": "",
          "type": "uint256"
        }
      ],
      "name": "sharesListings",
      "outputs": [
        {
          "internalType": "uint256",
          "name": "listingId",
          "type": "uint256"
        },
        {
          "internalType": "uint256",
          "name": "tokenId",
          "type": "uint256"
        },
        {
          "internalType": "uint256",
          "name": "price",
          "type": "uint256"
        },
        {
          "internalType": "uint256",
          "name": "amount",
          "type": "uint256"
        },
        {
          "internalType": "address",
          "name": "seller",
          "type": "address"
        },
        {
          "internalType": "bool",
          "name": "isActive",
          "type": "bool"
        }
      ],
      "stateMutability": "view",
      "type": "function"
    },
    {
      "inputs": [
        {
          "internalType": "address",
          "name": "newOwner",
          "type": "address"
        }
      ],
      "name": "transferOwnership",
      "outputs": [],
      "stateMutability": "nonpayable",
      "type": "function"
    },
    {
      "inputs": [],
      "name": "unpause",
      "outputs": [],
      "stateMutability": "nonpayable",
      "type": "function"
    },
    {
      "inputs": [],
      "name": "usd",
      "outputs": [
        {
          "internalType": "contract IERC20",
          "name": "",
          "type": "address"
        }
      ],
      "stateMutability": "view",
      "type": "function"
    },
    {
      "inputs": [
        {
          "internalType": "address",
          "name": "",
          "type": "address"
        },
        {
          "internalType": "uint256",
          "name": "",
          "type": "uint256"
        }
      ],
      "name": "userGroupInvestments",
      "outputs": [
        {
          "internalType": "uint256",
          "name": "",
          "type": "uint256"
        }
      ],
      "stateMutability": "view",
      "type": "function"
    },
    {
      "inputs": [
        {
          "internalType": "address",
          "name": "",
          "type": "address"
        },
        {
          "internalType": "uint256",
          "name": "",
          "type": "uint256"
        }
      ],
      "name": "userListings",
      "outputs": [
        {
          "internalType": "uint256",
          "name": "",
          "type": "uint256"
        }
      ],
      "stateMutability": "view",
      "type": "function"
    }
  ],
  "bytecode": "0x60806040523480156200001157600080fd5b5060405162003cfc38038062003cfc8339810160408190526200003491620001d9565b6200003f336200016c565b6000805460ff60a01b19169055600180556001600160a01b0383166200009b5760405162461bcd60e51b815260206004820152600c60248201526b7a65726f206164647265737360a01b60448201526064015b60405180910390fd5b6001600160a01b038216620000e25760405162461bcd60e51b815260206004820152600c60248201526b7a65726f206164647265737360a01b604482015260640162000092565b6001600160a01b038116620001295760405162461bcd60e51b815260206004820152600c60248201526b7a65726f206164647265737360a01b604482015260640162000092565b600480546001600160a01b039485166001600160a01b03199182161790915560058054938516938216939093179092556006805491909316911617905562000223565b600080546001600160a01b038381166001600160a01b0319831681178455604051919092169283917f8be0079c531659141344cd1fd0a4f28419497f9722a3daafe3b4186f6b6457e09190a35050565b80516001600160a01b0381168114620001d457600080fd5b919050565b600080600060608486031215620001ef57600080fd5b620001fa84620001bc565b92506200020a60208501620001bc565b91506200021a60408501620001bc565b90509250925092565b613ac980620002336000396000f3fe608060405234801561001057600080fd5b50600436106101c45760003560e01c80638c0ba022116100f9578063d63a6ccd11610097578063eb9e00b911610071578063eb9e00b914610460578063f255ac8a14610473578063f2fde38b1461047b578063f5f333971461048e57600080fd5b8063d63a6ccd14610427578063d956c1041461043a578063e8c7d99a1461044d57600080fd5b80639f653c51116100d35780639f653c511461039d578063a8e8f0cd146103b0578063cf7080eb146103c3578063d05ee8d21461041257600080fd5b80638c0ba022146103665780638da5cb5b146103795780639a5d65241461038a57600080fd5b80635c975abb11610166578063715018a611610140578063715018a6146102ab5780637716e573146102b35780638456cb591461033d57806386cfa7d31461034557600080fd5b80635c975abb1461025057806363571e651461026d5780636b78018b1461028057600080fd5b806341696818116101a2578063416968181461020f5780634e697728146102225780635131e4e71461022a5780635a74874b1461023d57600080fd5b806323be15bb146101c9578063367eeb47146101de5780633f4ba83a14610207575b600080fd5b6101dc6101d736600461322f565b6104ae565b005b6101f16101ec36600461322f565b610911565b6040516101fe9190613248565b60405180910390f35b6101dc610a48565b6101dc61021d36600461322f565b610a5a565b6101f1610b88565b6101dc6102383660046132e7565b610cab565b6101dc61024b36600461322f565b610d61565b600054600160a01b900460ff1660405190151581526020016101fe565b6101dc61027b3660046132e7565b610e24565b600454610293906001600160a01b031681565b6040516001600160a01b0390911681526020016101fe565b6101dc610eda565b6103056102c136600461322f565b60076020526000908152604090208054600182015460028301546003840154600490940154929391929091906001600160a01b03811690600160a01b900460ff1686565b6040805196875260208701959095529385019290925260608401526001600160a01b03166080830152151560a082015260c0016101fe565b6101dc610eec565b610358610353366004613309565b610efc565b6040519081526020016101fe565b6101dc61037436600461322f565b610f2d565b6000546001600160a01b0316610293565b6101dc61039836600461322f565b6110a0565b600554610293906001600160a01b031681565b6103586103be366004613309565b61139f565b6103f56103d136600461322f565b60096020526000908152604090208054600182015460059092015490919060ff1683565b6040805193845260208401929092521515908201526060016101fe565b61041a6113bb565b6040516101fe919061341b565b600654610293906001600160a01b031681565b6101f16104483660046132e7565b6115c5565b6101dc61045b366004613553565b611732565b6101dc61046e36600461361e565b611c05565b61041a6121d6565b6101dc6104893660046132e7565b612415565b6104a161049c36600461322f565b61248b565b6040516101fe919061364a565b60008181526009602052604090206005015460ff166104e85760405162461bcd60e51b81526004016104df9061365d565b60405180910390fd5b6000805b60008381526009602052604090206002015481101561055c57600083815260096020526040902060020180543391908390811061052b5761052b6136ad565b6000918252602090912001546001600160a01b03160361054a57600191505b80610554816136d9565b9150506104ec565b508061057a5760405162461bcd60e51b81526004016104df906136f2565b60005b6000838152600960205260409020600401548110156106305760008381526009602052604090206004018054339190839081106105bc576105bc6136ad565b6000918252602090912001546001600160a01b03160361061e5760405162461bcd60e51b815260206004820152601760248201527f53656e64657220616c726561647920616363657074656400000000000000000060448201526064016104df565b80610628816136d9565b91505061057d565b506000828152600960209081526040822060040180546001810182559083529082200180546001600160a01b031916331790555b600083815260096020526040902060020154811015610862576006546000848152600960205260408120600201805491926001600160a01b03169163dd62ed3e9190859081106106b6576106b66136ad565b60009182526020909120015460405160e083901b6001600160e01b03191681526001600160a01b039091166004820152306024820152604401602060405180830381865afa15801561070c573d6000803e3d6000fd5b505050506040513d601f19601f820116820180604052508101906107309190613729565b600085815260096020526040902060030180549192509083908110610757576107576136ad565b906000526020600020015481101561084f5760005b60008581526009602052604090206004015481101561084d5760008581526009602052604090206002018054849081106107a8576107a86136ad565b60009182526020808320909101548783526009909152604090912060040180546001600160a01b0390921691839081106107e4576107e46136ad565b6000918252602090912001546001600160a01b03160361083b576000858152600960205260409020600401805484908110610821576108216136ad565b600091825260209091200180546001600160a01b03191690555b80610845816136d9565b91505061076c565b505b508061085a816136d9565b915050610664565b50600082815260096020526040902060028101546004909101540361090d576108a260405180606001604052806034815260200161393b603491396125e9565b6000828152600960205260409020600101546108be908361262c565b600082815260096020526040812081815560018101829055906108e460028301826130e3565b6108f26003830160006130e3565b6109006004830160006130e3565b50600501805460ff191690555b5050565b6060600061091e60025490565b67ffffffffffffffff8111156109365761093661347d565b60405190808252806020026020018201604052801561096f57816020015b61095c613101565b8152602001906001900390816109545790505b5090506000805b600254811015610a3f57600081815260076020526040902060010154859003610a2d57600081815260076020908152604091829020825160c08101845281548152600182015492810192909252600281015492820192909252600382015460608201526004909101546001600160a01b0381166080830152600160a01b900460ff16151560a08201528351849084908110610a1357610a136136ad565b60200260200101819052508180610a29906136d9565b9250505b80610a37816136d9565b915050610976565b50909392505050565b610a50612d66565b610a58612dc0565b565b610a62612e15565b6000818152600760205260409020600401546001600160a01b03163314610acb5760405162461bcd60e51b815260206004820152601e60248201527f4f6e6c792073656c6c65722063616e2064656c657465206c697374696e67000060448201526064016104df565b6000818152600760209081526040918290206001810154600282015460038301546004909301548551878152948501929092528385015260608301919091526001600160a01b0316608082015290517f9eec8eb2210167a0d90bf048cbbd21154b36b1941fa1413a1294343b0f38c5999181900360a00190a160008181526007602052604081208181556001810182905560028101829055600381019190915560040180546001600160a81b0319169055610b8560018055565b50565b60606000610b9560025490565b67ffffffffffffffff811115610bad57610bad61347d565b604051908082528060200260200182016040528015610be657816020015b610bd3613101565b815260200190600190039081610bcb5790505b50905060005b600254811015610ca55760008181526007602052604090206001015415610c9357600081815260076020908152604091829020825160c08101845281548152600182015492810192909252600281015492820192909252600382015460608201526004909101546001600160a01b0381166080830152600160a01b900460ff16151560a08201528251839083908110610c8757610c876136ad565b60200260200101819052505b80610c9d816136d9565b915050610bec565b50919050565b610cb3612d66565b6001600160a01b038116610cf85760405162461bcd60e51b815260206004820152600c60248201526b7a65726f206164647265737360a01b60448201526064016104df565b600554604080516001600160a01b03928316815291831660208301527f1a41fb6f752ad018610bf79716ec70546bbda4a0235520e04158d3c4f3486230910160405180910390a1600580546001600160a01b0319166001600160a01b0392909216919091179055565b60008181526009602052604090206005015460ff16610d925760405162461bcd60e51b81526004016104df9061365d565b6000805b600083815260096020526040902060020154811015610e06576000838152600960205260409020600201805433919083908110610dd557610dd56136ad565b6000918252602090912001546001600160a01b031603610df457600191505b80610dfe816136d9565b915050610d96565b50806108be5760405162461bcd60e51b81526004016104df906136f2565b610e2c612d66565b6001600160a01b038116610e715760405162461bcd60e51b815260206004820152600c60248201526b7a65726f206164647265737360a01b60448201526064016104df565b600454604080516001600160a01b03928316815291831660208301527f3c382290b39c0f8e7c9445f3393899e71f6f8b9a411021501c650ff68fa83b99910160405180910390a1600480546001600160a01b0319166001600160a01b0392909216919091179055565b610ee2612d66565b610a586000612e6e565b610ef4612d66565b610a58612ebe565b60086020528160005260406000208181548110610f1857600080fd5b90600052602060002001600091509150505481565b60008181526009602052604090206005015460ff16610f5e5760405162461bcd60e51b81526004016104df9061365d565b6000805b600083815260096020526040902060020154811015610fd2576000838152600960205260409020600201805433919083908110610fa157610fa16136ad565b6000918252602090912001546001600160a01b031603610fc057600191505b80610fca816136d9565b915050610f62565b5080610ff05760405162461bcd60e51b81526004016104df906136f2565b60005b60008381526009602052604090206004015481101561109b576000838152600960205260409020600401805433919083908110611032576110326136ad565b6000918252602090912001546001600160a01b03160361108957600083815260096020526040902060040180548290811061106f5761106f6136ad565b600091825260209091200180546001600160a01b03191690555b80611093816136d9565b915050610ff3565b505050565b6110a8612e15565b60008181526007602052604081206001015490036111025760405162461bcd60e51b81526020600482015260176024820152764c697374696e6720646f6573206e6f742065786973742160481b60448201526064016104df565b600081815260076020526040902060040154336001600160a01b039091160361113d5760405162461bcd60e51b81526004016104df90613742565b600081815260076020526040902060040154600160a01b900460ff1615156001146111aa5760405162461bcd60e51b815260206004820152601d60248201527f536861726573206c697374696e67206973206e6f74206163746976652100000060448201526064016104df565b6000818152600760208181526040808420815160c08101835281548152600182018054828601526002830180548386019081526003850180546060860152600480870180546001600160a01b0380821660808a01908152600160a01b830460ff16151560a08b01528f8f529c909b52978c9055948b9055928a9055989098556001600160a81b031990931690556006549451955192516323b872dd60e01b81523392810192909252948316602482015260448101919091529116906323b872dd906064016020604051808303816000875af115801561128d573d6000803e3d6000fd5b505050506040513d601f19601f820116820180604052508101906112b19190613784565b50600554608082015160208301516060840151604051637921219560e11b81526001600160a01b039094169363f242432a936112f393909233926004016137a6565b600060405180830381600087803b15801561130d57600080fd5b505af1158015611321573d6000803e3d6000fd5b50505060208083015160408085015160608087015160808089015185518b815297880196909652938601929092528401526001600160a01b03909116908201523360a08201527fb976e14df17a9b70d6dd3b3dcae82e3c877a71c73c5e950e486fe9918998e7ab915060c00160405180910390a150610b8560018055565b600a6020528160005260406000208181548110610f1857600080fd5b606060006113c860035490565b67ffffffffffffffff8111156113e0576113e061347d565b60405190808252806020026020018201604052801561141957816020015b611406613142565b8152602001906001900390816113fe5790505b50905060005b600354811015610ca55760008181526009602052604090206005015460ff16156115b357600081815260096020908152604091829020825160c08101845281548152600182015481840152600282018054855181860281018601875281815292959394938601938301828280156114bf57602002820191906000526020600020905b81546001600160a01b031681526001909101906020018083116114a1575b505050505081526020016003820180548060200260200160405190810160405280929190818152602001828054801561151757602002820191906000526020600020905b815481526020019060010190808311611503575b505050505081526020016004820180548060200260200160405190810160405280929190818152602001828054801561157957602002820191906000526020600020905b81546001600160a01b0316815260019091019060200180831161155b575b50505091835250506005919091015460ff16151560209091015282518390839081106115a7576115a76136ad565b60200260200101819052505b806115bd816136d9565b91505061141f565b6001600160a01b0381166000908152600860205260408120546060919067ffffffffffffffff8111156115fa576115fa61347d565b60405190808252806020026020018201604052801561163357816020015b611620613101565b8152602001906001900390816116185790505b50905060005b6001600160a01b03841660009081526008602052604090205481101561172b576001600160a01b03841660009081526008602052604081208054600792919084908110611688576116886136ad565b600091825260208083209091015483528281019390935260409182019020815160c0810183528154815260018201549381019390935260028101549183019190915260038101546060830152600401546001600160a01b038116608083015260ff600160a01b90910416151560a0820152825183908390811061170d5761170d6136ad565b60200260200101819052508080611723906136d9565b915050611639565b5092915050565b600083815260076020526040812060010154900361178b5760405162461bcd60e51b8152602060048201526016602482015275131a5cdd1a5b99c8191bd95cc81b9bdd08195e1a5cdd60521b60448201526064016104df565b600083815260076020526040902060040154600160a01b900460ff166117eb5760405162461bcd60e51b81526020600482015260156024820152744c697374696e67206973206e6f742061637469766560581b60448201526064016104df565b600182511161183c5760405162461bcd60e51b815260206004820152601e60248201527f4d7573742068617665206174206c65617374203220696e766573746f7273000060448201526064016104df565b80518251146118a25760405162461bcd60e51b815260206004820152602c60248201527f496e766573746f727320616e642073686172657320616d6f756e7473206c656e60448201526b0cee8d040dad2e6dac2e8c6d60a31b60648201526084016104df565b6000805b83518110156118e8578281815181106118c1576118c16136ad565b6020026020010151826118d491906137de565b9150806118e0816136d9565b9150506118a6565b5060008481526007602052604090206003015481146119635760405162461bcd60e51b815260206004820152603160248201527f546f74616c2073686172657320616d6f756e7420646f6573206e6f74206d617460448201527018da081b1a5cdd1a5b99c8185b5bdd5b9d607a1b60648201526084016104df565b6000805b8451811015611b39576000848281518110611984576119846136ad565b6020026020010151116119e55760405162461bcd60e51b8152602060048201526024808201527f53686172657320616d6f756e74206d75737420626520677265617465722074686044820152630616e20360e41b60648201526084016104df565b60006001600160a01b0316858281518110611a0257611a026136ad565b60200260200101516001600160a01b031603611a605760405162461bcd60e51b815260206004820152601e60248201527f496e766573746f7220616464726573732063616e6e6f7420626520307830000060448201526064016104df565b60008681526007602052604090206004015485516001600160a01b0390911690869083908110611a9257611a926136ad565b60200260200101516001600160a01b031603611af05760405162461bcd60e51b815260206004820152601960248201527f53656c6c65722063616e6e6f7420626520696e766573746f720000000000000060448201526064016104df565b336001600160a01b0316858281518110611b0c57611b0c6136ad565b60200260200101516001600160a01b031603611b2757600191505b80611b31816136d9565b915050611967565b5080611b575760405162461bcd60e51b81526004016104df906136f2565b600380546000818152600960209081526040808320938455600190930189905592548152208551611b909260029092019187019061317a565b508260096000611b9f60035490565b81526020019081526020016000206003019080519060200190611bc39291906131df565b50600160096000611bd360035490565b81526020810191909152604001600020600501805460ff19169115159190911790556003805460010190555050505050565b60048054604051634f558e7960e01b815291820185905284916001600160a01b0390911690634f558e7990602401602060405180830381865afa158015611c50573d6000803e3d6000fd5b505050506040513d601f19601f82011682018060405250810190611c749190613784565b611cb85760405162461bcd60e51b8152602060048201526015602482015274417373657420646f6573206e6f742065786973742160581b60448201526064016104df565b600554604051627eeac760e11b81523360048201819052602482018790529186916000916001600160a01b03169062fdd58e90604401602060405180830381865afa158015611d0b573d6000803e3d6000fd5b505050506040513d601f19601f82011682018060405250810190611d2f9190613729565b11611d6e5760405162461bcd60e51b815260206004820152600f60248201526e3737ba1039b430b932b437b63232b960891b60448201526064016104df565b611d76612e15565b60008511611db65760405162461bcd60e51b815260206004820152600d60248201526c1c1c9a58d9480f080c481554d1609a1b60448201526064016104df565b60008411611df35760405162461bcd60e51b815260206004820152600a602482015269616d6f756e74203c203160b01b60448201526064016104df565b60055460405163e985e9c560e01b81523360048201523060248201526001600160a01b039091169063e985e9c590604401602060405180830381865afa158015611e41573d6000803e3d6000fd5b505050506040513d601f19601f82011682018060405250810190611e659190613784565b611ea85760405162461bcd60e51b81526020600482015260146024820152731b9bdd08185c1c1c9bdd995908199bdc88185b1b60621b60448201526064016104df565b8360005b33600090815260086020526040902054811015611fc95733600090815260086020526040812080548a92600792909185908110611eeb57611eeb6136ad565b9060005260206000200154815260200190815260200160002060010154148015611f6157503360009081526008602052604081208054600792919084908110611f3657611f366136ad565b9060005260206000200154815260200190815260200160002060040160149054906101000a900460ff165b15611fb7573360009081526008602052604081208054600792919084908110611f8c57611f8c6136ad565b906000526020600020015481526020019081526020016000206003015482611fb491906137de565b91505b80611fc1816136d9565b915050611eac565b50600554604051627eeac760e11b8152336004820152602481018990526001600160a01b039091169062fdd58e90604401602060405180830381865afa158015612017573d6000803e3d6000fd5b505050506040513d601f19601f8201168201806040525081019061203b9190613729565b81111561207e5760405162461bcd60e51b81526020600482015260116024820152706e6f7420656e6f7567682073686172657360781b60448201526064016104df565b6040518060c0016040528061209260025490565b8152602081018990526040810188905260608101879052336080820152600160a090910152600760006120c460025490565b81526020808201929092526040908101600090812084518155848401516001820155848301516002808301919091556060860151600383015560808601516004909201805460a0909701511515600160a01b026001600160a81b03199097166001600160a01b0390931692909217959095179055338152600890925290209061214b905490565b815460018101835560009283526020909220909101557f97dcdac6c7238ca7fc3ad41c8a17e1ac9825015db181b6f7d0a8e444dbd1128661218b60025490565b60408051918252602082018a905281018890526060810187905233608082015260a00160405180910390a16121c4600280546001019055565b506121ce60018055565b505050505050565b336000908152600a60205260408120546060919067ffffffffffffffff8111156122025761220261347d565b60405190808252806020026020018201604052801561223b57816020015b612228613142565b8152602001906001900390816122205790505b50905060005b336000908152600a6020526040902054811015610ca557336000908152600a60205260408120805460099291908490811061227e5761227e6136ad565b906000526020600020015481526020019081526020016000206040518060c001604052908160008201548152602001600182015481526020016002820180548060200260200160405190810160405280929190818152602001828054801561230f57602002820191906000526020600020905b81546001600160a01b031681526001909101906020018083116122f1575b505050505081526020016003820180548060200260200160405190810160405280929190818152602001828054801561236757602002820191906000526020600020905b815481526020019060010190808311612353575b50505050508152602001600482018054806020026020016040519081016040528092919081815260200182805480156123c957602002820191906000526020600020905b81546001600160a01b031681526001909101906020018083116123ab575b50505091835250506005919091015460ff16151560209091015282518390839081106123f7576123f76136ad565b6020026020010181905250808061240d906136d9565b915050612241565b61241d612d66565b6001600160a01b0381166124825760405162461bcd60e51b815260206004820152602660248201527f4f776e61626c653a206e6577206f776e657220697320746865207a65726f206160448201526564647265737360d01b60648201526084016104df565b610b8581612e6e565b612493613142565b600082815260096020908152604091829020825160c081018452815481526001820154818401526002820180548551818602810186018752818152929593949386019383018282801561250f57602002820191906000526020600020905b81546001600160a01b031681526001909101906020018083116124f1575b505050505081526020016003820180548060200260200160405190810160405280929190818152602001828054801561256757602002820191906000526020600020905b815481526020019060010190808311612553575b50505050508152602001600482018054806020026020016040519081016040528092919081815260200182805480156125c957602002820191906000526020600020905b81546001600160a01b031681526001909101906020018083116125ab575b50505091835250506005919091015460ff16151560209091015292915050565b610b85816040516024016125fd919061383d565b60408051601f198184030181529190526020810180516001600160e01b031663104c13eb60e21b179052612f01565b612634612e15565b6126576040518060600160405280603381526020016139be603391398383612f22565b6126a3604051806060016040528060318152602001613a3a60319139600084815260076020526040902060018101546002820154600490920154909190600160a01b900460ff16612f69565b60008281526007602052604081206001015490036126fd5760405162461bcd60e51b81526020600482015260176024820152764c697374696e6720646f6573206e6f742065786973742160481b60448201526064016104df565b600082815260076020526040902060040154336001600160a01b03909116036127385760405162461bcd60e51b81526004016104df90613742565b600082815260076020526040902060040154600160a01b900460ff1615156001146127a55760405162461bcd60e51b815260206004820152601d60248201527f536861726573206c697374696e67206973206e6f74206163746976652100000060448201526064016104df565b6127c66040518060600160405280602581526020016139f1602591396125e9565b6000828152600760209081526040808320815160c08082018452825482526001808401805484880152600280860180548689015260038701805460608801526004880180546001600160a01b03811660808a015260ff600160a01b820416151560a08a0152988c9055938b9055908a90558990556001600160a81b031990951690558787526009865284872085519283018652805483529081015482870152928301805485518188028101880187528181529397969295860193928301828280156128ba57602002820191906000526020600020905b81546001600160a01b0316815260019091019060200180831161289c575b505050505081526020016003820180548060200260200160405190810160405280929190818152602001828054801561291257602002820191906000526020600020905b8154815260200190600101908083116128fe575b505050505081526020016004820180548060200260200160405190810160405280929190818152602001828054801561297457602002820191906000526020600020905b81546001600160a01b03168152600190910190602001808311612956575b50505091835250506005919091015460ff161515602091820152604080516060810190915260238082529293506129c692909161396f90830139620f424084604001516129c19190613850565b612fb8565b60005b816040015151811015612d5a576000836060015160646129e99190613872565b836060015183815181106129ff576129ff6136ad565b60200260200101516064612a139190613872565b612a1d9190613850565b9050612a63604051806060016040528060248152602001613a166024913984606001518481518110612a5157612a516136ad565b60200260200101518660600151612f22565b600084606001518560400151612a799190613850565b9050612ac36040518060400160405280601b81526020017f3d2045564d203d205072696365207065722053686172653a2025730000000000815250620f4240836129c19190613850565b600084606001518481518110612adb57612adb6136ad565b602002602001015182612aee9190613872565b9050612b2c604051806040016040528060118152602001703d2045564d203d2050726963653a20257360781b815250620f4240836129c19190613850565b612b7d604051806060016040528060298152602001613a6b60299139612b55620f424084613850565b87604001518781518110612b6b57612b6b6136ad565b60200260200101518960800151612ffd565b600654604086015180516001600160a01b03909216916323b872dd919087908110612baa57612baa6136ad565b602090810291909101015160808901516040516001600160e01b031960e085901b1681526001600160a01b03928316600482015291166024820152604481018490526064016020604051808303816000875af1158015612c0e573d6000803e3d6000fd5b505050506040513d601f19601f82011682018060405250810190612c329190613784565b50612c956040518060600160405280602c8152602001613992602c913986606001518681518110612c6557612c656136ad565b6020026020010151886080015188604001518881518110612c8857612c886136ad565b6020026020010151612ffd565b6005546080870151604087015180516001600160a01b039093169263f242432a92919088908110612cc857612cc86136ad565b6020026020010151896020015189606001518981518110612ceb57612ceb6136ad565b60200260200101516040518563ffffffff1660e01b8152600401612d1294939291906137a6565b600060405180830381600087803b158015612d2c57600080fd5b505af1158015612d40573d6000803e3d6000fd5b505050505050508080612d52906136d9565b9150506129c9565b50505061090d60018055565b6000546001600160a01b03163314610a585760405162461bcd60e51b815260206004820181905260248201527f4f776e61626c653a2063616c6c6572206973206e6f7420746865206f776e657260448201526064016104df565b612dc8613046565b6000805460ff60a01b191690557f5db9ee0a495bf2e6ff9c91a7834c1ba4fdd244a5e8aa4e537bd38aeae4b073aa335b6040516001600160a01b03909116815260200160405180910390a1565b600260015403612e675760405162461bcd60e51b815260206004820152601f60248201527f5265656e7472616e637947756172643a207265656e7472616e742063616c6c0060448201526064016104df565b6002600155565b600080546001600160a01b038381166001600160a01b0319831681178455604051919092169283917f8be0079c531659141344cd1fd0a4f28419497f9722a3daafe3b4186f6b6457e09190a35050565b612ec6613096565b6000805460ff60a01b1916600160a01b1790557f62e78cea01bee320cd4e420270b5ea74000d11b0c9f74754ebdbfc544b05a258612df83390565b80516a636f6e736f6c652e6c6f67602083016000808483855afa5050505050565b61109b838383604051602401612f3a93929190613889565b60408051601f198184030181529190526020810180516001600160e01b031663ca47c4eb60e01b179052612f01565b612fb284848484604051602401612f8394939291906138ae565b60408051601f198184030181529190526020810180516001600160e01b0316633b136dc960e11b179052612f01565b50505050565b61090d8282604051602401612fce9291906138df565b60408051601f198184030181529190526020810180516001600160e01b0316632d839cb360e21b179052612f01565b612fb2848484846040516024016130179493929190613901565b60408051601f198184030181529190526020810180516001600160e01b0316632f515bd760e11b179052612f01565b600054600160a01b900460ff16610a585760405162461bcd60e51b815260206004820152601460248201527314185d5cd8589b194e881b9bdd081c185d5cd95960621b60448201526064016104df565b600054600160a01b900460ff1615610a585760405162461bcd60e51b815260206004820152601060248201526f14185d5cd8589b194e881c185d5cd95960821b60448201526064016104df565b5080546000825590600052602060002090810190610b85919061321a565b6040518060c001604052806000815260200160008152602001600081526020016000815260200160006001600160a01b031681526020016000151581525090565b6040518060c0016040528060008152602001600081526020016060815260200160608152602001606081526020016000151581525090565b8280548282559060005260206000209081019282156131cf579160200282015b828111156131cf57825182546001600160a01b0319166001600160a01b0390911617825560209092019160019091019061319a565b506131db92915061321a565b5090565b8280548282559060005260206000209081019282156131cf579160200282015b828111156131cf5782518255916020019190600101906131ff565b5b808211156131db576000815560010161321b565b60006020828403121561324157600080fd5b5035919050565b602080825282518282018190526000919060409081850190868401855b828110156132be5781518051855286810151878601528581015186860152606080820151908601526080808201516001600160a01b03169086015260a09081015115159085015260c09093019290850190600101613265565b5091979650505050505050565b80356001600160a01b03811681146132e257600080fd5b919050565b6000602082840312156132f957600080fd5b613302826132cb565b9392505050565b6000806040838503121561331c57600080fd5b613325836132cb565b946020939093013593505050565b600081518084526020808501945080840160005b8381101561336c5781516001600160a01b031687529582019590820190600101613347565b509495945050505050565b80518252600060208083015181850152604083015160c060408601526133a060c0860182613333565b60608581015187830391880191909152805180835290840192506000918401905b808310156133e157835182529284019260019290920191908401906133c1565b506080860151935086810360808801526133fb8185613333565b935050505060a083015161341360a086018215159052565b509392505050565b6000602080830181845280855180835260408601915060408160051b870101925083870160005b8281101561347057603f1988860301845261345e858351613377565b94509285019290850190600101613442565b5092979650505050505050565b634e487b7160e01b600052604160045260246000fd5b604051601f8201601f1916810167ffffffffffffffff811182821017156134bc576134bc61347d565b604052919050565b600067ffffffffffffffff8211156134de576134de61347d565b5060051b60200190565b600082601f8301126134f957600080fd5b8135602061350e613509836134c4565b613493565b82815260059290921b8401810191818101908684111561352d57600080fd5b8286015b848110156135485780358352918301918301613531565b509695505050505050565b60008060006060848603121561356857600080fd5b8335925060208085013567ffffffffffffffff8082111561358857600080fd5b818701915087601f83011261359c57600080fd5b81356135aa613509826134c4565b81815260059190911b8301840190848101908a8311156135c957600080fd5b938501935b828510156135ee576135df856132cb565b825293850193908501906135ce565b96505050604087013592508083111561360657600080fd5b5050613614868287016134e8565b9150509250925092565b60008060006060848603121561363357600080fd5b505081359360208301359350604090920135919050565b6020815260006133026020830184613377565b60208082526030908201527f47726f757020696e766573746d656e74206973206e6f7420616374697665206f60408201526f1c88191bd95cc81b9bdd08195e1a5cdd60821b606082015260800190565b634e487b7160e01b600052603260045260246000fd5b634e487b7160e01b600052601160045260246000fd5b6000600182016136eb576136eb6136c3565b5060010190565b60208082526017908201527f53656e646572206d75737420626520696e766573746f72000000000000000000604082015260600190565b60006020828403121561373b57600080fd5b5051919050565b60208082526022908201527f53656c6c65722063616e6e6f7420627579207468656972206f776e2073686172604082015261657360f01b606082015260800190565b60006020828403121561379657600080fd5b8151801515811461330257600080fd5b6001600160a01b0394851681529290931660208301526040820152606081019190915260a06080820181905260009082015260c00190565b808201808211156137f1576137f16136c3565b92915050565b6000815180845260005b8181101561381d57602081850181015186830182015201613801565b506000602082860101526020601f19601f83011685010191505092915050565b60208152600061330260208301846137f7565b60008261386d57634e487b7160e01b600052601260045260246000fd5b500490565b80820281158282048414176137f1576137f16136c3565b60608152600061389c60608301866137f7565b60208301949094525060400152919050565b6080815260006138c160808301876137f7565b60208301959095525060408101929092521515606090910152919050565b6040815260006138f260408301856137f7565b90508260208301529392505050565b60808152600061391460808301876137f7565b6020830195909552506001600160a01b039283166040820152911660609091015291905056fe3d2045564d203d20416c6c20696e766573746f72732061636365707465642c2070757263686173696e67207368617265732e2e2e3d2045564d203d204c697374696e6720546f74616c2050726963653a202573205553443d2045564d203d205472616e7366657272696e67202573205368617265732066726f6d20257320746f2025733d2045564d203d2070757263686173655368617265734c697374696e674672616374696f6e616c697a65642825732c202573293d2045564d203d2050617373656420616c6c20726571756972652073746174656d656e74733d2045564d203d20427579696e67202573206f6620257320546f74616c205368617265733d2045564d203d204c697374696e67200a546f6b656e2049443a20257350726963653a2025730a4163746976653a2025733d2045564d203d205472616e7366657272696e67202573205553442066726f6d20257320746f202573a264697066735822122069001ccd7bed11eb7c3cb49e9b041b2a011aa32490ea6614ee5a1c12bc6dc71464736f6c63430008120033",
  "linkReferences": {},
  "deployedLinkReferences": {}
}