{
  "_format": "hh-sol-artifact-1",
  "contractName": "BlockEstateMarket",
  "sourceName": "contracts/BlockEstateMarket.sol",
  "abi": [
    {
      "inputs": [
        {
          "internalType": "address",
          "name": "_blockEstateAssetsAddress",
          "type": "address"
        },
        {
          "internalType": "address",
          "name": "_blockEstateSharesAddress",
          "type": "address"
        }
      ],
      "stateMutability": "nonpayable",
      "type": "constructor"
    },
    {
      "anonymous": false,
      "inputs": [
        {
          "indexed": false,
          "internalType": "uint256",
          "name": "tokenId",
          "type": "uint256"
        },
        {
          "indexed": false,
          "internalType": "uint256",
          "name": "price",
          "type": "uint256"
        }
      ],
      "name": "AssetListingCreated",
      "type": "event"
    },
    {
      "anonymous": false,
      "inputs": [
        {
          "indexed": false,
          "internalType": "uint256",
          "name": "tokenId",
          "type": "uint256"
        },
        {
          "indexed": false,
          "internalType": "address",
          "name": "seller",
          "type": "address"
        },
        {
          "indexed": false,
          "internalType": "address",
          "name": "buyer",
          "type": "address"
        }
      ],
      "name": "AssetListingPurchased",
      "type": "event"
    },
    {
      "anonymous": false,
      "inputs": [
        {
          "indexed": true,
          "internalType": "address",
          "name": "previousOwner",
          "type": "address"
        },
        {
          "indexed": true,
          "internalType": "address",
          "name": "newOwner",
          "type": "address"
        }
      ],
      "name": "OwnershipTransferred",
      "type": "event"
    },
    {
      "anonymous": false,
      "inputs": [
        {
          "indexed": false,
          "internalType": "address",
          "name": "account",
          "type": "address"
        }
      ],
      "name": "Paused",
      "type": "event"
    },
    {
      "anonymous": false,
      "inputs": [
        {
          "indexed": false,
          "internalType": "uint256",
          "name": "tokenId",
          "type": "uint256"
        },
        {
          "indexed": false,
          "internalType": "uint256",
          "name": "price",
          "type": "uint256"
        },
        {
          "indexed": false,
          "internalType": "uint256",
          "name": "amount",
          "type": "uint256"
        },
        {
          "indexed": false,
          "internalType": "address",
          "name": "seller",
          "type": "address"
        }
      ],
      "name": "SharesListingCreated",
      "type": "event"
    },
    {
      "anonymous": false,
      "inputs": [
        {
          "indexed": false,
          "internalType": "uint256",
          "name": "tokenId",
          "type": "uint256"
        },
        {
          "indexed": false,
          "internalType": "uint256",
          "name": "price",
          "type": "uint256"
        },
        {
          "indexed": false,
          "internalType": "uint256",
          "name": "amount",
          "type": "uint256"
        },
        {
          "indexed": false,
          "internalType": "address",
          "name": "seller",
          "type": "address"
        },
        {
          "indexed": false,
          "internalType": "address",
          "name": "buyer",
          "type": "address"
        }
      ],
      "name": "SharesListingPurchased",
      "type": "event"
    },
    {
      "anonymous": false,
      "inputs": [
        {
          "indexed": false,
          "internalType": "address",
          "name": "account",
          "type": "address"
        }
      ],
      "name": "Unpaused",
      "type": "event"
    },
    {
      "inputs": [
        {
          "internalType": "uint256",
          "name": "",
          "type": "uint256"
        }
      ],
      "name": "assetListings",
      "outputs": [
        {
          "internalType": "uint256",
          "name": "tokenId",
          "type": "uint256"
        },
        {
          "internalType": "uint256",
          "name": "price",
          "type": "uint256"
        },
        {
          "internalType": "address",
          "name": "seller",
          "type": "address"
        },
        {
          "internalType": "address",
          "name": "buyer",
          "type": "address"
        },
        {
          "internalType": "bool",
          "name": "isSold",
          "type": "bool"
        },
        {
          "internalType": "bool",
          "name": "isActive",
          "type": "bool"
        }
      ],
      "stateMutability": "view",
      "type": "function"
    },
    {
      "inputs": [],
      "name": "blockEstateAssetsAddress",
      "outputs": [
        {
          "internalType": "address",
          "name": "",
          "type": "address"
        }
      ],
      "stateMutability": "view",
      "type": "function"
    },
    {
      "inputs": [],
      "name": "blockEstateSharesAddress",
      "outputs": [
        {
          "internalType": "address",
          "name": "",
          "type": "address"
        }
      ],
      "stateMutability": "view",
      "type": "function"
    },
    {
      "inputs": [
        {
          "internalType": "uint256",
          "name": "tokenId",
          "type": "uint256"
        },
        {
          "internalType": "uint256",
          "name": "price",
          "type": "uint256"
        }
      ],
      "name": "createAssetListing",
      "outputs": [],
      "stateMutability": "nonpayable",
      "type": "function"
    },
    {
      "inputs": [
        {
          "internalType": "uint256",
          "name": "tokenId",
          "type": "uint256"
        },
        {
          "internalType": "uint256",
          "name": "price",
          "type": "uint256"
        },
        {
          "internalType": "uint256",
          "name": "amount",
          "type": "uint256"
        }
      ],
      "name": "createSharesListing",
      "outputs": [],
      "stateMutability": "nonpayable",
      "type": "function"
    },
    {
      "inputs": [],
      "name": "owner",
      "outputs": [
        {
          "internalType": "address",
          "name": "",
          "type": "address"
        }
      ],
      "stateMutability": "view",
      "type": "function"
    },
    {
      "inputs": [],
      "name": "pause",
      "outputs": [],
      "stateMutability": "nonpayable",
      "type": "function"
    },
    {
      "inputs": [],
      "name": "paused",
      "outputs": [
        {
          "internalType": "bool",
          "name": "",
          "type": "bool"
        }
      ],
      "stateMutability": "view",
      "type": "function"
    },
    {
      "inputs": [
        {
          "internalType": "uint256",
          "name": "tokenId",
          "type": "uint256"
        }
      ],
      "name": "purchaseAssetListing",
      "outputs": [],
      "stateMutability": "payable",
      "type": "function"
    },
    {
      "inputs": [
        {
          "internalType": "uint256",
          "name": "listingId",
          "type": "uint256"
        }
      ],
      "name": "purchaseSharesListing",
      "outputs": [],
      "stateMutability": "payable",
      "type": "function"
    },
    {
      "inputs": [],
      "name": "readAllAssetListings",
      "outputs": [
        {
          "components": [
            {
              "internalType": "uint256",
              "name": "tokenId",
              "type": "uint256"
            },
            {
              "internalType": "uint256",
              "name": "price",
              "type": "uint256"
            },
            {
              "internalType": "address",
              "name": "seller",
              "type": "address"
            },
            {
              "internalType": "address",
              "name": "buyer",
              "type": "address"
            },
            {
              "internalType": "bool",
              "name": "isSold",
              "type": "bool"
            },
            {
              "internalType": "bool",
              "name": "isActive",
              "type": "bool"
            }
          ],
          "internalType": "struct BlockEstateMarket.AssetListing[]",
          "name": "",
          "type": "tuple[]"
        }
      ],
      "stateMutability": "view",
      "type": "function"
    },
    {
      "inputs": [],
      "name": "readAllSharesListings",
      "outputs": [
        {
          "components": [
            {
              "internalType": "uint256",
              "name": "tokenId",
              "type": "uint256"
            },
            {
              "internalType": "uint256",
              "name": "price",
              "type": "uint256"
            },
            {
              "internalType": "uint256",
              "name": "amount",
              "type": "uint256"
            },
            {
              "internalType": "address",
              "name": "seller",
              "type": "address"
            },
            {
              "internalType": "bool",
              "name": "isActive",
              "type": "bool"
            }
          ],
          "internalType": "struct BlockEstateMarket.SharesListing[]",
          "name": "",
          "type": "tuple[]"
        }
      ],
      "stateMutability": "view",
      "type": "function"
    },
    {
      "inputs": [
        {
          "internalType": "address",
          "name": "account",
          "type": "address"
        }
      ],
      "name": "readListingsByAccount",
      "outputs": [
        {
          "components": [
            {
              "internalType": "uint256",
              "name": "tokenId",
              "type": "uint256"
            },
            {
              "internalType": "uint256",
              "name": "price",
              "type": "uint256"
            },
            {
              "internalType": "uint256",
              "name": "amount",
              "type": "uint256"
            },
            {
              "internalType": "address",
              "name": "seller",
              "type": "address"
            },
            {
              "internalType": "bool",
              "name": "isActive",
              "type": "bool"
            }
          ],
          "internalType": "struct BlockEstateMarket.SharesListing[]",
          "name": "",
          "type": "tuple[]"
        }
      ],
      "stateMutability": "view",
      "type": "function"
    },
    {
      "inputs": [],
      "name": "renounceOwnership",
      "outputs": [],
      "stateMutability": "nonpayable",
      "type": "function"
    },
    {
      "inputs": [
        {
          "internalType": "address",
          "name": "_blockEstateAssetsAddress",
          "type": "address"
        }
      ],
      "name": "setBlockEstateAssetsAddress",
      "outputs": [],
      "stateMutability": "nonpayable",
      "type": "function"
    },
    {
      "inputs": [
        {
          "internalType": "address",
          "name": "_blockEstateSharesAddress",
          "type": "address"
        }
      ],
      "name": "setBlockEstateSharesAddress",
      "outputs": [],
      "stateMutability": "nonpayable",
      "type": "function"
    },
    {
      "inputs": [
        {
          "internalType": "uint256",
          "name": "",
          "type": "uint256"
        }
      ],
      "name": "sharesListings",
      "outputs": [
        {
          "internalType": "uint256",
          "name": "tokenId",
          "type": "uint256"
        },
        {
          "internalType": "uint256",
          "name": "price",
          "type": "uint256"
        },
        {
          "internalType": "uint256",
          "name": "amount",
          "type": "uint256"
        },
        {
          "internalType": "address",
          "name": "seller",
          "type": "address"
        },
        {
          "internalType": "bool",
          "name": "isActive",
          "type": "bool"
        }
      ],
      "stateMutability": "view",
      "type": "function"
    },
    {
      "inputs": [
        {
          "internalType": "address",
          "name": "newOwner",
          "type": "address"
        }
      ],
      "name": "transferOwnership",
      "outputs": [],
      "stateMutability": "nonpayable",
      "type": "function"
    },
    {
      "inputs": [],
      "name": "unpause",
      "outputs": [],
      "stateMutability": "nonpayable",
      "type": "function"
    },
    {
      "inputs": [
        {
          "internalType": "address",
          "name": "",
          "type": "address"
        },
        {
          "internalType": "uint256",
          "name": "",
          "type": "uint256"
        }
      ],
      "name": "userListings",
      "outputs": [
        {
          "internalType": "uint256",
          "name": "",
          "type": "uint256"
        }
      ],
      "stateMutability": "view",
      "type": "function"
    }
  ],
  "bytecode": "0x60806040523480156200001157600080fd5b50604051620038b4380380620038b4833981810160405281019062000037919062000238565b620000576200004b6200010260201b60201c565b6200010a60201b60201c565b60008060146101000a81548160ff0219169083151502179055506001808190555081600360006101000a81548173ffffffffffffffffffffffffffffffffffffffff021916908373ffffffffffffffffffffffffffffffffffffffff16021790555080600460006101000a81548173ffffffffffffffffffffffffffffffffffffffff021916908373ffffffffffffffffffffffffffffffffffffffff16021790555050506200027f565b600033905090565b60008060009054906101000a900473ffffffffffffffffffffffffffffffffffffffff169050816000806101000a81548173ffffffffffffffffffffffffffffffffffffffff021916908373ffffffffffffffffffffffffffffffffffffffff1602179055508173ffffffffffffffffffffffffffffffffffffffff168173ffffffffffffffffffffffffffffffffffffffff167f8be0079c531659141344cd1fd0a4f28419497f9722a3daafe3b4186f6b6457e060405160405180910390a35050565b600080fd5b600073ffffffffffffffffffffffffffffffffffffffff82169050919050565b60006200020082620001d3565b9050919050565b6200021281620001f3565b81146200021e57600080fd5b50565b600081519050620002328162000207565b92915050565b60008060408385031215620002525762000251620001ce565b5b6000620002628582860162000221565b9250506020620002758582860162000221565b9150509250929050565b613625806200028f6000396000f3fe60806040526004361061011f5760003560e01c806386cfa7d3116100a0578063acfb2eb311610064578063acfb2eb314610397578063bc056d24146103b3578063d956c104146103de578063eb9e00b91461041b578063f2fde38b146104445761011f565b806386cfa7d3146102a65780638da5cb5b146102e35780639a5d65241461030e5780639bdec1a81461032a5780639f653c511461036c5761011f565b806363571e65116100e757806363571e65146101e35780636b78018b1461020c578063715018a6146102375780637716e5731461024e5780638456cb591461028f5761011f565b806321d5c71b146101245780633f4ba83a1461014d5780634e697728146101645780635131e4e71461018f5780635c975abb146101b8575b600080fd5b34801561013057600080fd5b5061014b6004803603810190610146919061246c565b61046d565b005b34801561015957600080fd5b506101626107a9565b005b34801561017057600080fd5b506101796107bb565b604051610186919061262e565b60405180910390f35b34801561019b57600080fd5b506101b660048036038101906101b1919061267c565b610938565b005b3480156101c457600080fd5b506101cd610984565b6040516101da91906126b8565b60405180910390f35b3480156101ef57600080fd5b5061020a6004803603810190610205919061267c565b61099a565b005b34801561021857600080fd5b506102216109e6565b60405161022e91906126e2565b60405180910390f35b34801561024357600080fd5b5061024c610a0c565b005b34801561025a57600080fd5b50610275600480360381019061027091906126fd565b610a20565b604051610286959493929190612739565b60405180910390f35b34801561029b57600080fd5b506102a4610a83565b005b3480156102b257600080fd5b506102cd60048036038101906102c8919061278c565b610a95565b6040516102da91906127cc565b60405180910390f35b3480156102ef57600080fd5b506102f8610ac6565b60405161030591906126e2565b60405180910390f35b610328600480360381019061032391906126fd565b610aef565b005b34801561033657600080fd5b50610351600480360381019061034c91906126fd565b610ec8565b604051610363969594939291906127e7565b60405180910390f35b34801561037857600080fd5b50610381610f5e565b60405161038e91906126e2565b60405180910390f35b6103b160048036038101906103ac91906126fd565b610f84565b005b3480156103bf57600080fd5b506103c861148c565b6040516103d59190612972565b60405180910390f35b3480156103ea57600080fd5b506104056004803603810190610400919061267c565b61170c565b604051610412919061262e565b60405180910390f35b34801561042757600080fd5b50610442600480360381019061043d9190612994565b611938565b005b34801561045057600080fd5b5061046b6004803603810190610466919061267c565b611fe3565b005b813373ffffffffffffffffffffffffffffffffffffffff16600360009054906101000a900473ffffffffffffffffffffffffffffffffffffffff1673ffffffffffffffffffffffffffffffffffffffff16636352211e836040518263ffffffff1660e01b81526004016104e091906127cc565b602060405180830381865afa1580156104fd573d6000803e3d6000fd5b505050506040513d601f19601f8201168201806040525081019061052191906129fc565b73ffffffffffffffffffffffffffffffffffffffff1614610577576040517f08c379a000000000000000000000000000000000000000000000000000000000815260040161056e90612a86565b60405180910390fd5b600082116105ba576040517f08c379a00000000000000000000000000000000000000000000000000000000081526004016105b190612af2565b60405180910390fd5b6000600560008581526020019081526020016000206000015414610613576040517f08c379a000000000000000000000000000000000000000000000000000000000815260040161060a90612b5e565b60405180910390fd5b6040518060c001604052808481526020018381526020013373ffffffffffffffffffffffffffffffffffffffff168152602001600073ffffffffffffffffffffffffffffffffffffffff1681526020016000151581526020016001151581525060056000858152602001908152602001600020600082015181600001556020820151816001015560408201518160020160006101000a81548173ffffffffffffffffffffffffffffffffffffffff021916908373ffffffffffffffffffffffffffffffffffffffff16021790555060608201518160030160006101000a81548173ffffffffffffffffffffffffffffffffffffffff021916908373ffffffffffffffffffffffffffffffffffffffff16021790555060808201518160030160146101000a81548160ff02191690831515021790555060a08201518160030160156101000a81548160ff0219169083151502179055509050507ff1a91e6f24c2fde773766e074a64a2f99ad10d6912a29bfc44b32db0a7accf25838360405161079c929190612b7e565b60405180910390a1505050565b6107b1612066565b6107b96120e4565b565b606060006107c96002612146565b67ffffffffffffffff8111156107e2576107e1612ba7565b5b60405190808252806020026020018201604052801561081b57816020015b610808612384565b8152602001906001900390816108005790505b50905060005b61082b6002612146565b8110156109305760006006600083815260200190815260200160002060000154111561091d57600660008281526020019081526020016000206040518060a00160405290816000820154815260200160018201548152602001600282015481526020016003820160009054906101000a900473ffffffffffffffffffffffffffffffffffffffff1673ffffffffffffffffffffffffffffffffffffffff1673ffffffffffffffffffffffffffffffffffffffff1681526020016003820160149054906101000a900460ff16151515158152505082828151811061091157610910612bd6565b5b60200260200101819052505b808061092890612c34565b915050610821565b508091505090565b610940612066565b80600460006101000a81548173ffffffffffffffffffffffffffffffffffffffff021916908373ffffffffffffffffffffffffffffffffffffffff16021790555050565b60008060149054906101000a900460ff16905090565b6109a2612066565b80600360006101000a81548173ffffffffffffffffffffffffffffffffffffffff021916908373ffffffffffffffffffffffffffffffffffffffff16021790555050565b600360009054906101000a900473ffffffffffffffffffffffffffffffffffffffff1681565b610a14612066565b610a1e6000612154565b565b60066020528060005260406000206000915090508060000154908060010154908060020154908060030160009054906101000a900473ffffffffffffffffffffffffffffffffffffffff16908060030160149054906101000a900460ff16905085565b610a8b612066565b610a93612218565b565b60076020528160005260406000208181548110610ab157600080fd5b90600052602060002001600091509150505481565b60008060009054906101000a900473ffffffffffffffffffffffffffffffffffffffff16905090565b610af761227b565b6000600660008381526020019081526020016000206000015403610b50576040517f08c379a0000000000000000000000000000000000000000000000000000000008152600401610b4790612cc8565b60405180910390fd5b34600660008381526020019081526020016000206001015414610ba8576040517f08c379a0000000000000000000000000000000000000000000000000000000008152600401610b9f90612d34565b60405180910390fd5b600115156006600083815260200190815260200160002060030160149054906101000a900460ff16151514610c12576040517f08c379a0000000000000000000000000000000000000000000000000000000008152600401610c0990612da0565b60405180910390fd5b60006006600083815260200190815260200160002060030160146101000a81548160ff021916908315150217905550600460009054906101000a900473ffffffffffffffffffffffffffffffffffffffff1673ffffffffffffffffffffffffffffffffffffffff1663f242432a6006600084815260200190815260200160002060030160009054906101000a900473ffffffffffffffffffffffffffffffffffffffff1633600660008681526020019081526020016000206000015460066000878152602001908152602001600020600201546040518563ffffffff1660e01b8152600401610d049493929190612df7565b600060405180830381600087803b158015610d1e57600080fd5b505af1158015610d32573d6000803e3d6000fd5b505050506006600082815260200190815260200160002060030160009054906101000a900473ffffffffffffffffffffffffffffffffffffffff1673ffffffffffffffffffffffffffffffffffffffff166108fc349081150290604051600060405180830381858888f19350505050158015610db2573d6000803e3d6000fd5b507fee0acbddd62d134da6741ba70c47de82baec0b42b8162d791cb11d569bcea7ca60066000838152602001908152602001600020600001543460066000858152602001908152602001600020600201546006600086815260200190815260200160002060030160009054906101000a900473ffffffffffffffffffffffffffffffffffffffff1633604051610e4c959493929190612e4f565b60405180910390a160066000828152602001908152602001600020600080820160009055600182016000905560028201600090556003820160006101000a81549073ffffffffffffffffffffffffffffffffffffffff02191690556003820160146101000a81549060ff02191690555050610ec56122ca565b50565b60056020528060005260406000206000915090508060000154908060010154908060020160009054906101000a900473ffffffffffffffffffffffffffffffffffffffff16908060030160009054906101000a900473ffffffffffffffffffffffffffffffffffffffff16908060030160149054906101000a900460ff16908060030160159054906101000a900460ff16905086565b600460009054906101000a900473ffffffffffffffffffffffffffffffffffffffff1681565b610f8c61227b565b6000600560008381526020019081526020016000206000015403610fe5576040517f08c379a0000000000000000000000000000000000000000000000000000000008152600401610fdc90612eee565b60405180910390fd5b3460056000838152602001908152602001600020600101541461103d576040517f08c379a000000000000000000000000000000000000000000000000000000000815260040161103490612d34565b60405180910390fd5b600115156005600083815260200190815260200160002060030160159054906101000a900460ff161515146110a7576040517f08c379a000000000000000000000000000000000000000000000000000000000815260040161109e90612f5a565b60405180910390fd5b600015156005600083815260200190815260200160002060030160149054906101000a900460ff16151514611111576040517f08c379a000000000000000000000000000000000000000000000000000000000815260040161110890612fc6565b60405180910390fd5b336005600083815260200190815260200160002060030160006101000a81548173ffffffffffffffffffffffffffffffffffffffff021916908373ffffffffffffffffffffffffffffffffffffffff16021790555060016005600083815260200190815260200160002060030160146101000a81548160ff02191690831515021790555060006005600083815260200190815260200160002060030160156101000a81548160ff021916908315150217905550600360009054906101000a900473ffffffffffffffffffffffffffffffffffffffff1673ffffffffffffffffffffffffffffffffffffffff166342842e0e6005600084815260200190815260200160002060020160009054906101000a900473ffffffffffffffffffffffffffffffffffffffff166005600085815260200190815260200160002060030160009054906101000a900473ffffffffffffffffffffffffffffffffffffffff16846040518463ffffffff1660e01b815260040161128f93929190612fe6565b600060405180830381600087803b1580156112a957600080fd5b505af11580156112bd573d6000803e3d6000fd5b505050506005600082815260200190815260200160002060020160009054906101000a900473ffffffffffffffffffffffffffffffffffffffff1673ffffffffffffffffffffffffffffffffffffffff166108fc349081150290604051600060405180830381858888f1935050505015801561133d573d6000803e3d6000fd5b507f3350c3b4245b5a0cf503136a77f59725db483e024c5550b05ccfb3bbd236b2fd816005600084815260200190815260200160002060020160009054906101000a900473ffffffffffffffffffffffffffffffffffffffff166005600085815260200190815260200160002060030160009054906101000a900473ffffffffffffffffffffffffffffffffffffffff166040516113dd9392919061301d565b60405180910390a16005600082815260200190815260200160002060008082016000905560018201600090556002820160006101000a81549073ffffffffffffffffffffffffffffffffffffffff02191690556003820160006101000a81549073ffffffffffffffffffffffffffffffffffffffff02191690556003820160146101000a81549060ff02191690556003820160156101000a81549060ff021916905550506114896122ca565b50565b60606000600360009054906101000a900473ffffffffffffffffffffffffffffffffffffffff1673ffffffffffffffffffffffffffffffffffffffff166318160ddd6040518163ffffffff1660e01b8152600401602060405180830381865afa1580156114fd573d6000803e3d6000fd5b505050506040513d601f19601f820116820180604052508101906115219190613069565b905060008167ffffffffffffffff81111561153f5761153e612ba7565b5b60405190808252806020026020018201604052801561157857816020015b6115656123cb565b81526020019060019003908161155d5790505b50905060005b82811015611703576000600560006001846115999190613096565b81526020019081526020016000206000015411156116f057600560006001836115c29190613096565b81526020019081526020016000206040518060c001604052908160008201548152602001600182015481526020016002820160009054906101000a900473ffffffffffffffffffffffffffffffffffffffff1673ffffffffffffffffffffffffffffffffffffffff1673ffffffffffffffffffffffffffffffffffffffff1681526020016003820160009054906101000a900473ffffffffffffffffffffffffffffffffffffffff1673ffffffffffffffffffffffffffffffffffffffff1673ffffffffffffffffffffffffffffffffffffffff1681526020016003820160149054906101000a900460ff161515151581526020016003820160159054906101000a900460ff1615151515815250508282815181106116e4576116e3612bd6565b5b60200260200101819052505b80806116fb90612c34565b91505061157e565b50809250505090565b60606000600760008473ffffffffffffffffffffffffffffffffffffffff1673ffffffffffffffffffffffffffffffffffffffff1681526020019081526020016000208054905067ffffffffffffffff81111561176c5761176b612ba7565b5b6040519080825280602002602001820160405280156117a557816020015b611792612384565b81526020019060019003908161178a5790505b50905060005b600760008573ffffffffffffffffffffffffffffffffffffffff1673ffffffffffffffffffffffffffffffffffffffff1681526020019081526020016000208054905081101561192e5760066000600760008773ffffffffffffffffffffffffffffffffffffffff1673ffffffffffffffffffffffffffffffffffffffff168152602001908152602001600020838154811061184a57611849612bd6565b5b906000526020600020015481526020019081526020016000206040518060a00160405290816000820154815260200160018201548152602001600282015481526020016003820160009054906101000a900473ffffffffffffffffffffffffffffffffffffffff1673ffffffffffffffffffffffffffffffffffffffff1673ffffffffffffffffffffffffffffffffffffffff1681526020016003820160149054906101000a900460ff1615151515815250508282815181106119105761190f612bd6565b5b6020026020010181905250808061192690612c34565b9150506117ab565b5080915050919050565b82600360009054906101000a900473ffffffffffffffffffffffffffffffffffffffff1673ffffffffffffffffffffffffffffffffffffffff16634f558e79826040518263ffffffff1660e01b815260040161199491906127cc565b602060405180830381865afa1580156119b1573d6000803e3d6000fd5b505050506040513d601f19601f820116820180604052508101906119d591906130f6565b611a14576040517f08c379a0000000000000000000000000000000000000000000000000000000008152600401611a0b9061316f565b60405180910390fd5b33846000600460009054906101000a900473ffffffffffffffffffffffffffffffffffffffff1673ffffffffffffffffffffffffffffffffffffffff1662fdd58e84846040518363ffffffff1660e01b8152600401611a7492919061318f565b602060405180830381865afa158015611a91573d6000803e3d6000fd5b505050506040513d601f19601f82011682018060405250810190611ab59190613069565b11611af5576040517f08c379a0000000000000000000000000000000000000000000000000000000008152600401611aec90613204565b60405180910390fd5b60008511611b38576040517f08c379a0000000000000000000000000000000000000000000000000000000008152600401611b2f90613270565b60405180910390fd5b60008411611b7b576040517f08c379a0000000000000000000000000000000000000000000000000000000008152600401611b72906132dc565b60405180910390fd5b600084905060005b600760003373ffffffffffffffffffffffffffffffffffffffff1673ffffffffffffffffffffffffffffffffffffffff16815260200190815260200160002080549050811015611d60578760066000600760003373ffffffffffffffffffffffffffffffffffffffff1673ffffffffffffffffffffffffffffffffffffffff1681526020019081526020016000208481548110611c2357611c22612bd6565b5b9060005260206000200154815260200190815260200160002060000154148015611cc8575060066000600760003373ffffffffffffffffffffffffffffffffffffffff1673ffffffffffffffffffffffffffffffffffffffff1681526020019081526020016000208381548110611c9d57611c9c612bd6565b5b9060005260206000200154815260200190815260200160002060030160149054906101000a900460ff165b15611d4d5760066000600760003373ffffffffffffffffffffffffffffffffffffffff1673ffffffffffffffffffffffffffffffffffffffff1681526020019081526020016000208381548110611d2257611d21612bd6565b5b906000526020600020015481526020019081526020016000206002015482611d4a9190613096565b91505b8080611d5890612c34565b915050611b83565b50600460009054906101000a900473ffffffffffffffffffffffffffffffffffffffff1673ffffffffffffffffffffffffffffffffffffffff1662fdd58e33896040518363ffffffff1660e01b8152600401611dbd92919061318f565b602060405180830381865afa158015611dda573d6000803e3d6000fd5b505050506040513d601f19601f82011682018060405250810190611dfe9190613069565b811115611e40576040517f08c379a0000000000000000000000000000000000000000000000000000000008152600401611e3790613348565b60405180910390fd5b6040518060a001604052808881526020018781526020018681526020013373ffffffffffffffffffffffffffffffffffffffff1681526020016001151581525060066000611e8e6002612146565b815260200190815260200160002060008201518160000155602082015181600101556040820151816002015560608201518160030160006101000a81548173ffffffffffffffffffffffffffffffffffffffff021916908373ffffffffffffffffffffffffffffffffffffffff16021790555060808201518160030160146101000a81548160ff021916908315150217905550905050600760003373ffffffffffffffffffffffffffffffffffffffff1673ffffffffffffffffffffffffffffffffffffffff168152602001908152602001600020611f6d6002612146565b9080600181540180825580915050600190039060005260206000200160009091909190915055611f9d60026122d3565b7f4efa7930243335b4718e45e0b89be0c2221628ff25979933e3de922db9ad06f887878733604051611fd29493929190613368565b60405180910390a150505050505050565b611feb612066565b600073ffffffffffffffffffffffffffffffffffffffff168173ffffffffffffffffffffffffffffffffffffffff160361205a576040517f08c379a00000000000000000000000000000000000000000000000000000000081526004016120519061341f565b60405180910390fd5b61206381612154565b50565b61206e6122e9565b73ffffffffffffffffffffffffffffffffffffffff1661208c610ac6565b73ffffffffffffffffffffffffffffffffffffffff16146120e2576040517f08c379a00000000000000000000000000000000000000000000000000000000081526004016120d99061348b565b60405180910390fd5b565b6120ec6122f1565b60008060146101000a81548160ff0219169083151502179055507f5db9ee0a495bf2e6ff9c91a7834c1ba4fdd244a5e8aa4e537bd38aeae4b073aa61212f6122e9565b60405161213c91906126e2565b60405180910390a1565b600081600001549050919050565b60008060009054906101000a900473ffffffffffffffffffffffffffffffffffffffff169050816000806101000a81548173ffffffffffffffffffffffffffffffffffffffff021916908373ffffffffffffffffffffffffffffffffffffffff1602179055508173ffffffffffffffffffffffffffffffffffffffff168173ffffffffffffffffffffffffffffffffffffffff167f8be0079c531659141344cd1fd0a4f28419497f9722a3daafe3b4186f6b6457e060405160405180910390a35050565b61222061233a565b6001600060146101000a81548160ff0219169083151502179055507f62e78cea01bee320cd4e420270b5ea74000d11b0c9f74754ebdbfc544b05a2586122646122e9565b60405161227191906126e2565b60405180910390a1565b6002600154036122c0576040517f08c379a00000000000000000000000000000000000000000000000000000000081526004016122b7906134f7565b60405180910390fd5b6002600181905550565b60018081905550565b6001816000016000828254019250508190555050565b600033905090565b6122f9610984565b612338576040517f08c379a000000000000000000000000000000000000000000000000000000000815260040161232f90613563565b60405180910390fd5b565b612342610984565b15612382576040517f08c379a0000000000000000000000000000000000000000000000000000000008152600401612379906135cf565b60405180910390fd5b565b6040518060a00160405280600081526020016000815260200160008152602001600073ffffffffffffffffffffffffffffffffffffffff1681526020016000151581525090565b6040518060c001604052806000815260200160008152602001600073ffffffffffffffffffffffffffffffffffffffff168152602001600073ffffffffffffffffffffffffffffffffffffffff1681526020016000151581526020016000151581525090565b600080fd5b6000819050919050565b61244981612436565b811461245457600080fd5b50565b60008135905061246681612440565b92915050565b6000806040838503121561248357612482612431565b5b600061249185828601612457565b92505060206124a285828601612457565b9150509250929050565b600081519050919050565b600082825260208201905092915050565b6000819050602082019050919050565b6124e181612436565b82525050565b600073ffffffffffffffffffffffffffffffffffffffff82169050919050565b6000612512826124e7565b9050919050565b61252281612507565b82525050565b60008115159050919050565b61253d81612528565b82525050565b60a08201600082015161255960008501826124d8565b50602082015161256c60208501826124d8565b50604082015161257f60408501826124d8565b5060608201516125926060850182612519565b5060808201516125a56080850182612534565b50505050565b60006125b78383612543565b60a08301905092915050565b6000602082019050919050565b60006125db826124ac565b6125e581856124b7565b93506125f0836124c8565b8060005b8381101561262157815161260888826125ab565b9750612613836125c3565b9250506001810190506125f4565b5085935050505092915050565b6000602082019050818103600083015261264881846125d0565b905092915050565b61265981612507565b811461266457600080fd5b50565b60008135905061267681612650565b92915050565b60006020828403121561269257612691612431565b5b60006126a084828501612667565b91505092915050565b6126b281612528565b82525050565b60006020820190506126cd60008301846126a9565b92915050565b6126dc81612507565b82525050565b60006020820190506126f760008301846126d3565b92915050565b60006020828403121561271357612712612431565b5b600061272184828501612457565b91505092915050565b61273381612436565b82525050565b600060a08201905061274e600083018861272a565b61275b602083018761272a565b612768604083018661272a565b61277560608301856126d3565b61278260808301846126a9565b9695505050505050565b600080604083850312156127a3576127a2612431565b5b60006127b185828601612667565b92505060206127c285828601612457565b9150509250929050565b60006020820190506127e1600083018461272a565b92915050565b600060c0820190506127fc600083018961272a565b612809602083018861272a565b61281660408301876126d3565b61282360608301866126d3565b61283060808301856126a9565b61283d60a08301846126a9565b979650505050505050565b600081519050919050565b600082825260208201905092915050565b6000819050602082019050919050565b60c08201600082015161288a60008501826124d8565b50602082015161289d60208501826124d8565b5060408201516128b06040850182612519565b5060608201516128c36060850182612519565b5060808201516128d66080850182612534565b5060a08201516128e960a0850182612534565b50505050565b60006128fb8383612874565b60c08301905092915050565b6000602082019050919050565b600061291f82612848565b6129298185612853565b935061293483612864565b8060005b8381101561296557815161294c88826128ef565b975061295783612907565b925050600181019050612938565b5085935050505092915050565b6000602082019050818103600083015261298c8184612914565b905092915050565b6000806000606084860312156129ad576129ac612431565b5b60006129bb86828701612457565b93505060206129cc86828701612457565b92505060406129dd86828701612457565b9150509250925092565b6000815190506129f681612650565b92915050565b600060208284031215612a1257612a11612431565b5b6000612a20848285016129e7565b91505092915050565b600082825260208201905092915050565b7f43616c6c657220646f6573206e6f74206f776e20417373657421000000000000600082015250565b6000612a70601a83612a29565b9150612a7b82612a3a565b602082019050919050565b60006020820190508181036000830152612a9f81612a63565b9050919050565b7f50726963652073686f756c64206265206174206c656173742031207765692100600082015250565b6000612adc601f83612a29565b9150612ae782612aa6565b602082019050919050565b60006020820190508181036000830152612b0b81612acf565b9050919050565b7f417373657420616c7265616479206c6973746564210000000000000000000000600082015250565b6000612b48601583612a29565b9150612b5382612b12565b602082019050919050565b60006020820190508181036000830152612b7781612b3b565b9050919050565b6000604082019050612b93600083018561272a565b612ba0602083018461272a565b9392505050565b7f4e487b7100000000000000000000000000000000000000000000000000000000600052604160045260246000fd5b7f4e487b7100000000000000000000000000000000000000000000000000000000600052603260045260246000fd5b7f4e487b7100000000000000000000000000000000000000000000000000000000600052601160045260246000fd5b6000612c3f82612436565b91507fffffffffffffffffffffffffffffffffffffffffffffffffffffffffffffffff8203612c7157612c70612c05565b5b600182019050919050565b7f4c697374696e6720646f6573206e6f7420657869737421000000000000000000600082015250565b6000612cb2601783612a29565b9150612cbd82612c7c565b602082019050919050565b60006020820190508181036000830152612ce181612ca5565b9050919050565b7f507269636520646f6573206e6f74206d61746368210000000000000000000000600082015250565b6000612d1e601583612a29565b9150612d2982612ce8565b602082019050919050565b60006020820190508181036000830152612d4d81612d11565b9050919050565b7f536861726573206c697374696e67206973206e6f742061637469766521000000600082015250565b6000612d8a601d83612a29565b9150612d9582612d54565b602082019050919050565b60006020820190508181036000830152612db981612d7d565b9050919050565b600082825260208201905092915050565b50565b6000612de1600083612dc0565b9150612dec82612dd1565b600082019050919050565b600060a082019050612e0c60008301876126d3565b612e1960208301866126d3565b612e26604083018561272a565b612e33606083018461272a565b8181036080830152612e4481612dd4565b905095945050505050565b600060a082019050612e64600083018861272a565b612e71602083018761272a565b612e7e604083018661272a565b612e8b60608301856126d3565b612e9860808301846126d3565b9695505050505050565b7f4173736574206e6f74206c697374656421000000000000000000000000000000600082015250565b6000612ed8601183612a29565b9150612ee382612ea2565b602082019050919050565b60006020820190508181036000830152612f0781612ecb565b9050919050565b7f4173736574206c697374696e67206973206e6f74206163746976652100000000600082015250565b6000612f44601c83612a29565b9150612f4f82612f0e565b602082019050919050565b60006020820190508181036000830152612f7381612f37565b9050919050565b7f4173736574206c697374696e6720697320616c726561647920736f6c64210000600082015250565b6000612fb0601e83612a29565b9150612fbb82612f7a565b602082019050919050565b60006020820190508181036000830152612fdf81612fa3565b9050919050565b6000606082019050612ffb60008301866126d3565b61300860208301856126d3565b613015604083018461272a565b949350505050565b6000606082019050613032600083018661272a565b61303f60208301856126d3565b61304c60408301846126d3565b949350505050565b60008151905061306381612440565b92915050565b60006020828403121561307f5761307e612431565b5b600061308d84828501613054565b91505092915050565b60006130a182612436565b91506130ac83612436565b92508282019050808211156130c4576130c3612c05565b5b92915050565b6130d381612528565b81146130de57600080fd5b50565b6000815190506130f0816130ca565b92915050565b60006020828403121561310c5761310b612431565b5b600061311a848285016130e1565b91505092915050565b7f417373657420646f6573206e6f74206578697374210000000000000000000000600082015250565b6000613159601583612a29565b915061316482613123565b602082019050919050565b600060208201905081810360008301526131888161314c565b9050919050565b60006040820190506131a460008301856126d3565b6131b1602083018461272a565b9392505050565b7f6e6f74207368617265686f6c6465720000000000000000000000000000000000600082015250565b60006131ee600f83612a29565b91506131f9826131b8565b602082019050919050565b6000602082019050818103600083015261321d816131e1565b9050919050565b7f7072696365203c20312077656900000000000000000000000000000000000000600082015250565b600061325a600d83612a29565b915061326582613224565b602082019050919050565b600060208201905081810360008301526132898161324d565b9050919050565b7f616d6f756e74203c203100000000000000000000000000000000000000000000600082015250565b60006132c6600a83612a29565b91506132d182613290565b602082019050919050565b600060208201905081810360008301526132f5816132b9565b9050919050565b7f6e6f7420656e6f75676820736861726573000000000000000000000000000000600082015250565b6000613332601183612a29565b915061333d826132fc565b602082019050919050565b6000602082019050818103600083015261336181613325565b9050919050565b600060808201905061337d600083018761272a565b61338a602083018661272a565b613397604083018561272a565b6133a460608301846126d3565b95945050505050565b7f4f776e61626c653a206e6577206f776e657220697320746865207a65726f206160008201527f6464726573730000000000000000000000000000000000000000000000000000602082015250565b6000613409602683612a29565b9150613414826133ad565b604082019050919050565b60006020820190508181036000830152613438816133fc565b9050919050565b7f4f776e61626c653a2063616c6c6572206973206e6f7420746865206f776e6572600082015250565b6000613475602083612a29565b91506134808261343f565b602082019050919050565b600060208201905081810360008301526134a481613468565b9050919050565b7f5265656e7472616e637947756172643a207265656e7472616e742063616c6c00600082015250565b60006134e1601f83612a29565b91506134ec826134ab565b602082019050919050565b60006020820190508181036000830152613510816134d4565b9050919050565b7f5061757361626c653a206e6f7420706175736564000000000000000000000000600082015250565b600061354d601483612a29565b915061355882613517565b602082019050919050565b6000602082019050818103600083015261357c81613540565b9050919050565b7f5061757361626c653a2070617573656400000000000000000000000000000000600082015250565b60006135b9601083612a29565b91506135c482613583565b602082019050919050565b600060208201905081810360008301526135e8816135ac565b905091905056fea264697066735822122036b7af8514fb606659975a07c63c79fe1c28f0e460a8c5be2b96e9489039815464736f6c63430008120033",
  "linkReferences": {},
  "deployedLinkReferences": {}
}