{
  "_format": "hh-sol-artifact-1",
  "contractName": "BlockEstateRentals",
  "sourceName": "contracts/BlockEstate/BlockEstateRentals.sol",
  "abi": [
    {
      "inputs": [
        {
          "internalType": "address",
          "name": "_assetsAddress",
          "type": "address"
        },
        {
          "internalType": "address",
          "name": "_sharesAddress",
          "type": "address"
        }
      ],
      "stateMutability": "nonpayable",
      "type": "constructor"
    },
    {
      "anonymous": false,
      "inputs": [
        {
          "indexed": false,
          "internalType": "uint256",
          "name": "rentalId",
          "type": "uint256"
        }
      ],
      "name": "FixedRentalApproved",
      "type": "event"
    },
    {
      "anonymous": false,
      "inputs": [
        {
          "indexed": false,
          "internalType": "uint256",
          "name": "rentalId",
          "type": "uint256"
        },
        {
          "indexed": false,
          "internalType": "uint256",
          "name": "tokenId",
          "type": "uint256"
        },
        {
          "indexed": false,
          "internalType": "address",
          "name": "renter",
          "type": "address"
        },
        {
          "indexed": false,
          "internalType": "uint256",
          "name": "start",
          "type": "uint256"
        },
        {
          "indexed": false,
          "internalType": "uint256",
          "name": "end",
          "type": "uint256"
        },
        {
          "indexed": false,
          "internalType": "uint256",
          "name": "price",
          "type": "uint256"
        }
      ],
      "name": "FixedRentalCreated",
      "type": "event"
    },
    {
      "anonymous": false,
      "inputs": [
        {
          "indexed": false,
          "internalType": "uint256",
          "name": "rentalId",
          "type": "uint256"
        },
        {
          "indexed": false,
          "internalType": "address",
          "name": "approver",
          "type": "address"
        },
        {
          "indexed": false,
          "internalType": "uint256",
          "name": "votes",
          "type": "uint256"
        }
      ],
      "name": "FixedRentalVoted",
      "type": "event"
    },
    {
      "anonymous": false,
      "inputs": [
        {
          "indexed": true,
          "internalType": "address",
          "name": "previousOwner",
          "type": "address"
        },
        {
          "indexed": true,
          "internalType": "address",
          "name": "newOwner",
          "type": "address"
        }
      ],
      "name": "OwnershipTransferred",
      "type": "event"
    },
    {
      "anonymous": false,
      "inputs": [
        {
          "indexed": false,
          "internalType": "address",
          "name": "account",
          "type": "address"
        }
      ],
      "name": "Paused",
      "type": "event"
    },
    {
      "anonymous": false,
      "inputs": [
        {
          "indexed": false,
          "internalType": "address",
          "name": "account",
          "type": "address"
        }
      ],
      "name": "Unpaused",
      "type": "event"
    },
    {
      "inputs": [
        {
          "internalType": "uint256",
          "name": "rentalId",
          "type": "uint256"
        }
      ],
      "name": "approveFixedRental",
      "outputs": [],
      "stateMutability": "nonpayable",
      "type": "function"
    },
    {
      "inputs": [
        {
          "internalType": "uint256",
          "name": "",
          "type": "uint256"
        }
      ],
      "name": "approvedFixedRentals",
      "outputs": [
        {
          "internalType": "bool",
          "name": "",
          "type": "bool"
        }
      ],
      "stateMutability": "view",
      "type": "function"
    },
    {
      "inputs": [
        {
          "internalType": "uint256",
          "name": "tokenId",
          "type": "uint256"
        },
        {
          "internalType": "uint256",
          "name": "start",
          "type": "uint256"
        },
        {
          "internalType": "uint8",
          "name": "daysAmount",
          "type": "uint8"
        }
      ],
      "name": "createFixedRental",
      "outputs": [],
      "stateMutability": "nonpayable",
      "type": "function"
    },
    {
      "inputs": [
        {
          "internalType": "uint256",
          "name": "",
          "type": "uint256"
        }
      ],
      "name": "fixedRentals",
      "outputs": [
        {
          "internalType": "uint256",
          "name": "rentalId",
          "type": "uint256"
        },
        {
          "internalType": "uint256",
          "name": "tokenId",
          "type": "uint256"
        },
        {
          "internalType": "address",
          "name": "renter",
          "type": "address"
        },
        {
          "internalType": "uint256",
          "name": "start",
          "type": "uint256"
        },
        {
          "internalType": "uint256",
          "name": "end",
          "type": "uint256"
        },
        {
          "internalType": "uint256",
          "name": "price",
          "type": "uint256"
        },
        {
          "internalType": "uint256",
          "name": "votes",
          "type": "uint256"
        },
        {
          "internalType": "bool",
          "name": "isApproved",
          "type": "bool"
        }
      ],
      "stateMutability": "view",
      "type": "function"
    },
    {
      "inputs": [
        {
          "internalType": "uint256",
          "name": "",
          "type": "uint256"
        }
      ],
      "name": "isRentable",
      "outputs": [
        {
          "internalType": "bool",
          "name": "",
          "type": "bool"
        }
      ],
      "stateMutability": "view",
      "type": "function"
    },
    {
      "inputs": [],
      "name": "owner",
      "outputs": [
        {
          "internalType": "address",
          "name": "",
          "type": "address"
        }
      ],
      "stateMutability": "view",
      "type": "function"
    },
    {
      "inputs": [],
      "name": "pause",
      "outputs": [],
      "stateMutability": "nonpayable",
      "type": "function"
    },
    {
      "inputs": [],
      "name": "paused",
      "outputs": [
        {
          "internalType": "bool",
          "name": "",
          "type": "bool"
        }
      ],
      "stateMutability": "view",
      "type": "function"
    },
    {
      "inputs": [
        {
          "internalType": "uint256",
          "name": "",
          "type": "uint256"
        }
      ],
      "name": "pricePerDay",
      "outputs": [
        {
          "internalType": "uint256",
          "name": "",
          "type": "uint256"
        }
      ],
      "stateMutability": "view",
      "type": "function"
    },
    {
      "inputs": [],
      "name": "renounceOwnership",
      "outputs": [],
      "stateMutability": "nonpayable",
      "type": "function"
    },
    {
      "inputs": [
        {
          "internalType": "address",
          "name": "_assetsAddress",
          "type": "address"
        }
      ],
      "name": "setAssetsAddress",
      "outputs": [],
      "stateMutability": "nonpayable",
      "type": "function"
    },
    {
      "inputs": [
        {
          "internalType": "uint256",
          "name": "tokenId",
          "type": "uint256"
        },
        {
          "internalType": "bool",
          "name": "rentable",
          "type": "bool"
        },
        {
          "internalType": "uint256",
          "name": "_pricePerDay",
          "type": "uint256"
        }
      ],
      "name": "setRentable",
      "outputs": [],
      "stateMutability": "nonpayable",
      "type": "function"
    },
    {
      "inputs": [
        {
          "internalType": "address",
          "name": "_sharesAddress",
          "type": "address"
        }
      ],
      "name": "setSharesAddress",
      "outputs": [],
      "stateMutability": "nonpayable",
      "type": "function"
    },
    {
      "inputs": [
        {
          "internalType": "address",
          "name": "newOwner",
          "type": "address"
        }
      ],
      "name": "transferOwnership",
      "outputs": [],
      "stateMutability": "nonpayable",
      "type": "function"
    },
    {
      "inputs": [],
      "name": "unpause",
      "outputs": [],
      "stateMutability": "nonpayable",
      "type": "function"
    }
  ],
  "bytecode": "0x608060405234801561001057600080fd5b50604051620014fc380380620014fc833981016040819052610031916100e8565b61003a3361007c565b6000805460ff60a01b1916905560018055600780546001600160a01b039384166001600160a01b0319918216179091556008805492909316911617905561011b565b600080546001600160a01b038381166001600160a01b0319831681178455604051919092169283917f8be0079c531659141344cd1fd0a4f28419497f9722a3daafe3b4186f6b6457e09190a35050565b80516001600160a01b03811681146100e357600080fd5b919050565b600080604083850312156100fb57600080fd5b610104836100cc565b9150610112602084016100cc565b90509250929050565b6113d1806200012b6000396000f3fe608060405234801561001057600080fd5b50600436106100f55760003560e01c80636bbab268116100975780638da5cb5b116100665780638da5cb5b1461028257806395113e811461029d578063c392598d146102b0578063f2fde38b146102d357600080fd5b80636bbab26814610231578063715018a61461025f5780637b3dae9b146102675780638456cb591461027a57600080fd5b8063420b3240116100d3578063420b3240146101c65780635a534dd2146101d95780635c975abb1461020c57806365b1a5631461021e57600080fd5b80631490a174146100fa5780632fd147891461010f5780633f4ba83a146101be575b600080fd5b61010d610108366004611184565b6102e6565b005b61016e61011d3660046111b4565b600560208190526000918252604090912080546001820154600283015460038401546004850154958501546006860154600890960154949693956001600160a01b0390931694919392909160ff1688565b6040805198895260208901979097526001600160a01b03909516958701959095526060860192909252608085015260a084015260c0830191909152151560e0820152610100015b60405180910390f35b61010d610310565b61010d6101d4366004611184565b610322565b6101fc6101e73660046111b4565b60066020526000908152604090205460ff1681565b60405190151581526020016101b5565b600054600160a01b900460ff166101fc565b61010d61022c3660046111db565b61034c565b61025161023f3660046111b4565b60046020526000908152604090205481565b6040519081526020016101b5565b61010d6104a0565b61010d610275366004611213565b6104b2565b61010d6109ea565b6000546040516001600160a01b0390911681526020016101b5565b61010d6102ab3660046111b4565b6109fa565b6101fc6102be3660046111b4565b60036020526000908152604090205460ff1681565b61010d6102e1366004611184565b610eab565b6102ee610f24565b600780546001600160a01b0319166001600160a01b0392909216919091179055565b610318610f24565b610320610f7e565b565b61032a610f24565b600880546001600160a01b0319166001600160a01b0392909216919091179055565b600754604051634f558e7960e01b8152600481018590526001600160a01b0390911690634f558e7990602401602060405180830381865afa158015610395573d6000803e3d6000fd5b505050506040513d601f19601f820116820180604052508101906103b99190611252565b6104015760405162461bcd60e51b8152602060048201526014602482015273105cdcd95d08191bd95cc81b9bdd08195e1a5cdd60621b60448201526064015b60405180910390fd5b8115156000036104255750506000908152600360205260409020805460ff19169055565b600081116104755760405162461bcd60e51b815260206004820152601860248201527f5072696365206d757374206265206174206c656173742031000000000000000060448201526064016103f8565b6000928352600360209081526040808520805460ff1916600117905560049091529092209190915550565b6104a8610f24565b6103206000610fd3565b600754604051634f558e7960e01b8152600481018590526001600160a01b0390911690634f558e7990602401602060405180830381865afa1580156104fb573d6000803e3d6000fd5b505050506040513d601f19601f8201168201806040525081019061051f9190611252565b6105625760405162461bcd60e51b8152602060048201526014602482015273105cdcd95d08191bd95cc81b9bdd08195e1a5cdd60621b60448201526064016103f8565b60008381526003602052604090205460ff166105b85760405162461bcd60e51b8152602060048201526015602482015274105cdcd95d081a5cc81b9bdd08199bdc881c995b9d605a1b60448201526064016103f8565b6105e46040518060400160405280600a8152602001697374617274203d20257360b01b81525083611023565b61061a60405180604001604052806014815260200173626c6f636b2e74696d657374616d70203d20257360601b81525042611023565b4282101561066a5760405162461bcd60e51b815260206004820152601e60248201527f5374617274206d757374206265206e6f77206f7220696e20667574757265000060448201526064016103f8565b60008160ff16116106bd5760405162461bcd60e51b815260206004820152601760248201527f44617973206d757374206265206174206c65617374203100000000000000000060448201526064016103f8565b60006106c860025490565b90506106d8600280546001019055565b6107046040518060400160405280600a8152602001697374617274203d20257360b01b81525084611023565b6107386040518060400160405280600f81526020016e64617973416d6f756e74203d20257360881b8152508360ff16611023565b6107686040518060400160405280600b81526020016a312064617973203d20257360a81b81525062015180611023565b60408051808201909152601881527f64617973416d6f756e74202a20312064617973203d202573000000000000000060208201526107ba906107b060ff851662015180611285565b62ffffff16611023565b60006107cc60ff841662015180611285565b6107db9062ffffff16856112ac565b905061080760405180604001604052806008815260200167656e64203d20257360c01b81525082611023565b6108376040518060400160405280600e81526020016d74696d657374616d70203d20257360901b81525042611023565b60005b6002548110156108f3576000818152600560205260409020600101548614801561088457506000818152600560205260409020600381015460049091015461088491908785611068565b156108e15760008181526005602052604090206008015460ff166108e15760405162461bcd60e51b8152602060048201526014602482015273105cdcd95d08185b1c9958591e481c995b9d195960621b60448201526064016103f8565b806108eb816112c5565b91505061083a565b506000828152600560209081526040808320858155600181018990556002810180546001600160a01b031916331790556003810188905560049081018590558884529091529020546109489060ff85166112de565b6000838152600560208181526040808420928301859055600683019390935560088201805460ff1916905581546001830154600284015460038501546004909501548651938452938301919091526001600160a01b0316818501526060810192909252608082015260a0810192909252517feef3b7132416aa3751c98519543cc4f2a7e93ac69a1531d57e9a2e9f422c8eba9181900360c00190a15050505050565b6109f2610f24565b610320611083565b6000818152600560205260408120600101549003610a4e5760405162461bcd60e51b815260206004820152601160248201527014995b9d185b081b5d5cdd08195e1a5cdd607a1b60448201526064016103f8565b600854600082815260056020526040808220600101549051627eeac760e11b8152336004820152602481019190915290916001600160a01b03169062fdd58e90604401602060405180830381865afa158015610aae573d6000803e3d6000fd5b505050506040513d601f19601f82011682018060405250810190610ad291906112f5565b905060008111610b165760405162461bcd60e51b815260206004820152600f60248201526e2737ba1039b430b932b437b63232b960891b60448201526064016103f8565b60008281526005602052604090206008015460ff1615610b785760405162461bcd60e51b815260206004820152601f60248201527f52656e74616c206d757374206e6f7420626520617070726f766564207965740060448201526064016103f8565b60005b600083815260056020526040902060070154811015610c21576000838152600560205260409020600701805433919083908110610bba57610bba61130e565b6000918252602090912001546001600160a01b031603610c0f5760405162461bcd60e51b815260206004820152601060248201526f105b1c9958591e48185c1c1c9bdd995960821b60448201526064016103f8565b80610c19816112c5565b915050610b7b565b5060008281526005602052604081206006018054839290610c439084906112ac565b9091555050600082815260056020908152604080832060070180546001810182559084529282902090920180546001600160a01b031916339081179091558251858152918201529081018290527f0aebc1ad4b106de9cd98008a77d8f2e6e9d56e54ced136fbdd29eb3f5b24cd859060600160405180910390a16008546000838152600560205260409081902060010154905163bd85b03960e01b815260048101919091526002916001600160a01b03169063bd85b03990602401602060405180830381865afa158015610d1b573d6000803e3d6000fd5b505050506040513d601f19601f82011682018060405250810190610d3f91906112f5565b610d499190611324565b6000838152600560205260409020600601541115610ea75760005b600254811015610e4157808314610e2f576000838152600560205260408082206001908101548484529190922090910154148015610dd257506000838152600560205260408082206003808201546004928301548686529390942090810154910154610dd293929190611068565b15610e2f5760008381526005602052604090206008015460ff16610e2f5760405162461bcd60e51b8152602060048201526014602482015273105cdcd95d08185b1c9958591e481c995b9d195960621b60448201526064016103f8565b80610e39816112c5565b915050610d64565b5060008281526005602090815260408083206008018054600160ff199182168117909255600684529382902080549094161790925590518381527f9145fd4b7d7b7b4d24e9351d433c262ac114fb8787d1cce4c8f9535dfadc246c910160405180910390a15b5050565b610eb3610f24565b6001600160a01b038116610f185760405162461bcd60e51b815260206004820152602660248201527f4f776e61626c653a206e6577206f776e657220697320746865207a65726f206160448201526564647265737360d01b60648201526084016103f8565b610f2181610fd3565b50565b6000546001600160a01b031633146103205760405162461bcd60e51b815260206004820181905260248201527f4f776e61626c653a2063616c6c6572206973206e6f7420746865206f776e657260448201526064016103f8565b610f866110c6565b6000805460ff60a01b191690557f5db9ee0a495bf2e6ff9c91a7834c1ba4fdd244a5e8aa4e537bd38aeae4b073aa335b6040516001600160a01b03909116815260200160405180910390a1565b600080546001600160a01b038381166001600160a01b0319831681178455604051919092169283917f8be0079c531659141344cd1fd0a4f28419497f9722a3daafe3b4186f6b6457e09190a35050565b610ea78282604051602401611039929190611346565b60408051601f198184030181529190526020810180516001600160e01b0316632d839cb360e21b179052611116565b600081851115801561107a5750828410155b95945050505050565b61108b611137565b6000805460ff60a01b1916600160a01b1790557f62e78cea01bee320cd4e420270b5ea74000d11b0c9f74754ebdbfc544b05a258610fb63390565b600054600160a01b900460ff166103205760405162461bcd60e51b815260206004820152601460248201527314185d5cd8589b194e881b9bdd081c185d5cd95960621b60448201526064016103f8565b80516a636f6e736f6c652e6c6f67602083016000808483855afa5050505050565b600054600160a01b900460ff16156103205760405162461bcd60e51b815260206004820152601060248201526f14185d5cd8589b194e881c185d5cd95960821b60448201526064016103f8565b60006020828403121561119657600080fd5b81356001600160a01b03811681146111ad57600080fd5b9392505050565b6000602082840312156111c657600080fd5b5035919050565b8015158114610f2157600080fd5b6000806000606084860312156111f057600080fd5b833592506020840135611202816111cd565b929592945050506040919091013590565b60008060006060848603121561122857600080fd5b8335925060208401359150604084013560ff8116811461124757600080fd5b809150509250925092565b60006020828403121561126457600080fd5b81516111ad816111cd565b634e487b7160e01b600052601160045260246000fd5b62ffffff8181168382160280821691908281146112a4576112a461126f565b505092915050565b808201808211156112bf576112bf61126f565b92915050565b6000600182016112d7576112d761126f565b5060010190565b80820281158282048414176112bf576112bf61126f565b60006020828403121561130757600080fd5b5051919050565b634e487b7160e01b600052603260045260246000fd5b60008261134157634e487b7160e01b600052601260045260246000fd5b500490565b604081526000835180604084015260005b818110156113745760208187018101516060868401015201611357565b506000606082850101526060601f19601f830116840101915050826020830152939250505056fea2646970667358221220efadb88f30df2bd7c63b6ff5a2c10c636c675eb985f0534472dd089eea98537864736f6c63430008120033",
  "linkReferences": {},
  "deployedLinkReferences": {}
}