{
  "_format": "hh-sol-artifact-1",
  "contractName": "BlockEstateMarket",
  "sourceName": "contracts/BlockEstate/BlockEstateMarket.sol",
  "abi": [
    {
      "inputs": [
        {
          "internalType": "address",
          "name": "_blockEstateAssetsAddress",
          "type": "address"
        },
        {
          "internalType": "address",
          "name": "_blockEstateSharesAddress",
          "type": "address"
        },
        {
          "internalType": "address",
          "name": "_usdAddress",
          "type": "address"
        }
      ],
      "stateMutability": "nonpayable",
      "type": "constructor"
    },
    {
      "anonymous": false,
      "inputs": [
        {
          "indexed": false,
          "internalType": "address",
          "name": "old",
          "type": "address"
        },
        {
          "indexed": false,
          "internalType": "address",
          "name": "updated",
          "type": "address"
        }
      ],
      "name": "BlockEstateAssetsAddressUpdated",
      "type": "event"
    },
    {
      "anonymous": false,
      "inputs": [
        {
          "indexed": false,
          "internalType": "address",
          "name": "old",
          "type": "address"
        },
        {
          "indexed": false,
          "internalType": "address",
          "name": "updated",
          "type": "address"
        }
      ],
      "name": "BlockEstateRentalsAddressUpdated",
      "type": "event"
    },
    {
      "anonymous": false,
      "inputs": [
        {
          "indexed": false,
          "internalType": "address",
          "name": "old",
          "type": "address"
        },
        {
          "indexed": false,
          "internalType": "address",
          "name": "updated",
          "type": "address"
        }
      ],
      "name": "BlockEstateSharesAddressUpdated",
      "type": "event"
    },
    {
      "anonymous": false,
      "inputs": [
        {
          "indexed": true,
          "internalType": "address",
          "name": "previousOwner",
          "type": "address"
        },
        {
          "indexed": true,
          "internalType": "address",
          "name": "newOwner",
          "type": "address"
        }
      ],
      "name": "OwnershipTransferred",
      "type": "event"
    },
    {
      "anonymous": false,
      "inputs": [
        {
          "indexed": false,
          "internalType": "address",
          "name": "account",
          "type": "address"
        }
      ],
      "name": "Paused",
      "type": "event"
    },
    {
      "anonymous": false,
      "inputs": [
        {
          "indexed": false,
          "internalType": "uint256",
          "name": "listingId",
          "type": "uint256"
        },
        {
          "indexed": false,
          "internalType": "uint256",
          "name": "tokenId",
          "type": "uint256"
        },
        {
          "indexed": false,
          "internalType": "uint256",
          "name": "price",
          "type": "uint256"
        },
        {
          "indexed": false,
          "internalType": "uint256",
          "name": "amount",
          "type": "uint256"
        },
        {
          "indexed": false,
          "internalType": "address",
          "name": "seller",
          "type": "address"
        }
      ],
      "name": "SharesListingCreated",
      "type": "event"
    },
    {
      "anonymous": false,
      "inputs": [
        {
          "indexed": false,
          "internalType": "uint256",
          "name": "listingId",
          "type": "uint256"
        },
        {
          "indexed": false,
          "internalType": "uint256",
          "name": "tokenId",
          "type": "uint256"
        },
        {
          "indexed": false,
          "internalType": "uint256",
          "name": "price",
          "type": "uint256"
        },
        {
          "indexed": false,
          "internalType": "uint256",
          "name": "amount",
          "type": "uint256"
        },
        {
          "indexed": false,
          "internalType": "address",
          "name": "seller",
          "type": "address"
        }
      ],
      "name": "SharesListingDeleted",
      "type": "event"
    },
    {
      "anonymous": false,
      "inputs": [
        {
          "indexed": false,
          "internalType": "uint256",
          "name": "sharesListingPoolId",
          "type": "uint256"
        },
        {
          "indexed": false,
          "internalType": "uint256",
          "name": "tokenId",
          "type": "uint256"
        },
        {
          "indexed": false,
          "internalType": "address",
          "name": "seller",
          "type": "address"
        },
        {
          "indexed": false,
          "internalType": "uint256",
          "name": "price",
          "type": "uint256"
        },
        {
          "indexed": false,
          "internalType": "uint256",
          "name": "amount",
          "type": "uint256"
        }
      ],
      "name": "SharesListingPoolCreated",
      "type": "event"
    },
    {
      "anonymous": false,
      "inputs": [
        {
          "indexed": false,
          "internalType": "uint256",
          "name": "sharesListingPoolId",
          "type": "uint256"
        },
        {
          "indexed": false,
          "internalType": "uint256",
          "name": "tokenId",
          "type": "uint256"
        },
        {
          "indexed": false,
          "internalType": "uint256",
          "name": "amount",
          "type": "uint256"
        },
        {
          "indexed": false,
          "internalType": "address",
          "name": "seller",
          "type": "address"
        }
      ],
      "name": "SharesListingPoolDeposit",
      "type": "event"
    },
    {
      "anonymous": false,
      "inputs": [
        {
          "indexed": false,
          "internalType": "uint256",
          "name": "sharesListingPoolId",
          "type": "uint256"
        },
        {
          "indexed": false,
          "internalType": "uint256",
          "name": "tokenId",
          "type": "uint256"
        },
        {
          "indexed": false,
          "internalType": "uint256",
          "name": "price",
          "type": "uint256"
        },
        {
          "indexed": false,
          "internalType": "uint256",
          "name": "amount",
          "type": "uint256"
        },
        {
          "indexed": false,
          "internalType": "address",
          "name": "seller",
          "type": "address"
        },
        {
          "indexed": false,
          "internalType": "address",
          "name": "buyer",
          "type": "address"
        }
      ],
      "name": "SharesListingPoolPurchase",
      "type": "event"
    },
    {
      "anonymous": false,
      "inputs": [
        {
          "indexed": false,
          "internalType": "uint256",
          "name": "sharesListingPoolId",
          "type": "uint256"
        },
        {
          "indexed": false,
          "internalType": "uint256",
          "name": "tokenId",
          "type": "uint256"
        },
        {
          "indexed": false,
          "internalType": "uint256",
          "name": "amount",
          "type": "uint256"
        },
        {
          "indexed": false,
          "internalType": "address",
          "name": "seller",
          "type": "address"
        }
      ],
      "name": "SharesListingPoolWithdraw",
      "type": "event"
    },
    {
      "anonymous": false,
      "inputs": [
        {
          "indexed": false,
          "internalType": "uint256",
          "name": "listingId",
          "type": "uint256"
        },
        {
          "indexed": false,
          "internalType": "uint256",
          "name": "tokenId",
          "type": "uint256"
        },
        {
          "indexed": false,
          "internalType": "uint256",
          "name": "price",
          "type": "uint256"
        },
        {
          "indexed": false,
          "internalType": "uint256",
          "name": "amount",
          "type": "uint256"
        },
        {
          "indexed": false,
          "internalType": "address",
          "name": "seller",
          "type": "address"
        },
        {
          "indexed": false,
          "internalType": "address",
          "name": "buyer",
          "type": "address"
        }
      ],
      "name": "SharesListingPurchased",
      "type": "event"
    },
    {
      "anonymous": false,
      "inputs": [
        {
          "indexed": false,
          "internalType": "address",
          "name": "account",
          "type": "address"
        }
      ],
      "name": "Unpaused",
      "type": "event"
    },
    {
      "inputs": [
        {
          "internalType": "uint256",
          "name": "groupInvestmentId",
          "type": "uint256"
        }
      ],
      "name": "acceptGroupInvestment",
      "outputs": [],
      "stateMutability": "nonpayable",
      "type": "function"
    },
    {
      "inputs": [
        {
          "internalType": "address",
          "name": "",
          "type": "address"
        },
        {
          "internalType": "uint256",
          "name": "",
          "type": "uint256"
        }
      ],
      "name": "addressToSharesListingPoolIds",
      "outputs": [
        {
          "internalType": "uint256",
          "name": "",
          "type": "uint256"
        }
      ],
      "stateMutability": "view",
      "type": "function"
    },
    {
      "inputs": [],
      "name": "blockEstateAssetsAddress",
      "outputs": [
        {
          "internalType": "address",
          "name": "",
          "type": "address"
        }
      ],
      "stateMutability": "view",
      "type": "function"
    },
    {
      "inputs": [],
      "name": "blockEstateSharesAddress",
      "outputs": [
        {
          "internalType": "address",
          "name": "",
          "type": "address"
        }
      ],
      "stateMutability": "view",
      "type": "function"
    },
    {
      "inputs": [
        {
          "internalType": "uint256",
          "name": "listingId",
          "type": "uint256"
        },
        {
          "internalType": "address[]",
          "name": "investors",
          "type": "address[]"
        },
        {
          "internalType": "uint256[]",
          "name": "sharesAmounts",
          "type": "uint256[]"
        }
      ],
      "name": "createSharesGroupInvestment",
      "outputs": [],
      "stateMutability": "nonpayable",
      "type": "function"
    },
    {
      "inputs": [
        {
          "internalType": "uint256",
          "name": "tokenId",
          "type": "uint256"
        },
        {
          "internalType": "uint256",
          "name": "price",
          "type": "uint256"
        },
        {
          "internalType": "uint256",
          "name": "amount",
          "type": "uint256"
        }
      ],
      "name": "createSharesListing",
      "outputs": [],
      "stateMutability": "nonpayable",
      "type": "function"
    },
    {
      "inputs": [
        {
          "internalType": "uint256",
          "name": "tokenId",
          "type": "uint256"
        },
        {
          "internalType": "uint256",
          "name": "price",
          "type": "uint256"
        },
        {
          "internalType": "uint256",
          "name": "amount",
          "type": "uint256"
        }
      ],
      "name": "createSharesListingPool",
      "outputs": [],
      "stateMutability": "nonpayable",
      "type": "function"
    },
    {
      "inputs": [
        {
          "internalType": "uint256",
          "name": "listingId",
          "type": "uint256"
        }
      ],
      "name": "deleteSharesListing",
      "outputs": [],
      "stateMutability": "nonpayable",
      "type": "function"
    },
    {
      "inputs": [
        {
          "internalType": "uint256",
          "name": "_amount",
          "type": "uint256"
        }
      ],
      "name": "deposit",
      "outputs": [],
      "stateMutability": "nonpayable",
      "type": "function"
    },
    {
      "inputs": [
        {
          "internalType": "uint256",
          "name": "sharesListingPoolId",
          "type": "uint256"
        },
        {
          "internalType": "uint256",
          "name": "amount",
          "type": "uint256"
        }
      ],
      "name": "depositSharesListingPool",
      "outputs": [],
      "stateMutability": "nonpayable",
      "type": "function"
    },
    {
      "inputs": [
        {
          "internalType": "address",
          "name": "",
          "type": "address"
        }
      ],
      "name": "fundsPool",
      "outputs": [
        {
          "internalType": "uint256",
          "name": "",
          "type": "uint256"
        }
      ],
      "stateMutability": "view",
      "type": "function"
    },
    {
      "inputs": [
        {
          "internalType": "uint256",
          "name": "",
          "type": "uint256"
        }
      ],
      "name": "groupInvestments",
      "outputs": [
        {
          "internalType": "uint256",
          "name": "investmentId",
          "type": "uint256"
        },
        {
          "internalType": "uint256",
          "name": "listingId",
          "type": "uint256"
        },
        {
          "internalType": "bool",
          "name": "isActive",
          "type": "bool"
        }
      ],
      "stateMutability": "view",
      "type": "function"
    },
    {
      "inputs": [
        {
          "internalType": "address",
          "name": "",
          "type": "address"
        },
        {
          "internalType": "address",
          "name": "",
          "type": "address"
        },
        {
          "internalType": "uint256[]",
          "name": "",
          "type": "uint256[]"
        },
        {
          "internalType": "uint256[]",
          "name": "",
          "type": "uint256[]"
        },
        {
          "internalType": "bytes",
          "name": "",
          "type": "bytes"
        }
      ],
      "name": "onERC1155BatchReceived",
      "outputs": [
        {
          "internalType": "bytes4",
          "name": "",
          "type": "bytes4"
        }
      ],
      "stateMutability": "nonpayable",
      "type": "function"
    },
    {
      "inputs": [
        {
          "internalType": "address",
          "name": "",
          "type": "address"
        },
        {
          "internalType": "address",
          "name": "",
          "type": "address"
        },
        {
          "internalType": "uint256",
          "name": "",
          "type": "uint256"
        },
        {
          "internalType": "uint256",
          "name": "",
          "type": "uint256"
        },
        {
          "internalType": "bytes",
          "name": "",
          "type": "bytes"
        }
      ],
      "name": "onERC1155Received",
      "outputs": [
        {
          "internalType": "bytes4",
          "name": "",
          "type": "bytes4"
        }
      ],
      "stateMutability": "nonpayable",
      "type": "function"
    },
    {
      "inputs": [],
      "name": "owner",
      "outputs": [
        {
          "internalType": "address",
          "name": "",
          "type": "address"
        }
      ],
      "stateMutability": "view",
      "type": "function"
    },
    {
      "inputs": [],
      "name": "pause",
      "outputs": [],
      "stateMutability": "nonpayable",
      "type": "function"
    },
    {
      "inputs": [],
      "name": "paused",
      "outputs": [
        {
          "internalType": "bool",
          "name": "",
          "type": "bool"
        }
      ],
      "stateMutability": "view",
      "type": "function"
    },
    {
      "inputs": [
        {
          "internalType": "uint256",
          "name": "sharesListingPoolId",
          "type": "uint256"
        },
        {
          "internalType": "uint256",
          "name": "amount",
          "type": "uint256"
        }
      ],
      "name": "purchaseFromSharesListingPool",
      "outputs": [],
      "stateMutability": "nonpayable",
      "type": "function"
    },
    {
      "inputs": [
        {
          "internalType": "uint256",
          "name": "listingId",
          "type": "uint256"
        }
      ],
      "name": "purchaseSharesListing",
      "outputs": [],
      "stateMutability": "nonpayable",
      "type": "function"
    },
    {
      "inputs": [],
      "name": "readAllGroupInvestments",
      "outputs": [
        {
          "components": [
            {
              "internalType": "uint256",
              "name": "investmentId",
              "type": "uint256"
            },
            {
              "internalType": "uint256",
              "name": "listingId",
              "type": "uint256"
            },
            {
              "internalType": "address[]",
              "name": "investors",
              "type": "address[]"
            },
            {
              "internalType": "uint256[]",
              "name": "sharesAmounts",
              "type": "uint256[]"
            },
            {
              "internalType": "address[]",
              "name": "accepted",
              "type": "address[]"
            },
            {
              "internalType": "bool",
              "name": "isActive",
              "type": "bool"
            }
          ],
          "internalType": "struct BlockEstateMarket.GroupInvestment[]",
          "name": "",
          "type": "tuple[]"
        }
      ],
      "stateMutability": "view",
      "type": "function"
    },
    {
      "inputs": [],
      "name": "readAllSharesListingPools",
      "outputs": [
        {
          "components": [
            {
              "internalType": "uint256",
              "name": "sharesListingPoolId",
              "type": "uint256"
            },
            {
              "internalType": "uint256",
              "name": "tokenId",
              "type": "uint256"
            },
            {
              "internalType": "address",
              "name": "seller",
              "type": "address"
            },
            {
              "internalType": "uint256",
              "name": "price",
              "type": "uint256"
            },
            {
              "internalType": "uint256",
              "name": "amount",
              "type": "uint256"
            }
          ],
          "internalType": "struct BlockEstateMarket.SharesListingPool[]",
          "name": "",
          "type": "tuple[]"
        }
      ],
      "stateMutability": "view",
      "type": "function"
    },
    {
      "inputs": [],
      "name": "readAllSharesListings",
      "outputs": [
        {
          "components": [
            {
              "internalType": "uint256",
              "name": "listingId",
              "type": "uint256"
            },
            {
              "internalType": "uint256",
              "name": "tokenId",
              "type": "uint256"
            },
            {
              "internalType": "uint256",
              "name": "price",
              "type": "uint256"
            },
            {
              "internalType": "uint256",
              "name": "amount",
              "type": "uint256"
            },
            {
              "internalType": "address",
              "name": "seller",
              "type": "address"
            },
            {
              "internalType": "bool",
              "name": "isActive",
              "type": "bool"
            }
          ],
          "internalType": "struct BlockEstateMarket.SharesListing[]",
          "name": "",
          "type": "tuple[]"
        }
      ],
      "stateMutability": "view",
      "type": "function"
    },
    {
      "inputs": [
        {
          "internalType": "uint256",
          "name": "investmentId",
          "type": "uint256"
        }
      ],
      "name": "readGroupInvestment",
      "outputs": [
        {
          "components": [
            {
              "internalType": "uint256",
              "name": "investmentId",
              "type": "uint256"
            },
            {
              "internalType": "uint256",
              "name": "listingId",
              "type": "uint256"
            },
            {
              "internalType": "address[]",
              "name": "investors",
              "type": "address[]"
            },
            {
              "internalType": "uint256[]",
              "name": "sharesAmounts",
              "type": "uint256[]"
            },
            {
              "internalType": "address[]",
              "name": "accepted",
              "type": "address[]"
            },
            {
              "internalType": "bool",
              "name": "isActive",
              "type": "bool"
            }
          ],
          "internalType": "struct BlockEstateMarket.GroupInvestment",
          "name": "",
          "type": "tuple"
        }
      ],
      "stateMutability": "view",
      "type": "function"
    },
    {
      "inputs": [],
      "name": "readGroupInvestmentsByAccount",
      "outputs": [
        {
          "components": [
            {
              "internalType": "uint256",
              "name": "investmentId",
              "type": "uint256"
            },
            {
              "internalType": "uint256",
              "name": "listingId",
              "type": "uint256"
            },
            {
              "internalType": "address[]",
              "name": "investors",
              "type": "address[]"
            },
            {
              "internalType": "uint256[]",
              "name": "sharesAmounts",
              "type": "uint256[]"
            },
            {
              "internalType": "address[]",
              "name": "accepted",
              "type": "address[]"
            },
            {
              "internalType": "bool",
              "name": "isActive",
              "type": "bool"
            }
          ],
          "internalType": "struct BlockEstateMarket.GroupInvestment[]",
          "name": "",
          "type": "tuple[]"
        }
      ],
      "stateMutability": "view",
      "type": "function"
    },
    {
      "inputs": [
        {
          "internalType": "address",
          "name": "account",
          "type": "address"
        }
      ],
      "name": "readListingsByAccount",
      "outputs": [
        {
          "components": [
            {
              "internalType": "uint256",
              "name": "listingId",
              "type": "uint256"
            },
            {
              "internalType": "uint256",
              "name": "tokenId",
              "type": "uint256"
            },
            {
              "internalType": "uint256",
              "name": "price",
              "type": "uint256"
            },
            {
              "internalType": "uint256",
              "name": "amount",
              "type": "uint256"
            },
            {
              "internalType": "address",
              "name": "seller",
              "type": "address"
            },
            {
              "internalType": "bool",
              "name": "isActive",
              "type": "bool"
            }
          ],
          "internalType": "struct BlockEstateMarket.SharesListing[]",
          "name": "",
          "type": "tuple[]"
        }
      ],
      "stateMutability": "view",
      "type": "function"
    },
    {
      "inputs": [
        {
          "internalType": "uint256",
          "name": "tokenId",
          "type": "uint256"
        }
      ],
      "name": "readListingsByAsset",
      "outputs": [
        {
          "components": [
            {
              "internalType": "uint256",
              "name": "listingId",
              "type": "uint256"
            },
            {
              "internalType": "uint256",
              "name": "tokenId",
              "type": "uint256"
            },
            {
              "internalType": "uint256",
              "name": "price",
              "type": "uint256"
            },
            {
              "internalType": "uint256",
              "name": "amount",
              "type": "uint256"
            },
            {
              "internalType": "address",
              "name": "seller",
              "type": "address"
            },
            {
              "internalType": "bool",
              "name": "isActive",
              "type": "bool"
            }
          ],
          "internalType": "struct BlockEstateMarket.SharesListing[]",
          "name": "",
          "type": "tuple[]"
        }
      ],
      "stateMutability": "view",
      "type": "function"
    },
    {
      "inputs": [
        {
          "internalType": "address",
          "name": "account",
          "type": "address"
        },
        {
          "internalType": "uint256",
          "name": "tokenId",
          "type": "uint256"
        }
      ],
      "name": "readSharesBalanceInPoolsOf",
      "outputs": [
        {
          "internalType": "uint256",
          "name": "",
          "type": "uint256"
        }
      ],
      "stateMutability": "view",
      "type": "function"
    },
    {
      "inputs": [
        {
          "internalType": "address",
          "name": "account",
          "type": "address"
        }
      ],
      "name": "readSharesListingPoolsByAccount",
      "outputs": [
        {
          "components": [
            {
              "internalType": "uint256",
              "name": "sharesListingPoolId",
              "type": "uint256"
            },
            {
              "internalType": "uint256",
              "name": "tokenId",
              "type": "uint256"
            },
            {
              "internalType": "address",
              "name": "seller",
              "type": "address"
            },
            {
              "internalType": "uint256",
              "name": "price",
              "type": "uint256"
            },
            {
              "internalType": "uint256",
              "name": "amount",
              "type": "uint256"
            }
          ],
          "internalType": "struct BlockEstateMarket.SharesListingPool[]",
          "name": "",
          "type": "tuple[]"
        }
      ],
      "stateMutability": "view",
      "type": "function"
    },
    {
      "inputs": [
        {
          "internalType": "uint256",
          "name": "tokenId",
          "type": "uint256"
        }
      ],
      "name": "readSharesListingPoolsByAsset",
      "outputs": [
        {
          "components": [
            {
              "internalType": "uint256",
              "name": "sharesListingPoolId",
              "type": "uint256"
            },
            {
              "internalType": "uint256",
              "name": "tokenId",
              "type": "uint256"
            },
            {
              "internalType": "address",
              "name": "seller",
              "type": "address"
            },
            {
              "internalType": "uint256",
              "name": "price",
              "type": "uint256"
            },
            {
              "internalType": "uint256",
              "name": "amount",
              "type": "uint256"
            }
          ],
          "internalType": "struct BlockEstateMarket.SharesListingPool[]",
          "name": "",
          "type": "tuple[]"
        }
      ],
      "stateMutability": "view",
      "type": "function"
    },
    {
      "inputs": [
        {
          "internalType": "uint256",
          "name": "groupInvestmentId",
          "type": "uint256"
        }
      ],
      "name": "refuseGroupInvestment",
      "outputs": [],
      "stateMutability": "nonpayable",
      "type": "function"
    },
    {
      "inputs": [],
      "name": "renounceOwnership",
      "outputs": [],
      "stateMutability": "nonpayable",
      "type": "function"
    },
    {
      "inputs": [
        {
          "internalType": "uint256",
          "name": "groupInvestmentId",
          "type": "uint256"
        }
      ],
      "name": "revokeGroupInvestment",
      "outputs": [],
      "stateMutability": "nonpayable",
      "type": "function"
    },
    {
      "inputs": [
        {
          "internalType": "address",
          "name": "_blockEstateAssetsAddress",
          "type": "address"
        }
      ],
      "name": "setBlockEstateAssetsAddress",
      "outputs": [],
      "stateMutability": "nonpayable",
      "type": "function"
    },
    {
      "inputs": [
        {
          "internalType": "address",
          "name": "_blockEstateRentalsAddress",
          "type": "address"
        }
      ],
      "name": "setBlockEstateRentalsAddress",
      "outputs": [],
      "stateMutability": "nonpayable",
      "type": "function"
    },
    {
      "inputs": [
        {
          "internalType": "address",
          "name": "_blockEstateSharesAddress",
          "type": "address"
        }
      ],
      "name": "setBlockEstateSharesAddress",
      "outputs": [],
      "stateMutability": "nonpayable",
      "type": "function"
    },
    {
      "inputs": [
        {
          "internalType": "uint256",
          "name": "",
          "type": "uint256"
        }
      ],
      "name": "sharesListingPools",
      "outputs": [
        {
          "internalType": "uint256",
          "name": "sharesListingPoolId",
          "type": "uint256"
        },
        {
          "internalType": "uint256",
          "name": "tokenId",
          "type": "uint256"
        },
        {
          "internalType": "address",
          "name": "seller",
          "type": "address"
        },
        {
          "internalType": "uint256",
          "name": "price",
          "type": "uint256"
        },
        {
          "internalType": "uint256",
          "name": "amount",
          "type": "uint256"
        }
      ],
      "stateMutability": "view",
      "type": "function"
    },
    {
      "inputs": [
        {
          "internalType": "uint256",
          "name": "",
          "type": "uint256"
        }
      ],
      "name": "sharesListings",
      "outputs": [
        {
          "internalType": "uint256",
          "name": "listingId",
          "type": "uint256"
        },
        {
          "internalType": "uint256",
          "name": "tokenId",
          "type": "uint256"
        },
        {
          "internalType": "uint256",
          "name": "price",
          "type": "uint256"
        },
        {
          "internalType": "uint256",
          "name": "amount",
          "type": "uint256"
        },
        {
          "internalType": "address",
          "name": "seller",
          "type": "address"
        },
        {
          "internalType": "bool",
          "name": "isActive",
          "type": "bool"
        }
      ],
      "stateMutability": "view",
      "type": "function"
    },
    {
      "inputs": [
        {
          "internalType": "bytes4",
          "name": "interfaceId",
          "type": "bytes4"
        }
      ],
      "name": "supportsInterface",
      "outputs": [
        {
          "internalType": "bool",
          "name": "",
          "type": "bool"
        }
      ],
      "stateMutability": "view",
      "type": "function"
    },
    {
      "inputs": [
        {
          "internalType": "address",
          "name": "from",
          "type": "address"
        },
        {
          "internalType": "address",
          "name": "to",
          "type": "address"
        },
        {
          "internalType": "uint256",
          "name": "amount",
          "type": "uint256"
        }
      ],
      "name": "transferFunds",
      "outputs": [],
      "stateMutability": "nonpayable",
      "type": "function"
    },
    {
      "inputs": [
        {
          "internalType": "address",
          "name": "newOwner",
          "type": "address"
        }
      ],
      "name": "transferOwnership",
      "outputs": [],
      "stateMutability": "nonpayable",
      "type": "function"
    },
    {
      "inputs": [],
      "name": "unpause",
      "outputs": [],
      "stateMutability": "nonpayable",
      "type": "function"
    },
    {
      "inputs": [],
      "name": "usd",
      "outputs": [
        {
          "internalType": "contract IERC20",
          "name": "",
          "type": "address"
        }
      ],
      "stateMutability": "view",
      "type": "function"
    },
    {
      "inputs": [
        {
          "internalType": "address",
          "name": "",
          "type": "address"
        },
        {
          "internalType": "uint256",
          "name": "",
          "type": "uint256"
        }
      ],
      "name": "userGroupInvestments",
      "outputs": [
        {
          "internalType": "uint256",
          "name": "",
          "type": "uint256"
        }
      ],
      "stateMutability": "view",
      "type": "function"
    },
    {
      "inputs": [
        {
          "internalType": "address",
          "name": "",
          "type": "address"
        },
        {
          "internalType": "uint256",
          "name": "",
          "type": "uint256"
        }
      ],
      "name": "userListings",
      "outputs": [
        {
          "internalType": "uint256",
          "name": "",
          "type": "uint256"
        }
      ],
      "stateMutability": "view",
      "type": "function"
    },
    {
      "inputs": [
        {
          "internalType": "uint256",
          "name": "_amount",
          "type": "uint256"
        }
      ],
      "name": "withdraw",
      "outputs": [],
      "stateMutability": "nonpayable",
      "type": "function"
    },
    {
      "inputs": [
        {
          "internalType": "uint256",
          "name": "sharesListingPoolId",
          "type": "uint256"
        },
        {
          "internalType": "uint256",
          "name": "amount",
          "type": "uint256"
        }
      ],
      "name": "withdrawSharesListingPool",
      "outputs": [],
      "stateMutability": "nonpayable",
      "type": "function"
    }
  ],
  "bytecode": "0x60806040523480156200001157600080fd5b5060405162004fa438038062004fa48339810160408190526200003491620001d9565b6200003f336200016c565b6000805460ff60a01b19169055600180556001600160a01b0383166200009b5760405162461bcd60e51b815260206004820152600c60248201526b7a65726f206164647265737360a01b60448201526064015b60405180910390fd5b6001600160a01b038216620000e25760405162461bcd60e51b815260206004820152600c60248201526b7a65726f206164647265737360a01b604482015260640162000092565b6001600160a01b038116620001295760405162461bcd60e51b815260206004820152600c60248201526b7a65726f206164647265737360a01b604482015260640162000092565b600580546001600160a01b039485166001600160a01b03199182161790915560068054938516938216939093179092556008805491909316911617905562000223565b600080546001600160a01b038381166001600160a01b0319831681178455604051919092169283917f8be0079c531659141344cd1fd0a4f28419497f9722a3daafe3b4186f6b6457e09190a35050565b80516001600160a01b0381168114620001d457600080fd5b919050565b600080600060608486031215620001ef57600080fd5b620001fa84620001bc565b92506200020a60208501620001bc565b91506200021a60408501620001bc565b90509250925092565b614d7180620002336000396000f3fe608060405234801561001057600080fd5b506004361061028a5760003560e01c80638456cb591161015c578063cf7080eb116100ce578063eb9e00b911610087578063eb9e00b914610700578063f23a6e6114610713578063f255ac8a14610732578063f2fde38b1461073a578063f486ca581461074d578063f5f333971461075557600080fd5b8063cf7080eb14610650578063d05ee8d21461069f578063d63a6ccd146106b4578063d956c104146106c7578063e2b90598146106da578063e8c7d99a146106ed57600080fd5b80639f653c51116101205780639f653c511461054f578063a0b7dfdb14610562578063a81269fa146105df578063a8e8f0cd146105f2578063b6b55f2514610605578063bc197c811461061857600080fd5b80638456cb59146104fd57806386cfa7d3146105055780638c0ba022146105185780638da5cb5b1461052b5780639a5d65241461053c57600080fd5b80634e697728116102005780636b78018b116101b95780636b78018b146103fa5780636e86e79514610425578063715018a6146104455780637716e5731461044d5780637e2cb96c146104d75780637fa3d39e146104ea57600080fd5b80634e697728146103945780635131e4e71461039c5780635a74874b146103af5780635c975abb146103c25780635ce02655146103d457806363571e65146103e757600080fd5b80632f3ae1d5116102525780632f3ae1d514610305578063367eeb47146103255780633f4ba83a146103455780634147e8fd1461034d578063416968181461036e578063469fc5291461038157600080fd5b806301ffc9a71461028f578063097dd3a4146102b75780631501bf03146102cc57806323be15bb146102df5780632e1a7d4d146102f2575b600080fd5b6102a261029d366004614449565b610775565b60405190151581526020015b60405180910390f35b6102ca6102c536600461447a565b6107ac565b005b6102ca6102da3660046144c2565b610bd2565b6102ca6102ed3660046144fe565b610ce7565b6102ca6103003660046144fe565b611165565b6103186103133660046144fe565b611263565b6040516102ae9190614517565b6103386103333660046144fe565b611387565b6040516102ae919061458e565b6102ca6114b4565b61036061035b366004614604565b6114c6565b6040519081526020016102ae565b6102ca61037c3660046144fe565b6114f7565b61036061038f366004614604565b611622565b6103386116ab565b6102ca6103aa36600461462e565b6117cd565b6102ca6103bd3660046144fe565b611864565b600054600160a01b900460ff166102a2565b6102ca6103e2366004614649565b611927565b6102ca6103f536600461462e565b611b04565b60055461040d906001600160a01b031681565b6040516001600160a01b0390911681526020016102ae565b61036061043336600461462e565b60096020526000908152604090205481565b6102ca611b9b565b61049f61045b3660046144fe565b600a6020526000908152604090208054600182015460028301546003840154600490940154929391929091906001600160a01b03811690600160a01b900460ff1686565b6040805196875260208701959095529385019290925260608401526001600160a01b03166080830152151560a082015260c0016102ae565b6103186104e536600461462e565b611bad565b6102ca6104f8366004614649565b611ccb565b6102ca611f02565b610360610513366004614604565b611f12565b6102ca6105263660046144fe565b611f2e565b6000546001600160a01b031661040d565b6102ca61054a3660046144fe565b6120a1565b60065461040d906001600160a01b031681565b6105a96105703660046144fe565b600c6020526000908152604090208054600182015460028301546003840154600490940154929391926001600160a01b03909116919085565b6040805195865260208601949094526001600160a01b03909216928401929092526060830191909152608082015260a0016102ae565b6102ca6105ed36600461462e565b6123a0565b610360610600366004614604565b612437565b6102ca6106133660046144fe565b612453565b6106376106263660046147ae565b63bc197c8160e01b95945050505050565b6040516001600160e01b031990911681526020016102ae565b61068261065e3660046144fe565b600e6020526000908152604090208054600182015460059092015490919060ff1683565b6040805193845260208401929092521515908201526060016102ae565b6106a76124f6565b6040516102ae9190614937565b60085461040d906001600160a01b031681565b6103386106d536600461462e565b6126ff565b6102ca6106e8366004614649565b612864565b6102ca6106fb366004614999565b612b5d565b6102ca61070e36600461447a565b613117565b610637610721366004614a63565b63f23a6e6160e01b95945050505050565b6106a76136c1565b6102ca61074836600461462e565b6138ff565b610318613975565b6107686107633660046144fe565b613a7f565b6040516102ae9190614ac7565b60006001600160e01b03198216630271189760e51b14806107a657506301ffc9a760e01b6001600160e01b03198316145b92915050565b600554604051634f558e7960e01b81526004810185905284916001600160a01b031690634f558e7990602401602060405180830381865afa1580156107f5573d6000803e3d6000fd5b505050506040513d601f19601f820116820180604052508101906108199190614ada565b6108625760405162461bcd60e51b8152602060048201526015602482015274417373657420646f6573206e6f742065786973742160581b60448201526064015b60405180910390fd5b600654604051627eeac760e11b81523360048201819052602482018790529186916000916001600160a01b03169062fdd58e90604401602060405180830381865afa1580156108b5573d6000803e3d6000fd5b505050506040513d601f19601f820116820180604052508101906108d99190614afc565b116109185760405162461bcd60e51b815260206004820152600f60248201526e3737ba1039b430b932b437b63232b960891b6044820152606401610859565b610920613bdd565b600085116109605760405162461bcd60e51b815260206004820152600d60248201526c1c1c9a58d9480f080c481554d1609a1b6044820152606401610859565b600084116109805760405162461bcd60e51b815260040161085990614b15565b60065460405163e985e9c560e01b81523360048201523060248201526001600160a01b039091169063e985e9c590604401602060405180830381865afa1580156109ce573d6000803e3d6000fd5b505050506040513d601f19601f820116820180604052508101906109f29190614ada565b610a355760405162461bcd60e51b81526020600482015260146024820152731b9bdd08185c1c1c9bdd995908199bdc88185b1b60621b6044820152606401610859565b600654604051637921219560e11b81526001600160a01b039091169063f242432a90610a6b90339030908b908a90600401614b39565b600060405180830381600087803b158015610a8557600080fd5b505af1158015610a99573d6000803e3d6000fd5b505050506040518060a00160405280610ab160035490565b81526020810188905233604082015260608101879052608001859052600c6000610ada60035490565b81526020808201929092526040908101600090812084518155848401516001820155848301516002820180546001600160a01b0319166001600160a01b039092169190911790556060850151600380830191909155608090950151600490910155338152600d90925290209054815460018101835560009283526020909220909101557f612c47c93a38c3d19962445858bd6728e5e62913bf78ff53f27726dd6fa64dc9610b8760035490565b60408051918252602082018990523390820152606081018790526080810186905260a00160405180910390a1610bc1600380546001019055565b610bca60018055565b505050505050565b336001600160a01b0384161480610bf357506007546001600160a01b031633145b610c2d5760405162461bcd60e51b815260206004820152600b60248201526a1b9bdd08185b1b1bddd95960aa1b6044820152606401610859565b6001600160a01b038316600090815260096020526040902054811115610c885760405162461bcd60e51b815260206004820152601060248201526f6e6f7420656e6f7567682066756e647360801b6044820152606401610859565b6001600160a01b03831660009081526009602052604081208054839290610cb0908490614b87565b90915550506001600160a01b03821660009081526009602052604081208054839290610cdd908490614b9a565b9091555050505050565b6000818152600e602052604090206005015460ff16610d185760405162461bcd60e51b815260040161085990614bad565b6000805b6000838152600e6020526040902060020154811015610dd1576000838152600e60205260409020600201805433919083908110610d5b57610d5b614bfd565b6000918252602090912001546001600160a01b031603610d7a57600191505b6000838152600e60205260409020600201805433919083908110610da057610da0614bfd565b6000918252602090912001546001600160a01b031603610dbf57600191505b80610dc981614c13565b915050610d1c565b5080610def5760405162461bcd60e51b815260040161085990614c2c565b60005b6000838152600e6020526040902060040154811015610ea5576000838152600e60205260409020600401805433919083908110610e3157610e31614bfd565b6000918252602090912001546001600160a01b031603610e935760405162461bcd60e51b815260206004820152601760248201527f53656e64657220616c72656164792061636365707465640000000000000000006044820152606401610859565b80610e9d81614c13565b915050610df2565b506000828152600e60209081526040822060040180546001810182559083529082200180546001600160a01b031916331790555b6000838152600e60205260409020600201548110156110d7576008546000848152600e60205260408120600201805491926001600160a01b03169163dd62ed3e919085908110610f2b57610f2b614bfd565b60009182526020909120015460405160e083901b6001600160e01b03191681526001600160a01b039091166004820152306024820152604401602060405180830381865afa158015610f81573d6000803e3d6000fd5b505050506040513d601f19601f82011682018060405250810190610fa59190614afc565b6000858152600e6020526040902060030180549192509083908110610fcc57610fcc614bfd565b90600052602060002001548110156110c45760005b6000858152600e60205260409020600401548110156110c2576000858152600e6020526040902060020180548490811061101d5761101d614bfd565b6000918252602080832090910154878352600e909152604090912060040180546001600160a01b03909216918390811061105957611059614bfd565b6000918252602090912001546001600160a01b0316036110b0576000858152600e6020526040902060040180548490811061109657611096614bfd565b600091825260209091200180546001600160a01b03191690555b806110ba81614c13565b915050610fe1565b505b50806110cf81614c13565b915050610ed9565b506000828152600e60205260409020600281015460049091015403611161576000828152600e60205260409020600101546111129083613c36565b6000828152600e60205260408120818155600181018290559061113860028301826142c5565b6111466003830160006142c5565b6111546004830160006142c5565b50600501805460ff191690555b5050565b61116d613bdd565b336000908152600960205260409020548111156111bf5760405162461bcd60e51b815260206004820152601060248201526f6e6f7420656e6f7567682066756e647360801b6044820152606401610859565b60085460405163a9059cbb60e01b8152336004820152602481018390526001600160a01b039091169063a9059cbb906044016020604051808303816000875af1158015611210573d6000803e3d6000fd5b505050506040513d601f19601f820116820180604052508101906112349190614ada565b503360009081526009602052604081208054839290611254908490614b87565b90915550506001805550565b50565b6060600061127060035490565b6001600160401b038111156112875761128761466b565b6040519080825280602002602001820160405280156112c057816020015b6112ad6142e3565b8152602001906001900390816112a55790505b5090506000805b60035481101561137e576000818152600c602052604090206001015485900361136c576000818152600c6020908152604091829020825160a0810184528154815260018201549281019290925260028101546001600160a01b031692820192909252600382015460608201526004909101546080820152835184908490811061135257611352614bfd565b6020026020010181905250818061136890614c13565b9250505b8061137681614c13565b9150506112c7565b50909392505050565b6060600061139460025490565b6001600160401b038111156113ab576113ab61466b565b6040519080825280602002602001820160405280156113e457816020015b6113d161431b565b8152602001906001900390816113c95790505b5090506000805b60025481101561137e576000818152600a60205260409020600101548590036114a2576000818152600a6020908152604091829020825160c08101845281548152600182015492810192909252600281015492820192909252600382015460608201526004909101546001600160a01b0381166080830152600160a01b900460ff16151560a0820152835184908490811061148857611488614bfd565b6020026020010181905250818061149e90614c13565b9250505b806114ac81614c13565b9150506113eb565b6114bc6140e6565b6114c4614140565b565b600d60205281600052604060002081815481106114e257600080fd5b90600052602060002001600091509150505481565b6114ff613bdd565b6000818152600a60205260409020600401546001600160a01b031633146115685760405162461bcd60e51b815260206004820152601e60248201527f4f6e6c792073656c6c65722063616e2064656c657465206c697374696e6700006044820152606401610859565b6000818152600a60209081526040918290206001810154600282015460038301546004909301548551878152948501929092528385015260608301919091526001600160a01b0316608082015290517f9eec8eb2210167a0d90bf048cbbd21154b36b1941fa1413a1294343b0f38c5999181900360a00190a16000818152600a602052604081208181556001810182905560028101829055600381019190915560040180546001600160a81b031916905561126060018055565b600080805b6003548110156116a3576000818152600c60205260409020600101548414801561166d57506000818152600c60205260409020600201546001600160a01b038681169116145b15611691576000818152600c602052604090206004015461168e9083614b9a565b91505b8061169b81614c13565b915050611627565b509392505050565b606060006116b860025490565b6001600160401b038111156116cf576116cf61466b565b60405190808252806020026020018201604052801561170857816020015b6116f561431b565b8152602001906001900390816116ed5790505b50905060005b6002548110156117c7576000818152600a6020526040902060010154156117b5576000818152600a6020908152604091829020825160c08101845281548152600182015492810192909252600281015492820192909252600382015460608201526004909101546001600160a01b0381166080830152600160a01b900460ff16151560a082015282518390839081106117a9576117a9614bfd565b60200260200101819052505b806117bf81614c13565b91505061170e565b50919050565b6117d56140e6565b6001600160a01b0381166117fb5760405162461bcd60e51b815260040161085990614c63565b600654604080516001600160a01b03928316815291831660208301527f1a41fb6f752ad018610bf79716ec70546bbda4a0235520e04158d3c4f3486230910160405180910390a1600680546001600160a01b0319166001600160a01b0392909216919091179055565b6000818152600e602052604090206005015460ff166118955760405162461bcd60e51b815260040161085990614bad565b6000805b6000838152600e6020526040902060020154811015611909576000838152600e602052604090206002018054339190839081106118d8576118d8614bfd565b6000918252602090912001546001600160a01b0316036118f757600191505b8061190181614c13565b915050611899565b50806111125760405162461bcd60e51b815260040161085990614c2c565b6000828152600c602052604081206001015490036119575760405162461bcd60e51b815260040161085990614c89565b6000828152600c60205260409020600201546001600160a01b031633146119d25760405162461bcd60e51b815260206004820152602960248201527f4f6e6c792073656c6c65722063616e206465706f73697420696e746f206c69736044820152681d1a5b99c81c1bdbdb60ba1b6064820152608401610859565b600081116119f25760405162461bcd60e51b815260040161085990614b15565b6006546000838152600c602052604090819020600101549051637921219560e11b81526001600160a01b039092169163f242432a91611a3991339130918790600401614b39565b600060405180830381600087803b158015611a5357600080fd5b505af1158015611a67573d6000803e3d6000fd5b5050506000838152600c602052604081206004018054849350909190611a8e908490614b9a565b90915550506000828152600c602090815260409182902060018101546002909101548351868152928301919091529181018390526001600160a01b0390911660608201527ff0d7b9758d830be21293bcc2dee3123aef6d18ae8d17ec88bc708a06ae688d04906080015b60405180910390a15050565b611b0c6140e6565b6001600160a01b038116611b325760405162461bcd60e51b815260040161085990614c63565b600554604080516001600160a01b03928316815291831660208301527f3c382290b39c0f8e7c9445f3393899e71f6f8b9a411021501c650ff68fa83b99910160405180910390a1600580546001600160a01b0319166001600160a01b0392909216919091179055565b611ba36140e6565b6114c46000614195565b60606000611bba60035490565b6001600160401b03811115611bd157611bd161466b565b604051908082528060200260200182016040528015611c0a57816020015b611bf76142e3565b815260200190600190039081611bef5790505b50905060005b600354811015611cc4576000818152600c60205260409020600201546001600160a01b03808616911603611cb2576000818152600c6020908152604091829020825160a0810184528154815260018201549281019290925260028101546001600160a01b0316928201929092526003820154606082015260049091015460808201528251839083908110611ca657611ca6614bfd565b60200260200101819052505b80611cbc81614c13565b915050611c10565b5092915050565b6000828152600c60205260408120600101549003611cfb5760405162461bcd60e51b815260040161085990614c89565b6000828152600c60205260409020600201546001600160a01b03163314611d775760405162461bcd60e51b815260206004820152602a60248201527f4f6e6c792073656c6c65722063616e2077697468647261772066726f6d206c696044820152691cdd1a5b99c81c1bdbdb60b21b6064820152608401610859565b60008111611d975760405162461bcd60e51b815260040161085990614b15565b6000828152600c6020526040902060040154811115611df85760405162461bcd60e51b815260206004820152601960248201527f4e6f7420656e6f7567682073686172657320696e20706f6f6c000000000000006044820152606401610859565b6006546000838152600c602052604090819020600101549051637921219560e11b81526001600160a01b039092169163f242432a91611e3f91309133918790600401614b39565b600060405180830381600087803b158015611e5957600080fd5b505af1158015611e6d573d6000803e3d6000fd5b5050506000838152600c602052604081206004018054849350909190611e94908490614b87565b90915550506000828152600c602090815260409182902060018101546002909101548351868152928301919091529181018390526001600160a01b0390911660608201527f975f4087a805a27db35f362fdab17d76d0cd9b33eee1b5b0ffa9e911753608d490608001611af8565b611f0a6140e6565b6114c46141e5565b600b60205281600052604060002081815481106114e257600080fd5b6000818152600e602052604090206005015460ff16611f5f5760405162461bcd60e51b815260040161085990614bad565b6000805b6000838152600e6020526040902060020154811015611fd3576000838152600e60205260409020600201805433919083908110611fa257611fa2614bfd565b6000918252602090912001546001600160a01b031603611fc157600191505b80611fcb81614c13565b915050611f63565b5080611ff15760405162461bcd60e51b815260040161085990614c2c565b60005b6000838152600e602052604090206004015481101561209c576000838152600e6020526040902060040180543391908390811061203357612033614bfd565b6000918252602090912001546001600160a01b03160361208a576000838152600e6020526040902060040180548290811061207057612070614bfd565b600091825260209091200180546001600160a01b03191690555b8061209481614c13565b915050611ff4565b505050565b6120a9613bdd565b6000818152600a602052604081206001015490036121035760405162461bcd60e51b81526020600482015260176024820152764c697374696e6720646f6573206e6f742065786973742160481b6044820152606401610859565b6000818152600a6020526040902060040154336001600160a01b039091160361213e5760405162461bcd60e51b815260040161085990614cc0565b6000818152600a6020526040902060040154600160a01b900460ff1615156001146121ab5760405162461bcd60e51b815260206004820152601d60248201527f536861726573206c697374696e67206973206e6f7420616374697665210000006044820152606401610859565b6000818152600a60208181526040808420815160c08101835281548152600182018054828601526002830180548386019081526003850180546060860152600480870180546001600160a01b0380821660808a01908152600160a01b830460ff16151560a08b01528f8f529c909b52978c9055948b9055928a9055989098556001600160a81b031990931690556008549451955192516323b872dd60e01b81523392810192909252948316602482015260448101919091529116906323b872dd906064016020604051808303816000875af115801561228e573d6000803e3d6000fd5b505050506040513d601f19601f820116820180604052508101906122b29190614ada565b50600654608082015160208301516060840151604051637921219560e11b81526001600160a01b039094169363f242432a936122f49390923392600401614b39565b600060405180830381600087803b15801561230e57600080fd5b505af1158015612322573d6000803e3d6000fd5b50505060208083015160408085015160608087015160808089015185518b815297880196909652938601929092528401526001600160a01b03909116908201523360a08201527fb976e14df17a9b70d6dd3b3dcae82e3c877a71c73c5e950e486fe9918998e7ab915060c00160405180910390a15061126060018055565b6123a86140e6565b6001600160a01b0381166123ce5760405162461bcd60e51b815260040161085990614c63565b600754604080516001600160a01b03928316815291831660208301527f9e79c9f3bb21678f981d22aa2076abfb5cbf0052f45853459abf5015197f2de3910160405180910390a1600780546001600160a01b0319166001600160a01b0392909216919091179055565b600f60205281600052604060002081815481106114e257600080fd5b61245b613bdd565b6008546040516323b872dd60e01b8152336004820152306024820152604481018390526001600160a01b03909116906323b872dd906064016020604051808303816000875af11580156124b2573d6000803e3d6000fd5b505050506040513d601f19601f820116820180604052508101906124d69190614ada565b503360009081526009602052604081208054839290611254908490614b9a565b6060600061250360045490565b6001600160401b0381111561251a5761251a61466b565b60405190808252806020026020018201604052801561255357816020015b61254061435c565b8152602001906001900390816125385790505b50905060005b6004548110156117c7576000818152600e602052604090206005015460ff16156126ed576000818152600e6020908152604091829020825160c08101845281548152600182015481840152600282018054855181860281018601875281815292959394938601938301828280156125f957602002820191906000526020600020905b81546001600160a01b031681526001909101906020018083116125db575b505050505081526020016003820180548060200260200160405190810160405280929190818152602001828054801561265157602002820191906000526020600020905b81548152602001906001019080831161263d575b50505050508152602001600482018054806020026020016040519081016040528092919081815260200182805480156126b357602002820191906000526020600020905b81546001600160a01b03168152600190910190602001808311612695575b50505091835250506005919091015460ff16151560209091015282518390839081106126e1576126e1614bfd565b60200260200101819052505b806126f781614c13565b915050612559565b6001600160a01b0381166000908152600b6020526040812054606091906001600160401b038111156127335761273361466b565b60405190808252806020026020018201604052801561276c57816020015b61275961431b565b8152602001906001900390816127515790505b50905060005b6001600160a01b0384166000908152600b6020526040902054811015611cc4576001600160a01b0384166000908152600b602052604081208054600a929190849081106127c1576127c1614bfd565b600091825260208083209091015483528281019390935260409182019020815160c0810183528154815260018201549381019390935260028101549183019190915260038101546060830152600401546001600160a01b038116608083015260ff600160a01b90910416151560a0820152825183908390811061284657612846614bfd565b6020026020010181905250808061285c90614c13565b915050612772565b61286c613bdd565b6000828152600c6020526040812060010154900361289c5760405162461bcd60e51b815260040161085990614c89565b6000828152600c6020526040902060020154336001600160a01b03909116036128d75760405162461bcd60e51b815260040161085990614cc0565b6000828152600c60205260409020600401548111156129385760405162461bcd60e51b815260206004820181905260248201527f4e6f7420656e6f75676820736861726573206c697374656420696e20706f6f6c6044820152606401610859565b6000828152600c60205260408120600301546129549083614d02565b336000908152600960205260409020549091508111156129b65760405162461bcd60e51b815260206004820152601d60248201527f4e6f7420656e6f7567682066756e647320666f722070757263686173650000006044820152606401610859565b600082116129d65760405162461bcd60e51b815260040161085990614b15565b33600090815260096020526040812080548392906129f5908490614b87565b90915550506000838152600c60209081526040808320600201546001600160a01b03168352600990915281208054839290612a31908490614b9a565b90915550506006546000848152600c602052604090819020600101549051637921219560e11b81526001600160a01b039092169163f242432a91612a7d91309133918890600401614b39565b600060405180830381600087803b158015612a9757600080fd5b505af1158015612aab573d6000803e3d6000fd5b5050506000848152600c602052604081206004018054859350909190612ad2908490614b87565b90915550506000838152600c60209081526040918290206001810154600382015460029092015484518881529384019190915292820152606081018490526001600160a01b0390911660808201523360a08201527f2863381484f9cc73ecc2d0c2150ef67453492eb688e99bf4ac56f4be9a335c509060c00160405180910390a15061116160018055565b6000838152600a60205260408120600101549003612bb65760405162461bcd60e51b8152602060048201526016602482015275131a5cdd1a5b99c8191bd95cc81b9bdd08195e1a5cdd60521b6044820152606401610859565b6000838152600a6020526040902060040154600160a01b900460ff16612c165760405162461bcd60e51b81526020600482015260156024820152744c697374696e67206973206e6f742061637469766560581b6044820152606401610859565b6001825111612c675760405162461bcd60e51b815260206004820152601e60248201527f4d7573742068617665206174206c65617374203220696e766573746f727300006044820152606401610859565b8051825114612ccd5760405162461bcd60e51b815260206004820152602c60248201527f496e766573746f727320616e642073686172657320616d6f756e7473206c656e60448201526b0cee8d040dad2e6dac2e8c6d60a31b6064820152608401610859565b6000805b8351811015612d1357828181518110612cec57612cec614bfd565b602002602001015182612cff9190614b9a565b915080612d0b81614c13565b915050612cd1565b506000848152600a60205260409020600301548114612d8e5760405162461bcd60e51b815260206004820152603160248201527f546f74616c2073686172657320616d6f756e7420646f6573206e6f74206d617460448201527018da081b1a5cdd1a5b99c8185b5bdd5b9d607a1b6064820152608401610859565b6000805b8451811015612f64576000848281518110612daf57612daf614bfd565b602002602001015111612e105760405162461bcd60e51b8152602060048201526024808201527f53686172657320616d6f756e74206d75737420626520677265617465722074686044820152630616e20360e41b6064820152608401610859565b60006001600160a01b0316858281518110612e2d57612e2d614bfd565b60200260200101516001600160a01b031603612e8b5760405162461bcd60e51b815260206004820152601e60248201527f496e766573746f7220616464726573732063616e6e6f742062652030783000006044820152606401610859565b6000868152600a602052604090206004015485516001600160a01b0390911690869083908110612ebd57612ebd614bfd565b60200260200101516001600160a01b031603612f1b5760405162461bcd60e51b815260206004820152601960248201527f53656c6c65722063616e6e6f7420626520696e766573746f72000000000000006044820152606401610859565b336001600160a01b0316858281518110612f3757612f37614bfd565b60200260200101516001600160a01b031603612f5257600191505b80612f5c81614c13565b915050612d92565b5080612f825760405162461bcd60e51b815260040161085990614c2c565b6000805b60018651612f949190614b87565b81101561301c5760015b865181101561300957868181518110612fb957612fb9614bfd565b60200260200101516001600160a01b0316878381518110612fdc57612fdc614bfd565b60200260200101516001600160a01b031603612ff757600192505b8061300181614c13565b915050612f9e565b508061301481614c13565b915050612f86565b50801561306b5760405162461bcd60e51b815260206004820152601a60248201527f4475706c696361746520696e766573746f7220616464726573730000000000006044820152606401610859565b600480546000818152600e6020908152604080832093845560019093018a9055925481522086516130a492600290920191880190614394565b5083600e60006130b360045490565b815260200190815260200160002060030190805190602001906130d79291906143f9565b506001600e60006130e760045490565b81526020810191909152604001600020600501805460ff1916911515919091179055600480546001019055610bca565b600554604051634f558e7960e01b81526004810185905284916001600160a01b031690634f558e7990602401602060405180830381865afa158015613160573d6000803e3d6000fd5b505050506040513d601f19601f820116820180604052508101906131849190614ada565b6131c85760405162461bcd60e51b8152602060048201526015602482015274417373657420646f6573206e6f742065786973742160581b6044820152606401610859565b600654604051627eeac760e11b81523360048201819052602482018790529186916000916001600160a01b03169062fdd58e90604401602060405180830381865afa15801561321b573d6000803e3d6000fd5b505050506040513d601f19601f8201168201806040525081019061323f9190614afc565b1161327e5760405162461bcd60e51b815260206004820152600f60248201526e3737ba1039b430b932b437b63232b960891b6044820152606401610859565b613286613bdd565b600085116132c65760405162461bcd60e51b815260206004820152600d60248201526c1c1c9a58d9480f080c481554d1609a1b6044820152606401610859565b600084116132e65760405162461bcd60e51b815260040161085990614b15565b60065460405163e985e9c560e01b81523360048201523060248201526001600160a01b039091169063e985e9c590604401602060405180830381865afa158015613334573d6000803e3d6000fd5b505050506040513d601f19601f820116820180604052508101906133589190614ada565b61339b5760405162461bcd60e51b81526020600482015260146024820152731b9bdd08185c1c1c9bdd995908199bdc88185b1b60621b6044820152606401610859565b8360005b336000908152600b60205260409020548110156134bc57336000908152600b6020526040812080548a92600a929091859081106133de576133de614bfd565b90600052602060002001548152602001908152602001600020600101541480156134545750336000908152600b602052604081208054600a9291908490811061342957613429614bfd565b9060005260206000200154815260200190815260200160002060040160149054906101000a900460ff165b156134aa57336000908152600b602052604081208054600a9291908490811061347f5761347f614bfd565b9060005260206000200154815260200190815260200160002060030154826134a79190614b9a565b91505b806134b481614c13565b91505061339f565b50600654604051627eeac760e11b8152336004820152602481018990526001600160a01b039091169062fdd58e90604401602060405180830381865afa15801561350a573d6000803e3d6000fd5b505050506040513d601f19601f8201168201806040525081019061352e9190614afc565b8111156135715760405162461bcd60e51b81526020600482015260116024820152706e6f7420656e6f7567682073686172657360781b6044820152606401610859565b6040518060c0016040528061358560025490565b8152602081018990526040810188905260608101879052336080820152600160a090910152600a60006135b760025490565b81526020808201929092526040908101600090812084518155848401516001820155848301516002808301919091556060860151600383015560808601516004909201805460a0909701511515600160a01b026001600160a81b03199097166001600160a01b0390931692909217959095179055338152600b90925290209061363e905490565b815460018101835560009283526020909220909101557f97dcdac6c7238ca7fc3ad41c8a17e1ac9825015db181b6f7d0a8e444dbd1128661367e60025490565b60408051918252602082018a905281018890526060810187905233608082015260a00160405180910390a16136b7600280546001019055565b50610bca60018055565b336000908152600f6020526040812054606091906001600160401b038111156136ec576136ec61466b565b60405190808252806020026020018201604052801561372557816020015b61371261435c565b81526020019060019003908161370a5790505b50905060005b336000908152600f60205260409020548110156117c757336000908152600f602052604081208054600e9291908490811061376857613768614bfd565b906000526020600020015481526020019081526020016000206040518060c00160405290816000820154815260200160018201548152602001600282018054806020026020016040519081016040528092919081815260200182805480156137f957602002820191906000526020600020905b81546001600160a01b031681526001909101906020018083116137db575b505050505081526020016003820180548060200260200160405190810160405280929190818152602001828054801561385157602002820191906000526020600020905b81548152602001906001019080831161383d575b50505050508152602001600482018054806020026020016040519081016040528092919081815260200182805480156138b357602002820191906000526020600020905b81546001600160a01b03168152600190910190602001808311613895575b50505091835250506005919091015460ff16151560209091015282518390839081106138e1576138e1614bfd565b602002602001018190525080806138f790614c13565b91505061372b565b6139076140e6565b6001600160a01b03811661396c5760405162461bcd60e51b815260206004820152602660248201527f4f776e61626c653a206e6577206f776e657220697320746865207a65726f206160448201526564647265737360d01b6064820152608401610859565b61126081614195565b6060600061398260035490565b6001600160401b038111156139995761399961466b565b6040519080825280602002602001820160405280156139d257816020015b6139bf6142e3565b8152602001906001900390816139b75790505b50905060005b6003548110156117c7576000818152600c602052604090206001015415613a6d576000818152600c6020908152604091829020825160a0810184528154815260018201549281019290925260028101546001600160a01b0316928201929092526003820154606082015260049091015460808201528251839083908110613a6157613a61614bfd565b60200260200101819052505b80613a7781614c13565b9150506139d8565b613a8761435c565b6000828152600e6020908152604091829020825160c0810184528154815260018201548184015260028201805485518186028101860187528181529295939493860193830182828015613b0357602002820191906000526020600020905b81546001600160a01b03168152600190910190602001808311613ae5575b5050505050815260200160038201805480602002602001604051908101604052809291908181526020018280548015613b5b57602002820191906000526020600020905b815481526020019060010190808311613b47575b5050505050815260200160048201805480602002602001604051908101604052809291908181526020018280548015613bbd57602002820191906000526020600020905b81546001600160a01b03168152600190910190602001808311613b9f575b50505091835250506005919091015460ff16151560209091015292915050565b600260015403613c2f5760405162461bcd60e51b815260206004820152601f60248201527f5265656e7472616e637947756172643a207265656e7472616e742063616c6c006044820152606401610859565b6002600155565b613c3e613bdd565b6000828152600a60205260408120600101549003613c985760405162461bcd60e51b81526020600482015260176024820152764c697374696e6720646f6573206e6f742065786973742160481b6044820152606401610859565b6000828152600a6020526040902060040154336001600160a01b0390911603613cd35760405162461bcd60e51b815260040161085990614cc0565b6000828152600a6020526040902060040154600160a01b900460ff161515600114613d405760405162461bcd60e51b815260206004820152601d60248201527f536861726573206c697374696e67206973206e6f7420616374697665210000006044820152606401610859565b6000828152600a60209081526040808320815160c08082018452825482526001808401805484880152600280860180548689015260038701805460608801526004880180546001600160a01b03811660808a015260ff600160a01b820416151560a08a0152988c9055938b9055908a90558990556001600160a81b03199095169055878752600e86528487208551928301865280548352908101548287015292830180548551818802810188018752818152939796929586019392830182828015613e3457602002820191906000526020600020905b81546001600160a01b03168152600190910190602001808311613e16575b5050505050815260200160038201805480602002602001604051908101604052809291908181526020018280548015613e8c57602002820191906000526020600020905b815481526020019060010190808311613e78575b5050505050815260200160048201805480602002602001604051908101604052809291908181526020018280548015613eee57602002820191906000526020600020905b81546001600160a01b03168152600190910190602001808311613ed0575b50505091835250506005919091015460ff161515602090910152905060005b8160400151518110156140da57600083606001518460400151613f309190614d19565b9050600083606001518381518110613f4a57613f4a614bfd565b602002602001015182613f5d9190614d02565b600854604086015180519293506001600160a01b03909116916323b872dd919086908110613f8d57613f8d614bfd565b602090810291909101015160808801516040516001600160e01b031960e085901b1681526001600160a01b03928316600482015291166024820152604481018490526064016020604051808303816000875af1158015613ff1573d6000803e3d6000fd5b505050506040513d601f19601f820116820180604052508101906140159190614ada565b506006546080860151604086015180516001600160a01b039093169263f242432a9291908790811061404957614049614bfd565b602002602001015188602001518860600151888151811061406c5761406c614bfd565b60200260200101516040518563ffffffff1660e01b81526004016140939493929190614b39565b600060405180830381600087803b1580156140ad57600080fd5b505af11580156140c1573d6000803e3d6000fd5b50505050505080806140d290614c13565b915050613f0d565b50505061116160018055565b6000546001600160a01b031633146114c45760405162461bcd60e51b815260206004820181905260248201527f4f776e61626c653a2063616c6c6572206973206e6f7420746865206f776e65726044820152606401610859565b614148614228565b6000805460ff60a01b191690557f5db9ee0a495bf2e6ff9c91a7834c1ba4fdd244a5e8aa4e537bd38aeae4b073aa335b6040516001600160a01b03909116815260200160405180910390a1565b600080546001600160a01b038381166001600160a01b0319831681178455604051919092169283917f8be0079c531659141344cd1fd0a4f28419497f9722a3daafe3b4186f6b6457e09190a35050565b6141ed614278565b6000805460ff60a01b1916600160a01b1790557f62e78cea01bee320cd4e420270b5ea74000d11b0c9f74754ebdbfc544b05a2586141783390565b600054600160a01b900460ff166114c45760405162461bcd60e51b815260206004820152601460248201527314185d5cd8589b194e881b9bdd081c185d5cd95960621b6044820152606401610859565b600054600160a01b900460ff16156114c45760405162461bcd60e51b815260206004820152601060248201526f14185d5cd8589b194e881c185d5cd95960821b6044820152606401610859565b50805460008255906000526020600020908101906112609190614434565b6040518060a00160405280600081526020016000815260200160006001600160a01b0316815260200160008152602001600081525090565b6040518060c001604052806000815260200160008152602001600081526020016000815260200160006001600160a01b031681526020016000151581525090565b6040518060c0016040528060008152602001600081526020016060815260200160608152602001606081526020016000151581525090565b8280548282559060005260206000209081019282156143e9579160200282015b828111156143e957825182546001600160a01b0319166001600160a01b039091161782556020909201916001909101906143b4565b506143f5929150614434565b5090565b8280548282559060005260206000209081019282156143e9579160200282015b828111156143e9578251825591602001919060010190614419565b5b808211156143f55760008155600101614435565b60006020828403121561445b57600080fd5b81356001600160e01b03198116811461447357600080fd5b9392505050565b60008060006060848603121561448f57600080fd5b505081359360208301359350604090920135919050565b80356001600160a01b03811681146144bd57600080fd5b919050565b6000806000606084860312156144d757600080fd5b6144e0846144a6565b92506144ee602085016144a6565b9150604084013590509250925092565b60006020828403121561451057600080fd5b5035919050565b602080825282518282018190526000919060409081850190868401855b82811015614581578151805185528681015187860152858101516001600160a01b031686860152606080820151908601526080908101519085015260a09093019290850190600101614534565b5091979650505050505050565b602080825282518282018190526000919060409081850190868401855b828110156145815781518051855286810151878601528581015186860152606080820151908601526080808201516001600160a01b03169086015260a09081015115159085015260c090930192908501906001016145ab565b6000806040838503121561461757600080fd5b614620836144a6565b946020939093013593505050565b60006020828403121561464057600080fd5b614473826144a6565b6000806040838503121561465c57600080fd5b50508035926020909101359150565b634e487b7160e01b600052604160045260246000fd5b604051601f8201601f191681016001600160401b03811182821017156146a9576146a961466b565b604052919050565b60006001600160401b038211156146ca576146ca61466b565b5060051b60200190565b600082601f8301126146e557600080fd5b813560206146fa6146f5836146b1565b614681565b82815260059290921b8401810191818101908684111561471957600080fd5b8286015b84811015614734578035835291830191830161471d565b509695505050505050565b600082601f83011261475057600080fd5b81356001600160401b038111156147695761476961466b565b61477c601f8201601f1916602001614681565b81815284602083860101111561479157600080fd5b816020850160208301376000918101602001919091529392505050565b600080600080600060a086880312156147c657600080fd5b6147cf866144a6565b94506147dd602087016144a6565b935060408601356001600160401b03808211156147f957600080fd5b61480589838a016146d4565b9450606088013591508082111561481b57600080fd5b61482789838a016146d4565b9350608088013591508082111561483d57600080fd5b5061484a8882890161473f565b9150509295509295909350565b600081518084526020808501945080840160005b838110156148905781516001600160a01b03168752958201959082019060010161486b565b509495945050505050565b80518252600060208083015181850152604083015160c060408601526148c460c0860182614857565b60608581015187830391880191909152805180835290840192506000918401905b8083101561490557835182529284019260019290920191908401906148e5565b5060808601519350868103608088015261491f8185614857565b935050505060a08301516116a360a086018215159052565b6000602080830181845280855180835260408601915060408160051b870101925083870160005b8281101561498c57603f1988860301845261497a85835161489b565b9450928501929085019060010161495e565b5092979650505050505050565b6000806000606084860312156149ae57600080fd5b833592506020808501356001600160401b03808211156149cd57600080fd5b818701915087601f8301126149e157600080fd5b81356149ef6146f5826146b1565b81815260059190911b8301840190848101908a831115614a0e57600080fd5b938501935b82851015614a3357614a24856144a6565b82529385019390850190614a13565b965050506040870135925080831115614a4b57600080fd5b5050614a59868287016146d4565b9150509250925092565b600080600080600060a08688031215614a7b57600080fd5b614a84866144a6565b9450614a92602087016144a6565b9350604086013592506060860135915060808601356001600160401b03811115614abb57600080fd5b61484a8882890161473f565b602081526000614473602083018461489b565b600060208284031215614aec57600080fd5b8151801515811461447357600080fd5b600060208284031215614b0e57600080fd5b5051919050565b6020808252600a9082015269616d6f756e74203c203160b01b604082015260600190565b6001600160a01b0394851681529290931660208301526040820152606081019190915260a06080820181905260009082015260c00190565b634e487b7160e01b600052601160045260246000fd5b818103818111156107a6576107a6614b71565b808201808211156107a6576107a6614b71565b60208082526030908201527f47726f757020696e766573746d656e74206973206e6f7420616374697665206f60408201526f1c88191bd95cc81b9bdd08195e1a5cdd60821b606082015260800190565b634e487b7160e01b600052603260045260246000fd5b600060018201614c2557614c25614b71565b5060010190565b60208082526017908201527f53656e646572206d75737420626520696e766573746f72000000000000000000604082015260600190565b6020808252600c908201526b7a65726f206164647265737360a01b604082015260600190565b6020808252601c908201527f4c697374696e6720506f6f6c20646f6573206e6f742065786973742100000000604082015260600190565b60208082526022908201527f53656c6c65722063616e6e6f7420627579207468656972206f776e2073686172604082015261657360f01b606082015260800190565b80820281158282048414176107a6576107a6614b71565b600082614d3657634e487b7160e01b600052601260045260246000fd5b50049056fea264697066735822122091877ed9dc959e7112c18b55a326ed8a583cee05154690bceecbcf25326a06fe64736f6c63430008120033",
  "linkReferences": {},
  "deployedLinkReferences": {}
}