{
  "_format": "hh-sol-artifact-1",
  "contractName": "BlockEstateMarket",
  "sourceName": "contracts/BlockEstate/BlockEstateMarket.sol",
  "abi": [
    {
      "inputs": [
        {
          "internalType": "address",
          "name": "_blockEstateAssetsAddress",
          "type": "address"
        },
        {
          "internalType": "address",
          "name": "_blockEstateSharesAddress",
          "type": "address"
        },
        {
          "internalType": "address",
          "name": "_usdAddress",
          "type": "address"
        }
      ],
      "stateMutability": "nonpayable",
      "type": "constructor"
    },
    {
      "anonymous": false,
      "inputs": [
        {
          "indexed": false,
          "internalType": "address",
          "name": "old",
          "type": "address"
        },
        {
          "indexed": false,
          "internalType": "address",
          "name": "updated",
          "type": "address"
        }
      ],
      "name": "BlockEstateAssetsAddressUpdated",
      "type": "event"
    },
    {
      "anonymous": false,
      "inputs": [
        {
          "indexed": false,
          "internalType": "address",
          "name": "old",
          "type": "address"
        },
        {
          "indexed": false,
          "internalType": "address",
          "name": "updated",
          "type": "address"
        }
      ],
      "name": "BlockEstateSharesAddressUpdated",
      "type": "event"
    },
    {
      "anonymous": false,
      "inputs": [
        {
          "indexed": true,
          "internalType": "address",
          "name": "previousOwner",
          "type": "address"
        },
        {
          "indexed": true,
          "internalType": "address",
          "name": "newOwner",
          "type": "address"
        }
      ],
      "name": "OwnershipTransferred",
      "type": "event"
    },
    {
      "anonymous": false,
      "inputs": [
        {
          "indexed": false,
          "internalType": "address",
          "name": "account",
          "type": "address"
        }
      ],
      "name": "Paused",
      "type": "event"
    },
    {
      "anonymous": false,
      "inputs": [
        {
          "indexed": false,
          "internalType": "uint256",
          "name": "listingId",
          "type": "uint256"
        },
        {
          "indexed": false,
          "internalType": "uint256",
          "name": "tokenId",
          "type": "uint256"
        },
        {
          "indexed": false,
          "internalType": "uint256",
          "name": "price",
          "type": "uint256"
        },
        {
          "indexed": false,
          "internalType": "uint256",
          "name": "amount",
          "type": "uint256"
        },
        {
          "indexed": false,
          "internalType": "address",
          "name": "seller",
          "type": "address"
        }
      ],
      "name": "SharesListingCreated",
      "type": "event"
    },
    {
      "anonymous": false,
      "inputs": [
        {
          "indexed": false,
          "internalType": "uint256",
          "name": "listingId",
          "type": "uint256"
        },
        {
          "indexed": false,
          "internalType": "uint256",
          "name": "tokenId",
          "type": "uint256"
        },
        {
          "indexed": false,
          "internalType": "uint256",
          "name": "price",
          "type": "uint256"
        },
        {
          "indexed": false,
          "internalType": "uint256",
          "name": "amount",
          "type": "uint256"
        },
        {
          "indexed": false,
          "internalType": "address",
          "name": "seller",
          "type": "address"
        }
      ],
      "name": "SharesListingDeleted",
      "type": "event"
    },
    {
      "anonymous": false,
      "inputs": [
        {
          "indexed": false,
          "internalType": "uint256",
          "name": "sharesListingPoolId",
          "type": "uint256"
        },
        {
          "indexed": false,
          "internalType": "uint256",
          "name": "tokenId",
          "type": "uint256"
        },
        {
          "indexed": false,
          "internalType": "address",
          "name": "seller",
          "type": "address"
        },
        {
          "indexed": false,
          "internalType": "uint256",
          "name": "price",
          "type": "uint256"
        },
        {
          "indexed": false,
          "internalType": "uint256",
          "name": "amount",
          "type": "uint256"
        }
      ],
      "name": "SharesListingPoolCreated",
      "type": "event"
    },
    {
      "anonymous": false,
      "inputs": [
        {
          "indexed": false,
          "internalType": "uint256",
          "name": "sharesListingPoolId",
          "type": "uint256"
        },
        {
          "indexed": false,
          "internalType": "uint256",
          "name": "amount",
          "type": "uint256"
        }
      ],
      "name": "SharesListingPoolDeposit",
      "type": "event"
    },
    {
      "anonymous": false,
      "inputs": [
        {
          "indexed": false,
          "internalType": "uint256",
          "name": "sharesListingPoolId",
          "type": "uint256"
        },
        {
          "indexed": false,
          "internalType": "uint256",
          "name": "tokenId",
          "type": "uint256"
        },
        {
          "indexed": false,
          "internalType": "uint256",
          "name": "price",
          "type": "uint256"
        },
        {
          "indexed": false,
          "internalType": "uint256",
          "name": "amount",
          "type": "uint256"
        },
        {
          "indexed": false,
          "internalType": "address",
          "name": "seller",
          "type": "address"
        },
        {
          "indexed": false,
          "internalType": "address",
          "name": "buyer",
          "type": "address"
        }
      ],
      "name": "SharesListingPoolPurchase",
      "type": "event"
    },
    {
      "anonymous": false,
      "inputs": [
        {
          "indexed": false,
          "internalType": "uint256",
          "name": "sharesListingPoolId",
          "type": "uint256"
        },
        {
          "indexed": false,
          "internalType": "uint256",
          "name": "amount",
          "type": "uint256"
        }
      ],
      "name": "SharesListingPoolWithdraw",
      "type": "event"
    },
    {
      "anonymous": false,
      "inputs": [
        {
          "indexed": false,
          "internalType": "uint256",
          "name": "listingId",
          "type": "uint256"
        },
        {
          "indexed": false,
          "internalType": "uint256",
          "name": "tokenId",
          "type": "uint256"
        },
        {
          "indexed": false,
          "internalType": "uint256",
          "name": "price",
          "type": "uint256"
        },
        {
          "indexed": false,
          "internalType": "uint256",
          "name": "amount",
          "type": "uint256"
        },
        {
          "indexed": false,
          "internalType": "address",
          "name": "seller",
          "type": "address"
        },
        {
          "indexed": false,
          "internalType": "address",
          "name": "buyer",
          "type": "address"
        }
      ],
      "name": "SharesListingPurchased",
      "type": "event"
    },
    {
      "anonymous": false,
      "inputs": [
        {
          "indexed": false,
          "internalType": "address",
          "name": "account",
          "type": "address"
        }
      ],
      "name": "Unpaused",
      "type": "event"
    },
    {
      "inputs": [
        {
          "internalType": "uint256",
          "name": "groupInvestmentId",
          "type": "uint256"
        }
      ],
      "name": "acceptGroupInvestment",
      "outputs": [],
      "stateMutability": "nonpayable",
      "type": "function"
    },
    {
      "inputs": [
        {
          "internalType": "address",
          "name": "",
          "type": "address"
        },
        {
          "internalType": "uint256",
          "name": "",
          "type": "uint256"
        }
      ],
      "name": "addressToSharesListingPoolIds",
      "outputs": [
        {
          "internalType": "uint256",
          "name": "",
          "type": "uint256"
        }
      ],
      "stateMutability": "view",
      "type": "function"
    },
    {
      "inputs": [],
      "name": "blockEstateAssetsAddress",
      "outputs": [
        {
          "internalType": "address",
          "name": "",
          "type": "address"
        }
      ],
      "stateMutability": "view",
      "type": "function"
    },
    {
      "inputs": [],
      "name": "blockEstateSharesAddress",
      "outputs": [
        {
          "internalType": "address",
          "name": "",
          "type": "address"
        }
      ],
      "stateMutability": "view",
      "type": "function"
    },
    {
      "inputs": [
        {
          "internalType": "uint256",
          "name": "listingId",
          "type": "uint256"
        },
        {
          "internalType": "address[]",
          "name": "investors",
          "type": "address[]"
        },
        {
          "internalType": "uint256[]",
          "name": "sharesAmounts",
          "type": "uint256[]"
        }
      ],
      "name": "createSharesGroupInvestment",
      "outputs": [],
      "stateMutability": "nonpayable",
      "type": "function"
    },
    {
      "inputs": [
        {
          "internalType": "uint256",
          "name": "tokenId",
          "type": "uint256"
        },
        {
          "internalType": "uint256",
          "name": "price",
          "type": "uint256"
        },
        {
          "internalType": "uint256",
          "name": "amount",
          "type": "uint256"
        }
      ],
      "name": "createSharesListing",
      "outputs": [],
      "stateMutability": "nonpayable",
      "type": "function"
    },
    {
      "inputs": [
        {
          "internalType": "uint256",
          "name": "tokenId",
          "type": "uint256"
        },
        {
          "internalType": "uint256",
          "name": "price",
          "type": "uint256"
        },
        {
          "internalType": "uint256",
          "name": "amount",
          "type": "uint256"
        }
      ],
      "name": "createSharesListingPool",
      "outputs": [],
      "stateMutability": "nonpayable",
      "type": "function"
    },
    {
      "inputs": [
        {
          "internalType": "uint256",
          "name": "listingId",
          "type": "uint256"
        }
      ],
      "name": "deleteSharesListing",
      "outputs": [],
      "stateMutability": "nonpayable",
      "type": "function"
    },
    {
      "inputs": [
        {
          "internalType": "uint256",
          "name": "_amount",
          "type": "uint256"
        }
      ],
      "name": "deposit",
      "outputs": [],
      "stateMutability": "nonpayable",
      "type": "function"
    },
    {
      "inputs": [
        {
          "internalType": "uint256",
          "name": "sharesListingPoolId",
          "type": "uint256"
        },
        {
          "internalType": "uint256",
          "name": "amount",
          "type": "uint256"
        }
      ],
      "name": "depositSharesListingPool",
      "outputs": [],
      "stateMutability": "nonpayable",
      "type": "function"
    },
    {
      "inputs": [
        {
          "internalType": "address",
          "name": "",
          "type": "address"
        }
      ],
      "name": "fundsPool",
      "outputs": [
        {
          "internalType": "uint256",
          "name": "",
          "type": "uint256"
        }
      ],
      "stateMutability": "view",
      "type": "function"
    },
    {
      "inputs": [
        {
          "internalType": "uint256",
          "name": "",
          "type": "uint256"
        }
      ],
      "name": "groupInvestments",
      "outputs": [
        {
          "internalType": "uint256",
          "name": "investmentId",
          "type": "uint256"
        },
        {
          "internalType": "uint256",
          "name": "listingId",
          "type": "uint256"
        },
        {
          "internalType": "bool",
          "name": "isActive",
          "type": "bool"
        }
      ],
      "stateMutability": "view",
      "type": "function"
    },
    {
      "inputs": [
        {
          "internalType": "address",
          "name": "",
          "type": "address"
        },
        {
          "internalType": "address",
          "name": "",
          "type": "address"
        },
        {
          "internalType": "uint256[]",
          "name": "",
          "type": "uint256[]"
        },
        {
          "internalType": "uint256[]",
          "name": "",
          "type": "uint256[]"
        },
        {
          "internalType": "bytes",
          "name": "",
          "type": "bytes"
        }
      ],
      "name": "onERC1155BatchReceived",
      "outputs": [
        {
          "internalType": "bytes4",
          "name": "",
          "type": "bytes4"
        }
      ],
      "stateMutability": "nonpayable",
      "type": "function"
    },
    {
      "inputs": [
        {
          "internalType": "address",
          "name": "",
          "type": "address"
        },
        {
          "internalType": "address",
          "name": "",
          "type": "address"
        },
        {
          "internalType": "uint256",
          "name": "",
          "type": "uint256"
        },
        {
          "internalType": "uint256",
          "name": "",
          "type": "uint256"
        },
        {
          "internalType": "bytes",
          "name": "",
          "type": "bytes"
        }
      ],
      "name": "onERC1155Received",
      "outputs": [
        {
          "internalType": "bytes4",
          "name": "",
          "type": "bytes4"
        }
      ],
      "stateMutability": "nonpayable",
      "type": "function"
    },
    {
      "inputs": [],
      "name": "owner",
      "outputs": [
        {
          "internalType": "address",
          "name": "",
          "type": "address"
        }
      ],
      "stateMutability": "view",
      "type": "function"
    },
    {
      "inputs": [],
      "name": "pause",
      "outputs": [],
      "stateMutability": "nonpayable",
      "type": "function"
    },
    {
      "inputs": [],
      "name": "paused",
      "outputs": [
        {
          "internalType": "bool",
          "name": "",
          "type": "bool"
        }
      ],
      "stateMutability": "view",
      "type": "function"
    },
    {
      "inputs": [
        {
          "internalType": "uint256",
          "name": "sharesListingPoolId",
          "type": "uint256"
        },
        {
          "internalType": "uint256",
          "name": "amount",
          "type": "uint256"
        }
      ],
      "name": "purchaseFromSharesListingPool",
      "outputs": [],
      "stateMutability": "nonpayable",
      "type": "function"
    },
    {
      "inputs": [
        {
          "internalType": "uint256",
          "name": "listingId",
          "type": "uint256"
        }
      ],
      "name": "purchaseSharesListing",
      "outputs": [],
      "stateMutability": "nonpayable",
      "type": "function"
    },
    {
      "inputs": [],
      "name": "readAllGroupInvestments",
      "outputs": [
        {
          "components": [
            {
              "internalType": "uint256",
              "name": "investmentId",
              "type": "uint256"
            },
            {
              "internalType": "uint256",
              "name": "listingId",
              "type": "uint256"
            },
            {
              "internalType": "address[]",
              "name": "investors",
              "type": "address[]"
            },
            {
              "internalType": "uint256[]",
              "name": "sharesAmounts",
              "type": "uint256[]"
            },
            {
              "internalType": "address[]",
              "name": "accepted",
              "type": "address[]"
            },
            {
              "internalType": "bool",
              "name": "isActive",
              "type": "bool"
            }
          ],
          "internalType": "struct BlockEstateMarket.GroupInvestment[]",
          "name": "",
          "type": "tuple[]"
        }
      ],
      "stateMutability": "view",
      "type": "function"
    },
    {
      "inputs": [],
      "name": "readAllSharesListingPools",
      "outputs": [
        {
          "components": [
            {
              "internalType": "uint256",
              "name": "sharesListingPoolId",
              "type": "uint256"
            },
            {
              "internalType": "uint256",
              "name": "tokenId",
              "type": "uint256"
            },
            {
              "internalType": "address",
              "name": "seller",
              "type": "address"
            },
            {
              "internalType": "uint256",
              "name": "price",
              "type": "uint256"
            },
            {
              "internalType": "uint256",
              "name": "amount",
              "type": "uint256"
            }
          ],
          "internalType": "struct BlockEstateMarket.SharesListingPool[]",
          "name": "",
          "type": "tuple[]"
        }
      ],
      "stateMutability": "view",
      "type": "function"
    },
    {
      "inputs": [],
      "name": "readAllSharesListings",
      "outputs": [
        {
          "components": [
            {
              "internalType": "uint256",
              "name": "listingId",
              "type": "uint256"
            },
            {
              "internalType": "uint256",
              "name": "tokenId",
              "type": "uint256"
            },
            {
              "internalType": "uint256",
              "name": "price",
              "type": "uint256"
            },
            {
              "internalType": "uint256",
              "name": "amount",
              "type": "uint256"
            },
            {
              "internalType": "address",
              "name": "seller",
              "type": "address"
            },
            {
              "internalType": "bool",
              "name": "isActive",
              "type": "bool"
            }
          ],
          "internalType": "struct BlockEstateMarket.SharesListing[]",
          "name": "",
          "type": "tuple[]"
        }
      ],
      "stateMutability": "view",
      "type": "function"
    },
    {
      "inputs": [
        {
          "internalType": "uint256",
          "name": "investmentId",
          "type": "uint256"
        }
      ],
      "name": "readGroupInvestment",
      "outputs": [
        {
          "components": [
            {
              "internalType": "uint256",
              "name": "investmentId",
              "type": "uint256"
            },
            {
              "internalType": "uint256",
              "name": "listingId",
              "type": "uint256"
            },
            {
              "internalType": "address[]",
              "name": "investors",
              "type": "address[]"
            },
            {
              "internalType": "uint256[]",
              "name": "sharesAmounts",
              "type": "uint256[]"
            },
            {
              "internalType": "address[]",
              "name": "accepted",
              "type": "address[]"
            },
            {
              "internalType": "bool",
              "name": "isActive",
              "type": "bool"
            }
          ],
          "internalType": "struct BlockEstateMarket.GroupInvestment",
          "name": "",
          "type": "tuple"
        }
      ],
      "stateMutability": "view",
      "type": "function"
    },
    {
      "inputs": [],
      "name": "readGroupInvestmentsByAccount",
      "outputs": [
        {
          "components": [
            {
              "internalType": "uint256",
              "name": "investmentId",
              "type": "uint256"
            },
            {
              "internalType": "uint256",
              "name": "listingId",
              "type": "uint256"
            },
            {
              "internalType": "address[]",
              "name": "investors",
              "type": "address[]"
            },
            {
              "internalType": "uint256[]",
              "name": "sharesAmounts",
              "type": "uint256[]"
            },
            {
              "internalType": "address[]",
              "name": "accepted",
              "type": "address[]"
            },
            {
              "internalType": "bool",
              "name": "isActive",
              "type": "bool"
            }
          ],
          "internalType": "struct BlockEstateMarket.GroupInvestment[]",
          "name": "",
          "type": "tuple[]"
        }
      ],
      "stateMutability": "view",
      "type": "function"
    },
    {
      "inputs": [
        {
          "internalType": "address",
          "name": "account",
          "type": "address"
        }
      ],
      "name": "readListingsByAccount",
      "outputs": [
        {
          "components": [
            {
              "internalType": "uint256",
              "name": "listingId",
              "type": "uint256"
            },
            {
              "internalType": "uint256",
              "name": "tokenId",
              "type": "uint256"
            },
            {
              "internalType": "uint256",
              "name": "price",
              "type": "uint256"
            },
            {
              "internalType": "uint256",
              "name": "amount",
              "type": "uint256"
            },
            {
              "internalType": "address",
              "name": "seller",
              "type": "address"
            },
            {
              "internalType": "bool",
              "name": "isActive",
              "type": "bool"
            }
          ],
          "internalType": "struct BlockEstateMarket.SharesListing[]",
          "name": "",
          "type": "tuple[]"
        }
      ],
      "stateMutability": "view",
      "type": "function"
    },
    {
      "inputs": [
        {
          "internalType": "uint256",
          "name": "tokenId",
          "type": "uint256"
        }
      ],
      "name": "readListingsByAsset",
      "outputs": [
        {
          "components": [
            {
              "internalType": "uint256",
              "name": "listingId",
              "type": "uint256"
            },
            {
              "internalType": "uint256",
              "name": "tokenId",
              "type": "uint256"
            },
            {
              "internalType": "uint256",
              "name": "price",
              "type": "uint256"
            },
            {
              "internalType": "uint256",
              "name": "amount",
              "type": "uint256"
            },
            {
              "internalType": "address",
              "name": "seller",
              "type": "address"
            },
            {
              "internalType": "bool",
              "name": "isActive",
              "type": "bool"
            }
          ],
          "internalType": "struct BlockEstateMarket.SharesListing[]",
          "name": "",
          "type": "tuple[]"
        }
      ],
      "stateMutability": "view",
      "type": "function"
    },
    {
      "inputs": [
        {
          "internalType": "address",
          "name": "account",
          "type": "address"
        }
      ],
      "name": "readSharesListingPoolsByAccount",
      "outputs": [
        {
          "components": [
            {
              "internalType": "uint256",
              "name": "sharesListingPoolId",
              "type": "uint256"
            },
            {
              "internalType": "uint256",
              "name": "tokenId",
              "type": "uint256"
            },
            {
              "internalType": "address",
              "name": "seller",
              "type": "address"
            },
            {
              "internalType": "uint256",
              "name": "price",
              "type": "uint256"
            },
            {
              "internalType": "uint256",
              "name": "amount",
              "type": "uint256"
            }
          ],
          "internalType": "struct BlockEstateMarket.SharesListingPool[]",
          "name": "",
          "type": "tuple[]"
        }
      ],
      "stateMutability": "view",
      "type": "function"
    },
    {
      "inputs": [
        {
          "internalType": "uint256",
          "name": "tokenId",
          "type": "uint256"
        }
      ],
      "name": "readSharesListingPoolsByAsset",
      "outputs": [
        {
          "components": [
            {
              "internalType": "uint256",
              "name": "sharesListingPoolId",
              "type": "uint256"
            },
            {
              "internalType": "uint256",
              "name": "tokenId",
              "type": "uint256"
            },
            {
              "internalType": "address",
              "name": "seller",
              "type": "address"
            },
            {
              "internalType": "uint256",
              "name": "price",
              "type": "uint256"
            },
            {
              "internalType": "uint256",
              "name": "amount",
              "type": "uint256"
            }
          ],
          "internalType": "struct BlockEstateMarket.SharesListingPool[]",
          "name": "",
          "type": "tuple[]"
        }
      ],
      "stateMutability": "view",
      "type": "function"
    },
    {
      "inputs": [
        {
          "internalType": "uint256",
          "name": "groupInvestmentId",
          "type": "uint256"
        }
      ],
      "name": "refuseGroupInvestment",
      "outputs": [],
      "stateMutability": "nonpayable",
      "type": "function"
    },
    {
      "inputs": [],
      "name": "renounceOwnership",
      "outputs": [],
      "stateMutability": "nonpayable",
      "type": "function"
    },
    {
      "inputs": [
        {
          "internalType": "uint256",
          "name": "groupInvestmentId",
          "type": "uint256"
        }
      ],
      "name": "revokeGroupInvestment",
      "outputs": [],
      "stateMutability": "nonpayable",
      "type": "function"
    },
    {
      "inputs": [
        {
          "internalType": "address",
          "name": "_blockEstateAssetsAddress",
          "type": "address"
        }
      ],
      "name": "setBlockEstateAssetsAddress",
      "outputs": [],
      "stateMutability": "nonpayable",
      "type": "function"
    },
    {
      "inputs": [
        {
          "internalType": "address",
          "name": "_blockEstateSharesAddress",
          "type": "address"
        }
      ],
      "name": "setBlockEstateSharesAddress",
      "outputs": [],
      "stateMutability": "nonpayable",
      "type": "function"
    },
    {
      "inputs": [
        {
          "internalType": "uint256",
          "name": "",
          "type": "uint256"
        }
      ],
      "name": "sharesListingPools",
      "outputs": [
        {
          "internalType": "uint256",
          "name": "sharesListingPoolId",
          "type": "uint256"
        },
        {
          "internalType": "uint256",
          "name": "tokenId",
          "type": "uint256"
        },
        {
          "internalType": "address",
          "name": "seller",
          "type": "address"
        },
        {
          "internalType": "uint256",
          "name": "price",
          "type": "uint256"
        },
        {
          "internalType": "uint256",
          "name": "amount",
          "type": "uint256"
        }
      ],
      "stateMutability": "view",
      "type": "function"
    },
    {
      "inputs": [
        {
          "internalType": "uint256",
          "name": "",
          "type": "uint256"
        }
      ],
      "name": "sharesListings",
      "outputs": [
        {
          "internalType": "uint256",
          "name": "listingId",
          "type": "uint256"
        },
        {
          "internalType": "uint256",
          "name": "tokenId",
          "type": "uint256"
        },
        {
          "internalType": "uint256",
          "name": "price",
          "type": "uint256"
        },
        {
          "internalType": "uint256",
          "name": "amount",
          "type": "uint256"
        },
        {
          "internalType": "address",
          "name": "seller",
          "type": "address"
        },
        {
          "internalType": "bool",
          "name": "isActive",
          "type": "bool"
        }
      ],
      "stateMutability": "view",
      "type": "function"
    },
    {
      "inputs": [
        {
          "internalType": "bytes4",
          "name": "interfaceId",
          "type": "bytes4"
        }
      ],
      "name": "supportsInterface",
      "outputs": [
        {
          "internalType": "bool",
          "name": "",
          "type": "bool"
        }
      ],
      "stateMutability": "view",
      "type": "function"
    },
    {
      "inputs": [
        {
          "internalType": "address",
          "name": "newOwner",
          "type": "address"
        }
      ],
      "name": "transferOwnership",
      "outputs": [],
      "stateMutability": "nonpayable",
      "type": "function"
    },
    {
      "inputs": [],
      "name": "unpause",
      "outputs": [],
      "stateMutability": "nonpayable",
      "type": "function"
    },
    {
      "inputs": [],
      "name": "usd",
      "outputs": [
        {
          "internalType": "contract IERC20",
          "name": "",
          "type": "address"
        }
      ],
      "stateMutability": "view",
      "type": "function"
    },
    {
      "inputs": [
        {
          "internalType": "address",
          "name": "",
          "type": "address"
        },
        {
          "internalType": "uint256",
          "name": "",
          "type": "uint256"
        }
      ],
      "name": "userGroupInvestments",
      "outputs": [
        {
          "internalType": "uint256",
          "name": "",
          "type": "uint256"
        }
      ],
      "stateMutability": "view",
      "type": "function"
    },
    {
      "inputs": [
        {
          "internalType": "address",
          "name": "",
          "type": "address"
        },
        {
          "internalType": "uint256",
          "name": "",
          "type": "uint256"
        }
      ],
      "name": "userListings",
      "outputs": [
        {
          "internalType": "uint256",
          "name": "",
          "type": "uint256"
        }
      ],
      "stateMutability": "view",
      "type": "function"
    },
    {
      "inputs": [
        {
          "internalType": "uint256",
          "name": "_amount",
          "type": "uint256"
        }
      ],
      "name": "withdraw",
      "outputs": [],
      "stateMutability": "nonpayable",
      "type": "function"
    },
    {
      "inputs": [
        {
          "internalType": "uint256",
          "name": "sharesListingPoolId",
          "type": "uint256"
        },
        {
          "internalType": "uint256",
          "name": "amount",
          "type": "uint256"
        }
      ],
      "name": "withdrawSharesListingPool",
      "outputs": [],
      "stateMutability": "nonpayable",
      "type": "function"
    }
  ],
  "bytecode": "0x60806040523480156200001157600080fd5b5060405162004c7338038062004c738339810160408190526200003491620001d9565b6200003f336200016c565b6000805460ff60a01b19169055600180556001600160a01b0383166200009b5760405162461bcd60e51b815260206004820152600c60248201526b7a65726f206164647265737360a01b60448201526064015b60405180910390fd5b6001600160a01b038216620000e25760405162461bcd60e51b815260206004820152600c60248201526b7a65726f206164647265737360a01b604482015260640162000092565b6001600160a01b038116620001295760405162461bcd60e51b815260206004820152600c60248201526b7a65726f206164647265737360a01b604482015260640162000092565b600580546001600160a01b039485166001600160a01b03199182161790915560068054938516938216939093179092556007805491909316911617905562000223565b600080546001600160a01b038381166001600160a01b0319831681178455604051919092169283917f8be0079c531659141344cd1fd0a4f28419497f9722a3daafe3b4186f6b6457e09190a35050565b80516001600160a01b0381168114620001d457600080fd5b919050565b600080600060608486031215620001ef57600080fd5b620001fa84620001bc565b92506200020a60208501620001bc565b91506200021a60408501620001bc565b90509250925092565b614a4080620002336000396000f3fe608060405234801561001057600080fd5b50600436106102695760003560e01c80638456cb5911610151578063d05ee8d2116100c3578063eb9e00b911610087578063eb9e00b9146106a6578063f23a6e61146106b9578063f255ac8a146106d8578063f2fde38b146106e0578063f486ca58146106f3578063f5f33397146106fb57600080fd5b8063d05ee8d214610645578063d63a6ccd1461065a578063d956c1041461066d578063e2b9059814610680578063e8c7d99a1461069357600080fd5b80639f653c51116101155780639f653c5114610508578063a0b7dfdb1461051b578063a8e8f0cd14610598578063b6b55f25146105ab578063bc197c81146105be578063cf7080eb146105f657600080fd5b80638456cb59146104b657806386cfa7d3146104be5780638c0ba022146104d15780638da5cb5b146104e45780639a5d6524146104f557600080fd5b80635131e4e7116101ea5780636b78018b116101ae5780636b78018b146103b35780636e86e795146103de578063715018a6146103fe5780637716e573146104065780637e2cb96c146104905780637fa3d39e146104a357600080fd5b80635131e4e7146103555780635a74874b146103685780635c975abb1461037b5780635ce026551461038d57806363571e65146103a057600080fd5b8063367eeb4711610231578063367eeb47146102f15780633f4ba83a146103115780634147e8fd14610319578063416968181461033a5780634e6977281461034d57600080fd5b806301ffc9a71461026e578063097dd3a41461029657806323be15bb146102ab5780632e1a7d4d146102be5780632f3ae1d5146102d1575b600080fd5b61028161027c366004614172565b61071b565b60405190151581526020015b60405180910390f35b6102a96102a43660046141a3565b610752565b005b6102a96102b93660046141cf565b610b78565b6102a96102cc3660046141cf565b610ff6565b6102e46102df3660046141cf565b6110f4565b60405161028d91906141e8565b6103046102ff3660046141cf565b611218565b60405161028d919061425f565b6102a9611345565b61032c6103273660046142f1565b611357565b60405190815260200161028d565b6102a96103483660046141cf565b611388565b6103046114b3565b6102a961036336600461431b565b6115d5565b6102a96103763660046141cf565b61168b565b600054600160a01b900460ff16610281565b6102a961039b366004614336565b61174e565b6102a96103ae36600461431b565b6118f8565b6005546103c6906001600160a01b031681565b6040516001600160a01b03909116815260200161028d565b61032c6103ec36600461431b565b60086020526000908152604090205481565b6102a96119ae565b6104586104143660046141cf565b60096020526000908152604090208054600182015460028301546003840154600490940154929391929091906001600160a01b03811690600160a01b900460ff1686565b6040805196875260208701959095529385019290925260608401526001600160a01b03166080830152151560a082015260c00161028d565b6102e461049e36600461431b565b6119c0565b6102a96104b1366004614336565b611ade565b6102a9611ce2565b61032c6104cc3660046142f1565b611cf2565b6102a96104df3660046141cf565b611d0e565b6000546001600160a01b03166103c6565b6102a96105033660046141cf565b611e81565b6006546103c6906001600160a01b031681565b6105626105293660046141cf565b600b6020526000908152604090208054600182015460028301546003840154600490940154929391926001600160a01b03909116919085565b6040805195865260208601949094526001600160a01b03909216928401929092526060830191909152608082015260a00161028d565b61032c6105a63660046142f1565b612180565b6102a96105b93660046141cf565b61219c565b6105dd6105cc36600461449b565b63bc197c8160e01b95945050505050565b6040516001600160e01b0319909116815260200161028d565b6106286106043660046141cf565b600d6020526000908152604090208054600182015460059092015490919060ff1683565b60408051938452602084019290925215159082015260600161028d565b61064d61223f565b60405161028d919061462c565b6007546103c6906001600160a01b031681565b61030461067b36600461431b565b612448565b6102a961068e366004614336565b6125ad565b6102a96106a136600461468e565b612886565b6102a96106b43660046141a3565b612e40565b6105dd6106c7366004614758565b63f23a6e6160e01b95945050505050565b61064d6133ea565b6102a96106ee36600461431b565b613628565b6102e461369e565b61070e6107093660046141cf565b6137a8565b60405161028d91906147bc565b60006001600160e01b03198216630271189760e51b148061074c57506301ffc9a760e01b6001600160e01b03198316145b92915050565b600554604051634f558e7960e01b81526004810185905284916001600160a01b031690634f558e7990602401602060405180830381865afa15801561079b573d6000803e3d6000fd5b505050506040513d601f19601f820116820180604052508101906107bf91906147cf565b6108085760405162461bcd60e51b8152602060048201526015602482015274417373657420646f6573206e6f742065786973742160581b60448201526064015b60405180910390fd5b600654604051627eeac760e11b81523360048201819052602482018790529186916000916001600160a01b03169062fdd58e90604401602060405180830381865afa15801561085b573d6000803e3d6000fd5b505050506040513d601f19601f8201168201806040525081019061087f91906147f1565b116108be5760405162461bcd60e51b815260206004820152600f60248201526e3737ba1039b430b932b437b63232b960891b60448201526064016107ff565b6108c6613906565b600085116109065760405162461bcd60e51b815260206004820152600d60248201526c1c1c9a58d9480f080c481554d1609a1b60448201526064016107ff565b600084116109265760405162461bcd60e51b81526004016107ff9061480a565b60065460405163e985e9c560e01b81523360048201523060248201526001600160a01b039091169063e985e9c590604401602060405180830381865afa158015610974573d6000803e3d6000fd5b505050506040513d601f19601f8201168201806040525081019061099891906147cf565b6109db5760405162461bcd60e51b81526020600482015260146024820152731b9bdd08185c1c1c9bdd995908199bdc88185b1b60621b60448201526064016107ff565b600654604051637921219560e11b81526001600160a01b039091169063f242432a90610a1190339030908b908a9060040161482e565b600060405180830381600087803b158015610a2b57600080fd5b505af1158015610a3f573d6000803e3d6000fd5b505050506040518060a00160405280610a5760035490565b81526020810188905233604082015260608101879052608001859052600b6000610a8060035490565b81526020808201929092526040908101600090812084518155848401516001820155848301516002820180546001600160a01b0319166001600160a01b039092169190911790556060850151600380830191909155608090950151600490910155338152600c90925290209054815460018101835560009283526020909220909101557f612c47c93a38c3d19962445858bd6728e5e62913bf78ff53f27726dd6fa64dc9610b2d60035490565b60408051918252602082018990523390820152606081018790526080810186905260a00160405180910390a1610b67600380546001019055565b610b7060018055565b505050505050565b6000818152600d602052604090206005015460ff16610ba95760405162461bcd60e51b81526004016107ff90614866565b6000805b6000838152600d6020526040902060020154811015610c62576000838152600d60205260409020600201805433919083908110610bec57610bec6148b6565b6000918252602090912001546001600160a01b031603610c0b57600191505b6000838152600d60205260409020600201805433919083908110610c3157610c316148b6565b6000918252602090912001546001600160a01b031603610c5057600191505b80610c5a816148e2565b915050610bad565b5080610c805760405162461bcd60e51b81526004016107ff906148fb565b60005b6000838152600d6020526040902060040154811015610d36576000838152600d60205260409020600401805433919083908110610cc257610cc26148b6565b6000918252602090912001546001600160a01b031603610d245760405162461bcd60e51b815260206004820152601760248201527f53656e64657220616c726561647920616363657074656400000000000000000060448201526064016107ff565b80610d2e816148e2565b915050610c83565b506000828152600d60209081526040822060040180546001810182559083529082200180546001600160a01b031916331790555b6000838152600d6020526040902060020154811015610f68576007546000848152600d60205260408120600201805491926001600160a01b03169163dd62ed3e919085908110610dbc57610dbc6148b6565b60009182526020909120015460405160e083901b6001600160e01b03191681526001600160a01b039091166004820152306024820152604401602060405180830381865afa158015610e12573d6000803e3d6000fd5b505050506040513d601f19601f82011682018060405250810190610e3691906147f1565b6000858152600d6020526040902060030180549192509083908110610e5d57610e5d6148b6565b9060005260206000200154811015610f555760005b6000858152600d6020526040902060040154811015610f53576000858152600d60205260409020600201805484908110610eae57610eae6148b6565b6000918252602080832090910154878352600d909152604090912060040180546001600160a01b039092169183908110610eea57610eea6148b6565b6000918252602090912001546001600160a01b031603610f41576000858152600d60205260409020600401805484908110610f2757610f276148b6565b600091825260209091200180546001600160a01b03191690555b80610f4b816148e2565b915050610e72565b505b5080610f60816148e2565b915050610d6a565b506000828152600d60205260409020600281015460049091015403610ff2576000828152600d6020526040902060010154610fa3908361395f565b6000828152600d602052604081208181556001810182905590610fc96002830182613fee565b610fd7600383016000613fee565b610fe5600483016000613fee565b50600501805460ff191690555b5050565b610ffe613906565b336000908152600860205260409020548111156110505760405162461bcd60e51b815260206004820152601060248201526f6e6f7420656e6f7567682066756e647360801b60448201526064016107ff565b60075460405163a9059cbb60e01b8152336004820152602481018390526001600160a01b039091169063a9059cbb906044016020604051808303816000875af11580156110a1573d6000803e3d6000fd5b505050506040513d601f19601f820116820180604052508101906110c591906147cf565b5033600090815260086020526040812080548392906110e5908490614932565b90915550506001805550565b50565b6060600061110160035490565b6001600160401b0381111561111857611118614358565b60405190808252806020026020018201604052801561115157816020015b61113e61400c565b8152602001906001900390816111365790505b5090506000805b60035481101561120f576000818152600b60205260409020600101548590036111fd576000818152600b6020908152604091829020825160a0810184528154815260018201549281019290925260028101546001600160a01b03169282019290925260038201546060820152600490910154608082015283518490849081106111e3576111e36148b6565b602002602001018190525081806111f9906148e2565b9250505b80611207816148e2565b915050611158565b50909392505050565b6060600061122560025490565b6001600160401b0381111561123c5761123c614358565b60405190808252806020026020018201604052801561127557816020015b611262614044565b81526020019060019003908161125a5790505b5090506000805b60025481101561120f5760008181526009602052604090206001015485900361133357600081815260096020908152604091829020825160c08101845281548152600182015492810192909252600281015492820192909252600382015460608201526004909101546001600160a01b0381166080830152600160a01b900460ff16151560a08201528351849084908110611319576113196148b6565b6020026020010181905250818061132f906148e2565b9250505b8061133d816148e2565b91505061127c565b61134d613e0f565b611355613e69565b565b600c602052816000526040600020818154811061137357600080fd5b90600052602060002001600091509150505481565b611390613906565b6000818152600960205260409020600401546001600160a01b031633146113f95760405162461bcd60e51b815260206004820152601e60248201527f4f6e6c792073656c6c65722063616e2064656c657465206c697374696e67000060448201526064016107ff565b6000818152600960209081526040918290206001810154600282015460038301546004909301548551878152948501929092528385015260608301919091526001600160a01b0316608082015290517f9eec8eb2210167a0d90bf048cbbd21154b36b1941fa1413a1294343b0f38c5999181900360a00190a160008181526009602052604081208181556001810182905560028101829055600381019190915560040180546001600160a81b03191690556110f160018055565b606060006114c060025490565b6001600160401b038111156114d7576114d7614358565b60405190808252806020026020018201604052801561151057816020015b6114fd614044565b8152602001906001900390816114f55790505b50905060005b6002548110156115cf57600081815260096020526040902060010154156115bd57600081815260096020908152604091829020825160c08101845281548152600182015492810192909252600281015492820192909252600382015460608201526004909101546001600160a01b0381166080830152600160a01b900460ff16151560a082015282518390839081106115b1576115b16148b6565b60200260200101819052505b806115c7816148e2565b915050611516565b50919050565b6115dd613e0f565b6001600160a01b0381166116225760405162461bcd60e51b815260206004820152600c60248201526b7a65726f206164647265737360a01b60448201526064016107ff565b600654604080516001600160a01b03928316815291831660208301527f1a41fb6f752ad018610bf79716ec70546bbda4a0235520e04158d3c4f3486230910160405180910390a1600680546001600160a01b0319166001600160a01b0392909216919091179055565b6000818152600d602052604090206005015460ff166116bc5760405162461bcd60e51b81526004016107ff90614866565b6000805b6000838152600d6020526040902060020154811015611730576000838152600d602052604090206002018054339190839081106116ff576116ff6148b6565b6000918252602090912001546001600160a01b03160361171e57600191505b80611728816148e2565b9150506116c0565b5080610fa35760405162461bcd60e51b81526004016107ff906148fb565b6000828152600b6020526040812060010154900361177e5760405162461bcd60e51b81526004016107ff90614945565b6000828152600b60205260409020600201546001600160a01b031633146117f95760405162461bcd60e51b815260206004820152602960248201527f4f6e6c792073656c6c65722063616e206465706f73697420696e746f206c69736044820152681d1a5b99c81c1bdbdb60ba1b60648201526084016107ff565b600081116118195760405162461bcd60e51b81526004016107ff9061480a565b6006546000838152600b602052604090819020600101549051637921219560e11b81526001600160a01b039092169163f242432a916118609133913091879060040161482e565b600060405180830381600087803b15801561187a57600080fd5b505af115801561188e573d6000803e3d6000fd5b5050506000838152600b6020526040812060040180548493509091906118b590849061497c565b909155505060408051838152602081018390527f8be5e17e9428777180e5d4111e24d61d3bff785f2fb3cdf994d6563161f4563e91015b60405180910390a15050565b611900613e0f565b6001600160a01b0381166119455760405162461bcd60e51b815260206004820152600c60248201526b7a65726f206164647265737360a01b60448201526064016107ff565b600554604080516001600160a01b03928316815291831660208301527f3c382290b39c0f8e7c9445f3393899e71f6f8b9a411021501c650ff68fa83b99910160405180910390a1600580546001600160a01b0319166001600160a01b0392909216919091179055565b6119b6613e0f565b6113556000613ebe565b606060006119cd60035490565b6001600160401b038111156119e4576119e4614358565b604051908082528060200260200182016040528015611a1d57816020015b611a0a61400c565b815260200190600190039081611a025790505b50905060005b600354811015611ad7576000818152600b60205260409020600201546001600160a01b03808616911603611ac5576000818152600b6020908152604091829020825160a0810184528154815260018201549281019290925260028101546001600160a01b0316928201929092526003820154606082015260049091015460808201528251839083908110611ab957611ab96148b6565b60200260200101819052505b80611acf816148e2565b915050611a23565b5092915050565b6000828152600b60205260408120600101549003611b0e5760405162461bcd60e51b81526004016107ff90614945565b6000828152600b60205260409020600201546001600160a01b03163314611b8a5760405162461bcd60e51b815260206004820152602a60248201527f4f6e6c792073656c6c65722063616e2077697468647261772066726f6d206c696044820152691cdd1a5b99c81c1bdbdb60b21b60648201526084016107ff565b60008111611baa5760405162461bcd60e51b81526004016107ff9061480a565b6000828152600b6020526040902060040154811115611c0b5760405162461bcd60e51b815260206004820152601960248201527f4e6f7420656e6f7567682073686172657320696e20706f6f6c0000000000000060448201526064016107ff565b6006546000838152600b602052604090819020600101549051637921219560e11b81526001600160a01b039092169163f242432a91611c529130913391879060040161482e565b600060405180830381600087803b158015611c6c57600080fd5b505af1158015611c80573d6000803e3d6000fd5b5050506000838152600b602052604081206004018054849350909190611ca7908490614932565b909155505060408051838152602081018390527f2590ddccb521e3f8172beb6ef2ef25c9d728d204ce8dd070fec6f03af61b6f6991016118ec565b611cea613e0f565b611355613f0e565b600a602052816000526040600020818154811061137357600080fd5b6000818152600d602052604090206005015460ff16611d3f5760405162461bcd60e51b81526004016107ff90614866565b6000805b6000838152600d6020526040902060020154811015611db3576000838152600d60205260409020600201805433919083908110611d8257611d826148b6565b6000918252602090912001546001600160a01b031603611da157600191505b80611dab816148e2565b915050611d43565b5080611dd15760405162461bcd60e51b81526004016107ff906148fb565b60005b6000838152600d6020526040902060040154811015611e7c576000838152600d60205260409020600401805433919083908110611e1357611e136148b6565b6000918252602090912001546001600160a01b031603611e6a576000838152600d60205260409020600401805482908110611e5057611e506148b6565b600091825260209091200180546001600160a01b03191690555b80611e74816148e2565b915050611dd4565b505050565b611e89613906565b6000818152600960205260408120600101549003611ee35760405162461bcd60e51b81526020600482015260176024820152764c697374696e6720646f6573206e6f742065786973742160481b60448201526064016107ff565b600081815260096020526040902060040154336001600160a01b0390911603611f1e5760405162461bcd60e51b81526004016107ff9061498f565b600081815260096020526040902060040154600160a01b900460ff161515600114611f8b5760405162461bcd60e51b815260206004820152601d60248201527f536861726573206c697374696e67206973206e6f74206163746976652100000060448201526064016107ff565b6000818152600960208181526040808420815160c08101835281548152600182018054828601526002830180548386019081526003850180546060860152600480870180546001600160a01b0380821660808a01908152600160a01b830460ff16151560a08b01528f8f529c909b52978c9055948b9055928a9055989098556001600160a81b031990931690556007549451955192516323b872dd60e01b81523392810192909252948316602482015260448101919091529116906323b872dd906064016020604051808303816000875af115801561206e573d6000803e3d6000fd5b505050506040513d601f19601f8201168201806040525081019061209291906147cf565b50600654608082015160208301516060840151604051637921219560e11b81526001600160a01b039094169363f242432a936120d4939092339260040161482e565b600060405180830381600087803b1580156120ee57600080fd5b505af1158015612102573d6000803e3d6000fd5b50505060208083015160408085015160608087015160808089015185518b815297880196909652938601929092528401526001600160a01b03909116908201523360a08201527fb976e14df17a9b70d6dd3b3dcae82e3c877a71c73c5e950e486fe9918998e7ab915060c00160405180910390a1506110f160018055565b600e602052816000526040600020818154811061137357600080fd5b6121a4613906565b6007546040516323b872dd60e01b8152336004820152306024820152604481018390526001600160a01b03909116906323b872dd906064016020604051808303816000875af11580156121fb573d6000803e3d6000fd5b505050506040513d601f19601f8201168201806040525081019061221f91906147cf565b5033600090815260086020526040812080548392906110e590849061497c565b6060600061224c60045490565b6001600160401b0381111561226357612263614358565b60405190808252806020026020018201604052801561229c57816020015b612289614085565b8152602001906001900390816122815790505b50905060005b6004548110156115cf576000818152600d602052604090206005015460ff1615612436576000818152600d6020908152604091829020825160c081018452815481526001820154818401526002820180548551818602810186018752818152929593949386019383018282801561234257602002820191906000526020600020905b81546001600160a01b03168152600190910190602001808311612324575b505050505081526020016003820180548060200260200160405190810160405280929190818152602001828054801561239a57602002820191906000526020600020905b815481526020019060010190808311612386575b50505050508152602001600482018054806020026020016040519081016040528092919081815260200182805480156123fc57602002820191906000526020600020905b81546001600160a01b031681526001909101906020018083116123de575b50505091835250506005919091015460ff161515602090910152825183908390811061242a5761242a6148b6565b60200260200101819052505b80612440816148e2565b9150506122a2565b6001600160a01b0381166000908152600a6020526040812054606091906001600160401b0381111561247c5761247c614358565b6040519080825280602002602001820160405280156124b557816020015b6124a2614044565b81526020019060019003908161249a5790505b50905060005b6001600160a01b0384166000908152600a6020526040902054811015611ad7576001600160a01b0384166000908152600a60205260408120805460099291908490811061250a5761250a6148b6565b600091825260208083209091015483528281019390935260409182019020815160c0810183528154815260018201549381019390935260028101549183019190915260038101546060830152600401546001600160a01b038116608083015260ff600160a01b90910416151560a0820152825183908390811061258f5761258f6148b6565b602002602001018190525080806125a5906148e2565b9150506124bb565b6125b5613906565b6000828152600b602052604081206001015490036125e55760405162461bcd60e51b81526004016107ff90614945565b6000828152600b6020526040902060020154336001600160a01b03909116036126205760405162461bcd60e51b81526004016107ff9061498f565b6000828152600b60205260409020600401548111156126815760405162461bcd60e51b815260206004820181905260248201527f4e6f7420656e6f75676820736861726573206c697374656420696e20706f6f6c60448201526064016107ff565b6000828152600b602052604081206003015461269d90836149d1565b336000908152600860205260409020549091508111156126ff5760405162461bcd60e51b815260206004820152601d60248201527f4e6f7420656e6f7567682066756e647320666f7220707572636861736500000060448201526064016107ff565b336000908152600860205260408120805483929061271e908490614932565b90915550506000838152600b60209081526040808320600201546001600160a01b0316835260089091528120805483929061275a90849061497c565b90915550506006546000848152600b602052604090819020600101549051637921219560e11b81526001600160a01b039092169163f242432a916127a69130913391889060040161482e565b600060405180830381600087803b1580156127c057600080fd5b505af11580156127d4573d6000803e3d6000fd5b5050506000848152600b6020526040812060040180548593509091906127fb908490614932565b90915550506000838152600b60209081526040918290206001810154600382015460029092015484518881529384019190915292820152606081018490526001600160a01b0390911660808201523360a08201527f2863381484f9cc73ecc2d0c2150ef67453492eb688e99bf4ac56f4be9a335c509060c00160405180910390a150610ff260018055565b60008381526009602052604081206001015490036128df5760405162461bcd60e51b8152602060048201526016602482015275131a5cdd1a5b99c8191bd95cc81b9bdd08195e1a5cdd60521b60448201526064016107ff565b600083815260096020526040902060040154600160a01b900460ff1661293f5760405162461bcd60e51b81526020600482015260156024820152744c697374696e67206973206e6f742061637469766560581b60448201526064016107ff565b60018251116129905760405162461bcd60e51b815260206004820152601e60248201527f4d7573742068617665206174206c65617374203220696e766573746f7273000060448201526064016107ff565b80518251146129f65760405162461bcd60e51b815260206004820152602c60248201527f496e766573746f727320616e642073686172657320616d6f756e7473206c656e60448201526b0cee8d040dad2e6dac2e8c6d60a31b60648201526084016107ff565b6000805b8351811015612a3c57828181518110612a1557612a156148b6565b602002602001015182612a28919061497c565b915080612a34816148e2565b9150506129fa565b506000848152600960205260409020600301548114612ab75760405162461bcd60e51b815260206004820152603160248201527f546f74616c2073686172657320616d6f756e7420646f6573206e6f74206d617460448201527018da081b1a5cdd1a5b99c8185b5bdd5b9d607a1b60648201526084016107ff565b6000805b8451811015612c8d576000848281518110612ad857612ad86148b6565b602002602001015111612b395760405162461bcd60e51b8152602060048201526024808201527f53686172657320616d6f756e74206d75737420626520677265617465722074686044820152630616e20360e41b60648201526084016107ff565b60006001600160a01b0316858281518110612b5657612b566148b6565b60200260200101516001600160a01b031603612bb45760405162461bcd60e51b815260206004820152601e60248201527f496e766573746f7220616464726573732063616e6e6f7420626520307830000060448201526064016107ff565b60008681526009602052604090206004015485516001600160a01b0390911690869083908110612be657612be66148b6565b60200260200101516001600160a01b031603612c445760405162461bcd60e51b815260206004820152601960248201527f53656c6c65722063616e6e6f7420626520696e766573746f720000000000000060448201526064016107ff565b336001600160a01b0316858281518110612c6057612c606148b6565b60200260200101516001600160a01b031603612c7b57600191505b80612c85816148e2565b915050612abb565b5080612cab5760405162461bcd60e51b81526004016107ff906148fb565b6000805b60018651612cbd9190614932565b811015612d455760015b8651811015612d3257868181518110612ce257612ce26148b6565b60200260200101516001600160a01b0316878381518110612d0557612d056148b6565b60200260200101516001600160a01b031603612d2057600192505b80612d2a816148e2565b915050612cc7565b5080612d3d816148e2565b915050612caf565b508015612d945760405162461bcd60e51b815260206004820152601a60248201527f4475706c696361746520696e766573746f72206164647265737300000000000060448201526064016107ff565b600480546000818152600d6020908152604080832093845560019093018a905592548152208651612dcd926002909201918801906140bd565b5083600d6000612ddc60045490565b81526020019081526020016000206003019080519060200190612e00929190614122565b506001600d6000612e1060045490565b81526020810191909152604001600020600501805460ff1916911515919091179055600480546001019055610b70565b600554604051634f558e7960e01b81526004810185905284916001600160a01b031690634f558e7990602401602060405180830381865afa158015612e89573d6000803e3d6000fd5b505050506040513d601f19601f82011682018060405250810190612ead91906147cf565b612ef15760405162461bcd60e51b8152602060048201526015602482015274417373657420646f6573206e6f742065786973742160581b60448201526064016107ff565b600654604051627eeac760e11b81523360048201819052602482018790529186916000916001600160a01b03169062fdd58e90604401602060405180830381865afa158015612f44573d6000803e3d6000fd5b505050506040513d601f19601f82011682018060405250810190612f6891906147f1565b11612fa75760405162461bcd60e51b815260206004820152600f60248201526e3737ba1039b430b932b437b63232b960891b60448201526064016107ff565b612faf613906565b60008511612fef5760405162461bcd60e51b815260206004820152600d60248201526c1c1c9a58d9480f080c481554d1609a1b60448201526064016107ff565b6000841161300f5760405162461bcd60e51b81526004016107ff9061480a565b60065460405163e985e9c560e01b81523360048201523060248201526001600160a01b039091169063e985e9c590604401602060405180830381865afa15801561305d573d6000803e3d6000fd5b505050506040513d601f19601f8201168201806040525081019061308191906147cf565b6130c45760405162461bcd60e51b81526020600482015260146024820152731b9bdd08185c1c1c9bdd995908199bdc88185b1b60621b60448201526064016107ff565b8360005b336000908152600a60205260409020548110156131e557336000908152600a6020526040812080548a92600992909185908110613107576131076148b6565b906000526020600020015481526020019081526020016000206001015414801561317d5750336000908152600a602052604081208054600992919084908110613152576131526148b6565b9060005260206000200154815260200190815260200160002060040160149054906101000a900460ff165b156131d357336000908152600a6020526040812080546009929190849081106131a8576131a86148b6565b9060005260206000200154815260200190815260200160002060030154826131d0919061497c565b91505b806131dd816148e2565b9150506130c8565b50600654604051627eeac760e11b8152336004820152602481018990526001600160a01b039091169062fdd58e90604401602060405180830381865afa158015613233573d6000803e3d6000fd5b505050506040513d601f19601f8201168201806040525081019061325791906147f1565b81111561329a5760405162461bcd60e51b81526020600482015260116024820152706e6f7420656e6f7567682073686172657360781b60448201526064016107ff565b6040518060c001604052806132ae60025490565b8152602081018990526040810188905260608101879052336080820152600160a090910152600960006132e060025490565b81526020808201929092526040908101600090812084518155848401516001820155848301516002808301919091556060860151600383015560808601516004909201805460a0909701511515600160a01b026001600160a81b03199097166001600160a01b0390931692909217959095179055338152600a909252902090613367905490565b815460018101835560009283526020909220909101557f97dcdac6c7238ca7fc3ad41c8a17e1ac9825015db181b6f7d0a8e444dbd112866133a760025490565b60408051918252602082018a905281018890526060810187905233608082015260a00160405180910390a16133e0600280546001019055565b50610b7060018055565b336000908152600e6020526040812054606091906001600160401b0381111561341557613415614358565b60405190808252806020026020018201604052801561344e57816020015b61343b614085565b8152602001906001900390816134335790505b50905060005b336000908152600e60205260409020548110156115cf57336000908152600e602052604081208054600d92919084908110613491576134916148b6565b906000526020600020015481526020019081526020016000206040518060c001604052908160008201548152602001600182015481526020016002820180548060200260200160405190810160405280929190818152602001828054801561352257602002820191906000526020600020905b81546001600160a01b03168152600190910190602001808311613504575b505050505081526020016003820180548060200260200160405190810160405280929190818152602001828054801561357a57602002820191906000526020600020905b815481526020019060010190808311613566575b50505050508152602001600482018054806020026020016040519081016040528092919081815260200182805480156135dc57602002820191906000526020600020905b81546001600160a01b031681526001909101906020018083116135be575b50505091835250506005919091015460ff161515602090910152825183908390811061360a5761360a6148b6565b60200260200101819052508080613620906148e2565b915050613454565b613630613e0f565b6001600160a01b0381166136955760405162461bcd60e51b815260206004820152602660248201527f4f776e61626c653a206e6577206f776e657220697320746865207a65726f206160448201526564647265737360d01b60648201526084016107ff565b6110f181613ebe565b606060006136ab60035490565b6001600160401b038111156136c2576136c2614358565b6040519080825280602002602001820160405280156136fb57816020015b6136e861400c565b8152602001906001900390816136e05790505b50905060005b6003548110156115cf576000818152600b602052604090206001015415613796576000818152600b6020908152604091829020825160a0810184528154815260018201549281019290925260028101546001600160a01b031692820192909252600382015460608201526004909101546080820152825183908390811061378a5761378a6148b6565b60200260200101819052505b806137a0816148e2565b915050613701565b6137b0614085565b6000828152600d6020908152604091829020825160c081018452815481526001820154818401526002820180548551818602810186018752818152929593949386019383018282801561382c57602002820191906000526020600020905b81546001600160a01b0316815260019091019060200180831161380e575b505050505081526020016003820180548060200260200160405190810160405280929190818152602001828054801561388457602002820191906000526020600020905b815481526020019060010190808311613870575b50505050508152602001600482018054806020026020016040519081016040528092919081815260200182805480156138e657602002820191906000526020600020905b81546001600160a01b031681526001909101906020018083116138c8575b50505091835250506005919091015460ff16151560209091015292915050565b6002600154036139585760405162461bcd60e51b815260206004820152601f60248201527f5265656e7472616e637947756172643a207265656e7472616e742063616c6c0060448201526064016107ff565b6002600155565b613967613906565b60008281526009602052604081206001015490036139c15760405162461bcd60e51b81526020600482015260176024820152764c697374696e6720646f6573206e6f742065786973742160481b60448201526064016107ff565b600082815260096020526040902060040154336001600160a01b03909116036139fc5760405162461bcd60e51b81526004016107ff9061498f565b600082815260096020526040902060040154600160a01b900460ff161515600114613a695760405162461bcd60e51b815260206004820152601d60248201527f536861726573206c697374696e67206973206e6f74206163746976652100000060448201526064016107ff565b6000828152600960209081526040808320815160c08082018452825482526001808401805484880152600280860180548689015260038701805460608801526004880180546001600160a01b03811660808a015260ff600160a01b820416151560a08a0152988c9055938b9055908a90558990556001600160a81b03199095169055878752600d86528487208551928301865280548352908101548287015292830180548551818802810188018752818152939796929586019392830182828015613b5d57602002820191906000526020600020905b81546001600160a01b03168152600190910190602001808311613b3f575b5050505050815260200160038201805480602002602001604051908101604052809291908181526020018280548015613bb557602002820191906000526020600020905b815481526020019060010190808311613ba1575b5050505050815260200160048201805480602002602001604051908101604052809291908181526020018280548015613c1757602002820191906000526020600020905b81546001600160a01b03168152600190910190602001808311613bf9575b50505091835250506005919091015460ff161515602090910152905060005b816040015151811015613e0357600083606001518460400151613c5991906149e8565b9050600083606001518381518110613c7357613c736148b6565b602002602001015182613c8691906149d1565b600754604086015180519293506001600160a01b03909116916323b872dd919086908110613cb657613cb66148b6565b602090810291909101015160808801516040516001600160e01b031960e085901b1681526001600160a01b03928316600482015291166024820152604481018490526064016020604051808303816000875af1158015613d1a573d6000803e3d6000fd5b505050506040513d601f19601f82011682018060405250810190613d3e91906147cf565b506006546080860151604086015180516001600160a01b039093169263f242432a92919087908110613d7257613d726148b6565b6020026020010151886020015188606001518881518110613d9557613d956148b6565b60200260200101516040518563ffffffff1660e01b8152600401613dbc949392919061482e565b600060405180830381600087803b158015613dd657600080fd5b505af1158015613dea573d6000803e3d6000fd5b5050505050508080613dfb906148e2565b915050613c36565b505050610ff260018055565b6000546001600160a01b031633146113555760405162461bcd60e51b815260206004820181905260248201527f4f776e61626c653a2063616c6c6572206973206e6f7420746865206f776e657260448201526064016107ff565b613e71613f51565b6000805460ff60a01b191690557f5db9ee0a495bf2e6ff9c91a7834c1ba4fdd244a5e8aa4e537bd38aeae4b073aa335b6040516001600160a01b03909116815260200160405180910390a1565b600080546001600160a01b038381166001600160a01b0319831681178455604051919092169283917f8be0079c531659141344cd1fd0a4f28419497f9722a3daafe3b4186f6b6457e09190a35050565b613f16613fa1565b6000805460ff60a01b1916600160a01b1790557f62e78cea01bee320cd4e420270b5ea74000d11b0c9f74754ebdbfc544b05a258613ea13390565b600054600160a01b900460ff166113555760405162461bcd60e51b815260206004820152601460248201527314185d5cd8589b194e881b9bdd081c185d5cd95960621b60448201526064016107ff565b600054600160a01b900460ff16156113555760405162461bcd60e51b815260206004820152601060248201526f14185d5cd8589b194e881c185d5cd95960821b60448201526064016107ff565b50805460008255906000526020600020908101906110f1919061415d565b6040518060a00160405280600081526020016000815260200160006001600160a01b0316815260200160008152602001600081525090565b6040518060c001604052806000815260200160008152602001600081526020016000815260200160006001600160a01b031681526020016000151581525090565b6040518060c0016040528060008152602001600081526020016060815260200160608152602001606081526020016000151581525090565b828054828255906000526020600020908101928215614112579160200282015b8281111561411257825182546001600160a01b0319166001600160a01b039091161782556020909201916001909101906140dd565b5061411e92915061415d565b5090565b828054828255906000526020600020908101928215614112579160200282015b82811115614112578251825591602001919060010190614142565b5b8082111561411e576000815560010161415e565b60006020828403121561418457600080fd5b81356001600160e01b03198116811461419c57600080fd5b9392505050565b6000806000606084860312156141b857600080fd5b505081359360208301359350604090920135919050565b6000602082840312156141e157600080fd5b5035919050565b602080825282518282018190526000919060409081850190868401855b82811015614252578151805185528681015187860152858101516001600160a01b031686860152606080820151908601526080908101519085015260a09093019290850190600101614205565b5091979650505050505050565b602080825282518282018190526000919060409081850190868401855b828110156142525781518051855286810151878601528581015186860152606080820151908601526080808201516001600160a01b03169086015260a09081015115159085015260c0909301929085019060010161427c565b80356001600160a01b03811681146142ec57600080fd5b919050565b6000806040838503121561430457600080fd5b61430d836142d5565b946020939093013593505050565b60006020828403121561432d57600080fd5b61419c826142d5565b6000806040838503121561434957600080fd5b50508035926020909101359150565b634e487b7160e01b600052604160045260246000fd5b604051601f8201601f191681016001600160401b038111828210171561439657614396614358565b604052919050565b60006001600160401b038211156143b7576143b7614358565b5060051b60200190565b600082601f8301126143d257600080fd5b813560206143e76143e28361439e565b61436e565b82815260059290921b8401810191818101908684111561440657600080fd5b8286015b84811015614421578035835291830191830161440a565b509695505050505050565b600082601f83011261443d57600080fd5b81356001600160401b0381111561445657614456614358565b614469601f8201601f191660200161436e565b81815284602083860101111561447e57600080fd5b816020850160208301376000918101602001919091529392505050565b600080600080600060a086880312156144b357600080fd5b6144bc866142d5565b94506144ca602087016142d5565b935060408601356001600160401b03808211156144e657600080fd5b6144f289838a016143c1565b9450606088013591508082111561450857600080fd5b61451489838a016143c1565b9350608088013591508082111561452a57600080fd5b506145378882890161442c565b9150509295509295909350565b600081518084526020808501945080840160005b8381101561457d5781516001600160a01b031687529582019590820190600101614558565b509495945050505050565b80518252600060208083015181850152604083015160c060408601526145b160c0860182614544565b60608581015187830391880191909152805180835290840192506000918401905b808310156145f257835182529284019260019290920191908401906145d2565b5060808601519350868103608088015261460c8185614544565b935050505060a083015161462460a086018215159052565b509392505050565b6000602080830181845280855180835260408601915060408160051b870101925083870160005b8281101561468157603f1988860301845261466f858351614588565b94509285019290850190600101614653565b5092979650505050505050565b6000806000606084860312156146a357600080fd5b833592506020808501356001600160401b03808211156146c257600080fd5b818701915087601f8301126146d657600080fd5b81356146e46143e28261439e565b81815260059190911b8301840190848101908a83111561470357600080fd5b938501935b8285101561472857614719856142d5565b82529385019390850190614708565b96505050604087013592508083111561474057600080fd5b505061474e868287016143c1565b9150509250925092565b600080600080600060a0868803121561477057600080fd5b614779866142d5565b9450614787602087016142d5565b9350604086013592506060860135915060808601356001600160401b038111156147b057600080fd5b6145378882890161442c565b60208152600061419c6020830184614588565b6000602082840312156147e157600080fd5b8151801515811461419c57600080fd5b60006020828403121561480357600080fd5b5051919050565b6020808252600a9082015269616d6f756e74203c203160b01b604082015260600190565b6001600160a01b0394851681529290931660208301526040820152606081019190915260a06080820181905260009082015260c00190565b60208082526030908201527f47726f757020696e766573746d656e74206973206e6f7420616374697665206f60408201526f1c88191bd95cc81b9bdd08195e1a5cdd60821b606082015260800190565b634e487b7160e01b600052603260045260246000fd5b634e487b7160e01b600052601160045260246000fd5b6000600182016148f4576148f46148cc565b5060010190565b60208082526017908201527f53656e646572206d75737420626520696e766573746f72000000000000000000604082015260600190565b8181038181111561074c5761074c6148cc565b6020808252601c908201527f4c697374696e6720506f6f6c20646f6573206e6f742065786973742100000000604082015260600190565b8082018082111561074c5761074c6148cc565b60208082526022908201527f53656c6c65722063616e6e6f7420627579207468656972206f776e2073686172604082015261657360f01b606082015260800190565b808202811582820484141761074c5761074c6148cc565b600082614a0557634e487b7160e01b600052601260045260246000fd5b50049056fea2646970667358221220ef973feeee8f1296a98cc647ff59f3d233bae312ee81030d2463fdc47d92983b64736f6c63430008120033",
  "linkReferences": {},
  "deployedLinkReferences": {}
}