{
  "_format": "hh-sol-artifact-1",
  "contractName": "BlockEstate",
  "sourceName": "contracts/BlockEstate.sol",
  "abi": [
    {
      "inputs": [],
      "stateMutability": "nonpayable",
      "type": "constructor"
    },
    {
      "anonymous": false,
      "inputs": [
        {
          "indexed": true,
          "internalType": "address",
          "name": "account",
          "type": "address"
        },
        {
          "indexed": true,
          "internalType": "address",
          "name": "operator",
          "type": "address"
        },
        {
          "indexed": false,
          "internalType": "bool",
          "name": "approved",
          "type": "bool"
        }
      ],
      "name": "ApprovalForAll",
      "type": "event"
    },
    {
      "anonymous": false,
      "inputs": [
        {
          "indexed": false,
          "internalType": "uint256",
          "name": "tokenId",
          "type": "uint256"
        }
      ],
      "name": "AssetCreated",
      "type": "event"
    },
    {
      "anonymous": false,
      "inputs": [
        {
          "indexed": true,
          "internalType": "address",
          "name": "previousOwner",
          "type": "address"
        },
        {
          "indexed": true,
          "internalType": "address",
          "name": "newOwner",
          "type": "address"
        }
      ],
      "name": "OwnershipTransferred",
      "type": "event"
    },
    {
      "anonymous": false,
      "inputs": [
        {
          "indexed": false,
          "internalType": "uint256",
          "name": "assetId",
          "type": "uint256"
        },
        {
          "indexed": false,
          "internalType": "uint256",
          "name": "sharesId",
          "type": "uint256"
        },
        {
          "indexed": false,
          "internalType": "address[]",
          "name": "holders",
          "type": "address[]"
        },
        {
          "indexed": false,
          "internalType": "uint8[]",
          "name": "shares",
          "type": "uint8[]"
        }
      ],
      "name": "SharesCreated",
      "type": "event"
    },
    {
      "anonymous": false,
      "inputs": [
        {
          "indexed": true,
          "internalType": "address",
          "name": "operator",
          "type": "address"
        },
        {
          "indexed": true,
          "internalType": "address",
          "name": "from",
          "type": "address"
        },
        {
          "indexed": true,
          "internalType": "address",
          "name": "to",
          "type": "address"
        },
        {
          "indexed": false,
          "internalType": "uint256[]",
          "name": "ids",
          "type": "uint256[]"
        },
        {
          "indexed": false,
          "internalType": "uint256[]",
          "name": "values",
          "type": "uint256[]"
        }
      ],
      "name": "TransferBatch",
      "type": "event"
    },
    {
      "anonymous": false,
      "inputs": [
        {
          "indexed": true,
          "internalType": "address",
          "name": "operator",
          "type": "address"
        },
        {
          "indexed": true,
          "internalType": "address",
          "name": "from",
          "type": "address"
        },
        {
          "indexed": true,
          "internalType": "address",
          "name": "to",
          "type": "address"
        },
        {
          "indexed": false,
          "internalType": "uint256",
          "name": "id",
          "type": "uint256"
        },
        {
          "indexed": false,
          "internalType": "uint256",
          "name": "value",
          "type": "uint256"
        }
      ],
      "name": "TransferSingle",
      "type": "event"
    },
    {
      "anonymous": false,
      "inputs": [
        {
          "indexed": false,
          "internalType": "string",
          "name": "value",
          "type": "string"
        },
        {
          "indexed": true,
          "internalType": "uint256",
          "name": "id",
          "type": "uint256"
        }
      ],
      "name": "URI",
      "type": "event"
    },
    {
      "inputs": [
        {
          "internalType": "uint256",
          "name": "",
          "type": "uint256"
        }
      ],
      "name": "assetToShares",
      "outputs": [
        {
          "internalType": "uint256",
          "name": "",
          "type": "uint256"
        }
      ],
      "stateMutability": "view",
      "type": "function"
    },
    {
      "inputs": [
        {
          "internalType": "address",
          "name": "account",
          "type": "address"
        },
        {
          "internalType": "uint256",
          "name": "id",
          "type": "uint256"
        }
      ],
      "name": "balanceOf",
      "outputs": [
        {
          "internalType": "uint256",
          "name": "",
          "type": "uint256"
        }
      ],
      "stateMutability": "view",
      "type": "function"
    },
    {
      "inputs": [
        {
          "internalType": "address[]",
          "name": "accounts",
          "type": "address[]"
        },
        {
          "internalType": "uint256[]",
          "name": "ids",
          "type": "uint256[]"
        }
      ],
      "name": "balanceOfBatch",
      "outputs": [
        {
          "internalType": "uint256[]",
          "name": "",
          "type": "uint256[]"
        }
      ],
      "stateMutability": "view",
      "type": "function"
    },
    {
      "inputs": [
        {
          "internalType": "address",
          "name": "account",
          "type": "address"
        },
        {
          "internalType": "uint256",
          "name": "id",
          "type": "uint256"
        },
        {
          "internalType": "uint256",
          "name": "value",
          "type": "uint256"
        }
      ],
      "name": "burn",
      "outputs": [],
      "stateMutability": "nonpayable",
      "type": "function"
    },
    {
      "inputs": [
        {
          "internalType": "address",
          "name": "account",
          "type": "address"
        },
        {
          "internalType": "uint256[]",
          "name": "ids",
          "type": "uint256[]"
        },
        {
          "internalType": "uint256[]",
          "name": "values",
          "type": "uint256[]"
        }
      ],
      "name": "burnBatch",
      "outputs": [],
      "stateMutability": "nonpayable",
      "type": "function"
    },
    {
      "inputs": [
        {
          "internalType": "uint8",
          "name": "category",
          "type": "uint8"
        },
        {
          "internalType": "string",
          "name": "street",
          "type": "string"
        },
        {
          "internalType": "uint16",
          "name": "number",
          "type": "uint16"
        },
        {
          "internalType": "string",
          "name": "city",
          "type": "string"
        },
        {
          "internalType": "string",
          "name": "country",
          "type": "string"
        }
      ],
      "name": "createAsset",
      "outputs": [],
      "stateMutability": "nonpayable",
      "type": "function"
    },
    {
      "inputs": [
        {
          "internalType": "uint256",
          "name": "estateId",
          "type": "uint256"
        },
        {
          "internalType": "address[]",
          "name": "holders",
          "type": "address[]"
        },
        {
          "internalType": "uint8[]",
          "name": "shares",
          "type": "uint8[]"
        }
      ],
      "name": "createShares",
      "outputs": [],
      "stateMutability": "nonpayable",
      "type": "function"
    },
    {
      "inputs": [
        {
          "internalType": "uint256",
          "name": "tokenId",
          "type": "uint256"
        }
      ],
      "name": "deleteAsset",
      "outputs": [],
      "stateMutability": "nonpayable",
      "type": "function"
    },
    {
      "inputs": [
        {
          "internalType": "uint256",
          "name": "id",
          "type": "uint256"
        }
      ],
      "name": "exists",
      "outputs": [
        {
          "internalType": "bool",
          "name": "",
          "type": "bool"
        }
      ],
      "stateMutability": "view",
      "type": "function"
    },
    {
      "inputs": [
        {
          "internalType": "address",
          "name": "owner",
          "type": "address"
        }
      ],
      "name": "getOwnedTokens",
      "outputs": [
        {
          "internalType": "uint256[]",
          "name": "",
          "type": "uint256[]"
        }
      ],
      "stateMutability": "view",
      "type": "function"
    },
    {
      "inputs": [
        {
          "internalType": "address",
          "name": "account",
          "type": "address"
        },
        {
          "internalType": "address",
          "name": "operator",
          "type": "address"
        }
      ],
      "name": "isApprovedForAll",
      "outputs": [
        {
          "internalType": "bool",
          "name": "",
          "type": "bool"
        }
      ],
      "stateMutability": "view",
      "type": "function"
    },
    {
      "inputs": [],
      "name": "owner",
      "outputs": [
        {
          "internalType": "address",
          "name": "",
          "type": "address"
        }
      ],
      "stateMutability": "view",
      "type": "function"
    },
    {
      "inputs": [],
      "name": "readAllAssets",
      "outputs": [
        {
          "components": [
            {
              "internalType": "uint256",
              "name": "tokenId",
              "type": "uint256"
            },
            {
              "internalType": "enum BlockEstate.AssetCategory",
              "name": "category",
              "type": "uint8"
            },
            {
              "components": [
                {
                  "internalType": "string",
                  "name": "street",
                  "type": "string"
                },
                {
                  "internalType": "uint16",
                  "name": "number",
                  "type": "uint16"
                },
                {
                  "internalType": "string",
                  "name": "city",
                  "type": "string"
                },
                {
                  "internalType": "string",
                  "name": "country",
                  "type": "string"
                }
              ],
              "internalType": "struct BlockEstate.AssetLocation",
              "name": "location",
              "type": "tuple"
            }
          ],
          "internalType": "struct BlockEstate.Asset[]",
          "name": "",
          "type": "tuple[]"
        }
      ],
      "stateMutability": "view",
      "type": "function"
    },
    {
      "inputs": [
        {
          "internalType": "uint256",
          "name": "tokenId",
          "type": "uint256"
        }
      ],
      "name": "readAsset",
      "outputs": [
        {
          "components": [
            {
              "internalType": "uint256",
              "name": "tokenId",
              "type": "uint256"
            },
            {
              "internalType": "enum BlockEstate.AssetCategory",
              "name": "category",
              "type": "uint8"
            },
            {
              "components": [
                {
                  "internalType": "string",
                  "name": "street",
                  "type": "string"
                },
                {
                  "internalType": "uint16",
                  "name": "number",
                  "type": "uint16"
                },
                {
                  "internalType": "string",
                  "name": "city",
                  "type": "string"
                },
                {
                  "internalType": "string",
                  "name": "country",
                  "type": "string"
                }
              ],
              "internalType": "struct BlockEstate.AssetLocation",
              "name": "location",
              "type": "tuple"
            }
          ],
          "internalType": "struct BlockEstate.Asset",
          "name": "",
          "type": "tuple"
        }
      ],
      "stateMutability": "view",
      "type": "function"
    },
    {
      "inputs": [],
      "name": "renounceOwnership",
      "outputs": [],
      "stateMutability": "nonpayable",
      "type": "function"
    },
    {
      "inputs": [
        {
          "internalType": "address",
          "name": "from",
          "type": "address"
        },
        {
          "internalType": "address",
          "name": "to",
          "type": "address"
        },
        {
          "internalType": "uint256[]",
          "name": "ids",
          "type": "uint256[]"
        },
        {
          "internalType": "uint256[]",
          "name": "amounts",
          "type": "uint256[]"
        },
        {
          "internalType": "bytes",
          "name": "data",
          "type": "bytes"
        }
      ],
      "name": "safeBatchTransferFrom",
      "outputs": [],
      "stateMutability": "nonpayable",
      "type": "function"
    },
    {
      "inputs": [
        {
          "internalType": "address",
          "name": "from",
          "type": "address"
        },
        {
          "internalType": "address",
          "name": "to",
          "type": "address"
        },
        {
          "internalType": "uint256",
          "name": "id",
          "type": "uint256"
        },
        {
          "internalType": "uint256",
          "name": "amount",
          "type": "uint256"
        },
        {
          "internalType": "bytes",
          "name": "data",
          "type": "bytes"
        }
      ],
      "name": "safeTransferFrom",
      "outputs": [],
      "stateMutability": "nonpayable",
      "type": "function"
    },
    {
      "inputs": [
        {
          "internalType": "address",
          "name": "operator",
          "type": "address"
        },
        {
          "internalType": "bool",
          "name": "approved",
          "type": "bool"
        }
      ],
      "name": "setApprovalForAll",
      "outputs": [],
      "stateMutability": "nonpayable",
      "type": "function"
    },
    {
      "inputs": [
        {
          "internalType": "string",
          "name": "newuri",
          "type": "string"
        }
      ],
      "name": "setURI",
      "outputs": [],
      "stateMutability": "nonpayable",
      "type": "function"
    },
    {
      "inputs": [
        {
          "internalType": "bytes4",
          "name": "interfaceId",
          "type": "bytes4"
        }
      ],
      "name": "supportsInterface",
      "outputs": [
        {
          "internalType": "bool",
          "name": "",
          "type": "bool"
        }
      ],
      "stateMutability": "view",
      "type": "function"
    },
    {
      "inputs": [
        {
          "internalType": "uint256",
          "name": "id",
          "type": "uint256"
        }
      ],
      "name": "totalSupply",
      "outputs": [
        {
          "internalType": "uint256",
          "name": "",
          "type": "uint256"
        }
      ],
      "stateMutability": "view",
      "type": "function"
    },
    {
      "inputs": [
        {
          "internalType": "address",
          "name": "newOwner",
          "type": "address"
        }
      ],
      "name": "transferOwnership",
      "outputs": [],
      "stateMutability": "nonpayable",
      "type": "function"
    },
    {
      "inputs": [
        {
          "internalType": "uint256",
          "name": "tokenId",
          "type": "uint256"
        }
      ],
      "name": "updateAsset",
      "outputs": [],
      "stateMutability": "nonpayable",
      "type": "function"
    },
    {
      "inputs": [
        {
          "internalType": "uint256",
          "name": "",
          "type": "uint256"
        }
      ],
      "name": "uri",
      "outputs": [
        {
          "internalType": "string",
          "name": "",
          "type": "string"
        }
      ],
      "stateMutability": "view",
      "type": "function"
    }
  ],
  "bytecode": "0x60806040523480156200001157600080fd5b506040518060600160405280602d81526020016200601f602d91396200003d816200007b60201b60201c565b506200005e620000526200009060201b60201c565b6200009860201b60201c565b6200007560056200015e60201b62001a811760201c565b620004d5565b80600290816200008c9190620003ee565b5050565b600033905090565b6000600360009054906101000a900473ffffffffffffffffffffffffffffffffffffffff16905081600360006101000a81548173ffffffffffffffffffffffffffffffffffffffff021916908373ffffffffffffffffffffffffffffffffffffffff1602179055508173ffffffffffffffffffffffffffffffffffffffff168173ffffffffffffffffffffffffffffffffffffffff167f8be0079c531659141344cd1fd0a4f28419497f9722a3daafe3b4186f6b6457e060405160405180910390a35050565b6001816000016000828254019250508190555050565b600081519050919050565b7f4e487b7100000000000000000000000000000000000000000000000000000000600052604160045260246000fd5b7f4e487b7100000000000000000000000000000000000000000000000000000000600052602260045260246000fd5b60006002820490506001821680620001f657607f821691505b6020821081036200020c576200020b620001ae565b5b50919050565b60008190508160005260206000209050919050565b60006020601f8301049050919050565b600082821b905092915050565b600060088302620002767fffffffffffffffffffffffffffffffffffffffffffffffffffffffffffffffff8262000237565b62000282868362000237565b95508019841693508086168417925050509392505050565b6000819050919050565b6000819050919050565b6000620002cf620002c9620002c3846200029a565b620002a4565b6200029a565b9050919050565b6000819050919050565b620002eb83620002ae565b62000303620002fa82620002d6565b84845462000244565b825550505050565b600090565b6200031a6200030b565b62000327818484620002e0565b505050565b5b818110156200034f576200034360008262000310565b6001810190506200032d565b5050565b601f8211156200039e57620003688162000212565b620003738462000227565b8101602085101562000383578190505b6200039b620003928562000227565b8301826200032c565b50505b505050565b600082821c905092915050565b6000620003c360001984600802620003a3565b1980831691505092915050565b6000620003de8383620003b0565b9150826002028217905092915050565b620003f98262000174565b67ffffffffffffffff8111156200041557620004146200017f565b5b620004218254620001dd565b6200042e82828562000353565b600060209050601f83116001811462000466576000841562000451578287015190505b6200045d8582620003d0565b865550620004cd565b601f198416620004768662000212565b60005b82811015620004a05784890151825560018201915060208501945060208101905062000479565b86831015620004c05784890151620004bc601f891682620003b0565b8355505b6001600288020188555050505b505050505050565b615b3a80620004e56000396000f3fe608060405234801561001057600080fd5b50600436106101575760003560e01c806367706e4e116100c3578063bd85b0391161007c578063bd85b039146103d2578063d9d6165514610402578063e985e9c514610432578063f242432a14610462578063f2fde38b1461047e578063f5298aca1461049a57610157565b806367706e4e146103265780636b20c45414610356578063715018a6146103725780637eb79b531461037c5780638da5cb5b14610398578063a22cb465146103b657610157565b80632eb2c2d6116101155780632eb2c2d6146102545780632ee5ba2c14610270578063410e4e9f1461028e57806343d7abeb146102aa5780634e1273f4146102c65780634f558e79146102f657610157565b8062fdd58e1461015c57806301ffc9a71461018c57806302fe5305146101bc5780630488a3b9146101d85780630e89341c14610208578063110b55af14610238575b600080fd5b61017660048036038101906101719190613522565b6104b6565b6040516101839190613571565b60405180910390f35b6101a660048036038101906101a191906135e4565b61057e565b6040516101b3919061362c565b60405180910390f35b6101d660048036038101906101d1919061378d565b610660565b005b6101f260048036038101906101ed91906137d6565b610674565b6040516101ff91906139e6565b60405180910390f35b610222600480360381019061021d91906137d6565b610973565b60405161022f9190613a52565b60405180910390f35b610252600480360381019061024d9190613ad9565b610a07565b005b61026e60048036038101906102699190613d11565b610e17565b005b610278610eb8565b6040516102859190613ef2565b60405180910390f35b6102a860048036038101906102a391906137d6565b611146565b005b6102c460048036038101906102bf919061409a565b61123a565b005b6102e060048036038101906102db9190614125565b611442565b6040516102ed919061424c565b60405180910390f35b610310600480360381019061030b91906137d6565b61155b565b60405161031d919061362c565b60405180910390f35b610340600480360381019061033b91906137d6565b61156f565b60405161034d9190613571565b60405180910390f35b610370600480360381019061036b919061426e565b611587565b005b61037a611624565b005b610396600480360381019061039191906137d6565b611638565b005b6103a0611738565b6040516103ad9190614308565b60405180910390f35b6103d060048036038101906103cb919061434f565b611762565b005b6103ec60048036038101906103e791906137d6565b611778565b6040516103f99190613571565b60405180910390f35b61041c6004803603810190610417919061438f565b611795565b604051610429919061424c565b60405180910390f35b61044c600480360381019061044791906143bc565b61182c565b604051610459919061362c565b60405180910390f35b61047c600480360381019061047791906143fc565b6118c0565b005b6104986004803603810190610493919061438f565b611961565b005b6104b460048036038101906104af9190614493565b6119e4565b005b60008073ffffffffffffffffffffffffffffffffffffffff168373ffffffffffffffffffffffffffffffffffffffff1603610526576040517f08c379a000000000000000000000000000000000000000000000000000000000815260040161051d90614558565b60405180910390fd5b60008083815260200190815260200160002060008473ffffffffffffffffffffffffffffffffffffffff1673ffffffffffffffffffffffffffffffffffffffff16815260200190815260200160002054905092915050565b60007fd9b67a26000000000000000000000000000000000000000000000000000000007bffffffffffffffffffffffffffffffffffffffffffffffffffffffff1916827bffffffffffffffffffffffffffffffffffffffffffffffffffffffff1916148061064957507f0e89341c000000000000000000000000000000000000000000000000000000007bffffffffffffffffffffffffffffffffffffffffffffffffffffffff1916827bffffffffffffffffffffffffffffffffffffffffffffffffffffffff1916145b80610659575061065882611a97565b5b9050919050565b610668611b01565b61067181611b7f565b50565b61067c613415565b816106868161155b565b6106c5576040517f08c379a00000000000000000000000000000000000000000000000000000000081526004016106bc906145c4565b60405180910390fd5b600060086000838152602001908152602001600020600001540361071e576040517f08c379a000000000000000000000000000000000000000000000000000000000815260040161071590614630565b60405180910390fd5b60086000848152602001908152602001600020604051806060016040529081600082015481526020016001820160009054906101000a900460ff16600181111561076b5761076a613812565b5b600181111561077d5761077c613812565b5b8152602001600282016040518060800160405290816000820180546107a19061467f565b80601f01602080910402602001604051908101604052809291908181526020018280546107cd9061467f565b801561081a5780601f106107ef5761010080835404028352916020019161081a565b820191906000526020600020905b8154815290600101906020018083116107fd57829003601f168201915b505050505081526020016001820160009054906101000a900461ffff1661ffff1661ffff1681526020016002820180546108539061467f565b80601f016020809104026020016040519081016040528092919081815260200182805461087f9061467f565b80156108cc5780601f106108a1576101008083540402835291602001916108cc565b820191906000526020600020905b8154815290600101906020018083116108af57829003601f168201915b505050505081526020016003820180546108e59061467f565b80601f01602080910402602001604051908101604052809291908181526020018280546109119061467f565b801561095e5780601f106109335761010080835404028352916020019161095e565b820191906000526020600020905b81548152906001019060200180831161094157829003601f168201915b50505050508152505081525050915050919050565b6060600280546109829061467f565b80601f01602080910402602001604051908101604052809291908181526020018280546109ae9061467f565b80156109fb5780601f106109d0576101008083540402835291602001916109fb565b820191906000526020600020905b8154815290600101906020018083116109de57829003601f168201915b50505050509050919050565b848484848460006001811115610a2057610a1f613812565b5b60ff168560ff1610158015610a4d5750600180811115610a4357610a42613812565b5b60ff168560ff1611155b610a8c576040517f08c379a0000000000000000000000000000000000000000000000000000000008152600401610a83906146fc565b60405180910390fd5b6002845111610ad0576040517f08c379a0000000000000000000000000000000000000000000000000000000008152600401610ac79061478e565b60405180910390fd5b60008361ffff1611610b17576040517f08c379a0000000000000000000000000000000000000000000000000000000008152600401610b0e90614820565b60405180910390fd5b6000825111610b5b576040517f08c379a0000000000000000000000000000000000000000000000000000000008152600401610b52906148b2565b60405180910390fd5b6003815111610b9f576040517f08c379a0000000000000000000000000000000000000000000000000000000008152600401610b9690614944565b60405180910390fd5b6000610bab6005611b92565b905060008b60ff166001811115610bc557610bc4613812565b5b9050600060405180608001604052808d81526020018c61ffff1681526020018b81526020018a815250905060006040518060600160405280858152602001846001811115610c1657610c15613812565b5b8152602001838152509050610c2d33856001611ba0565b610c376005611a81565b60068190806001815401808255809150506001900390600052602060002090600602016000909190919091506000820151816000015560208201518160010160006101000a81548160ff02191690836001811115610c9857610c97613812565b5b02179055506040820151816002016000820151816000019081610cbb9190614b10565b5060208201518160010160006101000a81548161ffff021916908361ffff1602179055506040820151816002019081610cf49190614b10565b506060820151816003019081610d0a9190614b10565b505050505080600860008681526020019081526020016000206000820151816000015560208201518160010160006101000a81548160ff02191690836001811115610d5857610d57613812565b5b02179055506040820151816002016000820151816000019081610d7b9190614b10565b5060208201518160010160006101000a81548161ffff021916908361ffff1602179055506040820151816002019081610db49190614b10565b506060820151816003019081610dca9190614b10565b5050509050507fe9667cd49094a292b02a1d8555f54c265b42912082c2f32b2050393b06d8359884604051610dff9190613571565b60405180910390a15050505050505050505050505050565b610e1f611bc0565b73ffffffffffffffffffffffffffffffffffffffff168573ffffffffffffffffffffffffffffffffffffffff161480610e655750610e6485610e5f611bc0565b61182c565b5b610ea4576040517f08c379a0000000000000000000000000000000000000000000000000000000008152600401610e9b90614c54565b60405180910390fd5b610eb18585858585611bc8565b5050505050565b60606006805480602002602001604051908101604052809291908181526020016000905b8282101561113d5783829060005260206000209060060201604051806060016040529081600082015481526020016001820160009054906101000a900460ff166001811115610f2e57610f2d613812565b5b6001811115610f4057610f3f613812565b5b815260200160028201604051806080016040529081600082018054610f649061467f565b80601f0160208091040260200160405190810160405280929190818152602001828054610f909061467f565b8015610fdd5780601f10610fb257610100808354040283529160200191610fdd565b820191906000526020600020905b815481529060010190602001808311610fc057829003601f168201915b505050505081526020016001820160009054906101000a900461ffff1661ffff1661ffff1681526020016002820180546110169061467f565b80601f01602080910402602001604051908101604052809291908181526020018280546110429061467f565b801561108f5780601f106110645761010080835404028352916020019161108f565b820191906000526020600020905b81548152906001019060200180831161107257829003601f168201915b505050505081526020016003820180546110a89061467f565b80601f01602080910402602001604051908101604052809291908181526020018280546110d49061467f565b80156111215780601f106110f657610100808354040283529160200191611121565b820191906000526020600020905b81548152906001019060200180831161110457829003601f168201915b5050505050815250508152505081526020019060010190610edc565b50505050905090565b806111508161155b565b61118f576040517f08c379a0000000000000000000000000000000000000000000000000000000008152600401611186906145c4565b60405180910390fd5b60006008600083815260200190815260200160002060000154036111e8576040517f08c379a00000000000000000000000000000000000000000000000000000000081526004016111df90614630565b60405180910390fd5b8160016111f533836104b6565b14611235576040517f08c379a000000000000000000000000000000000000000000000000000000000815260040161122c90614cc0565b60405180910390fd5b505050565b600161124633856104b6565b14611286576040517f08c379a000000000000000000000000000000000000000000000000000000000815260040161127d90614cc0565b60405180910390fd5b80518251146112ca576040517f08c379a00000000000000000000000000000000000000000000000000000000081526004016112c190614d52565b60405180910390fd5b600080600090505b82518160ff16101561131c57828160ff16815181106112f4576112f3614d72565b5b6020026020010151826113079190614dd0565b9150808061131490614e05565b9150506112d2565b5060648160ff1614611363576040517f08c379a000000000000000000000000000000000000000000000000000000000815260040161135a90614e7a565b60405180910390fd5b600061136f6005611b92565b905060005b84518160ff1610156113db576113c8858260ff168151811061139957611398614d72565b5b602002602001015183868460ff16815181106113b8576113b7614d72565b5b602002602001015160ff16611ba0565b80806113d390614e05565b915050611374565b506113e66005611a81565b8060096000878152602001908152602001600020819055507f5c874c1354792f06977014451e4027ebe8d3e323fecc234d41fe0f1cab13f68f858286866040516114339493929190615016565b60405180910390a15050505050565b60608151835114611488576040517f08c379a000000000000000000000000000000000000000000000000000000000815260040161147f906150db565b60405180910390fd5b6000835167ffffffffffffffff8111156114a5576114a4613662565b5b6040519080825280602002602001820160405280156114d35781602001602082028036833780820191505090505b50905060005b8451811015611550576115208582815181106114f8576114f7614d72565b5b602002602001015185838151811061151357611512614d72565b5b60200260200101516104b6565b82828151811061153357611532614d72565b5b60200260200101818152505080611549906150fb565b90506114d9565b508091505092915050565b60008061156783611778565b119050919050565b60096020528060005260406000206000915090505481565b61158f611bc0565b73ffffffffffffffffffffffffffffffffffffffff168373ffffffffffffffffffffffffffffffffffffffff1614806115d557506115d4836115cf611bc0565b61182c565b5b611614576040517f08c379a000000000000000000000000000000000000000000000000000000000815260040161160b90614c54565b60405180910390fd5b61161f838383611ee9565b505050565b61162c611b01565b61163660006121b7565b565b806116428161155b565b611681576040517f08c379a0000000000000000000000000000000000000000000000000000000008152600401611678906145c4565b60405180910390fd5b60006008600083815260200190815260200160002060000154036116da576040517f08c379a00000000000000000000000000000000000000000000000000000000081526004016116d190614630565b60405180910390fd5b8160016116e733836104b6565b14611727576040517f08c379a000000000000000000000000000000000000000000000000000000000815260040161171e90614cc0565b60405180910390fd5b611733338460016119e4565b505050565b6000600360009054906101000a900473ffffffffffffffffffffffffffffffffffffffff16905090565b61177461176d611bc0565b838361227d565b5050565b600060046000838152602001908152602001600020549050919050565b6060600760008373ffffffffffffffffffffffffffffffffffffffff1673ffffffffffffffffffffffffffffffffffffffff16815260200190815260200160002080548060200260200160405190810160405280929190818152602001828054801561182057602002820191906000526020600020905b81548152602001906001019080831161180c575b50505050509050919050565b6000600160008473ffffffffffffffffffffffffffffffffffffffff1673ffffffffffffffffffffffffffffffffffffffff16815260200190815260200160002060008373ffffffffffffffffffffffffffffffffffffffff1673ffffffffffffffffffffffffffffffffffffffff16815260200190815260200160002060009054906101000a900460ff16905092915050565b6118c8611bc0565b73ffffffffffffffffffffffffffffffffffffffff168573ffffffffffffffffffffffffffffffffffffffff16148061190e575061190d85611908611bc0565b61182c565b5b61194d576040517f08c379a000000000000000000000000000000000000000000000000000000000815260040161194490614c54565b60405180910390fd5b61195a85858585856123e9565b5050505050565b611969611b01565b600073ffffffffffffffffffffffffffffffffffffffff168173ffffffffffffffffffffffffffffffffffffffff16036119d8576040517f08c379a00000000000000000000000000000000000000000000000000000000081526004016119cf906151b5565b60405180910390fd5b6119e1816121b7565b50565b6119ec611bc0565b73ffffffffffffffffffffffffffffffffffffffff168373ffffffffffffffffffffffffffffffffffffffff161480611a325750611a3183611a2c611bc0565b61182c565b5b611a71576040517f08c379a0000000000000000000000000000000000000000000000000000000008152600401611a6890614c54565b60405180910390fd5b611a7c838383612684565b505050565b6001816000016000828254019250508190555050565b60007f01ffc9a7000000000000000000000000000000000000000000000000000000007bffffffffffffffffffffffffffffffffffffffffffffffffffffffff1916827bffffffffffffffffffffffffffffffffffffffffffffffffffffffff1916149050919050565b611b09611bc0565b73ffffffffffffffffffffffffffffffffffffffff16611b27611738565b73ffffffffffffffffffffffffffffffffffffffff1614611b7d576040517f08c379a0000000000000000000000000000000000000000000000000000000008152600401611b7490615221565b60405180910390fd5b565b8060029081611b8e9190614b10565b5050565b600081600001549050919050565b611bbb838383604051806020016040528060008152506128ca565b505050565b600033905090565b8151835114611c0c576040517f08c379a0000000000000000000000000000000000000000000000000000000008152600401611c03906152b3565b60405180910390fd5b600073ffffffffffffffffffffffffffffffffffffffff168473ffffffffffffffffffffffffffffffffffffffff1603611c7b576040517f08c379a0000000000000000000000000000000000000000000000000000000008152600401611c7290615345565b60405180910390fd5b6000611c85611bc0565b9050611c95818787878787612a7a565b60005b8451811015611e46576000858281518110611cb657611cb5614d72565b5b602002602001015190506000858381518110611cd557611cd4614d72565b5b60200260200101519050600080600084815260200190815260200160002060008b73ffffffffffffffffffffffffffffffffffffffff1673ffffffffffffffffffffffffffffffffffffffff16815260200190815260200160002054905081811015611d76576040517f08c379a0000000000000000000000000000000000000000000000000000000008152600401611d6d906153d7565b60405180910390fd5b81810360008085815260200190815260200160002060008c73ffffffffffffffffffffffffffffffffffffffff1673ffffffffffffffffffffffffffffffffffffffff168152602001908152602001600020819055508160008085815260200190815260200160002060008b73ffffffffffffffffffffffffffffffffffffffff1673ffffffffffffffffffffffffffffffffffffffff1681526020019081526020016000206000828254611e2b91906153f7565b9250508190555050505080611e3f906150fb565b9050611c98565b508473ffffffffffffffffffffffffffffffffffffffff168673ffffffffffffffffffffffffffffffffffffffff168273ffffffffffffffffffffffffffffffffffffffff167f4a39dc06d4c0dbc64b70af90fd698a233a518aa5d07e595d983b8c0526c8f7fb8787604051611ebd92919061542b565b60405180910390a4611ed3818787878787612dea565b611ee1818787878787612df2565b505050505050565b600073ffffffffffffffffffffffffffffffffffffffff168373ffffffffffffffffffffffffffffffffffffffff1603611f58576040517f08c379a0000000000000000000000000000000000000000000000000000000008152600401611f4f906154d4565b60405180910390fd5b8051825114611f9c576040517f08c379a0000000000000000000000000000000000000000000000000000000008152600401611f93906152b3565b60405180910390fd5b6000611fa6611bc0565b9050611fc681856000868660405180602001604052806000815250612a7a565b60005b8351811015612113576000848281518110611fe757611fe6614d72565b5b60200260200101519050600084838151811061200657612005614d72565b5b60200260200101519050600080600084815260200190815260200160002060008973ffffffffffffffffffffffffffffffffffffffff1673ffffffffffffffffffffffffffffffffffffffff168152602001908152602001600020549050818110156120a7576040517f08c379a000000000000000000000000000000000000000000000000000000000815260040161209e90615566565b60405180910390fd5b81810360008085815260200190815260200160002060008a73ffffffffffffffffffffffffffffffffffffffff1673ffffffffffffffffffffffffffffffffffffffff16815260200190815260200160002081905550505050808061210b906150fb565b915050611fc9565b50600073ffffffffffffffffffffffffffffffffffffffff168473ffffffffffffffffffffffffffffffffffffffff168273ffffffffffffffffffffffffffffffffffffffff167f4a39dc06d4c0dbc64b70af90fd698a233a518aa5d07e595d983b8c0526c8f7fb868660405161218b92919061542b565b60405180910390a46121b181856000868660405180602001604052806000815250612dea565b50505050565b6000600360009054906101000a900473ffffffffffffffffffffffffffffffffffffffff16905081600360006101000a81548173ffffffffffffffffffffffffffffffffffffffff021916908373ffffffffffffffffffffffffffffffffffffffff1602179055508173ffffffffffffffffffffffffffffffffffffffff168173ffffffffffffffffffffffffffffffffffffffff167f8be0079c531659141344cd1fd0a4f28419497f9722a3daafe3b4186f6b6457e060405160405180910390a35050565b8173ffffffffffffffffffffffffffffffffffffffff168373ffffffffffffffffffffffffffffffffffffffff16036122eb576040517f08c379a00000000000000000000000000000000000000000000000000000000081526004016122e2906155f8565b60405180910390fd5b80600160008573ffffffffffffffffffffffffffffffffffffffff1673ffffffffffffffffffffffffffffffffffffffff16815260200190815260200160002060008473ffffffffffffffffffffffffffffffffffffffff1673ffffffffffffffffffffffffffffffffffffffff16815260200190815260200160002060006101000a81548160ff0219169083151502179055508173ffffffffffffffffffffffffffffffffffffffff168373ffffffffffffffffffffffffffffffffffffffff167f17307eab39ab6107e8899845ad3d59bd9653f200f220920489ca2b5937696c31836040516123dc919061362c565b60405180910390a3505050565b600073ffffffffffffffffffffffffffffffffffffffff168473ffffffffffffffffffffffffffffffffffffffff1603612458576040517f08c379a000000000000000000000000000000000000000000000000000000000815260040161244f90615345565b60405180910390fd5b6000612462611bc0565b9050600061246f85612fc9565b9050600061247c85612fc9565b905061248c838989858589612a7a565b600080600088815260200190815260200160002060008a73ffffffffffffffffffffffffffffffffffffffff1673ffffffffffffffffffffffffffffffffffffffff16815260200190815260200160002054905085811015612523576040517f08c379a000000000000000000000000000000000000000000000000000000000815260040161251a906153d7565b60405180910390fd5b85810360008089815260200190815260200160002060008b73ffffffffffffffffffffffffffffffffffffffff1673ffffffffffffffffffffffffffffffffffffffff168152602001908152602001600020819055508560008089815260200190815260200160002060008a73ffffffffffffffffffffffffffffffffffffffff1673ffffffffffffffffffffffffffffffffffffffff16815260200190815260200160002060008282546125d891906153f7565b925050819055508773ffffffffffffffffffffffffffffffffffffffff168973ffffffffffffffffffffffffffffffffffffffff168573ffffffffffffffffffffffffffffffffffffffff167fc3d58168c5ae7397731d063d5bbf3d657854427343f4c083240f7aacaa2d0f628a8a604051612655929190615618565b60405180910390a461266b848a8a86868a612dea565b612679848a8a8a8a8a613043565b505050505050505050565b600073ffffffffffffffffffffffffffffffffffffffff168373ffffffffffffffffffffffffffffffffffffffff16036126f3576040517f08c379a00000000000000000000000000000000000000000000000000000000081526004016126ea906154d4565b60405180910390fd5b60006126fd611bc0565b9050600061270a84612fc9565b9050600061271784612fc9565b905061273783876000858560405180602001604052806000815250612a7a565b600080600087815260200190815260200160002060008873ffffffffffffffffffffffffffffffffffffffff1673ffffffffffffffffffffffffffffffffffffffff168152602001908152602001600020549050848110156127ce576040517f08c379a00000000000000000000000000000000000000000000000000000000081526004016127c590615566565b60405180910390fd5b84810360008088815260200190815260200160002060008973ffffffffffffffffffffffffffffffffffffffff1673ffffffffffffffffffffffffffffffffffffffff16815260200190815260200160002081905550600073ffffffffffffffffffffffffffffffffffffffff168773ffffffffffffffffffffffffffffffffffffffff168573ffffffffffffffffffffffffffffffffffffffff167fc3d58168c5ae7397731d063d5bbf3d657854427343f4c083240f7aacaa2d0f62898960405161289b929190615618565b60405180910390a46128c184886000868660405180602001604052806000815250612dea565b50505050505050565b600073ffffffffffffffffffffffffffffffffffffffff168473ffffffffffffffffffffffffffffffffffffffff1603612939576040517f08c379a0000000000000000000000000000000000000000000000000000000008152600401612930906156b3565b60405180910390fd5b6000612943611bc0565b9050600061295085612fc9565b9050600061295d85612fc9565b905061296e83600089858589612a7a565b8460008088815260200190815260200160002060008973ffffffffffffffffffffffffffffffffffffffff1673ffffffffffffffffffffffffffffffffffffffff16815260200190815260200160002060008282546129cd91906153f7565b925050819055508673ffffffffffffffffffffffffffffffffffffffff16600073ffffffffffffffffffffffffffffffffffffffff168473ffffffffffffffffffffffffffffffffffffffff167fc3d58168c5ae7397731d063d5bbf3d657854427343f4c083240f7aacaa2d0f628989604051612a4b929190615618565b60405180910390a4612a6283600089858589612dea565b612a7183600089898989613043565b50505050505050565b612a8886868686868661321a565b60005b8351811015612de157600073ffffffffffffffffffffffffffffffffffffffff168573ffffffffffffffffffffffffffffffffffffffff1614612b4957600760008673ffffffffffffffffffffffffffffffffffffffff1673ffffffffffffffffffffffffffffffffffffffff168152602001908152602001600020848281518110612b1a57612b19614d72565b5b602002602001015190806001815401808255809150506001900390600052602060002001600090919091909150555b600073ffffffffffffffffffffffffffffffffffffffff168673ffffffffffffffffffffffffffffffffffffffff1614612dce57828181518110612b9057612b8f614d72565b5b6020026020010151612bbc87868481518110612baf57612bae614d72565b5b60200260200101516104b6565b03612dcd5760005b8451811015612dcb57848281518110612be057612bdf614d72565b5b6020026020010151600760008973ffffffffffffffffffffffffffffffffffffffff1673ffffffffffffffffffffffffffffffffffffffff1681526020019081526020016000208281548110612c3957612c38614d72565b5b906000526020600020015403612db857600760008873ffffffffffffffffffffffffffffffffffffffff1673ffffffffffffffffffffffffffffffffffffffff1681526020019081526020016000206001600760008a73ffffffffffffffffffffffffffffffffffffffff1673ffffffffffffffffffffffffffffffffffffffff16815260200190815260200160002080549050612cd791906156d3565b81548110612ce857612ce7614d72565b5b9060005260206000200154600760008973ffffffffffffffffffffffffffffffffffffffff1673ffffffffffffffffffffffffffffffffffffffff1681526020019081526020016000208281548110612d4457612d43614d72565b5b9060005260206000200181905550600760008873ffffffffffffffffffffffffffffffffffffffff1673ffffffffffffffffffffffffffffffffffffffff168152602001908152602001600020805480612da157612da0615707565b5b600190038181906000526020600020016000905590555b8080612dc3906150fb565b915050612bc4565b505b5b8080612dd9906150fb565b915050612a8b565b50505050505050565b505050505050565b612e118473ffffffffffffffffffffffffffffffffffffffff166133ea565b15612fc1578373ffffffffffffffffffffffffffffffffffffffff1663bc197c8187878686866040518663ffffffff1660e01b8152600401612e5795949392919061578b565b6020604051808303816000875af1925050508015612e9357506040513d601f19601f82011682018060405250810190612e909190615808565b60015b612f3857612e9f615842565b806308c379a003612efb5750612eb3615864565b80612ebe5750612efd565b806040517f08c379a0000000000000000000000000000000000000000000000000000000008152600401612ef29190613a52565b60405180910390fd5b505b6040517f08c379a0000000000000000000000000000000000000000000000000000000008152600401612f2f90615966565b60405180910390fd5b63bc197c8160e01b7bffffffffffffffffffffffffffffffffffffffffffffffffffffffff1916817bffffffffffffffffffffffffffffffffffffffffffffffffffffffff191614612fbf576040517f08c379a0000000000000000000000000000000000000000000000000000000008152600401612fb6906159f8565b60405180910390fd5b505b505050505050565b60606000600167ffffffffffffffff811115612fe857612fe7613662565b5b6040519080825280602002602001820160405280156130165781602001602082028036833780820191505090505b509050828160008151811061302e5761302d614d72565b5b60200260200101818152505080915050919050565b6130628473ffffffffffffffffffffffffffffffffffffffff166133ea565b15613212578373ffffffffffffffffffffffffffffffffffffffff1663f23a6e6187878686866040518663ffffffff1660e01b81526004016130a8959493929190615a18565b6020604051808303816000875af19250505080156130e457506040513d601f19601f820116820180604052508101906130e19190615808565b60015b613189576130f0615842565b806308c379a00361314c5750613104615864565b8061310f575061314e565b806040517f08c379a00000000000000000000000000000000000000000000000000000000081526004016131439190613a52565b60405180910390fd5b505b6040517f08c379a000000000000000000000000000000000000000000000000000000000815260040161318090615966565b60405180910390fd5b63f23a6e6160e01b7bffffffffffffffffffffffffffffffffffffffffffffffffffffffff1916817bffffffffffffffffffffffffffffffffffffffffffffffffffffffff191614613210576040517f08c379a0000000000000000000000000000000000000000000000000000000008152600401613207906159f8565b60405180910390fd5b505b505050505050565b61322886868686868661340d565b600073ffffffffffffffffffffffffffffffffffffffff168573ffffffffffffffffffffffffffffffffffffffff16036132d95760005b83518110156132d75782818151811061327b5761327a614d72565b5b60200260200101516004600086848151811061329a57613299614d72565b5b6020026020010151815260200190815260200160002060008282546132bf91906153f7565b92505081905550806132d0906150fb565b905061325f565b505b600073ffffffffffffffffffffffffffffffffffffffff168473ffffffffffffffffffffffffffffffffffffffff16036133e25760005b83518110156133e057600084828151811061332e5761332d614d72565b5b60200260200101519050600084838151811061334d5761334c614d72565b5b60200260200101519050600060046000848152602001908152602001600020549050818110156133b2576040517f08c379a00000000000000000000000000000000000000000000000000000000081526004016133a990615ae4565b60405180910390fd5b8181036004600085815260200190815260200160002081905550505050806133d9906150fb565b9050613310565b505b505050505050565b6000808273ffffffffffffffffffffffffffffffffffffffff163b119050919050565b505050505050565b6040518060600160405280600081526020016000600181111561343b5761343a613812565b5b815260200161344861344e565b81525090565b604051806080016040528060608152602001600061ffff16815260200160608152602001606081525090565b6000604051905090565b600080fd5b600080fd5b600073ffffffffffffffffffffffffffffffffffffffff82169050919050565b60006134b98261348e565b9050919050565b6134c9816134ae565b81146134d457600080fd5b50565b6000813590506134e6816134c0565b92915050565b6000819050919050565b6134ff816134ec565b811461350a57600080fd5b50565b60008135905061351c816134f6565b92915050565b6000806040838503121561353957613538613484565b5b6000613547858286016134d7565b92505060206135588582860161350d565b9150509250929050565b61356b816134ec565b82525050565b60006020820190506135866000830184613562565b92915050565b60007fffffffff0000000000000000000000000000000000000000000000000000000082169050919050565b6135c18161358c565b81146135cc57600080fd5b50565b6000813590506135de816135b8565b92915050565b6000602082840312156135fa576135f9613484565b5b6000613608848285016135cf565b91505092915050565b60008115159050919050565b61362681613611565b82525050565b6000602082019050613641600083018461361d565b92915050565b600080fd5b600080fd5b6000601f19601f8301169050919050565b7f4e487b7100000000000000000000000000000000000000000000000000000000600052604160045260246000fd5b61369a82613651565b810181811067ffffffffffffffff821117156136b9576136b8613662565b5b80604052505050565b60006136cc61347a565b90506136d88282613691565b919050565b600067ffffffffffffffff8211156136f8576136f7613662565b5b61370182613651565b9050602081019050919050565b82818337600083830152505050565b600061373061372b846136dd565b6136c2565b90508281526020810184848401111561374c5761374b61364c565b5b61375784828561370e565b509392505050565b600082601f83011261377457613773613647565b5b813561378484826020860161371d565b91505092915050565b6000602082840312156137a3576137a2613484565b5b600082013567ffffffffffffffff8111156137c1576137c0613489565b5b6137cd8482850161375f565b91505092915050565b6000602082840312156137ec576137eb613484565b5b60006137fa8482850161350d565b91505092915050565b61380c816134ec565b82525050565b7f4e487b7100000000000000000000000000000000000000000000000000000000600052602160045260246000fd5b6002811061385257613851613812565b5b50565b600081905061386382613841565b919050565b600061387382613855565b9050919050565b61388381613868565b82525050565b600081519050919050565b600082825260208201905092915050565b60005b838110156138c35780820151818401526020810190506138a8565b60008484015250505050565b60006138da82613889565b6138e48185613894565b93506138f48185602086016138a5565b6138fd81613651565b840191505092915050565b600061ffff82169050919050565b61391f81613908565b82525050565b6000608083016000830151848203600086015261394282826138cf565b91505060208301516139576020860182613916565b506040830151848203604086015261396f82826138cf565b9150506060830151848203606086015261398982826138cf565b9150508091505092915050565b60006060830160008301516139ae6000860182613803565b5060208301516139c1602086018261387a565b50604083015184820360408601526139d98282613925565b9150508091505092915050565b60006020820190508181036000830152613a008184613996565b905092915050565b600082825260208201905092915050565b6000613a2482613889565b613a2e8185613a08565b9350613a3e8185602086016138a5565b613a4781613651565b840191505092915050565b60006020820190508181036000830152613a6c8184613a19565b905092915050565b600060ff82169050919050565b613a8a81613a74565b8114613a9557600080fd5b50565b600081359050613aa781613a81565b92915050565b613ab681613908565b8114613ac157600080fd5b50565b600081359050613ad381613aad565b92915050565b600080600080600060a08688031215613af557613af4613484565b5b6000613b0388828901613a98565b955050602086013567ffffffffffffffff811115613b2457613b23613489565b5b613b308882890161375f565b9450506040613b4188828901613ac4565b935050606086013567ffffffffffffffff811115613b6257613b61613489565b5b613b6e8882890161375f565b925050608086013567ffffffffffffffff811115613b8f57613b8e613489565b5b613b9b8882890161375f565b9150509295509295909350565b600067ffffffffffffffff821115613bc357613bc2613662565b5b602082029050602081019050919050565b600080fd5b6000613bec613be784613ba8565b6136c2565b90508083825260208201905060208402830185811115613c0f57613c0e613bd4565b5b835b81811015613c385780613c24888261350d565b845260208401935050602081019050613c11565b5050509392505050565b600082601f830112613c5757613c56613647565b5b8135613c67848260208601613bd9565b91505092915050565b600067ffffffffffffffff821115613c8b57613c8a613662565b5b613c9482613651565b9050602081019050919050565b6000613cb4613caf84613c70565b6136c2565b905082815260208101848484011115613cd057613ccf61364c565b5b613cdb84828561370e565b509392505050565b600082601f830112613cf857613cf7613647565b5b8135613d08848260208601613ca1565b91505092915050565b600080600080600060a08688031215613d2d57613d2c613484565b5b6000613d3b888289016134d7565b9550506020613d4c888289016134d7565b945050604086013567ffffffffffffffff811115613d6d57613d6c613489565b5b613d7988828901613c42565b935050606086013567ffffffffffffffff811115613d9a57613d99613489565b5b613da688828901613c42565b925050608086013567ffffffffffffffff811115613dc757613dc6613489565b5b613dd388828901613ce3565b9150509295509295909350565b600081519050919050565b600082825260208201905092915050565b6000819050602082019050919050565b6000606083016000830151613e246000860182613803565b506020830151613e37602086018261387a565b5060408301518482036040860152613e4f8282613925565b9150508091505092915050565b6000613e688383613e0c565b905092915050565b6000602082019050919050565b6000613e8882613de0565b613e928185613deb565b935083602082028501613ea485613dfc565b8060005b85811015613ee05784840389528151613ec18582613e5c565b9450613ecc83613e70565b925060208a01995050600181019050613ea8565b50829750879550505050505092915050565b60006020820190508181036000830152613f0c8184613e7d565b905092915050565b600067ffffffffffffffff821115613f2f57613f2e613662565b5b602082029050602081019050919050565b6000613f53613f4e84613f14565b6136c2565b90508083825260208201905060208402830185811115613f7657613f75613bd4565b5b835b81811015613f9f5780613f8b88826134d7565b845260208401935050602081019050613f78565b5050509392505050565b600082601f830112613fbe57613fbd613647565b5b8135613fce848260208601613f40565b91505092915050565b600067ffffffffffffffff821115613ff257613ff1613662565b5b602082029050602081019050919050565b600061401661401184613fd7565b6136c2565b9050808382526020820190506020840283018581111561403957614038613bd4565b5b835b81811015614062578061404e8882613a98565b84526020840193505060208101905061403b565b5050509392505050565b600082601f83011261408157614080613647565b5b8135614091848260208601614003565b91505092915050565b6000806000606084860312156140b3576140b2613484565b5b60006140c18682870161350d565b935050602084013567ffffffffffffffff8111156140e2576140e1613489565b5b6140ee86828701613fa9565b925050604084013567ffffffffffffffff81111561410f5761410e613489565b5b61411b8682870161406c565b9150509250925092565b6000806040838503121561413c5761413b613484565b5b600083013567ffffffffffffffff81111561415a57614159613489565b5b61416685828601613fa9565b925050602083013567ffffffffffffffff81111561418757614186613489565b5b61419385828601613c42565b9150509250929050565b600081519050919050565b600082825260208201905092915050565b6000819050602082019050919050565b60006141d58383613803565b60208301905092915050565b6000602082019050919050565b60006141f98261419d565b61420381856141a8565b935061420e836141b9565b8060005b8381101561423f57815161422688826141c9565b9750614231836141e1565b925050600181019050614212565b5085935050505092915050565b6000602082019050818103600083015261426681846141ee565b905092915050565b60008060006060848603121561428757614286613484565b5b6000614295868287016134d7565b935050602084013567ffffffffffffffff8111156142b6576142b5613489565b5b6142c286828701613c42565b925050604084013567ffffffffffffffff8111156142e3576142e2613489565b5b6142ef86828701613c42565b9150509250925092565b614302816134ae565b82525050565b600060208201905061431d60008301846142f9565b92915050565b61432c81613611565b811461433757600080fd5b50565b60008135905061434981614323565b92915050565b6000806040838503121561436657614365613484565b5b6000614374858286016134d7565b92505060206143858582860161433a565b9150509250929050565b6000602082840312156143a5576143a4613484565b5b60006143b3848285016134d7565b91505092915050565b600080604083850312156143d3576143d2613484565b5b60006143e1858286016134d7565b92505060206143f2858286016134d7565b9150509250929050565b600080600080600060a0868803121561441857614417613484565b5b6000614426888289016134d7565b9550506020614437888289016134d7565b94505060406144488882890161350d565b93505060606144598882890161350d565b925050608086013567ffffffffffffffff81111561447a57614479613489565b5b61448688828901613ce3565b9150509295509295909350565b6000806000606084860312156144ac576144ab613484565b5b60006144ba868287016134d7565b93505060206144cb8682870161350d565b92505060406144dc8682870161350d565b9150509250925092565b7f455243313135353a2061646472657373207a65726f206973206e6f742061207660008201527f616c6964206f776e657200000000000000000000000000000000000000000000602082015250565b6000614542602a83613a08565b915061454d826144e6565b604082019050919050565b6000602082019050818103600083015261457181614535565b9050919050565b7f546f6b656e20646f6573206e6f74206578697374210000000000000000000000600082015250565b60006145ae601583613a08565b91506145b982614578565b602082019050919050565b600060208201905081810360008301526145dd816145a1565b9050919050565b7f546f6b656e206973206e6f7420616e2041737365742100000000000000000000600082015250565b600061461a601683613a08565b9150614625826145e4565b602082019050919050565b600060208201905081810360008301526146498161460d565b9050919050565b7f4e487b7100000000000000000000000000000000000000000000000000000000600052602260045260246000fd5b6000600282049050600182168061469757607f821691505b6020821081036146aa576146a9614650565b5b50919050565b7f496e76616c69642061737365742063617465676f727921000000000000000000600082015250565b60006146e6601783613a08565b91506146f1826146b0565b602082019050919050565b60006020820190508181036000830152614715816146d9565b9050919050565b7f537472656574206e616d652073686f756c64206265206174206c65617374203360008201527f2063686172616374657273206c6f6e6721000000000000000000000000000000602082015250565b6000614778603183613a08565b91506147838261471c565b604082019050919050565b600060208201905081810360008301526147a78161476b565b9050919050565b7f537472656574206e756d6265722073686f756c64206265206174206c6561737460008201527f2031210000000000000000000000000000000000000000000000000000000000602082015250565b600061480a602383613a08565b9150614815826147ae565b604082019050919050565b60006020820190508181036000830152614839816147fd565b9050919050565b7f43697479206e616d652073686f756c64206265206174206c656173742031206360008201527f6861726163746572206c6f6e6721000000000000000000000000000000000000602082015250565b600061489c602e83613a08565b91506148a782614840565b604082019050919050565b600060208201905081810360008301526148cb8161488f565b9050919050565b7f436f756e747279206e616d652073686f756c64206265206174206c656173742060008201527f342063686172616374657273206c6f6e67210000000000000000000000000000602082015250565b600061492e603283613a08565b9150614939826148d2565b604082019050919050565b6000602082019050818103600083015261495d81614921565b9050919050565b60008190508160005260206000209050919050565b60006020601f8301049050919050565b600082821b905092915050565b6000600883026149c67fffffffffffffffffffffffffffffffffffffffffffffffffffffffffffffffff82614989565b6149d08683614989565b95508019841693508086168417925050509392505050565b6000819050919050565b6000614a0d614a08614a03846134ec565b6149e8565b6134ec565b9050919050565b6000819050919050565b614a27836149f2565b614a3b614a3382614a14565b848454614996565b825550505050565b600090565b614a50614a43565b614a5b818484614a1e565b505050565b5b81811015614a7f57614a74600082614a48565b600181019050614a61565b5050565b601f821115614ac457614a9581614964565b614a9e84614979565b81016020851015614aad578190505b614ac1614ab985614979565b830182614a60565b50505b505050565b600082821c905092915050565b6000614ae760001984600802614ac9565b1980831691505092915050565b6000614b008383614ad6565b9150826002028217905092915050565b614b1982613889565b67ffffffffffffffff811115614b3257614b31613662565b5b614b3c825461467f565b614b47828285614a83565b600060209050601f831160018114614b7a5760008415614b68578287015190505b614b728582614af4565b865550614bda565b601f198416614b8886614964565b60005b82811015614bb057848901518255600182019150602085019450602081019050614b8b565b86831015614bcd5784890151614bc9601f891682614ad6565b8355505b6001600288020188555050505b505050505050565b7f455243313135353a2063616c6c6572206973206e6f7420746f6b656e206f776e60008201527f6572206f7220617070726f766564000000000000000000000000000000000000602082015250565b6000614c3e602e83613a08565b9150614c4982614be2565b604082019050919050565b60006020820190508181036000830152614c6d81614c31565b9050919050565b7f43616c6c657220646f6573206e6f74206f776e20417373657421000000000000600082015250565b6000614caa601a83613a08565b9150614cb582614c74565b602082019050919050565b60006020820190508181036000830152614cd981614c9d565b9050919050565b7f4561636820686f6c646572206e6565647320616e20616d6f756e74206f66207360008201527f6861726573207370656369666965642100000000000000000000000000000000602082015250565b6000614d3c603083613a08565b9150614d4782614ce0565b604082019050919050565b60006020820190508181036000830152614d6b81614d2f565b9050919050565b7f4e487b7100000000000000000000000000000000000000000000000000000000600052603260045260246000fd5b7f4e487b7100000000000000000000000000000000000000000000000000000000600052601160045260246000fd5b6000614ddb82613a74565b9150614de683613a74565b9250828201905060ff811115614dff57614dfe614da1565b5b92915050565b6000614e1082613a74565b915060ff8203614e2357614e22614da1565b5b600182019050919050565b7f53756d206f66207368617265732073686f756c6420657175616c203130302100600082015250565b6000614e64601f83613a08565b9150614e6f82614e2e565b602082019050919050565b60006020820190508181036000830152614e9381614e57565b9050919050565b600081519050919050565b600082825260208201905092915050565b6000819050602082019050919050565b614ecf816134ae565b82525050565b6000614ee18383614ec6565b60208301905092915050565b6000602082019050919050565b6000614f0582614e9a565b614f0f8185614ea5565b9350614f1a83614eb6565b8060005b83811015614f4b578151614f328882614ed5565b9750614f3d83614eed565b925050600181019050614f1e565b5085935050505092915050565b600081519050919050565b600082825260208201905092915050565b6000819050602082019050919050565b614f8d81613a74565b82525050565b6000614f9f8383614f84565b60208301905092915050565b6000602082019050919050565b6000614fc382614f58565b614fcd8185614f63565b9350614fd883614f74565b8060005b83811015615009578151614ff08882614f93565b9750614ffb83614fab565b925050600181019050614fdc565b5085935050505092915050565b600060808201905061502b6000830187613562565b6150386020830186613562565b818103604083015261504a8185614efa565b9050818103606083015261505e8184614fb8565b905095945050505050565b7f455243313135353a206163636f756e747320616e6420696473206c656e67746860008201527f206d69736d617463680000000000000000000000000000000000000000000000602082015250565b60006150c5602983613a08565b91506150d082615069565b604082019050919050565b600060208201905081810360008301526150f4816150b8565b9050919050565b6000615106826134ec565b91507fffffffffffffffffffffffffffffffffffffffffffffffffffffffffffffffff820361513857615137614da1565b5b600182019050919050565b7f4f776e61626c653a206e6577206f776e657220697320746865207a65726f206160008201527f6464726573730000000000000000000000000000000000000000000000000000602082015250565b600061519f602683613a08565b91506151aa82615143565b604082019050919050565b600060208201905081810360008301526151ce81615192565b9050919050565b7f4f776e61626c653a2063616c6c6572206973206e6f7420746865206f776e6572600082015250565b600061520b602083613a08565b9150615216826151d5565b602082019050919050565b6000602082019050818103600083015261523a816151fe565b9050919050565b7f455243313135353a2069647320616e6420616d6f756e7473206c656e6774682060008201527f6d69736d61746368000000000000000000000000000000000000000000000000602082015250565b600061529d602883613a08565b91506152a882615241565b604082019050919050565b600060208201905081810360008301526152cc81615290565b9050919050565b7f455243313135353a207472616e7366657220746f20746865207a65726f20616460008201527f6472657373000000000000000000000000000000000000000000000000000000602082015250565b600061532f602583613a08565b915061533a826152d3565b604082019050919050565b6000602082019050818103600083015261535e81615322565b9050919050565b7f455243313135353a20696e73756666696369656e742062616c616e636520666f60008201527f72207472616e7366657200000000000000000000000000000000000000000000602082015250565b60006153c1602a83613a08565b91506153cc82615365565b604082019050919050565b600060208201905081810360008301526153f0816153b4565b9050919050565b6000615402826134ec565b915061540d836134ec565b925082820190508082111561542557615424614da1565b5b92915050565b6000604082019050818103600083015261544581856141ee565b9050818103602083015261545981846141ee565b90509392505050565b7f455243313135353a206275726e2066726f6d20746865207a65726f206164647260008201527f6573730000000000000000000000000000000000000000000000000000000000602082015250565b60006154be602383613a08565b91506154c982615462565b604082019050919050565b600060208201905081810360008301526154ed816154b1565b9050919050565b7f455243313135353a206275726e20616d6f756e7420657863656564732062616c60008201527f616e636500000000000000000000000000000000000000000000000000000000602082015250565b6000615550602483613a08565b915061555b826154f4565b604082019050919050565b6000602082019050818103600083015261557f81615543565b9050919050565b7f455243313135353a2073657474696e6720617070726f76616c2073746174757360008201527f20666f722073656c660000000000000000000000000000000000000000000000602082015250565b60006155e2602983613a08565b91506155ed82615586565b604082019050919050565b60006020820190508181036000830152615611816155d5565b9050919050565b600060408201905061562d6000830185613562565b61563a6020830184613562565b9392505050565b7f455243313135353a206d696e7420746f20746865207a65726f2061646472657360008201527f7300000000000000000000000000000000000000000000000000000000000000602082015250565b600061569d602183613a08565b91506156a882615641565b604082019050919050565b600060208201905081810360008301526156cc81615690565b9050919050565b60006156de826134ec565b91506156e9836134ec565b925082820390508181111561570157615700614da1565b5b92915050565b7f4e487b7100000000000000000000000000000000000000000000000000000000600052603160045260246000fd5b600081519050919050565b600082825260208201905092915050565b600061575d82615736565b6157678185615741565b93506157778185602086016138a5565b61578081613651565b840191505092915050565b600060a0820190506157a060008301886142f9565b6157ad60208301876142f9565b81810360408301526157bf81866141ee565b905081810360608301526157d381856141ee565b905081810360808301526157e78184615752565b90509695505050505050565b600081519050615802816135b8565b92915050565b60006020828403121561581e5761581d613484565b5b600061582c848285016157f3565b91505092915050565b60008160e01c9050919050565b600060033d11156158615760046000803e61585e600051615835565b90505b90565b600060443d106158f15761587661347a565b60043d036004823e80513d602482011167ffffffffffffffff8211171561589e5750506158f1565b808201805167ffffffffffffffff8111156158bc57505050506158f1565b80602083010160043d0385018111156158d95750505050506158f1565b6158e882602001850186613691565b82955050505050505b90565b7f455243313135353a207472616e7366657220746f206e6f6e2d4552433131353560008201527f526563656976657220696d706c656d656e746572000000000000000000000000602082015250565b6000615950603483613a08565b915061595b826158f4565b604082019050919050565b6000602082019050818103600083015261597f81615943565b9050919050565b7f455243313135353a204552433131353552656365697665722072656a6563746560008201527f6420746f6b656e73000000000000000000000000000000000000000000000000602082015250565b60006159e2602883613a08565b91506159ed82615986565b604082019050919050565b60006020820190508181036000830152615a11816159d5565b9050919050565b600060a082019050615a2d60008301886142f9565b615a3a60208301876142f9565b615a476040830186613562565b615a546060830185613562565b8181036080830152615a668184615752565b90509695505050505050565b7f455243313135353a206275726e20616d6f756e74206578636565647320746f7460008201527f616c537570706c79000000000000000000000000000000000000000000000000602082015250565b6000615ace602883613a08565b9150615ad982615a72565b604082019050919050565b60006020820190508181036000830152615afd81615ac1565b905091905056fea2646970667358221220fd6ea62bc71c83af2a16cf7a8af3b85372fd5a79ba0f21ab6d80e5f0d2d4233864736f6c6343000811003368747470733a2f2f626c6f636b6573746174652e616c65786f6368732e64652f6170692f6d657461646174612f",
  "linkReferences": {},
  "deployedLinkReferences": {}
}