{
  "_format": "hh-sol-artifact-1",
  "contractName": "BlockEstateRentals",
  "sourceName": "contracts/BlockEstate/BlockEstateRentals.sol",
  "abi": [
    {
      "inputs": [
        {
          "internalType": "address",
          "name": "_assetsAddress",
          "type": "address"
        },
        {
          "internalType": "address",
          "name": "_sharesAddress",
          "type": "address"
        },
        {
          "internalType": "address",
          "name": "_usdAddress",
          "type": "address"
        }
      ],
      "stateMutability": "nonpayable",
      "type": "constructor"
    },
    {
      "anonymous": false,
      "inputs": [
        {
          "indexed": false,
          "internalType": "uint256",
          "name": "rentalId",
          "type": "uint256"
        }
      ],
      "name": "FixedRentalApproved",
      "type": "event"
    },
    {
      "anonymous": false,
      "inputs": [
        {
          "indexed": false,
          "internalType": "uint256",
          "name": "rentalId",
          "type": "uint256"
        },
        {
          "indexed": false,
          "internalType": "uint256",
          "name": "tokenId",
          "type": "uint256"
        },
        {
          "indexed": false,
          "internalType": "address",
          "name": "renter",
          "type": "address"
        },
        {
          "indexed": false,
          "internalType": "uint256",
          "name": "start",
          "type": "uint256"
        },
        {
          "indexed": false,
          "internalType": "uint256",
          "name": "end",
          "type": "uint256"
        },
        {
          "indexed": false,
          "internalType": "uint256",
          "name": "price",
          "type": "uint256"
        }
      ],
      "name": "FixedRentalCreated",
      "type": "event"
    },
    {
      "anonymous": false,
      "inputs": [
        {
          "indexed": false,
          "internalType": "uint256",
          "name": "rentalId",
          "type": "uint256"
        },
        {
          "indexed": false,
          "internalType": "address",
          "name": "approver",
          "type": "address"
        },
        {
          "indexed": false,
          "internalType": "uint256",
          "name": "votes",
          "type": "uint256"
        }
      ],
      "name": "FixedRentalVoted",
      "type": "event"
    },
    {
      "anonymous": false,
      "inputs": [
        {
          "indexed": true,
          "internalType": "address",
          "name": "previousOwner",
          "type": "address"
        },
        {
          "indexed": true,
          "internalType": "address",
          "name": "newOwner",
          "type": "address"
        }
      ],
      "name": "OwnershipTransferred",
      "type": "event"
    },
    {
      "anonymous": false,
      "inputs": [
        {
          "indexed": false,
          "internalType": "address",
          "name": "account",
          "type": "address"
        }
      ],
      "name": "Paused",
      "type": "event"
    },
    {
      "anonymous": false,
      "inputs": [
        {
          "indexed": false,
          "internalType": "address",
          "name": "account",
          "type": "address"
        }
      ],
      "name": "Unpaused",
      "type": "event"
    },
    {
      "inputs": [
        {
          "internalType": "uint256",
          "name": "rentalId",
          "type": "uint256"
        }
      ],
      "name": "approveFixedRental",
      "outputs": [],
      "stateMutability": "nonpayable",
      "type": "function"
    },
    {
      "inputs": [
        {
          "internalType": "uint256",
          "name": "",
          "type": "uint256"
        }
      ],
      "name": "approvedFixedRentals",
      "outputs": [
        {
          "internalType": "bool",
          "name": "",
          "type": "bool"
        }
      ],
      "stateMutability": "view",
      "type": "function"
    },
    {
      "inputs": [
        {
          "internalType": "uint256",
          "name": "tokenId",
          "type": "uint256"
        },
        {
          "internalType": "uint256",
          "name": "start",
          "type": "uint256"
        },
        {
          "internalType": "uint8",
          "name": "daysAmount",
          "type": "uint8"
        }
      ],
      "name": "createFixedRental",
      "outputs": [],
      "stateMutability": "nonpayable",
      "type": "function"
    },
    {
      "inputs": [
        {
          "internalType": "uint256",
          "name": "",
          "type": "uint256"
        }
      ],
      "name": "fixedRentals",
      "outputs": [
        {
          "internalType": "uint256",
          "name": "rentalId",
          "type": "uint256"
        },
        {
          "internalType": "uint256",
          "name": "tokenId",
          "type": "uint256"
        },
        {
          "internalType": "address",
          "name": "renter",
          "type": "address"
        },
        {
          "internalType": "uint256",
          "name": "start",
          "type": "uint256"
        },
        {
          "internalType": "uint256",
          "name": "end",
          "type": "uint256"
        },
        {
          "internalType": "uint256",
          "name": "price",
          "type": "uint256"
        },
        {
          "internalType": "uint256",
          "name": "votes",
          "type": "uint256"
        },
        {
          "internalType": "bool",
          "name": "isApproved",
          "type": "bool"
        }
      ],
      "stateMutability": "view",
      "type": "function"
    },
    {
      "inputs": [
        {
          "internalType": "uint256",
          "name": "",
          "type": "uint256"
        }
      ],
      "name": "isRentable",
      "outputs": [
        {
          "internalType": "bool",
          "name": "",
          "type": "bool"
        }
      ],
      "stateMutability": "view",
      "type": "function"
    },
    {
      "inputs": [],
      "name": "owner",
      "outputs": [
        {
          "internalType": "address",
          "name": "",
          "type": "address"
        }
      ],
      "stateMutability": "view",
      "type": "function"
    },
    {
      "inputs": [],
      "name": "pause",
      "outputs": [],
      "stateMutability": "nonpayable",
      "type": "function"
    },
    {
      "inputs": [],
      "name": "paused",
      "outputs": [
        {
          "internalType": "bool",
          "name": "",
          "type": "bool"
        }
      ],
      "stateMutability": "view",
      "type": "function"
    },
    {
      "inputs": [
        {
          "internalType": "uint256",
          "name": "",
          "type": "uint256"
        }
      ],
      "name": "pricePerDay",
      "outputs": [
        {
          "internalType": "uint256",
          "name": "",
          "type": "uint256"
        }
      ],
      "stateMutability": "view",
      "type": "function"
    },
    {
      "inputs": [],
      "name": "readFixedRentalsByAccount",
      "outputs": [
        {
          "components": [
            {
              "internalType": "uint256",
              "name": "rentalId",
              "type": "uint256"
            },
            {
              "internalType": "uint256",
              "name": "tokenId",
              "type": "uint256"
            },
            {
              "internalType": "address",
              "name": "renter",
              "type": "address"
            },
            {
              "internalType": "uint256",
              "name": "start",
              "type": "uint256"
            },
            {
              "internalType": "uint256",
              "name": "end",
              "type": "uint256"
            },
            {
              "internalType": "uint256",
              "name": "price",
              "type": "uint256"
            },
            {
              "internalType": "uint256",
              "name": "votes",
              "type": "uint256"
            },
            {
              "internalType": "address[]",
              "name": "approved",
              "type": "address[]"
            },
            {
              "internalType": "bool",
              "name": "isApproved",
              "type": "bool"
            }
          ],
          "internalType": "struct BlockEstateRentals.FixedRental[]",
          "name": "",
          "type": "tuple[]"
        }
      ],
      "stateMutability": "view",
      "type": "function"
    },
    {
      "inputs": [
        {
          "internalType": "uint256",
          "name": "tokenId",
          "type": "uint256"
        }
      ],
      "name": "readFixedRentalsByToken",
      "outputs": [
        {
          "components": [
            {
              "internalType": "uint256",
              "name": "rentalId",
              "type": "uint256"
            },
            {
              "internalType": "uint256",
              "name": "tokenId",
              "type": "uint256"
            },
            {
              "internalType": "address",
              "name": "renter",
              "type": "address"
            },
            {
              "internalType": "uint256",
              "name": "start",
              "type": "uint256"
            },
            {
              "internalType": "uint256",
              "name": "end",
              "type": "uint256"
            },
            {
              "internalType": "uint256",
              "name": "price",
              "type": "uint256"
            },
            {
              "internalType": "uint256",
              "name": "votes",
              "type": "uint256"
            },
            {
              "internalType": "address[]",
              "name": "approved",
              "type": "address[]"
            },
            {
              "internalType": "bool",
              "name": "isApproved",
              "type": "bool"
            }
          ],
          "internalType": "struct BlockEstateRentals.FixedRental[]",
          "name": "",
          "type": "tuple[]"
        }
      ],
      "stateMutability": "view",
      "type": "function"
    },
    {
      "inputs": [],
      "name": "renounceOwnership",
      "outputs": [],
      "stateMutability": "nonpayable",
      "type": "function"
    },
    {
      "inputs": [
        {
          "internalType": "address",
          "name": "_assetsAddress",
          "type": "address"
        }
      ],
      "name": "setAssetsAddress",
      "outputs": [],
      "stateMutability": "nonpayable",
      "type": "function"
    },
    {
      "inputs": [
        {
          "internalType": "uint256",
          "name": "tokenId",
          "type": "uint256"
        },
        {
          "internalType": "bool",
          "name": "rentable",
          "type": "bool"
        },
        {
          "internalType": "uint256",
          "name": "_pricePerDay",
          "type": "uint256"
        }
      ],
      "name": "setRentable",
      "outputs": [],
      "stateMutability": "nonpayable",
      "type": "function"
    },
    {
      "inputs": [
        {
          "internalType": "address",
          "name": "_sharesAddress",
          "type": "address"
        }
      ],
      "name": "setSharesAddress",
      "outputs": [],
      "stateMutability": "nonpayable",
      "type": "function"
    },
    {
      "inputs": [
        {
          "internalType": "address",
          "name": "newOwner",
          "type": "address"
        }
      ],
      "name": "transferOwnership",
      "outputs": [],
      "stateMutability": "nonpayable",
      "type": "function"
    },
    {
      "inputs": [],
      "name": "unpause",
      "outputs": [],
      "stateMutability": "nonpayable",
      "type": "function"
    }
  ],
  "bytecode": "0x60806040523480156200001157600080fd5b5060405162001c9f38038062001c9f833981016040819052620000349162000100565b6200003f3362000093565b6000805460ff60a01b1916905560018055600780546001600160a01b039485166001600160a01b0319918216179091556008805493851693821693909317909255600980549190931691161790556200014a565b600080546001600160a01b038381166001600160a01b0319831681178455604051919092169283917f8be0079c531659141344cd1fd0a4f28419497f9722a3daafe3b4186f6b6457e09190a35050565b80516001600160a01b0381168114620000fb57600080fd5b919050565b6000806000606084860312156200011657600080fd5b6200012184620000e3565b92506200013160208501620000e3565b91506200014160408501620000e3565b90509250925092565b611b45806200015a6000396000f3fe608060405234801561001057600080fd5b506004361061010b5760003560e01c80636bbab268116100a257806384783a141161007157806384783a14146102ad5780638da5cb5b146102c057806395113e81146102db578063c392598d146102ee578063f2fde38b1461031157600080fd5b80636bbab2681461025c578063715018a61461028a5780637b3dae9b146102925780638456cb59146102a557600080fd5b80635a534dd2116100de5780635a534dd2146101ef5780635c975abb1461022257806365b1a563146102345780636aadeefc1461024757600080fd5b80631490a174146101105780632fd14789146101255780633f4ba83a146101d4578063420b3240146101dc575b600080fd5b61012361011e366004611752565b610324565b005b610184610133366004611776565b600560208190526000918252604090912080546001820154600283015460038401546004850154958501546006860154600890960154949693956001600160a01b0390931694919392909160ff1688565b6040805198895260208901979097526001600160a01b03909516958701959095526060860192909252608085015260a084015260c0830191909152151560e0820152610100015b60405180910390f35b61012361034e565b6101236101ea366004611752565b610360565b6102126101fd366004611776565b60066020526000908152604090205460ff1681565b60405190151581526020016101cb565b600054600160a01b900460ff16610212565b61012361024236600461179d565b61038a565b61024f6104de565b6040516101cb9190611819565b61027c61026a366004611776565b60046020526000908152604090205481565b6040519081526020016101cb565b6101236106d4565b6101236102a03660046118f1565b6106e6565b610123610a80565b61024f6102bb366004611776565b610a90565b6000546040516001600160a01b0390911681526020016101cb565b6101236102e9366004611776565b610c73565b6102126102fc366004611776565b60036020526000908152604090205460ff1681565b61012361031f366004611752565b611473565b61032c6114ec565b600780546001600160a01b0319166001600160a01b0392909216919091179055565b6103566114ec565b61035e611546565b565b6103686114ec565b600880546001600160a01b0319166001600160a01b0392909216919091179055565b600754604051634f558e7960e01b8152600481018590526001600160a01b0390911690634f558e7990602401602060405180830381865afa1580156103d3573d6000803e3d6000fd5b505050506040513d601f19601f820116820180604052508101906103f79190611930565b61043f5760405162461bcd60e51b8152602060048201526014602482015273105cdcd95d08191bd95cc81b9bdd08195e1a5cdd60621b60448201526064015b60405180910390fd5b8115156000036104635750506000908152600360205260409020805460ff19169055565b600081116104b35760405162461bcd60e51b815260206004820152601860248201527f5072696365206d757374206265206174206c65617374203100000000000000006044820152606401610436565b6000928352600360209081526040808520805460ff1916600117905560049091529092209190915550565b60606000805b60025481101561053157600081815260056020526040902060020154336001600160a01b039091160361051f578161051b81611963565b9250505b8061052981611963565b9150506104e4565b506000808267ffffffffffffffff81111561054e5761054e61197c565b60405190808252806020026020018201604052801561058757816020015b6105746116e6565b81526020019060019003908161056c5790505b50905060005b6002548110156106cc57600081815260056020526040902060020154336001600160a01b03909116036106ba576000818152600560208181526040928390208351610120810185528154815260018201548184015260028201546001600160a01b03168186015260038201546060820152600482015460808201529281015460a0840152600681015460c08401526007810180548551818502810185019096528086529394919360e086019383018282801561067257602002820191906000526020600020905b81546001600160a01b03168152600190910190602001808311610654575b50505091835250506008919091015460ff16151560209091015282518390859081106106a0576106a0611992565b602002602001018190525082806106b690611963565b9350505b806106c481611963565b91505061058d565b509392505050565b6106dc6114ec565b61035e600061159b565b600754604051634f558e7960e01b8152600481018590526001600160a01b0390911690634f558e7990602401602060405180830381865afa15801561072f573d6000803e3d6000fd5b505050506040513d601f19601f820116820180604052508101906107539190611930565b6107965760405162461bcd60e51b8152602060048201526014602482015273105cdcd95d08191bd95cc81b9bdd08195e1a5cdd60621b6044820152606401610436565b60008381526003602052604090205460ff166107ec5760405162461bcd60e51b8152602060048201526015602482015274105cdcd95d081a5cc81b9bdd08199bdc881c995b9d605a1b6044820152606401610436565b4282101561083c5760405162461bcd60e51b815260206004820152601e60248201527f5374617274206d757374206265206e6f77206f7220696e2066757475726500006044820152606401610436565b60008160ff161161088f5760405162461bcd60e51b815260206004820152601760248201527f44617973206d757374206265206174206c6561737420310000000000000000006044820152606401610436565b600061089a60025490565b90506108aa600280546001019055565b60006108bc60ff8416620151806119a8565b6108cb9062ffffff16856119cf565b905060005b600254811015610989576000818152600560205260409020600101548614801561091a57506000818152600560205260409020600381015460049091015461091a919087856115eb565b156109775760008181526005602052604090206008015460ff166109775760405162461bcd60e51b8152602060048201526014602482015273105cdcd95d08185b1c9958591e481c995b9d195960621b6044820152606401610436565b8061098181611963565b9150506108d0565b506000828152600560209081526040808320858155600181018990556002810180546001600160a01b031916331790556003810188905560049081018590558884529091529020546109de9060ff85166119e8565b6000838152600560208181526040808420928301859055600683019390935560088201805460ff1916905581546001830154600284015460038501546004909501548651938452938301919091526001600160a01b0316818501526060810192909252608082015260a0810192909252517feef3b7132416aa3751c98519543cc4f2a7e93ac69a1531d57e9a2e9f422c8eba9181900360c00190a15050505050565b610a886114ec565b61035e611606565b60606000805b600254811015610ad957600081815260056020526040902060010154849003610ac75781610ac381611963565b9250505b80610ad181611963565b915050610a96565b506000808267ffffffffffffffff811115610af657610af661197c565b604051908082528060200260200182016040528015610b2f57816020015b610b1c6116e6565b815260200190600190039081610b145790505b50905060005b600254811015610c6a57600081815260056020526040902060010154869003610c58576000818152600560208181526040928390208351610120810185528154815260018201548184015260028201546001600160a01b03168186015260038201546060820152600482015460808201529281015460a0840152600681015460c08401526007810180548551818502810185019096528086529394919360e0860193830182828015610c1057602002820191906000526020600020905b81546001600160a01b03168152600190910190602001808311610bf2575b50505091835250506008919091015460ff1615156020909101528251839085908110610c3e57610c3e611992565b60200260200101819052508280610c5490611963565b9350505b80610c6281611963565b915050610b35565b50949350505050565b6000818152600560205260408120600101549003610cc75760405162461bcd60e51b815260206004820152601160248201527014995b9d185b081b5d5cdd08195e1a5cdd607a1b6044820152606401610436565b600854600082815260056020526040808220600101549051627eeac760e11b8152336004820152602481019190915290916001600160a01b03169062fdd58e90604401602060405180830381865afa158015610d27573d6000803e3d6000fd5b505050506040513d601f19601f82011682018060405250810190610d4b91906119ff565b905060008111610d8f5760405162461bcd60e51b815260206004820152600f60248201526e2737ba1039b430b932b437b63232b960891b6044820152606401610436565b60008281526005602052604090206008015460ff1615610df15760405162461bcd60e51b815260206004820152601f60248201527f52656e74616c206d757374206e6f7420626520617070726f76656420796574006044820152606401610436565b60005b600083815260056020526040902060070154811015610e9a576000838152600560205260409020600701805433919083908110610e3357610e33611992565b6000918252602090912001546001600160a01b031603610e885760405162461bcd60e51b815260206004820152601060248201526f105b1c9958591e48185c1c1c9bdd995960821b6044820152606401610436565b80610e9281611963565b915050610df4565b5060008281526005602052604081206006018054839290610ebc9084906119cf565b9091555050600082815260056020908152604080832060070180546001810182559084529282902090920180546001600160a01b031916339081179091558251858152918201529081018290527f0aebc1ad4b106de9cd98008a77d8f2e6e9d56e54ced136fbdd29eb3f5b24cd859060600160405180910390a16008546000838152600560205260409081902060010154905163bd85b03960e01b815260048101919091526002916001600160a01b03169063bd85b03990602401602060405180830381865afa158015610f94573d6000803e3d6000fd5b505050506040513d601f19601f82011682018060405250810190610fb891906119ff565b610fc29190611a18565b600083815260056020526040902060060154111561146f5760005b6002548110156110ba578083146110a857600083815260056020526040808220600190810154848452919092209091015414801561104b5750600083815260056020526040808220600380820154600492830154868652939094209081015491015461104b939291906115eb565b156110a85760008381526005602052604090206008015460ff166110a85760405162461bcd60e51b8152602060048201526014602482015273105cdcd95d08185b1c9958591e481c995b9d195960621b6044820152606401610436565b806110b281611963565b915050610fdd565b5060008281526005602090815260408083206008018054600160ff199182168117909255600684529382902080549094161790925590518381527f9145fd4b7d7b7b4d24e9351d433c262ac114fb8787d1cce4c8f9535dfadc246c910160405180910390a16008546000838152600560205260408082206001015490516310f9323360e21b815291926001600160a01b0316916343e4c8cc916111639160040190815260200190565b600060405180830381865afa158015611180573d6000803e3d6000fd5b505050506040513d6000823e601f3d908101601f191682016040526111a89190810190611a4a565b60085460008581526005602052604080822060010154905163bd85b03960e01b81526004810191909152929350916001600160a01b039091169063bd85b03990602401602060405180830381865afa158015611208573d6000803e3d6000fd5b505050506040513d601f19601f8201168201806040525081019061122c91906119ff565b90506000805b83518110156114095760085484516000916001600160a01b03169062fdd58e9087908590811061126457611264611992565b6020026020010151600560008b8152602001908152602001600020600101546040518363ffffffff1660e01b81526004016112b49291906001600160a01b03929092168252602082015260400190565b602060405180830381865afa1580156112d1573d6000803e3d6000fd5b505050506040513d601f19601f820116820180604052508101906112f591906119ff565b600088815260056020819052604082200154919250908290611318908790611a18565b61132291906119e8565b60095460008a81526005602052604090206002015488519293506001600160a01b03918216926323b872dd929091169089908790811061136457611364611992565b60209081029190910101516040516001600160e01b031960e085901b1681526001600160a01b03928316600482015291166024820152604481018490526064016020604051808303816000875af11580156113c3573d6000803e3d6000fd5b505050506040513d601f19601f820116820180604052508101906113e79190611930565b506113f281856119cf565b93505050808061140190611963565b915050611232565b5060008581526005602081905260409091200154811461146b5760405162461bcd60e51b815260206004820152601e60248201527f5472616e7366657220616d6f756e7420646f6573206e6f74206d6174636800006044820152606401610436565b5050505b5050565b61147b6114ec565b6001600160a01b0381166114e05760405162461bcd60e51b815260206004820152602660248201527f4f776e61626c653a206e6577206f776e657220697320746865207a65726f206160448201526564647265737360d01b6064820152608401610436565b6114e98161159b565b50565b6000546001600160a01b0316331461035e5760405162461bcd60e51b815260206004820181905260248201527f4f776e61626c653a2063616c6c6572206973206e6f7420746865206f776e65726044820152606401610436565b61154e611649565b6000805460ff60a01b191690557f5db9ee0a495bf2e6ff9c91a7834c1ba4fdd244a5e8aa4e537bd38aeae4b073aa335b6040516001600160a01b03909116815260200160405180910390a1565b600080546001600160a01b038381166001600160a01b0319831681178455604051919092169283917f8be0079c531659141344cd1fd0a4f28419497f9722a3daafe3b4186f6b6457e09190a35050565b60008185111580156115fd5750828410155b95945050505050565b61160e611699565b6000805460ff60a01b1916600160a01b1790557f62e78cea01bee320cd4e420270b5ea74000d11b0c9f74754ebdbfc544b05a25861157e3390565b600054600160a01b900460ff1661035e5760405162461bcd60e51b815260206004820152601460248201527314185d5cd8589b194e881b9bdd081c185d5cd95960621b6044820152606401610436565b600054600160a01b900460ff161561035e5760405162461bcd60e51b815260206004820152601060248201526f14185d5cd8589b194e881c185d5cd95960821b6044820152606401610436565b604051806101200160405280600081526020016000815260200160006001600160a01b0316815260200160008152602001600081526020016000815260200160008152602001606081526020016000151581525090565b6001600160a01b03811681146114e957600080fd5b60006020828403121561176457600080fd5b813561176f8161173d565b9392505050565b60006020828403121561178857600080fd5b5035919050565b80151581146114e957600080fd5b6000806000606084860312156117b257600080fd5b8335925060208401356117c48161178f565b929592945050506040919091013590565b600081518084526020808501945080840160005b8381101561180e5781516001600160a01b0316875295820195908201906001016117e9565b509495945050505050565b60006020808301818452808551808352604092508286019150828160051b87010184880160005b838110156118e357603f198984030185528151805184528781015188850152868101516001600160a01b031687850152606080820151908501526080808201519085015260a0808201519085015260c0808201519085015260e08082015161012082870181905291906118b5838801826117d5565b925050506101008083015192506118cf8187018415159052565b509588019593505090860190600101611840565b509098975050505050505050565b60008060006060848603121561190657600080fd5b8335925060208401359150604084013560ff8116811461192557600080fd5b809150509250925092565b60006020828403121561194257600080fd5b815161176f8161178f565b634e487b7160e01b600052601160045260246000fd5b6000600182016119755761197561194d565b5060010190565b634e487b7160e01b600052604160045260246000fd5b634e487b7160e01b600052603260045260246000fd5b62ffffff8181168382160280821691908281146119c7576119c761194d565b505092915050565b808201808211156119e2576119e261194d565b92915050565b80820281158282048414176119e2576119e261194d565b600060208284031215611a1157600080fd5b5051919050565b600082611a3557634e487b7160e01b600052601260045260246000fd5b500490565b8051611a458161173d565b919050565b60006020808385031215611a5d57600080fd5b825167ffffffffffffffff80821115611a7557600080fd5b818501915085601f830112611a8957600080fd5b815181811115611a9b57611a9b61197c565b8060051b604051601f19603f83011681018181108582111715611ac057611ac061197c565b604052918252848201925083810185019188831115611ade57600080fd5b938501935b82851015611b0357611af485611a3a565b84529385019392850192611ae3565b9897505050505050505056fea26469706673582212205f578d95cb4d37fadb893fe9f09b1f1fd44c37976fc905707420735a6b626c0564736f6c63430008120033",
  "linkReferences": {},
  "deployedLinkReferences": {}
}