{
  "_format": "hh-sol-artifact-1",
  "contractName": "BlockEstateShares",
  "sourceName": "contracts/BlockEstate/BlockEstateShares.sol",
  "abi": [
    {
      "inputs": [
        {
          "internalType": "address",
          "name": "_blockEstateAssetsAddress",
          "type": "address"
        }
      ],
      "stateMutability": "nonpayable",
      "type": "constructor"
    },
    {
      "anonymous": false,
      "inputs": [
        {
          "indexed": true,
          "internalType": "address",
          "name": "account",
          "type": "address"
        },
        {
          "indexed": true,
          "internalType": "address",
          "name": "operator",
          "type": "address"
        },
        {
          "indexed": false,
          "internalType": "bool",
          "name": "approved",
          "type": "bool"
        }
      ],
      "name": "ApprovalForAll",
      "type": "event"
    },
    {
      "anonymous": false,
      "inputs": [
        {
          "indexed": false,
          "internalType": "address",
          "name": "old",
          "type": "address"
        },
        {
          "indexed": false,
          "internalType": "address",
          "name": "updated",
          "type": "address"
        }
      ],
      "name": "BlockEstateAssetsAddressUpdated",
      "type": "event"
    },
    {
      "anonymous": false,
      "inputs": [
        {
          "indexed": false,
          "internalType": "address",
          "name": "old",
          "type": "address"
        },
        {
          "indexed": false,
          "internalType": "address",
          "name": "updated",
          "type": "address"
        }
      ],
      "name": "BlockEstateMarketAddressUpdated",
      "type": "event"
    },
    {
      "anonymous": false,
      "inputs": [
        {
          "indexed": true,
          "internalType": "address",
          "name": "previousOwner",
          "type": "address"
        },
        {
          "indexed": true,
          "internalType": "address",
          "name": "newOwner",
          "type": "address"
        }
      ],
      "name": "OwnershipTransferred",
      "type": "event"
    },
    {
      "anonymous": false,
      "inputs": [
        {
          "indexed": false,
          "internalType": "address",
          "name": "account",
          "type": "address"
        }
      ],
      "name": "Paused",
      "type": "event"
    },
    {
      "anonymous": false,
      "inputs": [
        {
          "indexed": false,
          "internalType": "uint256",
          "name": "tokenId",
          "type": "uint256"
        },
        {
          "indexed": false,
          "internalType": "uint256",
          "name": "amount",
          "type": "uint256"
        }
      ],
      "name": "SharesCreated",
      "type": "event"
    },
    {
      "anonymous": false,
      "inputs": [
        {
          "indexed": true,
          "internalType": "address",
          "name": "operator",
          "type": "address"
        },
        {
          "indexed": true,
          "internalType": "address",
          "name": "from",
          "type": "address"
        },
        {
          "indexed": true,
          "internalType": "address",
          "name": "to",
          "type": "address"
        },
        {
          "indexed": false,
          "internalType": "uint256[]",
          "name": "ids",
          "type": "uint256[]"
        },
        {
          "indexed": false,
          "internalType": "uint256[]",
          "name": "values",
          "type": "uint256[]"
        }
      ],
      "name": "TransferBatch",
      "type": "event"
    },
    {
      "anonymous": false,
      "inputs": [
        {
          "indexed": true,
          "internalType": "address",
          "name": "operator",
          "type": "address"
        },
        {
          "indexed": true,
          "internalType": "address",
          "name": "from",
          "type": "address"
        },
        {
          "indexed": true,
          "internalType": "address",
          "name": "to",
          "type": "address"
        },
        {
          "indexed": false,
          "internalType": "uint256",
          "name": "id",
          "type": "uint256"
        },
        {
          "indexed": false,
          "internalType": "uint256",
          "name": "value",
          "type": "uint256"
        }
      ],
      "name": "TransferSingle",
      "type": "event"
    },
    {
      "anonymous": false,
      "inputs": [
        {
          "indexed": false,
          "internalType": "string",
          "name": "value",
          "type": "string"
        },
        {
          "indexed": true,
          "internalType": "uint256",
          "name": "id",
          "type": "uint256"
        }
      ],
      "name": "URI",
      "type": "event"
    },
    {
      "anonymous": false,
      "inputs": [
        {
          "indexed": false,
          "internalType": "address",
          "name": "account",
          "type": "address"
        }
      ],
      "name": "Unpaused",
      "type": "event"
    },
    {
      "inputs": [
        {
          "internalType": "address",
          "name": "account",
          "type": "address"
        },
        {
          "internalType": "uint256",
          "name": "id",
          "type": "uint256"
        }
      ],
      "name": "balanceOf",
      "outputs": [
        {
          "internalType": "uint256",
          "name": "",
          "type": "uint256"
        }
      ],
      "stateMutability": "view",
      "type": "function"
    },
    {
      "inputs": [
        {
          "internalType": "address[]",
          "name": "accounts",
          "type": "address[]"
        },
        {
          "internalType": "uint256[]",
          "name": "ids",
          "type": "uint256[]"
        }
      ],
      "name": "balanceOfBatch",
      "outputs": [
        {
          "internalType": "uint256[]",
          "name": "",
          "type": "uint256[]"
        }
      ],
      "stateMutability": "view",
      "type": "function"
    },
    {
      "inputs": [],
      "name": "blockEstateAssetsAddress",
      "outputs": [
        {
          "internalType": "address",
          "name": "",
          "type": "address"
        }
      ],
      "stateMutability": "view",
      "type": "function"
    },
    {
      "inputs": [],
      "name": "blockEstateMarketAddress",
      "outputs": [
        {
          "internalType": "address",
          "name": "",
          "type": "address"
        }
      ],
      "stateMutability": "view",
      "type": "function"
    },
    {
      "inputs": [
        {
          "internalType": "address",
          "name": "account",
          "type": "address"
        },
        {
          "internalType": "uint256",
          "name": "id",
          "type": "uint256"
        },
        {
          "internalType": "uint256",
          "name": "value",
          "type": "uint256"
        }
      ],
      "name": "burn",
      "outputs": [],
      "stateMutability": "nonpayable",
      "type": "function"
    },
    {
      "inputs": [
        {
          "internalType": "address",
          "name": "account",
          "type": "address"
        },
        {
          "internalType": "uint256[]",
          "name": "ids",
          "type": "uint256[]"
        },
        {
          "internalType": "uint256[]",
          "name": "values",
          "type": "uint256[]"
        }
      ],
      "name": "burnBatch",
      "outputs": [],
      "stateMutability": "nonpayable",
      "type": "function"
    },
    {
      "inputs": [
        {
          "internalType": "uint256",
          "name": "tokenId",
          "type": "uint256"
        },
        {
          "internalType": "uint256",
          "name": "amount",
          "type": "uint256"
        }
      ],
      "name": "burnShares",
      "outputs": [],
      "stateMutability": "nonpayable",
      "type": "function"
    },
    {
      "inputs": [
        {
          "internalType": "address",
          "name": "to",
          "type": "address"
        },
        {
          "internalType": "uint256",
          "name": "tokenId",
          "type": "uint256"
        },
        {
          "internalType": "uint8",
          "name": "sharesOption",
          "type": "uint8"
        }
      ],
      "name": "createSharesAtCreation",
      "outputs": [],
      "stateMutability": "nonpayable",
      "type": "function"
    },
    {
      "inputs": [
        {
          "internalType": "uint256",
          "name": "tokenId",
          "type": "uint256"
        },
        {
          "internalType": "address[]",
          "name": "holders",
          "type": "address[]"
        },
        {
          "internalType": "uint256[]",
          "name": "amounts",
          "type": "uint256[]"
        }
      ],
      "name": "createSharesBatch",
      "outputs": [],
      "stateMutability": "nonpayable",
      "type": "function"
    },
    {
      "inputs": [
        {
          "internalType": "uint256",
          "name": "id",
          "type": "uint256"
        }
      ],
      "name": "exists",
      "outputs": [
        {
          "internalType": "bool",
          "name": "",
          "type": "bool"
        }
      ],
      "stateMutability": "view",
      "type": "function"
    },
    {
      "inputs": [
        {
          "internalType": "address",
          "name": "account",
          "type": "address"
        },
        {
          "internalType": "address",
          "name": "operator",
          "type": "address"
        }
      ],
      "name": "isApprovedForAll",
      "outputs": [
        {
          "internalType": "bool",
          "name": "",
          "type": "bool"
        }
      ],
      "stateMutability": "view",
      "type": "function"
    },
    {
      "inputs": [],
      "name": "owner",
      "outputs": [
        {
          "internalType": "address",
          "name": "",
          "type": "address"
        }
      ],
      "stateMutability": "view",
      "type": "function"
    },
    {
      "inputs": [],
      "name": "pause",
      "outputs": [],
      "stateMutability": "nonpayable",
      "type": "function"
    },
    {
      "inputs": [],
      "name": "paused",
      "outputs": [
        {
          "internalType": "bool",
          "name": "",
          "type": "bool"
        }
      ],
      "stateMutability": "view",
      "type": "function"
    },
    {
      "inputs": [
        {
          "internalType": "uint256",
          "name": "tokenId",
          "type": "uint256"
        }
      ],
      "name": "readShareholdersByToken",
      "outputs": [
        {
          "internalType": "address[]",
          "name": "",
          "type": "address[]"
        }
      ],
      "stateMutability": "view",
      "type": "function"
    },
    {
      "inputs": [
        {
          "internalType": "address",
          "name": "holder",
          "type": "address"
        }
      ],
      "name": "readSharesByHolder",
      "outputs": [
        {
          "internalType": "uint256[]",
          "name": "",
          "type": "uint256[]"
        }
      ],
      "stateMutability": "view",
      "type": "function"
    },
    {
      "inputs": [],
      "name": "renounceOwnership",
      "outputs": [],
      "stateMutability": "nonpayable",
      "type": "function"
    },
    {
      "inputs": [
        {
          "internalType": "uint256",
          "name": "_tokenId",
          "type": "uint256"
        },
        {
          "internalType": "uint256",
          "name": "_salePrice",
          "type": "uint256"
        }
      ],
      "name": "royaltyInfo",
      "outputs": [
        {
          "internalType": "address",
          "name": "",
          "type": "address"
        },
        {
          "internalType": "uint256",
          "name": "",
          "type": "uint256"
        }
      ],
      "stateMutability": "view",
      "type": "function"
    },
    {
      "inputs": [
        {
          "internalType": "address",
          "name": "from",
          "type": "address"
        },
        {
          "internalType": "address",
          "name": "to",
          "type": "address"
        },
        {
          "internalType": "uint256[]",
          "name": "ids",
          "type": "uint256[]"
        },
        {
          "internalType": "uint256[]",
          "name": "amounts",
          "type": "uint256[]"
        },
        {
          "internalType": "bytes",
          "name": "data",
          "type": "bytes"
        }
      ],
      "name": "safeBatchTransferFrom",
      "outputs": [],
      "stateMutability": "nonpayable",
      "type": "function"
    },
    {
      "inputs": [
        {
          "internalType": "address",
          "name": "from",
          "type": "address"
        },
        {
          "internalType": "address",
          "name": "to",
          "type": "address"
        },
        {
          "internalType": "uint256",
          "name": "id",
          "type": "uint256"
        },
        {
          "internalType": "uint256",
          "name": "amount",
          "type": "uint256"
        },
        {
          "internalType": "bytes",
          "name": "data",
          "type": "bytes"
        }
      ],
      "name": "safeTransferFrom",
      "outputs": [],
      "stateMutability": "nonpayable",
      "type": "function"
    },
    {
      "inputs": [
        {
          "internalType": "address",
          "name": "operator",
          "type": "address"
        },
        {
          "internalType": "bool",
          "name": "approved",
          "type": "bool"
        }
      ],
      "name": "setApprovalForAll",
      "outputs": [],
      "stateMutability": "nonpayable",
      "type": "function"
    },
    {
      "inputs": [
        {
          "internalType": "address",
          "name": "_blockEstateAssetsAddress",
          "type": "address"
        }
      ],
      "name": "setBlockEstateAssetsAddress",
      "outputs": [],
      "stateMutability": "nonpayable",
      "type": "function"
    },
    {
      "inputs": [
        {
          "internalType": "address",
          "name": "_blockEstateMarketAddress",
          "type": "address"
        }
      ],
      "name": "setBlockEstateMarketAddress",
      "outputs": [],
      "stateMutability": "nonpayable",
      "type": "function"
    },
    {
      "inputs": [
        {
          "internalType": "string",
          "name": "newuri",
          "type": "string"
        }
      ],
      "name": "setURI",
      "outputs": [],
      "stateMutability": "nonpayable",
      "type": "function"
    },
    {
      "inputs": [
        {
          "internalType": "uint256",
          "name": "",
          "type": "uint256"
        },
        {
          "internalType": "uint256",
          "name": "",
          "type": "uint256"
        }
      ],
      "name": "shareholdersHistory",
      "outputs": [
        {
          "internalType": "address",
          "name": "",
          "type": "address"
        }
      ],
      "stateMutability": "view",
      "type": "function"
    },
    {
      "inputs": [
        {
          "internalType": "bytes4",
          "name": "interfaceId",
          "type": "bytes4"
        }
      ],
      "name": "supportsInterface",
      "outputs": [
        {
          "internalType": "bool",
          "name": "",
          "type": "bool"
        }
      ],
      "stateMutability": "view",
      "type": "function"
    },
    {
      "inputs": [
        {
          "internalType": "address",
          "name": "",
          "type": "address"
        },
        {
          "internalType": "uint256",
          "name": "",
          "type": "uint256"
        }
      ],
      "name": "tokenHistory",
      "outputs": [
        {
          "internalType": "uint256",
          "name": "",
          "type": "uint256"
        }
      ],
      "stateMutability": "view",
      "type": "function"
    },
    {
      "inputs": [
        {
          "internalType": "uint256",
          "name": "id",
          "type": "uint256"
        }
      ],
      "name": "totalSupply",
      "outputs": [
        {
          "internalType": "uint256",
          "name": "",
          "type": "uint256"
        }
      ],
      "stateMutability": "view",
      "type": "function"
    },
    {
      "inputs": [
        {
          "internalType": "uint256[]",
          "name": "tokenIds",
          "type": "uint256[]"
        }
      ],
      "name": "totalSupplyBatch",
      "outputs": [
        {
          "internalType": "uint256[]",
          "name": "",
          "type": "uint256[]"
        }
      ],
      "stateMutability": "view",
      "type": "function"
    },
    {
      "inputs": [
        {
          "internalType": "address",
          "name": "newOwner",
          "type": "address"
        }
      ],
      "name": "transferOwnership",
      "outputs": [],
      "stateMutability": "nonpayable",
      "type": "function"
    },
    {
      "inputs": [],
      "name": "unpause",
      "outputs": [],
      "stateMutability": "nonpayable",
      "type": "function"
    },
    {
      "inputs": [
        {
          "internalType": "address",
          "name": "account",
          "type": "address"
        },
        {
          "internalType": "uint16",
          "name": "royaltyBps",
          "type": "uint16"
        }
      ],
      "name": "updateMarketplaceRoyalty",
      "outputs": [],
      "stateMutability": "nonpayable",
      "type": "function"
    },
    {
      "inputs": [
        {
          "internalType": "uint256",
          "name": "",
          "type": "uint256"
        }
      ],
      "name": "uri",
      "outputs": [
        {
          "internalType": "string",
          "name": "",
          "type": "string"
        }
      ],
      "stateMutability": "view",
      "type": "function"
    }
  ],
  "bytecode": "0x60806040523480156200001157600080fd5b5060405162003a4f38038062003a4f833981016040819052620000349162000269565b60405180606001604052806034815260200162003a1b60349139620000598162000104565b50620000653362000116565b6003805460ff60a01b1916905560016005556001600160a01b038116620000c25760405162461bcd60e51b815260206004820152600c60248201526b7a65726f206164647265737360a01b60448201526064015b60405180910390fd5b600880546001600160a01b0319166001600160a01b038316179055620000fd620000f46003546001600160a01b031690565b6101f462000168565b506200040c565b600262000112828262000340565b5050565b600380546001600160a01b038381166001600160a01b0319831681179093556040519116919082907f8be0079c531659141344cd1fd0a4f28419497f9722a3daafe3b4186f6b6457e090600090a35050565b6127106001600160601b0382161115620001d85760405162461bcd60e51b815260206004820152602a60248201527f455243323938313a20726f79616c7479206665652077696c6c206578636565646044820152692073616c65507269636560b01b6064820152608401620000b9565b6001600160a01b038216620002305760405162461bcd60e51b815260206004820152601960248201527f455243323938313a20696e76616c6964207265636569766572000000000000006044820152606401620000b9565b604080518082019091526001600160a01b039092168083526001600160601b039091166020909201829052600160a01b90910217600655565b6000602082840312156200027c57600080fd5b81516001600160a01b03811681146200029457600080fd5b9392505050565b634e487b7160e01b600052604160045260246000fd5b600181811c90821680620002c657607f821691505b602082108103620002e757634e487b7160e01b600052602260045260246000fd5b50919050565b601f8211156200033b57600081815260208120601f850160051c81016020861015620003165750805b601f850160051c820191505b81811015620003375782815560010162000322565b5050505b505050565b81516001600160401b038111156200035c576200035c6200029b565b62000374816200036d8454620002b1565b84620002ed565b602080601f831160018114620003ac5760008415620003935750858301515b600019600386901b1c1916600185901b17855562000337565b600085815260208120601f198616915b82811015620003dd57888601518255948401946001909101908401620003bc565b5085821015620003fc5787850151600019600388901b60f8161c191681555b5050505050600190811b01905550565b6135ff806200041c6000396000f3fe608060405234801561001057600080fd5b50600436106101fa5760003560e01c80636b20c4541161011a5780638947473f116100ad578063bd85b0391161007c578063bd85b03914610481578063e985e9c5146104a1578063f242432a146104dd578063f2fde38b146104f0578063f5298aca1461050357600080fd5b80638947473f146104375780638da5cb5b1461044a578063a22cb4651461045b578063b8cbbd901461046e57600080fd5b806377954ac2116100e957806377954ac2146103f65780637c6f5127146104095780637e25349b1461041c5780638456cb591461042f57600080fd5b80636b20c4541461039d5780636b78018b146103b0578063704f27d4146103db578063715018a6146103ee57600080fd5b806343e4c8cc116101925780635c975abb116101615780635c975abb146103525780635ed8bcbf14610364578063634837e71461037757806363571e651461038a57600080fd5b806343e4c8cc146102dd5780634cfe601a146102fd5780634e1273f4146103105780634f558e791461033057600080fd5b80632a55205a116101ce5780632a55205a1461027d5780632eb2c2d6146102af5780633810cd2c146102c25780633f4ba83a146102d557600080fd5b8062fdd58e146101ff57806301ffc9a71461022557806302fe5305146102485780630e89341c1461025d575b600080fd5b61021261020d3660046126d7565b610516565b6040519081526020015b60405180910390f35b610238610233366004612719565b6105b5565b604051901515815260200161021c565b61025b610256366004612801565b6105c0565b005b61027061026b366004612851565b6105d4565b60405161021c91906128b0565b61029061028b3660046128c3565b610668565b604080516001600160a01b03909316835260208301919091520161021c565b61025b6102bd366004612999565b610714565b61025b6102d0366004612a46565b610769565b61025b610783565b6102f06102eb366004612851565b610795565b60405161021c9190612a86565b61025b61030b366004612ad3565b610a6b565b61032361031e366004612b5f565b610b28565b60405161021c9190612bfd565b61023861033e366004612851565b600090815260046020526040902054151590565b600354600160a01b900460ff16610238565b61025b610372366004612c10565b610c51565b610323610385366004612ad3565b610de4565b61025b610398366004612ad3565b610e4f565b61025b6103ab366004612c7c565b610f0c565b6008546103c3906001600160a01b031681565b6040516001600160a01b03909116815260200161021c565b61025b6103e9366004612cc4565b610f54565b61025b611032565b610323610404366004612d0c565b611044565b61025b6104173660046128c3565b6110fe565b61021261042a3660046126d7565b611175565b61025b6111a6565b6009546103c3906001600160a01b031681565b6003546001600160a01b03166103c3565b61025b610469366004612d4e565b6111b6565b6103c361047c3660046128c3565b6111c1565b61021261048f366004612851565b60009081526004602052604090205490565b6102386104af366004612d7c565b6001600160a01b03918216600090815260016020908152604080832093909416825291909152205460ff1690565b61025b6104eb366004612daa565b6111f9565b61025b6104fe366004612ad3565b61123e565b61025b610511366004612e12565b6112b4565b60008061052384846112f7565b60095460405163469fc52960e01b81526001600160a01b038781166004830152602482018790529293506000929091169063469fc52990604401602060405180830381865afa15801561057a573d6000803e3d6000fd5b505050506040513d601f19601f8201168201806040525081019061059e9190612e47565b90506105aa8183612e76565b925050505b92915050565b60006105af82611388565b6105c86113ad565b6105d181611407565b50565b6060600280546105e390612e89565b80601f016020809104026020016040519081016040528092919081815260200182805461060f90612e89565b801561065c5780601f106106315761010080835404028352916020019161065c565b820191906000526020600020905b81548152906001019060200180831161063f57829003601f168201915b50505050509050919050565b60008281526007602090815260408083208151808301909252546001600160a01b038116808352600160a01b9091046001600160601b03169282019290925282916106dd5750604080518082019091526006546001600160a01b0381168252600160a01b90046001600160601b031660208201525b6020810151600090612710906106fc906001600160601b031687612ec3565b6107069190612eda565b915196919550909350505050565b6001600160a01b038516331480610730575061073085336104af565b6107555760405162461bcd60e51b815260040161074c90612efc565b60405180910390fd5b6107628585858585611413565b5050505050565b6107716113ad565b61077f828261ffff166115cb565b5050565b61078b6113ad565b6107936116c8565b565b6000818152600a6020526040812054606091906001600160401b038111156107bf576107bf61273d565b6040519080825280602002602001820160405280156107e8578160200160208202803683370190505b5090506000805b6000858152600a6020526040902054811015610969576000858152600a60205260408120805461084591908490811061082a5761082a612f4a565b6000918252602090912001546001600160a01b031687610516565b1115610957576000805b84518110156108de576000878152600a6020526040902080548490811061087857610878612f4a565b60009182526020909120015485516001600160a01b03909116908690839081106108a4576108a4612f4a565b60200260200101516001600160a01b0316036108cc5760019150836108c881612f60565b9450505b806108d681612f60565b91505061084f565b5080610955576000868152600a6020526040902080548390811061090457610904612f4a565b9060005260206000200160009054906101000a90046001600160a01b031684838151811061093457610934612f4a565b60200260200101906001600160a01b031690816001600160a01b0316815250505b505b8061096181612f60565b9150506107ef565b5060008183516109799190612f79565b6001600160401b038111156109905761099061273d565b6040519080825280602002602001820160405280156109b9578160200160208202803683370190505b5090506000805b8451811015610a605760006001600160a01b03168582815181106109e6576109e6612f4a565b60200260200101516001600160a01b031614610a4e57848181518110610a0e57610a0e612f4a565b6020026020010151838381518110610a2857610a28612f4a565b6001600160a01b039092166020928302919091019091015281610a4a81612f60565b9250505b80610a5881612f60565b9150506109c0565b509095945050505050565b610a736113ad565b6001600160a01b038116610ab85760405162461bcd60e51b815260206004820152600c60248201526b7a65726f206164647265737360a01b604482015260640161074c565b600954604080516001600160a01b03928316815291831660208301527f5d9e527e2ab85eed8c12dbfdfa49903b509f3b367dec19463530d787dcfd2854910160405180910390a1600980546001600160a01b0319166001600160a01b0383169081179091556105d19060016111b6565b60608151835114610b8d5760405162461bcd60e51b815260206004820152602960248201527f455243313135353a206163636f756e747320616e6420696473206c656e677468604482015268040dad2e6dac2e8c6d60bb1b606482015260840161074c565b600083516001600160401b03811115610ba857610ba861273d565b604051908082528060200260200182016040528015610bd1578160200160208202803683370190505b50905060005b8451811015610c4957610c1c858281518110610bf557610bf5612f4a565b6020026020010151858381518110610c0f57610c0f612f4a565b6020026020010151610516565b828281518110610c2e57610c2e612f4a565b6020908102919091010152610c4281612f60565b9050610bd7565b509392505050565b6008546040516331a9108f60e11b81526004810185905233916001600160a01b031690636352211e90602401602060405180830381865afa158015610c9a573d6000803e3d6000fd5b505050506040513d601f19601f82011682018060405250810190610cbe9190612f8c565b6001600160a01b031614610d0a5760405162461bcd60e51b815260206004820152601360248201527221b0b63632b91034b9903737ba1037bbb732b960691b604482015260640161074c565b60005b8251811015610dde576000828281518110610d2a57610d2a612f4a565b602002602001015111610d7f5760405162461bcd60e51b815260206004820152601c60248201527f4d75737420637265617465206174206c65617374203120536861726500000000604482015260640161074c565b610dcc838281518110610d9457610d94612f4a565b602002602001015185848481518110610daf57610daf612f4a565b60200260200101516040518060200160405280600081525061171d565b80610dd681612f60565b915050610d0d565b50505050565b6001600160a01b0381166000908152600b602090815260409182902080548351818402810184019094528084526060939283018282801561065c57602002820191906000526020600020905b815481526020019060010190808311610e305750505050509050919050565b610e576113ad565b6001600160a01b038116610e9c5760405162461bcd60e51b815260206004820152600c60248201526b7a65726f206164647265737360a01b604482015260640161074c565b600854604080516001600160a01b03928316815291831660208301527f3c382290b39c0f8e7c9445f3393899e71f6f8b9a411021501c650ff68fa83b99910160405180910390a1600880546001600160a01b0319166001600160a01b0383169081179091556105d19060016111b6565b6001600160a01b038316331480610f285750610f2883336104af565b610f445760405162461bcd60e51b815260040161074c90612efc565b610f4f83838361184f565b505050565b6008546001600160a01b03163314610fbe5760405162461bcd60e51b815260206004820152602760248201527f43616c6c6572206973206e6f7420426c6f636b457374617465417373657420636044820152661bdb9d1c9858dd60ca1b606482015260840161074c565b6000610fcb82600a61308d565b610fd6906064612ec3565b9050610ff38484836040518060200160405280600081525061171d565b60408051848152602081018390527f9d70625568fcfea0e5d43ae8503b4452dabffb58547e6c2e91dbf58466296221910160405180910390a150505050565b61103a6113ad565b61079360006119f5565b6060600082516001600160401b038111156110615761106161273d565b60405190808252806020026020018201604052801561108a578160200160208202803683370190505b50905060005b83518110156110f7576110c88482815181106110ae576110ae612f4a565b602002602001015160009081526004602052604090205490565b8282815181106110da576110da612f4a565b6020908102919091010152806110ef81612f60565b915050611090565b5092915050565b6008546001600160a01b0316331461116a5760405162461bcd60e51b815260206004820152602960248201527f43616c6c6572206d75737420626520426c6f636b4573746174654173736574736044820152680818dbdb9d1c9858dd60ba1b606482015260840161074c565b61077f3383836112b4565b600b602052816000526040600020818154811061119157600080fd5b90600052602060002001600091509150505481565b6111ae6113ad565b610793611a47565b61077f338383611a8a565b600a60205281600052604060002081815481106111dd57600080fd5b6000918252602090912001546001600160a01b03169150829050565b6001600160a01b038516331480611215575061121585336104af565b6112315760405162461bcd60e51b815260040161074c90612efc565b6107628585858585611b6a565b6112466113ad565b6001600160a01b0381166112ab5760405162461bcd60e51b815260206004820152602660248201527f4f776e61626c653a206e6577206f776e657220697320746865207a65726f206160448201526564647265737360d01b606482015260840161074c565b6105d1816119f5565b6001600160a01b0383163314806112d057506112d083336104af565b6112ec5760405162461bcd60e51b815260040161074c90612efc565b610f4f838383611cb0565b60006001600160a01b0383166113625760405162461bcd60e51b815260206004820152602a60248201527f455243313135353a2061646472657373207a65726f206973206e6f742061207660448201526930b634b21037bbb732b960b11b606482015260840161074c565b506000908152602081815260408083206001600160a01b03949094168352929052205490565b60006001600160e01b0319821663152a902d60e11b14806105af57506105af82611dd2565b6003546001600160a01b031633146107935760405162461bcd60e51b815260206004820181905260248201527f4f776e61626c653a2063616c6c6572206973206e6f7420746865206f776e6572604482015260640161074c565b600261077f82826130e2565b81518351146114345760405162461bcd60e51b815260040161074c906131a1565b6001600160a01b03841661145a5760405162461bcd60e51b815260040161074c906131e9565b33611469818787878787611e22565b60005b845181101561154f57600085828151811061148957611489612f4a565b6020026020010151905060008583815181106114a7576114a7612f4a565b602090810291909101810151600084815280835260408082206001600160a01b038e1683529093529190912054909150818110156114f75760405162461bcd60e51b815260040161074c9061322e565b6000838152602081815260408083206001600160a01b038e8116855292528083208585039055908b16825281208054849290611534908490612e76565b925050819055505050508061154890612f60565b905061146c565b50846001600160a01b0316866001600160a01b0316826001600160a01b03167f4a39dc06d4c0dbc64b70af90fd698a233a518aa5d07e595d983b8c0526c8f7fb878760405161159f929190613278565b60405180910390a46115b5818787878787612156565b6115c38187878787876121f2565b505050505050565b6127106001600160601b03821611156116395760405162461bcd60e51b815260206004820152602a60248201527f455243323938313a20726f79616c7479206665652077696c6c206578636565646044820152692073616c65507269636560b01b606482015260840161074c565b6001600160a01b03821661168f5760405162461bcd60e51b815260206004820152601960248201527f455243323938313a20696e76616c696420726563656976657200000000000000604482015260640161074c565b604080518082019091526001600160a01b039092168083526001600160601b039091166020909201829052600160a01b90910217600655565b6116d061234d565b6003805460ff60a01b191690557f5db9ee0a495bf2e6ff9c91a7834c1ba4fdd244a5e8aa4e537bd38aeae4b073aa335b6040516001600160a01b03909116815260200160405180910390a1565b6001600160a01b03841661177d5760405162461bcd60e51b815260206004820152602160248201527f455243313135353a206d696e7420746f20746865207a65726f206164647265736044820152607360f81b606482015260840161074c565b3360006117898561239d565b905060006117968561239d565b90506117a783600089858589611e22565b6000868152602081815260408083206001600160a01b038b168452909152812080548792906117d7908490612e76565b909155505060408051878152602081018790526001600160a01b03808a1692600092918716917fc3d58168c5ae7397731d063d5bbf3d657854427343f4c083240f7aacaa2d0f62910160405180910390a461183783600089858589612156565b611846836000898989896123e8565b50505050505050565b6001600160a01b0383166118755760405162461bcd60e51b815260040161074c906132a6565b80518251146118965760405162461bcd60e51b815260040161074c906131a1565b60003390506118b981856000868660405180602001604052806000815250611e22565b60005b835181101561197e5760008482815181106118d9576118d9612f4a565b6020026020010151905060008483815181106118f7576118f7612f4a565b602090810291909101810151600084815280835260408082206001600160a01b038c1683529093529190912054909150818110156119475760405162461bcd60e51b815260040161074c906132e9565b6000928352602083815260408085206001600160a01b038b168652909152909220910390558061197681612f60565b9150506118bc565b5060006001600160a01b0316846001600160a01b0316826001600160a01b03167f4a39dc06d4c0dbc64b70af90fd698a233a518aa5d07e595d983b8c0526c8f7fb86866040516119cf929190613278565b60405180910390a4610dde81856000868660405180602001604052806000815250612156565b600380546001600160a01b038381166001600160a01b0319831681179093556040519116919082907f8be0079c531659141344cd1fd0a4f28419497f9722a3daafe3b4186f6b6457e090600090a35050565b611a4f6124a3565b6003805460ff60a01b1916600160a01b1790557f62e78cea01bee320cd4e420270b5ea74000d11b0c9f74754ebdbfc544b05a2586117003390565b816001600160a01b0316836001600160a01b031603611afd5760405162461bcd60e51b815260206004820152602960248201527f455243313135353a2073657474696e6720617070726f76616c20737461747573604482015268103337b91039b2b63360b91b606482015260840161074c565b6001600160a01b03838116600081815260016020908152604080832094871680845294825291829020805460ff191686151590811790915591519182527f17307eab39ab6107e8899845ad3d59bd9653f200f220920489ca2b5937696c31910160405180910390a3505050565b6001600160a01b038416611b905760405162461bcd60e51b815260040161074c906131e9565b336000611b9c8561239d565b90506000611ba98561239d565b9050611bb9838989858589611e22565b6000868152602081815260408083206001600160a01b038c16845290915290205485811015611bfa5760405162461bcd60e51b815260040161074c9061322e565b6000878152602081815260408083206001600160a01b038d8116855292528083208985039055908a16825281208054889290611c37908490612e76565b909155505060408051888152602081018890526001600160a01b03808b16928c821692918816917fc3d58168c5ae7397731d063d5bbf3d657854427343f4c083240f7aacaa2d0f62910160405180910390a4611c97848a8a86868a612156565b611ca5848a8a8a8a8a6123e8565b505050505050505050565b6001600160a01b038316611cd65760405162461bcd60e51b815260040161074c906132a6565b336000611ce28461239d565b90506000611cef8461239d565b9050611d0f83876000858560405180602001604052806000815250611e22565b6000858152602081815260408083206001600160a01b038a16845290915290205484811015611d505760405162461bcd60e51b815260040161074c906132e9565b6000868152602081815260408083206001600160a01b038b81168086529184528285208a8703905582518b81529384018a90529092908816917fc3d58168c5ae7397731d063d5bbf3d657854427343f4c083240f7aacaa2d0f62910160405180910390a461184684886000868660405180602001604052806000815250612156565b60006001600160e01b03198216636cdb3d1360e11b1480611e0357506001600160e01b031982166303a24d0760e21b145b806105af57506301ffc9a760e01b6001600160e01b03198316146105af565b611e2a6124a3565b611e388686868686866124f0565b60005b8351811015611846576001600160a01b03851615611ea3576001600160a01b0385166000908152600b602052604090208451859083908110611e7f57611e7f612f4a565b60209081029190910181015182546001810184556000938452919092200155611f1e565b6003546001600160a01b0316331480611ec657506008546001600160a01b031633145b611f1e5760405162461bcd60e51b815260206004820152602360248201527f4f6e6c7920636f6e7472616374206f776e65722063616e206275726e2053686160448201526272657360e81b606482015260840161074c565b6001600160a01b0386161561214457600954604051633655b04160e21b81526001600160a01b038881166004830152600092169063d956c10490602401600060405180830381865afa158015611f78573d6000803e3d6000fd5b505050506040513d6000823e601f3d908101601f19168201604052611fa0919081019061332d565b90506000611fba88878581518110610c0f57610c0f612f4a565b9050848381518110611fce57611fce612f4a565b602002602001015181101561201c5760405162461bcd60e51b8152602060048201526014602482015273696e73756666696369656e742062616c616e636560601b604482015260640161074c565b6000805b83518110156120cb5787858151811061203b5761203b612f4a565b602002602001015184828151811061205557612055612f4a565b602002602001015160200151148015612088575083818151811061207b5761207b612f4a565b602002602001015160a001515b156120b95783818151811061209f5761209f612f4a565b602002602001015160600151826120b69190612e76565b91505b806120c381612f60565b915050612020565b508584815181106120de576120de612f4a565b602002602001015181836120f29190612f79565b10156121405760405162461bcd60e51b815260206004820152601f60248201527f616d6f756e74206578636565647320756e6c6f636b65642062616c616e636500604482015260640161074c565b5050505b8061214e81612f60565b915050611e3b565b61215e612669565b60005b83518110156121e7576001600160a01b038516156121d557600a600085838151811061218f5761218f612f4a565b602090810291909101810151825281810192909252604001600090812080546001810182559082529190200180546001600160a01b0319166001600160a01b0387161790555b806121df81612f60565b915050612161565b506115c36001600555565b6001600160a01b0384163b156115c35760405163bc197c8160e01b81526001600160a01b0385169063bc197c81906122369089908990889088908890600401613427565b6020604051808303816000875af1925050508015612271575060408051601f3d908101601f1916820190925261226e91810190613485565b60015b61231d5761227d6134a2565b806308c379a0036122b657506122916134be565b8061229c57506122b8565b8060405162461bcd60e51b815260040161074c91906128b0565b505b60405162461bcd60e51b815260206004820152603460248201527f455243313135353a207472616e7366657220746f206e6f6e2d455243313135356044820152732932b1b2b4bb32b91034b6b83632b6b2b73a32b960611b606482015260840161074c565b6001600160e01b0319811663bc197c8160e01b146118465760405162461bcd60e51b815260040161074c9061353c565b600354600160a01b900460ff166107935760405162461bcd60e51b815260206004820152601460248201527314185d5cd8589b194e881b9bdd081c185d5cd95960621b604482015260640161074c565b604080516001808252818301909252606091600091906020808301908036833701905050905082816000815181106123d7576123d7612f4a565b602090810291909101015292915050565b6001600160a01b0384163b156115c35760405163f23a6e6160e01b81526001600160a01b0385169063f23a6e619061242c9089908990889088908890600401613584565b6020604051808303816000875af1925050508015612467575060408051601f3d908101601f1916820190925261246491810190613485565b60015b6124735761227d6134a2565b6001600160e01b0319811663f23a6e6160e01b146118465760405162461bcd60e51b815260040161074c9061353c565b600354600160a01b900460ff16156107935760405162461bcd60e51b815260206004820152601060248201526f14185d5cd8589b194e881c185d5cd95960821b604482015260640161074c565b6001600160a01b0385166125775760005b83518110156125755782818151811061251c5761251c612f4a565b60200260200101516004600086848151811061253a5761253a612f4a565b60200260200101518152602001908152602001600020600082825461255f9190612e76565b9091555061256e905081612f60565b9050612501565b505b6001600160a01b0384166115c35760005b83518110156118465760008482815181106125a5576125a5612f4a565b6020026020010151905060008483815181106125c3576125c3612f4a565b60200260200101519050600060046000848152602001908152602001600020549050818110156126465760405162461bcd60e51b815260206004820152602860248201527f455243313135353a206275726e20616d6f756e74206578636565647320746f74604482015267616c537570706c7960c01b606482015260840161074c565b6000928352600460205260409092209103905561266281612f60565b9050612588565b6002600554036126bb5760405162461bcd60e51b815260206004820152601f60248201527f5265656e7472616e637947756172643a207265656e7472616e742063616c6c00604482015260640161074c565b6002600555565b6001600160a01b03811681146105d157600080fd5b600080604083850312156126ea57600080fd5b82356126f5816126c2565b946020939093013593505050565b6001600160e01b0319811681146105d157600080fd5b60006020828403121561272b57600080fd5b813561273681612703565b9392505050565b634e487b7160e01b600052604160045260246000fd5b60c081018181106001600160401b03821117156127725761277261273d565b60405250565b601f8201601f191681016001600160401b038111828210171561279d5761279d61273d565b6040525050565b60006001600160401b038311156127bd576127bd61273d565b6040516127d4601f8501601f191660200182612778565b8091508381528484840111156127e957600080fd5b83836020830137600060208583010152509392505050565b60006020828403121561281357600080fd5b81356001600160401b0381111561282957600080fd5b8201601f8101841361283a57600080fd5b612849848235602084016127a4565b949350505050565b60006020828403121561286357600080fd5b5035919050565b6000815180845260005b8181101561289057602081850181015186830182015201612874565b506000602082860101526020601f19601f83011685010191505092915050565b602081526000612736602083018461286a565b600080604083850312156128d657600080fd5b50508035926020909101359150565b60006001600160401b038211156128fe576128fe61273d565b5060051b60200190565b600082601f83011261291957600080fd5b81356020612926826128e5565b6040516129338282612778565b83815260059390931b850182019282810191508684111561295357600080fd5b8286015b8481101561296e5780358352918301918301612957565b509695505050505050565b600082601f83011261298a57600080fd5b612736838335602085016127a4565b600080600080600060a086880312156129b157600080fd5b85356129bc816126c2565b945060208601356129cc816126c2565b935060408601356001600160401b03808211156129e857600080fd5b6129f489838a01612908565b94506060880135915080821115612a0a57600080fd5b612a1689838a01612908565b93506080880135915080821115612a2c57600080fd5b50612a3988828901612979565b9150509295509295909350565b60008060408385031215612a5957600080fd5b8235612a64816126c2565b9150602083013561ffff81168114612a7b57600080fd5b809150509250929050565b6020808252825182820181905260009190848201906040850190845b81811015612ac75783516001600160a01b031683529284019291840191600101612aa2565b50909695505050505050565b600060208284031215612ae557600080fd5b8135612736816126c2565b600082601f830112612b0157600080fd5b81356020612b0e826128e5565b604051612b1b8282612778565b83815260059390931b8501820192828101915086841115612b3b57600080fd5b8286015b8481101561296e578035612b52816126c2565b8352918301918301612b3f565b60008060408385031215612b7257600080fd5b82356001600160401b0380821115612b8957600080fd5b612b9586838701612af0565b93506020850135915080821115612bab57600080fd5b50612bb885828601612908565b9150509250929050565b600081518084526020808501945080840160005b83811015612bf257815187529582019590820190600101612bd6565b509495945050505050565b6020815260006127366020830184612bc2565b600080600060608486031215612c2557600080fd5b8335925060208401356001600160401b0380821115612c4357600080fd5b612c4f87838801612af0565b93506040860135915080821115612c6557600080fd5b50612c7286828701612908565b9150509250925092565b600080600060608486031215612c9157600080fd5b8335612c9c816126c2565b925060208401356001600160401b0380821115612cb857600080fd5b612c4f87838801612908565b600080600060608486031215612cd957600080fd5b8335612ce4816126c2565b925060208401359150604084013560ff81168114612d0157600080fd5b809150509250925092565b600060208284031215612d1e57600080fd5b81356001600160401b03811115612d3457600080fd5b61284984828501612908565b80151581146105d157600080fd5b60008060408385031215612d6157600080fd5b8235612d6c816126c2565b91506020830135612a7b81612d40565b60008060408385031215612d8f57600080fd5b8235612d9a816126c2565b91506020830135612a7b816126c2565b600080600080600060a08688031215612dc257600080fd5b8535612dcd816126c2565b94506020860135612ddd816126c2565b9350604086013592506060860135915060808601356001600160401b03811115612e0657600080fd5b612a3988828901612979565b600080600060608486031215612e2757600080fd5b8335612e32816126c2565b95602085013595506040909401359392505050565b600060208284031215612e5957600080fd5b5051919050565b634e487b7160e01b600052601160045260246000fd5b808201808211156105af576105af612e60565b600181811c90821680612e9d57607f821691505b602082108103612ebd57634e487b7160e01b600052602260045260246000fd5b50919050565b80820281158282048414176105af576105af612e60565b600082612ef757634e487b7160e01b600052601260045260246000fd5b500490565b6020808252602e908201527f455243313135353a2063616c6c6572206973206e6f7420746f6b656e206f776e60408201526d195c881bdc88185c1c1c9bdd995960921b606082015260800190565b634e487b7160e01b600052603260045260246000fd5b600060018201612f7257612f72612e60565b5060010190565b818103818111156105af576105af612e60565b600060208284031215612f9e57600080fd5b8151612736816126c2565b600181815b80851115612fe4578160001904821115612fca57612fca612e60565b80851615612fd757918102915b93841c9390800290612fae565b509250929050565b600082612ffb575060016105af565b81613008575060006105af565b816001811461301e576002811461302857613044565b60019150506105af565b60ff84111561303957613039612e60565b50506001821b6105af565b5060208310610133831016604e8410600b8410161715613067575081810a6105af565b6130718383612fa9565b806000190482111561308557613085612e60565b029392505050565b600061273660ff841683612fec565b601f821115610f4f57600081815260208120601f850160051c810160208610156130c35750805b601f850160051c820191505b818110156115c3578281556001016130cf565b81516001600160401b038111156130fb576130fb61273d565b61310f816131098454612e89565b8461309c565b602080601f831160018114613144576000841561312c5750858301515b600019600386901b1c1916600185901b1785556115c3565b600085815260208120601f198616915b8281101561317357888601518255948401946001909101908401613154565b50858210156131915787850151600019600388901b60f8161c191681555b5050505050600190811b01905550565b60208082526028908201527f455243313135353a2069647320616e6420616d6f756e7473206c656e677468206040820152670dad2e6dac2e8c6d60c31b606082015260800190565b60208082526025908201527f455243313135353a207472616e7366657220746f20746865207a65726f206164604082015264647265737360d81b606082015260800190565b6020808252602a908201527f455243313135353a20696e73756666696369656e742062616c616e636520666f60408201526939103a3930b739b332b960b11b606082015260800190565b60408152600061328b6040830185612bc2565b828103602084015261329d8185612bc2565b95945050505050565b60208082526023908201527f455243313135353a206275726e2066726f6d20746865207a65726f206164647260408201526265737360e81b606082015260800190565b60208082526024908201527f455243313135353a206275726e20616d6f756e7420657863656564732062616c604082015263616e636560e01b606082015260800190565b6000602080838503121561334057600080fd5b82516001600160401b0381111561335657600080fd5b8301601f8101851361336757600080fd5b8051613372816128e5565b604080516133808382612778565b83815260c0938402850186019386820193508985111561339f57600080fd5b948601945b8486101561341a5780868b0312156133bc5760008081fd5b82516133c781612753565b8651815287870151888201528387015184820152606080880151908201526080808801516133f4816126c2565b9082015260a08781015161340781612d40565b90820152845294850194928601926133a4565b5098975050505050505050565b6001600160a01b0386811682528516602082015260a06040820181905260009061345390830186612bc2565b82810360608401526134658186612bc2565b90508281036080840152613479818561286a565b98975050505050505050565b60006020828403121561349757600080fd5b815161273681612703565b600060033d11156134bb5760046000803e5060005160e01c5b90565b600060443d10156134cc5790565b6040516003193d81016004833e81513d6001600160401b0381602484011181841117156134fb57505050505090565b82850191508151818111156135135750505050505090565b843d870101602082850101111561352d5750505050505090565b610a6060208286010187612778565b60208082526028908201527f455243313135353a204552433131353552656365697665722072656a656374656040820152676420746f6b656e7360c01b606082015260800190565b6001600160a01b03868116825285166020820152604081018490526060810183905260a0608082018190526000906135be9083018461286a565b97965050505050505056fea26469706673582212209354f0fd56bde252bcd42fed216784be7c3031a5962c18fd880159f2482f389b64736f6c6343000812003368747470733a2f2f626c6f636b6573746174652e616c65786f6368732e64652f6170692f6d657461646174612f7368617265732f",
  "linkReferences": {},
  "deployedLinkReferences": {}
}