{
  "_format": "hh-sol-artifact-1",
  "contractName": "BlockEstateShares",
  "sourceName": "contracts/BlockEstateShares.sol",
  "abi": [
    {
      "inputs": [
        {
          "internalType": "address",
          "name": "_blockEstateAssetsAddress",
          "type": "address"
        }
      ],
      "stateMutability": "nonpayable",
      "type": "constructor"
    },
    {
      "anonymous": false,
      "inputs": [
        {
          "indexed": true,
          "internalType": "address",
          "name": "account",
          "type": "address"
        },
        {
          "indexed": true,
          "internalType": "address",
          "name": "operator",
          "type": "address"
        },
        {
          "indexed": false,
          "internalType": "bool",
          "name": "approved",
          "type": "bool"
        }
      ],
      "name": "ApprovalForAll",
      "type": "event"
    },
    {
      "anonymous": false,
      "inputs": [
        {
          "indexed": true,
          "internalType": "address",
          "name": "previousOwner",
          "type": "address"
        },
        {
          "indexed": true,
          "internalType": "address",
          "name": "newOwner",
          "type": "address"
        }
      ],
      "name": "OwnershipTransferred",
      "type": "event"
    },
    {
      "anonymous": false,
      "inputs": [
        {
          "indexed": false,
          "internalType": "address",
          "name": "account",
          "type": "address"
        }
      ],
      "name": "Paused",
      "type": "event"
    },
    {
      "anonymous": false,
      "inputs": [
        {
          "indexed": true,
          "internalType": "address",
          "name": "operator",
          "type": "address"
        },
        {
          "indexed": true,
          "internalType": "address",
          "name": "from",
          "type": "address"
        },
        {
          "indexed": true,
          "internalType": "address",
          "name": "to",
          "type": "address"
        },
        {
          "indexed": false,
          "internalType": "uint256[]",
          "name": "ids",
          "type": "uint256[]"
        },
        {
          "indexed": false,
          "internalType": "uint256[]",
          "name": "values",
          "type": "uint256[]"
        }
      ],
      "name": "TransferBatch",
      "type": "event"
    },
    {
      "anonymous": false,
      "inputs": [
        {
          "indexed": true,
          "internalType": "address",
          "name": "operator",
          "type": "address"
        },
        {
          "indexed": true,
          "internalType": "address",
          "name": "from",
          "type": "address"
        },
        {
          "indexed": true,
          "internalType": "address",
          "name": "to",
          "type": "address"
        },
        {
          "indexed": false,
          "internalType": "uint256",
          "name": "id",
          "type": "uint256"
        },
        {
          "indexed": false,
          "internalType": "uint256",
          "name": "value",
          "type": "uint256"
        }
      ],
      "name": "TransferSingle",
      "type": "event"
    },
    {
      "anonymous": false,
      "inputs": [
        {
          "indexed": false,
          "internalType": "string",
          "name": "value",
          "type": "string"
        },
        {
          "indexed": true,
          "internalType": "uint256",
          "name": "id",
          "type": "uint256"
        }
      ],
      "name": "URI",
      "type": "event"
    },
    {
      "anonymous": false,
      "inputs": [
        {
          "indexed": false,
          "internalType": "address",
          "name": "account",
          "type": "address"
        }
      ],
      "name": "Unpaused",
      "type": "event"
    },
    {
      "inputs": [
        {
          "internalType": "address",
          "name": "account",
          "type": "address"
        },
        {
          "internalType": "uint256",
          "name": "id",
          "type": "uint256"
        }
      ],
      "name": "balanceOf",
      "outputs": [
        {
          "internalType": "uint256",
          "name": "",
          "type": "uint256"
        }
      ],
      "stateMutability": "view",
      "type": "function"
    },
    {
      "inputs": [
        {
          "internalType": "address[]",
          "name": "accounts",
          "type": "address[]"
        },
        {
          "internalType": "uint256[]",
          "name": "ids",
          "type": "uint256[]"
        }
      ],
      "name": "balanceOfBatch",
      "outputs": [
        {
          "internalType": "uint256[]",
          "name": "",
          "type": "uint256[]"
        }
      ],
      "stateMutability": "view",
      "type": "function"
    },
    {
      "inputs": [],
      "name": "blockEstateAssetsAddress",
      "outputs": [
        {
          "internalType": "address",
          "name": "",
          "type": "address"
        }
      ],
      "stateMutability": "view",
      "type": "function"
    },
    {
      "inputs": [],
      "name": "blockEstateMarketAddress",
      "outputs": [
        {
          "internalType": "address",
          "name": "",
          "type": "address"
        }
      ],
      "stateMutability": "view",
      "type": "function"
    },
    {
      "inputs": [
        {
          "internalType": "address",
          "name": "account",
          "type": "address"
        },
        {
          "internalType": "uint256",
          "name": "id",
          "type": "uint256"
        },
        {
          "internalType": "uint256",
          "name": "value",
          "type": "uint256"
        }
      ],
      "name": "burn",
      "outputs": [],
      "stateMutability": "nonpayable",
      "type": "function"
    },
    {
      "inputs": [
        {
          "internalType": "address",
          "name": "account",
          "type": "address"
        },
        {
          "internalType": "uint256[]",
          "name": "ids",
          "type": "uint256[]"
        },
        {
          "internalType": "uint256[]",
          "name": "values",
          "type": "uint256[]"
        }
      ],
      "name": "burnBatch",
      "outputs": [],
      "stateMutability": "nonpayable",
      "type": "function"
    },
    {
      "inputs": [
        {
          "internalType": "uint256",
          "name": "tokenId",
          "type": "uint256"
        },
        {
          "internalType": "uint256",
          "name": "amount",
          "type": "uint256"
        }
      ],
      "name": "burnShares",
      "outputs": [],
      "stateMutability": "nonpayable",
      "type": "function"
    },
    {
      "inputs": [
        {
          "internalType": "uint256",
          "name": "tokenId",
          "type": "uint256"
        },
        {
          "internalType": "uint256",
          "name": "amount",
          "type": "uint256"
        }
      ],
      "name": "createShares",
      "outputs": [],
      "stateMutability": "nonpayable",
      "type": "function"
    },
    {
      "inputs": [
        {
          "internalType": "address",
          "name": "to",
          "type": "address"
        },
        {
          "internalType": "uint256",
          "name": "tokenId",
          "type": "uint256"
        }
      ],
      "name": "createSharesAtCreation",
      "outputs": [],
      "stateMutability": "nonpayable",
      "type": "function"
    },
    {
      "inputs": [
        {
          "internalType": "uint256",
          "name": "tokenId",
          "type": "uint256"
        },
        {
          "internalType": "address[]",
          "name": "holders",
          "type": "address[]"
        },
        {
          "internalType": "uint256[]",
          "name": "amounts",
          "type": "uint256[]"
        }
      ],
      "name": "createSharesBatch",
      "outputs": [],
      "stateMutability": "nonpayable",
      "type": "function"
    },
    {
      "inputs": [
        {
          "internalType": "uint256",
          "name": "id",
          "type": "uint256"
        }
      ],
      "name": "exists",
      "outputs": [
        {
          "internalType": "bool",
          "name": "",
          "type": "bool"
        }
      ],
      "stateMutability": "view",
      "type": "function"
    },
    {
      "inputs": [
        {
          "internalType": "address",
          "name": "account",
          "type": "address"
        },
        {
          "internalType": "address",
          "name": "operator",
          "type": "address"
        }
      ],
      "name": "isApprovedForAll",
      "outputs": [
        {
          "internalType": "bool",
          "name": "",
          "type": "bool"
        }
      ],
      "stateMutability": "view",
      "type": "function"
    },
    {
      "inputs": [],
      "name": "owner",
      "outputs": [
        {
          "internalType": "address",
          "name": "",
          "type": "address"
        }
      ],
      "stateMutability": "view",
      "type": "function"
    },
    {
      "inputs": [],
      "name": "pause",
      "outputs": [],
      "stateMutability": "nonpayable",
      "type": "function"
    },
    {
      "inputs": [],
      "name": "paused",
      "outputs": [
        {
          "internalType": "bool",
          "name": "",
          "type": "bool"
        }
      ],
      "stateMutability": "view",
      "type": "function"
    },
    {
      "inputs": [
        {
          "internalType": "uint256",
          "name": "tokenId",
          "type": "uint256"
        }
      ],
      "name": "readShareholdersByToken",
      "outputs": [
        {
          "internalType": "address[]",
          "name": "",
          "type": "address[]"
        }
      ],
      "stateMutability": "view",
      "type": "function"
    },
    {
      "inputs": [
        {
          "internalType": "address",
          "name": "holder",
          "type": "address"
        }
      ],
      "name": "readSharesByHolder",
      "outputs": [
        {
          "internalType": "uint256[]",
          "name": "",
          "type": "uint256[]"
        }
      ],
      "stateMutability": "view",
      "type": "function"
    },
    {
      "inputs": [],
      "name": "renounceOwnership",
      "outputs": [],
      "stateMutability": "nonpayable",
      "type": "function"
    },
    {
      "inputs": [
        {
          "internalType": "address",
          "name": "from",
          "type": "address"
        },
        {
          "internalType": "address",
          "name": "to",
          "type": "address"
        },
        {
          "internalType": "uint256[]",
          "name": "ids",
          "type": "uint256[]"
        },
        {
          "internalType": "uint256[]",
          "name": "amounts",
          "type": "uint256[]"
        },
        {
          "internalType": "bytes",
          "name": "data",
          "type": "bytes"
        }
      ],
      "name": "safeBatchTransferFrom",
      "outputs": [],
      "stateMutability": "nonpayable",
      "type": "function"
    },
    {
      "inputs": [
        {
          "internalType": "address",
          "name": "from",
          "type": "address"
        },
        {
          "internalType": "address",
          "name": "to",
          "type": "address"
        },
        {
          "internalType": "uint256",
          "name": "id",
          "type": "uint256"
        },
        {
          "internalType": "uint256",
          "name": "amount",
          "type": "uint256"
        },
        {
          "internalType": "bytes",
          "name": "data",
          "type": "bytes"
        }
      ],
      "name": "safeTransferFrom",
      "outputs": [],
      "stateMutability": "nonpayable",
      "type": "function"
    },
    {
      "inputs": [
        {
          "internalType": "address",
          "name": "operator",
          "type": "address"
        },
        {
          "internalType": "bool",
          "name": "approved",
          "type": "bool"
        }
      ],
      "name": "setApprovalForAll",
      "outputs": [],
      "stateMutability": "nonpayable",
      "type": "function"
    },
    {
      "inputs": [
        {
          "internalType": "address",
          "name": "_blockEstateMarketAddress",
          "type": "address"
        }
      ],
      "name": "setBlockEstateMarketAddress",
      "outputs": [],
      "stateMutability": "nonpayable",
      "type": "function"
    },
    {
      "inputs": [
        {
          "internalType": "string",
          "name": "newuri",
          "type": "string"
        }
      ],
      "name": "setURI",
      "outputs": [],
      "stateMutability": "nonpayable",
      "type": "function"
    },
    {
      "inputs": [
        {
          "internalType": "uint256",
          "name": "",
          "type": "uint256"
        },
        {
          "internalType": "uint256",
          "name": "",
          "type": "uint256"
        }
      ],
      "name": "shareholdersHistory",
      "outputs": [
        {
          "internalType": "address",
          "name": "",
          "type": "address"
        }
      ],
      "stateMutability": "view",
      "type": "function"
    },
    {
      "inputs": [
        {
          "internalType": "bytes4",
          "name": "interfaceId",
          "type": "bytes4"
        }
      ],
      "name": "supportsInterface",
      "outputs": [
        {
          "internalType": "bool",
          "name": "",
          "type": "bool"
        }
      ],
      "stateMutability": "view",
      "type": "function"
    },
    {
      "inputs": [
        {
          "internalType": "address",
          "name": "",
          "type": "address"
        },
        {
          "internalType": "uint256",
          "name": "",
          "type": "uint256"
        }
      ],
      "name": "tokenHistory",
      "outputs": [
        {
          "internalType": "uint256",
          "name": "",
          "type": "uint256"
        }
      ],
      "stateMutability": "view",
      "type": "function"
    },
    {
      "inputs": [
        {
          "internalType": "uint256",
          "name": "id",
          "type": "uint256"
        }
      ],
      "name": "totalSupply",
      "outputs": [
        {
          "internalType": "uint256",
          "name": "",
          "type": "uint256"
        }
      ],
      "stateMutability": "view",
      "type": "function"
    },
    {
      "inputs": [
        {
          "internalType": "uint256[]",
          "name": "tokenIds",
          "type": "uint256[]"
        }
      ],
      "name": "totalSupplyBatch",
      "outputs": [
        {
          "internalType": "uint256[]",
          "name": "",
          "type": "uint256[]"
        }
      ],
      "stateMutability": "view",
      "type": "function"
    },
    {
      "inputs": [
        {
          "internalType": "address",
          "name": "newOwner",
          "type": "address"
        }
      ],
      "name": "transferOwnership",
      "outputs": [],
      "stateMutability": "nonpayable",
      "type": "function"
    },
    {
      "inputs": [],
      "name": "unpause",
      "outputs": [],
      "stateMutability": "nonpayable",
      "type": "function"
    },
    {
      "inputs": [
        {
          "internalType": "uint256",
          "name": "",
          "type": "uint256"
        }
      ],
      "name": "uri",
      "outputs": [
        {
          "internalType": "string",
          "name": "",
          "type": "string"
        }
      ],
      "stateMutability": "view",
      "type": "function"
    }
  ],
  "bytecode": "0x60806040523480156200001157600080fd5b5060405162005bdd38038062005bdd833981810160405281019062000037919062000233565b60405180606001604052806034815260200162005ba9603491396200006281620000e660201b60201c565b506200008362000077620000fb60201b60201c565b6200010360201b60201c565b6000600360146101000a81548160ff02191690831515021790555080600560006101000a81548173ffffffffffffffffffffffffffffffffffffffff021916908373ffffffffffffffffffffffffffffffffffffffff16021790555050620005c6565b8060029081620000f79190620004df565b5050565b600033905090565b6000600360009054906101000a900473ffffffffffffffffffffffffffffffffffffffff16905081600360006101000a81548173ffffffffffffffffffffffffffffffffffffffff021916908373ffffffffffffffffffffffffffffffffffffffff1602179055508173ffffffffffffffffffffffffffffffffffffffff168173ffffffffffffffffffffffffffffffffffffffff167f8be0079c531659141344cd1fd0a4f28419497f9722a3daafe3b4186f6b6457e060405160405180910390a35050565b600080fd5b600073ffffffffffffffffffffffffffffffffffffffff82169050919050565b6000620001fb82620001ce565b9050919050565b6200020d81620001ee565b81146200021957600080fd5b50565b6000815190506200022d8162000202565b92915050565b6000602082840312156200024c576200024b620001c9565b5b60006200025c848285016200021c565b91505092915050565b600081519050919050565b7f4e487b7100000000000000000000000000000000000000000000000000000000600052604160045260246000fd5b7f4e487b7100000000000000000000000000000000000000000000000000000000600052602260045260246000fd5b60006002820490506001821680620002e757607f821691505b602082108103620002fd57620002fc6200029f565b5b50919050565b60008190508160005260206000209050919050565b60006020601f8301049050919050565b600082821b905092915050565b600060088302620003677fffffffffffffffffffffffffffffffffffffffffffffffffffffffffffffffff8262000328565b62000373868362000328565b95508019841693508086168417925050509392505050565b6000819050919050565b6000819050919050565b6000620003c0620003ba620003b4846200038b565b62000395565b6200038b565b9050919050565b6000819050919050565b620003dc836200039f565b620003f4620003eb82620003c7565b84845462000335565b825550505050565b600090565b6200040b620003fc565b62000418818484620003d1565b505050565b5b8181101562000440576200043460008262000401565b6001810190506200041e565b5050565b601f8211156200048f57620004598162000303565b620004648462000318565b8101602085101562000474578190505b6200048c620004838562000318565b8301826200041d565b50505b505050565b600082821c905092915050565b6000620004b46000198460080262000494565b1980831691505092915050565b6000620004cf8383620004a1565b9150826002028217905092915050565b620004ea8262000265565b67ffffffffffffffff81111562000506576200050562000270565b5b620005128254620002ce565b6200051f82828562000444565b600060209050601f83116001811462000557576000841562000542578287015190505b6200054e8582620004c1565b865550620005be565b601f198416620005678662000303565b60005b8281101562000591578489015182556001820191506020850194506020810190506200056a565b86831015620005b15784890151620005ad601f891682620004a1565b8355505b6001600288020188555050505b505050505050565b6155d380620005d66000396000f3fe608060405234801561001057600080fd5b50600436106101e45760003560e01c80636d1fdfd01161010f578063a22cb465116100a2578063e985e9c511610071578063e985e9c51461058b578063f242432a146105bb578063f2fde38b146105d7578063f5298aca146105f3576101e4565b8063a22cb465146104f3578063b8cbbd901461050f578063bd85b0391461053f578063db55138d1461056f576101e4565b80637e25349b116100de5780637e25349b1461047d5780638456cb59146104ad5780638947473f146104b75780638da5cb5b146104d5576101e4565b80636d1fdfd01461040b578063715018a61461042757806377954ac2146104315780637c6f512714610461576101e4565b80634cfe601a116101875780635ed8bcbf116101565780635ed8bcbf14610385578063634837e7146103a15780636b20c454146103d15780636b78018b146103ed576101e4565b80634cfe601a146102eb5780634e1273f4146103075780634f558e79146103375780635c975abb14610367576101e4565b80630e89341c116101c35780630e89341c146102655780632eb2c2d6146102955780633f4ba83a146102b157806343e4c8cc146102bb576101e4565b8062fdd58e146101e957806301ffc9a71461021957806302fe530514610249575b600080fd5b61020360048036038101906101fe9190613522565b61060f565b6040516102109190613571565b60405180910390f35b610233600480360381019061022e91906135e4565b6106d7565b604051610240919061362c565b60405180910390f35b610263600480360381019061025e919061378d565b6107b9565b005b61027f600480360381019061027a91906137d6565b6107cd565b60405161028c9190613882565b60405180910390f35b6102af60048036038101906102aa9190613a0d565b610861565b005b6102b9610902565b005b6102d560048036038101906102d091906137d6565b610914565b6040516102e29190613b9a565b60405180910390f35b61030560048036038101906103009190613bbc565b6109b5565b005b610321600480360381019061031c9190613cac565b610a2e565b60405161032e9190613de2565b60405180910390f35b610351600480360381019061034c91906137d6565b610b47565b60405161035e919061362c565b60405180910390f35b61036f610b5b565b60405161037c919061362c565b60405180910390f35b61039f600480360381019061039a9190613e04565b610b72565b005b6103bb60048036038101906103b69190613bbc565b610d4c565b6040516103c89190613de2565b60405180910390f35b6103eb60048036038101906103e69190613e8f565b610de3565b005b6103f5610e80565b6040516104029190613f29565b60405180910390f35b61042560048036038101906104209190613522565b610ea6565b005b61042f610f56565b005b61044b60048036038101906104469190613f44565b610f6a565b6040516104589190613de2565b60405180910390f35b61047b60048036038101906104769190613f8d565b611025565b005b61049760048036038101906104929190613522565b611034565b6040516104a49190613571565b60405180910390f35b6104b5611065565b005b6104bf611077565b6040516104cc9190613f29565b60405180910390f35b6104dd61109d565b6040516104ea9190613f29565b60405180910390f35b61050d60048036038101906105089190613ff9565b6110c7565b005b61052960048036038101906105249190613f8d565b6110dd565b6040516105369190613f29565b60405180910390f35b610559600480360381019061055491906137d6565b61112b565b6040516105669190613571565b60405180910390f35b61058960048036038101906105849190613f8d565b611148565b005b6105a560048036038101906105a09190614039565b6112b3565b6040516105b2919061362c565b60405180910390f35b6105d560048036038101906105d09190614079565b611347565b005b6105f160048036038101906105ec9190613bbc565b6113e8565b005b61060d60048036038101906106089190614110565b61146b565b005b60008073ffffffffffffffffffffffffffffffffffffffff168373ffffffffffffffffffffffffffffffffffffffff160361067f576040517f08c379a0000000000000000000000000000000000000000000000000000000008152600401610676906141d5565b60405180910390fd5b60008083815260200190815260200160002060008473ffffffffffffffffffffffffffffffffffffffff1673ffffffffffffffffffffffffffffffffffffffff16815260200190815260200160002054905092915050565b60007fd9b67a26000000000000000000000000000000000000000000000000000000007bffffffffffffffffffffffffffffffffffffffffffffffffffffffff1916827bffffffffffffffffffffffffffffffffffffffffffffffffffffffff191614806107a257507f0e89341c000000000000000000000000000000000000000000000000000000007bffffffffffffffffffffffffffffffffffffffffffffffffffffffff1916827bffffffffffffffffffffffffffffffffffffffffffffffffffffffff1916145b806107b257506107b182611508565b5b9050919050565b6107c1611572565b6107ca816115f0565b50565b6060600280546107dc90614224565b80601f016020809104026020016040519081016040528092919081815260200182805461080890614224565b80156108555780601f1061082a57610100808354040283529160200191610855565b820191906000526020600020905b81548152906001019060200180831161083857829003601f168201915b50505050509050919050565b610869611603565b73ffffffffffffffffffffffffffffffffffffffff168573ffffffffffffffffffffffffffffffffffffffff1614806108af57506108ae856108a9611603565b6112b3565b5b6108ee576040517f08c379a00000000000000000000000000000000000000000000000000000000081526004016108e5906142c7565b60405180910390fd5b6108fb858585858561160b565b5050505050565b61090a611572565b61091261192c565b565b6060600760008381526020019081526020016000208054806020026020016040519081016040528092919081815260200182805480156109a957602002820191906000526020600020905b8160009054906101000a900473ffffffffffffffffffffffffffffffffffffffff1673ffffffffffffffffffffffffffffffffffffffff168152602001906001019080831161095f575b50505050509050919050565b6109bd611572565b80600660006101000a81548173ffffffffffffffffffffffffffffffffffffffff021916908373ffffffffffffffffffffffffffffffffffffffff160217905550610a2b600660009054906101000a900473ffffffffffffffffffffffffffffffffffffffff1660016110c7565b50565b60608151835114610a74576040517f08c379a0000000000000000000000000000000000000000000000000000000008152600401610a6b90614359565b60405180910390fd5b6000835167ffffffffffffffff811115610a9157610a90613662565b5b604051908082528060200260200182016040528015610abf5781602001602082028036833780820191505090505b50905060005b8451811015610b3c57610b0c858281518110610ae457610ae3614379565b5b6020026020010151858381518110610aff57610afe614379565b5b602002602001015161060f565b828281518110610b1f57610b1e614379565b5b60200260200101818152505080610b35906143d7565b9050610ac5565b508091505092915050565b600080610b538361112b565b119050919050565b6000600360149054906101000a900460ff16905090565b3373ffffffffffffffffffffffffffffffffffffffff16600560009054906101000a900473ffffffffffffffffffffffffffffffffffffffff1673ffffffffffffffffffffffffffffffffffffffff16636352211e856040518263ffffffff1660e01b8152600401610be49190613571565b602060405180830381865afa158015610c01573d6000803e3d6000fd5b505050506040513d601f19601f82011682018060405250810190610c259190614434565b73ffffffffffffffffffffffffffffffffffffffff1614610c7b576040517f08c379a0000000000000000000000000000000000000000000000000000000008152600401610c72906144ad565b60405180910390fd5b60005b8251811015610d46576000828281518110610c9c57610c9b614379565b5b602002602001015111610ce4576040517f08c379a0000000000000000000000000000000000000000000000000000000008152600401610cdb90614519565b60405180910390fd5b610d33838281518110610cfa57610cf9614379565b5b602002602001015185848481518110610d1657610d15614379565b5b60200260200101516040518060200160405280600081525061198f565b8080610d3e906143d7565b915050610c7e565b50505050565b6060600860008373ffffffffffffffffffffffffffffffffffffffff1673ffffffffffffffffffffffffffffffffffffffff168152602001908152602001600020805480602002602001604051908101604052809291908181526020018280548015610dd757602002820191906000526020600020905b815481526020019060010190808311610dc3575b50505050509050919050565b610deb611603565b73ffffffffffffffffffffffffffffffffffffffff168373ffffffffffffffffffffffffffffffffffffffff161480610e315750610e3083610e2b611603565b6112b3565b5b610e70576040517f08c379a0000000000000000000000000000000000000000000000000000000008152600401610e67906142c7565b60405180910390fd5b610e7b838383611b3f565b505050565b600560009054906101000a900473ffffffffffffffffffffffffffffffffffffffff1681565b600560009054906101000a900473ffffffffffffffffffffffffffffffffffffffff1673ffffffffffffffffffffffffffffffffffffffff163373ffffffffffffffffffffffffffffffffffffffff1614610f36576040517f08c379a0000000000000000000000000000000000000000000000000000000008152600401610f2d906145ab565b60405180910390fd5b610f52828260646040518060200160405280600081525061198f565b5050565b610f5e611572565b610f686000611e0d565b565b60606000825167ffffffffffffffff811115610f8957610f88613662565b5b604051908082528060200260200182016040528015610fb75781602001602082028036833780820191505090505b50905060005b835181101561101b57610fe9848281518110610fdc57610fdb614379565b5b602002602001015161112b565b828281518110610ffc57610ffb614379565b5b6020026020010181815250508080611013906143d7565b915050610fbd565b5080915050919050565b61103033838361146b565b5050565b6008602052816000526040600020818154811061105057600080fd5b90600052602060002001600091509150505481565b61106d611572565b611075611ed3565b565b600660009054906101000a900473ffffffffffffffffffffffffffffffffffffffff1681565b6000600360009054906101000a900473ffffffffffffffffffffffffffffffffffffffff16905090565b6110d96110d2611603565b8383611f36565b5050565b600760205281600052604060002081815481106110f957600080fd5b906000526020600020016000915091509054906101000a900473ffffffffffffffffffffffffffffffffffffffff1681565b600060046000838152602001908152602001600020549050919050565b3373ffffffffffffffffffffffffffffffffffffffff16600560009054906101000a900473ffffffffffffffffffffffffffffffffffffffff1673ffffffffffffffffffffffffffffffffffffffff16636352211e846040518263ffffffff1660e01b81526004016111ba9190613571565b602060405180830381865afa1580156111d7573d6000803e3d6000fd5b505050506040513d601f19601f820116820180604052508101906111fb9190614434565b73ffffffffffffffffffffffffffffffffffffffff1614611251576040517f08c379a0000000000000000000000000000000000000000000000000000000008152600401611248906144ad565b60405180910390fd5b60008111611294576040517f08c379a000000000000000000000000000000000000000000000000000000000815260040161128b90614519565b60405180910390fd5b6112af3383836040518060200160405280600081525061198f565b5050565b6000600160008473ffffffffffffffffffffffffffffffffffffffff1673ffffffffffffffffffffffffffffffffffffffff16815260200190815260200160002060008373ffffffffffffffffffffffffffffffffffffffff1673ffffffffffffffffffffffffffffffffffffffff16815260200190815260200160002060009054906101000a900460ff16905092915050565b61134f611603565b73ffffffffffffffffffffffffffffffffffffffff168573ffffffffffffffffffffffffffffffffffffffff16148061139557506113948561138f611603565b6112b3565b5b6113d4576040517f08c379a00000000000000000000000000000000000000000000000000000000081526004016113cb906142c7565b60405180910390fd5b6113e185858585856120a2565b5050505050565b6113f0611572565b600073ffffffffffffffffffffffffffffffffffffffff168173ffffffffffffffffffffffffffffffffffffffff160361145f576040517f08c379a00000000000000000000000000000000000000000000000000000000081526004016114569061463d565b60405180910390fd5b61146881611e0d565b50565b611473611603565b73ffffffffffffffffffffffffffffffffffffffff168373ffffffffffffffffffffffffffffffffffffffff1614806114b957506114b8836114b3611603565b6112b3565b5b6114f8576040517f08c379a00000000000000000000000000000000000000000000000000000000081526004016114ef906142c7565b60405180910390fd5b61150383838361233d565b505050565b60007f01ffc9a7000000000000000000000000000000000000000000000000000000007bffffffffffffffffffffffffffffffffffffffffffffffffffffffff1916827bffffffffffffffffffffffffffffffffffffffffffffffffffffffff1916149050919050565b61157a611603565b73ffffffffffffffffffffffffffffffffffffffff1661159861109d565b73ffffffffffffffffffffffffffffffffffffffff16146115ee576040517f08c379a00000000000000000000000000000000000000000000000000000000081526004016115e5906146a9565b60405180910390fd5b565b80600290816115ff9190614875565b5050565b600033905090565b815183511461164f576040517f08c379a0000000000000000000000000000000000000000000000000000000008152600401611646906149b9565b60405180910390fd5b600073ffffffffffffffffffffffffffffffffffffffff168473ffffffffffffffffffffffffffffffffffffffff16036116be576040517f08c379a00000000000000000000000000000000000000000000000000000000081526004016116b590614a4b565b60405180910390fd5b60006116c8611603565b90506116d8818787878787612583565b60005b84518110156118895760008582815181106116f9576116f8614379565b5b60200260200101519050600085838151811061171857611717614379565b5b60200260200101519050600080600084815260200190815260200160002060008b73ffffffffffffffffffffffffffffffffffffffff1673ffffffffffffffffffffffffffffffffffffffff168152602001908152602001600020549050818110156117b9576040517f08c379a00000000000000000000000000000000000000000000000000000000081526004016117b090614add565b60405180910390fd5b81810360008085815260200190815260200160002060008c73ffffffffffffffffffffffffffffffffffffffff1673ffffffffffffffffffffffffffffffffffffffff168152602001908152602001600020819055508160008085815260200190815260200160002060008b73ffffffffffffffffffffffffffffffffffffffff1673ffffffffffffffffffffffffffffffffffffffff168152602001908152602001600020600082825461186e9190614afd565b9250508190555050505080611882906143d7565b90506116db565b508473ffffffffffffffffffffffffffffffffffffffff168673ffffffffffffffffffffffffffffffffffffffff168273ffffffffffffffffffffffffffffffffffffffff167f4a39dc06d4c0dbc64b70af90fd698a233a518aa5d07e595d983b8c0526c8f7fb8787604051611900929190614b31565b60405180910390a46119168187878787876128c0565b611924818787878787612dbc565b505050505050565b611934612f93565b6000600360146101000a81548160ff0219169083151502179055507f5db9ee0a495bf2e6ff9c91a7834c1ba4fdd244a5e8aa4e537bd38aeae4b073aa611978611603565b6040516119859190613f29565b60405180910390a1565b600073ffffffffffffffffffffffffffffffffffffffff168473ffffffffffffffffffffffffffffffffffffffff16036119fe576040517f08c379a00000000000000000000000000000000000000000000000000000000081526004016119f590614bda565b60405180910390fd5b6000611a08611603565b90506000611a1585612fdc565b90506000611a2285612fdc565b9050611a3383600089858589612583565b8460008088815260200190815260200160002060008973ffffffffffffffffffffffffffffffffffffffff1673ffffffffffffffffffffffffffffffffffffffff1681526020019081526020016000206000828254611a929190614afd565b925050819055508673ffffffffffffffffffffffffffffffffffffffff16600073ffffffffffffffffffffffffffffffffffffffff168473ffffffffffffffffffffffffffffffffffffffff167fc3d58168c5ae7397731d063d5bbf3d657854427343f4c083240f7aacaa2d0f628989604051611b10929190614bfa565b60405180910390a4611b27836000898585896128c0565b611b3683600089898989613056565b50505050505050565b600073ffffffffffffffffffffffffffffffffffffffff168373ffffffffffffffffffffffffffffffffffffffff1603611bae576040517f08c379a0000000000000000000000000000000000000000000000000000000008152600401611ba590614c95565b60405180910390fd5b8051825114611bf2576040517f08c379a0000000000000000000000000000000000000000000000000000000008152600401611be9906149b9565b60405180910390fd5b6000611bfc611603565b9050611c1c81856000868660405180602001604052806000815250612583565b60005b8351811015611d69576000848281518110611c3d57611c3c614379565b5b602002602001015190506000848381518110611c5c57611c5b614379565b5b60200260200101519050600080600084815260200190815260200160002060008973ffffffffffffffffffffffffffffffffffffffff1673ffffffffffffffffffffffffffffffffffffffff16815260200190815260200160002054905081811015611cfd576040517f08c379a0000000000000000000000000000000000000000000000000000000008152600401611cf490614d27565b60405180910390fd5b81810360008085815260200190815260200160002060008a73ffffffffffffffffffffffffffffffffffffffff1673ffffffffffffffffffffffffffffffffffffffff168152602001908152602001600020819055505050508080611d61906143d7565b915050611c1f565b50600073ffffffffffffffffffffffffffffffffffffffff168473ffffffffffffffffffffffffffffffffffffffff168273ffffffffffffffffffffffffffffffffffffffff167f4a39dc06d4c0dbc64b70af90fd698a233a518aa5d07e595d983b8c0526c8f7fb8686604051611de1929190614b31565b60405180910390a4611e07818560008686604051806020016040528060008152506128c0565b50505050565b6000600360009054906101000a900473ffffffffffffffffffffffffffffffffffffffff16905081600360006101000a81548173ffffffffffffffffffffffffffffffffffffffff021916908373ffffffffffffffffffffffffffffffffffffffff1602179055508173ffffffffffffffffffffffffffffffffffffffff168173ffffffffffffffffffffffffffffffffffffffff167f8be0079c531659141344cd1fd0a4f28419497f9722a3daafe3b4186f6b6457e060405160405180910390a35050565b611edb61322d565b6001600360146101000a81548160ff0219169083151502179055507f62e78cea01bee320cd4e420270b5ea74000d11b0c9f74754ebdbfc544b05a258611f1f611603565b604051611f2c9190613f29565b60405180910390a1565b8173ffffffffffffffffffffffffffffffffffffffff168373ffffffffffffffffffffffffffffffffffffffff1603611fa4576040517f08c379a0000000000000000000000000000000000000000000000000000000008152600401611f9b90614db9565b60405180910390fd5b80600160008573ffffffffffffffffffffffffffffffffffffffff1673ffffffffffffffffffffffffffffffffffffffff16815260200190815260200160002060008473ffffffffffffffffffffffffffffffffffffffff1673ffffffffffffffffffffffffffffffffffffffff16815260200190815260200160002060006101000a81548160ff0219169083151502179055508173ffffffffffffffffffffffffffffffffffffffff168373ffffffffffffffffffffffffffffffffffffffff167f17307eab39ab6107e8899845ad3d59bd9653f200f220920489ca2b5937696c3183604051612095919061362c565b60405180910390a3505050565b600073ffffffffffffffffffffffffffffffffffffffff168473ffffffffffffffffffffffffffffffffffffffff1603612111576040517f08c379a000000000000000000000000000000000000000000000000000000000815260040161210890614a4b565b60405180910390fd5b600061211b611603565b9050600061212885612fdc565b9050600061213585612fdc565b9050612145838989858589612583565b600080600088815260200190815260200160002060008a73ffffffffffffffffffffffffffffffffffffffff1673ffffffffffffffffffffffffffffffffffffffff168152602001908152602001600020549050858110156121dc576040517f08c379a00000000000000000000000000000000000000000000000000000000081526004016121d390614add565b60405180910390fd5b85810360008089815260200190815260200160002060008b73ffffffffffffffffffffffffffffffffffffffff1673ffffffffffffffffffffffffffffffffffffffff168152602001908152602001600020819055508560008089815260200190815260200160002060008a73ffffffffffffffffffffffffffffffffffffffff1673ffffffffffffffffffffffffffffffffffffffff16815260200190815260200160002060008282546122919190614afd565b925050819055508773ffffffffffffffffffffffffffffffffffffffff168973ffffffffffffffffffffffffffffffffffffffff168573ffffffffffffffffffffffffffffffffffffffff167fc3d58168c5ae7397731d063d5bbf3d657854427343f4c083240f7aacaa2d0f628a8a60405161230e929190614bfa565b60405180910390a4612324848a8a86868a6128c0565b612332848a8a8a8a8a613056565b505050505050505050565b600073ffffffffffffffffffffffffffffffffffffffff168373ffffffffffffffffffffffffffffffffffffffff16036123ac576040517f08c379a00000000000000000000000000000000000000000000000000000000081526004016123a390614c95565b60405180910390fd5b60006123b6611603565b905060006123c384612fdc565b905060006123d084612fdc565b90506123f083876000858560405180602001604052806000815250612583565b600080600087815260200190815260200160002060008873ffffffffffffffffffffffffffffffffffffffff1673ffffffffffffffffffffffffffffffffffffffff16815260200190815260200160002054905084811015612487576040517f08c379a000000000000000000000000000000000000000000000000000000000815260040161247e90614d27565b60405180910390fd5b84810360008088815260200190815260200160002060008973ffffffffffffffffffffffffffffffffffffffff1673ffffffffffffffffffffffffffffffffffffffff16815260200190815260200160002081905550600073ffffffffffffffffffffffffffffffffffffffff168773ffffffffffffffffffffffffffffffffffffffff168573ffffffffffffffffffffffffffffffffffffffff167fc3d58168c5ae7397731d063d5bbf3d657854427343f4c083240f7aacaa2d0f628989604051612554929190614bfa565b60405180910390a461257a848860008686604051806020016040528060008152506128c0565b50505050505050565b61258b61322d565b612599868686868686613277565b60005b83518110156128b757600073ffffffffffffffffffffffffffffffffffffffff168573ffffffffffffffffffffffffffffffffffffffff161461265e57600860008673ffffffffffffffffffffffffffffffffffffffff1673ffffffffffffffffffffffffffffffffffffffff16815260200190815260200160002084828151811061262b5761262a614379565b5b602002602001015190806001815401808255809150506001900390600052602060002001600090919091909150556128a4565b6000600660009054906101000a900473ffffffffffffffffffffffffffffffffffffffff1673ffffffffffffffffffffffffffffffffffffffff1663d956c104886040518263ffffffff1660e01b81526004016126bb9190613f29565b600060405180830381865afa1580156126d8573d6000803e3d6000fd5b505050506040513d6000823e3d601f19601f820116820180604052508101906127019190614f6b565b905060006127298887858151811061271c5761271b614379565b5b602002602001015161060f565b905084838151811061273e5761273d614379565b5b6020026020010151811015612788576040517f08c379a000000000000000000000000000000000000000000000000000000000815260040161277f90615000565b60405180910390fd5b6000805b8351811015612814578785815181106127a8576127a7614379565b5b60200260200101518482815181106127c3576127c2614379565b5b60200260200101516020015103612801578381815181106127e7576127e6614379565b5b602002602001015160600151826127fe9190614afd565b91505b808061280c906143d7565b91505061278c565b508086858151811061282957612828614379565b5b60200260200101516128558b8a888151811061284857612847614379565b5b602002602001015161060f565b61285f9190615020565b10156128a0576040517f08c379a0000000000000000000000000000000000000000000000000000000008152600401612897906150a0565b60405180910390fd5b5050505b80806128af906143d7565b91505061259c565b50505050505050565b6128ce868686868686613447565b60005b8351811015612db357600073ffffffffffffffffffffffffffffffffffffffff168573ffffffffffffffffffffffffffffffffffffffff161461299d576007600085838151811061292557612924614379565b5b60200260200101518152602001908152602001600020859080600181540180825580915050600190039060005260206000200160009091909190916101000a81548173ffffffffffffffffffffffffffffffffffffffff021916908373ffffffffffffffffffffffffffffffffffffffff1602179055505b6000600760008684815181106129b6576129b5614379565b5b60200260200101518152602001908152602001600020805480602002602001604051908101604052809291908181526020018280548015612a4c57602002820191906000526020600020905b8160009054906101000a900473ffffffffffffffffffffffffffffffffffffffff1673ffffffffffffffffffffffffffffffffffffffff1681526020019060010190808311612a02575b5050505050905060008060005b8351811015612b185782612aa1858381518110612a7957612a78614379565b5b60200260200101518a8881518110612a9457612a93614379565b5b602002602001015161060f565b1115612b0557612ae5848281518110612abd57612abc614379565b5b6020026020010151898781518110612ad857612ad7614379565b5b602002602001015161060f565b9250838181518110612afa57612af9614379565b5b602002602001015191505b8080612b10906143d7565b915050612a59565b50600073ffffffffffffffffffffffffffffffffffffffff168173ffffffffffffffffffffffffffffffffffffffff1614158015612c375750600560009054906101000a900473ffffffffffffffffffffffffffffffffffffffff1673ffffffffffffffffffffffffffffffffffffffff16636352211e888681518110612ba257612ba1614379565b5b60200260200101516040518263ffffffff1660e01b8152600401612bc69190613571565b602060405180830381865afa158015612be3573d6000803e3d6000fd5b505050506040513d601f19601f82011682018060405250810190612c079190614434565b73ffffffffffffffffffffffffffffffffffffffff168173ffffffffffffffffffffffffffffffffffffffff1614155b15612d9d57600560009054906101000a900473ffffffffffffffffffffffffffffffffffffffff1673ffffffffffffffffffffffffffffffffffffffff166342842e0e600560009054906101000a900473ffffffffffffffffffffffffffffffffffffffff1673ffffffffffffffffffffffffffffffffffffffff16636352211e8a8881518110612ccb57612cca614379565b5b60200260200101516040518263ffffffff1660e01b8152600401612cef9190613571565b602060405180830381865afa158015612d0c573d6000803e3d6000fd5b505050506040513d601f19601f82011682018060405250810190612d309190614434565b838a8881518110612d4457612d43614379565b5b60200260200101516040518463ffffffff1660e01b8152600401612d6a939291906150c0565b600060405180830381600087803b158015612d8457600080fd5b505af1158015612d98573d6000803e3d6000fd5b505050505b5050508080612dab906143d7565b9150506128d1565b50505050505050565b612ddb8473ffffffffffffffffffffffffffffffffffffffff1661344f565b15612f8b578373ffffffffffffffffffffffffffffffffffffffff1663bc197c8187878686866040518663ffffffff1660e01b8152600401612e2195949392919061514c565b6020604051808303816000875af1925050508015612e5d57506040513d601f19601f82011682018060405250810190612e5a91906151c9565b60015b612f0257612e69615203565b806308c379a003612ec55750612e7d615225565b80612e885750612ec7565b806040517f08c379a0000000000000000000000000000000000000000000000000000000008152600401612ebc9190613882565b60405180910390fd5b505b6040517f08c379a0000000000000000000000000000000000000000000000000000000008152600401612ef990615327565b60405180910390fd5b63bc197c8160e01b7bffffffffffffffffffffffffffffffffffffffffffffffffffffffff1916817bffffffffffffffffffffffffffffffffffffffffffffffffffffffff191614612f89576040517f08c379a0000000000000000000000000000000000000000000000000000000008152600401612f80906153b9565b60405180910390fd5b505b505050505050565b612f9b610b5b565b612fda576040517f08c379a0000000000000000000000000000000000000000000000000000000008152600401612fd190615425565b60405180910390fd5b565b60606000600167ffffffffffffffff811115612ffb57612ffa613662565b5b6040519080825280602002602001820160405280156130295781602001602082028036833780820191505090505b509050828160008151811061304157613040614379565b5b60200260200101818152505080915050919050565b6130758473ffffffffffffffffffffffffffffffffffffffff1661344f565b15613225578373ffffffffffffffffffffffffffffffffffffffff1663f23a6e6187878686866040518663ffffffff1660e01b81526004016130bb959493929190615445565b6020604051808303816000875af19250505080156130f757506040513d601f19601f820116820180604052508101906130f491906151c9565b60015b61319c57613103615203565b806308c379a00361315f5750613117615225565b806131225750613161565b806040517f08c379a00000000000000000000000000000000000000000000000000000000081526004016131569190613882565b60405180910390fd5b505b6040517f08c379a000000000000000000000000000000000000000000000000000000000815260040161319390615327565b60405180910390fd5b63f23a6e6160e01b7bffffffffffffffffffffffffffffffffffffffffffffffffffffffff1916817bffffffffffffffffffffffffffffffffffffffffffffffffffffffff191614613223576040517f08c379a000000000000000000000000000000000000000000000000000000000815260040161321a906153b9565b60405180910390fd5b505b505050505050565b613235610b5b565b15613275576040517f08c379a000000000000000000000000000000000000000000000000000000000815260040161326c906154eb565b60405180910390fd5b565b613285868686868686613472565b600073ffffffffffffffffffffffffffffffffffffffff168573ffffffffffffffffffffffffffffffffffffffff16036133365760005b8351811015613334578281815181106132d8576132d7614379565b5b6020026020010151600460008684815181106132f7576132f6614379565b5b60200260200101518152602001908152602001600020600082825461331c9190614afd565b925050819055508061332d906143d7565b90506132bc565b505b600073ffffffffffffffffffffffffffffffffffffffff168473ffffffffffffffffffffffffffffffffffffffff160361343f5760005b835181101561343d57600084828151811061338b5761338a614379565b5b6020026020010151905060008483815181106133aa576133a9614379565b5b602002602001015190506000600460008481526020019081526020016000205490508181101561340f576040517f08c379a00000000000000000000000000000000000000000000000000000000081526004016134069061557d565b60405180910390fd5b818103600460008581526020019081526020016000208190555050505080613436906143d7565b905061336d565b505b505050505050565b505050505050565b6000808273ffffffffffffffffffffffffffffffffffffffff163b119050919050565b505050505050565b6000604051905090565b600080fd5b600080fd5b600073ffffffffffffffffffffffffffffffffffffffff82169050919050565b60006134b98261348e565b9050919050565b6134c9816134ae565b81146134d457600080fd5b50565b6000813590506134e6816134c0565b92915050565b6000819050919050565b6134ff816134ec565b811461350a57600080fd5b50565b60008135905061351c816134f6565b92915050565b6000806040838503121561353957613538613484565b5b6000613547858286016134d7565b92505060206135588582860161350d565b9150509250929050565b61356b816134ec565b82525050565b60006020820190506135866000830184613562565b92915050565b60007fffffffff0000000000000000000000000000000000000000000000000000000082169050919050565b6135c18161358c565b81146135cc57600080fd5b50565b6000813590506135de816135b8565b92915050565b6000602082840312156135fa576135f9613484565b5b6000613608848285016135cf565b91505092915050565b60008115159050919050565b61362681613611565b82525050565b6000602082019050613641600083018461361d565b92915050565b600080fd5b600080fd5b6000601f19601f8301169050919050565b7f4e487b7100000000000000000000000000000000000000000000000000000000600052604160045260246000fd5b61369a82613651565b810181811067ffffffffffffffff821117156136b9576136b8613662565b5b80604052505050565b60006136cc61347a565b90506136d88282613691565b919050565b600067ffffffffffffffff8211156136f8576136f7613662565b5b61370182613651565b9050602081019050919050565b82818337600083830152505050565b600061373061372b846136dd565b6136c2565b90508281526020810184848401111561374c5761374b61364c565b5b61375784828561370e565b509392505050565b600082601f83011261377457613773613647565b5b813561378484826020860161371d565b91505092915050565b6000602082840312156137a3576137a2613484565b5b600082013567ffffffffffffffff8111156137c1576137c0613489565b5b6137cd8482850161375f565b91505092915050565b6000602082840312156137ec576137eb613484565b5b60006137fa8482850161350d565b91505092915050565b600081519050919050565b600082825260208201905092915050565b60005b8381101561383d578082015181840152602081019050613822565b60008484015250505050565b600061385482613803565b61385e818561380e565b935061386e81856020860161381f565b61387781613651565b840191505092915050565b6000602082019050818103600083015261389c8184613849565b905092915050565b600067ffffffffffffffff8211156138bf576138be613662565b5b602082029050602081019050919050565b600080fd5b60006138e86138e3846138a4565b6136c2565b9050808382526020820190506020840283018581111561390b5761390a6138d0565b5b835b818110156139345780613920888261350d565b84526020840193505060208101905061390d565b5050509392505050565b600082601f83011261395357613952613647565b5b81356139638482602086016138d5565b91505092915050565b600067ffffffffffffffff82111561398757613986613662565b5b61399082613651565b9050602081019050919050565b60006139b06139ab8461396c565b6136c2565b9050828152602081018484840111156139cc576139cb61364c565b5b6139d784828561370e565b509392505050565b600082601f8301126139f4576139f3613647565b5b8135613a0484826020860161399d565b91505092915050565b600080600080600060a08688031215613a2957613a28613484565b5b6000613a37888289016134d7565b9550506020613a48888289016134d7565b945050604086013567ffffffffffffffff811115613a6957613a68613489565b5b613a758882890161393e565b935050606086013567ffffffffffffffff811115613a9657613a95613489565b5b613aa28882890161393e565b925050608086013567ffffffffffffffff811115613ac357613ac2613489565b5b613acf888289016139df565b9150509295509295909350565b600081519050919050565b600082825260208201905092915050565b6000819050602082019050919050565b613b11816134ae565b82525050565b6000613b238383613b08565b60208301905092915050565b6000602082019050919050565b6000613b4782613adc565b613b518185613ae7565b9350613b5c83613af8565b8060005b83811015613b8d578151613b748882613b17565b9750613b7f83613b2f565b925050600181019050613b60565b5085935050505092915050565b60006020820190508181036000830152613bb48184613b3c565b905092915050565b600060208284031215613bd257613bd1613484565b5b6000613be0848285016134d7565b91505092915050565b600067ffffffffffffffff821115613c0457613c03613662565b5b602082029050602081019050919050565b6000613c28613c2384613be9565b6136c2565b90508083825260208201905060208402830185811115613c4b57613c4a6138d0565b5b835b81811015613c745780613c6088826134d7565b845260208401935050602081019050613c4d565b5050509392505050565b600082601f830112613c9357613c92613647565b5b8135613ca3848260208601613c15565b91505092915050565b60008060408385031215613cc357613cc2613484565b5b600083013567ffffffffffffffff811115613ce157613ce0613489565b5b613ced85828601613c7e565b925050602083013567ffffffffffffffff811115613d0e57613d0d613489565b5b613d1a8582860161393e565b9150509250929050565b600081519050919050565b600082825260208201905092915050565b6000819050602082019050919050565b613d59816134ec565b82525050565b6000613d6b8383613d50565b60208301905092915050565b6000602082019050919050565b6000613d8f82613d24565b613d998185613d2f565b9350613da483613d40565b8060005b83811015613dd5578151613dbc8882613d5f565b9750613dc783613d77565b925050600181019050613da8565b5085935050505092915050565b60006020820190508181036000830152613dfc8184613d84565b905092915050565b600080600060608486031215613e1d57613e1c613484565b5b6000613e2b8682870161350d565b935050602084013567ffffffffffffffff811115613e4c57613e4b613489565b5b613e5886828701613c7e565b925050604084013567ffffffffffffffff811115613e7957613e78613489565b5b613e858682870161393e565b9150509250925092565b600080600060608486031215613ea857613ea7613484565b5b6000613eb6868287016134d7565b935050602084013567ffffffffffffffff811115613ed757613ed6613489565b5b613ee38682870161393e565b925050604084013567ffffffffffffffff811115613f0457613f03613489565b5b613f108682870161393e565b9150509250925092565b613f23816134ae565b82525050565b6000602082019050613f3e6000830184613f1a565b92915050565b600060208284031215613f5a57613f59613484565b5b600082013567ffffffffffffffff811115613f7857613f77613489565b5b613f848482850161393e565b91505092915050565b60008060408385031215613fa457613fa3613484565b5b6000613fb28582860161350d565b9250506020613fc38582860161350d565b9150509250929050565b613fd681613611565b8114613fe157600080fd5b50565b600081359050613ff381613fcd565b92915050565b600080604083850312156140105761400f613484565b5b600061401e858286016134d7565b925050602061402f85828601613fe4565b9150509250929050565b600080604083850312156140505761404f613484565b5b600061405e858286016134d7565b925050602061406f858286016134d7565b9150509250929050565b600080600080600060a0868803121561409557614094613484565b5b60006140a3888289016134d7565b95505060206140b4888289016134d7565b94505060406140c58882890161350d565b93505060606140d68882890161350d565b925050608086013567ffffffffffffffff8111156140f7576140f6613489565b5b614103888289016139df565b9150509295509295909350565b60008060006060848603121561412957614128613484565b5b6000614137868287016134d7565b93505060206141488682870161350d565b92505060406141598682870161350d565b9150509250925092565b7f455243313135353a2061646472657373207a65726f206973206e6f742061207660008201527f616c6964206f776e657200000000000000000000000000000000000000000000602082015250565b60006141bf602a8361380e565b91506141ca82614163565b604082019050919050565b600060208201905081810360008301526141ee816141b2565b9050919050565b7f4e487b7100000000000000000000000000000000000000000000000000000000600052602260045260246000fd5b6000600282049050600182168061423c57607f821691505b60208210810361424f5761424e6141f5565b5b50919050565b7f455243313135353a2063616c6c6572206973206e6f7420746f6b656e206f776e60008201527f6572206f7220617070726f766564000000000000000000000000000000000000602082015250565b60006142b1602e8361380e565b91506142bc82614255565b604082019050919050565b600060208201905081810360008301526142e0816142a4565b9050919050565b7f455243313135353a206163636f756e747320616e6420696473206c656e67746860008201527f206d69736d617463680000000000000000000000000000000000000000000000602082015250565b600061434360298361380e565b915061434e826142e7565b604082019050919050565b6000602082019050818103600083015261437281614336565b9050919050565b7f4e487b7100000000000000000000000000000000000000000000000000000000600052603260045260246000fd5b7f4e487b7100000000000000000000000000000000000000000000000000000000600052601160045260246000fd5b60006143e2826134ec565b91507fffffffffffffffffffffffffffffffffffffffffffffffffffffffffffffffff8203614414576144136143a8565b5b600182019050919050565b60008151905061442e816134c0565b92915050565b60006020828403121561444a57614449613484565b5b60006144588482850161441f565b91505092915050565b7f43616c6c6572206973206e6f74206f776e657200000000000000000000000000600082015250565b600061449760138361380e565b91506144a282614461565b602082019050919050565b600060208201905081810360008301526144c68161448a565b9050919050565b7f4d75737420637265617465206174206c65617374203120536861726500000000600082015250565b6000614503601c8361380e565b915061450e826144cd565b602082019050919050565b60006020820190508181036000830152614532816144f6565b9050919050565b7f43616c6c6572206973206e6f7420426c6f636b4573746174654173736574206360008201527f6f6e747261637400000000000000000000000000000000000000000000000000602082015250565b600061459560278361380e565b91506145a082614539565b604082019050919050565b600060208201905081810360008301526145c481614588565b9050919050565b7f4f776e61626c653a206e6577206f776e657220697320746865207a65726f206160008201527f6464726573730000000000000000000000000000000000000000000000000000602082015250565b600061462760268361380e565b9150614632826145cb565b604082019050919050565b600060208201905081810360008301526146568161461a565b9050919050565b7f4f776e61626c653a2063616c6c6572206973206e6f7420746865206f776e6572600082015250565b600061469360208361380e565b915061469e8261465d565b602082019050919050565b600060208201905081810360008301526146c281614686565b9050919050565b60008190508160005260206000209050919050565b60006020601f8301049050919050565b600082821b905092915050565b60006008830261472b7fffffffffffffffffffffffffffffffffffffffffffffffffffffffffffffffff826146ee565b61473586836146ee565b95508019841693508086168417925050509392505050565b6000819050919050565b600061477261476d614768846134ec565b61474d565b6134ec565b9050919050565b6000819050919050565b61478c83614757565b6147a061479882614779565b8484546146fb565b825550505050565b600090565b6147b56147a8565b6147c0818484614783565b505050565b5b818110156147e4576147d96000826147ad565b6001810190506147c6565b5050565b601f821115614829576147fa816146c9565b614803846146de565b81016020851015614812578190505b61482661481e856146de565b8301826147c5565b50505b505050565b600082821c905092915050565b600061484c6000198460080261482e565b1980831691505092915050565b6000614865838361483b565b9150826002028217905092915050565b61487e82613803565b67ffffffffffffffff81111561489757614896613662565b5b6148a18254614224565b6148ac8282856147e8565b600060209050601f8311600181146148df57600084156148cd578287015190505b6148d78582614859565b86555061493f565b601f1984166148ed866146c9565b60005b82811015614915578489015182556001820191506020850194506020810190506148f0565b86831015614932578489015161492e601f89168261483b565b8355505b6001600288020188555050505b505050505050565b7f455243313135353a2069647320616e6420616d6f756e7473206c656e6774682060008201527f6d69736d61746368000000000000000000000000000000000000000000000000602082015250565b60006149a360288361380e565b91506149ae82614947565b604082019050919050565b600060208201905081810360008301526149d281614996565b9050919050565b7f455243313135353a207472616e7366657220746f20746865207a65726f20616460008201527f6472657373000000000000000000000000000000000000000000000000000000602082015250565b6000614a3560258361380e565b9150614a40826149d9565b604082019050919050565b60006020820190508181036000830152614a6481614a28565b9050919050565b7f455243313135353a20696e73756666696369656e742062616c616e636520666f60008201527f72207472616e7366657200000000000000000000000000000000000000000000602082015250565b6000614ac7602a8361380e565b9150614ad282614a6b565b604082019050919050565b60006020820190508181036000830152614af681614aba565b9050919050565b6000614b08826134ec565b9150614b13836134ec565b9250828201905080821115614b2b57614b2a6143a8565b5b92915050565b60006040820190508181036000830152614b4b8185613d84565b90508181036020830152614b5f8184613d84565b90509392505050565b7f455243313135353a206d696e7420746f20746865207a65726f2061646472657360008201527f7300000000000000000000000000000000000000000000000000000000000000602082015250565b6000614bc460218361380e565b9150614bcf82614b68565b604082019050919050565b60006020820190508181036000830152614bf381614bb7565b9050919050565b6000604082019050614c0f6000830185613562565b614c1c6020830184613562565b9392505050565b7f455243313135353a206275726e2066726f6d20746865207a65726f206164647260008201527f6573730000000000000000000000000000000000000000000000000000000000602082015250565b6000614c7f60238361380e565b9150614c8a82614c23565b604082019050919050565b60006020820190508181036000830152614cae81614c72565b9050919050565b7f455243313135353a206275726e20616d6f756e7420657863656564732062616c60008201527f616e636500000000000000000000000000000000000000000000000000000000602082015250565b6000614d1160248361380e565b9150614d1c82614cb5565b604082019050919050565b60006020820190508181036000830152614d4081614d04565b9050919050565b7f455243313135353a2073657474696e6720617070726f76616c2073746174757360008201527f20666f722073656c660000000000000000000000000000000000000000000000602082015250565b6000614da360298361380e565b9150614dae82614d47565b604082019050919050565b60006020820190508181036000830152614dd281614d96565b9050919050565b600067ffffffffffffffff821115614df457614df3613662565b5b602082029050602081019050919050565b600080fd5b600081519050614e19816134f6565b92915050565b600081519050614e2e81613fcd565b92915050565b600060c08284031215614e4a57614e49614e05565b5b614e5460c06136c2565b90506000614e6484828501614e0a565b6000830152506020614e7884828501614e0a565b6020830152506040614e8c84828501614e0a565b6040830152506060614ea084828501614e0a565b6060830152506080614eb48482850161441f565b60808301525060a0614ec884828501614e1f565b60a08301525092915050565b6000614ee7614ee284614dd9565b6136c2565b90508083825260208201905060c08402830185811115614f0a57614f096138d0565b5b835b81811015614f335780614f1f8882614e34565b84526020840193505060c081019050614f0c565b5050509392505050565b600082601f830112614f5257614f51613647565b5b8151614f62848260208601614ed4565b91505092915050565b600060208284031215614f8157614f80613484565b5b600082015167ffffffffffffffff811115614f9f57614f9e613489565b5b614fab84828501614f3d565b91505092915050565b7f696e73756666696369656e742062616c616e6365000000000000000000000000600082015250565b6000614fea60148361380e565b9150614ff582614fb4565b602082019050919050565b6000602082019050818103600083015261501981614fdd565b9050919050565b600061502b826134ec565b9150615036836134ec565b925082820390508181111561504e5761504d6143a8565b5b92915050565b7f616d6f756e74206578636565647320756e6c6f636b65642062616c616e636500600082015250565b600061508a601f8361380e565b915061509582615054565b602082019050919050565b600060208201905081810360008301526150b98161507d565b9050919050565b60006060820190506150d56000830186613f1a565b6150e26020830185613f1a565b6150ef6040830184613562565b949350505050565b600081519050919050565b600082825260208201905092915050565b600061511e826150f7565b6151288185615102565b935061513881856020860161381f565b61514181613651565b840191505092915050565b600060a0820190506151616000830188613f1a565b61516e6020830187613f1a565b81810360408301526151808186613d84565b905081810360608301526151948185613d84565b905081810360808301526151a88184615113565b90509695505050505050565b6000815190506151c3816135b8565b92915050565b6000602082840312156151df576151de613484565b5b60006151ed848285016151b4565b91505092915050565b60008160e01c9050919050565b600060033d11156152225760046000803e61521f6000516151f6565b90505b90565b600060443d106152b25761523761347a565b60043d036004823e80513d602482011167ffffffffffffffff8211171561525f5750506152b2565b808201805167ffffffffffffffff81111561527d57505050506152b2565b80602083010160043d03850181111561529a5750505050506152b2565b6152a982602001850186613691565b82955050505050505b90565b7f455243313135353a207472616e7366657220746f206e6f6e2d4552433131353560008201527f526563656976657220696d706c656d656e746572000000000000000000000000602082015250565b600061531160348361380e565b915061531c826152b5565b604082019050919050565b6000602082019050818103600083015261534081615304565b9050919050565b7f455243313135353a204552433131353552656365697665722072656a6563746560008201527f6420746f6b656e73000000000000000000000000000000000000000000000000602082015250565b60006153a360288361380e565b91506153ae82615347565b604082019050919050565b600060208201905081810360008301526153d281615396565b9050919050565b7f5061757361626c653a206e6f7420706175736564000000000000000000000000600082015250565b600061540f60148361380e565b915061541a826153d9565b602082019050919050565b6000602082019050818103600083015261543e81615402565b9050919050565b600060a08201905061545a6000830188613f1a565b6154676020830187613f1a565b6154746040830186613562565b6154816060830185613562565b81810360808301526154938184615113565b90509695505050505050565b7f5061757361626c653a2070617573656400000000000000000000000000000000600082015250565b60006154d560108361380e565b91506154e08261549f565b602082019050919050565b60006020820190508181036000830152615504816154c8565b9050919050565b7f455243313135353a206275726e20616d6f756e74206578636565647320746f7460008201527f616c537570706c79000000000000000000000000000000000000000000000000602082015250565b600061556760288361380e565b91506155728261550b565b604082019050919050565b600060208201905081810360008301526155968161555a565b905091905056fea264697066735822122021a48b25b794fedad6f7ac638db1fc3f9c2f758ade7f44990b375120134b8d8d64736f6c6343000812003368747470733a2f2f626c6f636b6573746174652e616c65786f6368732e64652f6170692f6d657461646174612f7368617265732f",
  "linkReferences": {},
  "deployedLinkReferences": {}
}