{
  "_format": "hh-sol-artifact-1",
  "contractName": "BlockEstateRentals",
  "sourceName": "contracts/BlockEstate/BlockEstateRentals.sol",
  "abi": [
    {
      "inputs": [
        {
          "internalType": "address",
          "name": "_assetsAddress",
          "type": "address"
        },
        {
          "internalType": "address",
          "name": "_sharesAddress",
          "type": "address"
        },
        {
          "internalType": "address",
          "name": "_usdAddress",
          "type": "address"
        }
      ],
      "stateMutability": "nonpayable",
      "type": "constructor"
    },
    {
      "anonymous": false,
      "inputs": [
        {
          "indexed": false,
          "internalType": "uint256",
          "name": "rentalId",
          "type": "uint256"
        }
      ],
      "name": "FixedRentalApproved",
      "type": "event"
    },
    {
      "anonymous": false,
      "inputs": [
        {
          "indexed": false,
          "internalType": "uint256",
          "name": "rentalId",
          "type": "uint256"
        },
        {
          "indexed": false,
          "internalType": "uint256",
          "name": "tokenId",
          "type": "uint256"
        },
        {
          "indexed": false,
          "internalType": "address",
          "name": "renter",
          "type": "address"
        },
        {
          "indexed": false,
          "internalType": "uint256",
          "name": "start",
          "type": "uint256"
        },
        {
          "indexed": false,
          "internalType": "uint256",
          "name": "end",
          "type": "uint256"
        },
        {
          "indexed": false,
          "internalType": "uint256",
          "name": "price",
          "type": "uint256"
        }
      ],
      "name": "FixedRentalCreated",
      "type": "event"
    },
    {
      "anonymous": false,
      "inputs": [
        {
          "indexed": false,
          "internalType": "uint256",
          "name": "rentalId",
          "type": "uint256"
        }
      ],
      "name": "FixedRentalDeleted",
      "type": "event"
    },
    {
      "anonymous": false,
      "inputs": [
        {
          "indexed": false,
          "internalType": "uint256",
          "name": "rentalId",
          "type": "uint256"
        },
        {
          "indexed": false,
          "internalType": "address",
          "name": "approver",
          "type": "address"
        },
        {
          "indexed": false,
          "internalType": "uint256",
          "name": "votes",
          "type": "uint256"
        }
      ],
      "name": "FixedRentalVoted",
      "type": "event"
    },
    {
      "anonymous": false,
      "inputs": [
        {
          "indexed": false,
          "internalType": "uint256",
          "name": "rentalId",
          "type": "uint256"
        }
      ],
      "name": "MonthlyRentalApproved",
      "type": "event"
    },
    {
      "anonymous": false,
      "inputs": [
        {
          "indexed": false,
          "internalType": "uint256",
          "name": "rentalId",
          "type": "uint256"
        },
        {
          "indexed": false,
          "internalType": "uint256",
          "name": "tokenId",
          "type": "uint256"
        },
        {
          "indexed": false,
          "internalType": "address",
          "name": "renter",
          "type": "address"
        },
        {
          "indexed": false,
          "internalType": "uint256",
          "name": "start",
          "type": "uint256"
        }
      ],
      "name": "MonthlyRentalCreated",
      "type": "event"
    },
    {
      "anonymous": false,
      "inputs": [
        {
          "indexed": false,
          "internalType": "uint256",
          "name": "rentalId",
          "type": "uint256"
        }
      ],
      "name": "MonthlyRentalDeleted",
      "type": "event"
    },
    {
      "anonymous": false,
      "inputs": [
        {
          "indexed": false,
          "internalType": "uint256",
          "name": "rentalId",
          "type": "uint256"
        },
        {
          "indexed": false,
          "internalType": "address",
          "name": "approver",
          "type": "address"
        },
        {
          "indexed": false,
          "internalType": "uint256",
          "name": "votes",
          "type": "uint256"
        }
      ],
      "name": "MonthlyRentalVoted",
      "type": "event"
    },
    {
      "anonymous": false,
      "inputs": [
        {
          "indexed": true,
          "internalType": "address",
          "name": "previousOwner",
          "type": "address"
        },
        {
          "indexed": true,
          "internalType": "address",
          "name": "newOwner",
          "type": "address"
        }
      ],
      "name": "OwnershipTransferred",
      "type": "event"
    },
    {
      "anonymous": false,
      "inputs": [
        {
          "indexed": false,
          "internalType": "address",
          "name": "account",
          "type": "address"
        }
      ],
      "name": "Paused",
      "type": "event"
    },
    {
      "anonymous": false,
      "inputs": [
        {
          "indexed": false,
          "internalType": "address",
          "name": "account",
          "type": "address"
        }
      ],
      "name": "Unpaused",
      "type": "event"
    },
    {
      "inputs": [
        {
          "internalType": "uint256",
          "name": "rentalId",
          "type": "uint256"
        }
      ],
      "name": "approveFixedRental",
      "outputs": [],
      "stateMutability": "nonpayable",
      "type": "function"
    },
    {
      "inputs": [
        {
          "internalType": "uint256",
          "name": "rentalId",
          "type": "uint256"
        }
      ],
      "name": "approveMonthlyRental",
      "outputs": [],
      "stateMutability": "nonpayable",
      "type": "function"
    },
    {
      "inputs": [
        {
          "internalType": "uint256",
          "name": "",
          "type": "uint256"
        }
      ],
      "name": "approvedFixedRentals",
      "outputs": [
        {
          "internalType": "bool",
          "name": "",
          "type": "bool"
        }
      ],
      "stateMutability": "view",
      "type": "function"
    },
    {
      "inputs": [
        {
          "internalType": "uint256",
          "name": "",
          "type": "uint256"
        }
      ],
      "name": "approvedMonthlyRentals",
      "outputs": [
        {
          "internalType": "bool",
          "name": "",
          "type": "bool"
        }
      ],
      "stateMutability": "view",
      "type": "function"
    },
    {
      "inputs": [
        {
          "internalType": "address",
          "name": "",
          "type": "address"
        }
      ],
      "name": "balances",
      "outputs": [
        {
          "internalType": "uint256",
          "name": "",
          "type": "uint256"
        }
      ],
      "stateMutability": "view",
      "type": "function"
    },
    {
      "inputs": [
        {
          "internalType": "uint256",
          "name": "rentalId",
          "type": "uint256"
        }
      ],
      "name": "cancelFixedRental",
      "outputs": [],
      "stateMutability": "nonpayable",
      "type": "function"
    },
    {
      "inputs": [
        {
          "internalType": "uint256",
          "name": "rentalId",
          "type": "uint256"
        }
      ],
      "name": "cancelMonthlyRental",
      "outputs": [],
      "stateMutability": "nonpayable",
      "type": "function"
    },
    {
      "inputs": [
        {
          "internalType": "uint256",
          "name": "tokenId",
          "type": "uint256"
        },
        {
          "internalType": "uint256",
          "name": "start",
          "type": "uint256"
        },
        {
          "internalType": "uint8",
          "name": "daysAmount",
          "type": "uint8"
        }
      ],
      "name": "createFixedRental",
      "outputs": [],
      "stateMutability": "nonpayable",
      "type": "function"
    },
    {
      "inputs": [
        {
          "internalType": "uint256",
          "name": "tokenId",
          "type": "uint256"
        },
        {
          "internalType": "uint256",
          "name": "start",
          "type": "uint256"
        }
      ],
      "name": "createMonthlyRental",
      "outputs": [],
      "stateMutability": "nonpayable",
      "type": "function"
    },
    {
      "inputs": [
        {
          "internalType": "uint256",
          "name": "amount",
          "type": "uint256"
        }
      ],
      "name": "deposit",
      "outputs": [],
      "stateMutability": "nonpayable",
      "type": "function"
    },
    {
      "inputs": [
        {
          "internalType": "uint256",
          "name": "",
          "type": "uint256"
        }
      ],
      "name": "fixedRentals",
      "outputs": [
        {
          "internalType": "uint256",
          "name": "rentalId",
          "type": "uint256"
        },
        {
          "internalType": "uint256",
          "name": "tokenId",
          "type": "uint256"
        },
        {
          "internalType": "address",
          "name": "renter",
          "type": "address"
        },
        {
          "internalType": "uint256",
          "name": "start",
          "type": "uint256"
        },
        {
          "internalType": "uint256",
          "name": "end",
          "type": "uint256"
        },
        {
          "internalType": "uint256",
          "name": "price",
          "type": "uint256"
        },
        {
          "internalType": "uint256",
          "name": "votes",
          "type": "uint256"
        },
        {
          "internalType": "bool",
          "name": "isApproved",
          "type": "bool"
        }
      ],
      "stateMutability": "view",
      "type": "function"
    },
    {
      "inputs": [
        {
          "internalType": "uint256",
          "name": "",
          "type": "uint256"
        }
      ],
      "name": "isMonthlyRentable",
      "outputs": [
        {
          "internalType": "bool",
          "name": "",
          "type": "bool"
        }
      ],
      "stateMutability": "view",
      "type": "function"
    },
    {
      "inputs": [
        {
          "internalType": "uint256",
          "name": "",
          "type": "uint256"
        }
      ],
      "name": "isRentable",
      "outputs": [
        {
          "internalType": "bool",
          "name": "",
          "type": "bool"
        }
      ],
      "stateMutability": "view",
      "type": "function"
    },
    {
      "inputs": [
        {
          "internalType": "uint256",
          "name": "",
          "type": "uint256"
        }
      ],
      "name": "monthlyRentals",
      "outputs": [
        {
          "internalType": "uint256",
          "name": "rentalId",
          "type": "uint256"
        },
        {
          "internalType": "uint256",
          "name": "tokenId",
          "type": "uint256"
        },
        {
          "internalType": "address",
          "name": "renter",
          "type": "address"
        },
        {
          "internalType": "uint256",
          "name": "start",
          "type": "uint256"
        },
        {
          "internalType": "uint256",
          "name": "votes",
          "type": "uint256"
        },
        {
          "internalType": "bool",
          "name": "isApproved",
          "type": "bool"
        }
      ],
      "stateMutability": "view",
      "type": "function"
    },
    {
      "inputs": [],
      "name": "owner",
      "outputs": [
        {
          "internalType": "address",
          "name": "",
          "type": "address"
        }
      ],
      "stateMutability": "view",
      "type": "function"
    },
    {
      "inputs": [],
      "name": "pause",
      "outputs": [],
      "stateMutability": "nonpayable",
      "type": "function"
    },
    {
      "inputs": [],
      "name": "paused",
      "outputs": [
        {
          "internalType": "bool",
          "name": "",
          "type": "bool"
        }
      ],
      "stateMutability": "view",
      "type": "function"
    },
    {
      "inputs": [
        {
          "internalType": "uint256",
          "name": "",
          "type": "uint256"
        }
      ],
      "name": "pricePerDay",
      "outputs": [
        {
          "internalType": "uint256",
          "name": "",
          "type": "uint256"
        }
      ],
      "stateMutability": "view",
      "type": "function"
    },
    {
      "inputs": [
        {
          "internalType": "uint256",
          "name": "",
          "type": "uint256"
        }
      ],
      "name": "pricePerMonth",
      "outputs": [
        {
          "internalType": "uint256",
          "name": "",
          "type": "uint256"
        }
      ],
      "stateMutability": "view",
      "type": "function"
    },
    {
      "inputs": [],
      "name": "readFixedRentalsByAccount",
      "outputs": [
        {
          "components": [
            {
              "internalType": "uint256",
              "name": "rentalId",
              "type": "uint256"
            },
            {
              "internalType": "uint256",
              "name": "tokenId",
              "type": "uint256"
            },
            {
              "internalType": "address",
              "name": "renter",
              "type": "address"
            },
            {
              "internalType": "uint256",
              "name": "start",
              "type": "uint256"
            },
            {
              "internalType": "uint256",
              "name": "end",
              "type": "uint256"
            },
            {
              "internalType": "uint256",
              "name": "price",
              "type": "uint256"
            },
            {
              "internalType": "uint256",
              "name": "votes",
              "type": "uint256"
            },
            {
              "internalType": "address[]",
              "name": "approved",
              "type": "address[]"
            },
            {
              "internalType": "bool",
              "name": "isApproved",
              "type": "bool"
            }
          ],
          "internalType": "struct BlockEstateRentals.FixedRental[]",
          "name": "",
          "type": "tuple[]"
        }
      ],
      "stateMutability": "view",
      "type": "function"
    },
    {
      "inputs": [
        {
          "internalType": "uint256",
          "name": "tokenId",
          "type": "uint256"
        }
      ],
      "name": "readFixedRentalsByToken",
      "outputs": [
        {
          "components": [
            {
              "internalType": "uint256",
              "name": "rentalId",
              "type": "uint256"
            },
            {
              "internalType": "uint256",
              "name": "tokenId",
              "type": "uint256"
            },
            {
              "internalType": "address",
              "name": "renter",
              "type": "address"
            },
            {
              "internalType": "uint256",
              "name": "start",
              "type": "uint256"
            },
            {
              "internalType": "uint256",
              "name": "end",
              "type": "uint256"
            },
            {
              "internalType": "uint256",
              "name": "price",
              "type": "uint256"
            },
            {
              "internalType": "uint256",
              "name": "votes",
              "type": "uint256"
            },
            {
              "internalType": "address[]",
              "name": "approved",
              "type": "address[]"
            },
            {
              "internalType": "bool",
              "name": "isApproved",
              "type": "bool"
            }
          ],
          "internalType": "struct BlockEstateRentals.FixedRental[]",
          "name": "",
          "type": "tuple[]"
        }
      ],
      "stateMutability": "view",
      "type": "function"
    },
    {
      "inputs": [],
      "name": "readMonthlyRentalsByAccount",
      "outputs": [
        {
          "components": [
            {
              "internalType": "uint256",
              "name": "rentalId",
              "type": "uint256"
            },
            {
              "internalType": "uint256",
              "name": "tokenId",
              "type": "uint256"
            },
            {
              "internalType": "address",
              "name": "renter",
              "type": "address"
            },
            {
              "internalType": "uint256",
              "name": "start",
              "type": "uint256"
            },
            {
              "internalType": "uint256",
              "name": "votes",
              "type": "uint256"
            },
            {
              "internalType": "address[]",
              "name": "approved",
              "type": "address[]"
            },
            {
              "internalType": "bool",
              "name": "isApproved",
              "type": "bool"
            }
          ],
          "internalType": "struct BlockEstateRentals.MonthlyRental[]",
          "name": "",
          "type": "tuple[]"
        }
      ],
      "stateMutability": "view",
      "type": "function"
    },
    {
      "inputs": [
        {
          "internalType": "uint256",
          "name": "tokenId",
          "type": "uint256"
        }
      ],
      "name": "readMonthlyRentalsByToken",
      "outputs": [
        {
          "components": [
            {
              "internalType": "uint256",
              "name": "rentalId",
              "type": "uint256"
            },
            {
              "internalType": "uint256",
              "name": "tokenId",
              "type": "uint256"
            },
            {
              "internalType": "address",
              "name": "renter",
              "type": "address"
            },
            {
              "internalType": "uint256",
              "name": "start",
              "type": "uint256"
            },
            {
              "internalType": "uint256",
              "name": "votes",
              "type": "uint256"
            },
            {
              "internalType": "address[]",
              "name": "approved",
              "type": "address[]"
            },
            {
              "internalType": "bool",
              "name": "isApproved",
              "type": "bool"
            }
          ],
          "internalType": "struct BlockEstateRentals.MonthlyRental[]",
          "name": "",
          "type": "tuple[]"
        }
      ],
      "stateMutability": "view",
      "type": "function"
    },
    {
      "inputs": [],
      "name": "renounceOwnership",
      "outputs": [],
      "stateMutability": "nonpayable",
      "type": "function"
    },
    {
      "inputs": [
        {
          "internalType": "address",
          "name": "_assetsAddress",
          "type": "address"
        }
      ],
      "name": "setAssetsAddress",
      "outputs": [],
      "stateMutability": "nonpayable",
      "type": "function"
    },
    {
      "inputs": [
        {
          "internalType": "uint256",
          "name": "tokenId",
          "type": "uint256"
        },
        {
          "internalType": "bool",
          "name": "rentable",
          "type": "bool"
        },
        {
          "internalType": "uint256",
          "name": "_pricePerMonth",
          "type": "uint256"
        }
      ],
      "name": "setMonthlyRentable",
      "outputs": [],
      "stateMutability": "nonpayable",
      "type": "function"
    },
    {
      "inputs": [
        {
          "internalType": "uint256",
          "name": "tokenId",
          "type": "uint256"
        },
        {
          "internalType": "bool",
          "name": "rentable",
          "type": "bool"
        },
        {
          "internalType": "uint256",
          "name": "_pricePerDay",
          "type": "uint256"
        }
      ],
      "name": "setRentable",
      "outputs": [],
      "stateMutability": "nonpayable",
      "type": "function"
    },
    {
      "inputs": [
        {
          "internalType": "address",
          "name": "_sharesAddress",
          "type": "address"
        }
      ],
      "name": "setSharesAddress",
      "outputs": [],
      "stateMutability": "nonpayable",
      "type": "function"
    },
    {
      "inputs": [
        {
          "internalType": "address",
          "name": "newOwner",
          "type": "address"
        }
      ],
      "name": "transferOwnership",
      "outputs": [],
      "stateMutability": "nonpayable",
      "type": "function"
    },
    {
      "inputs": [],
      "name": "unpause",
      "outputs": [],
      "stateMutability": "nonpayable",
      "type": "function"
    },
    {
      "inputs": [
        {
          "internalType": "uint256",
          "name": "amount",
          "type": "uint256"
        }
      ],
      "name": "withdraw",
      "outputs": [],
      "stateMutability": "nonpayable",
      "type": "function"
    }
  ],
  "bytecode": "0x60806040523480156200001157600080fd5b5060405162002f7f38038062002f7f833981016040819052620000349162000100565b6200003f3362000093565b6000805460ff60a01b1916905560018055600c80546001600160a01b039485166001600160a01b031991821617909155600d805493851693821693909317909255600e80549190931691161790556200014a565b600080546001600160a01b038381166001600160a01b0319831681178455604051919092169283917f8be0079c531659141344cd1fd0a4f28419497f9722a3daafe3b4186f6b6457e09190a35050565b80516001600160a01b0381168114620000fb57600080fd5b919050565b6000806000606084860312156200011657600080fd5b6200012184620000e3565b92506200013160208501620000e3565b91506200014160408501620000e3565b90509250925092565b612e25806200015a6000396000f3fe608060405234801561001057600080fd5b50600436106101e55760003560e01c80636bbab2681161010f5780639def83ee116100a2578063c392598d11610071578063c392598d14610556578063e032915214610579578063f2fde38b14610599578063f4037a99146105ac57600080fd5b80639def83ee14610480578063b6b55f251461050d578063bd48495114610520578063c047aefe1461053357600080fd5b80638456cb59116100de5780638456cb591461043757806384783a141461043f5780638da5cb5b1461045257806395113e811461046d57600080fd5b80636bbab268146103d9578063715018a6146103f95780637b3dae9b146104015780637e0d64a01461041457600080fd5b8063420b3240116101875780635b229837116101565780635b2298371461038c5780635c975abb1461039f57806365b1a563146103b15780636aadeefc146103c457600080fd5b8063420b32401461031e57806347912b511461033157806348c84613146103445780635a534dd21461035957600080fd5b80632e1a7d4d116101c35780632e1a7d4d146102455780632fd147891461025857806332489528146103035780633f4ba83a1461031657600080fd5b80631490a174146101ea5780632751b037146101ff57806327e235e314610212575b600080fd5b6101fd6101f83660046128cb565b6105bf565b005b6101fd61020d3660046128ef565b6105e9565b6102326102203660046128cb565b60036020526000908152604090205481565b6040519081526020015b60405180910390f35b6101fd6102533660046128ef565b610797565b6102b86102663660046128ef565b600660208190526000918252604090912080546001820154600283015460038401546004850154600586015496860154600890960154949693956001600160a01b039093169491939092909160ff1688565b6040805198895260208901979097526001600160a01b03909516958701959095526060860192909252608085015260a084015260c0830191909152151560e08201526101000161023c565b6101fd610311366004612916565b61088b565b6101fd6109ae565b6101fd61032c3660046128cb565b6109c0565b6101fd61033f36600461294e565b6109ea565b61034c610c18565b60405161023c91906129b4565b61037c6103673660046128ef565b60076020526000908152604090205460ff1681565b604051901515815260200161023c565b61034c61039a3660046128ef565b610dfc565b600054600160a01b900460ff1661037c565b6101fd6103bf366004612916565b610fcd565b6103cc6110f0565b60405161023c9190612a6d565b6102326103e73660046128ef565b60056020526000908152604090205481565b6101fd6112de565b6101fd61040f366004612b37565b6112f0565b61037c6104223660046128ef565b600b6020526000908152604090205460ff1681565b6101fd611689565b6103cc61044d3660046128ef565b611699565b6000546040516001600160a01b03909116815260200161023c565b6101fd61047b3660046128ef565b611873565b6104d061048e3660046128ef565b600a60205260009081526040902080546001820154600283015460038401546004850154600690950154939492936001600160a01b0390921692909160ff1686565b6040805196875260208701959095526001600160a01b039093169385019390935260608401526080830191909152151560a082015260c00161023c565b6101fd61051b3660046128ef565b612027565b6101fd61052e3660046128ef565b612088565b61037c6105413660046128ef565b60086020526000908152604090205460ff1681565b61037c6105643660046128ef565b60046020526000908152604090205460ff1681565b6102326105873660046128ef565b60096020526000908152604090205481565b6101fd6105a73660046128cb565b6121b5565b6101fd6105ba3660046128ef565b61222e565b6105c76125e6565b600c80546001600160a01b0319166001600160a01b0392909216919091179055565b60008181526006602052604081206001015490036106225760405162461bcd60e51b815260040161061990612b76565b60405180910390fd5b60008181526006602052604090206008015460ff16156106845760405162461bcd60e51b815260206004820152601b60248201527f52656e74616c206d757374206e6f7420626520617070726f76656400000000006044820152606401610619565b6000818152600660205260409020600201546001600160a01b031633146106e65760405162461bcd60e51b815260206004820152601660248201527513db9b1e481c995b9d195c8818d85b8818d85b98d95b60521b6044820152606401610619565b60008181526006602081905260408220828155600181018390556002810180546001600160a01b03191690556003810183905560048101839055600581018390559081018290559061073b60078301826127e0565b50600801805460ff199081169091556000828152600760209081526040918290208054909316909255518281527fad847b72d29f3dc4278a02679fef9f551f88c5cc754eafa281d6c4f6c14ac88391015b60405180910390a150565b336000908152600360205260409020548111156107ed5760405162461bcd60e51b8152602060048201526014602482015273496e73756666696369656e742062616c616e636560601b6044820152606401610619565b336000908152600360205260408120805483929061080c908490612bb7565b9091555050600e5460405163a9059cbb60e01b8152336004820152602481018390526001600160a01b039091169063a9059cbb906044015b6020604051808303816000875af1158015610863573d6000803e3d6000fd5b505050506040513d601f19601f820116820180604052508101906108879190612bd0565b5050565b600c54604051634f558e7960e01b8152600481018590526001600160a01b0390911690634f558e7990602401602060405180830381865afa1580156108d4573d6000803e3d6000fd5b505050506040513d601f19601f820116820180604052508101906108f89190612bd0565b6109145760405162461bcd60e51b815260040161061990612bed565b8115156000036109385750506000908152600860205260409020805460ff19169055565b600081116109835760405162461bcd60e51b81526020600482015260186024820152775072696365206d757374206265206174206c65617374203160401b6044820152606401610619565b6000928352600860209081526040808520805460ff1916600117905560099091529092209190915550565b6109b66125e6565b6109be612640565b565b6109c86125e6565b600d80546001600160a01b0319166001600160a01b0392909216919091179055565b600c54604051634f558e7960e01b8152600481018490526001600160a01b0390911690634f558e7990602401602060405180830381865afa158015610a33573d6000803e3d6000fd5b505050506040513d601f19601f82011682018060405250810190610a579190612bd0565b610a735760405162461bcd60e51b815260040161061990612bed565b60008281526008602052604090205460ff16610ac95760405162461bcd60e51b8152602060048201526015602482015274105cdcd95d081a5cc81b9bdd08199bdc881c995b9d605a1b6044820152606401610619565b428111610b185760405162461bcd60e51b815260206004820152601760248201527f5374617274206d75737420626520696e206675747572650000000000000000006044820152606401610619565b6000610b2360025490565b9050610b33600280546001019055565b60005b81811015610b81576000818152600a6020526040902060010154849003610b6f5760405162461bcd60e51b815260040161061990612c1b565b80610b7981612c49565b915050610b36565b506000818152600a60209081526040808320848155600181018790556002810180546001600160a01b03191633908117909155600382018790556004820194909455600601805460ff191690558051848152918201869052810191909152606081018390527f36445b5b7ac4b4b71c3f7c20d0aeb811477e2608d2495ca1ec96b1f0d21b7b739060800160405180910390a1505050565b60606000805b600254811015610c6b576000818152600a6020526040902060020154336001600160a01b0390911603610c595781610c5581612c49565b9250505b80610c6381612c49565b915050610c1e565b506000808267ffffffffffffffff811115610c8857610c88612c62565b604051908082528060200260200182016040528015610cc157816020015b610cae6127fe565b815260200190600190039081610ca65790505b50905060005b600254811015610df4576000818152600a6020526040902060020154336001600160a01b0390911603610de2576000818152600a6020908152604091829020825160e0810184528154815260018201548184015260028201546001600160a01b03168185015260038201546060820152600482015460808201526005820180548551818602810186019096528086529194929360a08601939290830182828015610d9a57602002820191906000526020600020905b81546001600160a01b03168152600190910190602001808311610d7c575b50505091835250506006919091015460ff1615156020909101528251839085908110610dc857610dc8612c78565b60200260200101819052508280610dde90612c49565b9350505b80610dec81612c49565b915050610cc7565b509392505050565b60606000805b600254811015610e45576000818152600a6020526040902060010154849003610e335781610e2f81612c49565b9250505b80610e3d81612c49565b915050610e02565b506000808267ffffffffffffffff811115610e6257610e62612c62565b604051908082528060200260200182016040528015610e9b57816020015b610e886127fe565b815260200190600190039081610e805790505b50905060005b600254811015610fc4576000818152600a6020526040902060010154869003610fb2576000818152600a6020908152604091829020825160e0810184528154815260018201548184015260028201546001600160a01b03168185015260038201546060820152600482015460808201526005820180548551818602810186019096528086529194929360a08601939290830182828015610f6a57602002820191906000526020600020905b81546001600160a01b03168152600190910190602001808311610f4c575b50505091835250506006919091015460ff1615156020909101528251839085908110610f9857610f98612c78565b60200260200101819052508280610fae90612c49565b9350505b80610fbc81612c49565b915050610ea1565b50949350505050565b600c54604051634f558e7960e01b8152600481018590526001600160a01b0390911690634f558e7990602401602060405180830381865afa158015611016573d6000803e3d6000fd5b505050506040513d601f19601f8201168201806040525081019061103a9190612bd0565b6110565760405162461bcd60e51b815260040161061990612bed565b81151560000361107a5750506000908152600460205260409020805460ff19169055565b600081116110c55760405162461bcd60e51b81526020600482015260186024820152775072696365206d757374206265206174206c65617374203160401b6044820152606401610619565b6000928352600460209081526040808520805460ff1916600117905560059091529092209190915550565b60606000805b60025481101561114357600081815260066020526040902060020154336001600160a01b0390911603611131578161112d81612c49565b9250505b8061113b81612c49565b9150506110f6565b506000808267ffffffffffffffff81111561116057611160612c62565b60405190808252806020026020018201604052801561119957816020015b611186612846565b81526020019060019003908161117e5790505b50905060005b600254811015610df457600081815260066020526040902060020154336001600160a01b03909116036112cc576000818152600660208181526040928390208351610120810185528154815260018201548184015260028201546001600160a01b0316818601526003820154606082015260048201546080820152600582015460a08201529281015460c08401526007810180548551818502810185019096528086529394919360e086019383018282801561128457602002820191906000526020600020905b81546001600160a01b03168152600190910190602001808311611266575b50505091835250506008919091015460ff16151560209091015282518390859081106112b2576112b2612c78565b602002602001018190525082806112c890612c49565b9350505b806112d681612c49565b91505061119f565b6112e66125e6565b6109be6000612695565b600c54604051634f558e7960e01b8152600481018590526001600160a01b0390911690634f558e7990602401602060405180830381865afa158015611339573d6000803e3d6000fd5b505050506040513d601f19601f8201168201806040525081019061135d9190612bd0565b6113795760405162461bcd60e51b815260040161061990612bed565b60008381526004602052604090205460ff166113cf5760405162461bcd60e51b8152602060048201526015602482015274105cdcd95d081a5cc81b9bdd08199bdc881c995b9d605a1b6044820152606401610619565b4282101561141f5760405162461bcd60e51b815260206004820152601e60248201527f5374617274206d757374206265206e6f77206f7220696e2066757475726500006044820152606401610619565b60008160ff16116114725760405162461bcd60e51b815260206004820152601760248201527f44617973206d757374206265206174206c6561737420310000000000000000006044820152606401610619565b600061147d60025490565b905061148d600280546001019055565b600061149f60ff841662015180612c8e565b6114ae9062ffffff1685612cb5565b905060005b828110156114fe576000818152600a60205260409020600101548690036114ec5760405162461bcd60e51b815260040161061990612c1b565b806114f681612c49565b9150506114b3565b5060005b82811015611592576000818152600660205260409020600101548614801561154a57506000818152600660205260409020600381015460049091015461154a919087856126e5565b156115805760008181526006602052604090206008015460ff166115805760405162461bcd60e51b815260040161061990612c1b565b8061158a81612c49565b915050611502565b506000828152600660209081526040808320858155600181018990556002810180546001600160a01b031916331790556003810188905560040184905587835260059091529020546115e79060ff8516612cc8565b6000838152600660208181526040808420600581018690559283019390935560088201805460ff1916905581546001830154600284015460038501546004909501548651938452938301919091526001600160a01b0316818501526060810192909252608082015260a0810192909252517feef3b7132416aa3751c98519543cc4f2a7e93ac69a1531d57e9a2e9f422c8eba9181900360c00190a15050505050565b6116916125e6565b6109be612700565b60606000805b6002548110156116e2576000818152600660205260409020600101548490036116d057816116cc81612c49565b9250505b806116da81612c49565b91505061169f565b506000808267ffffffffffffffff8111156116ff576116ff612c62565b60405190808252806020026020018201604052801561173857816020015b611725612846565b81526020019060019003908161171d5790505b50905060005b600254811015610fc457600081815260066020526040902060010154869003611861576000818152600660208181526040928390208351610120810185528154815260018201548184015260028201546001600160a01b0316818601526003820154606082015260048201546080820152600582015460a08201529281015460c08401526007810180548551818502810185019096528086529394919360e086019383018282801561181957602002820191906000526020600020905b81546001600160a01b031681526001909101906020018083116117fb575b50505091835250506008919091015460ff161515602090910152825183908590811061184757611847612c78565b6020026020010181905250828061185d90612c49565b9350505b8061186b81612c49565b91505061173e565b60008181526006602052604081206001015490036118a35760405162461bcd60e51b815260040161061990612b76565b600d54600082815260066020526040808220600101549051627eeac760e11b8152336004820152602481019190915290916001600160a01b03169062fdd58e90604401602060405180830381865afa158015611903573d6000803e3d6000fd5b505050506040513d601f19601f820116820180604052508101906119279190612cdf565b90506000811161196b5760405162461bcd60e51b815260206004820152600f60248201526e2737ba1039b430b932b437b63232b960891b6044820152606401610619565b60008281526006602052604090206008015460ff16156119cd5760405162461bcd60e51b815260206004820152601f60248201527f52656e74616c206d757374206e6f7420626520617070726f76656420796574006044820152606401610619565b60005b600083815260066020526040902060070154811015611a76576000838152600660205260409020600701805433919083908110611a0f57611a0f612c78565b6000918252602090912001546001600160a01b031603611a645760405162461bcd60e51b815260206004820152601060248201526f105b1c9958591e48185c1c1c9bdd995960821b6044820152606401610619565b80611a6e81612c49565b9150506119d0565b5060008281526006602081905260408220018054839290611a98908490612cb5565b9091555050600082815260066020908152604080832060070180546001810182559084529282902090920180546001600160a01b031916339081179091558251858152918201529081018290527f0aebc1ad4b106de9cd98008a77d8f2e6e9d56e54ced136fbdd29eb3f5b24cd859060600160405180910390a1600d546000838152600660205260409081902060010154905163bd85b03960e01b815260048101919091526002916001600160a01b03169063bd85b03990602401602060405180830381865afa158015611b70573d6000803e3d6000fd5b505050506040513d601f19601f82011682018060405250810190611b949190612cdf565b611b9e9190612cf8565b6000838152600660208190526040909120015411156108875760005b600254811015611c7057808314611c5e576000838152600660205260408082206001908101548484529190922090910154148015611c2857506000838152600660205260408082206003808201546004928301548686529390942090810154910154611c28939291906126e5565b15611c5e5760008381526006602052604090206008015460ff16611c5e5760405162461bcd60e51b815260040161061990612c1b565b80611c6881612c49565b915050611bba565b5060008281526006602090815260408083206008018054600160ff199182168117909255600784529382902080549094161790925590518381527f9145fd4b7d7b7b4d24e9351d433c262ac114fb8787d1cce4c8f9535dfadc246c910160405180910390a1600d546000838152600660205260408082206001015490516310f9323360e21b815291926001600160a01b0316916343e4c8cc91611d199160040190815260200190565b600060405180830381865afa158015611d36573d6000803e3d6000fd5b505050506040513d6000823e601f3d908101601f19168201604052611d5e9190810190612d2a565b600d5460008581526006602052604080822060010154905163bd85b03960e01b81526004810191909152929350916001600160a01b039091169063bd85b03990602401602060405180830381865afa158015611dbe573d6000803e3d6000fd5b505050506040513d601f19601f82011682018060405250810190611de29190612cdf565b90506000805b8351811015611fbf57600d5484516000916001600160a01b03169062fdd58e90879085908110611e1a57611e1a612c78565b6020026020010151600660008b8152602001908152602001600020600101546040518363ffffffff1660e01b8152600401611e6a9291906001600160a01b03929092168252602082015260400190565b602060405180830381865afa158015611e87573d6000803e3d6000fd5b505050506040513d601f19601f82011682018060405250810190611eab9190612cdf565b600088815260066020526040812060050154919250908290611ece908790612cf8565b611ed89190612cc8565b600e5460008a81526006602052604090206002015488519293506001600160a01b03918216926323b872dd9290911690899087908110611f1a57611f1a612c78565b60209081029190910101516040516001600160e01b031960e085901b1681526001600160a01b03928316600482015291166024820152604481018490526064016020604051808303816000875af1158015611f79573d6000803e3d6000fd5b505050506040513d601f19601f82011682018060405250810190611f9d9190612bd0565b50611fa88185612cb5565b935050508080611fb790612c49565b915050611de8565b5060008581526006602052604090206005015481146120205760405162461bcd60e51b815260206004820152601e60248201527f5472616e7366657220616d6f756e7420646f6573206e6f74206d6174636800006044820152606401610619565b5050505050565b3360009081526003602052604081208054839290612046908490612cb5565b9091555050600e546040516323b872dd60e01b8152336004820152306024820152604481018390526001600160a01b03909116906323b872dd90606401610844565b6000818152600a602052604081206001015490036120b85760405162461bcd60e51b815260040161061990612b76565b6000818152600a60205260409020600201546001600160a01b0316331461211a5760405162461bcd60e51b815260206004820152601660248201527513db9b1e481c995b9d195c8818d85b8818d85b98d95b60521b6044820152606401610619565b6000818152600a60205260408120818155600181018290556002810180546001600160a01b031916905560038101829055600481018290559061216060058301826127e0565b50600601805460ff199081169091556000828152600b60209081526040918290208054909316909255518281527fccae085021d1f5f4f50d2d913820c0c3e8e018eb8ddf5146948eaadad1910797910161078c565b6121bd6125e6565b6001600160a01b0381166122225760405162461bcd60e51b815260206004820152602660248201527f4f776e61626c653a206e6577206f776e657220697320746865207a65726f206160448201526564647265737360d01b6064820152608401610619565b61222b81612695565b50565b6000818152600a6020526040812060010154900361225e5760405162461bcd60e51b815260040161061990612b76565b600d546000828152600a6020526040808220600101549051627eeac760e11b8152336004820152602481019190915290916001600160a01b03169062fdd58e90604401602060405180830381865afa1580156122be573d6000803e3d6000fd5b505050506040513d601f19601f820116820180604052508101906122e29190612cdf565b9050600081116123265760405162461bcd60e51b815260206004820152600f60248201526e2737ba1039b430b932b437b63232b960891b6044820152606401610619565b6000828152600a602052604090206006015460ff16156123885760405162461bcd60e51b815260206004820152601f60248201527f52656e74616c206d757374206e6f7420626520617070726f76656420796574006044820152606401610619565b60005b6000838152600a602052604090206005015481101561243e576000838152600a602052604090206005018054339190839081106123ca576123ca612c78565b6000918252602090912001546001600160a01b03160361242c5760405162461bcd60e51b815260206004820152601760248201527f43616c6c657220616c726561647920617070726f7665640000000000000000006044820152606401610619565b8061243681612c49565b91505061238b565b506000828152600a602052604081206004018054839290612460908490612cb5565b90915550506000828152600a6020908152604080832060050180546001810182559084529282902090920180546001600160a01b031916339081179091558251858152918201529081018290527fe44de8e20e1c7721a71e4cb57da99eb4155b0a5f9bb5031c5b2cc2f746806c949060600160405180910390a1600d546000838152600a60205260409081902060010154905163bd85b03960e01b815260048101919091526002916001600160a01b03169063bd85b03990602401602060405180830381865afa158015612538573d6000803e3d6000fd5b505050506040513d601f19601f8201168201806040525081019061255c9190612cdf565b6125669190612cf8565b6000838152600a60205260409020600401541115610887576000828152600a602090815260408083206006018054600160ff199182168117909255600b84529382902080549094161790925590518381527f3925bc7850c4a816fc1d2d3501d4dfb426b74d0057a35f1126008ae5764ea5cc910160405180910390a15050565b6000546001600160a01b031633146109be5760405162461bcd60e51b815260206004820181905260248201527f4f776e61626c653a2063616c6c6572206973206e6f7420746865206f776e65726044820152606401610619565b612648612743565b6000805460ff60a01b191690557f5db9ee0a495bf2e6ff9c91a7834c1ba4fdd244a5e8aa4e537bd38aeae4b073aa335b6040516001600160a01b03909116815260200160405180910390a1565b600080546001600160a01b038381166001600160a01b0319831681178455604051919092169283917f8be0079c531659141344cd1fd0a4f28419497f9722a3daafe3b4186f6b6457e09190a35050565b60008185111580156126f75750828410155b95945050505050565b612708612793565b6000805460ff60a01b1916600160a01b1790557f62e78cea01bee320cd4e420270b5ea74000d11b0c9f74754ebdbfc544b05a2586126783390565b600054600160a01b900460ff166109be5760405162461bcd60e51b815260206004820152601460248201527314185d5cd8589b194e881b9bdd081c185d5cd95960621b6044820152606401610619565b600054600160a01b900460ff16156109be5760405162461bcd60e51b815260206004820152601060248201526f14185d5cd8589b194e881c185d5cd95960821b6044820152606401610619565b508054600082559060005260206000209081019061222b919061289d565b6040518060e00160405280600081526020016000815260200160006001600160a01b031681526020016000815260200160008152602001606081526020016000151581525090565b604051806101200160405280600081526020016000815260200160006001600160a01b0316815260200160008152602001600081526020016000815260200160008152602001606081526020016000151581525090565b5b808211156128b2576000815560010161289e565b5090565b6001600160a01b038116811461222b57600080fd5b6000602082840312156128dd57600080fd5b81356128e8816128b6565b9392505050565b60006020828403121561290157600080fd5b5035919050565b801515811461222b57600080fd5b60008060006060848603121561292b57600080fd5b83359250602084013561293d81612908565b929592945050506040919091013590565b6000806040838503121561296157600080fd5b50508035926020909101359150565b600081518084526020808501945080840160005b838110156129a95781516001600160a01b031687529582019590820190600101612984565b509495945050505050565b60006020808301818452808551808352604092508286019150828160051b87010184880160005b83811015612a5f57888303603f190185528151805184528781015188850152868101516001600160a01b031687850152606080820151908501526080808201519085015260a08082015160e08287018190529190612a3b83880182612970565b60c094850151151597909401969096525050948701949250908601906001016129db565b509098975050505050505050565b60006020808301818452808551808352604092508286019150828160051b87010184880160005b83811015612a5f57603f198984030185528151805184528781015188850152868101516001600160a01b031687850152606080820151908501526080808201519085015260a0808201519085015260c0808201519085015260e0808201516101208287018190529190612b0983880182612970565b92505050610100808301519250612b238187018415159052565b509588019593505090860190600101612a94565b600080600060608486031215612b4c57600080fd5b8335925060208401359150604084013560ff81168114612b6b57600080fd5b809150509250925092565b60208082526011908201527014995b9d185b081b5d5cdd08195e1a5cdd607a1b604082015260600190565b634e487b7160e01b600052601160045260246000fd5b81810381811115612bca57612bca612ba1565b92915050565b600060208284031215612be257600080fd5b81516128e881612908565b602080825260149082015273105cdcd95d08191bd95cc81b9bdd08195e1a5cdd60621b604082015260600190565b602080825260149082015273105cdcd95d08185b1c9958591e481c995b9d195960621b604082015260600190565b600060018201612c5b57612c5b612ba1565b5060010190565b634e487b7160e01b600052604160045260246000fd5b634e487b7160e01b600052603260045260246000fd5b62ffffff818116838216028082169190828114612cad57612cad612ba1565b505092915050565b80820180821115612bca57612bca612ba1565b8082028115828204841417612bca57612bca612ba1565b600060208284031215612cf157600080fd5b5051919050565b600082612d1557634e487b7160e01b600052601260045260246000fd5b500490565b8051612d25816128b6565b919050565b60006020808385031215612d3d57600080fd5b825167ffffffffffffffff80821115612d5557600080fd5b818501915085601f830112612d6957600080fd5b815181811115612d7b57612d7b612c62565b8060051b604051601f19603f83011681018181108582111715612da057612da0612c62565b604052918252848201925083810185019188831115612dbe57600080fd5b938501935b82851015612de357612dd485612d1a565b84529385019392850192612dc3565b9897505050505050505056fea264697066735822122008a5e2fe62ec245c1a40ee8b6f573eb47871ee651d55fb31c2efbd0163d7e18b64736f6c63430008120033",
  "linkReferences": {},
  "deployedLinkReferences": {}
}