{
  "_format": "hh-sol-artifact-1",
  "contractName": "BlockEstateRentals",
  "sourceName": "contracts/BlockEstate/BlockEstateRentals.sol",
  "abi": [
    {
      "inputs": [
        {
          "internalType": "address",
          "name": "_assetsAddress",
          "type": "address"
        },
        {
          "internalType": "address",
          "name": "_sharesAddress",
          "type": "address"
        },
        {
          "internalType": "address",
          "name": "_marketAddress",
          "type": "address"
        },
        {
          "internalType": "address",
          "name": "_usdAddress",
          "type": "address"
        }
      ],
      "stateMutability": "nonpayable",
      "type": "constructor"
    },
    {
      "anonymous": false,
      "inputs": [
        {
          "indexed": false,
          "internalType": "uint256",
          "name": "rentalId",
          "type": "uint256"
        }
      ],
      "name": "FixedRentalApproved",
      "type": "event"
    },
    {
      "anonymous": false,
      "inputs": [
        {
          "indexed": false,
          "internalType": "uint256",
          "name": "rentalId",
          "type": "uint256"
        },
        {
          "indexed": false,
          "internalType": "uint256",
          "name": "tokenId",
          "type": "uint256"
        },
        {
          "indexed": false,
          "internalType": "address",
          "name": "renter",
          "type": "address"
        },
        {
          "indexed": false,
          "internalType": "uint256",
          "name": "start",
          "type": "uint256"
        },
        {
          "indexed": false,
          "internalType": "uint256",
          "name": "end",
          "type": "uint256"
        },
        {
          "indexed": false,
          "internalType": "uint256",
          "name": "price",
          "type": "uint256"
        }
      ],
      "name": "FixedRentalCreated",
      "type": "event"
    },
    {
      "anonymous": false,
      "inputs": [
        {
          "indexed": false,
          "internalType": "uint256",
          "name": "rentalId",
          "type": "uint256"
        }
      ],
      "name": "FixedRentalDeleted",
      "type": "event"
    },
    {
      "anonymous": false,
      "inputs": [
        {
          "indexed": false,
          "internalType": "uint256",
          "name": "rentalId",
          "type": "uint256"
        },
        {
          "indexed": false,
          "internalType": "address",
          "name": "approver",
          "type": "address"
        },
        {
          "indexed": false,
          "internalType": "uint256",
          "name": "votes",
          "type": "uint256"
        }
      ],
      "name": "FixedRentalVoted",
      "type": "event"
    },
    {
      "anonymous": false,
      "inputs": [
        {
          "indexed": false,
          "internalType": "uint256",
          "name": "rentalId",
          "type": "uint256"
        }
      ],
      "name": "MonthlyRentalApproved",
      "type": "event"
    },
    {
      "anonymous": false,
      "inputs": [
        {
          "indexed": false,
          "internalType": "uint256",
          "name": "rentalId",
          "type": "uint256"
        },
        {
          "indexed": false,
          "internalType": "uint256",
          "name": "tokenId",
          "type": "uint256"
        },
        {
          "indexed": false,
          "internalType": "address",
          "name": "renter",
          "type": "address"
        },
        {
          "indexed": false,
          "internalType": "uint256",
          "name": "start",
          "type": "uint256"
        }
      ],
      "name": "MonthlyRentalCreated",
      "type": "event"
    },
    {
      "anonymous": false,
      "inputs": [
        {
          "indexed": false,
          "internalType": "uint256",
          "name": "rentalId",
          "type": "uint256"
        }
      ],
      "name": "MonthlyRentalDeleted",
      "type": "event"
    },
    {
      "anonymous": false,
      "inputs": [
        {
          "indexed": false,
          "internalType": "uint256",
          "name": "rentalId",
          "type": "uint256"
        },
        {
          "indexed": false,
          "internalType": "address",
          "name": "approver",
          "type": "address"
        },
        {
          "indexed": false,
          "internalType": "uint256",
          "name": "votes",
          "type": "uint256"
        }
      ],
      "name": "MonthlyRentalVoted",
      "type": "event"
    },
    {
      "anonymous": false,
      "inputs": [
        {
          "indexed": true,
          "internalType": "address",
          "name": "previousOwner",
          "type": "address"
        },
        {
          "indexed": true,
          "internalType": "address",
          "name": "newOwner",
          "type": "address"
        }
      ],
      "name": "OwnershipTransferred",
      "type": "event"
    },
    {
      "anonymous": false,
      "inputs": [
        {
          "indexed": false,
          "internalType": "address",
          "name": "account",
          "type": "address"
        }
      ],
      "name": "Paused",
      "type": "event"
    },
    {
      "anonymous": false,
      "inputs": [
        {
          "indexed": false,
          "internalType": "address",
          "name": "account",
          "type": "address"
        }
      ],
      "name": "Unpaused",
      "type": "event"
    },
    {
      "inputs": [
        {
          "internalType": "uint256",
          "name": "rentalId",
          "type": "uint256"
        }
      ],
      "name": "approveFixedRental",
      "outputs": [],
      "stateMutability": "nonpayable",
      "type": "function"
    },
    {
      "inputs": [
        {
          "internalType": "uint256",
          "name": "rentalId",
          "type": "uint256"
        }
      ],
      "name": "approveMonthlyRental",
      "outputs": [],
      "stateMutability": "nonpayable",
      "type": "function"
    },
    {
      "inputs": [
        {
          "internalType": "uint256",
          "name": "",
          "type": "uint256"
        }
      ],
      "name": "approvedFixedRentals",
      "outputs": [
        {
          "internalType": "bool",
          "name": "",
          "type": "bool"
        }
      ],
      "stateMutability": "view",
      "type": "function"
    },
    {
      "inputs": [
        {
          "internalType": "uint256",
          "name": "",
          "type": "uint256"
        }
      ],
      "name": "approvedMonthlyRentals",
      "outputs": [
        {
          "internalType": "bool",
          "name": "",
          "type": "bool"
        }
      ],
      "stateMutability": "view",
      "type": "function"
    },
    {
      "inputs": [
        {
          "internalType": "address",
          "name": "",
          "type": "address"
        }
      ],
      "name": "balances",
      "outputs": [
        {
          "internalType": "uint256",
          "name": "",
          "type": "uint256"
        }
      ],
      "stateMutability": "view",
      "type": "function"
    },
    {
      "inputs": [
        {
          "internalType": "uint256",
          "name": "rentalId",
          "type": "uint256"
        }
      ],
      "name": "cancelFixedRental",
      "outputs": [],
      "stateMutability": "nonpayable",
      "type": "function"
    },
    {
      "inputs": [
        {
          "internalType": "uint256",
          "name": "rentalId",
          "type": "uint256"
        }
      ],
      "name": "cancelMonthlyRental",
      "outputs": [],
      "stateMutability": "nonpayable",
      "type": "function"
    },
    {
      "inputs": [
        {
          "internalType": "uint256",
          "name": "tokenId",
          "type": "uint256"
        },
        {
          "internalType": "uint256",
          "name": "start",
          "type": "uint256"
        },
        {
          "internalType": "uint8",
          "name": "daysAmount",
          "type": "uint8"
        }
      ],
      "name": "createFixedRental",
      "outputs": [],
      "stateMutability": "nonpayable",
      "type": "function"
    },
    {
      "inputs": [
        {
          "internalType": "uint256",
          "name": "tokenId",
          "type": "uint256"
        },
        {
          "internalType": "uint256",
          "name": "start",
          "type": "uint256"
        }
      ],
      "name": "createMonthlyRental",
      "outputs": [],
      "stateMutability": "nonpayable",
      "type": "function"
    },
    {
      "inputs": [
        {
          "internalType": "uint256",
          "name": "amount",
          "type": "uint256"
        }
      ],
      "name": "deposit",
      "outputs": [],
      "stateMutability": "nonpayable",
      "type": "function"
    },
    {
      "inputs": [
        {
          "internalType": "uint256",
          "name": "",
          "type": "uint256"
        }
      ],
      "name": "fixedRentals",
      "outputs": [
        {
          "internalType": "uint256",
          "name": "rentalId",
          "type": "uint256"
        },
        {
          "internalType": "uint256",
          "name": "tokenId",
          "type": "uint256"
        },
        {
          "internalType": "address",
          "name": "renter",
          "type": "address"
        },
        {
          "internalType": "uint256",
          "name": "start",
          "type": "uint256"
        },
        {
          "internalType": "uint256",
          "name": "end",
          "type": "uint256"
        },
        {
          "internalType": "uint256",
          "name": "price",
          "type": "uint256"
        },
        {
          "internalType": "uint256",
          "name": "votes",
          "type": "uint256"
        },
        {
          "internalType": "bool",
          "name": "isApproved",
          "type": "bool"
        }
      ],
      "stateMutability": "view",
      "type": "function"
    },
    {
      "inputs": [
        {
          "internalType": "uint256",
          "name": "",
          "type": "uint256"
        }
      ],
      "name": "isMonthlyRentable",
      "outputs": [
        {
          "internalType": "bool",
          "name": "",
          "type": "bool"
        }
      ],
      "stateMutability": "view",
      "type": "function"
    },
    {
      "inputs": [
        {
          "internalType": "uint256",
          "name": "",
          "type": "uint256"
        }
      ],
      "name": "isRentable",
      "outputs": [
        {
          "internalType": "bool",
          "name": "",
          "type": "bool"
        }
      ],
      "stateMutability": "view",
      "type": "function"
    },
    {
      "inputs": [
        {
          "internalType": "uint256",
          "name": "",
          "type": "uint256"
        }
      ],
      "name": "monthlyRentals",
      "outputs": [
        {
          "internalType": "uint256",
          "name": "rentalId",
          "type": "uint256"
        },
        {
          "internalType": "uint256",
          "name": "tokenId",
          "type": "uint256"
        },
        {
          "internalType": "address",
          "name": "renter",
          "type": "address"
        },
        {
          "internalType": "uint256",
          "name": "start",
          "type": "uint256"
        },
        {
          "internalType": "uint256",
          "name": "votes",
          "type": "uint256"
        },
        {
          "internalType": "bool",
          "name": "isApproved",
          "type": "bool"
        }
      ],
      "stateMutability": "view",
      "type": "function"
    },
    {
      "inputs": [],
      "name": "owner",
      "outputs": [
        {
          "internalType": "address",
          "name": "",
          "type": "address"
        }
      ],
      "stateMutability": "view",
      "type": "function"
    },
    {
      "inputs": [],
      "name": "pause",
      "outputs": [],
      "stateMutability": "nonpayable",
      "type": "function"
    },
    {
      "inputs": [],
      "name": "paused",
      "outputs": [
        {
          "internalType": "bool",
          "name": "",
          "type": "bool"
        }
      ],
      "stateMutability": "view",
      "type": "function"
    },
    {
      "inputs": [
        {
          "internalType": "uint256",
          "name": "",
          "type": "uint256"
        }
      ],
      "name": "pricePerDay",
      "outputs": [
        {
          "internalType": "uint256",
          "name": "",
          "type": "uint256"
        }
      ],
      "stateMutability": "view",
      "type": "function"
    },
    {
      "inputs": [
        {
          "internalType": "uint256",
          "name": "",
          "type": "uint256"
        }
      ],
      "name": "pricePerMonth",
      "outputs": [
        {
          "internalType": "uint256",
          "name": "",
          "type": "uint256"
        }
      ],
      "stateMutability": "view",
      "type": "function"
    },
    {
      "inputs": [
        {
          "internalType": "address",
          "name": "account",
          "type": "address"
        }
      ],
      "name": "readFixedRentalsByAccount",
      "outputs": [
        {
          "components": [
            {
              "internalType": "uint256",
              "name": "rentalId",
              "type": "uint256"
            },
            {
              "internalType": "uint256",
              "name": "tokenId",
              "type": "uint256"
            },
            {
              "internalType": "address",
              "name": "renter",
              "type": "address"
            },
            {
              "internalType": "uint256",
              "name": "start",
              "type": "uint256"
            },
            {
              "internalType": "uint256",
              "name": "end",
              "type": "uint256"
            },
            {
              "internalType": "uint256",
              "name": "price",
              "type": "uint256"
            },
            {
              "internalType": "uint256",
              "name": "votes",
              "type": "uint256"
            },
            {
              "internalType": "address[]",
              "name": "approved",
              "type": "address[]"
            },
            {
              "internalType": "bool",
              "name": "isApproved",
              "type": "bool"
            }
          ],
          "internalType": "struct BlockEstateRentals.FixedRental[]",
          "name": "",
          "type": "tuple[]"
        }
      ],
      "stateMutability": "view",
      "type": "function"
    },
    {
      "inputs": [
        {
          "internalType": "uint256",
          "name": "tokenId",
          "type": "uint256"
        }
      ],
      "name": "readFixedRentalsByToken",
      "outputs": [
        {
          "components": [
            {
              "internalType": "uint256",
              "name": "rentalId",
              "type": "uint256"
            },
            {
              "internalType": "uint256",
              "name": "tokenId",
              "type": "uint256"
            },
            {
              "internalType": "address",
              "name": "renter",
              "type": "address"
            },
            {
              "internalType": "uint256",
              "name": "start",
              "type": "uint256"
            },
            {
              "internalType": "uint256",
              "name": "end",
              "type": "uint256"
            },
            {
              "internalType": "uint256",
              "name": "price",
              "type": "uint256"
            },
            {
              "internalType": "uint256",
              "name": "votes",
              "type": "uint256"
            },
            {
              "internalType": "address[]",
              "name": "approved",
              "type": "address[]"
            },
            {
              "internalType": "bool",
              "name": "isApproved",
              "type": "bool"
            }
          ],
          "internalType": "struct BlockEstateRentals.FixedRental[]",
          "name": "",
          "type": "tuple[]"
        }
      ],
      "stateMutability": "view",
      "type": "function"
    },
    {
      "inputs": [
        {
          "internalType": "address",
          "name": "account",
          "type": "address"
        }
      ],
      "name": "readMonthlyRentalsByAccount",
      "outputs": [
        {
          "components": [
            {
              "internalType": "uint256",
              "name": "rentalId",
              "type": "uint256"
            },
            {
              "internalType": "uint256",
              "name": "tokenId",
              "type": "uint256"
            },
            {
              "internalType": "address",
              "name": "renter",
              "type": "address"
            },
            {
              "internalType": "uint256",
              "name": "start",
              "type": "uint256"
            },
            {
              "internalType": "uint256",
              "name": "votes",
              "type": "uint256"
            },
            {
              "internalType": "address[]",
              "name": "approved",
              "type": "address[]"
            },
            {
              "internalType": "bool",
              "name": "isApproved",
              "type": "bool"
            }
          ],
          "internalType": "struct BlockEstateRentals.MonthlyRental[]",
          "name": "",
          "type": "tuple[]"
        }
      ],
      "stateMutability": "view",
      "type": "function"
    },
    {
      "inputs": [
        {
          "internalType": "uint256",
          "name": "tokenId",
          "type": "uint256"
        }
      ],
      "name": "readMonthlyRentalsByToken",
      "outputs": [
        {
          "components": [
            {
              "internalType": "uint256",
              "name": "rentalId",
              "type": "uint256"
            },
            {
              "internalType": "uint256",
              "name": "tokenId",
              "type": "uint256"
            },
            {
              "internalType": "address",
              "name": "renter",
              "type": "address"
            },
            {
              "internalType": "uint256",
              "name": "start",
              "type": "uint256"
            },
            {
              "internalType": "uint256",
              "name": "votes",
              "type": "uint256"
            },
            {
              "internalType": "address[]",
              "name": "approved",
              "type": "address[]"
            },
            {
              "internalType": "bool",
              "name": "isApproved",
              "type": "bool"
            }
          ],
          "internalType": "struct BlockEstateRentals.MonthlyRental[]",
          "name": "",
          "type": "tuple[]"
        }
      ],
      "stateMutability": "view",
      "type": "function"
    },
    {
      "inputs": [],
      "name": "renounceOwnership",
      "outputs": [],
      "stateMutability": "nonpayable",
      "type": "function"
    },
    {
      "inputs": [
        {
          "internalType": "address",
          "name": "_assetsAddress",
          "type": "address"
        }
      ],
      "name": "setAssetsAddress",
      "outputs": [],
      "stateMutability": "nonpayable",
      "type": "function"
    },
    {
      "inputs": [
        {
          "internalType": "uint256",
          "name": "tokenId",
          "type": "uint256"
        },
        {
          "internalType": "bool",
          "name": "rentable",
          "type": "bool"
        },
        {
          "internalType": "uint256",
          "name": "_pricePerMonth",
          "type": "uint256"
        }
      ],
      "name": "setMonthlyRentable",
      "outputs": [],
      "stateMutability": "nonpayable",
      "type": "function"
    },
    {
      "inputs": [
        {
          "internalType": "uint256",
          "name": "tokenId",
          "type": "uint256"
        },
        {
          "internalType": "bool",
          "name": "rentable",
          "type": "bool"
        },
        {
          "internalType": "uint256",
          "name": "_pricePerDay",
          "type": "uint256"
        }
      ],
      "name": "setRentable",
      "outputs": [],
      "stateMutability": "nonpayable",
      "type": "function"
    },
    {
      "inputs": [
        {
          "internalType": "address",
          "name": "_sharesAddress",
          "type": "address"
        }
      ],
      "name": "setSharesAddress",
      "outputs": [],
      "stateMutability": "nonpayable",
      "type": "function"
    },
    {
      "inputs": [
        {
          "internalType": "address",
          "name": "newOwner",
          "type": "address"
        }
      ],
      "name": "transferOwnership",
      "outputs": [],
      "stateMutability": "nonpayable",
      "type": "function"
    },
    {
      "inputs": [],
      "name": "unpause",
      "outputs": [],
      "stateMutability": "nonpayable",
      "type": "function"
    },
    {
      "inputs": [
        {
          "internalType": "uint256",
          "name": "amount",
          "type": "uint256"
        }
      ],
      "name": "withdraw",
      "outputs": [],
      "stateMutability": "nonpayable",
      "type": "function"
    }
  ],
  "bytecode": "0x60806040523480156200001157600080fd5b50604051620032d7380380620032d7833981016040819052620000349162000231565b6200003f33620001c4565b6000805460ff60a01b19169055600180556001600160a01b0384166200009b5760405162461bcd60e51b815260206004820152600c60248201526b7a65726f206164647265737360a01b60448201526064015b60405180910390fd5b6001600160a01b038316620000e25760405162461bcd60e51b815260206004820152600c60248201526b7a65726f206164647265737360a01b604482015260640162000092565b6001600160a01b038216620001295760405162461bcd60e51b815260206004820152600c60248201526b7a65726f206164647265737360a01b604482015260640162000092565b6001600160a01b038116620001705760405162461bcd60e51b815260206004820152600c60248201526b7a65726f206164647265737360a01b604482015260640162000092565b600c80546001600160a01b039586166001600160a01b031991821617909155600d805494861694821694909417909355600e805492851692841692909217909155600f80549190931691161790556200028e565b600080546001600160a01b038381166001600160a01b0319831681178455604051919092169283917f8be0079c531659141344cd1fd0a4f28419497f9722a3daafe3b4186f6b6457e09190a35050565b80516001600160a01b03811681146200022c57600080fd5b919050565b600080600080608085870312156200024857600080fd5b620002538562000214565b9350620002636020860162000214565b9250620002736040860162000214565b9150620002836060860162000214565b905092959194509250565b613039806200029e6000396000f3fe608060405234801561001057600080fd5b50600436106101e55760003560e01c8063715018a61161010f578063b6b55f25116100a2578063c392598d11610071578063c392598d1461056c578063e03291521461058f578063f2fde38b146105af578063f4037a99146105c257600080fd5b8063b6b55f2514610510578063bd48495114610523578063c047aefe14610536578063c122e1541461055957600080fd5b806384783a14116100de57806384783a14146104355780638da5cb5b1461045557806395113e81146104705780639def83ee1461048357600080fd5b8063715018a6146103ef5780637b3dae9b146103f75780637e0d64a01461040a5780638456cb591461042d57600080fd5b8063420b3240116101875780635b229837116101565780635b229837146103975780635c975abb146103aa57806365b1a563146103bc5780636bbab268146103cf57600080fd5b8063420b32401461031e57806347912b511461033157806354ae9b6a146103445780635a534dd21461036457600080fd5b80632e1a7d4d116101c35780632e1a7d4d146102455780632fd147891461025857806332489528146103035780633f4ba83a1461031657600080fd5b80631490a174146101ea5780632751b037146101ff57806327e235e314610212575b600080fd5b6101fd6101f8366004612adf565b6105d5565b005b6101fd61020d366004612b03565b6105ff565b610232610220366004612adf565b60036020526000908152604090205481565b6040519081526020015b60405180910390f35b6101fd610253366004612b03565b6107ad565b6102b8610266366004612b03565b600660208190526000918252604090912080546001820154600283015460038401546004850154600586015496860154600890960154949693956001600160a01b039093169491939092909160ff1688565b6040805198895260208901979097526001600160a01b03909516958701959095526060860192909252608085015260a084015260c0830191909152151560e08201526101000161023c565b6101fd610311366004612b2a565b6108a1565b6101fd6109c4565b6101fd61032c366004612adf565b6109d6565b6101fd61033f366004612b62565b610a00565b610357610352366004612adf565b610c2e565b60405161023c9190612bc8565b610387610372366004612b03565b60076020526000908152604090205460ff1681565b604051901515815260200161023c565b6103576103a5366004612b03565b610e15565b600054600160a01b900460ff16610387565b6101fd6103ca366004612b2a565b610fdd565b6102326103dd366004612b03565b60056020526000908152604090205481565b6101fd611100565b6101fd610405366004612c81565b611112565b610387610418366004612b03565b600b6020526000908152604090205460ff1681565b6101fd611576565b610448610443366004612b03565b611586565b60405161023c9190612cc0565b6000546040516001600160a01b03909116815260200161023c565b6101fd61047e366004612b03565b611760565b6104d3610491366004612b03565b600a60205260009081526040902080546001820154600283015460038401546004850154600690950154939492936001600160a01b0390921692909160ff1686565b6040805196875260208701959095526001600160a01b039093169385019390935260608401526080830191909152151560a082015260c00161023c565b6101fd61051e366004612b03565b61204b565b6101fd610531366004612b03565b6120ac565b610387610544366004612b03565b60086020526000908152604090205460ff1681565b610448610567366004612adf565b6121d9565b61038761057a366004612b03565b60046020526000908152604090205460ff1681565b61023261059d366004612b03565b60096020526000908152604090205481565b6101fd6105bd366004612adf565b6123c9565b6101fd6105d0366004612b03565b612442565b6105dd6127fa565b600c80546001600160a01b0319166001600160a01b0392909216919091179055565b60008181526006602052604081206001015490036106385760405162461bcd60e51b815260040161062f90612d8a565b60405180910390fd5b60008181526006602052604090206008015460ff161561069a5760405162461bcd60e51b815260206004820152601b60248201527f52656e74616c206d757374206e6f7420626520617070726f7665640000000000604482015260640161062f565b6000818152600660205260409020600201546001600160a01b031633146106fc5760405162461bcd60e51b815260206004820152601660248201527513db9b1e481c995b9d195c8818d85b8818d85b98d95b60521b604482015260640161062f565b60008181526006602081905260408220828155600181018390556002810180546001600160a01b03191690556003810183905560048101839055600581018390559081018290559061075160078301826129f4565b50600801805460ff199081169091556000828152600760209081526040918290208054909316909255518281527fad847b72d29f3dc4278a02679fef9f551f88c5cc754eafa281d6c4f6c14ac88391015b60405180910390a150565b336000908152600360205260409020548111156108035760405162461bcd60e51b8152602060048201526014602482015273496e73756666696369656e742062616c616e636560601b604482015260640161062f565b3360009081526003602052604081208054839290610822908490612dcb565b9091555050600f5460405163a9059cbb60e01b8152336004820152602481018390526001600160a01b039091169063a9059cbb906044015b6020604051808303816000875af1158015610879573d6000803e3d6000fd5b505050506040513d601f19601f8201168201806040525081019061089d9190612de4565b5050565b600c54604051634f558e7960e01b8152600481018590526001600160a01b0390911690634f558e7990602401602060405180830381865afa1580156108ea573d6000803e3d6000fd5b505050506040513d601f19601f8201168201806040525081019061090e9190612de4565b61092a5760405162461bcd60e51b815260040161062f90612e01565b81151560000361094e5750506000908152600860205260409020805460ff19169055565b600081116109995760405162461bcd60e51b81526020600482015260186024820152775072696365206d757374206265206174206c65617374203160401b604482015260640161062f565b6000928352600860209081526040808520805460ff1916600117905560099091529092209190915550565b6109cc6127fa565b6109d4612854565b565b6109de6127fa565b600d80546001600160a01b0319166001600160a01b0392909216919091179055565b600c54604051634f558e7960e01b8152600481018490526001600160a01b0390911690634f558e7990602401602060405180830381865afa158015610a49573d6000803e3d6000fd5b505050506040513d601f19601f82011682018060405250810190610a6d9190612de4565b610a895760405162461bcd60e51b815260040161062f90612e01565b60008281526008602052604090205460ff16610adf5760405162461bcd60e51b8152602060048201526015602482015274105cdcd95d081a5cc81b9bdd08199bdc881c995b9d605a1b604482015260640161062f565b428111610b2e5760405162461bcd60e51b815260206004820152601760248201527f5374617274206d75737420626520696e20667574757265000000000000000000604482015260640161062f565b6000610b3960025490565b9050610b49600280546001019055565b60005b81811015610b97576000818152600a6020526040902060010154849003610b855760405162461bcd60e51b815260040161062f90612e2f565b80610b8f81612e5d565b915050610b4c565b506000818152600a60209081526040808320848155600181018790556002810180546001600160a01b03191633908117909155600382018790556004820194909455600601805460ff191690558051848152918201869052810191909152606081018390527f36445b5b7ac4b4b71c3f7c20d0aeb811477e2608d2495ca1ec96b1f0d21b7b739060800160405180910390a1505050565b60606000805b600254811015610c82576000818152600a60205260409020600201546001600160a01b03808616911603610c705781610c6c81612e5d565b9250505b80610c7a81612e5d565b915050610c34565b506000808267ffffffffffffffff811115610c9f57610c9f612e76565b604051908082528060200260200182016040528015610cd857816020015b610cc5612a12565b815260200190600190039081610cbd5790505b50905060005b600254811015610e0c576000818152600a60205260409020600201546001600160a01b03808816911603610dfa576000818152600a6020908152604091829020825160e0810184528154815260018201548184015260028201546001600160a01b03168185015260038201546060820152600482015460808201526005820180548551818602810186019096528086529194929360a08601939290830182828015610db257602002820191906000526020600020905b81546001600160a01b03168152600190910190602001808311610d94575b50505091835250506006919091015460ff1615156020909101528251839085908110610de057610de0612e8c565b60200260200101819052508280610df690612e5d565b9350505b80610e0481612e5d565b915050610cde565b50949350505050565b60606000805b600254811015610e5e576000818152600a6020526040902060010154849003610e4c5781610e4881612e5d565b9250505b80610e5681612e5d565b915050610e1b565b506000808267ffffffffffffffff811115610e7b57610e7b612e76565b604051908082528060200260200182016040528015610eb457816020015b610ea1612a12565b815260200190600190039081610e995790505b50905060005b600254811015610e0c576000818152600a6020526040902060010154869003610fcb576000818152600a6020908152604091829020825160e0810184528154815260018201548184015260028201546001600160a01b03168185015260038201546060820152600482015460808201526005820180548551818602810186019096528086529194929360a08601939290830182828015610f8357602002820191906000526020600020905b81546001600160a01b03168152600190910190602001808311610f65575b50505091835250506006919091015460ff1615156020909101528251839085908110610fb157610fb1612e8c565b60200260200101819052508280610fc790612e5d565b9350505b80610fd581612e5d565b915050610eba565b600c54604051634f558e7960e01b8152600481018590526001600160a01b0390911690634f558e7990602401602060405180830381865afa158015611026573d6000803e3d6000fd5b505050506040513d601f19601f8201168201806040525081019061104a9190612de4565b6110665760405162461bcd60e51b815260040161062f90612e01565b81151560000361108a5750506000908152600460205260409020805460ff19169055565b600081116110d55760405162461bcd60e51b81526020600482015260186024820152775072696365206d757374206265206174206c65617374203160401b604482015260640161062f565b6000928352600460209081526040808520805460ff1916600117905560059091529092209190915550565b6111086127fa565b6109d460006128a9565b600c54604051634f558e7960e01b8152600481018590526001600160a01b0390911690634f558e7990602401602060405180830381865afa15801561115b573d6000803e3d6000fd5b505050506040513d601f19601f8201168201806040525081019061117f9190612de4565b61119b5760405162461bcd60e51b815260040161062f90612e01565b60008381526004602052604090205460ff166111f15760405162461bcd60e51b8152602060048201526015602482015274105cdcd95d081a5cc81b9bdd08199bdc881c995b9d605a1b604482015260640161062f565b428210156112415760405162461bcd60e51b815260206004820152601e60248201527f5374617274206d757374206265206e6f77206f7220696e206675747572650000604482015260640161062f565b60008160ff16116112945760405162461bcd60e51b815260206004820152601760248201527f44617973206d757374206265206174206c656173742031000000000000000000604482015260640161062f565b600061129f60025490565b90506112af600280546001019055565b60006112c160ff841662015180612ea2565b6112d09062ffffff1685612ec9565b905060005b82811015611320576000818152600a602052604090206001015486900361130e5760405162461bcd60e51b815260040161062f90612e2f565b8061131881612e5d565b9150506112d5565b5060005b828110156113b4576000818152600660205260409020600101548614801561136c57506000818152600660205260409020600381015460049091015461136c919087856128f9565b156113a25760008181526006602052604090206008015460ff166113a25760405162461bcd60e51b815260040161062f90612e2f565b806113ac81612e5d565b915050611324565b506000858152600560205260409020546113d19060ff8516612edc565b600e54604051636e86e79560e01b81523360048201526001600160a01b0390911690636e86e79590602401602060405180830381865afa158015611419573d6000803e3d6000fd5b505050506040513d601f19601f8201168201806040525081019061143d9190612ef3565b10156114805760405162461bcd60e51b8152602060048201526012602482015271496e73756666696369656e742066756e647360701b604482015260640161062f565b6000828152600660209081526040808320858155600181018990556002810180546001600160a01b031916331790556003810188905560040184905587835260059091529020546114d49060ff8516612edc565b6000838152600660208181526040808420600581018690559283019390935560088201805460ff1916905581546001830154600284015460038501546004909501548651938452938301919091526001600160a01b0316818501526060810192909252608082015260a0810192909252517feef3b7132416aa3751c98519543cc4f2a7e93ac69a1531d57e9a2e9f422c8eba9181900360c00190a15050505050565b61157e6127fa565b6109d4612914565b60606000805b6002548110156115cf576000818152600660205260409020600101548490036115bd57816115b981612e5d565b9250505b806115c781612e5d565b91505061158c565b506000808267ffffffffffffffff8111156115ec576115ec612e76565b60405190808252806020026020018201604052801561162557816020015b611612612a5a565b81526020019060019003908161160a5790505b50905060005b600254811015610e0c5760008181526006602052604090206001015486900361174e576000818152600660208181526040928390208351610120810185528154815260018201548184015260028201546001600160a01b0316818601526003820154606082015260048201546080820152600582015460a08201529281015460c08401526007810180548551818502810185019096528086529394919360e086019383018282801561170657602002820191906000526020600020905b81546001600160a01b031681526001909101906020018083116116e8575b50505091835250506008919091015460ff161515602090910152825183908590811061173457611734612e8c565b6020026020010181905250828061174a90612e5d565b9350505b8061175881612e5d565b91505061162b565b60008181526006602052604081206001015490036117905760405162461bcd60e51b815260040161062f90612d8a565b600d54600082815260066020526040808220600101549051627eeac760e11b8152336004820152602481019190915290916001600160a01b03169062fdd58e90604401602060405180830381865afa1580156117f0573d6000803e3d6000fd5b505050506040513d601f19601f820116820180604052508101906118149190612ef3565b9050600081116118585760405162461bcd60e51b815260206004820152600f60248201526e2737ba1039b430b932b437b63232b960891b604482015260640161062f565b60008281526006602052604090206008015460ff16156118ba5760405162461bcd60e51b815260206004820152601f60248201527f52656e74616c206d757374206e6f7420626520617070726f7665642079657400604482015260640161062f565b60005b6000838152600660205260409020600701548110156119635760008381526006602052604090206007018054339190839081106118fc576118fc612e8c565b6000918252602090912001546001600160a01b0316036119515760405162461bcd60e51b815260206004820152601060248201526f105b1c9958591e48185c1c1c9bdd995960821b604482015260640161062f565b8061195b81612e5d565b9150506118bd565b5060008281526006602081905260408220018054839290611985908490612ec9565b9091555050600082815260066020908152604080832060070180546001810182559084529282902090920180546001600160a01b031916339081179091558251858152918201529081018290527f0aebc1ad4b106de9cd98008a77d8f2e6e9d56e54ced136fbdd29eb3f5b24cd859060600160405180910390a1600d546000838152600660205260409081902060010154905163bd85b03960e01b815260048101919091526002916001600160a01b03169063bd85b03990602401602060405180830381865afa158015611a5d573d6000803e3d6000fd5b505050506040513d601f19601f82011682018060405250810190611a819190612ef3565b611a8b9190612f0c565b60008381526006602081905260409091200154111561089d5760005b600254811015611b5d57808314611b4b576000838152600660205260408082206001908101548484529190922090910154148015611b1557506000838152600660205260408082206003808201546004928301548686529390942090810154910154611b15939291906128f9565b15611b4b5760008381526006602052604090206008015460ff16611b4b5760405162461bcd60e51b815260040161062f90612e2f565b80611b5581612e5d565b915050611aa7565b50600082815260066020526040908190206005810154600e546002909201549251636e86e79560e01b81526001600160a01b039384166004820152909290911690636e86e79590602401602060405180830381865afa158015611bc4573d6000803e3d6000fd5b505050506040513d601f19601f82011682018060405250810190611be89190612ef3565b1015611c365760405162461bcd60e51b815260206004820152601860248201527f4e6f7420656e6f7567682066756e647320696e20706f6f6c0000000000000000604482015260640161062f565b60008281526006602090815260408083206008018054600160ff199182168117909255600784529382902080549094161790925590518381527f9145fd4b7d7b7b4d24e9351d433c262ac114fb8787d1cce4c8f9535dfadc246c910160405180910390a1600d546000838152600660205260408082206001015490516310f9323360e21b815291926001600160a01b0316916343e4c8cc91611cde9160040190815260200190565b600060405180830381865afa158015611cfb573d6000803e3d6000fd5b505050506040513d6000823e601f3d908101601f19168201604052611d239190810190612f3e565b600d5460008581526006602052604080822060010154905163bd85b03960e01b81526004810191909152929350916001600160a01b039091169063bd85b03990602401602060405180830381865afa158015611d83573d6000803e3d6000fd5b505050506040513d601f19601f82011682018060405250810190611da79190612ef3565b90506000805b8351811015611fe35760006001600160a01b0316848281518110611dd357611dd3612e8c565b60200260200101516001600160a01b03161480611e215750600e5484516001600160a01b0390911690859083908110611e0e57611e0e612e8c565b60200260200101516001600160a01b0316145b611fd157600d5484516000916001600160a01b03169062fdd58e90879085908110611e4e57611e4e612e8c565b6020026020010151600660008b8152602001908152602001600020600101546040518363ffffffff1660e01b8152600401611e9e9291906001600160a01b03929092168252602082015260400190565b602060405180830381865afa158015611ebb573d6000803e3d6000fd5b505050506040513d601f19601f82011682018060405250810190611edf9190612ef3565b600088815260066020526040812060050154919250908290611f02908790612f0c565b611f0c9190612edc565b600e5460008a81526006602052604090206002015488519293506001600160a01b0391821692631501bf039290911690899087908110611f4e57611f4e612e8c565b60209081029190910101516040516001600160e01b031960e085901b1681526001600160a01b0392831660048201529116602482015260448101849052606401600060405180830381600087803b158015611fa857600080fd5b505af1158015611fbc573d6000803e3d6000fd5b505050508084611fcc9190612ec9565b935050505b80611fdb81612e5d565b915050611dad565b5060008581526006602052604090206005015481146120445760405162461bcd60e51b815260206004820152601e60248201527f5472616e7366657220616d6f756e7420646f6573206e6f74206d617463680000604482015260640161062f565b5050505050565b336000908152600360205260408120805483929061206a908490612ec9565b9091555050600f546040516323b872dd60e01b8152336004820152306024820152604481018390526001600160a01b03909116906323b872dd9060640161085a565b6000818152600a602052604081206001015490036120dc5760405162461bcd60e51b815260040161062f90612d8a565b6000818152600a60205260409020600201546001600160a01b0316331461213e5760405162461bcd60e51b815260206004820152601660248201527513db9b1e481c995b9d195c8818d85b8818d85b98d95b60521b604482015260640161062f565b6000818152600a60205260408120818155600181018290556002810180546001600160a01b031916905560038101829055600481018290559061218460058301826129f4565b50600601805460ff199081169091556000828152600b60209081526040918290208054909316909255518281527fccae085021d1f5f4f50d2d913820c0c3e8e018eb8ddf5146948eaadad191079791016107a2565b60606000805b60025481101561222d576000818152600660205260409020600201546001600160a01b0380861691160361221b578161221781612e5d565b9250505b8061222581612e5d565b9150506121df565b506000808267ffffffffffffffff81111561224a5761224a612e76565b60405190808252806020026020018201604052801561228357816020015b612270612a5a565b8152602001906001900390816122685790505b50905060005b600254811015610e0c576000818152600660205260409020600201546001600160a01b038088169116036123b7576000818152600660208181526040928390208351610120810185528154815260018201548184015260028201546001600160a01b0316818601526003820154606082015260048201546080820152600582015460a08201529281015460c08401526007810180548551818502810185019096528086529394919360e086019383018282801561236f57602002820191906000526020600020905b81546001600160a01b03168152600190910190602001808311612351575b50505091835250506008919091015460ff161515602090910152825183908590811061239d5761239d612e8c565b602002602001018190525082806123b390612e5d565b9350505b806123c181612e5d565b915050612289565b6123d16127fa565b6001600160a01b0381166124365760405162461bcd60e51b815260206004820152602660248201527f4f776e61626c653a206e6577206f776e657220697320746865207a65726f206160448201526564647265737360d01b606482015260840161062f565b61243f816128a9565b50565b6000818152600a602052604081206001015490036124725760405162461bcd60e51b815260040161062f90612d8a565b600d546000828152600a6020526040808220600101549051627eeac760e11b8152336004820152602481019190915290916001600160a01b03169062fdd58e90604401602060405180830381865afa1580156124d2573d6000803e3d6000fd5b505050506040513d601f19601f820116820180604052508101906124f69190612ef3565b90506000811161253a5760405162461bcd60e51b815260206004820152600f60248201526e2737ba1039b430b932b437b63232b960891b604482015260640161062f565b6000828152600a602052604090206006015460ff161561259c5760405162461bcd60e51b815260206004820152601f60248201527f52656e74616c206d757374206e6f7420626520617070726f7665642079657400604482015260640161062f565b60005b6000838152600a6020526040902060050154811015612652576000838152600a602052604090206005018054339190839081106125de576125de612e8c565b6000918252602090912001546001600160a01b0316036126405760405162461bcd60e51b815260206004820152601760248201527f43616c6c657220616c726561647920617070726f766564000000000000000000604482015260640161062f565b8061264a81612e5d565b91505061259f565b506000828152600a602052604081206004018054839290612674908490612ec9565b90915550506000828152600a6020908152604080832060050180546001810182559084529282902090920180546001600160a01b031916339081179091558251858152918201529081018290527fe44de8e20e1c7721a71e4cb57da99eb4155b0a5f9bb5031c5b2cc2f746806c949060600160405180910390a1600d546000838152600a60205260409081902060010154905163bd85b03960e01b815260048101919091526002916001600160a01b03169063bd85b03990602401602060405180830381865afa15801561274c573d6000803e3d6000fd5b505050506040513d601f19601f820116820180604052508101906127709190612ef3565b61277a9190612f0c565b6000838152600a6020526040902060040154111561089d576000828152600a602090815260408083206006018054600160ff199182168117909255600b84529382902080549094161790925590518381527f3925bc7850c4a816fc1d2d3501d4dfb426b74d0057a35f1126008ae5764ea5cc910160405180910390a15050565b6000546001600160a01b031633146109d45760405162461bcd60e51b815260206004820181905260248201527f4f776e61626c653a2063616c6c6572206973206e6f7420746865206f776e6572604482015260640161062f565b61285c612957565b6000805460ff60a01b191690557f5db9ee0a495bf2e6ff9c91a7834c1ba4fdd244a5e8aa4e537bd38aeae4b073aa335b6040516001600160a01b03909116815260200160405180910390a1565b600080546001600160a01b038381166001600160a01b0319831681178455604051919092169283917f8be0079c531659141344cd1fd0a4f28419497f9722a3daafe3b4186f6b6457e09190a35050565b600081851115801561290b5750828410155b95945050505050565b61291c6129a7565b6000805460ff60a01b1916600160a01b1790557f62e78cea01bee320cd4e420270b5ea74000d11b0c9f74754ebdbfc544b05a25861288c3390565b600054600160a01b900460ff166109d45760405162461bcd60e51b815260206004820152601460248201527314185d5cd8589b194e881b9bdd081c185d5cd95960621b604482015260640161062f565b600054600160a01b900460ff16156109d45760405162461bcd60e51b815260206004820152601060248201526f14185d5cd8589b194e881c185d5cd95960821b604482015260640161062f565b508054600082559060005260206000209081019061243f9190612ab1565b6040518060e00160405280600081526020016000815260200160006001600160a01b031681526020016000815260200160008152602001606081526020016000151581525090565b604051806101200160405280600081526020016000815260200160006001600160a01b0316815260200160008152602001600081526020016000815260200160008152602001606081526020016000151581525090565b5b80821115612ac65760008155600101612ab2565b5090565b6001600160a01b038116811461243f57600080fd5b600060208284031215612af157600080fd5b8135612afc81612aca565b9392505050565b600060208284031215612b1557600080fd5b5035919050565b801515811461243f57600080fd5b600080600060608486031215612b3f57600080fd5b833592506020840135612b5181612b1c565b929592945050506040919091013590565b60008060408385031215612b7557600080fd5b50508035926020909101359150565b600081518084526020808501945080840160005b83811015612bbd5781516001600160a01b031687529582019590820190600101612b98565b509495945050505050565b60006020808301818452808551808352604092508286019150828160051b87010184880160005b83811015612c7357888303603f190185528151805184528781015188850152868101516001600160a01b031687850152606080820151908501526080808201519085015260a08082015160e08287018190529190612c4f83880182612b84565b60c09485015115159790940196909652505094870194925090860190600101612bef565b509098975050505050505050565b600080600060608486031215612c9657600080fd5b8335925060208401359150604084013560ff81168114612cb557600080fd5b809150509250925092565b60006020808301818452808551808352604092508286019150828160051b87010184880160005b83811015612c7357603f198984030185528151805184528781015188850152868101516001600160a01b031687850152606080820151908501526080808201519085015260a0808201519085015260c0808201519085015260e0808201516101208287018190529190612d5c83880182612b84565b92505050610100808301519250612d768187018415159052565b509588019593505090860190600101612ce7565b60208082526011908201527014995b9d185b081b5d5cdd08195e1a5cdd607a1b604082015260600190565b634e487b7160e01b600052601160045260246000fd5b81810381811115612dde57612dde612db5565b92915050565b600060208284031215612df657600080fd5b8151612afc81612b1c565b602080825260149082015273105cdcd95d08191bd95cc81b9bdd08195e1a5cdd60621b604082015260600190565b602080825260149082015273105cdcd95d08185b1c9958591e481c995b9d195960621b604082015260600190565b600060018201612e6f57612e6f612db5565b5060010190565b634e487b7160e01b600052604160045260246000fd5b634e487b7160e01b600052603260045260246000fd5b62ffffff818116838216028082169190828114612ec157612ec1612db5565b505092915050565b80820180821115612dde57612dde612db5565b8082028115828204841417612dde57612dde612db5565b600060208284031215612f0557600080fd5b5051919050565b600082612f2957634e487b7160e01b600052601260045260246000fd5b500490565b8051612f3981612aca565b919050565b60006020808385031215612f5157600080fd5b825167ffffffffffffffff80821115612f6957600080fd5b818501915085601f830112612f7d57600080fd5b815181811115612f8f57612f8f612e76565b8060051b604051601f19603f83011681018181108582111715612fb457612fb4612e76565b604052918252848201925083810185019188831115612fd257600080fd5b938501935b82851015612ff757612fe885612f2e565b84529385019392850192612fd7565b9897505050505050505056fea2646970667358221220e0d38d6c47450fac35c964a5ab0e6f6b0e97ba4ac360ea46b9370702c6e1672664736f6c63430008120033",
  "linkReferences": {},
  "deployedLinkReferences": {}
}