{
  "_format": "hh-sol-artifact-1",
  "contractName": "BlockEstateMarket",
  "sourceName": "contracts/BlockEstate/BlockEstateMarket.sol",
  "abi": [
    {
      "inputs": [
        {
          "internalType": "address",
          "name": "_blockEstateAssetsAddress",
          "type": "address"
        },
        {
          "internalType": "address",
          "name": "_blockEstateSharesAddress",
          "type": "address"
        },
        {
          "internalType": "address",
          "name": "_usdAddress",
          "type": "address"
        }
      ],
      "stateMutability": "nonpayable",
      "type": "constructor"
    },
    {
      "anonymous": false,
      "inputs": [
        {
          "indexed": false,
          "internalType": "address",
          "name": "old",
          "type": "address"
        },
        {
          "indexed": false,
          "internalType": "address",
          "name": "updated",
          "type": "address"
        }
      ],
      "name": "BlockEstateAssetsAddressUpdated",
      "type": "event"
    },
    {
      "anonymous": false,
      "inputs": [
        {
          "indexed": false,
          "internalType": "address",
          "name": "old",
          "type": "address"
        },
        {
          "indexed": false,
          "internalType": "address",
          "name": "updated",
          "type": "address"
        }
      ],
      "name": "BlockEstateSharesAddressUpdated",
      "type": "event"
    },
    {
      "anonymous": false,
      "inputs": [
        {
          "indexed": true,
          "internalType": "address",
          "name": "previousOwner",
          "type": "address"
        },
        {
          "indexed": true,
          "internalType": "address",
          "name": "newOwner",
          "type": "address"
        }
      ],
      "name": "OwnershipTransferred",
      "type": "event"
    },
    {
      "anonymous": false,
      "inputs": [
        {
          "indexed": false,
          "internalType": "address",
          "name": "account",
          "type": "address"
        }
      ],
      "name": "Paused",
      "type": "event"
    },
    {
      "anonymous": false,
      "inputs": [
        {
          "indexed": false,
          "internalType": "uint256",
          "name": "listingId",
          "type": "uint256"
        },
        {
          "indexed": false,
          "internalType": "uint256",
          "name": "tokenId",
          "type": "uint256"
        },
        {
          "indexed": false,
          "internalType": "uint256",
          "name": "price",
          "type": "uint256"
        },
        {
          "indexed": false,
          "internalType": "uint256",
          "name": "amount",
          "type": "uint256"
        },
        {
          "indexed": false,
          "internalType": "address",
          "name": "seller",
          "type": "address"
        }
      ],
      "name": "SharesListingCreated",
      "type": "event"
    },
    {
      "anonymous": false,
      "inputs": [
        {
          "indexed": false,
          "internalType": "uint256",
          "name": "listingId",
          "type": "uint256"
        },
        {
          "indexed": false,
          "internalType": "uint256",
          "name": "tokenId",
          "type": "uint256"
        },
        {
          "indexed": false,
          "internalType": "uint256",
          "name": "price",
          "type": "uint256"
        },
        {
          "indexed": false,
          "internalType": "uint256",
          "name": "amount",
          "type": "uint256"
        },
        {
          "indexed": false,
          "internalType": "address",
          "name": "seller",
          "type": "address"
        }
      ],
      "name": "SharesListingDeleted",
      "type": "event"
    },
    {
      "anonymous": false,
      "inputs": [
        {
          "indexed": false,
          "internalType": "uint256",
          "name": "listingId",
          "type": "uint256"
        },
        {
          "indexed": false,
          "internalType": "uint256",
          "name": "tokenId",
          "type": "uint256"
        },
        {
          "indexed": false,
          "internalType": "uint256",
          "name": "price",
          "type": "uint256"
        },
        {
          "indexed": false,
          "internalType": "uint256",
          "name": "amount",
          "type": "uint256"
        },
        {
          "indexed": false,
          "internalType": "address",
          "name": "seller",
          "type": "address"
        },
        {
          "indexed": false,
          "internalType": "address",
          "name": "buyer",
          "type": "address"
        }
      ],
      "name": "SharesListingPurchased",
      "type": "event"
    },
    {
      "anonymous": false,
      "inputs": [
        {
          "indexed": false,
          "internalType": "address",
          "name": "account",
          "type": "address"
        }
      ],
      "name": "Unpaused",
      "type": "event"
    },
    {
      "inputs": [],
      "name": "blockEstateAssetsAddress",
      "outputs": [
        {
          "internalType": "address",
          "name": "",
          "type": "address"
        }
      ],
      "stateMutability": "view",
      "type": "function"
    },
    {
      "inputs": [],
      "name": "blockEstateSharesAddress",
      "outputs": [
        {
          "internalType": "address",
          "name": "",
          "type": "address"
        }
      ],
      "stateMutability": "view",
      "type": "function"
    },
    {
      "inputs": [
        {
          "internalType": "uint256",
          "name": "tokenId",
          "type": "uint256"
        },
        {
          "internalType": "uint256",
          "name": "price",
          "type": "uint256"
        },
        {
          "internalType": "uint256",
          "name": "amount",
          "type": "uint256"
        }
      ],
      "name": "createSharesListing",
      "outputs": [],
      "stateMutability": "nonpayable",
      "type": "function"
    },
    {
      "inputs": [
        {
          "internalType": "uint256",
          "name": "listingId",
          "type": "uint256"
        }
      ],
      "name": "deleteSharesListing",
      "outputs": [],
      "stateMutability": "nonpayable",
      "type": "function"
    },
    {
      "inputs": [],
      "name": "owner",
      "outputs": [
        {
          "internalType": "address",
          "name": "",
          "type": "address"
        }
      ],
      "stateMutability": "view",
      "type": "function"
    },
    {
      "inputs": [],
      "name": "pause",
      "outputs": [],
      "stateMutability": "nonpayable",
      "type": "function"
    },
    {
      "inputs": [],
      "name": "paused",
      "outputs": [
        {
          "internalType": "bool",
          "name": "",
          "type": "bool"
        }
      ],
      "stateMutability": "view",
      "type": "function"
    },
    {
      "inputs": [
        {
          "internalType": "uint256",
          "name": "listingId",
          "type": "uint256"
        }
      ],
      "name": "purchaseSharesListing",
      "outputs": [],
      "stateMutability": "payable",
      "type": "function"
    },
    {
      "inputs": [],
      "name": "readAllSharesListings",
      "outputs": [
        {
          "components": [
            {
              "internalType": "uint256",
              "name": "listingId",
              "type": "uint256"
            },
            {
              "internalType": "uint256",
              "name": "tokenId",
              "type": "uint256"
            },
            {
              "internalType": "uint256",
              "name": "price",
              "type": "uint256"
            },
            {
              "internalType": "uint256",
              "name": "amount",
              "type": "uint256"
            },
            {
              "internalType": "address",
              "name": "seller",
              "type": "address"
            },
            {
              "internalType": "bool",
              "name": "isActive",
              "type": "bool"
            }
          ],
          "internalType": "struct BlockEstateMarket.SharesListing[]",
          "name": "",
          "type": "tuple[]"
        }
      ],
      "stateMutability": "view",
      "type": "function"
    },
    {
      "inputs": [
        {
          "internalType": "address",
          "name": "account",
          "type": "address"
        }
      ],
      "name": "readListingsByAccount",
      "outputs": [
        {
          "components": [
            {
              "internalType": "uint256",
              "name": "listingId",
              "type": "uint256"
            },
            {
              "internalType": "uint256",
              "name": "tokenId",
              "type": "uint256"
            },
            {
              "internalType": "uint256",
              "name": "price",
              "type": "uint256"
            },
            {
              "internalType": "uint256",
              "name": "amount",
              "type": "uint256"
            },
            {
              "internalType": "address",
              "name": "seller",
              "type": "address"
            },
            {
              "internalType": "bool",
              "name": "isActive",
              "type": "bool"
            }
          ],
          "internalType": "struct BlockEstateMarket.SharesListing[]",
          "name": "",
          "type": "tuple[]"
        }
      ],
      "stateMutability": "view",
      "type": "function"
    },
    {
      "inputs": [
        {
          "internalType": "uint256",
          "name": "tokenId",
          "type": "uint256"
        }
      ],
      "name": "readListingsByAsset",
      "outputs": [
        {
          "components": [
            {
              "internalType": "uint256",
              "name": "listingId",
              "type": "uint256"
            },
            {
              "internalType": "uint256",
              "name": "tokenId",
              "type": "uint256"
            },
            {
              "internalType": "uint256",
              "name": "price",
              "type": "uint256"
            },
            {
              "internalType": "uint256",
              "name": "amount",
              "type": "uint256"
            },
            {
              "internalType": "address",
              "name": "seller",
              "type": "address"
            },
            {
              "internalType": "bool",
              "name": "isActive",
              "type": "bool"
            }
          ],
          "internalType": "struct BlockEstateMarket.SharesListing[]",
          "name": "",
          "type": "tuple[]"
        }
      ],
      "stateMutability": "view",
      "type": "function"
    },
    {
      "inputs": [],
      "name": "renounceOwnership",
      "outputs": [],
      "stateMutability": "nonpayable",
      "type": "function"
    },
    {
      "inputs": [
        {
          "internalType": "address",
          "name": "_blockEstateAssetsAddress",
          "type": "address"
        }
      ],
      "name": "setBlockEstateAssetsAddress",
      "outputs": [],
      "stateMutability": "nonpayable",
      "type": "function"
    },
    {
      "inputs": [
        {
          "internalType": "address",
          "name": "_blockEstateSharesAddress",
          "type": "address"
        }
      ],
      "name": "setBlockEstateSharesAddress",
      "outputs": [],
      "stateMutability": "nonpayable",
      "type": "function"
    },
    {
      "inputs": [
        {
          "internalType": "uint256",
          "name": "",
          "type": "uint256"
        }
      ],
      "name": "sharesListings",
      "outputs": [
        {
          "internalType": "uint256",
          "name": "listingId",
          "type": "uint256"
        },
        {
          "internalType": "uint256",
          "name": "tokenId",
          "type": "uint256"
        },
        {
          "internalType": "uint256",
          "name": "price",
          "type": "uint256"
        },
        {
          "internalType": "uint256",
          "name": "amount",
          "type": "uint256"
        },
        {
          "internalType": "address",
          "name": "seller",
          "type": "address"
        },
        {
          "internalType": "bool",
          "name": "isActive",
          "type": "bool"
        }
      ],
      "stateMutability": "view",
      "type": "function"
    },
    {
      "inputs": [
        {
          "internalType": "address",
          "name": "newOwner",
          "type": "address"
        }
      ],
      "name": "transferOwnership",
      "outputs": [],
      "stateMutability": "nonpayable",
      "type": "function"
    },
    {
      "inputs": [],
      "name": "unpause",
      "outputs": [],
      "stateMutability": "nonpayable",
      "type": "function"
    },
    {
      "inputs": [],
      "name": "usd",
      "outputs": [
        {
          "internalType": "contract IERC20",
          "name": "",
          "type": "address"
        }
      ],
      "stateMutability": "view",
      "type": "function"
    },
    {
      "inputs": [
        {
          "internalType": "address",
          "name": "",
          "type": "address"
        },
        {
          "internalType": "uint256",
          "name": "",
          "type": "uint256"
        }
      ],
      "name": "userListings",
      "outputs": [
        {
          "internalType": "uint256",
          "name": "",
          "type": "uint256"
        }
      ],
      "stateMutability": "view",
      "type": "function"
    }
  ],
  "bytecode": "0x60806040523480156200001157600080fd5b5060405162001ab038038062001ab08339810160408190526200003491620001d9565b6200003f336200016c565b6000805460ff60a01b19169055600180556001600160a01b0383166200009b5760405162461bcd60e51b815260206004820152600c60248201526b7a65726f206164647265737360a01b60448201526064015b60405180910390fd5b6001600160a01b038216620000e25760405162461bcd60e51b815260206004820152600c60248201526b7a65726f206164647265737360a01b604482015260640162000092565b6001600160a01b038116620001295760405162461bcd60e51b815260206004820152600c60248201526b7a65726f206164647265737360a01b604482015260640162000092565b600380546001600160a01b039485166001600160a01b03199182161790915560048054938516938216939093179092556005805491909316911617905562000223565b600080546001600160a01b038381166001600160a01b0319831681178455604051919092169283917f8be0079c531659141344cd1fd0a4f28419497f9722a3daafe3b4186f6b6457e09190a35050565b80516001600160a01b0381168114620001d457600080fd5b919050565b600080600060608486031215620001ef57600080fd5b620001fa84620001bc565b92506200020a60208501620001bc565b91506200021a60408501620001bc565b90509250925092565b61187d80620002336000396000f3fe6080604052600436106101145760003560e01c80637716e573116100a05780639f653c51116100645780639f653c511461035d578063d63a6ccd1461037d578063d956c1041461039d578063eb9e00b9146103bd578063f2fde38b146103dd57600080fd5b80637716e573146102525780638456cb59146102e957806386cfa7d3146102fe5780638da5cb5b1461032c5780639a5d65241461034a57600080fd5b80635131e4e7116100e75780635131e4e71461019b5780635c975abb146101bb57806363571e65146101e55780636b78018b14610205578063715018a61461023d57600080fd5b8063367eeb47146101195780633f4ba83a1461014f57806341696818146101665780634e69772814610186575b600080fd5b34801561012557600080fd5b50610139610134366004611668565b6103fd565b6040516101469190611681565b60405180910390f35b34801561015b57600080fd5b50610164610534565b005b34801561017257600080fd5b50610164610181366004611668565b610546565b34801561019257600080fd5b50610139610679565b3480156101a757600080fd5b506101646101b6366004611720565b61079c565b3480156101c757600080fd5b50600054600160a01b900460ff166040519015158152602001610146565b3480156101f157600080fd5b50610164610200366004611720565b610852565b34801561021157600080fd5b50600354610225906001600160a01b031681565b6040516001600160a01b039091168152602001610146565b34801561024957600080fd5b50610164610908565b34801561025e57600080fd5b506102b161026d366004611668565b60066020526000908152604090208054600182015460028301546003840154600490940154929391929091906001600160a01b03811690600160a01b900460ff1686565b6040805196875260208701959095529385019290925260608401526001600160a01b03166080830152151560a082015260c001610146565b3480156102f557600080fd5b5061016461091a565b34801561030a57600080fd5b5061031e610319366004611742565b61092a565b604051908152602001610146565b34801561033857600080fd5b506000546001600160a01b0316610225565b610164610358366004611668565b61095b565b34801561036957600080fd5b50600454610225906001600160a01b031681565b34801561038957600080fd5b50600554610225906001600160a01b031681565b3480156103a957600080fd5b506101396103b8366004611720565b610cf0565b3480156103c957600080fd5b506101646103d836600461176c565b610e5d565b3480156103e957600080fd5b506101646103f8366004611720565b611379565b6060600061040a60025490565b67ffffffffffffffff81111561042257610422611798565b60405190808252806020026020018201604052801561045b57816020015b610448611627565b8152602001906001900390816104405790505b5090506000805b60025481101561052b5760008181526006602052604090206001015485900361051957600081815260066020908152604091829020825160c08101845281548152600182015492810192909252600281015492820192909252600382015460608201526004909101546001600160a01b0381166080830152600160a01b900460ff16151560a082015283518490849081106104ff576104ff6117ae565b60200260200101819052508180610515906117da565b9250505b80610523816117da565b915050610462565b50909392505050565b61053c6113ef565b610544611449565b565b61054e61149e565b6000818152600660205260409020600401546001600160a01b031633146105bc5760405162461bcd60e51b815260206004820152601e60248201527f4f6e6c792073656c6c65722063616e2064656c657465206c697374696e67000060448201526064015b60405180910390fd5b6000818152600660209081526040918290206001810154600282015460038301546004909301548551878152948501929092528385015260608301919091526001600160a01b0316608082015290517f9eec8eb2210167a0d90bf048cbbd21154b36b1941fa1413a1294343b0f38c5999181900360a00190a160008181526006602052604081208181556001810182905560028101829055600381019190915560040180546001600160a81b031916905561067660018055565b50565b6060600061068660025490565b67ffffffffffffffff81111561069e5761069e611798565b6040519080825280602002602001820160405280156106d757816020015b6106c4611627565b8152602001906001900390816106bc5790505b50905060005b600254811015610796576000818152600660205260409020600101541561078457600081815260066020908152604091829020825160c08101845281548152600182015492810192909252600281015492820192909252600382015460608201526004909101546001600160a01b0381166080830152600160a01b900460ff16151560a08201528251839083908110610778576107786117ae565b60200260200101819052505b8061078e816117da565b9150506106dd565b50919050565b6107a46113ef565b6001600160a01b0381166107e95760405162461bcd60e51b815260206004820152600c60248201526b7a65726f206164647265737360a01b60448201526064016105b3565b600454604080516001600160a01b03928316815291831660208301527f1a41fb6f752ad018610bf79716ec70546bbda4a0235520e04158d3c4f3486230910160405180910390a1600480546001600160a01b0319166001600160a01b0392909216919091179055565b61085a6113ef565b6001600160a01b03811661089f5760405162461bcd60e51b815260206004820152600c60248201526b7a65726f206164647265737360a01b60448201526064016105b3565b600354604080516001600160a01b03928316815291831660208301527f3c382290b39c0f8e7c9445f3393899e71f6f8b9a411021501c650ff68fa83b99910160405180910390a1600380546001600160a01b0319166001600160a01b0392909216919091179055565b6109106113ef565b61054460006114f7565b6109226113ef565b610544611547565b6007602052816000526040600020818154811061094657600080fd5b90600052602060002001600091509150505481565b61096361149e565b60008181526006602052604081206001015490036109c35760405162461bcd60e51b815260206004820152601760248201527f4c697374696e6720646f6573206e6f742065786973742100000000000000000060448201526064016105b3565b600081815260066020526040902060040154336001600160a01b0390911603610a395760405162461bcd60e51b815260206004820152602260248201527f53656c6c65722063616e6e6f7420627579207468656972206f776e2073686172604482015261657360f01b60648201526084016105b3565b600081815260066020526040902060040154600160a01b900460ff161515600114610aa65760405162461bcd60e51b815260206004820152601d60248201527f536861726573206c697374696e67206973206e6f74206163746976652100000060448201526064016105b3565b6000818152600660208181526040808420815160c08101835281548152600182018054828601526002830180548386019081526003850180546060860152600480870180546001600160a01b0380821660808a01908152600160a01b830460ff16151560a08b01528f8f529c909b52978c9055948b9055928a9055989098556001600160a81b031990931690556005549451955192516323b872dd60e01b81523392810192909252948316602482015260448101919091529116906323b872dd906064016020604051808303816000875af1158015610b89573d6000803e3d6000fd5b505050506040513d601f19601f82011682018060405250810190610bad91906117f3565b5060048054608083015160208401516060850151604051637921219560e11b81526001600160a01b03938416958101959095523360248601526044850191909152606484015260a06084840152600060a4840152169063f242432a9060c401600060405180830381600087803b158015610c2657600080fd5b505af1158015610c3a573d6000803e3d6000fd5b50505060808201516040516001600160a01b0390911691503480156108fc02916000818181858888f19350505050158015610c79573d6000803e3d6000fd5b5060208181015160608084015160808086015160408051898152968701959095523486860152928501919091526001600160a01b03909116908301523360a0830152517fb976e14df17a9b70d6dd3b3dcae82e3c877a71c73c5e950e486fe9918998e7ab9181900360c00190a15061067660018055565b6001600160a01b0381166000908152600760205260408120546060919067ffffffffffffffff811115610d2557610d25611798565b604051908082528060200260200182016040528015610d5e57816020015b610d4b611627565b815260200190600190039081610d435790505b50905060005b6001600160a01b038416600090815260076020526040902054811015610e56576001600160a01b03841660009081526007602052604081208054600692919084908110610db357610db36117ae565b600091825260208083209091015483528281019390935260409182019020815160c0810183528154815260018201549381019390935260028101549183019190915260038101546060830152600401546001600160a01b038116608083015260ff600160a01b90910416151560a08201528251839083908110610e3857610e386117ae565b60200260200101819052508080610e4e906117da565b915050610d64565b5092915050565b600354604051634f558e7960e01b81526004810185905284916001600160a01b031690634f558e7990602401602060405180830381865afa158015610ea6573d6000803e3d6000fd5b505050506040513d601f19601f82011682018060405250810190610eca91906117f3565b610f0e5760405162461bcd60e51b8152602060048201526015602482015274417373657420646f6573206e6f742065786973742160581b60448201526064016105b3565b60048054604051627eeac760e11b8152339281018390526024810187905286916000916001600160a01b039091169062fdd58e90604401602060405180830381865afa158015610f62573d6000803e3d6000fd5b505050506040513d601f19601f82011682018060405250810190610f869190611815565b11610fc55760405162461bcd60e51b815260206004820152600f60248201526e3737ba1039b430b932b437b63232b960891b60448201526064016105b3565b610fcd61149e565b6000851161100d5760405162461bcd60e51b815260206004820152600d60248201526c1c1c9a58d9480f080c481554d1609a1b60448201526064016105b3565b6000841161104a5760405162461bcd60e51b815260206004820152600a602482015269616d6f756e74203c203160b01b60448201526064016105b3565b8360005b3360009081526007602052604090205481101561116b5733600090815260076020526040812080548a9260069290918590811061108d5761108d6117ae565b9060005260206000200154815260200190815260200160002060010154148015611103575033600090815260076020526040812080546006929190849081106110d8576110d86117ae565b9060005260206000200154815260200190815260200160002060040160149054906101000a900460ff165b1561115957336000908152600760205260408120805460069291908490811061112e5761112e6117ae565b906000526020600020015481526020019081526020016000206003015482611156919061182e565b91505b80611163816117da565b91505061104e565b5060048054604051627eeac760e11b81523392810192909252602482018990526001600160a01b03169062fdd58e90604401602060405180830381865afa1580156111ba573d6000803e3d6000fd5b505050506040513d601f19601f820116820180604052508101906111de9190611815565b8111156112215760405162461bcd60e51b81526020600482015260116024820152706e6f7420656e6f7567682073686172657360781b60448201526064016105b3565b6040518060c0016040528061123560025490565b8152602081018990526040810188905260608101879052336080820152600160a0909101526006600061126760025490565b81526020808201929092526040908101600090812084518155848401516001820155848301516002808301919091556060860151600383015560808601516004909201805460a0909701511515600160a01b026001600160a81b03199097166001600160a01b039093169290921795909517905533815260079092529020906112ee905490565b815460018101835560009283526020909220909101557f97dcdac6c7238ca7fc3ad41c8a17e1ac9825015db181b6f7d0a8e444dbd1128661132e60025490565b60408051918252602082018a905281018890526060810187905233608082015260a00160405180910390a1611367600280546001019055565b5061137160018055565b505050505050565b6113816113ef565b6001600160a01b0381166113e65760405162461bcd60e51b815260206004820152602660248201527f4f776e61626c653a206e6577206f776e657220697320746865207a65726f206160448201526564647265737360d01b60648201526084016105b3565b610676816114f7565b6000546001600160a01b031633146105445760405162461bcd60e51b815260206004820181905260248201527f4f776e61626c653a2063616c6c6572206973206e6f7420746865206f776e657260448201526064016105b3565b61145161158a565b6000805460ff60a01b191690557f5db9ee0a495bf2e6ff9c91a7834c1ba4fdd244a5e8aa4e537bd38aeae4b073aa335b6040516001600160a01b03909116815260200160405180910390a1565b6002600154036114f05760405162461bcd60e51b815260206004820152601f60248201527f5265656e7472616e637947756172643a207265656e7472616e742063616c6c0060448201526064016105b3565b6002600155565b600080546001600160a01b038381166001600160a01b0319831681178455604051919092169283917f8be0079c531659141344cd1fd0a4f28419497f9722a3daafe3b4186f6b6457e09190a35050565b61154f6115da565b6000805460ff60a01b1916600160a01b1790557f62e78cea01bee320cd4e420270b5ea74000d11b0c9f74754ebdbfc544b05a2586114813390565b600054600160a01b900460ff166105445760405162461bcd60e51b815260206004820152601460248201527314185d5cd8589b194e881b9bdd081c185d5cd95960621b60448201526064016105b3565b600054600160a01b900460ff16156105445760405162461bcd60e51b815260206004820152601060248201526f14185d5cd8589b194e881c185d5cd95960821b60448201526064016105b3565b6040518060c001604052806000815260200160008152602001600081526020016000815260200160006001600160a01b031681526020016000151581525090565b60006020828403121561167a57600080fd5b5035919050565b602080825282518282018190526000919060409081850190868401855b828110156116f75781518051855286810151878601528581015186860152606080820151908601526080808201516001600160a01b03169086015260a09081015115159085015260c0909301929085019060010161169e565b5091979650505050505050565b80356001600160a01b038116811461171b57600080fd5b919050565b60006020828403121561173257600080fd5b61173b82611704565b9392505050565b6000806040838503121561175557600080fd5b61175e83611704565b946020939093013593505050565b60008060006060848603121561178157600080fd5b505081359360208301359350604090920135919050565b634e487b7160e01b600052604160045260246000fd5b634e487b7160e01b600052603260045260246000fd5b634e487b7160e01b600052601160045260246000fd5b6000600182016117ec576117ec6117c4565b5060010190565b60006020828403121561180557600080fd5b8151801515811461173b57600080fd5b60006020828403121561182757600080fd5b5051919050565b80820180821115611841576118416117c4565b9291505056fea2646970667358221220127c4e3da8b4965803dafbd196a3d68ebf2049fb83d5eb297644c7129db76ec164736f6c63430008120033",
  "linkReferences": {},
  "deployedLinkReferences": {}
}