{
  "_format": "hh-sol-artifact-1",
  "contractName": "BlockEstateShares",
  "sourceName": "contracts/BlockEstate/BlockEstateShares.sol",
  "abi": [
    {
      "inputs": [
        {
          "internalType": "address",
          "name": "_blockEstateAssetsAddress",
          "type": "address"
        }
      ],
      "stateMutability": "nonpayable",
      "type": "constructor"
    },
    {
      "anonymous": false,
      "inputs": [
        {
          "indexed": true,
          "internalType": "address",
          "name": "account",
          "type": "address"
        },
        {
          "indexed": true,
          "internalType": "address",
          "name": "operator",
          "type": "address"
        },
        {
          "indexed": false,
          "internalType": "bool",
          "name": "approved",
          "type": "bool"
        }
      ],
      "name": "ApprovalForAll",
      "type": "event"
    },
    {
      "anonymous": false,
      "inputs": [
        {
          "indexed": false,
          "internalType": "address",
          "name": "old",
          "type": "address"
        },
        {
          "indexed": false,
          "internalType": "address",
          "name": "updated",
          "type": "address"
        }
      ],
      "name": "BlockEstateAssetsAddressUpdated",
      "type": "event"
    },
    {
      "anonymous": false,
      "inputs": [
        {
          "indexed": false,
          "internalType": "address",
          "name": "old",
          "type": "address"
        },
        {
          "indexed": false,
          "internalType": "address",
          "name": "updated",
          "type": "address"
        }
      ],
      "name": "BlockEstateMarketAddressUpdated",
      "type": "event"
    },
    {
      "anonymous": false,
      "inputs": [
        {
          "indexed": true,
          "internalType": "address",
          "name": "previousOwner",
          "type": "address"
        },
        {
          "indexed": true,
          "internalType": "address",
          "name": "newOwner",
          "type": "address"
        }
      ],
      "name": "OwnershipTransferred",
      "type": "event"
    },
    {
      "anonymous": false,
      "inputs": [
        {
          "indexed": false,
          "internalType": "address",
          "name": "account",
          "type": "address"
        }
      ],
      "name": "Paused",
      "type": "event"
    },
    {
      "anonymous": false,
      "inputs": [
        {
          "indexed": false,
          "internalType": "uint256",
          "name": "tokenId",
          "type": "uint256"
        },
        {
          "indexed": false,
          "internalType": "uint256",
          "name": "amount",
          "type": "uint256"
        }
      ],
      "name": "SharesCreated",
      "type": "event"
    },
    {
      "anonymous": false,
      "inputs": [
        {
          "indexed": true,
          "internalType": "address",
          "name": "operator",
          "type": "address"
        },
        {
          "indexed": true,
          "internalType": "address",
          "name": "from",
          "type": "address"
        },
        {
          "indexed": true,
          "internalType": "address",
          "name": "to",
          "type": "address"
        },
        {
          "indexed": false,
          "internalType": "uint256[]",
          "name": "ids",
          "type": "uint256[]"
        },
        {
          "indexed": false,
          "internalType": "uint256[]",
          "name": "values",
          "type": "uint256[]"
        }
      ],
      "name": "TransferBatch",
      "type": "event"
    },
    {
      "anonymous": false,
      "inputs": [
        {
          "indexed": true,
          "internalType": "address",
          "name": "operator",
          "type": "address"
        },
        {
          "indexed": true,
          "internalType": "address",
          "name": "from",
          "type": "address"
        },
        {
          "indexed": true,
          "internalType": "address",
          "name": "to",
          "type": "address"
        },
        {
          "indexed": false,
          "internalType": "uint256",
          "name": "id",
          "type": "uint256"
        },
        {
          "indexed": false,
          "internalType": "uint256",
          "name": "value",
          "type": "uint256"
        }
      ],
      "name": "TransferSingle",
      "type": "event"
    },
    {
      "anonymous": false,
      "inputs": [
        {
          "indexed": false,
          "internalType": "string",
          "name": "value",
          "type": "string"
        },
        {
          "indexed": true,
          "internalType": "uint256",
          "name": "id",
          "type": "uint256"
        }
      ],
      "name": "URI",
      "type": "event"
    },
    {
      "anonymous": false,
      "inputs": [
        {
          "indexed": false,
          "internalType": "address",
          "name": "account",
          "type": "address"
        }
      ],
      "name": "Unpaused",
      "type": "event"
    },
    {
      "inputs": [
        {
          "internalType": "address",
          "name": "account",
          "type": "address"
        },
        {
          "internalType": "uint256",
          "name": "id",
          "type": "uint256"
        }
      ],
      "name": "balanceOf",
      "outputs": [
        {
          "internalType": "uint256",
          "name": "",
          "type": "uint256"
        }
      ],
      "stateMutability": "view",
      "type": "function"
    },
    {
      "inputs": [
        {
          "internalType": "address[]",
          "name": "accounts",
          "type": "address[]"
        },
        {
          "internalType": "uint256[]",
          "name": "ids",
          "type": "uint256[]"
        }
      ],
      "name": "balanceOfBatch",
      "outputs": [
        {
          "internalType": "uint256[]",
          "name": "",
          "type": "uint256[]"
        }
      ],
      "stateMutability": "view",
      "type": "function"
    },
    {
      "inputs": [],
      "name": "blockEstateAssetsAddress",
      "outputs": [
        {
          "internalType": "address",
          "name": "",
          "type": "address"
        }
      ],
      "stateMutability": "view",
      "type": "function"
    },
    {
      "inputs": [],
      "name": "blockEstateMarketAddress",
      "outputs": [
        {
          "internalType": "address",
          "name": "",
          "type": "address"
        }
      ],
      "stateMutability": "view",
      "type": "function"
    },
    {
      "inputs": [
        {
          "internalType": "address",
          "name": "account",
          "type": "address"
        },
        {
          "internalType": "uint256",
          "name": "id",
          "type": "uint256"
        },
        {
          "internalType": "uint256",
          "name": "value",
          "type": "uint256"
        }
      ],
      "name": "burn",
      "outputs": [],
      "stateMutability": "nonpayable",
      "type": "function"
    },
    {
      "inputs": [
        {
          "internalType": "address",
          "name": "account",
          "type": "address"
        },
        {
          "internalType": "uint256[]",
          "name": "ids",
          "type": "uint256[]"
        },
        {
          "internalType": "uint256[]",
          "name": "values",
          "type": "uint256[]"
        }
      ],
      "name": "burnBatch",
      "outputs": [],
      "stateMutability": "nonpayable",
      "type": "function"
    },
    {
      "inputs": [
        {
          "internalType": "uint256",
          "name": "tokenId",
          "type": "uint256"
        },
        {
          "internalType": "uint256",
          "name": "amount",
          "type": "uint256"
        }
      ],
      "name": "burnShares",
      "outputs": [],
      "stateMutability": "nonpayable",
      "type": "function"
    },
    {
      "inputs": [
        {
          "internalType": "address",
          "name": "to",
          "type": "address"
        },
        {
          "internalType": "uint256",
          "name": "tokenId",
          "type": "uint256"
        }
      ],
      "name": "createSharesAtCreation",
      "outputs": [],
      "stateMutability": "nonpayable",
      "type": "function"
    },
    {
      "inputs": [
        {
          "internalType": "uint256",
          "name": "tokenId",
          "type": "uint256"
        },
        {
          "internalType": "address[]",
          "name": "holders",
          "type": "address[]"
        },
        {
          "internalType": "uint256[]",
          "name": "amounts",
          "type": "uint256[]"
        }
      ],
      "name": "createSharesBatch",
      "outputs": [],
      "stateMutability": "nonpayable",
      "type": "function"
    },
    {
      "inputs": [
        {
          "internalType": "uint256",
          "name": "id",
          "type": "uint256"
        }
      ],
      "name": "exists",
      "outputs": [
        {
          "internalType": "bool",
          "name": "",
          "type": "bool"
        }
      ],
      "stateMutability": "view",
      "type": "function"
    },
    {
      "inputs": [
        {
          "internalType": "address",
          "name": "account",
          "type": "address"
        },
        {
          "internalType": "address",
          "name": "operator",
          "type": "address"
        }
      ],
      "name": "isApprovedForAll",
      "outputs": [
        {
          "internalType": "bool",
          "name": "",
          "type": "bool"
        }
      ],
      "stateMutability": "view",
      "type": "function"
    },
    {
      "inputs": [],
      "name": "owner",
      "outputs": [
        {
          "internalType": "address",
          "name": "",
          "type": "address"
        }
      ],
      "stateMutability": "view",
      "type": "function"
    },
    {
      "inputs": [],
      "name": "pause",
      "outputs": [],
      "stateMutability": "nonpayable",
      "type": "function"
    },
    {
      "inputs": [],
      "name": "paused",
      "outputs": [
        {
          "internalType": "bool",
          "name": "",
          "type": "bool"
        }
      ],
      "stateMutability": "view",
      "type": "function"
    },
    {
      "inputs": [
        {
          "internalType": "uint256",
          "name": "tokenId",
          "type": "uint256"
        }
      ],
      "name": "readShareholdersByToken",
      "outputs": [
        {
          "internalType": "address[]",
          "name": "",
          "type": "address[]"
        }
      ],
      "stateMutability": "view",
      "type": "function"
    },
    {
      "inputs": [
        {
          "internalType": "address",
          "name": "holder",
          "type": "address"
        }
      ],
      "name": "readSharesByHolder",
      "outputs": [
        {
          "internalType": "uint256[]",
          "name": "",
          "type": "uint256[]"
        }
      ],
      "stateMutability": "view",
      "type": "function"
    },
    {
      "inputs": [],
      "name": "renounceOwnership",
      "outputs": [],
      "stateMutability": "nonpayable",
      "type": "function"
    },
    {
      "inputs": [
        {
          "internalType": "address",
          "name": "from",
          "type": "address"
        },
        {
          "internalType": "address",
          "name": "to",
          "type": "address"
        },
        {
          "internalType": "uint256[]",
          "name": "ids",
          "type": "uint256[]"
        },
        {
          "internalType": "uint256[]",
          "name": "amounts",
          "type": "uint256[]"
        },
        {
          "internalType": "bytes",
          "name": "data",
          "type": "bytes"
        }
      ],
      "name": "safeBatchTransferFrom",
      "outputs": [],
      "stateMutability": "nonpayable",
      "type": "function"
    },
    {
      "inputs": [
        {
          "internalType": "address",
          "name": "from",
          "type": "address"
        },
        {
          "internalType": "address",
          "name": "to",
          "type": "address"
        },
        {
          "internalType": "uint256",
          "name": "id",
          "type": "uint256"
        },
        {
          "internalType": "uint256",
          "name": "amount",
          "type": "uint256"
        },
        {
          "internalType": "bytes",
          "name": "data",
          "type": "bytes"
        }
      ],
      "name": "safeTransferFrom",
      "outputs": [],
      "stateMutability": "nonpayable",
      "type": "function"
    },
    {
      "inputs": [
        {
          "internalType": "address",
          "name": "operator",
          "type": "address"
        },
        {
          "internalType": "bool",
          "name": "approved",
          "type": "bool"
        }
      ],
      "name": "setApprovalForAll",
      "outputs": [],
      "stateMutability": "nonpayable",
      "type": "function"
    },
    {
      "inputs": [
        {
          "internalType": "address",
          "name": "_blockEstateAssetsAddress",
          "type": "address"
        }
      ],
      "name": "setBlockEstateAssetsAddress",
      "outputs": [],
      "stateMutability": "nonpayable",
      "type": "function"
    },
    {
      "inputs": [
        {
          "internalType": "address",
          "name": "_blockEstateMarketAddress",
          "type": "address"
        }
      ],
      "name": "setBlockEstateMarketAddress",
      "outputs": [],
      "stateMutability": "nonpayable",
      "type": "function"
    },
    {
      "inputs": [
        {
          "internalType": "string",
          "name": "newuri",
          "type": "string"
        }
      ],
      "name": "setURI",
      "outputs": [],
      "stateMutability": "nonpayable",
      "type": "function"
    },
    {
      "inputs": [
        {
          "internalType": "uint256",
          "name": "",
          "type": "uint256"
        },
        {
          "internalType": "uint256",
          "name": "",
          "type": "uint256"
        }
      ],
      "name": "shareholdersHistory",
      "outputs": [
        {
          "internalType": "address",
          "name": "",
          "type": "address"
        }
      ],
      "stateMutability": "view",
      "type": "function"
    },
    {
      "inputs": [
        {
          "internalType": "bytes4",
          "name": "interfaceId",
          "type": "bytes4"
        }
      ],
      "name": "supportsInterface",
      "outputs": [
        {
          "internalType": "bool",
          "name": "",
          "type": "bool"
        }
      ],
      "stateMutability": "view",
      "type": "function"
    },
    {
      "inputs": [
        {
          "internalType": "address",
          "name": "",
          "type": "address"
        },
        {
          "internalType": "uint256",
          "name": "",
          "type": "uint256"
        }
      ],
      "name": "tokenHistory",
      "outputs": [
        {
          "internalType": "uint256",
          "name": "",
          "type": "uint256"
        }
      ],
      "stateMutability": "view",
      "type": "function"
    },
    {
      "inputs": [
        {
          "internalType": "uint256",
          "name": "id",
          "type": "uint256"
        }
      ],
      "name": "totalSupply",
      "outputs": [
        {
          "internalType": "uint256",
          "name": "",
          "type": "uint256"
        }
      ],
      "stateMutability": "view",
      "type": "function"
    },
    {
      "inputs": [
        {
          "internalType": "uint256[]",
          "name": "tokenIds",
          "type": "uint256[]"
        }
      ],
      "name": "totalSupplyBatch",
      "outputs": [
        {
          "internalType": "uint256[]",
          "name": "",
          "type": "uint256[]"
        }
      ],
      "stateMutability": "view",
      "type": "function"
    },
    {
      "inputs": [
        {
          "internalType": "address",
          "name": "newOwner",
          "type": "address"
        }
      ],
      "name": "transferOwnership",
      "outputs": [],
      "stateMutability": "nonpayable",
      "type": "function"
    },
    {
      "inputs": [],
      "name": "unpause",
      "outputs": [],
      "stateMutability": "nonpayable",
      "type": "function"
    },
    {
      "inputs": [
        {
          "internalType": "uint256",
          "name": "",
          "type": "uint256"
        }
      ],
      "name": "uri",
      "outputs": [
        {
          "internalType": "string",
          "name": "",
          "type": "string"
        }
      ],
      "stateMutability": "view",
      "type": "function"
    }
  ],
  "bytecode": "0x60806040523480156200001157600080fd5b50604051620034dc380380620034dc83398101604081905262000034916200014b565b604051806060016040528060348152602001620034a8603491396200005981620000e7565b506200006533620000f9565b6003805460ff60a01b1916905560016005556001600160a01b038116620000c15760405162461bcd60e51b815260206004820152600c60248201526b7a65726f206164647265737360a01b604482015260640160405180910390fd5b600680546001600160a01b0319166001600160a01b0392909216919091179055620002ee565b6002620000f5828262000222565b5050565b600380546001600160a01b038381166001600160a01b0319831681179093556040519116919082907f8be0079c531659141344cd1fd0a4f28419497f9722a3daafe3b4186f6b6457e090600090a35050565b6000602082840312156200015e57600080fd5b81516001600160a01b03811681146200017657600080fd5b9392505050565b634e487b7160e01b600052604160045260246000fd5b600181811c90821680620001a857607f821691505b602082108103620001c957634e487b7160e01b600052602260045260246000fd5b50919050565b601f8211156200021d57600081815260208120601f850160051c81016020861015620001f85750805b601f850160051c820191505b81811015620002195782815560010162000204565b5050505b505050565b81516001600160401b038111156200023e576200023e6200017d565b62000256816200024f845462000193565b84620001cf565b602080601f8311600181146200028e5760008415620002755750858301515b600019600386901b1c1916600185901b17855562000219565b600085815260208120601f198616915b82811015620002bf578886015182559484019460019091019084016200029e565b5085821015620002de5787850151600019600388901b60f8161c191681555b5050505050600190811b01905550565b6131aa80620002fe6000396000f3fe608060405234801561001057600080fd5b50600436106101e45760003560e01c80636b78018b1161010f5780638da5cb5b116100a2578063e985e9c511610071578063e985e9c514610446578063f242432a14610482578063f2fde38b14610495578063f5298aca146104a857600080fd5b80638da5cb5b146103ef578063a22cb46514610400578063b8cbbd9014610413578063bd85b0391461042657600080fd5b80637c6f5127116100de5780637c6f5127146103ae5780637e25349b146103c15780638456cb59146103d45780638947473f146103dc57600080fd5b80636b78018b146103555780636d1fdfd014610380578063715018a61461039357806377954ac21461039b57600080fd5b80634cfe601a116101875780635ed8bcbf116101565780635ed8bcbf14610309578063634837e71461031c57806363571e651461032f5780636b20c4541461034257600080fd5b80634cfe601a146102a25780634e1273f4146102b55780634f558e79146102d55780635c975abb146102f757600080fd5b80630e89341c116101c35780630e89341c146102475780632eb2c2d6146102675780633f4ba83a1461027a57806343e4c8cc1461028257600080fd5b8062fdd58e146101e957806301ffc9a71461020f57806302fe530514610232575b600080fd5b6101fc6101f7366004612439565b6104bb565b6040519081526020015b60405180910390f35b61022261021d36600461247b565b610554565b6040519015158152602001610206565b610245610240366004612563565b6105a4565b005b61025a6102553660046125b3565b6105b8565b6040516102069190612612565b6102456102753660046126d9565b61064c565b610245610698565b6102956102903660046125b3565b6106aa565b6040516102069190612786565b6102456102b03660046127d3565b610715565b6102c86102c336600461285f565b6107d2565b60405161020691906128fd565b6102226102e33660046125b3565b600090815260046020526040902054151590565b600354600160a01b900460ff16610222565b610245610317366004612910565b6108fb565b6102c861032a3660046127d3565b610a8e565b61024561033d3660046127d3565b610af9565b61024561035036600461297c565b610bb6565b600654610368906001600160a01b031681565b6040516001600160a01b039091168152602001610206565b61024561038e366004612439565b610bfe565b610245610c88565b6102c86103a93660046129c4565b610c9a565b6102456103bc3660046129f8565b610d54565b6101fc6103cf366004612439565b610dcb565b610245610dfc565b600754610368906001600160a01b031681565b6003546001600160a01b0316610368565b61024561040e366004612a28565b610e0c565b6103686104213660046129f8565b610e17565b6101fc6104343660046125b3565b60009081526004602052604090205490565b610222610454366004612a61565b6001600160a01b03918216600090815260016020908152604080832093909416825291909152205460ff1690565b610245610490366004612a8f565b610e4f565b6102456104a33660046127d3565b610e94565b6102456104b6366004612af7565b610f0a565b60006001600160a01b03831661052b5760405162461bcd60e51b815260206004820152602a60248201527f455243313135353a2061646472657373207a65726f206973206e6f742061207660448201526930b634b21037bbb732b960b11b60648201526084015b60405180910390fd5b506000818152602081815260408083206001600160a01b03861684529091529020545b92915050565b60006001600160e01b03198216636cdb3d1360e11b148061058557506001600160e01b031982166303a24d0760e21b145b8061054e57506301ffc9a760e01b6001600160e01b031983161461054e565b6105ac610f4d565b6105b581610fa7565b50565b6060600280546105c790612b2c565b80601f01602080910402602001604051908101604052809291908181526020018280546105f390612b2c565b80156106405780601f1061061557610100808354040283529160200191610640565b820191906000526020600020905b81548152906001019060200180831161062357829003601f168201915b50505050509050919050565b6001600160a01b03851633148061066857506106688533610454565b6106845760405162461bcd60e51b815260040161052290612b66565b6106918585858585610fb3565b5050505050565b6106a0610f4d565b6106a861116b565b565b60008181526008602090815260409182902080548351818402810184019094528084526060939283018282801561064057602002820191906000526020600020905b81546001600160a01b031681526001909101906020018083116106ec5750505050509050919050565b61071d610f4d565b6001600160a01b0381166107625760405162461bcd60e51b815260206004820152600c60248201526b7a65726f206164647265737360a01b6044820152606401610522565b600754604080516001600160a01b03928316815291831660208301527f5d9e527e2ab85eed8c12dbfdfa49903b509f3b367dec19463530d787dcfd2854910160405180910390a1600780546001600160a01b0319166001600160a01b0383169081179091556105b5906001610e0c565b606081518351146108375760405162461bcd60e51b815260206004820152602960248201527f455243313135353a206163636f756e747320616e6420696473206c656e677468604482015268040dad2e6dac2e8c6d60bb1b6064820152608401610522565b600083516001600160401b038111156108525761085261249f565b60405190808252806020026020018201604052801561087b578160200160208202803683370190505b50905060005b84518110156108f3576108c685828151811061089f5761089f612bb4565b60200260200101518583815181106108b9576108b9612bb4565b60200260200101516104bb565b8282815181106108d8576108d8612bb4565b60209081029190910101526108ec81612be0565b9050610881565b509392505050565b6006546040516331a9108f60e11b81526004810185905233916001600160a01b031690636352211e90602401602060405180830381865afa158015610944573d6000803e3d6000fd5b505050506040513d601f19601f820116820180604052508101906109689190612bf9565b6001600160a01b0316146109b45760405162461bcd60e51b815260206004820152601360248201527221b0b63632b91034b9903737ba1037bbb732b960691b6044820152606401610522565b60005b8251811015610a885760008282815181106109d4576109d4612bb4565b602002602001015111610a295760405162461bcd60e51b815260206004820152601c60248201527f4d75737420637265617465206174206c656173742031205368617265000000006044820152606401610522565b610a76838281518110610a3e57610a3e612bb4565b602002602001015185848481518110610a5957610a59612bb4565b6020026020010151604051806020016040528060008152506111c0565b80610a8081612be0565b9150506109b7565b50505050565b6001600160a01b03811660009081526009602090815260409182902080548351818402810184019094528084526060939283018282801561064057602002820191906000526020600020905b815481526020019060010190808311610ada5750505050509050919050565b610b01610f4d565b6001600160a01b038116610b465760405162461bcd60e51b815260206004820152600c60248201526b7a65726f206164647265737360a01b6044820152606401610522565b600654604080516001600160a01b03928316815291831660208301527f3c382290b39c0f8e7c9445f3393899e71f6f8b9a411021501c650ff68fa83b99910160405180910390a1600680546001600160a01b0319166001600160a01b0383169081179091556105b5906001610e0c565b6001600160a01b038316331480610bd25750610bd28333610454565b610bee5760405162461bcd60e51b815260040161052290612b66565b610bf98383836112f2565b505050565b6006546001600160a01b03163314610c685760405162461bcd60e51b815260206004820152602760248201527f43616c6c6572206973206e6f7420426c6f636b457374617465417373657420636044820152661bdb9d1c9858dd60ca1b6064820152608401610522565b610c8482826064604051806020016040528060008152506111c0565b5050565b610c90610f4d565b6106a86000611498565b6060600082516001600160401b03811115610cb757610cb761249f565b604051908082528060200260200182016040528015610ce0578160200160208202803683370190505b50905060005b8351811015610d4d57610d1e848281518110610d0457610d04612bb4565b602002602001015160009081526004602052604090205490565b828281518110610d3057610d30612bb4565b602090810291909101015280610d4581612be0565b915050610ce6565b5092915050565b6006546001600160a01b03163314610dc05760405162461bcd60e51b815260206004820152602960248201527f43616c6c6572206d75737420626520426c6f636b4573746174654173736574736044820152680818dbdb9d1c9858dd60ba1b6064820152608401610522565b610c84338383610f0a565b60096020528160005260406000208181548110610de757600080fd5b90600052602060002001600091509150505481565b610e04610f4d565b6106a86114ea565b610c8433838361152d565b60086020528160005260406000208181548110610e3357600080fd5b6000918252602090912001546001600160a01b03169150829050565b6001600160a01b038516331480610e6b5750610e6b8533610454565b610e875760405162461bcd60e51b815260040161052290612b66565b610691858585858561160d565b610e9c610f4d565b6001600160a01b038116610f015760405162461bcd60e51b815260206004820152602660248201527f4f776e61626c653a206e6577206f776e657220697320746865207a65726f206160448201526564647265737360d01b6064820152608401610522565b6105b581611498565b6001600160a01b038316331480610f265750610f268333610454565b610f425760405162461bcd60e51b815260040161052290612b66565b610bf9838383611753565b6003546001600160a01b031633146106a85760405162461bcd60e51b815260206004820181905260248201527f4f776e61626c653a2063616c6c6572206973206e6f7420746865206f776e65726044820152606401610522565b6002610c848282612c5c565b8151835114610fd45760405162461bcd60e51b815260040161052290612d1b565b6001600160a01b038416610ffa5760405162461bcd60e51b815260040161052290612d63565b33611009818787878787611875565b60005b84518110156110ef57600085828151811061102957611029612bb4565b60200260200101519050600085838151811061104757611047612bb4565b602090810291909101810151600084815280835260408082206001600160a01b038e1683529093529190912054909150818110156110975760405162461bcd60e51b815260040161052290612da8565b6000838152602081815260408083206001600160a01b038e8116855292528083208585039055908b168252812080548492906110d4908490612df2565b92505081905550505050806110e890612be0565b905061100c565b50846001600160a01b0316866001600160a01b0316826001600160a01b03167f4a39dc06d4c0dbc64b70af90fd698a233a518aa5d07e595d983b8c0526c8f7fb878760405161113f929190612e05565b60405180910390a4611155818787878787611ba9565b611163818787878787611f54565b505050505050565b6111736120af565b6003805460ff60a01b191690557f5db9ee0a495bf2e6ff9c91a7834c1ba4fdd244a5e8aa4e537bd38aeae4b073aa335b6040516001600160a01b03909116815260200160405180910390a1565b6001600160a01b0384166112205760405162461bcd60e51b815260206004820152602160248201527f455243313135353a206d696e7420746f20746865207a65726f206164647265736044820152607360f81b6064820152608401610522565b33600061122c856120ff565b90506000611239856120ff565b905061124a83600089858589611875565b6000868152602081815260408083206001600160a01b038b1684529091528120805487929061127a908490612df2565b909155505060408051878152602081018790526001600160a01b03808a1692600092918716917fc3d58168c5ae7397731d063d5bbf3d657854427343f4c083240f7aacaa2d0f62910160405180910390a46112da83600089858589611ba9565b6112e98360008989898961214a565b50505050505050565b6001600160a01b0383166113185760405162461bcd60e51b815260040161052290612e33565b80518251146113395760405162461bcd60e51b815260040161052290612d1b565b600033905061135c81856000868660405180602001604052806000815250611875565b60005b835181101561142157600084828151811061137c5761137c612bb4565b60200260200101519050600084838151811061139a5761139a612bb4565b602090810291909101810151600084815280835260408082206001600160a01b038c1683529093529190912054909150818110156113ea5760405162461bcd60e51b815260040161052290612e76565b6000928352602083815260408085206001600160a01b038b168652909152909220910390558061141981612be0565b91505061135f565b5060006001600160a01b0316846001600160a01b0316826001600160a01b03167f4a39dc06d4c0dbc64b70af90fd698a233a518aa5d07e595d983b8c0526c8f7fb8686604051611472929190612e05565b60405180910390a4610a8881856000868660405180602001604052806000815250611ba9565b600380546001600160a01b038381166001600160a01b0319831681179093556040519116919082907f8be0079c531659141344cd1fd0a4f28419497f9722a3daafe3b4186f6b6457e090600090a35050565b6114f2612205565b6003805460ff60a01b1916600160a01b1790557f62e78cea01bee320cd4e420270b5ea74000d11b0c9f74754ebdbfc544b05a2586111a33390565b816001600160a01b0316836001600160a01b0316036115a05760405162461bcd60e51b815260206004820152602960248201527f455243313135353a2073657474696e6720617070726f76616c20737461747573604482015268103337b91039b2b63360b91b6064820152608401610522565b6001600160a01b03838116600081815260016020908152604080832094871680845294825291829020805460ff191686151590811790915591519182527f17307eab39ab6107e8899845ad3d59bd9653f200f220920489ca2b5937696c31910160405180910390a3505050565b6001600160a01b0384166116335760405162461bcd60e51b815260040161052290612d63565b33600061163f856120ff565b9050600061164c856120ff565b905061165c838989858589611875565b6000868152602081815260408083206001600160a01b038c1684529091529020548581101561169d5760405162461bcd60e51b815260040161052290612da8565b6000878152602081815260408083206001600160a01b038d8116855292528083208985039055908a168252812080548892906116da908490612df2565b909155505060408051888152602081018890526001600160a01b03808b16928c821692918816917fc3d58168c5ae7397731d063d5bbf3d657854427343f4c083240f7aacaa2d0f62910160405180910390a461173a848a8a86868a611ba9565b611748848a8a8a8a8a61214a565b505050505050505050565b6001600160a01b0383166117795760405162461bcd60e51b815260040161052290612e33565b336000611785846120ff565b90506000611792846120ff565b90506117b283876000858560405180602001604052806000815250611875565b6000858152602081815260408083206001600160a01b038a168452909152902054848110156117f35760405162461bcd60e51b815260040161052290612e76565b6000868152602081815260408083206001600160a01b038b81168086529184528285208a8703905582518b81529384018a90529092908816917fc3d58168c5ae7397731d063d5bbf3d657854427343f4c083240f7aacaa2d0f62910160405180910390a46112e984886000868660405180602001604052806000815250611ba9565b61187d612205565b61188b868686868686612252565b60005b83518110156112e9576001600160a01b038516156118f6576001600160a01b038516600090815260096020526040902084518590839081106118d2576118d2612bb4565b60209081029190910181015182546001810184556000938452919092200155611971565b6003546001600160a01b031633148061191957506006546001600160a01b031633145b6119715760405162461bcd60e51b815260206004820152602360248201527f4f6e6c7920636f6e7472616374206f776e65722063616e206275726e2053686160448201526272657360e81b6064820152608401610522565b6001600160a01b03861615611b9757600754604051633655b04160e21b81526001600160a01b038881166004830152600092169063d956c10490602401600060405180830381865afa1580156119cb573d6000803e3d6000fd5b505050506040513d6000823e601f3d908101601f191682016040526119f39190810190612eba565b90506000611a0d888785815181106108b9576108b9612bb4565b9050848381518110611a2157611a21612bb4565b6020026020010151811015611a6f5760405162461bcd60e51b8152602060048201526014602482015273696e73756666696369656e742062616c616e636560601b6044820152606401610522565b6000805b8351811015611b1e57878581518110611a8e57611a8e612bb4565b6020026020010151848281518110611aa857611aa8612bb4565b602002602001015160200151148015611adb5750838181518110611ace57611ace612bb4565b602002602001015160a001515b15611b0c57838181518110611af257611af2612bb4565b60200260200101516060015182611b099190612df2565b91505b80611b1681612be0565b915050611a73565b50858481518110611b3157611b31612bb4565b60200260200101518183611b459190612fb4565b1015611b935760405162461bcd60e51b815260206004820152601f60248201527f616d6f756e74206578636565647320756e6c6f636b65642062616c616e6365006044820152606401610522565b5050505b80611ba181612be0565b91505061188e565b611bb16123cb565b60005b8351811015611f49576001600160a01b03851615611c285760086000858381518110611be257611be2612bb4565b602090810291909101810151825281810192909252604001600090812080546001810182559082529190200180546001600160a01b0319166001600160a01b0387161790555b600060086000868481518110611c4057611c40612bb4565b60200260200101518152602001908152602001600020805480602002602001604051908101604052809291908181526020018280548015611caa57602002820191906000526020600020905b81546001600160a01b03168152600190910190602001808311611c8c575b5050505050905060008060005b8351811015611d565782611cf0858381518110611cd657611cd6612bb4565b60200260200101518a88815181106108b9576108b9612bb4565b1115611d4457611d25848281518110611d0b57611d0b612bb4565b60200260200101518987815181106108b9576108b9612bb4565b9250838181518110611d3957611d39612bb4565b602002602001015191505b80611d4e81612be0565b915050611cb7565b506001600160a01b03811615801590611e10575060065487516001600160a01b0390911690636352211e90899087908110611d9357611d93612bb4565b60200260200101516040518263ffffffff1660e01b8152600401611db991815260200190565b602060405180830381865afa158015611dd6573d6000803e3d6000fd5b505050506040513d601f19601f82011682018060405250810190611dfa9190612bf9565b6001600160a01b0316816001600160a01b031614155b15611f335760065487516001600160a01b03909116906342842e0e908290636352211e908b9089908110611e4657611e46612bb4565b60200260200101516040518263ffffffff1660e01b8152600401611e6c91815260200190565b602060405180830381865afa158015611e89573d6000803e3d6000fd5b505050506040513d601f19601f82011682018060405250810190611ead9190612bf9565b838a8881518110611ec057611ec0612bb4565b60209081029190910101516040516001600160e01b031960e086901b1681526001600160a01b0393841660048201529290911660248301526044820152606401600060405180830381600087803b158015611f1a57600080fd5b505af1158015611f2e573d6000803e3d6000fd5b505050505b5050508080611f4190612be0565b915050611bb4565b506111636001600555565b6001600160a01b0384163b156111635760405163bc197c8160e01b81526001600160a01b0385169063bc197c8190611f989089908990889088908890600401612fc7565b6020604051808303816000875af1925050508015611fd3575060408051601f3d908101601f19168201909252611fd091810190613025565b60015b61207f57611fdf613042565b806308c379a0036120185750611ff361305e565b80611ffe575061201a565b8060405162461bcd60e51b81526004016105229190612612565b505b60405162461bcd60e51b815260206004820152603460248201527f455243313135353a207472616e7366657220746f206e6f6e2d455243313135356044820152732932b1b2b4bb32b91034b6b83632b6b2b73a32b960611b6064820152608401610522565b6001600160e01b0319811663bc197c8160e01b146112e95760405162461bcd60e51b8152600401610522906130e7565b600354600160a01b900460ff166106a85760405162461bcd60e51b815260206004820152601460248201527314185d5cd8589b194e881b9bdd081c185d5cd95960621b6044820152606401610522565b6040805160018082528183019092526060916000919060208083019080368337019050509050828160008151811061213957612139612bb4565b602090810291909101015292915050565b6001600160a01b0384163b156111635760405163f23a6e6160e01b81526001600160a01b0385169063f23a6e619061218e908990899088908890889060040161312f565b6020604051808303816000875af19250505080156121c9575060408051601f3d908101601f191682019092526121c691810190613025565b60015b6121d557611fdf613042565b6001600160e01b0319811663f23a6e6160e01b146112e95760405162461bcd60e51b8152600401610522906130e7565b600354600160a01b900460ff16156106a85760405162461bcd60e51b815260206004820152601060248201526f14185d5cd8589b194e881c185d5cd95960821b6044820152606401610522565b6001600160a01b0385166122d95760005b83518110156122d75782818151811061227e5761227e612bb4565b60200260200101516004600086848151811061229c5761229c612bb4565b6020026020010151815260200190815260200160002060008282546122c19190612df2565b909155506122d0905081612be0565b9050612263565b505b6001600160a01b0384166111635760005b83518110156112e957600084828151811061230757612307612bb4565b60200260200101519050600084838151811061232557612325612bb4565b60200260200101519050600060046000848152602001908152602001600020549050818110156123a85760405162461bcd60e51b815260206004820152602860248201527f455243313135353a206275726e20616d6f756e74206578636565647320746f74604482015267616c537570706c7960c01b6064820152608401610522565b600092835260046020526040909220910390556123c481612be0565b90506122ea565b60026005540361241d5760405162461bcd60e51b815260206004820152601f60248201527f5265656e7472616e637947756172643a207265656e7472616e742063616c6c006044820152606401610522565b6002600555565b6001600160a01b03811681146105b557600080fd5b6000806040838503121561244c57600080fd5b823561245781612424565b946020939093013593505050565b6001600160e01b0319811681146105b557600080fd5b60006020828403121561248d57600080fd5b813561249881612465565b9392505050565b634e487b7160e01b600052604160045260246000fd5b60c081018181106001600160401b03821117156124d4576124d461249f565b60405250565b601f8201601f191681016001600160401b03811182821017156124ff576124ff61249f565b6040525050565b60006001600160401b0383111561251f5761251f61249f565b604051612536601f8501601f1916602001826124da565b80915083815284848401111561254b57600080fd5b83836020830137600060208583010152509392505050565b60006020828403121561257557600080fd5b81356001600160401b0381111561258b57600080fd5b8201601f8101841361259c57600080fd5b6125ab84823560208401612506565b949350505050565b6000602082840312156125c557600080fd5b5035919050565b6000815180845260005b818110156125f2576020818501810151868301820152016125d6565b506000602082860101526020601f19601f83011685010191505092915050565b60208152600061249860208301846125cc565b60006001600160401b0382111561263e5761263e61249f565b5060051b60200190565b600082601f83011261265957600080fd5b8135602061266682612625565b60405161267382826124da565b83815260059390931b850182019282810191508684111561269357600080fd5b8286015b848110156126ae5780358352918301918301612697565b509695505050505050565b600082601f8301126126ca57600080fd5b61249883833560208501612506565b600080600080600060a086880312156126f157600080fd5b85356126fc81612424565b9450602086013561270c81612424565b935060408601356001600160401b038082111561272857600080fd5b61273489838a01612648565b9450606088013591508082111561274a57600080fd5b61275689838a01612648565b9350608088013591508082111561276c57600080fd5b50612779888289016126b9565b9150509295509295909350565b6020808252825182820181905260009190848201906040850190845b818110156127c75783516001600160a01b0316835292840192918401916001016127a2565b50909695505050505050565b6000602082840312156127e557600080fd5b813561249881612424565b600082601f83011261280157600080fd5b8135602061280e82612625565b60405161281b82826124da565b83815260059390931b850182019282810191508684111561283b57600080fd5b8286015b848110156126ae57803561285281612424565b835291830191830161283f565b6000806040838503121561287257600080fd5b82356001600160401b038082111561288957600080fd5b612895868387016127f0565b935060208501359150808211156128ab57600080fd5b506128b885828601612648565b9150509250929050565b600081518084526020808501945080840160005b838110156128f2578151875295820195908201906001016128d6565b509495945050505050565b60208152600061249860208301846128c2565b60008060006060848603121561292557600080fd5b8335925060208401356001600160401b038082111561294357600080fd5b61294f878388016127f0565b9350604086013591508082111561296557600080fd5b5061297286828701612648565b9150509250925092565b60008060006060848603121561299157600080fd5b833561299c81612424565b925060208401356001600160401b03808211156129b857600080fd5b61294f87838801612648565b6000602082840312156129d657600080fd5b81356001600160401b038111156129ec57600080fd5b6125ab84828501612648565b60008060408385031215612a0b57600080fd5b50508035926020909101359150565b80151581146105b557600080fd5b60008060408385031215612a3b57600080fd5b8235612a4681612424565b91506020830135612a5681612a1a565b809150509250929050565b60008060408385031215612a7457600080fd5b8235612a7f81612424565b91506020830135612a5681612424565b600080600080600060a08688031215612aa757600080fd5b8535612ab281612424565b94506020860135612ac281612424565b9350604086013592506060860135915060808601356001600160401b03811115612aeb57600080fd5b612779888289016126b9565b600080600060608486031215612b0c57600080fd5b8335612b1781612424565b95602085013595506040909401359392505050565b600181811c90821680612b4057607f821691505b602082108103612b6057634e487b7160e01b600052602260045260246000fd5b50919050565b6020808252602e908201527f455243313135353a2063616c6c6572206973206e6f7420746f6b656e206f776e60408201526d195c881bdc88185c1c1c9bdd995960921b606082015260800190565b634e487b7160e01b600052603260045260246000fd5b634e487b7160e01b600052601160045260246000fd5b600060018201612bf257612bf2612bca565b5060010190565b600060208284031215612c0b57600080fd5b815161249881612424565b601f821115610bf957600081815260208120601f850160051c81016020861015612c3d5750805b601f850160051c820191505b8181101561116357828155600101612c49565b81516001600160401b03811115612c7557612c7561249f565b612c8981612c838454612b2c565b84612c16565b602080601f831160018114612cbe5760008415612ca65750858301515b600019600386901b1c1916600185901b178555611163565b600085815260208120601f198616915b82811015612ced57888601518255948401946001909101908401612cce565b5085821015612d0b5787850151600019600388901b60f8161c191681555b5050505050600190811b01905550565b60208082526028908201527f455243313135353a2069647320616e6420616d6f756e7473206c656e677468206040820152670dad2e6dac2e8c6d60c31b606082015260800190565b60208082526025908201527f455243313135353a207472616e7366657220746f20746865207a65726f206164604082015264647265737360d81b606082015260800190565b6020808252602a908201527f455243313135353a20696e73756666696369656e742062616c616e636520666f60408201526939103a3930b739b332b960b11b606082015260800190565b8082018082111561054e5761054e612bca565b604081526000612e1860408301856128c2565b8281036020840152612e2a81856128c2565b95945050505050565b60208082526023908201527f455243313135353a206275726e2066726f6d20746865207a65726f206164647260408201526265737360e81b606082015260800190565b60208082526024908201527f455243313135353a206275726e20616d6f756e7420657863656564732062616c604082015263616e636560e01b606082015260800190565b60006020808385031215612ecd57600080fd5b82516001600160401b03811115612ee357600080fd5b8301601f81018513612ef457600080fd5b8051612eff81612625565b60408051612f0d83826124da565b83815260c09384028501860193868201935089851115612f2c57600080fd5b948601945b84861015612fa75780868b031215612f495760008081fd5b8251612f54816124b5565b865181528787015188820152838701518482015260608088015190820152608080880151612f8181612424565b9082015260a087810151612f9481612a1a565b9082015284529485019492860192612f31565b5098975050505050505050565b8181038181111561054e5761054e612bca565b6001600160a01b0386811682528516602082015260a060408201819052600090612ff3908301866128c2565b828103606084015261300581866128c2565b9050828103608084015261301981856125cc565b98975050505050505050565b60006020828403121561303757600080fd5b815161249881612465565b600060033d111561305b5760046000803e5060005160e01c5b90565b600060443d101561306c5790565b6040516003193d81016004833e81513d6001600160401b03816024840111818411171561309b57505050505090565b82850191508151818111156130b35750505050505090565b843d87010160208285010111156130cd5750505050505090565b6130dc602082860101876124da565b509095945050505050565b60208082526028908201527f455243313135353a204552433131353552656365697665722072656a656374656040820152676420746f6b656e7360c01b606082015260800190565b6001600160a01b03868116825285166020820152604081018490526060810183905260a060808201819052600090613169908301846125cc565b97965050505050505056fea2646970667358221220b5a4f765edd5d4c1eb3f82cde919e83971464efdc70fd79cb65d60201467a3a964736f6c6343000812003368747470733a2f2f626c6f636b6573746174652e616c65786f6368732e64652f6170692f6d657461646174612f7368617265732f",
  "linkReferences": {},
  "deployedLinkReferences": {}
}