{
  "_format": "hh-sol-artifact-1",
  "contractName": "BlockEstateMarket",
  "sourceName": "contracts/BlockEstateMarket.sol",
  "abi": [
    {
      "inputs": [
        {
          "internalType": "address",
          "name": "_blockEstateAssetsAddress",
          "type": "address"
        },
        {
          "internalType": "address",
          "name": "_blockEstateSharesAddress",
          "type": "address"
        }
      ],
      "stateMutability": "nonpayable",
      "type": "constructor"
    },
    {
      "anonymous": false,
      "inputs": [
        {
          "indexed": false,
          "internalType": "uint256",
          "name": "tokenId",
          "type": "uint256"
        },
        {
          "indexed": false,
          "internalType": "uint256",
          "name": "price",
          "type": "uint256"
        }
      ],
      "name": "AssetListingCreated",
      "type": "event"
    },
    {
      "anonymous": false,
      "inputs": [
        {
          "indexed": false,
          "internalType": "uint256",
          "name": "tokenId",
          "type": "uint256"
        },
        {
          "indexed": false,
          "internalType": "address",
          "name": "seller",
          "type": "address"
        },
        {
          "indexed": false,
          "internalType": "address",
          "name": "buyer",
          "type": "address"
        }
      ],
      "name": "AssetListingPurchased",
      "type": "event"
    },
    {
      "anonymous": false,
      "inputs": [
        {
          "indexed": true,
          "internalType": "address",
          "name": "previousOwner",
          "type": "address"
        },
        {
          "indexed": true,
          "internalType": "address",
          "name": "newOwner",
          "type": "address"
        }
      ],
      "name": "OwnershipTransferred",
      "type": "event"
    },
    {
      "anonymous": false,
      "inputs": [
        {
          "indexed": false,
          "internalType": "address",
          "name": "account",
          "type": "address"
        }
      ],
      "name": "Paused",
      "type": "event"
    },
    {
      "anonymous": false,
      "inputs": [
        {
          "indexed": false,
          "internalType": "uint256",
          "name": "tokenId",
          "type": "uint256"
        },
        {
          "indexed": false,
          "internalType": "uint256",
          "name": "price",
          "type": "uint256"
        },
        {
          "indexed": false,
          "internalType": "uint256",
          "name": "amount",
          "type": "uint256"
        },
        {
          "indexed": false,
          "internalType": "address",
          "name": "seller",
          "type": "address"
        }
      ],
      "name": "SharesListingCreated",
      "type": "event"
    },
    {
      "anonymous": false,
      "inputs": [
        {
          "indexed": false,
          "internalType": "uint256",
          "name": "tokenId",
          "type": "uint256"
        },
        {
          "indexed": false,
          "internalType": "uint256",
          "name": "price",
          "type": "uint256"
        },
        {
          "indexed": false,
          "internalType": "uint256",
          "name": "amount",
          "type": "uint256"
        },
        {
          "indexed": false,
          "internalType": "address",
          "name": "seller",
          "type": "address"
        },
        {
          "indexed": false,
          "internalType": "address",
          "name": "buyer",
          "type": "address"
        }
      ],
      "name": "SharesListingPurchased",
      "type": "event"
    },
    {
      "anonymous": false,
      "inputs": [
        {
          "indexed": false,
          "internalType": "address",
          "name": "account",
          "type": "address"
        }
      ],
      "name": "Unpaused",
      "type": "event"
    },
    {
      "inputs": [
        {
          "internalType": "uint256",
          "name": "",
          "type": "uint256"
        }
      ],
      "name": "assetListings",
      "outputs": [
        {
          "internalType": "uint256",
          "name": "tokenId",
          "type": "uint256"
        },
        {
          "internalType": "uint256",
          "name": "price",
          "type": "uint256"
        },
        {
          "internalType": "address",
          "name": "seller",
          "type": "address"
        },
        {
          "internalType": "address",
          "name": "buyer",
          "type": "address"
        },
        {
          "internalType": "bool",
          "name": "isSold",
          "type": "bool"
        },
        {
          "internalType": "bool",
          "name": "isActive",
          "type": "bool"
        }
      ],
      "stateMutability": "view",
      "type": "function"
    },
    {
      "inputs": [],
      "name": "blockEstateAssetsAddress",
      "outputs": [
        {
          "internalType": "address",
          "name": "",
          "type": "address"
        }
      ],
      "stateMutability": "view",
      "type": "function"
    },
    {
      "inputs": [],
      "name": "blockEstateSharesAddress",
      "outputs": [
        {
          "internalType": "address",
          "name": "",
          "type": "address"
        }
      ],
      "stateMutability": "view",
      "type": "function"
    },
    {
      "inputs": [
        {
          "internalType": "uint256",
          "name": "tokenId",
          "type": "uint256"
        },
        {
          "internalType": "uint256",
          "name": "price",
          "type": "uint256"
        }
      ],
      "name": "createAssetListing",
      "outputs": [],
      "stateMutability": "nonpayable",
      "type": "function"
    },
    {
      "inputs": [
        {
          "internalType": "uint256",
          "name": "tokenId",
          "type": "uint256"
        },
        {
          "internalType": "uint256",
          "name": "price",
          "type": "uint256"
        },
        {
          "internalType": "uint256",
          "name": "amount",
          "type": "uint256"
        }
      ],
      "name": "createSharesListing",
      "outputs": [],
      "stateMutability": "nonpayable",
      "type": "function"
    },
    {
      "inputs": [],
      "name": "owner",
      "outputs": [
        {
          "internalType": "address",
          "name": "",
          "type": "address"
        }
      ],
      "stateMutability": "view",
      "type": "function"
    },
    {
      "inputs": [],
      "name": "pause",
      "outputs": [],
      "stateMutability": "nonpayable",
      "type": "function"
    },
    {
      "inputs": [],
      "name": "paused",
      "outputs": [
        {
          "internalType": "bool",
          "name": "",
          "type": "bool"
        }
      ],
      "stateMutability": "view",
      "type": "function"
    },
    {
      "inputs": [
        {
          "internalType": "uint256",
          "name": "tokenId",
          "type": "uint256"
        }
      ],
      "name": "purchaseAssetListing",
      "outputs": [],
      "stateMutability": "payable",
      "type": "function"
    },
    {
      "inputs": [],
      "name": "readAllAssetListings",
      "outputs": [
        {
          "components": [
            {
              "internalType": "uint256",
              "name": "tokenId",
              "type": "uint256"
            },
            {
              "internalType": "uint256",
              "name": "price",
              "type": "uint256"
            },
            {
              "internalType": "address",
              "name": "seller",
              "type": "address"
            },
            {
              "internalType": "address",
              "name": "buyer",
              "type": "address"
            },
            {
              "internalType": "bool",
              "name": "isSold",
              "type": "bool"
            },
            {
              "internalType": "bool",
              "name": "isActive",
              "type": "bool"
            }
          ],
          "internalType": "struct BlockEstateMarket.AssetListing[]",
          "name": "",
          "type": "tuple[]"
        }
      ],
      "stateMutability": "view",
      "type": "function"
    },
    {
      "inputs": [],
      "name": "readAllSharesListings",
      "outputs": [
        {
          "components": [
            {
              "internalType": "uint256",
              "name": "tokenId",
              "type": "uint256"
            },
            {
              "internalType": "uint256",
              "name": "price",
              "type": "uint256"
            },
            {
              "internalType": "uint256",
              "name": "amount",
              "type": "uint256"
            },
            {
              "internalType": "address",
              "name": "seller",
              "type": "address"
            },
            {
              "internalType": "bool",
              "name": "isActive",
              "type": "bool"
            }
          ],
          "internalType": "struct BlockEstateMarket.SharesListing[]",
          "name": "",
          "type": "tuple[]"
        }
      ],
      "stateMutability": "view",
      "type": "function"
    },
    {
      "inputs": [
        {
          "internalType": "address",
          "name": "account",
          "type": "address"
        }
      ],
      "name": "readListingsByAccount",
      "outputs": [
        {
          "components": [
            {
              "internalType": "uint256",
              "name": "tokenId",
              "type": "uint256"
            },
            {
              "internalType": "uint256",
              "name": "price",
              "type": "uint256"
            },
            {
              "internalType": "uint256",
              "name": "amount",
              "type": "uint256"
            },
            {
              "internalType": "address",
              "name": "seller",
              "type": "address"
            },
            {
              "internalType": "bool",
              "name": "isActive",
              "type": "bool"
            }
          ],
          "internalType": "struct BlockEstateMarket.SharesListing[]",
          "name": "",
          "type": "tuple[]"
        }
      ],
      "stateMutability": "view",
      "type": "function"
    },
    {
      "inputs": [],
      "name": "renounceOwnership",
      "outputs": [],
      "stateMutability": "nonpayable",
      "type": "function"
    },
    {
      "inputs": [
        {
          "internalType": "address",
          "name": "_blockEstateAssetsAddress",
          "type": "address"
        }
      ],
      "name": "setBlockEstateAssetsAddress",
      "outputs": [],
      "stateMutability": "nonpayable",
      "type": "function"
    },
    {
      "inputs": [
        {
          "internalType": "address",
          "name": "_blockEstateSharesAddress",
          "type": "address"
        }
      ],
      "name": "setBlockEstateSharesAddress",
      "outputs": [],
      "stateMutability": "nonpayable",
      "type": "function"
    },
    {
      "inputs": [
        {
          "internalType": "uint256",
          "name": "",
          "type": "uint256"
        }
      ],
      "name": "sharesListings",
      "outputs": [
        {
          "internalType": "uint256",
          "name": "tokenId",
          "type": "uint256"
        },
        {
          "internalType": "uint256",
          "name": "price",
          "type": "uint256"
        },
        {
          "internalType": "uint256",
          "name": "amount",
          "type": "uint256"
        },
        {
          "internalType": "address",
          "name": "seller",
          "type": "address"
        },
        {
          "internalType": "bool",
          "name": "isActive",
          "type": "bool"
        }
      ],
      "stateMutability": "view",
      "type": "function"
    },
    {
      "inputs": [
        {
          "internalType": "address",
          "name": "newOwner",
          "type": "address"
        }
      ],
      "name": "transferOwnership",
      "outputs": [],
      "stateMutability": "nonpayable",
      "type": "function"
    },
    {
      "inputs": [],
      "name": "unpause",
      "outputs": [],
      "stateMutability": "nonpayable",
      "type": "function"
    },
    {
      "inputs": [
        {
          "internalType": "address",
          "name": "",
          "type": "address"
        },
        {
          "internalType": "uint256",
          "name": "",
          "type": "uint256"
        }
      ],
      "name": "userListings",
      "outputs": [
        {
          "internalType": "uint256",
          "name": "",
          "type": "uint256"
        }
      ],
      "stateMutability": "view",
      "type": "function"
    }
  ],
  "bytecode": "0x60806040523480156200001157600080fd5b506040516200327238038062003272833981810160405281019062000037919062000238565b620000576200004b6200010260201b60201c565b6200010a60201b60201c565b60008060146101000a81548160ff0219169083151502179055506001808190555081600360006101000a81548173ffffffffffffffffffffffffffffffffffffffff021916908373ffffffffffffffffffffffffffffffffffffffff16021790555080600460006101000a81548173ffffffffffffffffffffffffffffffffffffffff021916908373ffffffffffffffffffffffffffffffffffffffff16021790555050506200027f565b600033905090565b60008060009054906101000a900473ffffffffffffffffffffffffffffffffffffffff169050816000806101000a81548173ffffffffffffffffffffffffffffffffffffffff021916908373ffffffffffffffffffffffffffffffffffffffff1602179055508173ffffffffffffffffffffffffffffffffffffffff168173ffffffffffffffffffffffffffffffffffffffff167f8be0079c531659141344cd1fd0a4f28419497f9722a3daafe3b4186f6b6457e060405160405180910390a35050565b600080fd5b600073ffffffffffffffffffffffffffffffffffffffff82169050919050565b60006200020082620001d3565b9050919050565b6200021281620001f3565b81146200021e57600080fd5b50565b600081519050620002328162000207565b92915050565b60008060408385031215620002525762000251620001ce565b5b6000620002628582860162000221565b9250506020620002758582860162000221565b9150509250929050565b612fe3806200028f6000396000f3fe6080604052600436106101145760003560e01c80638456cb59116100a0578063acfb2eb311610064578063acfb2eb314610370578063bc056d241461038c578063d956c104146103b7578063eb9e00b9146103f4578063f2fde38b1461041d57610114565b80638456cb591461028457806386cfa7d31461029b5780638da5cb5b146102d85780639bdec1a8146103035780639f653c511461034557610114565b80635c975abb116100e75780635c975abb146101ad57806363571e65146101d85780636b78018b14610201578063715018a61461022c5780637716e5731461024357610114565b806321d5c71b146101195780633f4ba83a146101425780634e697728146101595780635131e4e714610184575b600080fd5b34801561012557600080fd5b50610140600480360381019061013b9190611fe4565b610446565b005b34801561014e57600080fd5b50610157610782565b005b34801561016557600080fd5b5061016e610794565b60405161017b91906121a6565b60405180910390f35b34801561019057600080fd5b506101ab60048036038101906101a691906121f4565b610911565b005b3480156101b957600080fd5b506101c261095d565b6040516101cf9190612230565b60405180910390f35b3480156101e457600080fd5b506101ff60048036038101906101fa91906121f4565b610973565b005b34801561020d57600080fd5b506102166109bf565b604051610223919061225a565b60405180910390f35b34801561023857600080fd5b506102416109e5565b005b34801561024f57600080fd5b5061026a60048036038101906102659190612275565b6109f9565b60405161027b9594939291906122b1565b60405180910390f35b34801561029057600080fd5b50610299610a5c565b005b3480156102a757600080fd5b506102c260048036038101906102bd9190612304565b610a6e565b6040516102cf9190612344565b60405180910390f35b3480156102e457600080fd5b506102ed610a9f565b6040516102fa919061225a565b60405180910390f35b34801561030f57600080fd5b5061032a60048036038101906103259190612275565b610ac8565b60405161033c9695949392919061235f565b60405180910390f35b34801561035157600080fd5b5061035a610b5e565b604051610367919061225a565b60405180910390f35b61038a60048036038101906103859190612275565b610b84565b005b34801561039857600080fd5b506103a161108c565b6040516103ae91906124ea565b60405180910390f35b3480156103c357600080fd5b506103de60048036038101906103d991906121f4565b61130c565b6040516103eb91906121a6565b60405180910390f35b34801561040057600080fd5b5061041b6004803603810190610416919061250c565b611538565b005b34801561042957600080fd5b50610444600480360381019061043f91906121f4565b611b5b565b005b813373ffffffffffffffffffffffffffffffffffffffff16600360009054906101000a900473ffffffffffffffffffffffffffffffffffffffff1673ffffffffffffffffffffffffffffffffffffffff16636352211e836040518263ffffffff1660e01b81526004016104b99190612344565b602060405180830381865afa1580156104d6573d6000803e3d6000fd5b505050506040513d601f19601f820116820180604052508101906104fa9190612574565b73ffffffffffffffffffffffffffffffffffffffff1614610550576040517f08c379a0000000000000000000000000000000000000000000000000000000008152600401610547906125fe565b60405180910390fd5b60008211610593576040517f08c379a000000000000000000000000000000000000000000000000000000000815260040161058a9061266a565b60405180910390fd5b60006005600085815260200190815260200160002060000154146105ec576040517f08c379a00000000000000000000000000000000000000000000000000000000081526004016105e3906126d6565b60405180910390fd5b6040518060c001604052808481526020018381526020013373ffffffffffffffffffffffffffffffffffffffff168152602001600073ffffffffffffffffffffffffffffffffffffffff1681526020016000151581526020016001151581525060056000858152602001908152602001600020600082015181600001556020820151816001015560408201518160020160006101000a81548173ffffffffffffffffffffffffffffffffffffffff021916908373ffffffffffffffffffffffffffffffffffffffff16021790555060608201518160030160006101000a81548173ffffffffffffffffffffffffffffffffffffffff021916908373ffffffffffffffffffffffffffffffffffffffff16021790555060808201518160030160146101000a81548160ff02191690831515021790555060a08201518160030160156101000a81548160ff0219169083151502179055509050507ff1a91e6f24c2fde773766e074a64a2f99ad10d6912a29bfc44b32db0a7accf2583836040516107759291906126f6565b60405180910390a1505050565b61078a611bde565b610792611c5c565b565b606060006107a26002611cbe565b67ffffffffffffffff8111156107bb576107ba61271f565b5b6040519080825280602002602001820160405280156107f457816020015b6107e1611efc565b8152602001906001900390816107d95790505b50905060005b6108046002611cbe565b811015610909576000600660008381526020019081526020016000206000015411156108f657600660008281526020019081526020016000206040518060a00160405290816000820154815260200160018201548152602001600282015481526020016003820160009054906101000a900473ffffffffffffffffffffffffffffffffffffffff1673ffffffffffffffffffffffffffffffffffffffff1673ffffffffffffffffffffffffffffffffffffffff1681526020016003820160149054906101000a900460ff1615151515815250508282815181106108ea576108e961274e565b5b60200260200101819052505b8080610901906127ac565b9150506107fa565b508091505090565b610919611bde565b80600460006101000a81548173ffffffffffffffffffffffffffffffffffffffff021916908373ffffffffffffffffffffffffffffffffffffffff16021790555050565b60008060149054906101000a900460ff16905090565b61097b611bde565b80600360006101000a81548173ffffffffffffffffffffffffffffffffffffffff021916908373ffffffffffffffffffffffffffffffffffffffff16021790555050565b600360009054906101000a900473ffffffffffffffffffffffffffffffffffffffff1681565b6109ed611bde565b6109f76000611ccc565b565b60066020528060005260406000206000915090508060000154908060010154908060020154908060030160009054906101000a900473ffffffffffffffffffffffffffffffffffffffff16908060030160149054906101000a900460ff16905085565b610a64611bde565b610a6c611d90565b565b60076020528160005260406000208181548110610a8a57600080fd5b90600052602060002001600091509150505481565b60008060009054906101000a900473ffffffffffffffffffffffffffffffffffffffff16905090565b60056020528060005260406000206000915090508060000154908060010154908060020160009054906101000a900473ffffffffffffffffffffffffffffffffffffffff16908060030160009054906101000a900473ffffffffffffffffffffffffffffffffffffffff16908060030160149054906101000a900460ff16908060030160159054906101000a900460ff16905086565b600460009054906101000a900473ffffffffffffffffffffffffffffffffffffffff1681565b610b8c611df3565b6000600560008381526020019081526020016000206000015403610be5576040517f08c379a0000000000000000000000000000000000000000000000000000000008152600401610bdc90612840565b60405180910390fd5b34600560008381526020019081526020016000206001015414610c3d576040517f08c379a0000000000000000000000000000000000000000000000000000000008152600401610c34906128ac565b60405180910390fd5b600115156005600083815260200190815260200160002060030160159054906101000a900460ff16151514610ca7576040517f08c379a0000000000000000000000000000000000000000000000000000000008152600401610c9e90612918565b60405180910390fd5b600015156005600083815260200190815260200160002060030160149054906101000a900460ff16151514610d11576040517f08c379a0000000000000000000000000000000000000000000000000000000008152600401610d0890612984565b60405180910390fd5b336005600083815260200190815260200160002060030160006101000a81548173ffffffffffffffffffffffffffffffffffffffff021916908373ffffffffffffffffffffffffffffffffffffffff16021790555060016005600083815260200190815260200160002060030160146101000a81548160ff02191690831515021790555060006005600083815260200190815260200160002060030160156101000a81548160ff021916908315150217905550600360009054906101000a900473ffffffffffffffffffffffffffffffffffffffff1673ffffffffffffffffffffffffffffffffffffffff166323b872dd6005600084815260200190815260200160002060020160009054906101000a900473ffffffffffffffffffffffffffffffffffffffff166005600085815260200190815260200160002060030160009054906101000a900473ffffffffffffffffffffffffffffffffffffffff16846040518463ffffffff1660e01b8152600401610e8f939291906129a4565b600060405180830381600087803b158015610ea957600080fd5b505af1158015610ebd573d6000803e3d6000fd5b505050506005600082815260200190815260200160002060020160009054906101000a900473ffffffffffffffffffffffffffffffffffffffff1673ffffffffffffffffffffffffffffffffffffffff166108fc349081150290604051600060405180830381858888f19350505050158015610f3d573d6000803e3d6000fd5b507f3350c3b4245b5a0cf503136a77f59725db483e024c5550b05ccfb3bbd236b2fd816005600084815260200190815260200160002060020160009054906101000a900473ffffffffffffffffffffffffffffffffffffffff166005600085815260200190815260200160002060030160009054906101000a900473ffffffffffffffffffffffffffffffffffffffff16604051610fdd939291906129db565b60405180910390a16005600082815260200190815260200160002060008082016000905560018201600090556002820160006101000a81549073ffffffffffffffffffffffffffffffffffffffff02191690556003820160006101000a81549073ffffffffffffffffffffffffffffffffffffffff02191690556003820160146101000a81549060ff02191690556003820160156101000a81549060ff02191690555050611089611e42565b50565b60606000600360009054906101000a900473ffffffffffffffffffffffffffffffffffffffff1673ffffffffffffffffffffffffffffffffffffffff166318160ddd6040518163ffffffff1660e01b8152600401602060405180830381865afa1580156110fd573d6000803e3d6000fd5b505050506040513d601f19601f820116820180604052508101906111219190612a27565b905060008167ffffffffffffffff81111561113f5761113e61271f565b5b60405190808252806020026020018201604052801561117857816020015b611165611f43565b81526020019060019003908161115d5790505b50905060005b82811015611303576000600560006001846111999190612a54565b81526020019081526020016000206000015411156112f057600560006001836111c29190612a54565b81526020019081526020016000206040518060c001604052908160008201548152602001600182015481526020016002820160009054906101000a900473ffffffffffffffffffffffffffffffffffffffff1673ffffffffffffffffffffffffffffffffffffffff1673ffffffffffffffffffffffffffffffffffffffff1681526020016003820160009054906101000a900473ffffffffffffffffffffffffffffffffffffffff1673ffffffffffffffffffffffffffffffffffffffff1673ffffffffffffffffffffffffffffffffffffffff1681526020016003820160149054906101000a900460ff161515151581526020016003820160159054906101000a900460ff1615151515815250508282815181106112e4576112e361274e565b5b60200260200101819052505b80806112fb906127ac565b91505061117e565b50809250505090565b60606000600760008473ffffffffffffffffffffffffffffffffffffffff1673ffffffffffffffffffffffffffffffffffffffff1681526020019081526020016000208054905067ffffffffffffffff81111561136c5761136b61271f565b5b6040519080825280602002602001820160405280156113a557816020015b611392611efc565b81526020019060019003908161138a5790505b50905060005b600760008573ffffffffffffffffffffffffffffffffffffffff1673ffffffffffffffffffffffffffffffffffffffff1681526020019081526020016000208054905081101561152e5760066000600760008773ffffffffffffffffffffffffffffffffffffffff1673ffffffffffffffffffffffffffffffffffffffff168152602001908152602001600020838154811061144a5761144961274e565b5b906000526020600020015481526020019081526020016000206040518060a00160405290816000820154815260200160018201548152602001600282015481526020016003820160009054906101000a900473ffffffffffffffffffffffffffffffffffffffff1673ffffffffffffffffffffffffffffffffffffffff1673ffffffffffffffffffffffffffffffffffffffff1681526020016003820160149054906101000a900460ff1615151515815250508282815181106115105761150f61274e565b5b60200260200101819052508080611526906127ac565b9150506113ab565b5080915050919050565b82600360009054906101000a900473ffffffffffffffffffffffffffffffffffffffff1673ffffffffffffffffffffffffffffffffffffffff16634f558e79826040518263ffffffff1660e01b81526004016115949190612344565b602060405180830381865afa1580156115b1573d6000803e3d6000fd5b505050506040513d601f19601f820116820180604052508101906115d59190612ab4565b611614576040517f08c379a000000000000000000000000000000000000000000000000000000000815260040161160b90612b2d565b60405180910390fd5b33846000600460009054906101000a900473ffffffffffffffffffffffffffffffffffffffff1673ffffffffffffffffffffffffffffffffffffffff1662fdd58e84846040518363ffffffff1660e01b8152600401611674929190612b4d565b602060405180830381865afa158015611691573d6000803e3d6000fd5b505050506040513d601f19601f820116820180604052508101906116b59190612a27565b116116f5576040517f08c379a00000000000000000000000000000000000000000000000000000000081526004016116ec90612bc2565b60405180910390fd5b60008511611738576040517f08c379a000000000000000000000000000000000000000000000000000000000815260040161172f90612c2e565b60405180910390fd5b6000841161177b576040517f08c379a000000000000000000000000000000000000000000000000000000000815260040161177290612c9a565b60405180910390fd5b600084905060005b600760003373ffffffffffffffffffffffffffffffffffffffff1673ffffffffffffffffffffffffffffffffffffffff168152602001908152602001600020805490508110156118d8578760066000600760003373ffffffffffffffffffffffffffffffffffffffff1673ffffffffffffffffffffffffffffffffffffffff16815260200190815260200160002084815481106118235761182261274e565b5b9060005260206000200154815260200190815260200160002060000154036118c55760066000600760003373ffffffffffffffffffffffffffffffffffffffff1673ffffffffffffffffffffffffffffffffffffffff168152602001908152602001600020838154811061189a5761189961274e565b5b9060005260206000200154815260200190815260200160002060020154826118c29190612a54565b91505b80806118d0906127ac565b915050611783565b50600460009054906101000a900473ffffffffffffffffffffffffffffffffffffffff1673ffffffffffffffffffffffffffffffffffffffff1662fdd58e33896040518363ffffffff1660e01b8152600401611935929190612b4d565b602060405180830381865afa158015611952573d6000803e3d6000fd5b505050506040513d601f19601f820116820180604052508101906119769190612a27565b8111156119b8576040517f08c379a00000000000000000000000000000000000000000000000000000000081526004016119af90612d06565b60405180910390fd5b6040518060a001604052808881526020018781526020018681526020013373ffffffffffffffffffffffffffffffffffffffff1681526020016001151581525060066000611a066002611cbe565b815260200190815260200160002060008201518160000155602082015181600101556040820151816002015560608201518160030160006101000a81548173ffffffffffffffffffffffffffffffffffffffff021916908373ffffffffffffffffffffffffffffffffffffffff16021790555060808201518160030160146101000a81548160ff021916908315150217905550905050600760003373ffffffffffffffffffffffffffffffffffffffff1673ffffffffffffffffffffffffffffffffffffffff168152602001908152602001600020611ae56002611cbe565b9080600181540180825580915050600190039060005260206000200160009091909190915055611b156002611e4b565b7f4efa7930243335b4718e45e0b89be0c2221628ff25979933e3de922db9ad06f887878733604051611b4a9493929190612d26565b60405180910390a150505050505050565b611b63611bde565b600073ffffffffffffffffffffffffffffffffffffffff168173ffffffffffffffffffffffffffffffffffffffff1603611bd2576040517f08c379a0000000000000000000000000000000000000000000000000000000008152600401611bc990612ddd565b60405180910390fd5b611bdb81611ccc565b50565b611be6611e61565b73ffffffffffffffffffffffffffffffffffffffff16611c04610a9f565b73ffffffffffffffffffffffffffffffffffffffff1614611c5a576040517f08c379a0000000000000000000000000000000000000000000000000000000008152600401611c5190612e49565b60405180910390fd5b565b611c64611e69565b60008060146101000a81548160ff0219169083151502179055507f5db9ee0a495bf2e6ff9c91a7834c1ba4fdd244a5e8aa4e537bd38aeae4b073aa611ca7611e61565b604051611cb4919061225a565b60405180910390a1565b600081600001549050919050565b60008060009054906101000a900473ffffffffffffffffffffffffffffffffffffffff169050816000806101000a81548173ffffffffffffffffffffffffffffffffffffffff021916908373ffffffffffffffffffffffffffffffffffffffff1602179055508173ffffffffffffffffffffffffffffffffffffffff168173ffffffffffffffffffffffffffffffffffffffff167f8be0079c531659141344cd1fd0a4f28419497f9722a3daafe3b4186f6b6457e060405160405180910390a35050565b611d98611eb2565b6001600060146101000a81548160ff0219169083151502179055507f62e78cea01bee320cd4e420270b5ea74000d11b0c9f74754ebdbfc544b05a258611ddc611e61565b604051611de9919061225a565b60405180910390a1565b600260015403611e38576040517f08c379a0000000000000000000000000000000000000000000000000000000008152600401611e2f90612eb5565b60405180910390fd5b6002600181905550565b60018081905550565b6001816000016000828254019250508190555050565b600033905090565b611e7161095d565b611eb0576040517f08c379a0000000000000000000000000000000000000000000000000000000008152600401611ea790612f21565b60405180910390fd5b565b611eba61095d565b15611efa576040517f08c379a0000000000000000000000000000000000000000000000000000000008152600401611ef190612f8d565b60405180910390fd5b565b6040518060a00160405280600081526020016000815260200160008152602001600073ffffffffffffffffffffffffffffffffffffffff1681526020016000151581525090565b6040518060c001604052806000815260200160008152602001600073ffffffffffffffffffffffffffffffffffffffff168152602001600073ffffffffffffffffffffffffffffffffffffffff1681526020016000151581526020016000151581525090565b600080fd5b6000819050919050565b611fc181611fae565b8114611fcc57600080fd5b50565b600081359050611fde81611fb8565b92915050565b60008060408385031215611ffb57611ffa611fa9565b5b600061200985828601611fcf565b925050602061201a85828601611fcf565b9150509250929050565b600081519050919050565b600082825260208201905092915050565b6000819050602082019050919050565b61205981611fae565b82525050565b600073ffffffffffffffffffffffffffffffffffffffff82169050919050565b600061208a8261205f565b9050919050565b61209a8161207f565b82525050565b60008115159050919050565b6120b5816120a0565b82525050565b60a0820160008201516120d16000850182612050565b5060208201516120e46020850182612050565b5060408201516120f76040850182612050565b50606082015161210a6060850182612091565b50608082015161211d60808501826120ac565b50505050565b600061212f83836120bb565b60a08301905092915050565b6000602082019050919050565b600061215382612024565b61215d818561202f565b935061216883612040565b8060005b838110156121995781516121808882612123565b975061218b8361213b565b92505060018101905061216c565b5085935050505092915050565b600060208201905081810360008301526121c08184612148565b905092915050565b6121d18161207f565b81146121dc57600080fd5b50565b6000813590506121ee816121c8565b92915050565b60006020828403121561220a57612209611fa9565b5b6000612218848285016121df565b91505092915050565b61222a816120a0565b82525050565b60006020820190506122456000830184612221565b92915050565b6122548161207f565b82525050565b600060208201905061226f600083018461224b565b92915050565b60006020828403121561228b5761228a611fa9565b5b600061229984828501611fcf565b91505092915050565b6122ab81611fae565b82525050565b600060a0820190506122c660008301886122a2565b6122d360208301876122a2565b6122e060408301866122a2565b6122ed606083018561224b565b6122fa6080830184612221565b9695505050505050565b6000806040838503121561231b5761231a611fa9565b5b6000612329858286016121df565b925050602061233a85828601611fcf565b9150509250929050565b600060208201905061235960008301846122a2565b92915050565b600060c08201905061237460008301896122a2565b61238160208301886122a2565b61238e604083018761224b565b61239b606083018661224b565b6123a86080830185612221565b6123b560a0830184612221565b979650505050505050565b600081519050919050565b600082825260208201905092915050565b6000819050602082019050919050565b60c0820160008201516124026000850182612050565b5060208201516124156020850182612050565b5060408201516124286040850182612091565b50606082015161243b6060850182612091565b50608082015161244e60808501826120ac565b5060a082015161246160a08501826120ac565b50505050565b600061247383836123ec565b60c08301905092915050565b6000602082019050919050565b6000612497826123c0565b6124a181856123cb565b93506124ac836123dc565b8060005b838110156124dd5781516124c48882612467565b97506124cf8361247f565b9250506001810190506124b0565b5085935050505092915050565b60006020820190508181036000830152612504818461248c565b905092915050565b60008060006060848603121561252557612524611fa9565b5b600061253386828701611fcf565b935050602061254486828701611fcf565b925050604061255586828701611fcf565b9150509250925092565b60008151905061256e816121c8565b92915050565b60006020828403121561258a57612589611fa9565b5b60006125988482850161255f565b91505092915050565b600082825260208201905092915050565b7f43616c6c657220646f6573206e6f74206f776e20417373657421000000000000600082015250565b60006125e8601a836125a1565b91506125f3826125b2565b602082019050919050565b60006020820190508181036000830152612617816125db565b9050919050565b7f50726963652073686f756c64206265206174206c656173742031207765692100600082015250565b6000612654601f836125a1565b915061265f8261261e565b602082019050919050565b6000602082019050818103600083015261268381612647565b9050919050565b7f417373657420616c7265616479206c6973746564210000000000000000000000600082015250565b60006126c06015836125a1565b91506126cb8261268a565b602082019050919050565b600060208201905081810360008301526126ef816126b3565b9050919050565b600060408201905061270b60008301856122a2565b61271860208301846122a2565b9392505050565b7f4e487b7100000000000000000000000000000000000000000000000000000000600052604160045260246000fd5b7f4e487b7100000000000000000000000000000000000000000000000000000000600052603260045260246000fd5b7f4e487b7100000000000000000000000000000000000000000000000000000000600052601160045260246000fd5b60006127b782611fae565b91507fffffffffffffffffffffffffffffffffffffffffffffffffffffffffffffffff82036127e9576127e861277d565b5b600182019050919050565b7f4173736574206e6f74206c697374656421000000000000000000000000000000600082015250565b600061282a6011836125a1565b9150612835826127f4565b602082019050919050565b600060208201905081810360008301526128598161281d565b9050919050565b7f507269636520646f6573206e6f74206d61746368210000000000000000000000600082015250565b60006128966015836125a1565b91506128a182612860565b602082019050919050565b600060208201905081810360008301526128c581612889565b9050919050565b7f4173736574206c697374696e67206973206e6f74206163746976652100000000600082015250565b6000612902601c836125a1565b915061290d826128cc565b602082019050919050565b60006020820190508181036000830152612931816128f5565b9050919050565b7f4173736574206c697374696e6720697320616c726561647920736f6c64210000600082015250565b600061296e601e836125a1565b915061297982612938565b602082019050919050565b6000602082019050818103600083015261299d81612961565b9050919050565b60006060820190506129b9600083018661224b565b6129c6602083018561224b565b6129d360408301846122a2565b949350505050565b60006060820190506129f060008301866122a2565b6129fd602083018561224b565b612a0a604083018461224b565b949350505050565b600081519050612a2181611fb8565b92915050565b600060208284031215612a3d57612a3c611fa9565b5b6000612a4b84828501612a12565b91505092915050565b6000612a5f82611fae565b9150612a6a83611fae565b9250828201905080821115612a8257612a8161277d565b5b92915050565b612a91816120a0565b8114612a9c57600080fd5b50565b600081519050612aae81612a88565b92915050565b600060208284031215612aca57612ac9611fa9565b5b6000612ad884828501612a9f565b91505092915050565b7f417373657420646f6573206e6f74206578697374210000000000000000000000600082015250565b6000612b176015836125a1565b9150612b2282612ae1565b602082019050919050565b60006020820190508181036000830152612b4681612b0a565b9050919050565b6000604082019050612b62600083018561224b565b612b6f60208301846122a2565b9392505050565b7f6e6f74207368617265686f6c6465720000000000000000000000000000000000600082015250565b6000612bac600f836125a1565b9150612bb782612b76565b602082019050919050565b60006020820190508181036000830152612bdb81612b9f565b9050919050565b7f7072696365203c20312077656900000000000000000000000000000000000000600082015250565b6000612c18600d836125a1565b9150612c2382612be2565b602082019050919050565b60006020820190508181036000830152612c4781612c0b565b9050919050565b7f616d6f756e74203c203100000000000000000000000000000000000000000000600082015250565b6000612c84600a836125a1565b9150612c8f82612c4e565b602082019050919050565b60006020820190508181036000830152612cb381612c77565b9050919050565b7f6e6f7420656e6f75676820736861726573000000000000000000000000000000600082015250565b6000612cf06011836125a1565b9150612cfb82612cba565b602082019050919050565b60006020820190508181036000830152612d1f81612ce3565b9050919050565b6000608082019050612d3b60008301876122a2565b612d4860208301866122a2565b612d5560408301856122a2565b612d62606083018461224b565b95945050505050565b7f4f776e61626c653a206e6577206f776e657220697320746865207a65726f206160008201527f6464726573730000000000000000000000000000000000000000000000000000602082015250565b6000612dc76026836125a1565b9150612dd282612d6b565b604082019050919050565b60006020820190508181036000830152612df681612dba565b9050919050565b7f4f776e61626c653a2063616c6c6572206973206e6f7420746865206f776e6572600082015250565b6000612e336020836125a1565b9150612e3e82612dfd565b602082019050919050565b60006020820190508181036000830152612e6281612e26565b9050919050565b7f5265656e7472616e637947756172643a207265656e7472616e742063616c6c00600082015250565b6000612e9f601f836125a1565b9150612eaa82612e69565b602082019050919050565b60006020820190508181036000830152612ece81612e92565b9050919050565b7f5061757361626c653a206e6f7420706175736564000000000000000000000000600082015250565b6000612f0b6014836125a1565b9150612f1682612ed5565b602082019050919050565b60006020820190508181036000830152612f3a81612efe565b9050919050565b7f5061757361626c653a2070617573656400000000000000000000000000000000600082015250565b6000612f776010836125a1565b9150612f8282612f41565b602082019050919050565b60006020820190508181036000830152612fa681612f6a565b905091905056fea26469706673582212204cfaae9f9b0783c1eb0829413f618e8059f04fc70662014b739226891056605364736f6c63430008120033",
  "linkReferences": {},
  "deployedLinkReferences": {}
}