{
  "_format": "hh-sol-artifact-1",
  "contractName": "BlockEstateAssets",
  "sourceName": "contracts/BlockEstateAssets.sol",
  "abi": [
    {
      "inputs": [],
      "stateMutability": "nonpayable",
      "type": "constructor"
    },
    {
      "anonymous": false,
      "inputs": [
        {
          "indexed": true,
          "internalType": "address",
          "name": "owner",
          "type": "address"
        },
        {
          "indexed": true,
          "internalType": "address",
          "name": "approved",
          "type": "address"
        },
        {
          "indexed": true,
          "internalType": "uint256",
          "name": "tokenId",
          "type": "uint256"
        }
      ],
      "name": "Approval",
      "type": "event"
    },
    {
      "anonymous": false,
      "inputs": [
        {
          "indexed": true,
          "internalType": "address",
          "name": "owner",
          "type": "address"
        },
        {
          "indexed": true,
          "internalType": "address",
          "name": "operator",
          "type": "address"
        },
        {
          "indexed": false,
          "internalType": "bool",
          "name": "approved",
          "type": "bool"
        }
      ],
      "name": "ApprovalForAll",
      "type": "event"
    },
    {
      "anonymous": false,
      "inputs": [
        {
          "indexed": false,
          "internalType": "uint256",
          "name": "tokenId",
          "type": "uint256"
        }
      ],
      "name": "AssetCreated",
      "type": "event"
    },
    {
      "anonymous": false,
      "inputs": [
        {
          "indexed": true,
          "internalType": "address",
          "name": "previousOwner",
          "type": "address"
        },
        {
          "indexed": true,
          "internalType": "address",
          "name": "newOwner",
          "type": "address"
        }
      ],
      "name": "OwnershipTransferred",
      "type": "event"
    },
    {
      "anonymous": false,
      "inputs": [
        {
          "indexed": false,
          "internalType": "address",
          "name": "account",
          "type": "address"
        }
      ],
      "name": "Paused",
      "type": "event"
    },
    {
      "anonymous": false,
      "inputs": [
        {
          "indexed": true,
          "internalType": "address",
          "name": "from",
          "type": "address"
        },
        {
          "indexed": true,
          "internalType": "address",
          "name": "to",
          "type": "address"
        },
        {
          "indexed": true,
          "internalType": "uint256",
          "name": "tokenId",
          "type": "uint256"
        }
      ],
      "name": "Transfer",
      "type": "event"
    },
    {
      "anonymous": false,
      "inputs": [
        {
          "indexed": false,
          "internalType": "address",
          "name": "account",
          "type": "address"
        }
      ],
      "name": "Unpaused",
      "type": "event"
    },
    {
      "inputs": [
        {
          "internalType": "address",
          "name": "to",
          "type": "address"
        },
        {
          "internalType": "uint256",
          "name": "tokenId",
          "type": "uint256"
        }
      ],
      "name": "approve",
      "outputs": [],
      "stateMutability": "nonpayable",
      "type": "function"
    },
    {
      "inputs": [
        {
          "internalType": "address",
          "name": "owner",
          "type": "address"
        }
      ],
      "name": "balanceOf",
      "outputs": [
        {
          "internalType": "uint256",
          "name": "",
          "type": "uint256"
        }
      ],
      "stateMutability": "view",
      "type": "function"
    },
    {
      "inputs": [],
      "name": "blockEstateMarketAddress",
      "outputs": [
        {
          "internalType": "address",
          "name": "",
          "type": "address"
        }
      ],
      "stateMutability": "view",
      "type": "function"
    },
    {
      "inputs": [],
      "name": "blockEstateSharesAddress",
      "outputs": [
        {
          "internalType": "address",
          "name": "",
          "type": "address"
        }
      ],
      "stateMutability": "view",
      "type": "function"
    },
    {
      "inputs": [
        {
          "internalType": "uint256",
          "name": "tokenId",
          "type": "uint256"
        }
      ],
      "name": "burn",
      "outputs": [],
      "stateMutability": "nonpayable",
      "type": "function"
    },
    {
      "inputs": [
        {
          "internalType": "uint8",
          "name": "category",
          "type": "uint8"
        },
        {
          "internalType": "string",
          "name": "street",
          "type": "string"
        },
        {
          "internalType": "uint16",
          "name": "number",
          "type": "uint16"
        },
        {
          "internalType": "uint16",
          "name": "apNumber",
          "type": "uint16"
        },
        {
          "internalType": "string",
          "name": "city",
          "type": "string"
        },
        {
          "internalType": "string",
          "name": "zip",
          "type": "string"
        },
        {
          "internalType": "string",
          "name": "country",
          "type": "string"
        }
      ],
      "name": "createAsset",
      "outputs": [
        {
          "internalType": "uint256",
          "name": "",
          "type": "uint256"
        }
      ],
      "stateMutability": "nonpayable",
      "type": "function"
    },
    {
      "inputs": [
        {
          "internalType": "uint256",
          "name": "tokenId",
          "type": "uint256"
        }
      ],
      "name": "deleteAsset",
      "outputs": [],
      "stateMutability": "nonpayable",
      "type": "function"
    },
    {
      "inputs": [
        {
          "internalType": "uint256",
          "name": "tokenId",
          "type": "uint256"
        }
      ],
      "name": "exists",
      "outputs": [
        {
          "internalType": "bool",
          "name": "",
          "type": "bool"
        }
      ],
      "stateMutability": "view",
      "type": "function"
    },
    {
      "inputs": [
        {
          "internalType": "uint256",
          "name": "tokenId",
          "type": "uint256"
        }
      ],
      "name": "getApproved",
      "outputs": [
        {
          "internalType": "address",
          "name": "",
          "type": "address"
        }
      ],
      "stateMutability": "view",
      "type": "function"
    },
    {
      "inputs": [
        {
          "internalType": "address",
          "name": "owner",
          "type": "address"
        },
        {
          "internalType": "address",
          "name": "operator",
          "type": "address"
        }
      ],
      "name": "isApprovedForAll",
      "outputs": [
        {
          "internalType": "bool",
          "name": "",
          "type": "bool"
        }
      ],
      "stateMutability": "view",
      "type": "function"
    },
    {
      "inputs": [],
      "name": "name",
      "outputs": [
        {
          "internalType": "string",
          "name": "",
          "type": "string"
        }
      ],
      "stateMutability": "view",
      "type": "function"
    },
    {
      "inputs": [],
      "name": "owner",
      "outputs": [
        {
          "internalType": "address",
          "name": "",
          "type": "address"
        }
      ],
      "stateMutability": "view",
      "type": "function"
    },
    {
      "inputs": [
        {
          "internalType": "uint256",
          "name": "tokenId",
          "type": "uint256"
        }
      ],
      "name": "ownerOf",
      "outputs": [
        {
          "internalType": "address",
          "name": "",
          "type": "address"
        }
      ],
      "stateMutability": "view",
      "type": "function"
    },
    {
      "inputs": [],
      "name": "pause",
      "outputs": [],
      "stateMutability": "nonpayable",
      "type": "function"
    },
    {
      "inputs": [],
      "name": "paused",
      "outputs": [
        {
          "internalType": "bool",
          "name": "",
          "type": "bool"
        }
      ],
      "stateMutability": "view",
      "type": "function"
    },
    {
      "inputs": [],
      "name": "readAllAssets",
      "outputs": [
        {
          "components": [
            {
              "internalType": "uint256",
              "name": "tokenId",
              "type": "uint256"
            },
            {
              "internalType": "uint8",
              "name": "category",
              "type": "uint8"
            },
            {
              "components": [
                {
                  "internalType": "string",
                  "name": "street",
                  "type": "string"
                },
                {
                  "internalType": "uint16",
                  "name": "number",
                  "type": "uint16"
                },
                {
                  "internalType": "uint16",
                  "name": "apNumber",
                  "type": "uint16"
                },
                {
                  "internalType": "string",
                  "name": "city",
                  "type": "string"
                },
                {
                  "internalType": "string",
                  "name": "zip",
                  "type": "string"
                },
                {
                  "internalType": "string",
                  "name": "country",
                  "type": "string"
                }
              ],
              "internalType": "struct BlockEstateAssets.AssetLocation",
              "name": "location",
              "type": "tuple"
            }
          ],
          "internalType": "struct BlockEstateAssets.Asset[]",
          "name": "",
          "type": "tuple[]"
        }
      ],
      "stateMutability": "view",
      "type": "function"
    },
    {
      "inputs": [
        {
          "internalType": "uint256",
          "name": "tokenId",
          "type": "uint256"
        }
      ],
      "name": "readAsset",
      "outputs": [
        {
          "components": [
            {
              "internalType": "uint256",
              "name": "tokenId",
              "type": "uint256"
            },
            {
              "internalType": "uint8",
              "name": "category",
              "type": "uint8"
            },
            {
              "components": [
                {
                  "internalType": "string",
                  "name": "street",
                  "type": "string"
                },
                {
                  "internalType": "uint16",
                  "name": "number",
                  "type": "uint16"
                },
                {
                  "internalType": "uint16",
                  "name": "apNumber",
                  "type": "uint16"
                },
                {
                  "internalType": "string",
                  "name": "city",
                  "type": "string"
                },
                {
                  "internalType": "string",
                  "name": "zip",
                  "type": "string"
                },
                {
                  "internalType": "string",
                  "name": "country",
                  "type": "string"
                }
              ],
              "internalType": "struct BlockEstateAssets.AssetLocation",
              "name": "location",
              "type": "tuple"
            }
          ],
          "internalType": "struct BlockEstateAssets.Asset",
          "name": "",
          "type": "tuple"
        }
      ],
      "stateMutability": "view",
      "type": "function"
    },
    {
      "inputs": [
        {
          "internalType": "uint256[]",
          "name": "tokenIds",
          "type": "uint256[]"
        }
      ],
      "name": "readAssetBatch",
      "outputs": [
        {
          "components": [
            {
              "internalType": "uint256",
              "name": "tokenId",
              "type": "uint256"
            },
            {
              "internalType": "uint8",
              "name": "category",
              "type": "uint8"
            },
            {
              "components": [
                {
                  "internalType": "string",
                  "name": "street",
                  "type": "string"
                },
                {
                  "internalType": "uint16",
                  "name": "number",
                  "type": "uint16"
                },
                {
                  "internalType": "uint16",
                  "name": "apNumber",
                  "type": "uint16"
                },
                {
                  "internalType": "string",
                  "name": "city",
                  "type": "string"
                },
                {
                  "internalType": "string",
                  "name": "zip",
                  "type": "string"
                },
                {
                  "internalType": "string",
                  "name": "country",
                  "type": "string"
                }
              ],
              "internalType": "struct BlockEstateAssets.AssetLocation",
              "name": "location",
              "type": "tuple"
            }
          ],
          "internalType": "struct BlockEstateAssets.Asset[]",
          "name": "",
          "type": "tuple[]"
        }
      ],
      "stateMutability": "view",
      "type": "function"
    },
    {
      "inputs": [
        {
          "internalType": "address",
          "name": "_address",
          "type": "address"
        }
      ],
      "name": "readAssetsByHolder",
      "outputs": [
        {
          "components": [
            {
              "internalType": "uint256",
              "name": "tokenId",
              "type": "uint256"
            },
            {
              "internalType": "uint8",
              "name": "category",
              "type": "uint8"
            },
            {
              "components": [
                {
                  "internalType": "string",
                  "name": "street",
                  "type": "string"
                },
                {
                  "internalType": "uint16",
                  "name": "number",
                  "type": "uint16"
                },
                {
                  "internalType": "uint16",
                  "name": "apNumber",
                  "type": "uint16"
                },
                {
                  "internalType": "string",
                  "name": "city",
                  "type": "string"
                },
                {
                  "internalType": "string",
                  "name": "zip",
                  "type": "string"
                },
                {
                  "internalType": "string",
                  "name": "country",
                  "type": "string"
                }
              ],
              "internalType": "struct BlockEstateAssets.AssetLocation",
              "name": "location",
              "type": "tuple"
            }
          ],
          "internalType": "struct BlockEstateAssets.Asset[]",
          "name": "",
          "type": "tuple[]"
        }
      ],
      "stateMutability": "view",
      "type": "function"
    },
    {
      "inputs": [],
      "name": "renounceOwnership",
      "outputs": [],
      "stateMutability": "nonpayable",
      "type": "function"
    },
    {
      "inputs": [
        {
          "internalType": "address",
          "name": "from",
          "type": "address"
        },
        {
          "internalType": "address",
          "name": "to",
          "type": "address"
        },
        {
          "internalType": "uint256",
          "name": "tokenId",
          "type": "uint256"
        }
      ],
      "name": "safeTransferFrom",
      "outputs": [],
      "stateMutability": "nonpayable",
      "type": "function"
    },
    {
      "inputs": [
        {
          "internalType": "address",
          "name": "from",
          "type": "address"
        },
        {
          "internalType": "address",
          "name": "to",
          "type": "address"
        },
        {
          "internalType": "uint256",
          "name": "tokenId",
          "type": "uint256"
        },
        {
          "internalType": "bytes",
          "name": "data",
          "type": "bytes"
        }
      ],
      "name": "safeTransferFrom",
      "outputs": [],
      "stateMutability": "nonpayable",
      "type": "function"
    },
    {
      "inputs": [
        {
          "internalType": "address",
          "name": "operator",
          "type": "address"
        },
        {
          "internalType": "bool",
          "name": "approved",
          "type": "bool"
        }
      ],
      "name": "setApprovalForAll",
      "outputs": [],
      "stateMutability": "nonpayable",
      "type": "function"
    },
    {
      "inputs": [
        {
          "internalType": "address",
          "name": "_blockEstateMarketAddress",
          "type": "address"
        }
      ],
      "name": "setBlockEstateMarketAddress",
      "outputs": [],
      "stateMutability": "nonpayable",
      "type": "function"
    },
    {
      "inputs": [
        {
          "internalType": "address",
          "name": "_blockEstateSharesAddress",
          "type": "address"
        }
      ],
      "name": "setBlockEstateSharesAddress",
      "outputs": [],
      "stateMutability": "nonpayable",
      "type": "function"
    },
    {
      "inputs": [
        {
          "internalType": "bytes4",
          "name": "interfaceId",
          "type": "bytes4"
        }
      ],
      "name": "supportsInterface",
      "outputs": [
        {
          "internalType": "bool",
          "name": "",
          "type": "bool"
        }
      ],
      "stateMutability": "view",
      "type": "function"
    },
    {
      "inputs": [],
      "name": "symbol",
      "outputs": [
        {
          "internalType": "string",
          "name": "",
          "type": "string"
        }
      ],
      "stateMutability": "view",
      "type": "function"
    },
    {
      "inputs": [
        {
          "internalType": "uint256",
          "name": "index",
          "type": "uint256"
        }
      ],
      "name": "tokenByIndex",
      "outputs": [
        {
          "internalType": "uint256",
          "name": "",
          "type": "uint256"
        }
      ],
      "stateMutability": "view",
      "type": "function"
    },
    {
      "inputs": [
        {
          "internalType": "address",
          "name": "owner",
          "type": "address"
        },
        {
          "internalType": "uint256",
          "name": "index",
          "type": "uint256"
        }
      ],
      "name": "tokenOfOwnerByIndex",
      "outputs": [
        {
          "internalType": "uint256",
          "name": "",
          "type": "uint256"
        }
      ],
      "stateMutability": "view",
      "type": "function"
    },
    {
      "inputs": [
        {
          "internalType": "uint256",
          "name": "tokenId",
          "type": "uint256"
        }
      ],
      "name": "tokenURI",
      "outputs": [
        {
          "internalType": "string",
          "name": "",
          "type": "string"
        }
      ],
      "stateMutability": "view",
      "type": "function"
    },
    {
      "inputs": [],
      "name": "totalSupply",
      "outputs": [
        {
          "internalType": "uint256",
          "name": "",
          "type": "uint256"
        }
      ],
      "stateMutability": "view",
      "type": "function"
    },
    {
      "inputs": [
        {
          "internalType": "address",
          "name": "from",
          "type": "address"
        },
        {
          "internalType": "address",
          "name": "to",
          "type": "address"
        },
        {
          "internalType": "uint256",
          "name": "tokenId",
          "type": "uint256"
        }
      ],
      "name": "transferFrom",
      "outputs": [],
      "stateMutability": "nonpayable",
      "type": "function"
    },
    {
      "inputs": [
        {
          "internalType": "address",
          "name": "newOwner",
          "type": "address"
        }
      ],
      "name": "transferOwnership",
      "outputs": [],
      "stateMutability": "nonpayable",
      "type": "function"
    },
    {
      "inputs": [],
      "name": "unpause",
      "outputs": [],
      "stateMutability": "nonpayable",
      "type": "function"
    }
  ],
  "bytecode": "0x60806040523480156200001157600080fd5b5060405180604001604052806011815260200170426c6f636b45737461746541737365747360781b8152506040518060400160405280600381526020016242454160e81b8152508160009081620000699190620001b5565b506001620000788282620001b5565b5050600a805460ff19169055506200009033620000ad565b620000a7600b6200010760201b620017571760201c565b62000281565b600a80546001600160a01b03838116610100818102610100600160a81b031985161790945560405193909204169182907f8be0079c531659141344cd1fd0a4f28419497f9722a3daafe3b4186f6b6457e090600090a35050565b80546001019055565b634e487b7160e01b600052604160045260246000fd5b600181811c908216806200013b57607f821691505b6020821081036200015c57634e487b7160e01b600052602260045260246000fd5b50919050565b601f821115620001b057600081815260208120601f850160051c810160208610156200018b5750805b601f850160051c820191505b81811015620001ac5782815560010162000197565b5050505b505050565b81516001600160401b03811115620001d157620001d162000110565b620001e981620001e2845462000126565b8462000162565b602080601f831160018114620002215760008415620002085750858301515b600019600386901b1c1916600185901b178555620001ac565b600085815260208120601f198616915b82811015620002525788860151825594840194600190910190840162000231565b5085821015620002715787850151600019600388901b60f8161c191681555b5050505050600190811b01905550565b61360b80620002916000396000f3fe608060405234801561001057600080fd5b50600436106102065760003560e01c80635131e4e71161011a5780638da5cb5b116100ad578063b88d4fde1161007c578063b88d4fde14610440578063c87b56dd14610453578063d076b6b314610466578063e985e9c514610479578063f2fde38b146104b557600080fd5b80638da5cb5b146103fc57806395d89b41146104125780639f653c511461041a578063a22cb4651461042d57600080fd5b8063715018a6116100e9578063715018a6146103c65780637eb79b53146103ce5780638456cb59146103e15780638947473f146103e957600080fd5b80635131e4e7146103825780635c975abb146103955780636352211e146103a057806370a08231146103b357600080fd5b80632d192e6f1161019d57806342842e0e1161016c57806342842e0e1461032357806342966c68146103365780634cfe601a146103495780634f558e791461035c5780634f6ccce71461036f57600080fd5b80632d192e6f146102ed5780632ee5ba2c146103005780632f745c59146103085780633f4ba83a1461031b57600080fd5b8063095ea7b3116101d9578063095ea7b31461029357806318160ddd146102a8578063223baab4146102ba57806323b872dd146102da57600080fd5b806301ffc9a71461020b5780630488a3b91461023357806306fdde0314610253578063081812fc14610268575b600080fd5b61021e610219366004612a14565b6104c8565b60405190151581526020015b60405180910390f35b610246610241366004612a31565b6104d9565b60405161022a9190612b52565b61025b6107ea565b60405161022a9190612b65565b61027b610276366004612a31565b61087c565b6040516001600160a01b03909116815260200161022a565b6102a66102a1366004612b8d565b6108a3565b005b6008545b60405190815260200161022a565b6102cd6102c8366004612bb9565b6109b8565b60405161022a9190612bd6565b6102a66102e8366004612c38565b610a70565b6102cd6102fb366004612ce4565b610aa2565b6102cd610b5a565b6102ac610316366004612b8d565b610c04565b6102a6610c9a565b6102a6610331366004612c38565b610cac565b6102a6610344366004612a31565b610cc7565b6102a6610357366004612bb9565b610cf8565b61021e61036a366004612a31565b610d29565b6102ac61037d366004612a31565b610d34565b6102a6610390366004612bb9565b610dc7565b600a5460ff1661021e565b61027b6103ae366004612a31565b610df8565b6102ac6103c1366004612bb9565b610e58565b6102a6610ede565b6102a66103dc366004612a31565b610ef0565b6102a661103c565b600d5461027b906001600160a01b031681565b600a5461010090046001600160a01b031661027b565b61025b61104c565b600c5461027b906001600160a01b031681565b6102a661043b366004612d88565b61105b565b6102a661044e366004612e19565b61106a565b61025b610461366004612a31565b6110a2565b6102ac610474366004612ee1565b611109565b61021e610487366004612fc0565b6001600160a01b03918216600090815260056020908152604080832093909416825291909152205460ff1690565b6102a66104c3366004612bb9565b6116e1565b60006104d382611760565b92915050565b6104e161294e565b816104eb81611785565b6105345760405162461bcd60e51b8152602060048201526015602482015274546f6b656e20646f6573206e6f742065786973742160581b60448201526064015b60405180910390fd5b6000838152600e6020908152604091829020825160608101845281548152600182015460ff1692810192909252825160c08101845260028201805493949293928501928290829061058490612fee565b80601f01602080910402602001604051908101604052809291908181526020018280546105b090612fee565b80156105fd5780601f106105d2576101008083540402835291602001916105fd565b820191906000526020600020905b8154815290600101906020018083116105e057829003601f168201915b5050509183525050600182015461ffff80821660208401526201000090910416604082015260028201805460609092019161063790612fee565b80601f016020809104026020016040519081016040528092919081815260200182805461066390612fee565b80156106b05780601f10610685576101008083540402835291602001916106b0565b820191906000526020600020905b81548152906001019060200180831161069357829003601f168201915b505050505081526020016003820180546106c990612fee565b80601f01602080910402602001604051908101604052809291908181526020018280546106f590612fee565b80156107425780601f1061071757610100808354040283529160200191610742565b820191906000526020600020905b81548152906001019060200180831161072557829003601f168201915b5050505050815260200160048201805461075b90612fee565b80601f016020809104026020016040519081016040528092919081815260200182805461078790612fee565b80156107d45780601f106107a9576101008083540402835291602001916107d4565b820191906000526020600020905b8154815290600101906020018083116107b757829003601f168201915b5050505050815250508152505091505b50919050565b6060600080546107f990612fee565b80601f016020809104026020016040519081016040528092919081815260200182805461082590612fee565b80156108725780601f1061084757610100808354040283529160200191610872565b820191906000526020600020905b81548152906001019060200180831161085557829003601f168201915b5050505050905090565b6000610887826117a2565b506000908152600460205260409020546001600160a01b031690565b60006108ae82610df8565b9050806001600160a01b0316836001600160a01b03160361091b5760405162461bcd60e51b815260206004820152602160248201527f4552433732313a20617070726f76616c20746f2063757272656e74206f776e656044820152603960f91b606482015260840161052b565b336001600160a01b038216148061093757506109378133610487565b6109a95760405162461bcd60e51b815260206004820152603d60248201527f4552433732313a20617070726f76652063616c6c6572206973206e6f7420746f60448201527f6b656e206f776e6572206f7220617070726f76656420666f7220616c6c000000606482015260840161052b565b6109b383836117f2565b505050565b606060006109c583610e58565b67ffffffffffffffff8111156109dd576109dd612c79565b604051908082528060200260200182016040528015610a1657816020015b610a0361294e565b8152602001906001900390816109fb5790505b50905060005b610a2584610e58565b811015610a6957610a396102418583610c04565b828281518110610a4b57610a4b613022565b60200260200101819052508080610a619061304e565b915050610a1c565b5092915050565b610a7b335b82611860565b610a975760405162461bcd60e51b815260040161052b90613067565b6109b38383836118df565b60606000825167ffffffffffffffff811115610ac057610ac0612c79565b604051908082528060200260200182016040528015610af957816020015b610ae661294e565b815260200190600190039081610ade5790505b50905060005b8351811015610a6957610b2a848281518110610b1d57610b1d613022565b60200260200101516104d9565b828281518110610b3c57610b3c613022565b60200260200101819052508080610b529061304e565b915050610aff565b60606000610b6760085490565b67ffffffffffffffff811115610b7f57610b7f612c79565b604051908082528060200260200182016040528015610bb857816020015b610ba561294e565b815260200190600190039081610b9d5790505b50905060005b6008548110156107e457610bd461024182610d34565b828281518110610be657610be6613022565b60200260200101819052508080610bfc9061304e565b915050610bbe565b6000610c0f83610e58565b8210610c715760405162461bcd60e51b815260206004820152602b60248201527f455243373231456e756d657261626c653a206f776e657220696e646578206f7560448201526a74206f6620626f756e647360a81b606482015260840161052b565b506001600160a01b03919091166000908152600660209081526040808320938352929052205490565b610ca2611a50565b610caa611ab0565b565b6109b38383836040518060200160405280600081525061106a565b610cd033610a75565b610cec5760405162461bcd60e51b815260040161052b90613067565b610cf581611b02565b50565b610d00611a50565b600d80546001600160a01b0319166001600160a01b038316908117909155610cf590600161105b565b60006104d382611785565b6000610d3f60085490565b8210610da25760405162461bcd60e51b815260206004820152602c60248201527f455243373231456e756d657261626c653a20676c6f62616c20696e646578206f60448201526b7574206f6620626f756e647360a01b606482015260840161052b565b60088281548110610db557610db5613022565b90600052602060002001549050919050565b610dcf611a50565b600c80546001600160a01b0319166001600160a01b038316908117909155610cf590600161105b565b6000818152600260205260408120546001600160a01b0316806104d35760405162461bcd60e51b8152602060048201526018602482015277115490cdcc8c4e881a5b9d985b1a59081d1bdad95b88125160421b604482015260640161052b565b60006001600160a01b038216610ec25760405162461bcd60e51b815260206004820152602960248201527f4552433732313a2061646472657373207a65726f206973206e6f7420612076616044820152683634b21037bbb732b960b91b606482015260840161052b565b506001600160a01b031660009081526003602052604090205490565b610ee6611a50565b610caa6000611ba5565b80610efa81611785565b610f3e5760405162461bcd60e51b8152602060048201526015602482015274546f6b656e20646f6573206e6f742065786973742160581b604482015260640161052b565b610f4782610cc7565b6000828152600e60209081526040808320600181015460038201549251600f9594610f9d9460ff90931693600281019361ffff808216946201000090920416926004830192600581019260069091019101613127565b60408051601f1981840301815291815281516020928301208352828201939093529082016000908120805460ff19908116909155858252600e909252918220828155600181018054909216909155906002820181610ffb82826129b0565b60018201805463ffffffff191690556110186002830160006129b0565b6110266003830160006129b0565b6110346004830160006129b0565b505050505050565b611044611a50565b610caa611bff565b6060600180546107f990612fee565b611066338383611c3c565b5050565b6110743383611860565b6110905760405162461bcd60e51b815260040161052b90613067565b61109c84848484611d0a565b50505050565b60606110ad826117a2565b60006110b7611d3d565b905060008151116110d75760405180602001604052806000815250611102565b806110e184611d5d565b6040516020016110f292919061318f565b6040516020818303038152906040525b9392505050565b6000600160ff8916111561115f5760405162461bcd60e51b815260206004820152601760248201527f496e76616c69642061737365742063617465676f727921000000000000000000604482015260640161052b565b60028751116111ca5760405162461bcd60e51b815260206004820152603160248201527f537472656574206e616d652073686f756c64206265206174206c6561737420336044820152702063686172616374657273206c6f6e672160781b606482015260840161052b565b60008661ffff161161122a5760405162461bcd60e51b815260206004820152602360248201527f537472656574206e756d6265722073686f756c64206265206174206c6561737460448201526220312160e81b606482015260840161052b565b8760ff166000036112985760008561ffff16116112985760405162461bcd60e51b815260206004820152602660248201527f41706172746d656e74206e756d6265722073686f756c64206265206174206c6560448201526561737420312160d01b606482015260840161052b565b60008451116113005760405162461bcd60e51b815260206004820152602e60248201527f43697479206e616d652073686f756c64206265206174206c656173742031206360448201526d6861726163746572206c6f6e672160901b606482015260840161052b565b60008351116113625760405162461bcd60e51b815260206004820152602860248201527f5a697020636f64652073686f756c64206265206174206c65617374206f66206c604482015267656e67746820312160c01b606482015260840161052b565b60038251116113ce5760405162461bcd60e51b815260206004820152603260248201527f436f756e747279206e616d652073686f756c64206265206174206c6561737420604482015271342063686172616374657273206c6f6e672160701b606482015260840161052b565b6040805160c08101825288815261ffff8089166020808401829052918916838501819052606084018990526080840188905260a0840187905293519293600f93600093611429938f938f93919290918d918d918d91016131be565b60408051601f198184030181529181528151602092830120835290820192909252016000205460ff16156114b05760405162461bcd60e51b815260206004820152602860248201527f417373657420776974682074686973206c6f636174696f6e20616c7265616479604482015267206578697374732160c01b606482015260840161052b565b6114c2336114bd600b5490565b611df0565b60405180606001604052806114d6600b5490565b815260ff8b166020820152604001829052600e60006114f4600b5490565b81526020808201929092526040908101600020835181559183015160018301805460ff191660ff90921691909117905582015180516002830190819061153a9082613299565b506020820151600182018054604085015161ffff908116620100000263ffffffff199092169316929092179190911790556060820151600282019061157f9082613299565b50608082015160038201906115949082613299565b5060a082015160048201906115a99082613299565b5050509050506001600f60008b846000015185602001518660400151876060015188608001518960a001516040516020016115ea97969594939291906131be565b60408051808303601f19018152918152815160209283012083529082019290925201600020805460ff1916911515919091179055600b547fe9667cd49094a292b02a1d8555f54c265b42912082c2f32b2050393b06d835989060405190815260200160405180910390a1600061165f600b5490565b905061166f600b80546001019055565b600c546040516306d1fdfd60e41b8152336004820152602481018390526001600160a01b0390911690636d1fdfd090604401600060405180830381600087803b1580156116bb57600080fd5b505af11580156116cf573d6000803e3d6000fd5b50929c9b505050505050505050505050565b6116e9611a50565b6001600160a01b03811661174e5760405162461bcd60e51b815260206004820152602660248201527f4f776e61626c653a206e6577206f776e657220697320746865207a65726f206160448201526564647265737360d01b606482015260840161052b565b610cf581611ba5565b80546001019055565b60006001600160e01b0319821663780e9d6360e01b14806104d357506104d382611e0a565b6000908152600260205260409020546001600160a01b0316151590565b6117ab81611785565b610cf55760405162461bcd60e51b8152602060048201526018602482015277115490cdcc8c4e881a5b9d985b1a59081d1bdad95b88125160421b604482015260640161052b565b600081815260046020526040902080546001600160a01b0319166001600160a01b038416908117909155819061182782610df8565b6001600160a01b03167f8c5be1e5ebec7d5bd14f71427d1e84f3dd0314c0f7b2291e5b200ac8c7c3b92560405160405180910390a45050565b60008061186c83610df8565b9050806001600160a01b0316846001600160a01b031614806118b357506001600160a01b0380821660009081526005602090815260408083209388168352929052205460ff165b806118d75750836001600160a01b03166118cc8461087c565b6001600160a01b0316145b949350505050565b826001600160a01b03166118f282610df8565b6001600160a01b0316146119185760405162461bcd60e51b815260040161052b90613359565b6001600160a01b03821661197a5760405162461bcd60e51b8152602060048201526024808201527f4552433732313a207472616e7366657220746f20746865207a65726f206164646044820152637265737360e01b606482015260840161052b565b6119878383836001611e5a565b826001600160a01b031661199a82610df8565b6001600160a01b0316146119c05760405162461bcd60e51b815260040161052b90613359565b600081815260046020908152604080832080546001600160a01b03199081169091556001600160a01b0387811680865260038552838620805460001901905590871680865283862080546001019055868652600290945282852080549092168417909155905184937fddf252ad1be2c89b69c2b068fc378daa952ba7f163c4a11628f55a4df523b3ef91a4505050565b600a546001600160a01b03610100909104163314610caa5760405162461bcd60e51b815260206004820181905260248201527f4f776e61626c653a2063616c6c6572206973206e6f7420746865206f776e6572604482015260640161052b565b611ab86121e0565b600a805460ff191690557f5db9ee0a495bf2e6ff9c91a7834c1ba4fdd244a5e8aa4e537bd38aeae4b073aa335b6040516001600160a01b03909116815260200160405180910390a1565b6000611b0d82610df8565b9050611b1d816000846001611e5a565b611b2682610df8565b600083815260046020908152604080832080546001600160a01b03199081169091556001600160a01b0385168085526003845282852080546000190190558785526002909352818420805490911690555192935084927fddf252ad1be2c89b69c2b068fc378daa952ba7f163c4a11628f55a4df523b3ef908390a45050565b600a80546001600160a01b03838116610100818102610100600160a81b031985161790945560405193909204169182907f8be0079c531659141344cd1fd0a4f28419497f9722a3daafe3b4186f6b6457e090600090a35050565b611c07612229565b600a805460ff191660011790557f62e78cea01bee320cd4e420270b5ea74000d11b0c9f74754ebdbfc544b05a258611ae53390565b816001600160a01b0316836001600160a01b031603611c9d5760405162461bcd60e51b815260206004820152601960248201527f4552433732313a20617070726f766520746f2063616c6c657200000000000000604482015260640161052b565b6001600160a01b03838116600081815260056020908152604080832094871680845294825291829020805460ff191686151590811790915591519182527f17307eab39ab6107e8899845ad3d59bd9653f200f220920489ca2b5937696c31910160405180910390a3505050565b611d158484846118df565b611d218484848461226f565b61109c5760405162461bcd60e51b815260040161052b9061339e565b60606040518060600160405280603481526020016135a260349139905090565b60606000611d6a83612370565b600101905060008167ffffffffffffffff811115611d8a57611d8a612c79565b6040519080825280601f01601f191660200182016040528015611db4576020820181803683370190505b5090508181016020015b600019016f181899199a1a9b1b9c1cb0b131b232b360811b600a86061a8153600a8504945084611dbe57509392505050565b611066828260405180602001604052806000815250612448565b60006001600160e01b031982166380ac58cd60e01b1480611e3b57506001600160e01b03198216635b5e139f60e01b145b806104d357506301ffc9a760e01b6001600160e01b03198316146104d3565b611e62612229565b611e6e8484848461247b565b600d5460405163137bd83560e31b815260048101849052600091829182916001600160a01b031690639bdec1a89060240160c060405180830381865afa158015611ebc573d6000803e3d6000fd5b505050506040513d601f19601f82011682018060405250810190611ee091906133f0565b95509550505050925082600014611f47578180611efb575080155b611f475760405162461bcd60e51b815260206004820152601e60248201527f4173736574206973206c6973746564206f6e20746865204d61726b6574210000604482015260640161052b565b600c546040516310f9323360e21b8152600481018790526000916001600160a01b0316906343e4c8cc90602401600060405180830381865afa158015611f91573d6000803e3d6000fd5b505050506040513d6000823e601f3d908101601f19168201604052611fb99190810190613463565b90506001600160a01b03871615801590611fd4575060008151115b156121d65760008060005b835181101561216557600c54845184916001600160a01b03169062fdd58e9087908590811061201057612010613022565b60200260200101518c6040518363ffffffff1660e01b815260040161204a9291906001600160a01b03929092168252602082015260400190565b602060405180830381865afa158015612067573d6000803e3d6000fd5b505050506040513d601f19601f8201168201806040525081019061208b91906134f2565b111561215357600c5484516001600160a01b039091169062fdd58e908690849081106120b9576120b9613022565b60200260200101518b6040518363ffffffff1660e01b81526004016120f39291906001600160a01b03929092168252602082015260400190565b602060405180830381865afa158015612110573d6000803e3d6000fd5b505050506040513d601f19601f8201168201806040525081019061213491906134f2565b925083818151811061214857612148613022565b602002602001015191505b8061215d8161304e565b915050611fdf565b50886001600160a01b0316816001600160a01b0316146121d35760405162461bcd60e51b815260206004820152602360248201527f526563697069656e74206973206e6f74206d616a6f72207368617265686f6c6460448201526265722160e81b606482015260840161052b565b50505b5050505050505050565b600a5460ff16610caa5760405162461bcd60e51b815260206004820152601460248201527314185d5cd8589b194e881b9bdd081c185d5cd95960621b604482015260640161052b565b600a5460ff1615610caa5760405162461bcd60e51b815260206004820152601060248201526f14185d5cd8589b194e881c185d5cd95960821b604482015260640161052b565b60006001600160a01b0384163b1561236557604051630a85bd0160e11b81526001600160a01b0385169063150b7a02906122b390339089908890889060040161350b565b6020604051808303816000875af19250505080156122ee575060408051601f3d908101601f191682019092526122eb91810190613548565b60015b61234b573d80801561231c576040519150601f19603f3d011682016040523d82523d6000602084013e612321565b606091505b5080516000036123435760405162461bcd60e51b815260040161052b9061339e565b805181602001fd5b6001600160e01b031916630a85bd0160e11b1490506118d7565b506001949350505050565b60008072184f03e93ff9f4daa797ed6e38ed64bf6a1f0160401b83106123af5772184f03e93ff9f4daa797ed6e38ed64bf6a1f0160401b830492506040015b6d04ee2d6d415b85acef810000000083106123db576d04ee2d6d415b85acef8100000000830492506020015b662386f26fc1000083106123f957662386f26fc10000830492506010015b6305f5e1008310612411576305f5e100830492506008015b612710831061242557612710830492506004015b60648310612437576064830492506002015b600a83106104d35760010192915050565b61245283836125bb565b61245f600084848461226f565b6109b35760405162461bcd60e51b815260040161052b9061339e565b61248784848484612736565b60018111156124f65760405162461bcd60e51b815260206004820152603560248201527f455243373231456e756d657261626c653a20636f6e7365637574697665207472604482015274185b9cd9995c9cc81b9bdd081cdd5c1c1bdc9d1959605a1b606482015260840161052b565b816001600160a01b0385166125525761254d81600880546000838152600960205260408120829055600182018355919091527ff3f7a9fe364faab93b216da50a3214154f22a0a2b415b23a84c8169e8b636ee30155565b612575565b836001600160a01b0316856001600160a01b0316146125755761257585826127be565b6001600160a01b0384166125915761258c8161285b565b6125b4565b846001600160a01b0316846001600160a01b0316146125b4576125b4848261290a565b5050505050565b6001600160a01b0382166126115760405162461bcd60e51b815260206004820181905260248201527f4552433732313a206d696e7420746f20746865207a65726f2061646472657373604482015260640161052b565b61261a81611785565b156126675760405162461bcd60e51b815260206004820152601c60248201527f4552433732313a20746f6b656e20616c7265616479206d696e74656400000000604482015260640161052b565b612675600083836001611e5a565b61267e81611785565b156126cb5760405162461bcd60e51b815260206004820152601c60248201527f4552433732313a20746f6b656e20616c7265616479206d696e74656400000000604482015260640161052b565b6001600160a01b038216600081815260036020908152604080832080546001019055848352600290915280822080546001600160a01b0319168417905551839291907fddf252ad1be2c89b69c2b068fc378daa952ba7f163c4a11628f55a4df523b3ef908290a45050565b600181111561109c576001600160a01b0384161561277c576001600160a01b03841660009081526003602052604081208054839290612776908490613565565b90915550505b6001600160a01b0383161561109c576001600160a01b038316600090815260036020526040812080548392906127b3908490613578565b909155505050505050565b600060016127cb84610e58565b6127d59190613565565b600083815260076020526040902054909150808214612828576001600160a01b03841660009081526006602090815260408083208584528252808320548484528184208190558352600790915290208190555b5060009182526007602090815260408084208490556001600160a01b039094168352600681528383209183525290812055565b60085460009061286d90600190613565565b6000838152600960205260408120546008805493945090928490811061289557612895613022565b9060005260206000200154905080600883815481106128b6576128b6613022565b60009182526020808320909101929092558281526009909152604080822084905585825281205560088054806128ee576128ee61358b565b6001900381819060005260206000200160009055905550505050565b600061291583610e58565b6001600160a01b039093166000908152600660209081526040808320868452825280832085905593825260079052919091209190915550565b604051806060016040528060008152602001600060ff1681526020016129ab6040518060c0016040528060608152602001600061ffff168152602001600061ffff1681526020016060815260200160608152602001606081525090565b905290565b5080546129bc90612fee565b6000825580601f106129cc575050565b601f016020900490600052602060002090810190610cf591905b808211156129fa57600081556001016129e6565b5090565b6001600160e01b031981168114610cf557600080fd5b600060208284031215612a2657600080fd5b8135611102816129fe565b600060208284031215612a4357600080fd5b5035919050565b60005b83811015612a65578181015183820152602001612a4d565b50506000910152565b60008151808452612a86816020860160208601612a4a565b601f01601f19169290920160200192915050565b8051825260ff60208201511660208301526000604082015160606040850152805160c06060860152612ad0610120860182612a6e565b602083015161ffff908116608088015260408401511660a08701526060830151868203605f1990810160c089015291925090612b0c8383612a6e565b925060808401519150808784030160e0880152612b298383612a6e565b925060a0840151935080878403016101008801525050612b498183612a6e565b95945050505050565b6020815260006111026020830184612a9a565b6020815260006111026020830184612a6e565b6001600160a01b0381168114610cf557600080fd5b60008060408385031215612ba057600080fd5b8235612bab81612b78565b946020939093013593505050565b600060208284031215612bcb57600080fd5b813561110281612b78565b6000602080830181845280855180835260408601915060408160051b870101925083870160005b82811015612c2b57603f19888603018452612c19858351612a9a565b94509285019290850190600101612bfd565b5092979650505050505050565b600080600060608486031215612c4d57600080fd5b8335612c5881612b78565b92506020840135612c6881612b78565b929592945050506040919091013590565b634e487b7160e01b600052604160045260246000fd5b604051601f8201601f1916810167ffffffffffffffff81118282101715612cb857612cb8612c79565b604052919050565b600067ffffffffffffffff821115612cda57612cda612c79565b5060051b60200190565b60006020808385031215612cf757600080fd5b823567ffffffffffffffff811115612d0e57600080fd5b8301601f81018513612d1f57600080fd5b8035612d32612d2d82612cc0565b612c8f565b81815260059190911b82018301908381019087831115612d5157600080fd5b928401925b82841015612d6f57833582529284019290840190612d56565b979650505050505050565b8015158114610cf557600080fd5b60008060408385031215612d9b57600080fd5b8235612da681612b78565b91506020830135612db681612d7a565b809150509250929050565b600067ffffffffffffffff831115612ddb57612ddb612c79565b612dee601f8401601f1916602001612c8f565b9050828152838383011115612e0257600080fd5b828260208301376000602084830101529392505050565b60008060008060808587031215612e2f57600080fd5b8435612e3a81612b78565b93506020850135612e4a81612b78565b925060408501359150606085013567ffffffffffffffff811115612e6d57600080fd5b8501601f81018713612e7e57600080fd5b612e8d87823560208401612dc1565b91505092959194509250565b803560ff81168114612eaa57600080fd5b919050565b600082601f830112612ec057600080fd5b61110283833560208501612dc1565b803561ffff81168114612eaa57600080fd5b600080600080600080600060e0888a031215612efc57600080fd5b612f0588612e99565b9650602088013567ffffffffffffffff80821115612f2257600080fd5b612f2e8b838c01612eaf565b9750612f3c60408b01612ecf565b9650612f4a60608b01612ecf565b955060808a0135915080821115612f6057600080fd5b612f6c8b838c01612eaf565b945060a08a0135915080821115612f8257600080fd5b612f8e8b838c01612eaf565b935060c08a0135915080821115612fa457600080fd5b50612fb18a828b01612eaf565b91505092959891949750929550565b60008060408385031215612fd357600080fd5b8235612fde81612b78565b91506020830135612db681612b78565b600181811c9082168061300257607f821691505b6020821081036107e457634e487b7160e01b600052602260045260246000fd5b634e487b7160e01b600052603260045260246000fd5b634e487b7160e01b600052601160045260246000fd5b60006001820161306057613060613038565b5060010190565b6020808252602d908201527f4552433732313a2063616c6c6572206973206e6f7420746f6b656e206f776e6560408201526c1c881bdc88185c1c1c9bdd9959609a1b606082015260800190565b600081546130c181612fee565b600182811680156130d957600181146130ee5761311d565b60ff198416875282151583028701945061311d565b8560005260208060002060005b858110156131145781548a8201529084019082016130fb565b50505082870194505b5050505092915050565b60f888901b6001600160f81b0319168152600061314760018301896130b4565b6001600160f01b031960f089811b8216835288901b16600282015261318161317b61317560048401896130b4565b876130b4565b856130b4565b9a9950505050505050505050565b600083516131a1818460208801612a4a565b8351908301906131b5818360208801612a4a565b01949350505050565b60ff60f81b8860f81b168152600087516131df816001850160208c01612a4a565b60f088811b6001600160f01b03199081166001938601938401529088901b1660038201528551613216816005840160208a01612a4a565b855191019061322c816005840160208901612a4a565b8451910190613242816005840160208801612a4a565b016005019998505050505050505050565b601f8211156109b357600081815260208120601f850160051c8101602086101561327a5750805b601f850160051c820191505b8181101561103457828155600101613286565b815167ffffffffffffffff8111156132b3576132b3612c79565b6132c7816132c18454612fee565b84613253565b602080601f8311600181146132fc57600084156132e45750858301515b600019600386901b1c1916600185901b178555611034565b600085815260208120601f198616915b8281101561332b5788860151825594840194600190910190840161330c565b50858210156133495787850151600019600388901b60f8161c191681555b5050505050600190811b01905550565b60208082526025908201527f4552433732313a207472616e736665722066726f6d20696e636f72726563742060408201526437bbb732b960d91b606082015260800190565b60208082526032908201527f4552433732313a207472616e7366657220746f206e6f6e20455243373231526560408201527131b2b4bb32b91034b6b83632b6b2b73a32b960711b606082015260800190565b60008060008060008060c0878903121561340957600080fd5b8651955060208701519450604087015161342281612b78565b606088015190945061343381612b78565b608088015190935061344481612d7a565b60a088015190925061345581612d7a565b809150509295509295509295565b6000602080838503121561347657600080fd5b825167ffffffffffffffff81111561348d57600080fd5b8301601f8101851361349e57600080fd5b80516134ac612d2d82612cc0565b81815260059190911b820183019083810190878311156134cb57600080fd5b928401925b82841015612d6f5783516134e381612b78565b825292840192908401906134d0565b60006020828403121561350457600080fd5b5051919050565b6001600160a01b038581168252841660208201526040810183905260806060820181905260009061353e90830184612a6e565b9695505050505050565b60006020828403121561355a57600080fd5b8151611102816129fe565b818103818111156104d3576104d3613038565b808201808211156104d3576104d3613038565b634e487b7160e01b600052603160045260246000fdfe68747470733a2f2f626c6f636b6573746174652e616c65786f6368732e64652f6170692f6d657461646174612f6173736574732fa264697066735822122090d8aa04d3158fc14a87479b70faddb9056ca192369eb0f9ef18aad3546259ac64736f6c63430008120033",
  "linkReferences": {},
  "deployedLinkReferences": {}
}