{
  "_format": "hh-sol-artifact-1",
  "contractName": "BlockEstateAssets",
  "sourceName": "contracts/BlockEstate/BlockEstateAssets.sol",
  "abi": [
    {
      "inputs": [],
      "stateMutability": "nonpayable",
      "type": "constructor"
    },
    {
      "anonymous": false,
      "inputs": [
        {
          "indexed": true,
          "internalType": "address",
          "name": "owner",
          "type": "address"
        },
        {
          "indexed": true,
          "internalType": "address",
          "name": "approved",
          "type": "address"
        },
        {
          "indexed": true,
          "internalType": "uint256",
          "name": "tokenId",
          "type": "uint256"
        }
      ],
      "name": "Approval",
      "type": "event"
    },
    {
      "anonymous": false,
      "inputs": [
        {
          "indexed": true,
          "internalType": "address",
          "name": "owner",
          "type": "address"
        },
        {
          "indexed": true,
          "internalType": "address",
          "name": "operator",
          "type": "address"
        },
        {
          "indexed": false,
          "internalType": "bool",
          "name": "approved",
          "type": "bool"
        }
      ],
      "name": "ApprovalForAll",
      "type": "event"
    },
    {
      "anonymous": false,
      "inputs": [
        {
          "indexed": false,
          "internalType": "uint256",
          "name": "tokenId",
          "type": "uint256"
        }
      ],
      "name": "AssetCreated",
      "type": "event"
    },
    {
      "anonymous": false,
      "inputs": [
        {
          "indexed": false,
          "internalType": "uint256",
          "name": "tokenId",
          "type": "uint256"
        }
      ],
      "name": "AssetDeleted",
      "type": "event"
    },
    {
      "anonymous": false,
      "inputs": [
        {
          "indexed": false,
          "internalType": "address",
          "name": "old",
          "type": "address"
        },
        {
          "indexed": false,
          "internalType": "address",
          "name": "updated",
          "type": "address"
        }
      ],
      "name": "BlockEstateMarketAddressUpdated",
      "type": "event"
    },
    {
      "anonymous": false,
      "inputs": [
        {
          "indexed": false,
          "internalType": "address",
          "name": "old",
          "type": "address"
        },
        {
          "indexed": false,
          "internalType": "address",
          "name": "updated",
          "type": "address"
        }
      ],
      "name": "BlockEstateSharesAddressUpdated",
      "type": "event"
    },
    {
      "anonymous": false,
      "inputs": [
        {
          "indexed": true,
          "internalType": "address",
          "name": "previousOwner",
          "type": "address"
        },
        {
          "indexed": true,
          "internalType": "address",
          "name": "newOwner",
          "type": "address"
        }
      ],
      "name": "OwnershipTransferred",
      "type": "event"
    },
    {
      "anonymous": false,
      "inputs": [
        {
          "indexed": false,
          "internalType": "address",
          "name": "account",
          "type": "address"
        }
      ],
      "name": "Paused",
      "type": "event"
    },
    {
      "anonymous": false,
      "inputs": [
        {
          "indexed": true,
          "internalType": "address",
          "name": "from",
          "type": "address"
        },
        {
          "indexed": true,
          "internalType": "address",
          "name": "to",
          "type": "address"
        },
        {
          "indexed": true,
          "internalType": "uint256",
          "name": "tokenId",
          "type": "uint256"
        }
      ],
      "name": "Transfer",
      "type": "event"
    },
    {
      "anonymous": false,
      "inputs": [
        {
          "indexed": false,
          "internalType": "address",
          "name": "account",
          "type": "address"
        }
      ],
      "name": "Unpaused",
      "type": "event"
    },
    {
      "inputs": [
        {
          "internalType": "address",
          "name": "to",
          "type": "address"
        },
        {
          "internalType": "uint256",
          "name": "tokenId",
          "type": "uint256"
        }
      ],
      "name": "approve",
      "outputs": [],
      "stateMutability": "nonpayable",
      "type": "function"
    },
    {
      "inputs": [
        {
          "internalType": "address",
          "name": "owner",
          "type": "address"
        }
      ],
      "name": "balanceOf",
      "outputs": [
        {
          "internalType": "uint256",
          "name": "",
          "type": "uint256"
        }
      ],
      "stateMutability": "view",
      "type": "function"
    },
    {
      "inputs": [],
      "name": "blockEstateMarketAddress",
      "outputs": [
        {
          "internalType": "address",
          "name": "",
          "type": "address"
        }
      ],
      "stateMutability": "view",
      "type": "function"
    },
    {
      "inputs": [],
      "name": "blockEstateSharesAddress",
      "outputs": [
        {
          "internalType": "address",
          "name": "",
          "type": "address"
        }
      ],
      "stateMutability": "view",
      "type": "function"
    },
    {
      "inputs": [
        {
          "internalType": "uint256",
          "name": "tokenId",
          "type": "uint256"
        }
      ],
      "name": "burn",
      "outputs": [],
      "stateMutability": "nonpayable",
      "type": "function"
    },
    {
      "inputs": [
        {
          "internalType": "uint8",
          "name": "category",
          "type": "uint8"
        },
        {
          "internalType": "string",
          "name": "street",
          "type": "string"
        },
        {
          "internalType": "uint16",
          "name": "number",
          "type": "uint16"
        },
        {
          "internalType": "uint16",
          "name": "apNumber",
          "type": "uint16"
        },
        {
          "internalType": "string",
          "name": "city",
          "type": "string"
        },
        {
          "internalType": "string",
          "name": "zip",
          "type": "string"
        },
        {
          "internalType": "string",
          "name": "country",
          "type": "string"
        },
        {
          "internalType": "uint8",
          "name": "sharesOption",
          "type": "uint8"
        }
      ],
      "name": "createAsset",
      "outputs": [
        {
          "internalType": "uint256",
          "name": "",
          "type": "uint256"
        }
      ],
      "stateMutability": "nonpayable",
      "type": "function"
    },
    {
      "inputs": [
        {
          "internalType": "uint256",
          "name": "tokenId",
          "type": "uint256"
        }
      ],
      "name": "createDeletionProposal",
      "outputs": [],
      "stateMutability": "nonpayable",
      "type": "function"
    },
    {
      "inputs": [
        {
          "internalType": "uint256",
          "name": "tokenId",
          "type": "uint256"
        }
      ],
      "name": "deleteAsset",
      "outputs": [],
      "stateMutability": "nonpayable",
      "type": "function"
    },
    {
      "inputs": [
        {
          "internalType": "uint256",
          "name": "tokenId",
          "type": "uint256"
        }
      ],
      "name": "exists",
      "outputs": [
        {
          "internalType": "bool",
          "name": "",
          "type": "bool"
        }
      ],
      "stateMutability": "view",
      "type": "function"
    },
    {
      "inputs": [
        {
          "internalType": "uint256",
          "name": "tokenId",
          "type": "uint256"
        }
      ],
      "name": "getApproved",
      "outputs": [
        {
          "internalType": "address",
          "name": "",
          "type": "address"
        }
      ],
      "stateMutability": "view",
      "type": "function"
    },
    {
      "inputs": [
        {
          "internalType": "address",
          "name": "owner",
          "type": "address"
        },
        {
          "internalType": "address",
          "name": "operator",
          "type": "address"
        }
      ],
      "name": "isApprovedForAll",
      "outputs": [
        {
          "internalType": "bool",
          "name": "",
          "type": "bool"
        }
      ],
      "stateMutability": "view",
      "type": "function"
    },
    {
      "inputs": [],
      "name": "name",
      "outputs": [
        {
          "internalType": "string",
          "name": "",
          "type": "string"
        }
      ],
      "stateMutability": "view",
      "type": "function"
    },
    {
      "inputs": [
        {
          "internalType": "address",
          "name": "",
          "type": "address"
        },
        {
          "internalType": "address",
          "name": "",
          "type": "address"
        },
        {
          "internalType": "uint256",
          "name": "",
          "type": "uint256"
        },
        {
          "internalType": "bytes",
          "name": "",
          "type": "bytes"
        }
      ],
      "name": "onERC721Received",
      "outputs": [
        {
          "internalType": "bytes4",
          "name": "",
          "type": "bytes4"
        }
      ],
      "stateMutability": "nonpayable",
      "type": "function"
    },
    {
      "inputs": [],
      "name": "owner",
      "outputs": [
        {
          "internalType": "address",
          "name": "",
          "type": "address"
        }
      ],
      "stateMutability": "view",
      "type": "function"
    },
    {
      "inputs": [
        {
          "internalType": "uint256",
          "name": "tokenId",
          "type": "uint256"
        }
      ],
      "name": "ownerOf",
      "outputs": [
        {
          "internalType": "address",
          "name": "",
          "type": "address"
        }
      ],
      "stateMutability": "view",
      "type": "function"
    },
    {
      "inputs": [],
      "name": "pause",
      "outputs": [],
      "stateMutability": "nonpayable",
      "type": "function"
    },
    {
      "inputs": [],
      "name": "paused",
      "outputs": [
        {
          "internalType": "bool",
          "name": "",
          "type": "bool"
        }
      ],
      "stateMutability": "view",
      "type": "function"
    },
    {
      "inputs": [],
      "name": "readAllAssets",
      "outputs": [
        {
          "components": [
            {
              "internalType": "uint256",
              "name": "tokenId",
              "type": "uint256"
            },
            {
              "internalType": "uint8",
              "name": "category",
              "type": "uint8"
            },
            {
              "components": [
                {
                  "internalType": "string",
                  "name": "street",
                  "type": "string"
                },
                {
                  "internalType": "uint16",
                  "name": "number",
                  "type": "uint16"
                },
                {
                  "internalType": "uint16",
                  "name": "apNumber",
                  "type": "uint16"
                },
                {
                  "internalType": "string",
                  "name": "city",
                  "type": "string"
                },
                {
                  "internalType": "string",
                  "name": "zip",
                  "type": "string"
                },
                {
                  "internalType": "string",
                  "name": "country",
                  "type": "string"
                }
              ],
              "internalType": "struct BlockEstateAssets.AssetLocation",
              "name": "location",
              "type": "tuple"
            }
          ],
          "internalType": "struct BlockEstateAssets.Asset[]",
          "name": "",
          "type": "tuple[]"
        }
      ],
      "stateMutability": "view",
      "type": "function"
    },
    {
      "inputs": [],
      "name": "readAllDeletionProposals",
      "outputs": [
        {
          "components": [
            {
              "internalType": "uint256",
              "name": "deletionProposalId",
              "type": "uint256"
            },
            {
              "internalType": "uint256",
              "name": "tokenId",
              "type": "uint256"
            },
            {
              "internalType": "uint256",
              "name": "positiveVotes",
              "type": "uint256"
            },
            {
              "internalType": "uint256",
              "name": "negativeVotes",
              "type": "uint256"
            },
            {
              "internalType": "address[]",
              "name": "allowed",
              "type": "address[]"
            },
            {
              "internalType": "address[]",
              "name": "voted",
              "type": "address[]"
            },
            {
              "internalType": "uint256",
              "name": "startDate",
              "type": "uint256"
            },
            {
              "internalType": "uint256",
              "name": "endDate",
              "type": "uint256"
            }
          ],
          "internalType": "struct BlockEstateAssets.DeletionProposal[]",
          "name": "",
          "type": "tuple[]"
        }
      ],
      "stateMutability": "view",
      "type": "function"
    },
    {
      "inputs": [
        {
          "internalType": "uint256",
          "name": "tokenId",
          "type": "uint256"
        }
      ],
      "name": "readAsset",
      "outputs": [
        {
          "components": [
            {
              "internalType": "uint256",
              "name": "tokenId",
              "type": "uint256"
            },
            {
              "internalType": "uint8",
              "name": "category",
              "type": "uint8"
            },
            {
              "components": [
                {
                  "internalType": "string",
                  "name": "street",
                  "type": "string"
                },
                {
                  "internalType": "uint16",
                  "name": "number",
                  "type": "uint16"
                },
                {
                  "internalType": "uint16",
                  "name": "apNumber",
                  "type": "uint16"
                },
                {
                  "internalType": "string",
                  "name": "city",
                  "type": "string"
                },
                {
                  "internalType": "string",
                  "name": "zip",
                  "type": "string"
                },
                {
                  "internalType": "string",
                  "name": "country",
                  "type": "string"
                }
              ],
              "internalType": "struct BlockEstateAssets.AssetLocation",
              "name": "location",
              "type": "tuple"
            }
          ],
          "internalType": "struct BlockEstateAssets.Asset",
          "name": "",
          "type": "tuple"
        }
      ],
      "stateMutability": "view",
      "type": "function"
    },
    {
      "inputs": [
        {
          "internalType": "uint256[]",
          "name": "tokenIds",
          "type": "uint256[]"
        }
      ],
      "name": "readAssetBatch",
      "outputs": [
        {
          "components": [
            {
              "internalType": "uint256",
              "name": "tokenId",
              "type": "uint256"
            },
            {
              "internalType": "uint8",
              "name": "category",
              "type": "uint8"
            },
            {
              "components": [
                {
                  "internalType": "string",
                  "name": "street",
                  "type": "string"
                },
                {
                  "internalType": "uint16",
                  "name": "number",
                  "type": "uint16"
                },
                {
                  "internalType": "uint16",
                  "name": "apNumber",
                  "type": "uint16"
                },
                {
                  "internalType": "string",
                  "name": "city",
                  "type": "string"
                },
                {
                  "internalType": "string",
                  "name": "zip",
                  "type": "string"
                },
                {
                  "internalType": "string",
                  "name": "country",
                  "type": "string"
                }
              ],
              "internalType": "struct BlockEstateAssets.AssetLocation",
              "name": "location",
              "type": "tuple"
            }
          ],
          "internalType": "struct BlockEstateAssets.Asset[]",
          "name": "",
          "type": "tuple[]"
        }
      ],
      "stateMutability": "view",
      "type": "function"
    },
    {
      "inputs": [
        {
          "internalType": "address",
          "name": "_address",
          "type": "address"
        }
      ],
      "name": "readAssetsByHolder",
      "outputs": [
        {
          "components": [
            {
              "internalType": "uint256",
              "name": "tokenId",
              "type": "uint256"
            },
            {
              "internalType": "uint8",
              "name": "category",
              "type": "uint8"
            },
            {
              "components": [
                {
                  "internalType": "string",
                  "name": "street",
                  "type": "string"
                },
                {
                  "internalType": "uint16",
                  "name": "number",
                  "type": "uint16"
                },
                {
                  "internalType": "uint16",
                  "name": "apNumber",
                  "type": "uint16"
                },
                {
                  "internalType": "string",
                  "name": "city",
                  "type": "string"
                },
                {
                  "internalType": "string",
                  "name": "zip",
                  "type": "string"
                },
                {
                  "internalType": "string",
                  "name": "country",
                  "type": "string"
                }
              ],
              "internalType": "struct BlockEstateAssets.AssetLocation",
              "name": "location",
              "type": "tuple"
            }
          ],
          "internalType": "struct BlockEstateAssets.Asset[]",
          "name": "",
          "type": "tuple[]"
        }
      ],
      "stateMutability": "view",
      "type": "function"
    },
    {
      "inputs": [
        {
          "internalType": "uint256",
          "name": "deletionProposalId",
          "type": "uint256"
        }
      ],
      "name": "readDeletionProposalById",
      "outputs": [
        {
          "components": [
            {
              "internalType": "uint256",
              "name": "deletionProposalId",
              "type": "uint256"
            },
            {
              "internalType": "uint256",
              "name": "tokenId",
              "type": "uint256"
            },
            {
              "internalType": "uint256",
              "name": "positiveVotes",
              "type": "uint256"
            },
            {
              "internalType": "uint256",
              "name": "negativeVotes",
              "type": "uint256"
            },
            {
              "internalType": "address[]",
              "name": "allowed",
              "type": "address[]"
            },
            {
              "internalType": "address[]",
              "name": "voted",
              "type": "address[]"
            },
            {
              "internalType": "uint256",
              "name": "startDate",
              "type": "uint256"
            },
            {
              "internalType": "uint256",
              "name": "endDate",
              "type": "uint256"
            }
          ],
          "internalType": "struct BlockEstateAssets.DeletionProposal",
          "name": "",
          "type": "tuple"
        }
      ],
      "stateMutability": "view",
      "type": "function"
    },
    {
      "inputs": [],
      "name": "readDeletionProposalsByAccount",
      "outputs": [
        {
          "components": [
            {
              "internalType": "uint256",
              "name": "deletionProposalId",
              "type": "uint256"
            },
            {
              "internalType": "uint256",
              "name": "tokenId",
              "type": "uint256"
            },
            {
              "internalType": "uint256",
              "name": "positiveVotes",
              "type": "uint256"
            },
            {
              "internalType": "uint256",
              "name": "negativeVotes",
              "type": "uint256"
            },
            {
              "internalType": "address[]",
              "name": "allowed",
              "type": "address[]"
            },
            {
              "internalType": "address[]",
              "name": "voted",
              "type": "address[]"
            },
            {
              "internalType": "uint256",
              "name": "startDate",
              "type": "uint256"
            },
            {
              "internalType": "uint256",
              "name": "endDate",
              "type": "uint256"
            }
          ],
          "internalType": "struct BlockEstateAssets.DeletionProposal[]",
          "name": "",
          "type": "tuple[]"
        }
      ],
      "stateMutability": "view",
      "type": "function"
    },
    {
      "inputs": [
        {
          "internalType": "uint256",
          "name": "tokenId",
          "type": "uint256"
        }
      ],
      "name": "readDeletionProposalsByAsset",
      "outputs": [
        {
          "components": [
            {
              "internalType": "uint256",
              "name": "deletionProposalId",
              "type": "uint256"
            },
            {
              "internalType": "uint256",
              "name": "tokenId",
              "type": "uint256"
            },
            {
              "internalType": "uint256",
              "name": "positiveVotes",
              "type": "uint256"
            },
            {
              "internalType": "uint256",
              "name": "negativeVotes",
              "type": "uint256"
            },
            {
              "internalType": "address[]",
              "name": "allowed",
              "type": "address[]"
            },
            {
              "internalType": "address[]",
              "name": "voted",
              "type": "address[]"
            },
            {
              "internalType": "uint256",
              "name": "startDate",
              "type": "uint256"
            },
            {
              "internalType": "uint256",
              "name": "endDate",
              "type": "uint256"
            }
          ],
          "internalType": "struct BlockEstateAssets.DeletionProposal[]",
          "name": "",
          "type": "tuple[]"
        }
      ],
      "stateMutability": "view",
      "type": "function"
    },
    {
      "inputs": [],
      "name": "renounceOwnership",
      "outputs": [],
      "stateMutability": "nonpayable",
      "type": "function"
    },
    {
      "inputs": [
        {
          "internalType": "uint256",
          "name": "_tokenId",
          "type": "uint256"
        },
        {
          "internalType": "uint256",
          "name": "_salePrice",
          "type": "uint256"
        }
      ],
      "name": "royaltyInfo",
      "outputs": [
        {
          "internalType": "address",
          "name": "",
          "type": "address"
        },
        {
          "internalType": "uint256",
          "name": "",
          "type": "uint256"
        }
      ],
      "stateMutability": "view",
      "type": "function"
    },
    {
      "inputs": [
        {
          "internalType": "address",
          "name": "from",
          "type": "address"
        },
        {
          "internalType": "address",
          "name": "to",
          "type": "address"
        },
        {
          "internalType": "uint256",
          "name": "tokenId",
          "type": "uint256"
        }
      ],
      "name": "safeTransferFrom",
      "outputs": [],
      "stateMutability": "nonpayable",
      "type": "function"
    },
    {
      "inputs": [
        {
          "internalType": "address",
          "name": "from",
          "type": "address"
        },
        {
          "internalType": "address",
          "name": "to",
          "type": "address"
        },
        {
          "internalType": "uint256",
          "name": "tokenId",
          "type": "uint256"
        },
        {
          "internalType": "bytes",
          "name": "data",
          "type": "bytes"
        }
      ],
      "name": "safeTransferFrom",
      "outputs": [],
      "stateMutability": "nonpayable",
      "type": "function"
    },
    {
      "inputs": [
        {
          "internalType": "address",
          "name": "operator",
          "type": "address"
        },
        {
          "internalType": "bool",
          "name": "approved",
          "type": "bool"
        }
      ],
      "name": "setApprovalForAll",
      "outputs": [],
      "stateMutability": "nonpayable",
      "type": "function"
    },
    {
      "inputs": [
        {
          "internalType": "address",
          "name": "_blockEstateMarketAddress",
          "type": "address"
        }
      ],
      "name": "setBlockEstateMarketAddress",
      "outputs": [],
      "stateMutability": "nonpayable",
      "type": "function"
    },
    {
      "inputs": [
        {
          "internalType": "address",
          "name": "_blockEstateSharesAddress",
          "type": "address"
        }
      ],
      "name": "setBlockEstateSharesAddress",
      "outputs": [],
      "stateMutability": "nonpayable",
      "type": "function"
    },
    {
      "inputs": [
        {
          "internalType": "bytes4",
          "name": "interfaceId",
          "type": "bytes4"
        }
      ],
      "name": "supportsInterface",
      "outputs": [
        {
          "internalType": "bool",
          "name": "",
          "type": "bool"
        }
      ],
      "stateMutability": "view",
      "type": "function"
    },
    {
      "inputs": [],
      "name": "symbol",
      "outputs": [
        {
          "internalType": "string",
          "name": "",
          "type": "string"
        }
      ],
      "stateMutability": "view",
      "type": "function"
    },
    {
      "inputs": [
        {
          "internalType": "uint256",
          "name": "index",
          "type": "uint256"
        }
      ],
      "name": "tokenByIndex",
      "outputs": [
        {
          "internalType": "uint256",
          "name": "",
          "type": "uint256"
        }
      ],
      "stateMutability": "view",
      "type": "function"
    },
    {
      "inputs": [
        {
          "internalType": "address",
          "name": "owner",
          "type": "address"
        },
        {
          "internalType": "uint256",
          "name": "index",
          "type": "uint256"
        }
      ],
      "name": "tokenOfOwnerByIndex",
      "outputs": [
        {
          "internalType": "uint256",
          "name": "",
          "type": "uint256"
        }
      ],
      "stateMutability": "view",
      "type": "function"
    },
    {
      "inputs": [
        {
          "internalType": "uint256",
          "name": "tokenId",
          "type": "uint256"
        }
      ],
      "name": "tokenURI",
      "outputs": [
        {
          "internalType": "string",
          "name": "",
          "type": "string"
        }
      ],
      "stateMutability": "view",
      "type": "function"
    },
    {
      "inputs": [],
      "name": "totalSupply",
      "outputs": [
        {
          "internalType": "uint256",
          "name": "",
          "type": "uint256"
        }
      ],
      "stateMutability": "view",
      "type": "function"
    },
    {
      "inputs": [
        {
          "internalType": "address",
          "name": "from",
          "type": "address"
        },
        {
          "internalType": "address",
          "name": "to",
          "type": "address"
        },
        {
          "internalType": "uint256",
          "name": "tokenId",
          "type": "uint256"
        }
      ],
      "name": "transferFrom",
      "outputs": [],
      "stateMutability": "nonpayable",
      "type": "function"
    },
    {
      "inputs": [
        {
          "internalType": "address",
          "name": "newOwner",
          "type": "address"
        }
      ],
      "name": "transferOwnership",
      "outputs": [],
      "stateMutability": "nonpayable",
      "type": "function"
    },
    {
      "inputs": [],
      "name": "unpause",
      "outputs": [],
      "stateMutability": "nonpayable",
      "type": "function"
    },
    {
      "inputs": [
        {
          "internalType": "uint256",
          "name": "deletionProposalId",
          "type": "uint256"
        },
        {
          "internalType": "bool",
          "name": "positive",
          "type": "bool"
        }
      ],
      "name": "voteDeletionProposal",
      "outputs": [],
      "stateMutability": "nonpayable",
      "type": "function"
    }
  ],
  "bytecode": "0x60806040523480156200001157600080fd5b5060405180604001604052806012815260200171426c6f636b4573746174652041737365747360701b8152506040518060400160405280600681526020016510915054d4d560d21b81525081600090816200006d9190620002eb565b5060016200007c8282620002eb565b5050600a805460ff19169055506200009433620000de565b6001600b81905550620000b3600e6200013860201b620029ac1760201c565b620000d8620000cf600a5461010090046001600160a01b031690565b61271062000141565b620003b7565b600a80546001600160a01b03838116610100818102610100600160a81b031985161790945560405193909204169182907f8be0079c531659141344cd1fd0a4f28419497f9722a3daafe3b4186f6b6457e090600090a35050565b80546001019055565b6127106001600160601b0382161115620001b55760405162461bcd60e51b815260206004820152602a60248201527f455243323938313a20726f79616c7479206665652077696c6c206578636565646044820152692073616c65507269636560b01b60648201526084015b60405180910390fd5b6001600160a01b0382166200020d5760405162461bcd60e51b815260206004820152601960248201527f455243323938313a20696e76616c6964207265636569766572000000000000006044820152606401620001ac565b604080518082019091526001600160a01b039092168083526001600160601b039091166020909201829052600160a01b90910217600c55565b634e487b7160e01b600052604160045260246000fd5b600181811c908216806200027157607f821691505b6020821081036200029257634e487b7160e01b600052602260045260246000fd5b50919050565b601f821115620002e657600081815260208120601f850160051c81016020861015620002c15750805b601f850160051c820191505b81811015620002e257828155600101620002cd565b5050505b505050565b81516001600160401b0381111562000307576200030762000246565b6200031f816200031884546200025c565b8462000298565b602080601f8311600181146200035757600084156200033e5750858301515b600019600386901b1c1916600185901b178555620002e2565b600085815260208120601f198616915b82811015620003885788860151825594840194600190910190840162000367565b5085821015620003a75787850151600019600388901b60f8161c191681555b5050505050600190811b01905550565b61475c80620003c76000396000f3fe608060405234801561001057600080fd5b506004361061025e5760003560e01c80634f558e79116101465780638da5cb5b116100c3578063c36becd211610087578063c36becd21461055b578063c87b56dd14610563578063e1260a1914610576578063e15547cb14610589578063e985e9c5146105a9578063f2fde38b146105e557600080fd5b80638da5cb5b1461050457806395d89b411461051a5780639f653c5114610522578063a22cb46514610535578063b88d4fde1461054857600080fd5b806370a082311161010a57806370a08231146104bb578063715018a6146104ce5780637eb79b53146104d65780638456cb59146104e95780638947473f146104f157600080fd5b80634f558e79146104645780634f6ccce7146104775780635131e4e71461048a5780635c975abb1461049d5780636352211e146104a857600080fd5b80632a55205a116101df5780633f4ba83a116101a35780633f4ba83a146103fd57806342842e0e1461040557806342966c68146104185780634353d1b91461042b578063445229341461043e5780634cfe601a1461045157600080fd5b80632a55205a146103885780632d192e6f146103ba5780632ee5ba2c146103cd5780632f745c59146103d557806330187787146103e857600080fd5b8063095ea7b311610226578063095ea7b31461030c578063150b7a021461032157806318160ddd1461034d578063223baab41461035557806323b872dd1461037557600080fd5b806301ffc9a7146102635780630488a3b91461028b57806306fdde03146102ab578063070643cf146102c0578063081812fc146102e1575b600080fd5b610276610271366004613a1b565b6105f8565b60405190151581526020015b60405180910390f35b61029e610299366004613a38565b610609565b6040516102829190613b59565b6102b361091a565b6040516102829190613b6c565b6102d36102ce366004613c64565b6109ac565b604051908152602001610282565b6102f46102ef366004613a38565b611005565b6040516001600160a01b039091168152602001610282565b61031f61031a366004613d68565b61102c565b005b61033461032f366004613d94565b611141565b6040516001600160e01b03199091168152602001610282565b6008546102d3565b610368610363366004613e13565b611152565b6040516102829190613e30565b61031f610383366004613e92565b611209565b61039b610396366004613ed3565b61123b565b604080516001600160a01b039093168352602083019190915201610282565b6103686103c8366004613f18565b6112e7565b61036861139e565b6102d36103e3366004613d68565b611447565b6103f06114dd565b604051610282919061406a565b61031f611737565b61031f610413366004613e92565b611749565b61031f610426366004613a38565b611764565b61031f6104393660046140cf565b611795565b6103f061044c366004613a38565b611c06565b61031f61045f366004613e13565b611dcf565b610276610472366004613a38565b611e8c565b6102d3610485366004613a38565b611e97565b61031f610498366004613e13565b611f2a565b600a5460ff16610276565b6102f46104b6366004613a38565b611fe7565b6102d36104c9366004613e13565b612047565b61031f6120cd565b61031f6104e4366004613a38565b6120df565b61031f61238f565b6011546102f4906001600160a01b031681565b600a5461010090046001600160a01b03166102f4565b6102b361239f565b6010546102f4906001600160a01b031681565b61031f6105433660046140fb565b6123ae565b61031f610556366004613d94565b6123bd565b6103f06123ef565b6102b3610571366004613a38565b61259f565b61031f610584366004613a38565b612606565b61059c610597366004613a38565b612814565b6040516102829190614127565b6102766105b736600461413a565b6001600160a01b03918216600090815260056020908152604080832093909416825291909152205460ff1690565b61031f6105f3366004613e13565b612936565b6000610603826129b5565b92915050565b6106116138aa565b8161061b816129da565b6106645760405162461bcd60e51b8152602060048201526015602482015274546f6b656e20646f6573206e6f742065786973742160581b60448201526064015b60405180910390fd5b600083815260126020908152604091829020825160608101845281548152600182015460ff1692810192909252825160c0810184526002820180549394929392850192829082906106b490614173565b80601f01602080910402602001604051908101604052809291908181526020018280546106e090614173565b801561072d5780601f106107025761010080835404028352916020019161072d565b820191906000526020600020905b81548152906001019060200180831161071057829003601f168201915b5050509183525050600182015461ffff80821660208401526201000090910416604082015260028201805460609092019161076790614173565b80601f016020809104026020016040519081016040528092919081815260200182805461079390614173565b80156107e05780601f106107b5576101008083540402835291602001916107e0565b820191906000526020600020905b8154815290600101906020018083116107c357829003601f168201915b505050505081526020016003820180546107f990614173565b80601f016020809104026020016040519081016040528092919081815260200182805461082590614173565b80156108725780601f1061084757610100808354040283529160200191610872565b820191906000526020600020905b81548152906001019060200180831161085557829003601f168201915b5050505050815260200160048201805461088b90614173565b80601f01602080910402602001604051908101604052809291908181526020018280546108b790614173565b80156109045780601f106108d957610100808354040283529160200191610904565b820191906000526020600020905b8154815290600101906020018083116108e757829003601f168201915b5050505050815250508152505091505b50919050565b60606000805461092990614173565b80601f016020809104026020016040519081016040528092919081815260200182805461095590614173565b80156109a25780601f10610977576101008083540402835291602001916109a2565b820191906000526020600020905b81548152906001019060200180831161098557829003601f168201915b5050505050905090565b60006109b66129f7565b600160ff8a161115610a0a5760405162461bcd60e51b815260206004820152601760248201527f496e76616c69642061737365742063617465676f727921000000000000000000604482015260640161065b565b6002885111610a755760405162461bcd60e51b815260206004820152603160248201527f537472656574206e616d652073686f756c64206265206174206c6561737420336044820152702063686172616374657273206c6f6e672160781b606482015260840161065b565b60008761ffff1611610ad55760405162461bcd60e51b815260206004820152602360248201527f537472656574206e756d6265722073686f756c64206265206174206c6561737460448201526220312160e81b606482015260840161065b565b8860ff16600003610b435760008661ffff1611610b435760405162461bcd60e51b815260206004820152602660248201527f41706172746d656e74206e756d6265722073686f756c64206265206174206c6560448201526561737420312160d01b606482015260840161065b565b6000855111610bab5760405162461bcd60e51b815260206004820152602e60248201527f43697479206e616d652073686f756c64206265206174206c656173742031206360448201526d6861726163746572206c6f6e672160901b606482015260840161065b565b6000845111610c0d5760405162461bcd60e51b815260206004820152602860248201527f5a697020636f64652073686f756c64206265206174206c65617374206f66206c604482015267656e67746820312160c01b606482015260840161065b565b6003835111610c795760405162461bcd60e51b815260206004820152603260248201527f436f756e747279206e616d652073686f756c64206265206174206c6561737420604482015271342063686172616374657273206c6f6e672160701b606482015260840161065b565b60058260ff161115610cc65760405162461bcd60e51b8152602060048201526016602482015275496e76616c696420736861726573206f7074696f6e2160501b604482015260640161065b565b60006040518060c001604052808a81526020018961ffff1681526020018861ffff168152602001878152602001868152602001858152509050601360008b836000015184602001518560400151866060015187608001518860a00151604051602001610d3897969594939291906141a7565b60408051601f198184030181529181528151602092830120835290820192909252016000205460ff1615610dbf5760405162461bcd60e51b815260206004820152602860248201527f417373657420776974682074686973206c6f636174696f6e20616c7265616479604482015267206578697374732160c01b606482015260840161065b565b610dd130610dcc600e5490565b612a50565b6040518060600160405280610de5600e5490565b815260ff8c16602082015260400182905260126000610e03600e5490565b81526020808201929092526040908101600020835181559183015160018301805460ff191660ff909216919091179055820151805160028301908190610e49908261428a565b506020820151600182018054604085015161ffff908116620100000263ffffffff1990921693169290921791909117905560608201516002820190610e8e908261428a565b5060808201516003820190610ea3908261428a565b5060a08201516004820190610eb8908261428a565b5050509050506001601360008c846000015185602001518660400151876060015188608001518960a00151604051602001610ef997969594939291906141a7565b60408051808303601f19018152918152815160209283012083529082019290925201600020805460ff1916911515919091179055600e547fe9667cd49094a292b02a1d8555f54c265b42912082c2f32b2050393b06d835989060405190815260200160405180910390a16000610f6e600e5490565b9050610f7e600e80546001019055565b601054604051631c13c9f560e21b81523360048201526024810183905260ff861660448201526001600160a01b039091169063704f27d490606401600060405180830381600087803b158015610fd357600080fd5b505af1158015610fe7573d6000803e3d6000fd5b5092945050505050610ff96001600b55565b98975050505050505050565b600061101082612a6a565b506000908152600460205260409020546001600160a01b031690565b600061103782611fe7565b9050806001600160a01b0316836001600160a01b0316036110a45760405162461bcd60e51b815260206004820152602160248201527f4552433732313a20617070726f76616c20746f2063757272656e74206f776e656044820152603960f91b606482015260840161065b565b336001600160a01b03821614806110c057506110c081336105b7565b6111325760405162461bcd60e51b815260206004820152603d60248201527f4552433732313a20617070726f76652063616c6c6572206973206e6f7420746f60448201527f6b656e206f776e6572206f7220617070726f76656420666f7220616c6c000000606482015260840161065b565b61113c8383612aba565b505050565b630a85bd0160e11b5b949350505050565b6060600061115f83612047565b6001600160401b0381111561117657611176613b95565b6040519080825280602002602001820160405280156111af57816020015b61119c6138aa565b8152602001906001900390816111945790505b50905060005b6111be84612047565b811015611202576111d26102998583611447565b8282815181106111e4576111e4614349565b602002602001018190525080806111fa90614375565b9150506111b5565b5092915050565b611214335b82612b28565b6112305760405162461bcd60e51b815260040161065b9061438e565b61113c838383612ba6565b6000828152600d602090815260408083208151808301909252546001600160a01b038116808352600160a01b9091046001600160601b03169282019290925282916112b0575060408051808201909152600c546001600160a01b0381168252600160a01b90046001600160601b031660208201525b6020810151600090612710906112cf906001600160601b0316876143db565b6112d991906143f2565b915196919550909350505050565b6060600082516001600160401b0381111561130457611304613b95565b60405190808252806020026020018201604052801561133d57816020015b61132a6138aa565b8152602001906001900390816113225790505b50905060005b83518110156112025761136e84828151811061136157611361614349565b6020026020010151610609565b82828151811061138057611380614349565b6020026020010181905250808061139690614375565b915050611343565b606060006113ab60085490565b6001600160401b038111156113c2576113c2613b95565b6040519080825280602002602001820160405280156113fb57816020015b6113e86138aa565b8152602001906001900390816113e05790505b50905060005b6008548110156109145761141761029982611e97565b82828151811061142957611429614349565b6020026020010181905250808061143f90614375565b915050611401565b600061145283612047565b82106114b45760405162461bcd60e51b815260206004820152602b60248201527f455243373231456e756d657261626c653a206f776e657220696e646578206f7560448201526a74206f6620626f756e647360a81b606482015260840161065b565b506001600160a01b03919091166000908152600660209081526040808320938352929052205490565b606060006114ea600f5490565b6001600160401b0381111561150157611501613b95565b60405190808252806020026020018201604052801561153a57816020015b61152761390c565b81526020019060019003908161151f5790505b50905060005b600f54811015610914576010546000906001600160a01b031662fdd58e3360148461156a600f5490565b8152602001908152602001600020600101546040518363ffffffff1660e01b81526004016115ad9291906001600160a01b03929092168252602082015260400190565b602060405180830381865afa1580156115ca573d6000803e3d6000fd5b505050506040513d601f19601f820116820180604052508101906115ee9190614414565b1115611725576000818152601460209081526040918290208251610100810184528154815260018201548184015260028201548185015260038201546060820152600482018054855181860281018601909652808652919492936080860193929083018282801561168857602002820191906000526020600020905b81546001600160a01b0316815260019091019060200180831161166a575b50505050508152602001600582018054806020026020016040519081016040528092919081815260200182805480156116ea57602002820191906000526020600020905b81546001600160a01b031681526001909101906020018083116116cc575b505050505081526020016006820154815260200160078201548152505082828151811061171957611719614349565b60200260200101819052505b8061172f81614375565b915050611540565b61173f612d17565b611747612d77565b565b61113c838383604051806020016040528060008152506123bd565b61176d3361120e565b6117895760405162461bcd60e51b815260040161065b9061438e565b61179281612dc9565b50565b6010546000906001600160a01b031662fdd58e336014846117b5600f5490565b8152602001908152602001600020600101546040518363ffffffff1660e01b81526004016117f89291906001600160a01b03929092168252602082015260400190565b602060405180830381865afa158015611815573d6000803e3d6000fd5b505050506040513d601f19601f820116820180604052508101906118399190614414565b116118785760405162461bcd60e51b815260206004820152600f60248201526e2737ba1039b430b932b437b63232b960891b604482015260640161065b565b60008281526014602052604090206007015442106118cb5760405162461bcd60e51b815260206004820152601060248201526f141c9bdc1bdcd85b08195e1c1a5c995960821b604482015260640161065b565b6000828152601460205260409020600601544210156119235760405162461bcd60e51b8152602060048201526014602482015273141c9bdc1bdcd85b081b9bdd081cdd185c9d195960621b604482015260640161065b565b60005b6000838152601460205260409020600501548110156119c957600083815260146020526040902060050180543391908390811061196557611965614349565b6000918252602090912001546001600160a01b0316036119b75760405162461bcd60e51b815260206004820152600d60248201526c105b1c9958591e481d9bdd1959609a1b604482015260640161065b565b806119c181614375565b915050611926565b506000805b600084815260146020526040902060040154811015611a3e576000848152601460205260409020600401805433919083908110611a0d57611a0d614349565b6000918252602090912001546001600160a01b031603611a2c57600191505b80611a3681614375565b9150506119ce565b5080611a825760405162461bcd60e51b81526020600482015260136024820152724e6f7420616c6c6f77656420746f20766f746560681b604482015260640161065b565b6010546000906001600160a01b031662fdd58e33601484611aa2600f5490565b8152602001908152602001600020600101546040518363ffffffff1660e01b8152600401611ae59291906001600160a01b03929092168252602082015260400190565b602060405180830381865afa158015611b02573d6000803e3d6000fd5b505050506040513d601f19601f82011682018060405250810190611b269190614414565b90508215611b5a5760008481526014602052604081206002018054839290611b4f90849061442d565b90915550611b819050565b60008481526014602052604081206003018054839290611b7b90849061442d565b90915550505b6000848152601460209081526040822060058101805460018101825581855292842090920180546001600160a01b03191633179055918690525460049091015403611c0057600084815260146020526040902060038101546002909101541115611c0057600084815260146020526040902060010154611c00906120df565b50505050565b60606000611c13600f5490565b6001600160401b03811115611c2a57611c2a613b95565b604051908082528060200260200182016040528015611c6357816020015b611c5061390c565b815260200190600190039081611c485790505b50905060005b600f5481101561120257600081815260146020526040902060010154849003611dbd5760008181526014602090815260409182902082516101008101845281548152600182015481840152600282015481850152600382015460608201526004820180548551818602810186019096528086529194929360808601939290830182828015611d2057602002820191906000526020600020905b81546001600160a01b03168152600190910190602001808311611d02575b5050505050815260200160058201805480602002602001604051908101604052809291908181526020018280548015611d8257602002820191906000526020600020905b81546001600160a01b03168152600190910190602001808311611d64575b5050505050815260200160068201548152602001600782015481525050828281518110611db157611db1614349565b60200260200101819052505b80611dc781614375565b915050611c69565b611dd7612d17565b6001600160a01b038116611e1c5760405162461bcd60e51b815260206004820152600c60248201526b7a65726f206164647265737360a01b604482015260640161065b565b601154604080516001600160a01b03928316815291831660208301527f5d9e527e2ab85eed8c12dbfdfa49903b509f3b367dec19463530d787dcfd2854910160405180910390a1601180546001600160a01b0319166001600160a01b0383169081179091556117929060016123ae565b6000610603826129da565b6000611ea260085490565b8210611f055760405162461bcd60e51b815260206004820152602c60248201527f455243373231456e756d657261626c653a20676c6f62616c20696e646578206f60448201526b7574206f6620626f756e647360a01b606482015260840161065b565b60088281548110611f1857611f18614349565b90600052602060002001549050919050565b611f32612d17565b6001600160a01b038116611f775760405162461bcd60e51b815260206004820152600c60248201526b7a65726f206164647265737360a01b604482015260640161065b565b601054604080516001600160a01b03928316815291831660208301527f1a41fb6f752ad018610bf79716ec70546bbda4a0235520e04158d3c4f3486230910160405180910390a1601080546001600160a01b0319166001600160a01b0383169081179091556117929060016123ae565b6000818152600260205260408120546001600160a01b0316806106035760405162461bcd60e51b8152602060048201526018602482015277115490cdcc8c4e881a5b9d985b1a59081d1bdad95b88125160421b604482015260640161065b565b60006001600160a01b0382166120b15760405162461bcd60e51b815260206004820152602960248201527f4552433732313a2061646472657373207a65726f206973206e6f7420612076616044820152683634b21037bbb732b960b91b606482015260840161065b565b506001600160a01b031660009081526003602052604090205490565b6120d5612d17565b6117476000612e6c565b806120e9816129da565b61212d5760405162461bcd60e51b8152602060048201526015602482015274546f6b656e20646f6573206e6f742065786973742160581b604482015260640161065b565b60105460405163bd85b03960e01b8152600481018490526001600160a01b039091169063bd85b03990602401602060405180830381865afa158015612176573d6000803e3d6000fd5b505050506040513d601f19601f8201168201806040525081019061219a9190614414565b601054604051627eeac760e11b8152336004820152602481018590526001600160a01b039091169062fdd58e90604401602060405180830381865afa1580156121e7573d6000803e3d6000fd5b505050506040513d601f19601f8201168201806040525081019061220b9190614414565b146122585760405162461bcd60e51b815260206004820152601f60248201527f43616c6c657220646f6573206e6f74206f776e20616c6c207368617265732100604482015260640161065b565b61226182612dc9565b6000828152601260209081526040808320600181015460038201549251601395946122b79460ff90931693600281019361ffff8082169462010000909204169260048301926005810192600690910191016144b3565b60408051601f1981840301815291815281516020928301208352828201939093529082016000908120805460ff1990811690915585825260129092529182208281556001810180549092169091559060028201816123158282613951565b60018201805463ffffffff19169055612332600283016000613951565b612340600383016000613951565b61234e600483016000613951565b505050507fa688c45cd59c2527ae60c477de2510cf8cec40aa54def51bae6c2725468871a28260405161238391815260200190565b60405180910390a15050565b612397612d17565b611747612ec6565b60606001805461092990614173565b6123b9338383612f03565b5050565b6123c73383612b28565b6123e35760405162461bcd60e51b815260040161065b9061438e565b611c0084848484612fd1565b606060006123fc600f5490565b6001600160401b0381111561241357612413613b95565b60405190808252806020026020018201604052801561244c57816020015b61243961390c565b8152602001906001900390816124315790505b50905060005b600f5481101561091457600081815260146020908152604091829020825161010081018452815481526001820154818401526002820154818501526003820154606082015260048201805485518186028101860190965280865291949293608086019392908301828280156124f057602002820191906000526020600020905b81546001600160a01b031681526001909101906020018083116124d2575b505050505081526020016005820180548060200260200160405190810160405280929190818152602001828054801561255257602002820191906000526020600020905b81546001600160a01b03168152600190910190602001808311612534575b505050505081526020016006820154815260200160078201548152505082828151811061258157612581614349565b6020026020010181905250808061259790614375565b915050612452565b60606125aa82612a6a565b60006125b4613004565b905060008151116125d457604051806020016040528060008152506125ff565b806125de84613024565b6040516020016125ef92919061451b565b6040516020818303038152906040525b9392505050565b601054604051627eeac760e11b8152336004820152602481018390526000916001600160a01b03169062fdd58e90604401602060405180830381865afa158015612654573d6000803e3d6000fd5b505050506040513d601f19601f820116820180604052508101906126789190614414565b116126b75760405162461bcd60e51b815260206004820152600f60248201526e2737ba1039b430b932b437b63232b960891b604482015260640161065b565b600f54600081815260146020526040808220928355600190920183905560105482516310f9323360e21b81526004810185905292516001600160a01b03909116926343e4c8cc9260248083019391928290030181865afa15801561271f573d6000803e3d6000fd5b505050506040513d6000823e601f3d908101601f19168201604052612747919081019061454a565b60146000612754600f5490565b8152602001908152602001600020600401908051906020019061277892919061398b565b50600060146000612788600f5490565b8152602001908152602001600020600201819055506000601460006127ac600f5490565b81526020019081526020016000206003018190555042601460006127cf600f5490565b81526020810191909152604001600020600601556127f04262093a8061442d565b601460006127fd600f5490565b815260208101919091526040016000206007015550565b61281c61390c565b600082815260146020908152604091829020825161010081018452815481526001820154818401526002820154818501526003820154606082015260048201805485518186028101860190965280865291949293608086019392908301828280156128b057602002820191906000526020600020905b81546001600160a01b03168152600190910190602001808311612892575b505050505081526020016005820180548060200260200160405190810160405280929190818152602001828054801561291257602002820191906000526020600020905b81546001600160a01b031681526001909101906020018083116128f4575b50505050508152602001600682015481526020016007820154815250509050919050565b61293e612d17565b6001600160a01b0381166129a35760405162461bcd60e51b815260206004820152602660248201527f4f776e61626c653a206e6577206f776e657220697320746865207a65726f206160448201526564647265737360d01b606482015260840161065b565b61179281612e6c565b80546001019055565b60006001600160e01b0319821663152a902d60e11b14806106035750610603826130b6565b6000908152600260205260409020546001600160a01b0316151590565b6002600b5403612a495760405162461bcd60e51b815260206004820152601f60248201527f5265656e7472616e637947756172643a207265656e7472616e742063616c6c00604482015260640161065b565b6002600b55565b6123b98282604051806020016040528060008152506130db565b612a73816129da565b6117925760405162461bcd60e51b8152602060048201526018602482015277115490cdcc8c4e881a5b9d985b1a59081d1bdad95b88125160421b604482015260640161065b565b600081815260046020526040902080546001600160a01b0319166001600160a01b0384169081179091558190612aef82611fe7565b6001600160a01b03167f8c5be1e5ebec7d5bd14f71427d1e84f3dd0314c0f7b2291e5b200ac8c7c3b92560405160405180910390a45050565b600080612b3483611fe7565b9050806001600160a01b0316846001600160a01b03161480612b7b57506001600160a01b0380821660009081526005602090815260408083209388168352929052205460ff165b8061114a5750836001600160a01b0316612b9484611005565b6001600160a01b031614949350505050565b826001600160a01b0316612bb982611fe7565b6001600160a01b031614612bdf5760405162461bcd60e51b815260040161065b906145d8565b6001600160a01b038216612c415760405162461bcd60e51b8152602060048201526024808201527f4552433732313a207472616e7366657220746f20746865207a65726f206164646044820152637265737360e01b606482015260840161065b565b612c4e838383600161310e565b826001600160a01b0316612c6182611fe7565b6001600160a01b031614612c875760405162461bcd60e51b815260040161065b906145d8565b600081815260046020908152604080832080546001600160a01b03199081169091556001600160a01b0387811680865260038552838620805460001901905590871680865283862080546001019055868652600290945282852080549092168417909155905184937fddf252ad1be2c89b69c2b068fc378daa952ba7f163c4a11628f55a4df523b3ef91a4505050565b600a546001600160a01b036101009091041633146117475760405162461bcd60e51b815260206004820181905260248201527f4f776e61626c653a2063616c6c6572206973206e6f7420746865206f776e6572604482015260640161065b565b612d7f613122565b600a805460ff191690557f5db9ee0a495bf2e6ff9c91a7834c1ba4fdd244a5e8aa4e537bd38aeae4b073aa335b6040516001600160a01b03909116815260200160405180910390a1565b6000612dd482611fe7565b9050612de481600084600161310e565b612ded82611fe7565b600083815260046020908152604080832080546001600160a01b03199081169091556001600160a01b0385168085526003845282852080546000190190558785526002909352818420805490911690555192935084927fddf252ad1be2c89b69c2b068fc378daa952ba7f163c4a11628f55a4df523b3ef908390a45050565b600a80546001600160a01b03838116610100818102610100600160a81b031985161790945560405193909204169182907f8be0079c531659141344cd1fd0a4f28419497f9722a3daafe3b4186f6b6457e090600090a35050565b612ece61316b565b600a805460ff191660011790557f62e78cea01bee320cd4e420270b5ea74000d11b0c9f74754ebdbfc544b05a258612dac3390565b816001600160a01b0316836001600160a01b031603612f645760405162461bcd60e51b815260206004820152601960248201527f4552433732313a20617070726f766520746f2063616c6c657200000000000000604482015260640161065b565b6001600160a01b03838116600081815260056020908152604080832094871680845294825291829020805460ff191686151590811790915591519182527f17307eab39ab6107e8899845ad3d59bd9653f200f220920489ca2b5937696c31910160405180910390a3505050565b612fdc848484612ba6565b612fe8848484846131b1565b611c005760405162461bcd60e51b815260040161065b9061461d565b60606040518060600160405280603481526020016146f360349139905090565b60606000613031836132af565b60010190506000816001600160401b0381111561305057613050613b95565b6040519080825280601f01601f19166020018201604052801561307a576020820181803683370190505b5090508181016020015b600019016f181899199a1a9b1b9c1cb0b131b232b360811b600a86061a8153600a850494508461308457509392505050565b60006001600160e01b0319821663780e9d6360e01b1480610603575061060382613387565b6130e583836133d7565b6130f260008484846131b1565b61113c5760405162461bcd60e51b815260040161065b9061461d565b61311661316b565b611c0084848484613552565b600a5460ff166117475760405162461bcd60e51b815260206004820152601460248201527314185d5cd8589b194e881b9bdd081c185d5cd95960621b604482015260640161065b565b600a5460ff16156117475760405162461bcd60e51b815260206004820152601060248201526f14185d5cd8589b194e881c185d5cd95960821b604482015260640161065b565b60006001600160a01b0384163b156132a757604051630a85bd0160e11b81526001600160a01b0385169063150b7a02906131f590339089908890889060040161466f565b6020604051808303816000875af1925050508015613230575060408051601f3d908101601f1916820190925261322d918101906146ac565b60015b61328d573d80801561325e576040519150601f19603f3d011682016040523d82523d6000602084013e613263565b606091505b5080516000036132855760405162461bcd60e51b815260040161065b9061461d565b805181602001fd5b6001600160e01b031916630a85bd0160e11b14905061114a565b50600161114a565b60008072184f03e93ff9f4daa797ed6e38ed64bf6a1f0160401b83106132ee5772184f03e93ff9f4daa797ed6e38ed64bf6a1f0160401b830492506040015b6d04ee2d6d415b85acef8100000000831061331a576d04ee2d6d415b85acef8100000000830492506020015b662386f26fc10000831061333857662386f26fc10000830492506010015b6305f5e1008310613350576305f5e100830492506008015b612710831061336457612710830492506004015b60648310613376576064830492506002015b600a83106106035760010192915050565b60006001600160e01b031982166380ac58cd60e01b14806133b857506001600160e01b03198216635b5e139f60e01b145b8061060357506301ffc9a760e01b6001600160e01b0319831614610603565b6001600160a01b03821661342d5760405162461bcd60e51b815260206004820181905260248201527f4552433732313a206d696e7420746f20746865207a65726f2061646472657373604482015260640161065b565b613436816129da565b156134835760405162461bcd60e51b815260206004820152601c60248201527f4552433732313a20746f6b656e20616c7265616479206d696e74656400000000604482015260640161065b565b61349160008383600161310e565b61349a816129da565b156134e75760405162461bcd60e51b815260206004820152601c60248201527f4552433732313a20746f6b656e20616c7265616479206d696e74656400000000604482015260640161065b565b6001600160a01b038216600081815260036020908152604080832080546001019055848352600290915280822080546001600160a01b0319168417905551839291907fddf252ad1be2c89b69c2b068fc378daa952ba7f163c4a11628f55a4df523b3ef908290a45050565b61355e84848484613692565b60018111156135cd5760405162461bcd60e51b815260206004820152603560248201527f455243373231456e756d657261626c653a20636f6e7365637574697665207472604482015274185b9cd9995c9cc81b9bdd081cdd5c1c1bdc9d1959605a1b606482015260840161065b565b816001600160a01b0385166136295761362481600880546000838152600960205260408120829055600182018355919091527ff3f7a9fe364faab93b216da50a3214154f22a0a2b415b23a84c8169e8b636ee30155565b61364c565b836001600160a01b0316856001600160a01b03161461364c5761364c858261371a565b6001600160a01b03841661366857613663816137b7565b61368b565b846001600160a01b0316846001600160a01b03161461368b5761368b8482613866565b5050505050565b6001811115611c00576001600160a01b038416156136d8576001600160a01b038416600090815260036020526040812080548392906136d29084906146c9565b90915550505b6001600160a01b03831615611c00576001600160a01b0383166000908152600360205260408120805483929061370f90849061442d565b909155505050505050565b6000600161372784612047565b61373191906146c9565b600083815260076020526040902054909150808214613784576001600160a01b03841660009081526006602090815260408083208584528252808320548484528184208190558352600790915290208190555b5060009182526007602090815260408084208490556001600160a01b039094168352600681528383209183525290812055565b6008546000906137c9906001906146c9565b600083815260096020526040812054600880549394509092849081106137f1576137f1614349565b90600052602060002001549050806008838154811061381257613812614349565b600091825260208083209091019290925582815260099091526040808220849055858252812055600880548061384a5761384a6146dc565b6001900381819060005260206000200160009055905550505050565b600061387183612047565b6001600160a01b039093166000908152600660209081526040808320868452825280832085905593825260079052919091209190915550565b604051806060016040528060008152602001600060ff1681526020016139076040518060c0016040528060608152602001600061ffff168152602001600061ffff1681526020016060815260200160608152602001606081525090565b905290565b60405180610100016040528060008152602001600081526020016000815260200160008152602001606081526020016060815260200160008152602001600081525090565b50805461395d90614173565b6000825580601f1061396d575050565b601f01602090049060005260206000209081019061179291906139f0565b8280548282559060005260206000209081019282156139e0579160200282015b828111156139e057825182546001600160a01b0319166001600160a01b039091161782556020909201916001909101906139ab565b506139ec9291506139f0565b5090565b5b808211156139ec57600081556001016139f1565b6001600160e01b03198116811461179257600080fd5b600060208284031215613a2d57600080fd5b81356125ff81613a05565b600060208284031215613a4a57600080fd5b5035919050565b60005b83811015613a6c578181015183820152602001613a54565b50506000910152565b60008151808452613a8d816020860160208601613a51565b601f01601f19169290920160200192915050565b8051825260ff60208201511660208301526000604082015160606040850152805160c06060860152613ad7610120860182613a75565b602083015161ffff908116608088015260408401511660a08701526060830151868203605f1990810160c089015291925090613b138383613a75565b925060808401519150808784030160e0880152613b308383613a75565b925060a0840151935080878403016101008801525050613b508183613a75565b95945050505050565b6020815260006125ff6020830184613aa1565b6020815260006125ff6020830184613a75565b803560ff81168114613b9057600080fd5b919050565b634e487b7160e01b600052604160045260246000fd5b604051601f8201601f191681016001600160401b0381118282101715613bd357613bd3613b95565b604052919050565b60006001600160401b03831115613bf457613bf4613b95565b613c07601f8401601f1916602001613bab565b9050828152838383011115613c1b57600080fd5b828260208301376000602084830101529392505050565b600082601f830112613c4357600080fd5b6125ff83833560208501613bdb565b803561ffff81168114613b9057600080fd5b600080600080600080600080610100898b031215613c8157600080fd5b613c8a89613b7f565b975060208901356001600160401b0380821115613ca657600080fd5b613cb28c838d01613c32565b9850613cc060408c01613c52565b9750613cce60608c01613c52565b965060808b0135915080821115613ce457600080fd5b613cf08c838d01613c32565b955060a08b0135915080821115613d0657600080fd5b613d128c838d01613c32565b945060c08b0135915080821115613d2857600080fd5b50613d358b828c01613c32565b925050613d4460e08a01613b7f565b90509295985092959890939650565b6001600160a01b038116811461179257600080fd5b60008060408385031215613d7b57600080fd5b8235613d8681613d53565b946020939093013593505050565b60008060008060808587031215613daa57600080fd5b8435613db581613d53565b93506020850135613dc581613d53565b92506040850135915060608501356001600160401b03811115613de757600080fd5b8501601f81018713613df857600080fd5b613e0787823560208401613bdb565b91505092959194509250565b600060208284031215613e2557600080fd5b81356125ff81613d53565b6000602080830181845280855180835260408601915060408160051b870101925083870160005b82811015613e8557603f19888603018452613e73858351613aa1565b94509285019290850190600101613e57565b5092979650505050505050565b600080600060608486031215613ea757600080fd5b8335613eb281613d53565b92506020840135613ec281613d53565b929592945050506040919091013590565b60008060408385031215613ee657600080fd5b50508035926020909101359150565b60006001600160401b03821115613f0e57613f0e613b95565b5060051b60200190565b60006020808385031215613f2b57600080fd5b82356001600160401b03811115613f4157600080fd5b8301601f81018513613f5257600080fd5b8035613f65613f6082613ef5565b613bab565b81815260059190911b82018301908381019087831115613f8457600080fd5b928401925b82841015613fa257833582529284019290840190613f89565b979650505050505050565b600081518084526020808501945080840160005b83811015613fe65781516001600160a01b031687529582019590820190600101613fc1565b509495945050505050565b600061010082518452602083015160208501526040830151604085015260608301516060850152608083015181608086015261402f82860182613fad565b91505060a083015184820360a08601526140498282613fad565b91505060c083015160c085015260e083015160e08501528091505092915050565b6000602080830181845280855180835260408601915060408160051b870101925083870160005b82811015613e8557603f198886030184526140ad858351613ff1565b94509285019290850190600101614091565b80358015158114613b9057600080fd5b600080604083850312156140e257600080fd5b823591506140f2602084016140bf565b90509250929050565b6000806040838503121561410e57600080fd5b823561411981613d53565b91506140f2602084016140bf565b6020815260006125ff6020830184613ff1565b6000806040838503121561414d57600080fd5b823561415881613d53565b9150602083013561416881613d53565b809150509250929050565b600181811c9082168061418757607f821691505b60208210810361091457634e487b7160e01b600052602260045260246000fd5b60ff60f81b8860f81b168152600087516141c8816001850160208c01613a51565b60f088811b6001600160f01b03199081166001938601938401529088901b16600382015285516141ff816005840160208a01613a51565b8551910190614215816005840160208901613a51565b845191019061422b816005840160208801613a51565b016005019998505050505050505050565b601f82111561113c57600081815260208120601f850160051c810160208610156142635750805b601f850160051c820191505b818110156142825782815560010161426f565b505050505050565b81516001600160401b038111156142a3576142a3613b95565b6142b7816142b18454614173565b8461423c565b602080601f8311600181146142ec57600084156142d45750858301515b600019600386901b1c1916600185901b178555614282565b600085815260208120601f198616915b8281101561431b578886015182559484019460019091019084016142fc565b50858210156143395787850151600019600388901b60f8161c191681555b5050505050600190811b01905550565b634e487b7160e01b600052603260045260246000fd5b634e487b7160e01b600052601160045260246000fd5b6000600182016143875761438761435f565b5060010190565b6020808252602d908201527f4552433732313a2063616c6c6572206973206e6f7420746f6b656e206f776e6560408201526c1c881bdc88185c1c1c9bdd9959609a1b606082015260800190565b80820281158282048414176106035761060361435f565b60008261440f57634e487b7160e01b600052601260045260246000fd5b500490565b60006020828403121561442657600080fd5b5051919050565b808201808211156106035761060361435f565b6000815461444d81614173565b60018281168015614465576001811461447a576144a9565b60ff19841687528215158302870194506144a9565b8560005260208060002060005b858110156144a05781548a820152908401908201614487565b50505082870194505b5050505092915050565b60f888901b6001600160f81b031916815260006144d36001830189614440565b6001600160f01b031960f089811b8216835288901b16600282015261450d6145076145016004840189614440565b87614440565b85614440565b9a9950505050505050505050565b6000835161452d818460208801613a51565b835190830190614541818360208801613a51565b01949350505050565b6000602080838503121561455d57600080fd5b82516001600160401b0381111561457357600080fd5b8301601f8101851361458457600080fd5b8051614592613f6082613ef5565b81815260059190911b820183019083810190878311156145b157600080fd5b928401925b82841015613fa25783516145c981613d53565b825292840192908401906145b6565b60208082526025908201527f4552433732313a207472616e736665722066726f6d20696e636f72726563742060408201526437bbb732b960d91b606082015260800190565b60208082526032908201527f4552433732313a207472616e7366657220746f206e6f6e20455243373231526560408201527131b2b4bb32b91034b6b83632b6b2b73a32b960711b606082015260800190565b6001600160a01b03858116825284166020820152604081018390526080606082018190526000906146a290830184613a75565b9695505050505050565b6000602082840312156146be57600080fd5b81516125ff81613a05565b818103818111156106035761060361435f565b634e487b7160e01b600052603160045260246000fdfe68747470733a2f2f626c6f636b6573746174652e616c65786f6368732e64652f6170692f6d657461646174612f6173736574732fa2646970667358221220081a17569fc02c779341aed4382285e26f5f1414279544507ce056b52c81db7d64736f6c63430008120033",
  "linkReferences": {},
  "deployedLinkReferences": {}
}