{
  "_format": "hh-sol-artifact-1",
  "contractName": "BlockEstateAssets",
  "sourceName": "contracts/BlockEstateAssets.sol",
  "abi": [
    {
      "inputs": [],
      "stateMutability": "nonpayable",
      "type": "constructor"
    },
    {
      "anonymous": false,
      "inputs": [
        {
          "indexed": true,
          "internalType": "address",
          "name": "owner",
          "type": "address"
        },
        {
          "indexed": true,
          "internalType": "address",
          "name": "approved",
          "type": "address"
        },
        {
          "indexed": true,
          "internalType": "uint256",
          "name": "tokenId",
          "type": "uint256"
        }
      ],
      "name": "Approval",
      "type": "event"
    },
    {
      "anonymous": false,
      "inputs": [
        {
          "indexed": true,
          "internalType": "address",
          "name": "owner",
          "type": "address"
        },
        {
          "indexed": true,
          "internalType": "address",
          "name": "operator",
          "type": "address"
        },
        {
          "indexed": false,
          "internalType": "bool",
          "name": "approved",
          "type": "bool"
        }
      ],
      "name": "ApprovalForAll",
      "type": "event"
    },
    {
      "anonymous": false,
      "inputs": [
        {
          "indexed": false,
          "internalType": "uint256",
          "name": "tokenId",
          "type": "uint256"
        }
      ],
      "name": "AssetCreated",
      "type": "event"
    },
    {
      "anonymous": false,
      "inputs": [
        {
          "indexed": true,
          "internalType": "address",
          "name": "previousOwner",
          "type": "address"
        },
        {
          "indexed": true,
          "internalType": "address",
          "name": "newOwner",
          "type": "address"
        }
      ],
      "name": "OwnershipTransferred",
      "type": "event"
    },
    {
      "anonymous": false,
      "inputs": [
        {
          "indexed": false,
          "internalType": "address",
          "name": "account",
          "type": "address"
        }
      ],
      "name": "Paused",
      "type": "event"
    },
    {
      "anonymous": false,
      "inputs": [
        {
          "indexed": true,
          "internalType": "address",
          "name": "from",
          "type": "address"
        },
        {
          "indexed": true,
          "internalType": "address",
          "name": "to",
          "type": "address"
        },
        {
          "indexed": true,
          "internalType": "uint256",
          "name": "tokenId",
          "type": "uint256"
        }
      ],
      "name": "Transfer",
      "type": "event"
    },
    {
      "anonymous": false,
      "inputs": [
        {
          "indexed": false,
          "internalType": "address",
          "name": "account",
          "type": "address"
        }
      ],
      "name": "Unpaused",
      "type": "event"
    },
    {
      "inputs": [
        {
          "internalType": "address",
          "name": "to",
          "type": "address"
        },
        {
          "internalType": "uint256",
          "name": "tokenId",
          "type": "uint256"
        }
      ],
      "name": "approve",
      "outputs": [],
      "stateMutability": "nonpayable",
      "type": "function"
    },
    {
      "inputs": [
        {
          "internalType": "address",
          "name": "owner",
          "type": "address"
        }
      ],
      "name": "balanceOf",
      "outputs": [
        {
          "internalType": "uint256",
          "name": "",
          "type": "uint256"
        }
      ],
      "stateMutability": "view",
      "type": "function"
    },
    {
      "inputs": [
        {
          "internalType": "uint256",
          "name": "tokenId",
          "type": "uint256"
        }
      ],
      "name": "burn",
      "outputs": [],
      "stateMutability": "nonpayable",
      "type": "function"
    },
    {
      "inputs": [
        {
          "internalType": "uint8",
          "name": "category",
          "type": "uint8"
        },
        {
          "internalType": "string",
          "name": "street",
          "type": "string"
        },
        {
          "internalType": "uint16",
          "name": "number",
          "type": "uint16"
        },
        {
          "internalType": "string",
          "name": "city",
          "type": "string"
        },
        {
          "internalType": "string",
          "name": "country",
          "type": "string"
        }
      ],
      "name": "createAsset",
      "outputs": [],
      "stateMutability": "nonpayable",
      "type": "function"
    },
    {
      "inputs": [
        {
          "internalType": "uint256",
          "name": "tokenId",
          "type": "uint256"
        }
      ],
      "name": "deleteAsset",
      "outputs": [],
      "stateMutability": "nonpayable",
      "type": "function"
    },
    {
      "inputs": [
        {
          "internalType": "uint256",
          "name": "tokenId",
          "type": "uint256"
        }
      ],
      "name": "getApproved",
      "outputs": [
        {
          "internalType": "address",
          "name": "",
          "type": "address"
        }
      ],
      "stateMutability": "view",
      "type": "function"
    },
    {
      "inputs": [
        {
          "internalType": "address",
          "name": "owner",
          "type": "address"
        },
        {
          "internalType": "address",
          "name": "operator",
          "type": "address"
        }
      ],
      "name": "isApprovedForAll",
      "outputs": [
        {
          "internalType": "bool",
          "name": "",
          "type": "bool"
        }
      ],
      "stateMutability": "view",
      "type": "function"
    },
    {
      "inputs": [],
      "name": "name",
      "outputs": [
        {
          "internalType": "string",
          "name": "",
          "type": "string"
        }
      ],
      "stateMutability": "view",
      "type": "function"
    },
    {
      "inputs": [],
      "name": "owner",
      "outputs": [
        {
          "internalType": "address",
          "name": "",
          "type": "address"
        }
      ],
      "stateMutability": "view",
      "type": "function"
    },
    {
      "inputs": [
        {
          "internalType": "uint256",
          "name": "tokenId",
          "type": "uint256"
        }
      ],
      "name": "ownerOf",
      "outputs": [
        {
          "internalType": "address",
          "name": "",
          "type": "address"
        }
      ],
      "stateMutability": "view",
      "type": "function"
    },
    {
      "inputs": [],
      "name": "pause",
      "outputs": [],
      "stateMutability": "nonpayable",
      "type": "function"
    },
    {
      "inputs": [],
      "name": "paused",
      "outputs": [
        {
          "internalType": "bool",
          "name": "",
          "type": "bool"
        }
      ],
      "stateMutability": "view",
      "type": "function"
    },
    {
      "inputs": [],
      "name": "readAllAssets",
      "outputs": [
        {
          "components": [
            {
              "internalType": "uint256",
              "name": "tokenId",
              "type": "uint256"
            },
            {
              "internalType": "enum BlockEstateAssets.AssetCategory",
              "name": "category",
              "type": "uint8"
            },
            {
              "components": [
                {
                  "internalType": "string",
                  "name": "street",
                  "type": "string"
                },
                {
                  "internalType": "uint16",
                  "name": "number",
                  "type": "uint16"
                },
                {
                  "internalType": "string",
                  "name": "city",
                  "type": "string"
                },
                {
                  "internalType": "string",
                  "name": "country",
                  "type": "string"
                }
              ],
              "internalType": "struct BlockEstateAssets.AssetLocation",
              "name": "location",
              "type": "tuple"
            }
          ],
          "internalType": "struct BlockEstateAssets.Asset[]",
          "name": "",
          "type": "tuple[]"
        }
      ],
      "stateMutability": "view",
      "type": "function"
    },
    {
      "inputs": [
        {
          "internalType": "uint256",
          "name": "tokenId",
          "type": "uint256"
        }
      ],
      "name": "readAsset",
      "outputs": [
        {
          "components": [
            {
              "internalType": "uint256",
              "name": "tokenId",
              "type": "uint256"
            },
            {
              "internalType": "enum BlockEstateAssets.AssetCategory",
              "name": "category",
              "type": "uint8"
            },
            {
              "components": [
                {
                  "internalType": "string",
                  "name": "street",
                  "type": "string"
                },
                {
                  "internalType": "uint16",
                  "name": "number",
                  "type": "uint16"
                },
                {
                  "internalType": "string",
                  "name": "city",
                  "type": "string"
                },
                {
                  "internalType": "string",
                  "name": "country",
                  "type": "string"
                }
              ],
              "internalType": "struct BlockEstateAssets.AssetLocation",
              "name": "location",
              "type": "tuple"
            }
          ],
          "internalType": "struct BlockEstateAssets.Asset",
          "name": "",
          "type": "tuple"
        }
      ],
      "stateMutability": "view",
      "type": "function"
    },
    {
      "inputs": [],
      "name": "renounceOwnership",
      "outputs": [],
      "stateMutability": "nonpayable",
      "type": "function"
    },
    {
      "inputs": [
        {
          "internalType": "address",
          "name": "from",
          "type": "address"
        },
        {
          "internalType": "address",
          "name": "to",
          "type": "address"
        },
        {
          "internalType": "uint256",
          "name": "tokenId",
          "type": "uint256"
        }
      ],
      "name": "safeTransferFrom",
      "outputs": [],
      "stateMutability": "nonpayable",
      "type": "function"
    },
    {
      "inputs": [
        {
          "internalType": "address",
          "name": "from",
          "type": "address"
        },
        {
          "internalType": "address",
          "name": "to",
          "type": "address"
        },
        {
          "internalType": "uint256",
          "name": "tokenId",
          "type": "uint256"
        },
        {
          "internalType": "bytes",
          "name": "data",
          "type": "bytes"
        }
      ],
      "name": "safeTransferFrom",
      "outputs": [],
      "stateMutability": "nonpayable",
      "type": "function"
    },
    {
      "inputs": [
        {
          "internalType": "address",
          "name": "operator",
          "type": "address"
        },
        {
          "internalType": "bool",
          "name": "approved",
          "type": "bool"
        }
      ],
      "name": "setApprovalForAll",
      "outputs": [],
      "stateMutability": "nonpayable",
      "type": "function"
    },
    {
      "inputs": [
        {
          "internalType": "bytes4",
          "name": "interfaceId",
          "type": "bytes4"
        }
      ],
      "name": "supportsInterface",
      "outputs": [
        {
          "internalType": "bool",
          "name": "",
          "type": "bool"
        }
      ],
      "stateMutability": "view",
      "type": "function"
    },
    {
      "inputs": [],
      "name": "symbol",
      "outputs": [
        {
          "internalType": "string",
          "name": "",
          "type": "string"
        }
      ],
      "stateMutability": "view",
      "type": "function"
    },
    {
      "inputs": [
        {
          "internalType": "uint256",
          "name": "index",
          "type": "uint256"
        }
      ],
      "name": "tokenByIndex",
      "outputs": [
        {
          "internalType": "uint256",
          "name": "",
          "type": "uint256"
        }
      ],
      "stateMutability": "view",
      "type": "function"
    },
    {
      "inputs": [
        {
          "internalType": "address",
          "name": "owner",
          "type": "address"
        },
        {
          "internalType": "uint256",
          "name": "index",
          "type": "uint256"
        }
      ],
      "name": "tokenOfOwnerByIndex",
      "outputs": [
        {
          "internalType": "uint256",
          "name": "",
          "type": "uint256"
        }
      ],
      "stateMutability": "view",
      "type": "function"
    },
    {
      "inputs": [
        {
          "internalType": "uint256",
          "name": "tokenId",
          "type": "uint256"
        }
      ],
      "name": "tokenURI",
      "outputs": [
        {
          "internalType": "string",
          "name": "",
          "type": "string"
        }
      ],
      "stateMutability": "view",
      "type": "function"
    },
    {
      "inputs": [],
      "name": "totalSupply",
      "outputs": [
        {
          "internalType": "uint256",
          "name": "",
          "type": "uint256"
        }
      ],
      "stateMutability": "view",
      "type": "function"
    },
    {
      "inputs": [
        {
          "internalType": "address",
          "name": "from",
          "type": "address"
        },
        {
          "internalType": "address",
          "name": "to",
          "type": "address"
        },
        {
          "internalType": "uint256",
          "name": "tokenId",
          "type": "uint256"
        }
      ],
      "name": "transferFrom",
      "outputs": [],
      "stateMutability": "nonpayable",
      "type": "function"
    },
    {
      "inputs": [
        {
          "internalType": "address",
          "name": "newOwner",
          "type": "address"
        }
      ],
      "name": "transferOwnership",
      "outputs": [],
      "stateMutability": "nonpayable",
      "type": "function"
    },
    {
      "inputs": [],
      "name": "unpause",
      "outputs": [],
      "stateMutability": "nonpayable",
      "type": "function"
    },
    {
      "inputs": [
        {
          "internalType": "uint256",
          "name": "tokenId",
          "type": "uint256"
        }
      ],
      "name": "updateAsset",
      "outputs": [],
      "stateMutability": "nonpayable",
      "type": "function"
    }
  ],
  "bytecode": "0x60806040523480156200001157600080fd5b506040518060400160405280601181526020017f426c6f636b4573746174654173736574730000000000000000000000000000008152506040518060400160405280600381526020017f424541000000000000000000000000000000000000000000000000000000000081525081600090816200008f91906200045a565b508060019081620000a191906200045a565b5050506000600a60006101000a81548160ff021916908315150217905550620000df620000d3620000fc60201b60201c565b6200010460201b60201c565b620000f6600b620001ca60201b620017ea1760201c565b62000541565b600033905090565b6000600a60019054906101000a900473ffffffffffffffffffffffffffffffffffffffff16905081600a60016101000a81548173ffffffffffffffffffffffffffffffffffffffff021916908373ffffffffffffffffffffffffffffffffffffffff1602179055508173ffffffffffffffffffffffffffffffffffffffff168173ffffffffffffffffffffffffffffffffffffffff167f8be0079c531659141344cd1fd0a4f28419497f9722a3daafe3b4186f6b6457e060405160405180910390a35050565b6001816000016000828254019250508190555050565b600081519050919050565b7f4e487b7100000000000000000000000000000000000000000000000000000000600052604160045260246000fd5b7f4e487b7100000000000000000000000000000000000000000000000000000000600052602260045260246000fd5b600060028204905060018216806200026257607f821691505b6020821081036200027857620002776200021a565b5b50919050565b60008190508160005260206000209050919050565b60006020601f8301049050919050565b600082821b905092915050565b600060088302620002e27fffffffffffffffffffffffffffffffffffffffffffffffffffffffffffffffff82620002a3565b620002ee8683620002a3565b95508019841693508086168417925050509392505050565b6000819050919050565b6000819050919050565b60006200033b620003356200032f8462000306565b62000310565b62000306565b9050919050565b6000819050919050565b62000357836200031a565b6200036f620003668262000342565b848454620002b0565b825550505050565b600090565b6200038662000377565b620003938184846200034c565b505050565b5b81811015620003bb57620003af6000826200037c565b60018101905062000399565b5050565b601f8211156200040a57620003d4816200027e565b620003df8462000293565b81016020851015620003ef578190505b62000407620003fe8562000293565b83018262000398565b50505b505050565b600082821c905092915050565b60006200042f600019846008026200040f565b1980831691505092915050565b60006200044a83836200041c565b9150826002028217905092915050565b6200046582620001e0565b67ffffffffffffffff811115620004815762000480620001eb565b5b6200048d825462000249565b6200049a828285620003bf565b600060209050601f831160018114620004d25760008415620004bd578287015190505b620004c985826200043c565b86555062000539565b601f198416620004e2866200027e565b60005b828110156200050c57848901518255600182019150602085019450602081019050620004e5565b868310156200052c578489015162000528601f8916826200041c565b8355505b6001600288020188555050505b505050505050565b61511a80620005516000396000f3fe608060405234801561001057600080fd5b50600436106101c45760003560e01c80634f6ccce7116100f95780638da5cb5b11610097578063b88d4fde11610071578063b88d4fde146104cb578063c87b56dd146104e7578063e985e9c514610517578063f2fde38b14610547576101c4565b80638da5cb5b1461047357806395d89b4114610491578063a22cb465146104af576101c4565b806370a08231116100d357806370a0823114610413578063715018a6146104435780637eb79b531461044d5780638456cb5914610469576101c4565b80634f6ccce7146103955780635c975abb146103c55780636352211e146103e3576101c4565b806323b872dd116101665780633f4ba83a116101405780633f4ba83a14610337578063410e4e9f1461034157806342842e0e1461035d57806342966c6814610379576101c4565b806323b872dd146102cd5780632ee5ba2c146102e95780632f745c5914610307576101c4565b8063081812fc116101a2578063081812fc14610247578063095ea7b314610277578063110b55af1461029357806318160ddd146102af576101c4565b806301ffc9a7146101c95780630488a3b9146101f957806306fdde0314610229575b600080fd5b6101e360048036038101906101de91906131f8565b610563565b6040516101f09190613240565b60405180910390f35b610213600480360381019061020e9190613291565b610575565b60405161022091906134b2565b60405180910390f35b61023161081b565b60405161023e919061351e565b60405180910390f35b610261600480360381019061025c9190613291565b6108ad565b60405161026e9190613581565b60405180910390f35b610291600480360381019061028c91906135c8565b6108f3565b005b6102ad60048036038101906102a891906137a2565b610a0a565b005b6102b7610df8565b6040516102c49190613880565b60405180910390f35b6102e760048036038101906102e2919061389b565b610e05565b005b6102f1610e65565b6040516102fe9190613a00565b60405180910390f35b610321600480360381019061031c91906135c8565b610f22565b60405161032e9190613880565b60405180910390f35b61033f610fc7565b005b61035b60048036038101906103569190613291565b610fd9565b005b6103776004803603810190610372919061389b565b61109e565b005b610393600480360381019061038e9190613291565b6110be565b005b6103af60048036038101906103aa9190613291565b61111a565b6040516103bc9190613880565b60405180910390f35b6103cd61118b565b6040516103da9190613240565b60405180910390f35b6103fd60048036038101906103f89190613291565b6111a2565b60405161040a9190613581565b60405180910390f35b61042d60048036038101906104289190613a22565b611228565b60405161043a9190613880565b60405180910390f35b61044b6112df565b005b61046760048036038101906104629190613291565b6112f3565b005b610471611525565b005b61047b611537565b6040516104889190613581565b60405180910390f35b610499611561565b6040516104a6919061351e565b60405180910390f35b6104c960048036038101906104c49190613a7b565b6115f3565b005b6104e560048036038101906104e09190613b5c565b611609565b005b61050160048036038101906104fc9190613291565b61166b565b60405161050e919061351e565b60405180910390f35b610531600480360381019061052c9190613bdf565b6116d3565b60405161053e9190613240565b60405180910390f35b610561600480360381019061055c9190613a22565b611767565b005b600061056e82611800565b9050919050565b61057d6130ca565b816105878161187a565b6105c6576040517f08c379a00000000000000000000000000000000000000000000000000000000081526004016105bd90613c6b565b60405180910390fd5b600c6000848152602001908152602001600020604051806060016040529081600082015481526020016001820160009054906101000a900460ff166001811115610613576106126132cd565b5b6001811115610625576106246132cd565b5b81526020016002820160405180608001604052908160008201805461064990613cba565b80601f016020809104026020016040519081016040528092919081815260200182805461067590613cba565b80156106c25780601f10610697576101008083540402835291602001916106c2565b820191906000526020600020905b8154815290600101906020018083116106a557829003601f168201915b505050505081526020016001820160009054906101000a900461ffff1661ffff1661ffff1681526020016002820180546106fb90613cba565b80601f016020809104026020016040519081016040528092919081815260200182805461072790613cba565b80156107745780601f1061074957610100808354040283529160200191610774565b820191906000526020600020905b81548152906001019060200180831161075757829003601f168201915b5050505050815260200160038201805461078d90613cba565b80601f01602080910402602001604051908101604052809291908181526020018280546107b990613cba565b80156108065780601f106107db57610100808354040283529160200191610806565b820191906000526020600020905b8154815290600101906020018083116107e957829003601f168201915b50505050508152505081525050915050919050565b60606000805461082a90613cba565b80601f016020809104026020016040519081016040528092919081815260200182805461085690613cba565b80156108a35780601f10610878576101008083540402835291602001916108a3565b820191906000526020600020905b81548152906001019060200180831161088657829003601f168201915b5050505050905090565b60006108b8826118bb565b6004600083815260200190815260200160002060009054906101000a900473ffffffffffffffffffffffffffffffffffffffff169050919050565b60006108fe826111a2565b90508073ffffffffffffffffffffffffffffffffffffffff168373ffffffffffffffffffffffffffffffffffffffff160361096e576040517f08c379a000000000000000000000000000000000000000000000000000000000815260040161096590613d5d565b60405180910390fd5b8073ffffffffffffffffffffffffffffffffffffffff1661098d611906565b73ffffffffffffffffffffffffffffffffffffffff1614806109bc57506109bb816109b6611906565b6116d3565b5b6109fb576040517f08c379a00000000000000000000000000000000000000000000000000000000081526004016109f290613def565b60405180910390fd5b610a05838361190e565b505050565b848484848460006001811115610a2357610a226132cd565b5b60ff168560ff1610158015610a505750600180811115610a4657610a456132cd565b5b60ff168560ff1611155b610a8f576040517f08c379a0000000000000000000000000000000000000000000000000000000008152600401610a8690613e5b565b60405180910390fd5b6002845111610ad3576040517f08c379a0000000000000000000000000000000000000000000000000000000008152600401610aca90613eed565b60405180910390fd5b60008361ffff1611610b1a576040517f08c379a0000000000000000000000000000000000000000000000000000000008152600401610b1190613f7f565b60405180910390fd5b6000825111610b5e576040517f08c379a0000000000000000000000000000000000000000000000000000000008152600401610b5590614011565b60405180910390fd5b6003815111610ba2576040517f08c379a0000000000000000000000000000000000000000000000000000000008152600401610b99906140a3565b60405180910390fd5b60008a8a8a8a8a604051602001610bbd95949392919061416b565b6040516020818303038152906040528051906020012060001c9050600d600082815260200190815260200160002060009054906101000a900460ff1615610c39576040517f08c379a0000000000000000000000000000000000000000000000000000000008152600401610c3090614230565b60405180910390fd5b6000610c45600b6119c7565b9050610c51600b6117ea565b600060405180606001604052808381526020018e60ff166001811115610c7a57610c796132cd565b5b6001811115610c8c57610c8b6132cd565b5b815260200160405180608001604052808f81526020018e61ffff1681526020018d81526020018c8152508152509050610cc533836119d5565b80600c60008481526020019081526020016000206000820151816000015560208201518160010160006101000a81548160ff02191690836001811115610d0e57610d0d6132cd565b5b02179055506040820151816002016000820151816000019081610d3191906143fc565b5060208201518160010160006101000a81548161ffff021916908361ffff1602179055506040820151816002019081610d6a91906143fc565b506060820151816003019081610d8091906143fc565b5050509050506001600d600085815260200190815260200160002060006101000a81548160ff0219169083151502179055507fe9667cd49094a292b02a1d8555f54c265b42912082c2f32b2050393b06d8359882604051610de19190613880565b60405180910390a150505050505050505050505050565b6000600880549050905090565b610e16610e10611906565b826119f3565b610e55576040517f08c379a0000000000000000000000000000000000000000000000000000000008152600401610e4c90614540565b60405180910390fd5b610e60838383611a88565b505050565b60606000610e71610df8565b67ffffffffffffffff811115610e8a57610e8961364b565b5b604051908082528060200260200182016040528015610ec357816020015b610eb06130ca565b815260200190600190039081610ea85790505b50905060005b610ed1610df8565b811015610f1a57610ee9610ee48261111a565b610575565b828281518110610efc57610efb614560565b5b60200260200101819052508080610f12906145be565b915050610ec9565b508091505090565b6000610f2d83611228565b8210610f6e576040517f08c379a0000000000000000000000000000000000000000000000000000000008152600401610f6590614678565b60405180910390fd5b600660008473ffffffffffffffffffffffffffffffffffffffff1673ffffffffffffffffffffffffffffffffffffffff168152602001908152602001600020600083815260200190815260200160002054905092915050565b610fcf611d81565b610fd7611dff565b565b80610fe38161187a565b611022576040517f08c379a000000000000000000000000000000000000000000000000000000000815260040161101990613c6b565b60405180910390fd5b813373ffffffffffffffffffffffffffffffffffffffff16611043826111a2565b73ffffffffffffffffffffffffffffffffffffffff1614611099576040517f08c379a0000000000000000000000000000000000000000000000000000000008152600401611090906146e4565b60405180910390fd5b505050565b6110b983838360405180602001604052806000815250611609565b505050565b6110cf6110c9611906565b826119f3565b61110e576040517f08c379a000000000000000000000000000000000000000000000000000000000815260040161110590614540565b60405180910390fd5b61111781611e62565b50565b6000611124610df8565b8210611165576040517f08c379a000000000000000000000000000000000000000000000000000000000815260040161115c90614776565b60405180910390fd5b6008828154811061117957611178614560565b5b90600052602060002001549050919050565b6000600a60009054906101000a900460ff16905090565b6000806111ae83611fb0565b9050600073ffffffffffffffffffffffffffffffffffffffff168173ffffffffffffffffffffffffffffffffffffffff160361121f576040517f08c379a0000000000000000000000000000000000000000000000000000000008152600401611216906147e2565b60405180910390fd5b80915050919050565b60008073ffffffffffffffffffffffffffffffffffffffff168273ffffffffffffffffffffffffffffffffffffffff1603611298576040517f08c379a000000000000000000000000000000000000000000000000000000000815260040161128f90614874565b60405180910390fd5b600360008373ffffffffffffffffffffffffffffffffffffffff1673ffffffffffffffffffffffffffffffffffffffff168152602001908152602001600020549050919050565b6112e7611d81565b6112f16000611fed565b565b806112fd8161187a565b61133c576040517f08c379a000000000000000000000000000000000000000000000000000000000815260040161133390613c6b565b60405180910390fd5b813373ffffffffffffffffffffffffffffffffffffffff1661135d826111a2565b73ffffffffffffffffffffffffffffffffffffffff16146113b3576040517f08c379a00000000000000000000000000000000000000000000000000000000081526004016113aa906146e4565b60405180910390fd5b6113bc836110be565b600d6000600c600086815260200190815260200160002060010160009054906101000a900460ff16600c6000878152602001908152602001600020600201600001600c600088815260200190815260200160002060020160010160009054906101000a900461ffff16600c6000898152602001908152602001600020600201600201600c60008a815260200190815260200160002060020160030160405160200161146b95949392919061492e565b6040516020818303038152906040528051906020012060001c815260200190815260200160002060006101000a81549060ff0219169055600c60008481526020019081526020016000206000808201600090556001820160006101000a81549060ff021916905560028201600080820160006114e79190613103565b6001820160006101000a81549061ffff021916905560028201600061150c9190613103565b60038201600061151c9190613103565b50505050505050565b61152d611d81565b6115356120b3565b565b6000600a60019054906101000a900473ffffffffffffffffffffffffffffffffffffffff16905090565b60606001805461157090613cba565b80601f016020809104026020016040519081016040528092919081815260200182805461159c90613cba565b80156115e95780601f106115be576101008083540402835291602001916115e9565b820191906000526020600020905b8154815290600101906020018083116115cc57829003601f168201915b5050505050905090565b6116056115fe611906565b8383612116565b5050565b61161a611614611906565b836119f3565b611659576040517f08c379a000000000000000000000000000000000000000000000000000000000815260040161165090614540565b60405180910390fd5b61166584848484612282565b50505050565b6060611676826118bb565b60006116806122de565b905060008151116116a057604051806020016040528060008152506116cb565b806116aa846122fe565b6040516020016116bb929190614981565b6040516020818303038152906040525b915050919050565b6000600560008473ffffffffffffffffffffffffffffffffffffffff1673ffffffffffffffffffffffffffffffffffffffff16815260200190815260200160002060008373ffffffffffffffffffffffffffffffffffffffff1673ffffffffffffffffffffffffffffffffffffffff16815260200190815260200160002060009054906101000a900460ff16905092915050565b61176f611d81565b600073ffffffffffffffffffffffffffffffffffffffff168173ffffffffffffffffffffffffffffffffffffffff16036117de576040517f08c379a00000000000000000000000000000000000000000000000000000000081526004016117d590614a17565b60405180910390fd5b6117e781611fed565b50565b6001816000016000828254019250508190555050565b60007f780e9d63000000000000000000000000000000000000000000000000000000007bffffffffffffffffffffffffffffffffffffffffffffffffffffffff1916827bffffffffffffffffffffffffffffffffffffffffffffffffffffffff191614806118735750611872826123cc565b5b9050919050565b60008073ffffffffffffffffffffffffffffffffffffffff1661189c83611fb0565b73ffffffffffffffffffffffffffffffffffffffff1614159050919050565b6118c48161187a565b611903576040517f08c379a00000000000000000000000000000000000000000000000000000000081526004016118fa906147e2565b60405180910390fd5b50565b600033905090565b816004600083815260200190815260200160002060006101000a81548173ffffffffffffffffffffffffffffffffffffffff021916908373ffffffffffffffffffffffffffffffffffffffff160217905550808273ffffffffffffffffffffffffffffffffffffffff16611981836111a2565b73ffffffffffffffffffffffffffffffffffffffff167f8c5be1e5ebec7d5bd14f71427d1e84f3dd0314c0f7b2291e5b200ac8c7c3b92560405160405180910390a45050565b600081600001549050919050565b6119ef8282604051806020016040528060008152506124ae565b5050565b6000806119ff836111a2565b90508073ffffffffffffffffffffffffffffffffffffffff168473ffffffffffffffffffffffffffffffffffffffff161480611a415750611a4081856116d3565b5b80611a7f57508373ffffffffffffffffffffffffffffffffffffffff16611a67846108ad565b73ffffffffffffffffffffffffffffffffffffffff16145b91505092915050565b8273ffffffffffffffffffffffffffffffffffffffff16611aa8826111a2565b73ffffffffffffffffffffffffffffffffffffffff1614611afe576040517f08c379a0000000000000000000000000000000000000000000000000000000008152600401611af590614aa9565b60405180910390fd5b600073ffffffffffffffffffffffffffffffffffffffff168273ffffffffffffffffffffffffffffffffffffffff1603611b6d576040517f08c379a0000000000000000000000000000000000000000000000000000000008152600401611b6490614b3b565b60405180910390fd5b611b7a8383836001612509565b8273ffffffffffffffffffffffffffffffffffffffff16611b9a826111a2565b73ffffffffffffffffffffffffffffffffffffffff1614611bf0576040517f08c379a0000000000000000000000000000000000000000000000000000000008152600401611be790614aa9565b60405180910390fd5b6004600082815260200190815260200160002060006101000a81549073ffffffffffffffffffffffffffffffffffffffff02191690556001600360008573ffffffffffffffffffffffffffffffffffffffff1673ffffffffffffffffffffffffffffffffffffffff168152602001908152602001600020600082825403925050819055506001600360008473ffffffffffffffffffffffffffffffffffffffff1673ffffffffffffffffffffffffffffffffffffffff16815260200190815260200160002060008282540192505081905550816002600083815260200190815260200160002060006101000a81548173ffffffffffffffffffffffffffffffffffffffff021916908373ffffffffffffffffffffffffffffffffffffffff160217905550808273ffffffffffffffffffffffffffffffffffffffff168473ffffffffffffffffffffffffffffffffffffffff167fddf252ad1be2c89b69c2b068fc378daa952ba7f163c4a11628f55a4df523b3ef60405160405180910390a4611d7c8383836001612523565b505050565b611d89611906565b73ffffffffffffffffffffffffffffffffffffffff16611da7611537565b73ffffffffffffffffffffffffffffffffffffffff1614611dfd576040517f08c379a0000000000000000000000000000000000000000000000000000000008152600401611df490614ba7565b60405180910390fd5b565b611e07612529565b6000600a60006101000a81548160ff0219169083151502179055507f5db9ee0a495bf2e6ff9c91a7834c1ba4fdd244a5e8aa4e537bd38aeae4b073aa611e4b611906565b604051611e589190613581565b60405180910390a1565b6000611e6d826111a2565b9050611e7d816000846001612509565b611e86826111a2565b90506004600083815260200190815260200160002060006101000a81549073ffffffffffffffffffffffffffffffffffffffff02191690556001600360008373ffffffffffffffffffffffffffffffffffffffff1673ffffffffffffffffffffffffffffffffffffffff168152602001908152602001600020600082825403925050819055506002600083815260200190815260200160002060006101000a81549073ffffffffffffffffffffffffffffffffffffffff021916905581600073ffffffffffffffffffffffffffffffffffffffff168273ffffffffffffffffffffffffffffffffffffffff167fddf252ad1be2c89b69c2b068fc378daa952ba7f163c4a11628f55a4df523b3ef60405160405180910390a4611fac816000846001612523565b5050565b60006002600083815260200190815260200160002060009054906101000a900473ffffffffffffffffffffffffffffffffffffffff169050919050565b6000600a60019054906101000a900473ffffffffffffffffffffffffffffffffffffffff16905081600a60016101000a81548173ffffffffffffffffffffffffffffffffffffffff021916908373ffffffffffffffffffffffffffffffffffffffff1602179055508173ffffffffffffffffffffffffffffffffffffffff168173ffffffffffffffffffffffffffffffffffffffff167f8be0079c531659141344cd1fd0a4f28419497f9722a3daafe3b4186f6b6457e060405160405180910390a35050565b6120bb612572565b6001600a60006101000a81548160ff0219169083151502179055507f62e78cea01bee320cd4e420270b5ea74000d11b0c9f74754ebdbfc544b05a2586120ff611906565b60405161210c9190613581565b60405180910390a1565b8173ffffffffffffffffffffffffffffffffffffffff168373ffffffffffffffffffffffffffffffffffffffff1603612184576040517f08c379a000000000000000000000000000000000000000000000000000000000815260040161217b90614c13565b60405180910390fd5b80600560008573ffffffffffffffffffffffffffffffffffffffff1673ffffffffffffffffffffffffffffffffffffffff16815260200190815260200160002060008473ffffffffffffffffffffffffffffffffffffffff1673ffffffffffffffffffffffffffffffffffffffff16815260200190815260200160002060006101000a81548160ff0219169083151502179055508173ffffffffffffffffffffffffffffffffffffffff168373ffffffffffffffffffffffffffffffffffffffff167f17307eab39ab6107e8899845ad3d59bd9653f200f220920489ca2b5937696c31836040516122759190613240565b60405180910390a3505050565b61228d848484611a88565b612299848484846125bc565b6122d8576040517f08c379a00000000000000000000000000000000000000000000000000000000081526004016122cf90614ca5565b60405180910390fd5b50505050565b60606040518060600160405280603481526020016150b160349139905090565b60606000600161230d84612743565b01905060008167ffffffffffffffff81111561232c5761232b61364b565b5b6040519080825280601f01601f19166020018201604052801561235e5781602001600182028036833780820191505090505b509050600082602001820190505b6001156123c1578080600190039150507f3031323334353637383961626364656600000000000000000000000000000000600a86061a8153600a85816123b5576123b4614cc5565b5b0494506000850361236c575b819350505050919050565b60007f80ac58cd000000000000000000000000000000000000000000000000000000007bffffffffffffffffffffffffffffffffffffffffffffffffffffffff1916827bffffffffffffffffffffffffffffffffffffffffffffffffffffffff1916148061249757507f5b5e139f000000000000000000000000000000000000000000000000000000007bffffffffffffffffffffffffffffffffffffffffffffffffffffffff1916827bffffffffffffffffffffffffffffffffffffffffffffffffffffffff1916145b806124a757506124a682612896565b5b9050919050565b6124b88383612900565b6124c560008484846125bc565b612504576040517f08c379a00000000000000000000000000000000000000000000000000000000081526004016124fb90614ca5565b60405180910390fd5b505050565b612511612572565b61251d84848484612b1d565b50505050565b50505050565b61253161118b565b612570576040517f08c379a000000000000000000000000000000000000000000000000000000000815260040161256790614d40565b60405180910390fd5b565b61257a61118b565b156125ba576040517f08c379a00000000000000000000000000000000000000000000000000000000081526004016125b190614dac565b60405180910390fd5b565b60006125dd8473ffffffffffffffffffffffffffffffffffffffff16612c7b565b15612736578373ffffffffffffffffffffffffffffffffffffffff1663150b7a02612606611906565b8786866040518563ffffffff1660e01b81526004016126289493929190614e21565b6020604051808303816000875af192505050801561266457506040513d601f19601f820116820180604052508101906126619190614e82565b60015b6126e6573d8060008114612694576040519150601f19603f3d011682016040523d82523d6000602084013e612699565b606091505b5060008151036126de576040517f08c379a00000000000000000000000000000000000000000000000000000000081526004016126d590614ca5565b60405180910390fd5b805181602001fd5b63150b7a0260e01b7bffffffffffffffffffffffffffffffffffffffffffffffffffffffff1916817bffffffffffffffffffffffffffffffffffffffffffffffffffffffff19161491505061273b565b600190505b949350505050565b600080600090507a184f03e93ff9f4daa797ed6e38ed64bf6a1f01000000000000000083106127a1577a184f03e93ff9f4daa797ed6e38ed64bf6a1f010000000000000000838161279757612796614cc5565b5b0492506040810190505b6d04ee2d6d415b85acef810000000083106127de576d04ee2d6d415b85acef810000000083816127d4576127d3614cc5565b5b0492506020810190505b662386f26fc10000831061280d57662386f26fc10000838161280357612802614cc5565b5b0492506010810190505b6305f5e1008310612836576305f5e100838161282c5761282b614cc5565b5b0492506008810190505b612710831061285b57612710838161285157612850614cc5565b5b0492506004810190505b6064831061287e576064838161287457612873614cc5565b5b0492506002810190505b600a831061288d576001810190505b80915050919050565b60007f01ffc9a7000000000000000000000000000000000000000000000000000000007bffffffffffffffffffffffffffffffffffffffffffffffffffffffff1916827bffffffffffffffffffffffffffffffffffffffffffffffffffffffff1916149050919050565b600073ffffffffffffffffffffffffffffffffffffffff168273ffffffffffffffffffffffffffffffffffffffff160361296f576040517f08c379a000000000000000000000000000000000000000000000000000000000815260040161296690614efb565b60405180910390fd5b6129788161187a565b156129b8576040517f08c379a00000000000000000000000000000000000000000000000000000000081526004016129af90614f67565b60405180910390fd5b6129c6600083836001612509565b6129cf8161187a565b15612a0f576040517f08c379a0000000000000000000000000000000000000000000000000000000008152600401612a0690614f67565b60405180910390fd5b6001600360008473ffffffffffffffffffffffffffffffffffffffff1673ffffffffffffffffffffffffffffffffffffffff16815260200190815260200160002060008282540192505081905550816002600083815260200190815260200160002060006101000a81548173ffffffffffffffffffffffffffffffffffffffff021916908373ffffffffffffffffffffffffffffffffffffffff160217905550808273ffffffffffffffffffffffffffffffffffffffff16600073ffffffffffffffffffffffffffffffffffffffff167fddf252ad1be2c89b69c2b068fc378daa952ba7f163c4a11628f55a4df523b3ef60405160405180910390a4612b19600083836001612523565b5050565b612b2984848484612c9e565b6001811115612b6d576040517f08c379a0000000000000000000000000000000000000000000000000000000008152600401612b6490614ff9565b60405180910390fd5b6000829050600073ffffffffffffffffffffffffffffffffffffffff168573ffffffffffffffffffffffffffffffffffffffff1603612bb457612baf81612dc4565b612bf3565b8373ffffffffffffffffffffffffffffffffffffffff168573ffffffffffffffffffffffffffffffffffffffff1614612bf257612bf18582612e0d565b5b5b600073ffffffffffffffffffffffffffffffffffffffff168473ffffffffffffffffffffffffffffffffffffffff1603612c3557612c3081612f7a565b612c74565b8473ffffffffffffffffffffffffffffffffffffffff168473ffffffffffffffffffffffffffffffffffffffff1614612c7357612c72848261304b565b5b5b5050505050565b6000808273ffffffffffffffffffffffffffffffffffffffff163b119050919050565b6001811115612dbe57600073ffffffffffffffffffffffffffffffffffffffff168473ffffffffffffffffffffffffffffffffffffffff1614612d325780600360008673ffffffffffffffffffffffffffffffffffffffff1673ffffffffffffffffffffffffffffffffffffffff1681526020019081526020016000206000828254612d2a9190615019565b925050819055505b600073ffffffffffffffffffffffffffffffffffffffff168373ffffffffffffffffffffffffffffffffffffffff1614612dbd5780600360008573ffffffffffffffffffffffffffffffffffffffff1673ffffffffffffffffffffffffffffffffffffffff1681526020019081526020016000206000828254612db5919061504d565b925050819055505b5b50505050565b6008805490506009600083815260200190815260200160002081905550600881908060018154018082558091505060019003906000526020600020016000909190919091505550565b60006001612e1a84611228565b612e249190615019565b9050600060076000848152602001908152602001600020549050818114612f09576000600660008673ffffffffffffffffffffffffffffffffffffffff1673ffffffffffffffffffffffffffffffffffffffff168152602001908152602001600020600084815260200190815260200160002054905080600660008773ffffffffffffffffffffffffffffffffffffffff1673ffffffffffffffffffffffffffffffffffffffff168152602001908152602001600020600084815260200190815260200160002081905550816007600083815260200190815260200160002081905550505b6007600084815260200190815260200160002060009055600660008573ffffffffffffffffffffffffffffffffffffffff1673ffffffffffffffffffffffffffffffffffffffff16815260200190815260200160002060008381526020019081526020016000206000905550505050565b60006001600880549050612f8e9190615019565b9050600060096000848152602001908152602001600020549050600060088381548110612fbe57612fbd614560565b5b906000526020600020015490508060088381548110612fe057612fdf614560565b5b90600052602060002001819055508160096000838152602001908152602001600020819055506009600085815260200190815260200160002060009055600880548061302f5761302e615081565b5b6001900381819060005260206000200160009055905550505050565b600061305683611228565b905081600660008573ffffffffffffffffffffffffffffffffffffffff1673ffffffffffffffffffffffffffffffffffffffff168152602001908152602001600020600083815260200190815260200160002081905550806007600084815260200190815260200160002081905550505050565b604051806060016040528060008152602001600060018111156130f0576130ef6132cd565b5b81526020016130fd613143565b81525090565b50805461310f90613cba565b6000825580601f106131215750613140565b601f01602090049060005260206000209081019061313f919061316f565b5b50565b604051806080016040528060608152602001600061ffff16815260200160608152602001606081525090565b5b80821115613188576000816000905550600101613170565b5090565b6000604051905090565b600080fd5b600080fd5b60007fffffffff0000000000000000000000000000000000000000000000000000000082169050919050565b6131d5816131a0565b81146131e057600080fd5b50565b6000813590506131f2816131cc565b92915050565b60006020828403121561320e5761320d613196565b5b600061321c848285016131e3565b91505092915050565b60008115159050919050565b61323a81613225565b82525050565b60006020820190506132556000830184613231565b92915050565b6000819050919050565b61326e8161325b565b811461327957600080fd5b50565b60008135905061328b81613265565b92915050565b6000602082840312156132a7576132a6613196565b5b60006132b58482850161327c565b91505092915050565b6132c78161325b565b82525050565b7f4e487b7100000000000000000000000000000000000000000000000000000000600052602160045260246000fd5b6002811061330d5761330c6132cd565b5b50565b600081905061331e826132fc565b919050565b600061332e82613310565b9050919050565b61333e81613323565b82525050565b600081519050919050565b600082825260208201905092915050565b60005b8381101561337e578082015181840152602081019050613363565b60008484015250505050565b6000601f19601f8301169050919050565b60006133a682613344565b6133b0818561334f565b93506133c0818560208601613360565b6133c98161338a565b840191505092915050565b600061ffff82169050919050565b6133eb816133d4565b82525050565b6000608083016000830151848203600086015261340e828261339b565b915050602083015161342360208601826133e2565b506040830151848203604086015261343b828261339b565b91505060608301518482036060860152613455828261339b565b9150508091505092915050565b600060608301600083015161347a60008601826132be565b50602083015161348d6020860182613335565b50604083015184820360408601526134a582826133f1565b9150508091505092915050565b600060208201905081810360008301526134cc8184613462565b905092915050565b600082825260208201905092915050565b60006134f082613344565b6134fa81856134d4565b935061350a818560208601613360565b6135138161338a565b840191505092915050565b6000602082019050818103600083015261353881846134e5565b905092915050565b600073ffffffffffffffffffffffffffffffffffffffff82169050919050565b600061356b82613540565b9050919050565b61357b81613560565b82525050565b60006020820190506135966000830184613572565b92915050565b6135a581613560565b81146135b057600080fd5b50565b6000813590506135c28161359c565b92915050565b600080604083850312156135df576135de613196565b5b60006135ed858286016135b3565b92505060206135fe8582860161327c565b9150509250929050565b600060ff82169050919050565b61361e81613608565b811461362957600080fd5b50565b60008135905061363b81613615565b92915050565b600080fd5b600080fd5b7f4e487b7100000000000000000000000000000000000000000000000000000000600052604160045260246000fd5b6136838261338a565b810181811067ffffffffffffffff821117156136a2576136a161364b565b5b80604052505050565b60006136b561318c565b90506136c1828261367a565b919050565b600067ffffffffffffffff8211156136e1576136e061364b565b5b6136ea8261338a565b9050602081019050919050565b82818337600083830152505050565b6000613719613714846136c6565b6136ab565b90508281526020810184848401111561373557613734613646565b5b6137408482856136f7565b509392505050565b600082601f83011261375d5761375c613641565b5b813561376d848260208601613706565b91505092915050565b61377f816133d4565b811461378a57600080fd5b50565b60008135905061379c81613776565b92915050565b600080600080600060a086880312156137be576137bd613196565b5b60006137cc8882890161362c565b955050602086013567ffffffffffffffff8111156137ed576137ec61319b565b5b6137f988828901613748565b945050604061380a8882890161378d565b935050606086013567ffffffffffffffff81111561382b5761382a61319b565b5b61383788828901613748565b925050608086013567ffffffffffffffff8111156138585761385761319b565b5b61386488828901613748565b9150509295509295909350565b61387a8161325b565b82525050565b60006020820190506138956000830184613871565b92915050565b6000806000606084860312156138b4576138b3613196565b5b60006138c2868287016135b3565b93505060206138d3868287016135b3565b92505060406138e48682870161327c565b9150509250925092565b600081519050919050565b600082825260208201905092915050565b6000819050602082019050919050565b600060608301600083015161393260008601826132be565b5060208301516139456020860182613335565b506040830151848203604086015261395d82826133f1565b9150508091505092915050565b6000613976838361391a565b905092915050565b6000602082019050919050565b6000613996826138ee565b6139a081856138f9565b9350836020820285016139b28561390a565b8060005b858110156139ee57848403895281516139cf858261396a565b94506139da8361397e565b925060208a019950506001810190506139b6565b50829750879550505050505092915050565b60006020820190508181036000830152613a1a818461398b565b905092915050565b600060208284031215613a3857613a37613196565b5b6000613a46848285016135b3565b91505092915050565b613a5881613225565b8114613a6357600080fd5b50565b600081359050613a7581613a4f565b92915050565b60008060408385031215613a9257613a91613196565b5b6000613aa0858286016135b3565b9250506020613ab185828601613a66565b9150509250929050565b600067ffffffffffffffff821115613ad657613ad561364b565b5b613adf8261338a565b9050602081019050919050565b6000613aff613afa84613abb565b6136ab565b905082815260208101848484011115613b1b57613b1a613646565b5b613b268482856136f7565b509392505050565b600082601f830112613b4357613b42613641565b5b8135613b53848260208601613aec565b91505092915050565b60008060008060808587031215613b7657613b75613196565b5b6000613b84878288016135b3565b9450506020613b95878288016135b3565b9350506040613ba68782880161327c565b925050606085013567ffffffffffffffff811115613bc757613bc661319b565b5b613bd387828801613b2e565b91505092959194509250565b60008060408385031215613bf657613bf5613196565b5b6000613c04858286016135b3565b9250506020613c15858286016135b3565b9150509250929050565b7f546f6b656e20646f6573206e6f74206578697374210000000000000000000000600082015250565b6000613c556015836134d4565b9150613c6082613c1f565b602082019050919050565b60006020820190508181036000830152613c8481613c48565b9050919050565b7f4e487b7100000000000000000000000000000000000000000000000000000000600052602260045260246000fd5b60006002820490506001821680613cd257607f821691505b602082108103613ce557613ce4613c8b565b5b50919050565b7f4552433732313a20617070726f76616c20746f2063757272656e74206f776e6560008201527f7200000000000000000000000000000000000000000000000000000000000000602082015250565b6000613d476021836134d4565b9150613d5282613ceb565b604082019050919050565b60006020820190508181036000830152613d7681613d3a565b9050919050565b7f4552433732313a20617070726f76652063616c6c6572206973206e6f7420746f60008201527f6b656e206f776e6572206f7220617070726f76656420666f7220616c6c000000602082015250565b6000613dd9603d836134d4565b9150613de482613d7d565b604082019050919050565b60006020820190508181036000830152613e0881613dcc565b9050919050565b7f496e76616c69642061737365742063617465676f727921000000000000000000600082015250565b6000613e456017836134d4565b9150613e5082613e0f565b602082019050919050565b60006020820190508181036000830152613e7481613e38565b9050919050565b7f537472656574206e616d652073686f756c64206265206174206c65617374203360008201527f2063686172616374657273206c6f6e6721000000000000000000000000000000602082015250565b6000613ed76031836134d4565b9150613ee282613e7b565b604082019050919050565b60006020820190508181036000830152613f0681613eca565b9050919050565b7f537472656574206e756d6265722073686f756c64206265206174206c6561737460008201527f2031210000000000000000000000000000000000000000000000000000000000602082015250565b6000613f696023836134d4565b9150613f7482613f0d565b604082019050919050565b60006020820190508181036000830152613f9881613f5c565b9050919050565b7f43697479206e616d652073686f756c64206265206174206c656173742031206360008201527f6861726163746572206c6f6e6721000000000000000000000000000000000000602082015250565b6000613ffb602e836134d4565b915061400682613f9f565b604082019050919050565b6000602082019050818103600083015261402a81613fee565b9050919050565b7f436f756e747279206e616d652073686f756c64206265206174206c656173742060008201527f342063686172616374657273206c6f6e67210000000000000000000000000000602082015250565b600061408d6032836134d4565b915061409882614031565b604082019050919050565b600060208201905081810360008301526140bc81614080565b9050919050565b60008160f81b9050919050565b60006140db826140c3565b9050919050565b6140f36140ee82613608565b6140d0565b82525050565b600081905092915050565b600061410f82613344565b61411981856140f9565b9350614129818560208601613360565b80840191505092915050565b60008160f01b9050919050565b600061414d82614135565b9050919050565b614165614160826133d4565b614142565b82525050565b600061417782886140e2565b6001820191506141878287614104565b91506141938286614154565b6002820191506141a38285614104565b91506141af8284614104565b91508190509695505050505050565b7f417373657420776974682074686973206c6f636174696f6e20616c726561647960008201527f2065786973747321000000000000000000000000000000000000000000000000602082015250565b600061421a6028836134d4565b9150614225826141be565b604082019050919050565b600060208201905081810360008301526142498161420d565b9050919050565b60008190508160005260206000209050919050565b60006020601f8301049050919050565b600082821b905092915050565b6000600883026142b27fffffffffffffffffffffffffffffffffffffffffffffffffffffffffffffffff82614275565b6142bc8683614275565b95508019841693508086168417925050509392505050565b6000819050919050565b60006142f96142f46142ef8461325b565b6142d4565b61325b565b9050919050565b6000819050919050565b614313836142de565b61432761431f82614300565b848454614282565b825550505050565b600090565b61433c61432f565b61434781848461430a565b505050565b5b8181101561436b57614360600082614334565b60018101905061434d565b5050565b601f8211156143b05761438181614250565b61438a84614265565b81016020851015614399578190505b6143ad6143a585614265565b83018261434c565b50505b505050565b600082821c905092915050565b60006143d3600019846008026143b5565b1980831691505092915050565b60006143ec83836143c2565b9150826002028217905092915050565b61440582613344565b67ffffffffffffffff81111561441e5761441d61364b565b5b6144288254613cba565b61443382828561436f565b600060209050601f8311600181146144665760008415614454578287015190505b61445e85826143e0565b8655506144c6565b601f19841661447486614250565b60005b8281101561449c57848901518255600182019150602085019450602081019050614477565b868310156144b957848901516144b5601f8916826143c2565b8355505b6001600288020188555050505b505050505050565b7f4552433732313a2063616c6c6572206973206e6f7420746f6b656e206f776e6560008201527f72206f7220617070726f76656400000000000000000000000000000000000000602082015250565b600061452a602d836134d4565b9150614535826144ce565b604082019050919050565b600060208201905081810360008301526145598161451d565b9050919050565b7f4e487b7100000000000000000000000000000000000000000000000000000000600052603260045260246000fd5b7f4e487b7100000000000000000000000000000000000000000000000000000000600052601160045260246000fd5b60006145c98261325b565b91507fffffffffffffffffffffffffffffffffffffffffffffffffffffffffffffffff82036145fb576145fa61458f565b5b600182019050919050565b7f455243373231456e756d657261626c653a206f776e657220696e646578206f7560008201527f74206f6620626f756e6473000000000000000000000000000000000000000000602082015250565b6000614662602b836134d4565b915061466d82614606565b604082019050919050565b6000602082019050818103600083015261469181614655565b9050919050565b7f43616c6c657220646f6573206e6f74206f776e20417373657421000000000000600082015250565b60006146ce601a836134d4565b91506146d982614698565b602082019050919050565b600060208201905081810360008301526146fd816146c1565b9050919050565b7f455243373231456e756d657261626c653a20676c6f62616c20696e646578206f60008201527f7574206f6620626f756e64730000000000000000000000000000000000000000602082015250565b6000614760602c836134d4565b915061476b82614704565b604082019050919050565b6000602082019050818103600083015261478f81614753565b9050919050565b7f4552433732313a20696e76616c696420746f6b656e2049440000000000000000600082015250565b60006147cc6018836134d4565b91506147d782614796565b602082019050919050565b600060208201905081810360008301526147fb816147bf565b9050919050565b7f4552433732313a2061646472657373207a65726f206973206e6f74206120766160008201527f6c6964206f776e65720000000000000000000000000000000000000000000000602082015250565b600061485e6029836134d4565b915061486982614802565b604082019050919050565b6000602082019050818103600083015261488d81614851565b9050919050565b6148a56148a082613323565b6140d0565b82525050565b600081546148b881613cba565b6148c281866140f9565b945060018216600081146148dd57600181146148f257614925565b60ff1983168652811515820286019350614925565b6148fb85614250565b60005b8381101561491d578154818901526001820191506020810190506148fe565b838801955050505b50505092915050565b600061493a8288614894565b60018201915061494a82876148ab565b91506149568286614154565b60028201915061496682856148ab565b915061497282846148ab565b91508190509695505050505050565b600061498d8285614104565b91506149998284614104565b91508190509392505050565b7f4f776e61626c653a206e6577206f776e657220697320746865207a65726f206160008201527f6464726573730000000000000000000000000000000000000000000000000000602082015250565b6000614a016026836134d4565b9150614a0c826149a5565b604082019050919050565b60006020820190508181036000830152614a30816149f4565b9050919050565b7f4552433732313a207472616e736665722066726f6d20696e636f72726563742060008201527f6f776e6572000000000000000000000000000000000000000000000000000000602082015250565b6000614a936025836134d4565b9150614a9e82614a37565b604082019050919050565b60006020820190508181036000830152614ac281614a86565b9050919050565b7f4552433732313a207472616e7366657220746f20746865207a65726f2061646460008201527f7265737300000000000000000000000000000000000000000000000000000000602082015250565b6000614b256024836134d4565b9150614b3082614ac9565b604082019050919050565b60006020820190508181036000830152614b5481614b18565b9050919050565b7f4f776e61626c653a2063616c6c6572206973206e6f7420746865206f776e6572600082015250565b6000614b916020836134d4565b9150614b9c82614b5b565b602082019050919050565b60006020820190508181036000830152614bc081614b84565b9050919050565b7f4552433732313a20617070726f766520746f2063616c6c657200000000000000600082015250565b6000614bfd6019836134d4565b9150614c0882614bc7565b602082019050919050565b60006020820190508181036000830152614c2c81614bf0565b9050919050565b7f4552433732313a207472616e7366657220746f206e6f6e20455243373231526560008201527f63656976657220696d706c656d656e7465720000000000000000000000000000602082015250565b6000614c8f6032836134d4565b9150614c9a82614c33565b604082019050919050565b60006020820190508181036000830152614cbe81614c82565b9050919050565b7f4e487b7100000000000000000000000000000000000000000000000000000000600052601260045260246000fd5b7f5061757361626c653a206e6f7420706175736564000000000000000000000000600082015250565b6000614d2a6014836134d4565b9150614d3582614cf4565b602082019050919050565b60006020820190508181036000830152614d5981614d1d565b9050919050565b7f5061757361626c653a2070617573656400000000000000000000000000000000600082015250565b6000614d966010836134d4565b9150614da182614d60565b602082019050919050565b60006020820190508181036000830152614dc581614d89565b9050919050565b600081519050919050565b600082825260208201905092915050565b6000614df382614dcc565b614dfd8185614dd7565b9350614e0d818560208601613360565b614e168161338a565b840191505092915050565b6000608082019050614e366000830187613572565b614e436020830186613572565b614e506040830185613871565b8181036060830152614e628184614de8565b905095945050505050565b600081519050614e7c816131cc565b92915050565b600060208284031215614e9857614e97613196565b5b6000614ea684828501614e6d565b91505092915050565b7f4552433732313a206d696e7420746f20746865207a65726f2061646472657373600082015250565b6000614ee56020836134d4565b9150614ef082614eaf565b602082019050919050565b60006020820190508181036000830152614f1481614ed8565b9050919050565b7f4552433732313a20746f6b656e20616c7265616479206d696e74656400000000600082015250565b6000614f51601c836134d4565b9150614f5c82614f1b565b602082019050919050565b60006020820190508181036000830152614f8081614f44565b9050919050565b7f455243373231456e756d657261626c653a20636f6e736563757469766520747260008201527f616e7366657273206e6f7420737570706f727465640000000000000000000000602082015250565b6000614fe36035836134d4565b9150614fee82614f87565b604082019050919050565b6000602082019050818103600083015261501281614fd6565b9050919050565b60006150248261325b565b915061502f8361325b565b92508282039050818111156150475761504661458f565b5b92915050565b60006150588261325b565b91506150638361325b565b925082820190508082111561507b5761507a61458f565b5b92915050565b7f4e487b7100000000000000000000000000000000000000000000000000000000600052603160045260246000fdfe68747470733a2f2f626c6f636b6573746174652e616c65786f6368732e64652f6170692f6d657461646174612f6173736574732fa264697066735822122022bfa28ce5443d4e60ce87ce30ec6966998f1578ea6ae3d03a7395509397612b64736f6c63430008120033",
  "linkReferences": {},
  "deployedLinkReferences": {}
}