{
  "_format": "hh-sol-artifact-1",
  "contractName": "BlockEstateMarket",
  "sourceName": "contracts/BlockEstateMarket.sol",
  "abi": [
    {
      "inputs": [
        {
          "internalType": "address",
          "name": "_blockEstateAssetsAddress",
          "type": "address"
        },
        {
          "internalType": "address",
          "name": "_blockEstateSharesAddress",
          "type": "address"
        }
      ],
      "stateMutability": "nonpayable",
      "type": "constructor"
    },
    {
      "anonymous": false,
      "inputs": [
        {
          "indexed": false,
          "internalType": "uint256",
          "name": "tokenId",
          "type": "uint256"
        },
        {
          "indexed": false,
          "internalType": "uint256",
          "name": "price",
          "type": "uint256"
        }
      ],
      "name": "AssetListingCreated",
      "type": "event"
    },
    {
      "anonymous": false,
      "inputs": [
        {
          "indexed": false,
          "internalType": "uint256",
          "name": "tokenId",
          "type": "uint256"
        },
        {
          "indexed": false,
          "internalType": "address",
          "name": "seller",
          "type": "address"
        },
        {
          "indexed": false,
          "internalType": "address",
          "name": "buyer",
          "type": "address"
        }
      ],
      "name": "AssetListingPurchased",
      "type": "event"
    },
    {
      "anonymous": false,
      "inputs": [
        {
          "indexed": true,
          "internalType": "address",
          "name": "previousOwner",
          "type": "address"
        },
        {
          "indexed": true,
          "internalType": "address",
          "name": "newOwner",
          "type": "address"
        }
      ],
      "name": "OwnershipTransferred",
      "type": "event"
    },
    {
      "anonymous": false,
      "inputs": [
        {
          "indexed": false,
          "internalType": "address",
          "name": "account",
          "type": "address"
        }
      ],
      "name": "Paused",
      "type": "event"
    },
    {
      "anonymous": false,
      "inputs": [
        {
          "indexed": false,
          "internalType": "uint256",
          "name": "listingId",
          "type": "uint256"
        },
        {
          "indexed": false,
          "internalType": "uint256",
          "name": "tokenId",
          "type": "uint256"
        },
        {
          "indexed": false,
          "internalType": "uint256",
          "name": "price",
          "type": "uint256"
        },
        {
          "indexed": false,
          "internalType": "uint256",
          "name": "amount",
          "type": "uint256"
        },
        {
          "indexed": false,
          "internalType": "address",
          "name": "seller",
          "type": "address"
        }
      ],
      "name": "SharesListingCreated",
      "type": "event"
    },
    {
      "anonymous": false,
      "inputs": [
        {
          "indexed": false,
          "internalType": "uint256",
          "name": "listingId",
          "type": "uint256"
        },
        {
          "indexed": false,
          "internalType": "uint256",
          "name": "tokenId",
          "type": "uint256"
        },
        {
          "indexed": false,
          "internalType": "uint256",
          "name": "price",
          "type": "uint256"
        },
        {
          "indexed": false,
          "internalType": "uint256",
          "name": "amount",
          "type": "uint256"
        },
        {
          "indexed": false,
          "internalType": "address",
          "name": "seller",
          "type": "address"
        },
        {
          "indexed": false,
          "internalType": "address",
          "name": "buyer",
          "type": "address"
        }
      ],
      "name": "SharesListingPurchased",
      "type": "event"
    },
    {
      "anonymous": false,
      "inputs": [
        {
          "indexed": false,
          "internalType": "address",
          "name": "account",
          "type": "address"
        }
      ],
      "name": "Unpaused",
      "type": "event"
    },
    {
      "inputs": [
        {
          "internalType": "uint256",
          "name": "",
          "type": "uint256"
        }
      ],
      "name": "assetListings",
      "outputs": [
        {
          "internalType": "uint256",
          "name": "tokenId",
          "type": "uint256"
        },
        {
          "internalType": "uint256",
          "name": "price",
          "type": "uint256"
        },
        {
          "internalType": "address",
          "name": "seller",
          "type": "address"
        },
        {
          "internalType": "address",
          "name": "buyer",
          "type": "address"
        },
        {
          "internalType": "bool",
          "name": "isSold",
          "type": "bool"
        },
        {
          "internalType": "bool",
          "name": "isActive",
          "type": "bool"
        }
      ],
      "stateMutability": "view",
      "type": "function"
    },
    {
      "inputs": [],
      "name": "blockEstateAssetsAddress",
      "outputs": [
        {
          "internalType": "address",
          "name": "",
          "type": "address"
        }
      ],
      "stateMutability": "view",
      "type": "function"
    },
    {
      "inputs": [],
      "name": "blockEstateSharesAddress",
      "outputs": [
        {
          "internalType": "address",
          "name": "",
          "type": "address"
        }
      ],
      "stateMutability": "view",
      "type": "function"
    },
    {
      "inputs": [
        {
          "internalType": "uint256",
          "name": "tokenId",
          "type": "uint256"
        },
        {
          "internalType": "uint256",
          "name": "price",
          "type": "uint256"
        }
      ],
      "name": "createAssetListing",
      "outputs": [],
      "stateMutability": "nonpayable",
      "type": "function"
    },
    {
      "inputs": [
        {
          "internalType": "uint256",
          "name": "tokenId",
          "type": "uint256"
        },
        {
          "internalType": "uint256",
          "name": "price",
          "type": "uint256"
        },
        {
          "internalType": "uint256",
          "name": "amount",
          "type": "uint256"
        }
      ],
      "name": "createSharesListing",
      "outputs": [],
      "stateMutability": "nonpayable",
      "type": "function"
    },
    {
      "inputs": [],
      "name": "owner",
      "outputs": [
        {
          "internalType": "address",
          "name": "",
          "type": "address"
        }
      ],
      "stateMutability": "view",
      "type": "function"
    },
    {
      "inputs": [],
      "name": "pause",
      "outputs": [],
      "stateMutability": "nonpayable",
      "type": "function"
    },
    {
      "inputs": [],
      "name": "paused",
      "outputs": [
        {
          "internalType": "bool",
          "name": "",
          "type": "bool"
        }
      ],
      "stateMutability": "view",
      "type": "function"
    },
    {
      "inputs": [
        {
          "internalType": "uint256",
          "name": "tokenId",
          "type": "uint256"
        }
      ],
      "name": "purchaseAssetListing",
      "outputs": [],
      "stateMutability": "payable",
      "type": "function"
    },
    {
      "inputs": [
        {
          "internalType": "uint256",
          "name": "listingId",
          "type": "uint256"
        }
      ],
      "name": "purchaseSharesListing",
      "outputs": [],
      "stateMutability": "payable",
      "type": "function"
    },
    {
      "inputs": [],
      "name": "readAllAssetListings",
      "outputs": [
        {
          "components": [
            {
              "internalType": "uint256",
              "name": "tokenId",
              "type": "uint256"
            },
            {
              "internalType": "uint256",
              "name": "price",
              "type": "uint256"
            },
            {
              "internalType": "address",
              "name": "seller",
              "type": "address"
            },
            {
              "internalType": "address",
              "name": "buyer",
              "type": "address"
            },
            {
              "internalType": "bool",
              "name": "isSold",
              "type": "bool"
            },
            {
              "internalType": "bool",
              "name": "isActive",
              "type": "bool"
            }
          ],
          "internalType": "struct BlockEstateMarket.AssetListing[]",
          "name": "",
          "type": "tuple[]"
        }
      ],
      "stateMutability": "view",
      "type": "function"
    },
    {
      "inputs": [],
      "name": "readAllSharesListings",
      "outputs": [
        {
          "components": [
            {
              "internalType": "uint256",
              "name": "listingId",
              "type": "uint256"
            },
            {
              "internalType": "uint256",
              "name": "tokenId",
              "type": "uint256"
            },
            {
              "internalType": "uint256",
              "name": "price",
              "type": "uint256"
            },
            {
              "internalType": "uint256",
              "name": "amount",
              "type": "uint256"
            },
            {
              "internalType": "address",
              "name": "seller",
              "type": "address"
            },
            {
              "internalType": "bool",
              "name": "isActive",
              "type": "bool"
            }
          ],
          "internalType": "struct BlockEstateMarket.SharesListing[]",
          "name": "",
          "type": "tuple[]"
        }
      ],
      "stateMutability": "view",
      "type": "function"
    },
    {
      "inputs": [
        {
          "internalType": "address",
          "name": "account",
          "type": "address"
        }
      ],
      "name": "readListingsByAccount",
      "outputs": [
        {
          "components": [
            {
              "internalType": "uint256",
              "name": "listingId",
              "type": "uint256"
            },
            {
              "internalType": "uint256",
              "name": "tokenId",
              "type": "uint256"
            },
            {
              "internalType": "uint256",
              "name": "price",
              "type": "uint256"
            },
            {
              "internalType": "uint256",
              "name": "amount",
              "type": "uint256"
            },
            {
              "internalType": "address",
              "name": "seller",
              "type": "address"
            },
            {
              "internalType": "bool",
              "name": "isActive",
              "type": "bool"
            }
          ],
          "internalType": "struct BlockEstateMarket.SharesListing[]",
          "name": "",
          "type": "tuple[]"
        }
      ],
      "stateMutability": "view",
      "type": "function"
    },
    {
      "inputs": [],
      "name": "renounceOwnership",
      "outputs": [],
      "stateMutability": "nonpayable",
      "type": "function"
    },
    {
      "inputs": [
        {
          "internalType": "address",
          "name": "_blockEstateAssetsAddress",
          "type": "address"
        }
      ],
      "name": "setBlockEstateAssetsAddress",
      "outputs": [],
      "stateMutability": "nonpayable",
      "type": "function"
    },
    {
      "inputs": [
        {
          "internalType": "address",
          "name": "_blockEstateSharesAddress",
          "type": "address"
        }
      ],
      "name": "setBlockEstateSharesAddress",
      "outputs": [],
      "stateMutability": "nonpayable",
      "type": "function"
    },
    {
      "inputs": [
        {
          "internalType": "uint256",
          "name": "",
          "type": "uint256"
        }
      ],
      "name": "sharesListings",
      "outputs": [
        {
          "internalType": "uint256",
          "name": "listingId",
          "type": "uint256"
        },
        {
          "internalType": "uint256",
          "name": "tokenId",
          "type": "uint256"
        },
        {
          "internalType": "uint256",
          "name": "price",
          "type": "uint256"
        },
        {
          "internalType": "uint256",
          "name": "amount",
          "type": "uint256"
        },
        {
          "internalType": "address",
          "name": "seller",
          "type": "address"
        },
        {
          "internalType": "bool",
          "name": "isActive",
          "type": "bool"
        }
      ],
      "stateMutability": "view",
      "type": "function"
    },
    {
      "inputs": [
        {
          "internalType": "address",
          "name": "newOwner",
          "type": "address"
        }
      ],
      "name": "transferOwnership",
      "outputs": [],
      "stateMutability": "nonpayable",
      "type": "function"
    },
    {
      "inputs": [],
      "name": "unpause",
      "outputs": [],
      "stateMutability": "nonpayable",
      "type": "function"
    },
    {
      "inputs": [
        {
          "internalType": "address",
          "name": "",
          "type": "address"
        },
        {
          "internalType": "uint256",
          "name": "",
          "type": "uint256"
        }
      ],
      "name": "userListings",
      "outputs": [
        {
          "internalType": "uint256",
          "name": "",
          "type": "uint256"
        }
      ],
      "stateMutability": "view",
      "type": "function"
    }
  ],
  "bytecode": "0x60806040523480156200001157600080fd5b5060405162003a7738038062003a77833981810160405281019062000037919062000238565b620000576200004b6200010260201b60201c565b6200010a60201b60201c565b60008060146101000a81548160ff0219169083151502179055506001808190555081600360006101000a81548173ffffffffffffffffffffffffffffffffffffffff021916908373ffffffffffffffffffffffffffffffffffffffff16021790555080600460006101000a81548173ffffffffffffffffffffffffffffffffffffffff021916908373ffffffffffffffffffffffffffffffffffffffff16021790555050506200027f565b600033905090565b60008060009054906101000a900473ffffffffffffffffffffffffffffffffffffffff169050816000806101000a81548173ffffffffffffffffffffffffffffffffffffffff021916908373ffffffffffffffffffffffffffffffffffffffff1602179055508173ffffffffffffffffffffffffffffffffffffffff168173ffffffffffffffffffffffffffffffffffffffff167f8be0079c531659141344cd1fd0a4f28419497f9722a3daafe3b4186f6b6457e060405160405180910390a35050565b600080fd5b600073ffffffffffffffffffffffffffffffffffffffff82169050919050565b60006200020082620001d3565b9050919050565b6200021281620001f3565b81146200021e57600080fd5b50565b600081519050620002328162000207565b92915050565b60008060408385031215620002525762000251620001ce565b5b6000620002628582860162000221565b9250506020620002758582860162000221565b9150509250929050565b6137e8806200028f6000396000f3fe60806040526004361061011f5760003560e01c806386cfa7d3116100a0578063acfb2eb311610064578063acfb2eb314610398578063bc056d24146103b4578063d956c104146103df578063eb9e00b91461041c578063f2fde38b146104455761011f565b806386cfa7d3146102a75780638da5cb5b146102e45780639a5d65241461030f5780639bdec1a81461032b5780639f653c511461036d5761011f565b806363571e65116100e757806363571e65146101e35780636b78018b1461020c578063715018a6146102375780637716e5731461024e5780638456cb59146102905761011f565b806321d5c71b146101245780633f4ba83a1461014d5780634e697728146101645780635131e4e71461018f5780635c975abb146101b8575b600080fd5b34801561013057600080fd5b5061014b60048036038101906101469190612560565b61046e565b005b34801561015957600080fd5b506101626107aa565b005b34801561017057600080fd5b506101796107bc565b6040516101869190612735565b60405180910390f35b34801561019b57600080fd5b506101b660048036038101906101b19190612783565b610943565b005b3480156101c457600080fd5b506101cd61098f565b6040516101da91906127bf565b60405180910390f35b3480156101ef57600080fd5b5061020a60048036038101906102059190612783565b6109a5565b005b34801561021857600080fd5b506102216109f1565b60405161022e91906127e9565b60405180910390f35b34801561024357600080fd5b5061024c610a17565b005b34801561025a57600080fd5b5061027560048036038101906102709190612804565b610a2b565b60405161028796959493929190612840565b60405180910390f35b34801561029c57600080fd5b506102a5610a94565b005b3480156102b357600080fd5b506102ce60048036038101906102c991906128a1565b610aa6565b6040516102db91906128e1565b60405180910390f35b3480156102f057600080fd5b506102f9610ad7565b60405161030691906127e9565b60405180910390f35b61032960048036038101906103249190612804565b610b00565b005b34801561033757600080fd5b50610352600480360381019061034d9190612804565b610f87565b604051610364969594939291906128fc565b60405180910390f35b34801561037957600080fd5b5061038261101d565b60405161038f91906127e9565b60405180910390f35b6103b260048036038101906103ad9190612804565b611043565b005b3480156103c057600080fd5b506103c961154b565b6040516103d69190612a87565b60405180910390f35b3480156103eb57600080fd5b5061040660048036038101906104019190612783565b6117cb565b6040516104139190612735565b60405180910390f35b34801561042857600080fd5b50610443600480360381019061043e9190612aa9565b611a01565b005b34801561045157600080fd5b5061046c60048036038101906104679190612783565b6120d0565b005b813373ffffffffffffffffffffffffffffffffffffffff16600360009054906101000a900473ffffffffffffffffffffffffffffffffffffffff1673ffffffffffffffffffffffffffffffffffffffff16636352211e836040518263ffffffff1660e01b81526004016104e191906128e1565b602060405180830381865afa1580156104fe573d6000803e3d6000fd5b505050506040513d601f19601f820116820180604052508101906105229190612b11565b73ffffffffffffffffffffffffffffffffffffffff1614610578576040517f08c379a000000000000000000000000000000000000000000000000000000000815260040161056f90612b9b565b60405180910390fd5b600082116105bb576040517f08c379a00000000000000000000000000000000000000000000000000000000081526004016105b290612c07565b60405180910390fd5b6000600560008581526020019081526020016000206000015414610614576040517f08c379a000000000000000000000000000000000000000000000000000000000815260040161060b90612c73565b60405180910390fd5b6040518060c001604052808481526020018381526020013373ffffffffffffffffffffffffffffffffffffffff168152602001600073ffffffffffffffffffffffffffffffffffffffff1681526020016000151581526020016001151581525060056000858152602001908152602001600020600082015181600001556020820151816001015560408201518160020160006101000a81548173ffffffffffffffffffffffffffffffffffffffff021916908373ffffffffffffffffffffffffffffffffffffffff16021790555060608201518160030160006101000a81548173ffffffffffffffffffffffffffffffffffffffff021916908373ffffffffffffffffffffffffffffffffffffffff16021790555060808201518160030160146101000a81548160ff02191690831515021790555060a08201518160030160156101000a81548160ff0219169083151502179055509050507ff1a91e6f24c2fde773766e074a64a2f99ad10d6912a29bfc44b32db0a7accf25838360405161079d929190612c93565b60405180910390a1505050565b6107b2612153565b6107ba6121d1565b565b606060006107ca6002612233565b67ffffffffffffffff8111156107e3576107e2612cbc565b5b60405190808252806020026020018201604052801561081c57816020015b610809612471565b8152602001906001900390816108015790505b50905060005b61082c6002612233565b81101561093b5760006006600083815260200190815260200160002060010154111561092857600660008281526020019081526020016000206040518060c0016040529081600082015481526020016001820154815260200160028201548152602001600382015481526020016004820160009054906101000a900473ffffffffffffffffffffffffffffffffffffffff1673ffffffffffffffffffffffffffffffffffffffff1673ffffffffffffffffffffffffffffffffffffffff1681526020016004820160149054906101000a900460ff16151515158152505082828151811061091c5761091b612ceb565b5b60200260200101819052505b808061093390612d49565b915050610822565b508091505090565b61094b612153565b80600460006101000a81548173ffffffffffffffffffffffffffffffffffffffff021916908373ffffffffffffffffffffffffffffffffffffffff16021790555050565b60008060149054906101000a900460ff16905090565b6109ad612153565b80600360006101000a81548173ffffffffffffffffffffffffffffffffffffffff021916908373ffffffffffffffffffffffffffffffffffffffff16021790555050565b600360009054906101000a900473ffffffffffffffffffffffffffffffffffffffff1681565b610a1f612153565b610a296000612241565b565b60066020528060005260406000206000915090508060000154908060010154908060020154908060030154908060040160009054906101000a900473ffffffffffffffffffffffffffffffffffffffff16908060040160149054906101000a900460ff16905086565b610a9c612153565b610aa4612305565b565b60076020528160005260406000208181548110610ac257600080fd5b90600052602060002001600091509150505481565b60008060009054906101000a900473ffffffffffffffffffffffffffffffffffffffff16905090565b610b08612368565b6000600660008381526020019081526020016000206001015403610b61576040517f08c379a0000000000000000000000000000000000000000000000000000000008152600401610b5890612ddd565b60405180910390fd5b3373ffffffffffffffffffffffffffffffffffffffff166006600083815260200190815260200160002060040160009054906101000a900473ffffffffffffffffffffffffffffffffffffffff1673ffffffffffffffffffffffffffffffffffffffff1603610c05576040517f08c379a0000000000000000000000000000000000000000000000000000000008152600401610bfc90612e6f565b60405180910390fd5b34600660008381526020019081526020016000206002015414610c5d576040517f08c379a0000000000000000000000000000000000000000000000000000000008152600401610c5490612edb565b60405180910390fd5b600115156006600083815260200190815260200160002060040160149054906101000a900460ff16151514610cc7576040517f08c379a0000000000000000000000000000000000000000000000000000000008152600401610cbe90612f47565b60405180910390fd5b60006006600083815260200190815260200160002060040160146101000a81548160ff021916908315150217905550600460009054906101000a900473ffffffffffffffffffffffffffffffffffffffff1673ffffffffffffffffffffffffffffffffffffffff1663f242432a6006600084815260200190815260200160002060040160009054906101000a900473ffffffffffffffffffffffffffffffffffffffff1633600660008681526020019081526020016000206001015460066000878152602001908152602001600020600301546040518563ffffffff1660e01b8152600401610db99493929190612f9e565b600060405180830381600087803b158015610dd357600080fd5b505af1158015610de7573d6000803e3d6000fd5b505050506006600082815260200190815260200160002060040160009054906101000a900473ffffffffffffffffffffffffffffffffffffffff1673ffffffffffffffffffffffffffffffffffffffff166108fc349081150290604051600060405180830381858888f19350505050158015610e67573d6000803e3d6000fd5b507fb976e14df17a9b70d6dd3b3dcae82e3c877a71c73c5e950e486fe9918998e7ab8160066000848152602001908152602001600020600101543460066000868152602001908152602001600020600301546006600087815260200190815260200160002060040160009054906101000a900473ffffffffffffffffffffffffffffffffffffffff1633604051610f0396959493929190612ff6565b60405180910390a1600660008281526020019081526020016000206000808201600090556001820160009055600282016000905560038201600090556004820160006101000a81549073ffffffffffffffffffffffffffffffffffffffff02191690556004820160146101000a81549060ff02191690555050610f846123b7565b50565b60056020528060005260406000206000915090508060000154908060010154908060020160009054906101000a900473ffffffffffffffffffffffffffffffffffffffff16908060030160009054906101000a900473ffffffffffffffffffffffffffffffffffffffff16908060030160149054906101000a900460ff16908060030160159054906101000a900460ff16905086565b600460009054906101000a900473ffffffffffffffffffffffffffffffffffffffff1681565b61104b612368565b60006005600083815260200190815260200160002060000154036110a4576040517f08c379a000000000000000000000000000000000000000000000000000000000815260040161109b906130a3565b60405180910390fd5b346005600083815260200190815260200160002060010154146110fc576040517f08c379a00000000000000000000000000000000000000000000000000000000081526004016110f390612edb565b60405180910390fd5b600115156005600083815260200190815260200160002060030160159054906101000a900460ff16151514611166576040517f08c379a000000000000000000000000000000000000000000000000000000000815260040161115d9061310f565b60405180910390fd5b600015156005600083815260200190815260200160002060030160149054906101000a900460ff161515146111d0576040517f08c379a00000000000000000000000000000000000000000000000000000000081526004016111c79061317b565b60405180910390fd5b336005600083815260200190815260200160002060030160006101000a81548173ffffffffffffffffffffffffffffffffffffffff021916908373ffffffffffffffffffffffffffffffffffffffff16021790555060016005600083815260200190815260200160002060030160146101000a81548160ff02191690831515021790555060006005600083815260200190815260200160002060030160156101000a81548160ff021916908315150217905550600360009054906101000a900473ffffffffffffffffffffffffffffffffffffffff1673ffffffffffffffffffffffffffffffffffffffff166342842e0e6005600084815260200190815260200160002060020160009054906101000a900473ffffffffffffffffffffffffffffffffffffffff166005600085815260200190815260200160002060030160009054906101000a900473ffffffffffffffffffffffffffffffffffffffff16846040518463ffffffff1660e01b815260040161134e9392919061319b565b600060405180830381600087803b15801561136857600080fd5b505af115801561137c573d6000803e3d6000fd5b505050506005600082815260200190815260200160002060020160009054906101000a900473ffffffffffffffffffffffffffffffffffffffff1673ffffffffffffffffffffffffffffffffffffffff166108fc349081150290604051600060405180830381858888f193505050501580156113fc573d6000803e3d6000fd5b507f3350c3b4245b5a0cf503136a77f59725db483e024c5550b05ccfb3bbd236b2fd816005600084815260200190815260200160002060020160009054906101000a900473ffffffffffffffffffffffffffffffffffffffff166005600085815260200190815260200160002060030160009054906101000a900473ffffffffffffffffffffffffffffffffffffffff1660405161149c939291906131d2565b60405180910390a16005600082815260200190815260200160002060008082016000905560018201600090556002820160006101000a81549073ffffffffffffffffffffffffffffffffffffffff02191690556003820160006101000a81549073ffffffffffffffffffffffffffffffffffffffff02191690556003820160146101000a81549060ff02191690556003820160156101000a81549060ff021916905550506115486123b7565b50565b60606000600360009054906101000a900473ffffffffffffffffffffffffffffffffffffffff1673ffffffffffffffffffffffffffffffffffffffff166318160ddd6040518163ffffffff1660e01b8152600401602060405180830381865afa1580156115bc573d6000803e3d6000fd5b505050506040513d601f19601f820116820180604052508101906115e0919061321e565b905060008167ffffffffffffffff8111156115fe576115fd612cbc565b5b60405190808252806020026020018201604052801561163757816020015b6116246124bf565b81526020019060019003908161161c5790505b50905060005b828110156117c257600060056000600184611658919061324b565b81526020019081526020016000206000015411156117af5760056000600183611681919061324b565b81526020019081526020016000206040518060c001604052908160008201548152602001600182015481526020016002820160009054906101000a900473ffffffffffffffffffffffffffffffffffffffff1673ffffffffffffffffffffffffffffffffffffffff1673ffffffffffffffffffffffffffffffffffffffff1681526020016003820160009054906101000a900473ffffffffffffffffffffffffffffffffffffffff1673ffffffffffffffffffffffffffffffffffffffff1673ffffffffffffffffffffffffffffffffffffffff1681526020016003820160149054906101000a900460ff161515151581526020016003820160159054906101000a900460ff1615151515815250508282815181106117a3576117a2612ceb565b5b60200260200101819052505b80806117ba90612d49565b91505061163d565b50809250505090565b60606000600760008473ffffffffffffffffffffffffffffffffffffffff1673ffffffffffffffffffffffffffffffffffffffff1681526020019081526020016000208054905067ffffffffffffffff81111561182b5761182a612cbc565b5b60405190808252806020026020018201604052801561186457816020015b611851612471565b8152602001906001900390816118495790505b50905060005b600760008573ffffffffffffffffffffffffffffffffffffffff1673ffffffffffffffffffffffffffffffffffffffff168152602001908152602001600020805490508110156119f75760066000600760008773ffffffffffffffffffffffffffffffffffffffff1673ffffffffffffffffffffffffffffffffffffffff168152602001908152602001600020838154811061190957611908612ceb565b5b906000526020600020015481526020019081526020016000206040518060c0016040529081600082015481526020016001820154815260200160028201548152602001600382015481526020016004820160009054906101000a900473ffffffffffffffffffffffffffffffffffffffff1673ffffffffffffffffffffffffffffffffffffffff1673ffffffffffffffffffffffffffffffffffffffff1681526020016004820160149054906101000a900460ff1615151515815250508282815181106119d9576119d8612ceb565b5b602002602001018190525080806119ef90612d49565b91505061186a565b5080915050919050565b82600360009054906101000a900473ffffffffffffffffffffffffffffffffffffffff1673ffffffffffffffffffffffffffffffffffffffff16634f558e79826040518263ffffffff1660e01b8152600401611a5d91906128e1565b602060405180830381865afa158015611a7a573d6000803e3d6000fd5b505050506040513d601f19601f82011682018060405250810190611a9e91906132ab565b611add576040517f08c379a0000000000000000000000000000000000000000000000000000000008152600401611ad490613324565b60405180910390fd5b33846000600460009054906101000a900473ffffffffffffffffffffffffffffffffffffffff1673ffffffffffffffffffffffffffffffffffffffff1662fdd58e84846040518363ffffffff1660e01b8152600401611b3d929190613344565b602060405180830381865afa158015611b5a573d6000803e3d6000fd5b505050506040513d601f19601f82011682018060405250810190611b7e919061321e565b11611bbe576040517f08c379a0000000000000000000000000000000000000000000000000000000008152600401611bb5906133b9565b60405180910390fd5b60008511611c01576040517f08c379a0000000000000000000000000000000000000000000000000000000008152600401611bf890613425565b60405180910390fd5b60008411611c44576040517f08c379a0000000000000000000000000000000000000000000000000000000008152600401611c3b90613491565b60405180910390fd5b600084905060005b600760003373ffffffffffffffffffffffffffffffffffffffff1673ffffffffffffffffffffffffffffffffffffffff16815260200190815260200160002080549050811015611e29578760066000600760003373ffffffffffffffffffffffffffffffffffffffff1673ffffffffffffffffffffffffffffffffffffffff1681526020019081526020016000208481548110611cec57611ceb612ceb565b5b9060005260206000200154815260200190815260200160002060010154148015611d91575060066000600760003373ffffffffffffffffffffffffffffffffffffffff1673ffffffffffffffffffffffffffffffffffffffff1681526020019081526020016000208381548110611d6657611d65612ceb565b5b9060005260206000200154815260200190815260200160002060040160149054906101000a900460ff165b15611e165760066000600760003373ffffffffffffffffffffffffffffffffffffffff1673ffffffffffffffffffffffffffffffffffffffff1681526020019081526020016000208381548110611deb57611dea612ceb565b5b906000526020600020015481526020019081526020016000206003015482611e13919061324b565b91505b8080611e2190612d49565b915050611c4c565b50600460009054906101000a900473ffffffffffffffffffffffffffffffffffffffff1673ffffffffffffffffffffffffffffffffffffffff1662fdd58e33896040518363ffffffff1660e01b8152600401611e86929190613344565b602060405180830381865afa158015611ea3573d6000803e3d6000fd5b505050506040513d601f19601f82011682018060405250810190611ec7919061321e565b811115611f09576040517f08c379a0000000000000000000000000000000000000000000000000000000008152600401611f00906134fd565b60405180910390fd5b6040518060c00160405280611f1e6002612233565b81526020018881526020018781526020018681526020013373ffffffffffffffffffffffffffffffffffffffff1681526020016001151581525060066000611f666002612233565b81526020019081526020016000206000820151816000015560208201518160010155604082015181600201556060820151816003015560808201518160040160006101000a81548173ffffffffffffffffffffffffffffffffffffffff021916908373ffffffffffffffffffffffffffffffffffffffff16021790555060a08201518160040160146101000a81548160ff021916908315150217905550905050600760003373ffffffffffffffffffffffffffffffffffffffff1673ffffffffffffffffffffffffffffffffffffffff16815260200190815260200160002061204f6002612233565b90806001815401808255809150506001900390600052602060002001600090919091909150557f97dcdac6c7238ca7fc3ad41c8a17e1ac9825015db181b6f7d0a8e444dbd112866120a06002612233565b888888336040516120b595949392919061351d565b60405180910390a16120c760026123c0565b50505050505050565b6120d8612153565b600073ffffffffffffffffffffffffffffffffffffffff168173ffffffffffffffffffffffffffffffffffffffff1603612147576040517f08c379a000000000000000000000000000000000000000000000000000000000815260040161213e906135e2565b60405180910390fd5b61215081612241565b50565b61215b6123d6565b73ffffffffffffffffffffffffffffffffffffffff16612179610ad7565b73ffffffffffffffffffffffffffffffffffffffff16146121cf576040517f08c379a00000000000000000000000000000000000000000000000000000000081526004016121c69061364e565b60405180910390fd5b565b6121d96123de565b60008060146101000a81548160ff0219169083151502179055507f5db9ee0a495bf2e6ff9c91a7834c1ba4fdd244a5e8aa4e537bd38aeae4b073aa61221c6123d6565b60405161222991906127e9565b60405180910390a1565b600081600001549050919050565b60008060009054906101000a900473ffffffffffffffffffffffffffffffffffffffff169050816000806101000a81548173ffffffffffffffffffffffffffffffffffffffff021916908373ffffffffffffffffffffffffffffffffffffffff1602179055508173ffffffffffffffffffffffffffffffffffffffff168173ffffffffffffffffffffffffffffffffffffffff167f8be0079c531659141344cd1fd0a4f28419497f9722a3daafe3b4186f6b6457e060405160405180910390a35050565b61230d612427565b6001600060146101000a81548160ff0219169083151502179055507f62e78cea01bee320cd4e420270b5ea74000d11b0c9f74754ebdbfc544b05a2586123516123d6565b60405161235e91906127e9565b60405180910390a1565b6002600154036123ad576040517f08c379a00000000000000000000000000000000000000000000000000000000081526004016123a4906136ba565b60405180910390fd5b6002600181905550565b60018081905550565b6001816000016000828254019250508190555050565b600033905090565b6123e661098f565b612425576040517f08c379a000000000000000000000000000000000000000000000000000000000815260040161241c90613726565b60405180910390fd5b565b61242f61098f565b1561246f576040517f08c379a000000000000000000000000000000000000000000000000000000000815260040161246690613792565b60405180910390fd5b565b6040518060c0016040528060008152602001600081526020016000815260200160008152602001600073ffffffffffffffffffffffffffffffffffffffff1681526020016000151581525090565b6040518060c001604052806000815260200160008152602001600073ffffffffffffffffffffffffffffffffffffffff168152602001600073ffffffffffffffffffffffffffffffffffffffff1681526020016000151581526020016000151581525090565b600080fd5b6000819050919050565b61253d8161252a565b811461254857600080fd5b50565b60008135905061255a81612534565b92915050565b6000806040838503121561257757612576612525565b5b60006125858582860161254b565b92505060206125968582860161254b565b9150509250929050565b600081519050919050565b600082825260208201905092915050565b6000819050602082019050919050565b6125d58161252a565b82525050565b600073ffffffffffffffffffffffffffffffffffffffff82169050919050565b6000612606826125db565b9050919050565b612616816125fb565b82525050565b60008115159050919050565b6126318161261c565b82525050565b60c08201600082015161264d60008501826125cc565b50602082015161266060208501826125cc565b50604082015161267360408501826125cc565b50606082015161268660608501826125cc565b506080820151612699608085018261260d565b5060a08201516126ac60a0850182612628565b50505050565b60006126be8383612637565b60c08301905092915050565b6000602082019050919050565b60006126e2826125a0565b6126ec81856125ab565b93506126f7836125bc565b8060005b8381101561272857815161270f88826126b2565b975061271a836126ca565b9250506001810190506126fb565b5085935050505092915050565b6000602082019050818103600083015261274f81846126d7565b905092915050565b612760816125fb565b811461276b57600080fd5b50565b60008135905061277d81612757565b92915050565b60006020828403121561279957612798612525565b5b60006127a78482850161276e565b91505092915050565b6127b98161261c565b82525050565b60006020820190506127d460008301846127b0565b92915050565b6127e3816125fb565b82525050565b60006020820190506127fe60008301846127da565b92915050565b60006020828403121561281a57612819612525565b5b60006128288482850161254b565b91505092915050565b61283a8161252a565b82525050565b600060c0820190506128556000830189612831565b6128626020830188612831565b61286f6040830187612831565b61287c6060830186612831565b61288960808301856127da565b61289660a08301846127b0565b979650505050505050565b600080604083850312156128b8576128b7612525565b5b60006128c68582860161276e565b92505060206128d78582860161254b565b9150509250929050565b60006020820190506128f66000830184612831565b92915050565b600060c0820190506129116000830189612831565b61291e6020830188612831565b61292b60408301876127da565b61293860608301866127da565b61294560808301856127b0565b61295260a08301846127b0565b979650505050505050565b600081519050919050565b600082825260208201905092915050565b6000819050602082019050919050565b60c08201600082015161299f60008501826125cc565b5060208201516129b260208501826125cc565b5060408201516129c5604085018261260d565b5060608201516129d8606085018261260d565b5060808201516129eb6080850182612628565b5060a08201516129fe60a0850182612628565b50505050565b6000612a108383612989565b60c08301905092915050565b6000602082019050919050565b6000612a348261295d565b612a3e8185612968565b9350612a4983612979565b8060005b83811015612a7a578151612a618882612a04565b9750612a6c83612a1c565b925050600181019050612a4d565b5085935050505092915050565b60006020820190508181036000830152612aa18184612a29565b905092915050565b600080600060608486031215612ac257612ac1612525565b5b6000612ad08682870161254b565b9350506020612ae18682870161254b565b9250506040612af28682870161254b565b9150509250925092565b600081519050612b0b81612757565b92915050565b600060208284031215612b2757612b26612525565b5b6000612b3584828501612afc565b91505092915050565b600082825260208201905092915050565b7f43616c6c657220646f6573206e6f74206f776e20417373657421000000000000600082015250565b6000612b85601a83612b3e565b9150612b9082612b4f565b602082019050919050565b60006020820190508181036000830152612bb481612b78565b9050919050565b7f50726963652073686f756c64206265206174206c656173742031207765692100600082015250565b6000612bf1601f83612b3e565b9150612bfc82612bbb565b602082019050919050565b60006020820190508181036000830152612c2081612be4565b9050919050565b7f417373657420616c7265616479206c6973746564210000000000000000000000600082015250565b6000612c5d601583612b3e565b9150612c6882612c27565b602082019050919050565b60006020820190508181036000830152612c8c81612c50565b9050919050565b6000604082019050612ca86000830185612831565b612cb56020830184612831565b9392505050565b7f4e487b7100000000000000000000000000000000000000000000000000000000600052604160045260246000fd5b7f4e487b7100000000000000000000000000000000000000000000000000000000600052603260045260246000fd5b7f4e487b7100000000000000000000000000000000000000000000000000000000600052601160045260246000fd5b6000612d548261252a565b91507fffffffffffffffffffffffffffffffffffffffffffffffffffffffffffffffff8203612d8657612d85612d1a565b5b600182019050919050565b7f4c697374696e6720646f6573206e6f7420657869737421000000000000000000600082015250565b6000612dc7601783612b3e565b9150612dd282612d91565b602082019050919050565b60006020820190508181036000830152612df681612dba565b9050919050565b7f53656c6c65722063616e6e6f7420627579207468656972206f776e207368617260008201527f6573000000000000000000000000000000000000000000000000000000000000602082015250565b6000612e59602283612b3e565b9150612e6482612dfd565b604082019050919050565b60006020820190508181036000830152612e8881612e4c565b9050919050565b7f507269636520646f6573206e6f74206d61746368210000000000000000000000600082015250565b6000612ec5601583612b3e565b9150612ed082612e8f565b602082019050919050565b60006020820190508181036000830152612ef481612eb8565b9050919050565b7f536861726573206c697374696e67206973206e6f742061637469766521000000600082015250565b6000612f31601d83612b3e565b9150612f3c82612efb565b602082019050919050565b60006020820190508181036000830152612f6081612f24565b9050919050565b600082825260208201905092915050565b50565b6000612f88600083612f67565b9150612f9382612f78565b600082019050919050565b600060a082019050612fb360008301876127da565b612fc060208301866127da565b612fcd6040830185612831565b612fda6060830184612831565b8181036080830152612feb81612f7b565b905095945050505050565b600060c08201905061300b6000830189612831565b6130186020830188612831565b6130256040830187612831565b6130326060830186612831565b61303f60808301856127da565b61304c60a08301846127da565b979650505050505050565b7f4173736574206e6f74206c697374656421000000000000000000000000000000600082015250565b600061308d601183612b3e565b915061309882613057565b602082019050919050565b600060208201905081810360008301526130bc81613080565b9050919050565b7f4173736574206c697374696e67206973206e6f74206163746976652100000000600082015250565b60006130f9601c83612b3e565b9150613104826130c3565b602082019050919050565b60006020820190508181036000830152613128816130ec565b9050919050565b7f4173736574206c697374696e6720697320616c726561647920736f6c64210000600082015250565b6000613165601e83612b3e565b91506131708261312f565b602082019050919050565b6000602082019050818103600083015261319481613158565b9050919050565b60006060820190506131b060008301866127da565b6131bd60208301856127da565b6131ca6040830184612831565b949350505050565b60006060820190506131e76000830186612831565b6131f460208301856127da565b61320160408301846127da565b949350505050565b60008151905061321881612534565b92915050565b60006020828403121561323457613233612525565b5b600061324284828501613209565b91505092915050565b60006132568261252a565b91506132618361252a565b925082820190508082111561327957613278612d1a565b5b92915050565b6132888161261c565b811461329357600080fd5b50565b6000815190506132a58161327f565b92915050565b6000602082840312156132c1576132c0612525565b5b60006132cf84828501613296565b91505092915050565b7f417373657420646f6573206e6f74206578697374210000000000000000000000600082015250565b600061330e601583612b3e565b9150613319826132d8565b602082019050919050565b6000602082019050818103600083015261333d81613301565b9050919050565b600060408201905061335960008301856127da565b6133666020830184612831565b9392505050565b7f6e6f74207368617265686f6c6465720000000000000000000000000000000000600082015250565b60006133a3600f83612b3e565b91506133ae8261336d565b602082019050919050565b600060208201905081810360008301526133d281613396565b9050919050565b7f7072696365203c20312077656900000000000000000000000000000000000000600082015250565b600061340f600d83612b3e565b915061341a826133d9565b602082019050919050565b6000602082019050818103600083015261343e81613402565b9050919050565b7f616d6f756e74203c203100000000000000000000000000000000000000000000600082015250565b600061347b600a83612b3e565b915061348682613445565b602082019050919050565b600060208201905081810360008301526134aa8161346e565b9050919050565b7f6e6f7420656e6f75676820736861726573000000000000000000000000000000600082015250565b60006134e7601183612b3e565b91506134f2826134b1565b602082019050919050565b60006020820190508181036000830152613516816134da565b9050919050565b600060a0820190506135326000830188612831565b61353f6020830187612831565b61354c6040830186612831565b6135596060830185612831565b61356660808301846127da565b9695505050505050565b7f4f776e61626c653a206e6577206f776e657220697320746865207a65726f206160008201527f6464726573730000000000000000000000000000000000000000000000000000602082015250565b60006135cc602683612b3e565b91506135d782613570565b604082019050919050565b600060208201905081810360008301526135fb816135bf565b9050919050565b7f4f776e61626c653a2063616c6c6572206973206e6f7420746865206f776e6572600082015250565b6000613638602083612b3e565b915061364382613602565b602082019050919050565b600060208201905081810360008301526136678161362b565b9050919050565b7f5265656e7472616e637947756172643a207265656e7472616e742063616c6c00600082015250565b60006136a4601f83612b3e565b91506136af8261366e565b602082019050919050565b600060208201905081810360008301526136d381613697565b9050919050565b7f5061757361626c653a206e6f7420706175736564000000000000000000000000600082015250565b6000613710601483612b3e565b915061371b826136da565b602082019050919050565b6000602082019050818103600083015261373f81613703565b9050919050565b7f5061757361626c653a2070617573656400000000000000000000000000000000600082015250565b600061377c601083612b3e565b915061378782613746565b602082019050919050565b600060208201905081810360008301526137ab8161376f565b905091905056fea264697066735822122028dff5d96b87b737424193199d544c56cb4b32e62ea8c9d46990f268def0d83164736f6c63430008120033",
  "linkReferences": {},
  "deployedLinkReferences": {}
}