{
  "_format": "hh-sol-artifact-1",
  "contractName": "BlockEstateAssets",
  "sourceName": "contracts/BlockEstate/BlockEstateAssets.sol",
  "abi": [
    {
      "inputs": [],
      "stateMutability": "nonpayable",
      "type": "constructor"
    },
    {
      "anonymous": false,
      "inputs": [
        {
          "indexed": true,
          "internalType": "address",
          "name": "owner",
          "type": "address"
        },
        {
          "indexed": true,
          "internalType": "address",
          "name": "approved",
          "type": "address"
        },
        {
          "indexed": true,
          "internalType": "uint256",
          "name": "tokenId",
          "type": "uint256"
        }
      ],
      "name": "Approval",
      "type": "event"
    },
    {
      "anonymous": false,
      "inputs": [
        {
          "indexed": true,
          "internalType": "address",
          "name": "owner",
          "type": "address"
        },
        {
          "indexed": true,
          "internalType": "address",
          "name": "operator",
          "type": "address"
        },
        {
          "indexed": false,
          "internalType": "bool",
          "name": "approved",
          "type": "bool"
        }
      ],
      "name": "ApprovalForAll",
      "type": "event"
    },
    {
      "anonymous": false,
      "inputs": [
        {
          "indexed": false,
          "internalType": "uint256",
          "name": "tokenId",
          "type": "uint256"
        }
      ],
      "name": "AssetCreated",
      "type": "event"
    },
    {
      "anonymous": false,
      "inputs": [
        {
          "indexed": false,
          "internalType": "uint256",
          "name": "tokenId",
          "type": "uint256"
        }
      ],
      "name": "AssetDeleted",
      "type": "event"
    },
    {
      "anonymous": false,
      "inputs": [
        {
          "indexed": false,
          "internalType": "address",
          "name": "old",
          "type": "address"
        },
        {
          "indexed": false,
          "internalType": "address",
          "name": "updated",
          "type": "address"
        }
      ],
      "name": "BlockEstateMarketAddressUpdated",
      "type": "event"
    },
    {
      "anonymous": false,
      "inputs": [
        {
          "indexed": false,
          "internalType": "address",
          "name": "old",
          "type": "address"
        },
        {
          "indexed": false,
          "internalType": "address",
          "name": "updated",
          "type": "address"
        }
      ],
      "name": "BlockEstateSharesAddressUpdated",
      "type": "event"
    },
    {
      "anonymous": false,
      "inputs": [
        {
          "indexed": true,
          "internalType": "address",
          "name": "previousOwner",
          "type": "address"
        },
        {
          "indexed": true,
          "internalType": "address",
          "name": "newOwner",
          "type": "address"
        }
      ],
      "name": "OwnershipTransferred",
      "type": "event"
    },
    {
      "anonymous": false,
      "inputs": [
        {
          "indexed": false,
          "internalType": "address",
          "name": "account",
          "type": "address"
        }
      ],
      "name": "Paused",
      "type": "event"
    },
    {
      "anonymous": false,
      "inputs": [
        {
          "indexed": true,
          "internalType": "address",
          "name": "from",
          "type": "address"
        },
        {
          "indexed": true,
          "internalType": "address",
          "name": "to",
          "type": "address"
        },
        {
          "indexed": true,
          "internalType": "uint256",
          "name": "tokenId",
          "type": "uint256"
        }
      ],
      "name": "Transfer",
      "type": "event"
    },
    {
      "anonymous": false,
      "inputs": [
        {
          "indexed": false,
          "internalType": "address",
          "name": "account",
          "type": "address"
        }
      ],
      "name": "Unpaused",
      "type": "event"
    },
    {
      "inputs": [
        {
          "internalType": "address",
          "name": "to",
          "type": "address"
        },
        {
          "internalType": "uint256",
          "name": "tokenId",
          "type": "uint256"
        }
      ],
      "name": "approve",
      "outputs": [],
      "stateMutability": "nonpayable",
      "type": "function"
    },
    {
      "inputs": [
        {
          "internalType": "address",
          "name": "owner",
          "type": "address"
        }
      ],
      "name": "balanceOf",
      "outputs": [
        {
          "internalType": "uint256",
          "name": "",
          "type": "uint256"
        }
      ],
      "stateMutability": "view",
      "type": "function"
    },
    {
      "inputs": [],
      "name": "blockEstateMarketAddress",
      "outputs": [
        {
          "internalType": "address",
          "name": "",
          "type": "address"
        }
      ],
      "stateMutability": "view",
      "type": "function"
    },
    {
      "inputs": [],
      "name": "blockEstateSharesAddress",
      "outputs": [
        {
          "internalType": "address",
          "name": "",
          "type": "address"
        }
      ],
      "stateMutability": "view",
      "type": "function"
    },
    {
      "inputs": [
        {
          "internalType": "uint256",
          "name": "tokenId",
          "type": "uint256"
        }
      ],
      "name": "burn",
      "outputs": [],
      "stateMutability": "nonpayable",
      "type": "function"
    },
    {
      "inputs": [
        {
          "internalType": "uint8",
          "name": "category",
          "type": "uint8"
        },
        {
          "internalType": "string",
          "name": "street",
          "type": "string"
        },
        {
          "internalType": "uint16",
          "name": "number",
          "type": "uint16"
        },
        {
          "internalType": "uint16",
          "name": "apNumber",
          "type": "uint16"
        },
        {
          "internalType": "string",
          "name": "city",
          "type": "string"
        },
        {
          "internalType": "string",
          "name": "zip",
          "type": "string"
        },
        {
          "internalType": "string",
          "name": "country",
          "type": "string"
        }
      ],
      "name": "createAsset",
      "outputs": [
        {
          "internalType": "uint256",
          "name": "",
          "type": "uint256"
        }
      ],
      "stateMutability": "nonpayable",
      "type": "function"
    },
    {
      "inputs": [
        {
          "internalType": "uint256",
          "name": "tokenId",
          "type": "uint256"
        }
      ],
      "name": "deleteAsset",
      "outputs": [],
      "stateMutability": "nonpayable",
      "type": "function"
    },
    {
      "inputs": [
        {
          "internalType": "uint256",
          "name": "tokenId",
          "type": "uint256"
        }
      ],
      "name": "exists",
      "outputs": [
        {
          "internalType": "bool",
          "name": "",
          "type": "bool"
        }
      ],
      "stateMutability": "view",
      "type": "function"
    },
    {
      "inputs": [
        {
          "internalType": "uint256",
          "name": "tokenId",
          "type": "uint256"
        }
      ],
      "name": "getApproved",
      "outputs": [
        {
          "internalType": "address",
          "name": "",
          "type": "address"
        }
      ],
      "stateMutability": "view",
      "type": "function"
    },
    {
      "inputs": [
        {
          "internalType": "address",
          "name": "owner",
          "type": "address"
        },
        {
          "internalType": "address",
          "name": "operator",
          "type": "address"
        }
      ],
      "name": "isApprovedForAll",
      "outputs": [
        {
          "internalType": "bool",
          "name": "",
          "type": "bool"
        }
      ],
      "stateMutability": "view",
      "type": "function"
    },
    {
      "inputs": [],
      "name": "name",
      "outputs": [
        {
          "internalType": "string",
          "name": "",
          "type": "string"
        }
      ],
      "stateMutability": "view",
      "type": "function"
    },
    {
      "inputs": [],
      "name": "owner",
      "outputs": [
        {
          "internalType": "address",
          "name": "",
          "type": "address"
        }
      ],
      "stateMutability": "view",
      "type": "function"
    },
    {
      "inputs": [
        {
          "internalType": "uint256",
          "name": "tokenId",
          "type": "uint256"
        }
      ],
      "name": "ownerOf",
      "outputs": [
        {
          "internalType": "address",
          "name": "",
          "type": "address"
        }
      ],
      "stateMutability": "view",
      "type": "function"
    },
    {
      "inputs": [],
      "name": "pause",
      "outputs": [],
      "stateMutability": "nonpayable",
      "type": "function"
    },
    {
      "inputs": [],
      "name": "paused",
      "outputs": [
        {
          "internalType": "bool",
          "name": "",
          "type": "bool"
        }
      ],
      "stateMutability": "view",
      "type": "function"
    },
    {
      "inputs": [],
      "name": "readAllAssets",
      "outputs": [
        {
          "components": [
            {
              "internalType": "uint256",
              "name": "tokenId",
              "type": "uint256"
            },
            {
              "internalType": "uint8",
              "name": "category",
              "type": "uint8"
            },
            {
              "components": [
                {
                  "internalType": "string",
                  "name": "street",
                  "type": "string"
                },
                {
                  "internalType": "uint16",
                  "name": "number",
                  "type": "uint16"
                },
                {
                  "internalType": "uint16",
                  "name": "apNumber",
                  "type": "uint16"
                },
                {
                  "internalType": "string",
                  "name": "city",
                  "type": "string"
                },
                {
                  "internalType": "string",
                  "name": "zip",
                  "type": "string"
                },
                {
                  "internalType": "string",
                  "name": "country",
                  "type": "string"
                }
              ],
              "internalType": "struct BlockEstateAssets.AssetLocation",
              "name": "location",
              "type": "tuple"
            }
          ],
          "internalType": "struct BlockEstateAssets.Asset[]",
          "name": "",
          "type": "tuple[]"
        }
      ],
      "stateMutability": "view",
      "type": "function"
    },
    {
      "inputs": [
        {
          "internalType": "uint256",
          "name": "tokenId",
          "type": "uint256"
        }
      ],
      "name": "readAsset",
      "outputs": [
        {
          "components": [
            {
              "internalType": "uint256",
              "name": "tokenId",
              "type": "uint256"
            },
            {
              "internalType": "uint8",
              "name": "category",
              "type": "uint8"
            },
            {
              "components": [
                {
                  "internalType": "string",
                  "name": "street",
                  "type": "string"
                },
                {
                  "internalType": "uint16",
                  "name": "number",
                  "type": "uint16"
                },
                {
                  "internalType": "uint16",
                  "name": "apNumber",
                  "type": "uint16"
                },
                {
                  "internalType": "string",
                  "name": "city",
                  "type": "string"
                },
                {
                  "internalType": "string",
                  "name": "zip",
                  "type": "string"
                },
                {
                  "internalType": "string",
                  "name": "country",
                  "type": "string"
                }
              ],
              "internalType": "struct BlockEstateAssets.AssetLocation",
              "name": "location",
              "type": "tuple"
            }
          ],
          "internalType": "struct BlockEstateAssets.Asset",
          "name": "",
          "type": "tuple"
        }
      ],
      "stateMutability": "view",
      "type": "function"
    },
    {
      "inputs": [
        {
          "internalType": "uint256[]",
          "name": "tokenIds",
          "type": "uint256[]"
        }
      ],
      "name": "readAssetBatch",
      "outputs": [
        {
          "components": [
            {
              "internalType": "uint256",
              "name": "tokenId",
              "type": "uint256"
            },
            {
              "internalType": "uint8",
              "name": "category",
              "type": "uint8"
            },
            {
              "components": [
                {
                  "internalType": "string",
                  "name": "street",
                  "type": "string"
                },
                {
                  "internalType": "uint16",
                  "name": "number",
                  "type": "uint16"
                },
                {
                  "internalType": "uint16",
                  "name": "apNumber",
                  "type": "uint16"
                },
                {
                  "internalType": "string",
                  "name": "city",
                  "type": "string"
                },
                {
                  "internalType": "string",
                  "name": "zip",
                  "type": "string"
                },
                {
                  "internalType": "string",
                  "name": "country",
                  "type": "string"
                }
              ],
              "internalType": "struct BlockEstateAssets.AssetLocation",
              "name": "location",
              "type": "tuple"
            }
          ],
          "internalType": "struct BlockEstateAssets.Asset[]",
          "name": "",
          "type": "tuple[]"
        }
      ],
      "stateMutability": "view",
      "type": "function"
    },
    {
      "inputs": [
        {
          "internalType": "address",
          "name": "_address",
          "type": "address"
        }
      ],
      "name": "readAssetsByHolder",
      "outputs": [
        {
          "components": [
            {
              "internalType": "uint256",
              "name": "tokenId",
              "type": "uint256"
            },
            {
              "internalType": "uint8",
              "name": "category",
              "type": "uint8"
            },
            {
              "components": [
                {
                  "internalType": "string",
                  "name": "street",
                  "type": "string"
                },
                {
                  "internalType": "uint16",
                  "name": "number",
                  "type": "uint16"
                },
                {
                  "internalType": "uint16",
                  "name": "apNumber",
                  "type": "uint16"
                },
                {
                  "internalType": "string",
                  "name": "city",
                  "type": "string"
                },
                {
                  "internalType": "string",
                  "name": "zip",
                  "type": "string"
                },
                {
                  "internalType": "string",
                  "name": "country",
                  "type": "string"
                }
              ],
              "internalType": "struct BlockEstateAssets.AssetLocation",
              "name": "location",
              "type": "tuple"
            }
          ],
          "internalType": "struct BlockEstateAssets.Asset[]",
          "name": "",
          "type": "tuple[]"
        }
      ],
      "stateMutability": "view",
      "type": "function"
    },
    {
      "inputs": [],
      "name": "renounceOwnership",
      "outputs": [],
      "stateMutability": "nonpayable",
      "type": "function"
    },
    {
      "inputs": [
        {
          "internalType": "address",
          "name": "from",
          "type": "address"
        },
        {
          "internalType": "address",
          "name": "to",
          "type": "address"
        },
        {
          "internalType": "uint256",
          "name": "tokenId",
          "type": "uint256"
        }
      ],
      "name": "safeTransferFrom",
      "outputs": [],
      "stateMutability": "nonpayable",
      "type": "function"
    },
    {
      "inputs": [
        {
          "internalType": "address",
          "name": "from",
          "type": "address"
        },
        {
          "internalType": "address",
          "name": "to",
          "type": "address"
        },
        {
          "internalType": "uint256",
          "name": "tokenId",
          "type": "uint256"
        },
        {
          "internalType": "bytes",
          "name": "data",
          "type": "bytes"
        }
      ],
      "name": "safeTransferFrom",
      "outputs": [],
      "stateMutability": "nonpayable",
      "type": "function"
    },
    {
      "inputs": [
        {
          "internalType": "address",
          "name": "operator",
          "type": "address"
        },
        {
          "internalType": "bool",
          "name": "approved",
          "type": "bool"
        }
      ],
      "name": "setApprovalForAll",
      "outputs": [],
      "stateMutability": "nonpayable",
      "type": "function"
    },
    {
      "inputs": [
        {
          "internalType": "address",
          "name": "_blockEstateMarketAddress",
          "type": "address"
        }
      ],
      "name": "setBlockEstateMarketAddress",
      "outputs": [],
      "stateMutability": "nonpayable",
      "type": "function"
    },
    {
      "inputs": [
        {
          "internalType": "address",
          "name": "_blockEstateSharesAddress",
          "type": "address"
        }
      ],
      "name": "setBlockEstateSharesAddress",
      "outputs": [],
      "stateMutability": "nonpayable",
      "type": "function"
    },
    {
      "inputs": [
        {
          "internalType": "bytes4",
          "name": "interfaceId",
          "type": "bytes4"
        }
      ],
      "name": "supportsInterface",
      "outputs": [
        {
          "internalType": "bool",
          "name": "",
          "type": "bool"
        }
      ],
      "stateMutability": "view",
      "type": "function"
    },
    {
      "inputs": [],
      "name": "symbol",
      "outputs": [
        {
          "internalType": "string",
          "name": "",
          "type": "string"
        }
      ],
      "stateMutability": "view",
      "type": "function"
    },
    {
      "inputs": [
        {
          "internalType": "uint256",
          "name": "index",
          "type": "uint256"
        }
      ],
      "name": "tokenByIndex",
      "outputs": [
        {
          "internalType": "uint256",
          "name": "",
          "type": "uint256"
        }
      ],
      "stateMutability": "view",
      "type": "function"
    },
    {
      "inputs": [
        {
          "internalType": "address",
          "name": "owner",
          "type": "address"
        },
        {
          "internalType": "uint256",
          "name": "index",
          "type": "uint256"
        }
      ],
      "name": "tokenOfOwnerByIndex",
      "outputs": [
        {
          "internalType": "uint256",
          "name": "",
          "type": "uint256"
        }
      ],
      "stateMutability": "view",
      "type": "function"
    },
    {
      "inputs": [
        {
          "internalType": "uint256",
          "name": "tokenId",
          "type": "uint256"
        }
      ],
      "name": "tokenURI",
      "outputs": [
        {
          "internalType": "string",
          "name": "",
          "type": "string"
        }
      ],
      "stateMutability": "view",
      "type": "function"
    },
    {
      "inputs": [],
      "name": "totalSupply",
      "outputs": [
        {
          "internalType": "uint256",
          "name": "",
          "type": "uint256"
        }
      ],
      "stateMutability": "view",
      "type": "function"
    },
    {
      "inputs": [
        {
          "internalType": "address",
          "name": "from",
          "type": "address"
        },
        {
          "internalType": "address",
          "name": "to",
          "type": "address"
        },
        {
          "internalType": "uint256",
          "name": "tokenId",
          "type": "uint256"
        }
      ],
      "name": "transferFrom",
      "outputs": [],
      "stateMutability": "nonpayable",
      "type": "function"
    },
    {
      "inputs": [
        {
          "internalType": "address",
          "name": "newOwner",
          "type": "address"
        }
      ],
      "name": "transferOwnership",
      "outputs": [],
      "stateMutability": "nonpayable",
      "type": "function"
    },
    {
      "inputs": [],
      "name": "unpause",
      "outputs": [],
      "stateMutability": "nonpayable",
      "type": "function"
    }
  ],
  "bytecode": "0x60806040523480156200001157600080fd5b5060405180604001604052806011815260200170426c6f636b45737461746541737365747360781b8152506040518060400160405280600381526020016242454160e81b8152508160009081620000699190620001bd565b506001620000788282620001bd565b5050600a805460ff19169055506200009033620000b5565b6001600b81905550620000af600c6200010f60201b620018bb1760201c565b62000289565b600a80546001600160a01b03838116610100818102610100600160a81b031985161790945560405193909204169182907f8be0079c531659141344cd1fd0a4f28419497f9722a3daafe3b4186f6b6457e090600090a35050565b80546001019055565b634e487b7160e01b600052604160045260246000fd5b600181811c908216806200014357607f821691505b6020821081036200016457634e487b7160e01b600052602260045260246000fd5b50919050565b601f821115620001b857600081815260208120601f850160051c81016020861015620001935750805b601f850160051c820191505b81811015620001b4578281556001016200019f565b5050505b505050565b81516001600160401b03811115620001d957620001d962000118565b620001f181620001ea84546200012e565b846200016a565b602080601f831160018114620002295760008415620002105750858301515b600019600386901b1c1916600185901b178555620001b4565b600085815260208120601f198616915b828110156200025a5788860151825594840194600190910190840162000239565b5085821015620002795787850151600019600388901b60f8161c191681555b5050505050600190811b01905550565b61366680620002996000396000f3fe608060405234801561001057600080fd5b50600436106102065760003560e01c80635131e4e71161011a5780638da5cb5b116100ad578063b88d4fde1161007c578063b88d4fde14610440578063c87b56dd14610453578063d076b6b314610466578063e985e9c514610479578063f2fde38b146104b557600080fd5b80638da5cb5b146103fc57806395d89b41146104125780639f653c511461041a578063a22cb4651461042d57600080fd5b8063715018a6116100e9578063715018a6146103c65780637eb79b53146103ce5780638456cb59146103e15780638947473f146103e957600080fd5b80635131e4e7146103825780635c975abb146103955780636352211e146103a057806370a08231146103b357600080fd5b80632d192e6f1161019d57806342842e0e1161016c57806342842e0e1461032357806342966c68146103365780634cfe601a146103495780634f558e791461035c5780634f6ccce71461036f57600080fd5b80632d192e6f146102ed5780632ee5ba2c146103005780632f745c59146103085780633f4ba83a1461031b57600080fd5b8063095ea7b3116101d9578063095ea7b31461029357806318160ddd146102a8578063223baab4146102ba57806323b872dd146102da57600080fd5b806301ffc9a71461020b5780630488a3b91461023357806306fdde0314610253578063081812fc14610268575b600080fd5b61021e610219366004612aee565b6104c8565b60405190151581526020015b60405180910390f35b610246610241366004612b0b565b6104d9565b60405161022a9190612c2c565b61025b6107ea565b60405161022a9190612c3f565b61027b610276366004612b0b565b61087c565b6040516001600160a01b03909116815260200161022a565b6102a66102a1366004612c67565b6108a3565b005b6008545b60405190815260200161022a565b6102cd6102c8366004612c93565b6109b8565b60405161022a9190612cb0565b6102a66102e8366004612d12565b610a70565b6102cd6102fb366004612dbe565b610aa2565b6102cd610b5a565b6102ac610316366004612c67565b610c04565b6102a6610c9a565b6102a6610331366004612d12565b610cac565b6102a6610344366004612b0b565b610cc7565b6102a6610357366004612c93565b610cf8565b61021e61036a366004612b0b565b610db5565b6102ac61037d366004612b0b565b610dc0565b6102a6610390366004612c93565b610e53565b600a5460ff1661021e565b61027b6103ae366004612b0b565b610f10565b6102ac6103c1366004612c93565b610f70565b6102a6610ff6565b6102a66103dc366004612b0b565b611008565b6102a661118d565b600e5461027b906001600160a01b031681565b600a5461010090046001600160a01b031661027b565b61025b61119d565b600d5461027b906001600160a01b031681565b6102a661043b366004612e49565b6111ac565b6102a661044e366004612edf565b6111bb565b61025b610461366004612b0b565b6111f3565b6102ac610474366004612fa7565b61125a565b61021e610487366004613086565b6001600160a01b03918216600090815260056020908152604080832093909416825291909152205460ff1690565b6102a66104c3366004612c93565b611845565b60006104d3826118c4565b92915050565b6104e1612a28565b816104eb816118e9565b6105345760405162461bcd60e51b8152602060048201526015602482015274546f6b656e20646f6573206e6f742065786973742160581b60448201526064015b60405180910390fd5b6000838152600f6020908152604091829020825160608101845281548152600182015460ff1692810192909252825160c081018452600282018054939492939285019282908290610584906130b4565b80601f01602080910402602001604051908101604052809291908181526020018280546105b0906130b4565b80156105fd5780601f106105d2576101008083540402835291602001916105fd565b820191906000526020600020905b8154815290600101906020018083116105e057829003601f168201915b5050509183525050600182015461ffff808216602084015262010000909104166040820152600282018054606090920191610637906130b4565b80601f0160208091040260200160405190810160405280929190818152602001828054610663906130b4565b80156106b05780601f10610685576101008083540402835291602001916106b0565b820191906000526020600020905b81548152906001019060200180831161069357829003601f168201915b505050505081526020016003820180546106c9906130b4565b80601f01602080910402602001604051908101604052809291908181526020018280546106f5906130b4565b80156107425780601f1061071757610100808354040283529160200191610742565b820191906000526020600020905b81548152906001019060200180831161072557829003601f168201915b5050505050815260200160048201805461075b906130b4565b80601f0160208091040260200160405190810160405280929190818152602001828054610787906130b4565b80156107d45780601f106107a9576101008083540402835291602001916107d4565b820191906000526020600020905b8154815290600101906020018083116107b757829003601f168201915b5050505050815250508152505091505b50919050565b6060600080546107f9906130b4565b80601f0160208091040260200160405190810160405280929190818152602001828054610825906130b4565b80156108725780601f1061084757610100808354040283529160200191610872565b820191906000526020600020905b81548152906001019060200180831161085557829003601f168201915b5050505050905090565b600061088782611906565b506000908152600460205260409020546001600160a01b031690565b60006108ae82610f10565b9050806001600160a01b0316836001600160a01b03160361091b5760405162461bcd60e51b815260206004820152602160248201527f4552433732313a20617070726f76616c20746f2063757272656e74206f776e656044820152603960f91b606482015260840161052b565b336001600160a01b038216148061093757506109378133610487565b6109a95760405162461bcd60e51b815260206004820152603d60248201527f4552433732313a20617070726f76652063616c6c6572206973206e6f7420746f60448201527f6b656e206f776e6572206f7220617070726f76656420666f7220616c6c000000606482015260840161052b565b6109b38383611956565b505050565b606060006109c583610f70565b67ffffffffffffffff8111156109dd576109dd612d53565b604051908082528060200260200182016040528015610a1657816020015b610a03612a28565b8152602001906001900390816109fb5790505b50905060005b610a2584610f70565b811015610a6957610a396102418583610c04565b828281518110610a4b57610a4b6130e8565b60200260200101819052508080610a6190613114565b915050610a1c565b5092915050565b610a7b335b826119c4565b610a975760405162461bcd60e51b815260040161052b9061312d565b6109b3838383611a43565b60606000825167ffffffffffffffff811115610ac057610ac0612d53565b604051908082528060200260200182016040528015610af957816020015b610ae6612a28565b815260200190600190039081610ade5790505b50905060005b8351811015610a6957610b2a848281518110610b1d57610b1d6130e8565b60200260200101516104d9565b828281518110610b3c57610b3c6130e8565b60200260200101819052508080610b5290613114565b915050610aff565b60606000610b6760085490565b67ffffffffffffffff811115610b7f57610b7f612d53565b604051908082528060200260200182016040528015610bb857816020015b610ba5612a28565b815260200190600190039081610b9d5790505b50905060005b6008548110156107e457610bd461024182610dc0565b828281518110610be657610be66130e8565b60200260200101819052508080610bfc90613114565b915050610bbe565b6000610c0f83610f70565b8210610c715760405162461bcd60e51b815260206004820152602b60248201527f455243373231456e756d657261626c653a206f776e657220696e646578206f7560448201526a74206f6620626f756e647360a81b606482015260840161052b565b506001600160a01b03919091166000908152600660209081526040808320938352929052205490565b610ca2611bb4565b610caa611c14565b565b6109b3838383604051806020016040528060008152506111bb565b610cd033610a75565b610cec5760405162461bcd60e51b815260040161052b9061312d565b610cf581611c66565b50565b610d00611bb4565b6001600160a01b038116610d455760405162461bcd60e51b815260206004820152600c60248201526b7a65726f206164647265737360a01b604482015260640161052b565b600e54604080516001600160a01b03928316815291831660208301527f5d9e527e2ab85eed8c12dbfdfa49903b509f3b367dec19463530d787dcfd2854910160405180910390a1600e80546001600160a01b0319166001600160a01b038316908117909155610cf59060016111ac565b60006104d3826118e9565b6000610dcb60085490565b8210610e2e5760405162461bcd60e51b815260206004820152602c60248201527f455243373231456e756d657261626c653a20676c6f62616c20696e646578206f60448201526b7574206f6620626f756e647360a01b606482015260840161052b565b60088281548110610e4157610e416130e8565b90600052602060002001549050919050565b610e5b611bb4565b6001600160a01b038116610ea05760405162461bcd60e51b815260206004820152600c60248201526b7a65726f206164647265737360a01b604482015260640161052b565b600d54604080516001600160a01b03928316815291831660208301527f1a41fb6f752ad018610bf79716ec70546bbda4a0235520e04158d3c4f3486230910160405180910390a1600d80546001600160a01b0319166001600160a01b038316908117909155610cf59060016111ac565b6000818152600260205260408120546001600160a01b0316806104d35760405162461bcd60e51b8152602060048201526018602482015277115490cdcc8c4e881a5b9d985b1a59081d1bdad95b88125160421b604482015260640161052b565b60006001600160a01b038216610fda5760405162461bcd60e51b815260206004820152602960248201527f4552433732313a2061646472657373207a65726f206973206e6f7420612076616044820152683634b21037bbb732b960b91b606482015260840161052b565b506001600160a01b031660009081526003602052604090205490565b610ffe611bb4565b610caa6000611d09565b80611012816118e9565b6110565760405162461bcd60e51b8152602060048201526015602482015274546f6b656e20646f6573206e6f742065786973742160581b604482015260640161052b565b61105f82610cc7565b6000828152600f60209081526040808320600181015460038201549251601095946110b59460ff90931693600281019361ffff8082169462010000909204169260048301926005810192600690910191016131ed565b60408051601f1981840301815291815281516020928301208352828201939093529082016000908120805460ff19908116909155858252600f9092529182208281556001810180549092169091559060028201816111138282612a8a565b60018201805463ffffffff19169055611130600283016000612a8a565b61113e600383016000612a8a565b61114c600483016000612a8a565b505050507fa688c45cd59c2527ae60c477de2510cf8cec40aa54def51bae6c2725468871a28260405161118191815260200190565b60405180910390a15050565b611195611bb4565b610caa611d63565b6060600180546107f9906130b4565b6111b7338383611da0565b5050565b6111c533836119c4565b6111e15760405162461bcd60e51b815260040161052b9061312d565b6111ed84848484611e6e565b50505050565b60606111fe82611906565b6000611208611ea1565b905060008151116112285760405180602001604052806000815250611253565b8061123284611ec1565b604051602001611243929190613255565b6040516020818303038152906040525b9392505050565b6000611264611f54565b600160ff891611156112b85760405162461bcd60e51b815260206004820152601760248201527f496e76616c69642061737365742063617465676f727921000000000000000000604482015260640161052b565b60028751116113235760405162461bcd60e51b815260206004820152603160248201527f537472656574206e616d652073686f756c64206265206174206c6561737420336044820152702063686172616374657273206c6f6e672160781b606482015260840161052b565b60008661ffff16116113835760405162461bcd60e51b815260206004820152602360248201527f537472656574206e756d6265722073686f756c64206265206174206c6561737460448201526220312160e81b606482015260840161052b565b8760ff166000036113f15760008561ffff16116113f15760405162461bcd60e51b815260206004820152602660248201527f41706172746d656e74206e756d6265722073686f756c64206265206174206c6560448201526561737420312160d01b606482015260840161052b565b60008451116114595760405162461bcd60e51b815260206004820152602e60248201527f43697479206e616d652073686f756c64206265206174206c656173742031206360448201526d6861726163746572206c6f6e672160901b606482015260840161052b565b60008351116114bb5760405162461bcd60e51b815260206004820152602860248201527f5a697020636f64652073686f756c64206265206174206c65617374206f66206c604482015267656e67746820312160c01b606482015260840161052b565b60038251116115275760405162461bcd60e51b815260206004820152603260248201527f436f756e747279206e616d652073686f756c64206265206174206c6561737420604482015271342063686172616374657273206c6f6e672160701b606482015260840161052b565b6040805160c08101825288815261ffff8089166020808401829052918916838501819052606084018990526080840188905260a0840187905293519293601093600093611582938f938f93919290918d918d918d9101613284565b60408051601f198184030181529181528151602092830120835290820192909252016000205460ff16156116095760405162461bcd60e51b815260206004820152602860248201527f417373657420776974682074686973206c6f636174696f6e20616c7265616479604482015267206578697374732160c01b606482015260840161052b565b61161b33611616600c5490565b611fad565b604051806060016040528061162f600c5490565b815260ff8b166020820152604001829052600f600061164d600c5490565b81526020808201929092526040908101600020835181559183015160018301805460ff191660ff9092169190911790558201518051600283019081906116939082613367565b506020820151600182018054604085015161ffff908116620100000263ffffffff19909216931692909217919091179055606082015160028201906116d89082613367565b50608082015160038201906116ed9082613367565b5060a082015160048201906117029082613367565b5050509050506001601060008b846000015185602001518660400151876060015188608001518960a001516040516020016117439796959493929190613284565b60408051808303601f19018152918152815160209283012083529082019290925201600020805460ff1916911515919091179055600c547fe9667cd49094a292b02a1d8555f54c265b42912082c2f32b2050393b06d835989060405190815260200160405180910390a160006117b8600c5490565b90506117c8600c80546001019055565b600d546040516306d1fdfd60e41b8152336004820152602481018390526001600160a01b0390911690636d1fdfd090604401600060405180830381600087803b15801561181457600080fd5b505af1158015611828573d6000803e3d6000fd5b509294505050505061183a6001600b55565b979650505050505050565b61184d611bb4565b6001600160a01b0381166118b25760405162461bcd60e51b815260206004820152602660248201527f4f776e61626c653a206e6577206f776e657220697320746865207a65726f206160448201526564647265737360d01b606482015260840161052b565b610cf581611d09565b80546001019055565b60006001600160e01b0319821663780e9d6360e01b14806104d357506104d382611fc7565b6000908152600260205260409020546001600160a01b0316151590565b61190f816118e9565b610cf55760405162461bcd60e51b8152602060048201526018602482015277115490cdcc8c4e881a5b9d985b1a59081d1bdad95b88125160421b604482015260640161052b565b600081815260046020526040902080546001600160a01b0319166001600160a01b038416908117909155819061198b82610f10565b6001600160a01b03167f8c5be1e5ebec7d5bd14f71427d1e84f3dd0314c0f7b2291e5b200ac8c7c3b92560405160405180910390a45050565b6000806119d083610f10565b9050806001600160a01b0316846001600160a01b03161480611a1757506001600160a01b0380821660009081526005602090815260408083209388168352929052205460ff165b80611a3b5750836001600160a01b0316611a308461087c565b6001600160a01b0316145b949350505050565b826001600160a01b0316611a5682610f10565b6001600160a01b031614611a7c5760405162461bcd60e51b815260040161052b90613427565b6001600160a01b038216611ade5760405162461bcd60e51b8152602060048201526024808201527f4552433732313a207472616e7366657220746f20746865207a65726f206164646044820152637265737360e01b606482015260840161052b565b611aeb8383836001612017565b826001600160a01b0316611afe82610f10565b6001600160a01b031614611b245760405162461bcd60e51b815260040161052b90613427565b600081815260046020908152604080832080546001600160a01b03199081169091556001600160a01b0387811680865260038552838620805460001901905590871680865283862080546001019055868652600290945282852080549092168417909155905184937fddf252ad1be2c89b69c2b068fc378daa952ba7f163c4a11628f55a4df523b3ef91a4505050565b600a546001600160a01b03610100909104163314610caa5760405162461bcd60e51b815260206004820181905260248201527f4f776e61626c653a2063616c6c6572206973206e6f7420746865206f776e6572604482015260640161052b565b611c1c6122c1565b600a805460ff191690557f5db9ee0a495bf2e6ff9c91a7834c1ba4fdd244a5e8aa4e537bd38aeae4b073aa335b6040516001600160a01b03909116815260200160405180910390a1565b6000611c7182610f10565b9050611c81816000846001612017565b611c8a82610f10565b600083815260046020908152604080832080546001600160a01b03199081169091556001600160a01b0385168085526003845282852080546000190190558785526002909352818420805490911690555192935084927fddf252ad1be2c89b69c2b068fc378daa952ba7f163c4a11628f55a4df523b3ef908390a45050565b600a80546001600160a01b03838116610100818102610100600160a81b031985161790945560405193909204169182907f8be0079c531659141344cd1fd0a4f28419497f9722a3daafe3b4186f6b6457e090600090a35050565b611d6b61230a565b600a805460ff191660011790557f62e78cea01bee320cd4e420270b5ea74000d11b0c9f74754ebdbfc544b05a258611c493390565b816001600160a01b0316836001600160a01b031603611e015760405162461bcd60e51b815260206004820152601960248201527f4552433732313a20617070726f766520746f2063616c6c657200000000000000604482015260640161052b565b6001600160a01b03838116600081815260056020908152604080832094871680845294825291829020805460ff191686151590811790915591519182527f17307eab39ab6107e8899845ad3d59bd9653f200f220920489ca2b5937696c31910160405180910390a3505050565b611e79848484611a43565b611e8584848484612350565b6111ed5760405162461bcd60e51b815260040161052b9061346c565b60606040518060600160405280603481526020016135fd60349139905090565b60606000611ece83612451565b600101905060008167ffffffffffffffff811115611eee57611eee612d53565b6040519080825280601f01601f191660200182016040528015611f18576020820181803683370190505b5090508181016020015b600019016f181899199a1a9b1b9c1cb0b131b232b360811b600a86061a8153600a8504945084611f2257509392505050565b6002600b5403611fa65760405162461bcd60e51b815260206004820152601f60248201527f5265656e7472616e637947756172643a207265656e7472616e742063616c6c00604482015260640161052b565b6002600b55565b6111b7828260405180602001604052806000815250612529565b60006001600160e01b031982166380ac58cd60e01b1480611ff857506001600160e01b03198216635b5e139f60e01b145b806104d357506301ffc9a760e01b6001600160e01b03198316146104d3565b61201f61230a565b61202b8484848461255c565b600d546040516310f9323360e21b8152600481018490526000916001600160a01b0316906343e4c8cc90602401600060405180830381865afa158015612075573d6000803e3d6000fd5b505050506040513d6000823e601f3d908101601f1916820160405261209d91908101906134be565b90506001600160a01b038416158015906120b8575060008151115b156122ba5760008060005b835181101561224957600d54845184916001600160a01b03169062fdd58e908790859081106120f4576120f46130e8565b6020026020010151896040518363ffffffff1660e01b815260040161212e9291906001600160a01b03929092168252602082015260400190565b602060405180830381865afa15801561214b573d6000803e3d6000fd5b505050506040513d601f19601f8201168201806040525081019061216f919061354d565b111561223757600d5484516001600160a01b039091169062fdd58e9086908490811061219d5761219d6130e8565b6020026020010151886040518363ffffffff1660e01b81526004016121d79291906001600160a01b03929092168252602082015260400190565b602060405180830381865afa1580156121f4573d6000803e3d6000fd5b505050506040513d601f19601f82011682018060405250810190612218919061354d565b925083818151811061222c5761222c6130e8565b602002602001015191505b8061224181613114565b9150506120c3565b50856001600160a01b0316816001600160a01b0316146122b75760405162461bcd60e51b815260206004820152602360248201527f526563697069656e74206973206e6f74206d616a6f72207368617265686f6c6460448201526265722160e81b606482015260840161052b565b50505b5050505050565b600a5460ff16610caa5760405162461bcd60e51b815260206004820152601460248201527314185d5cd8589b194e881b9bdd081c185d5cd95960621b604482015260640161052b565b600a5460ff1615610caa5760405162461bcd60e51b815260206004820152601060248201526f14185d5cd8589b194e881c185d5cd95960821b604482015260640161052b565b60006001600160a01b0384163b1561244657604051630a85bd0160e11b81526001600160a01b0385169063150b7a0290612394903390899088908890600401613566565b6020604051808303816000875af19250505080156123cf575060408051601f3d908101601f191682019092526123cc918101906135a3565b60015b61242c573d8080156123fd576040519150601f19603f3d011682016040523d82523d6000602084013e612402565b606091505b5080516000036124245760405162461bcd60e51b815260040161052b9061346c565b805181602001fd5b6001600160e01b031916630a85bd0160e11b149050611a3b565b506001949350505050565b60008072184f03e93ff9f4daa797ed6e38ed64bf6a1f0160401b83106124905772184f03e93ff9f4daa797ed6e38ed64bf6a1f0160401b830492506040015b6d04ee2d6d415b85acef810000000083106124bc576d04ee2d6d415b85acef8100000000830492506020015b662386f26fc1000083106124da57662386f26fc10000830492506010015b6305f5e10083106124f2576305f5e100830492506008015b612710831061250657612710830492506004015b60648310612518576064830492506002015b600a83106104d35760010192915050565b6125338383612695565b6125406000848484612350565b6109b35760405162461bcd60e51b815260040161052b9061346c565b61256884848484612810565b60018111156125d75760405162461bcd60e51b815260206004820152603560248201527f455243373231456e756d657261626c653a20636f6e7365637574697665207472604482015274185b9cd9995c9cc81b9bdd081cdd5c1c1bdc9d1959605a1b606482015260840161052b565b816001600160a01b0385166126335761262e81600880546000838152600960205260408120829055600182018355919091527ff3f7a9fe364faab93b216da50a3214154f22a0a2b415b23a84c8169e8b636ee30155565b612656565b836001600160a01b0316856001600160a01b031614612656576126568582612898565b6001600160a01b0384166126725761266d81612935565b6122ba565b846001600160a01b0316846001600160a01b0316146122ba576122ba84826129e4565b6001600160a01b0382166126eb5760405162461bcd60e51b815260206004820181905260248201527f4552433732313a206d696e7420746f20746865207a65726f2061646472657373604482015260640161052b565b6126f4816118e9565b156127415760405162461bcd60e51b815260206004820152601c60248201527f4552433732313a20746f6b656e20616c7265616479206d696e74656400000000604482015260640161052b565b61274f600083836001612017565b612758816118e9565b156127a55760405162461bcd60e51b815260206004820152601c60248201527f4552433732313a20746f6b656e20616c7265616479206d696e74656400000000604482015260640161052b565b6001600160a01b038216600081815260036020908152604080832080546001019055848352600290915280822080546001600160a01b0319168417905551839291907fddf252ad1be2c89b69c2b068fc378daa952ba7f163c4a11628f55a4df523b3ef908290a45050565b60018111156111ed576001600160a01b03841615612856576001600160a01b038416600090815260036020526040812080548392906128509084906135c0565b90915550505b6001600160a01b038316156111ed576001600160a01b0383166000908152600360205260408120805483929061288d9084906135d3565b909155505050505050565b600060016128a584610f70565b6128af91906135c0565b600083815260076020526040902054909150808214612902576001600160a01b03841660009081526006602090815260408083208584528252808320548484528184208190558352600790915290208190555b5060009182526007602090815260408084208490556001600160a01b039094168352600681528383209183525290812055565b600854600090612947906001906135c0565b6000838152600960205260408120546008805493945090928490811061296f5761296f6130e8565b906000526020600020015490508060088381548110612990576129906130e8565b60009182526020808320909101929092558281526009909152604080822084905585825281205560088054806129c8576129c86135e6565b6001900381819060005260206000200160009055905550505050565b60006129ef83610f70565b6001600160a01b039093166000908152600660209081526040808320868452825280832085905593825260079052919091209190915550565b604051806060016040528060008152602001600060ff168152602001612a856040518060c0016040528060608152602001600061ffff168152602001600061ffff1681526020016060815260200160608152602001606081525090565b905290565b508054612a96906130b4565b6000825580601f10612aa6575050565b601f016020900490600052602060002090810190610cf591905b80821115612ad45760008155600101612ac0565b5090565b6001600160e01b031981168114610cf557600080fd5b600060208284031215612b0057600080fd5b813561125381612ad8565b600060208284031215612b1d57600080fd5b5035919050565b60005b83811015612b3f578181015183820152602001612b27565b50506000910152565b60008151808452612b60816020860160208601612b24565b601f01601f19169290920160200192915050565b8051825260ff60208201511660208301526000604082015160606040850152805160c06060860152612baa610120860182612b48565b602083015161ffff908116608088015260408401511660a08701526060830151868203605f1990810160c089015291925090612be68383612b48565b925060808401519150808784030160e0880152612c038383612b48565b925060a0840151935080878403016101008801525050612c238183612b48565b95945050505050565b6020815260006112536020830184612b74565b6020815260006112536020830184612b48565b6001600160a01b0381168114610cf557600080fd5b60008060408385031215612c7a57600080fd5b8235612c8581612c52565b946020939093013593505050565b600060208284031215612ca557600080fd5b813561125381612c52565b6000602080830181845280855180835260408601915060408160051b870101925083870160005b82811015612d0557603f19888603018452612cf3858351612b74565b94509285019290850190600101612cd7565b5092979650505050505050565b600080600060608486031215612d2757600080fd5b8335612d3281612c52565b92506020840135612d4281612c52565b929592945050506040919091013590565b634e487b7160e01b600052604160045260246000fd5b604051601f8201601f1916810167ffffffffffffffff81118282101715612d9257612d92612d53565b604052919050565b600067ffffffffffffffff821115612db457612db4612d53565b5060051b60200190565b60006020808385031215612dd157600080fd5b823567ffffffffffffffff811115612de857600080fd5b8301601f81018513612df957600080fd5b8035612e0c612e0782612d9a565b612d69565b81815260059190911b82018301908381019087831115612e2b57600080fd5b928401925b8284101561183a57833582529284019290840190612e30565b60008060408385031215612e5c57600080fd5b8235612e6781612c52565b915060208301358015158114612e7c57600080fd5b809150509250929050565b600067ffffffffffffffff831115612ea157612ea1612d53565b612eb4601f8401601f1916602001612d69565b9050828152838383011115612ec857600080fd5b828260208301376000602084830101529392505050565b60008060008060808587031215612ef557600080fd5b8435612f0081612c52565b93506020850135612f1081612c52565b925060408501359150606085013567ffffffffffffffff811115612f3357600080fd5b8501601f81018713612f4457600080fd5b612f5387823560208401612e87565b91505092959194509250565b803560ff81168114612f7057600080fd5b919050565b600082601f830112612f8657600080fd5b61125383833560208501612e87565b803561ffff81168114612f7057600080fd5b600080600080600080600060e0888a031215612fc257600080fd5b612fcb88612f5f565b9650602088013567ffffffffffffffff80821115612fe857600080fd5b612ff48b838c01612f75565b975061300260408b01612f95565b965061301060608b01612f95565b955060808a013591508082111561302657600080fd5b6130328b838c01612f75565b945060a08a013591508082111561304857600080fd5b6130548b838c01612f75565b935060c08a013591508082111561306a57600080fd5b506130778a828b01612f75565b91505092959891949750929550565b6000806040838503121561309957600080fd5b82356130a481612c52565b91506020830135612e7c81612c52565b600181811c908216806130c857607f821691505b6020821081036107e457634e487b7160e01b600052602260045260246000fd5b634e487b7160e01b600052603260045260246000fd5b634e487b7160e01b600052601160045260246000fd5b600060018201613126576131266130fe565b5060010190565b6020808252602d908201527f4552433732313a2063616c6c6572206973206e6f7420746f6b656e206f776e6560408201526c1c881bdc88185c1c1c9bdd9959609a1b606082015260800190565b60008154613187816130b4565b6001828116801561319f57600181146131b4576131e3565b60ff19841687528215158302870194506131e3565b8560005260208060002060005b858110156131da5781548a8201529084019082016131c1565b50505082870194505b5050505092915050565b60f888901b6001600160f81b0319168152600061320d600183018961317a565b6001600160f01b031960f089811b8216835288901b16600282015261324761324161323b600484018961317a565b8761317a565b8561317a565b9a9950505050505050505050565b60008351613267818460208801612b24565b83519083019061327b818360208801612b24565b01949350505050565b60ff60f81b8860f81b168152600087516132a5816001850160208c01612b24565b60f088811b6001600160f01b03199081166001938601938401529088901b16600382015285516132dc816005840160208a01612b24565b85519101906132f2816005840160208901612b24565b8451910190613308816005840160208801612b24565b016005019998505050505050505050565b601f8211156109b357600081815260208120601f850160051c810160208610156133405750805b601f850160051c820191505b8181101561335f5782815560010161334c565b505050505050565b815167ffffffffffffffff81111561338157613381612d53565b6133958161338f84546130b4565b84613319565b602080601f8311600181146133ca57600084156133b25750858301515b600019600386901b1c1916600185901b17855561335f565b600085815260208120601f198616915b828110156133f9578886015182559484019460019091019084016133da565b50858210156134175787850151600019600388901b60f8161c191681555b5050505050600190811b01905550565b60208082526025908201527f4552433732313a207472616e736665722066726f6d20696e636f72726563742060408201526437bbb732b960d91b606082015260800190565b60208082526032908201527f4552433732313a207472616e7366657220746f206e6f6e20455243373231526560408201527131b2b4bb32b91034b6b83632b6b2b73a32b960711b606082015260800190565b600060208083850312156134d157600080fd5b825167ffffffffffffffff8111156134e857600080fd5b8301601f810185136134f957600080fd5b8051613507612e0782612d9a565b81815260059190911b8201830190838101908783111561352657600080fd5b928401925b8284101561183a57835161353e81612c52565b8252928401929084019061352b565b60006020828403121561355f57600080fd5b5051919050565b6001600160a01b038581168252841660208201526040810183905260806060820181905260009061359990830184612b48565b9695505050505050565b6000602082840312156135b557600080fd5b815161125381612ad8565b818103818111156104d3576104d36130fe565b808201808211156104d3576104d36130fe565b634e487b7160e01b600052603160045260246000fdfe68747470733a2f2f626c6f636b6573746174652e616c65786f6368732e64652f6170692f6d657461646174612f6173736574732fa264697066735822122002cf638ca4dc0292f4aea5c0654f6155a99ff2f31b9c6986dca46f0a5ad1ea9864736f6c63430008120033",
  "linkReferences": {},
  "deployedLinkReferences": {}
}