{
  "_format": "hh-sol-artifact-1",
  "contractName": "BlockEstateShares",
  "sourceName": "contracts/BlockEstateShares.sol",
  "abi": [
    {
      "inputs": [
        {
          "internalType": "address",
          "name": "_blockEstateAssetsAddress",
          "type": "address"
        }
      ],
      "stateMutability": "nonpayable",
      "type": "constructor"
    },
    {
      "anonymous": false,
      "inputs": [
        {
          "indexed": true,
          "internalType": "address",
          "name": "account",
          "type": "address"
        },
        {
          "indexed": true,
          "internalType": "address",
          "name": "operator",
          "type": "address"
        },
        {
          "indexed": false,
          "internalType": "bool",
          "name": "approved",
          "type": "bool"
        }
      ],
      "name": "ApprovalForAll",
      "type": "event"
    },
    {
      "anonymous": false,
      "inputs": [
        {
          "indexed": true,
          "internalType": "address",
          "name": "previousOwner",
          "type": "address"
        },
        {
          "indexed": true,
          "internalType": "address",
          "name": "newOwner",
          "type": "address"
        }
      ],
      "name": "OwnershipTransferred",
      "type": "event"
    },
    {
      "anonymous": false,
      "inputs": [
        {
          "indexed": false,
          "internalType": "address",
          "name": "account",
          "type": "address"
        }
      ],
      "name": "Paused",
      "type": "event"
    },
    {
      "anonymous": false,
      "inputs": [
        {
          "indexed": true,
          "internalType": "address",
          "name": "operator",
          "type": "address"
        },
        {
          "indexed": true,
          "internalType": "address",
          "name": "from",
          "type": "address"
        },
        {
          "indexed": true,
          "internalType": "address",
          "name": "to",
          "type": "address"
        },
        {
          "indexed": false,
          "internalType": "uint256[]",
          "name": "ids",
          "type": "uint256[]"
        },
        {
          "indexed": false,
          "internalType": "uint256[]",
          "name": "values",
          "type": "uint256[]"
        }
      ],
      "name": "TransferBatch",
      "type": "event"
    },
    {
      "anonymous": false,
      "inputs": [
        {
          "indexed": true,
          "internalType": "address",
          "name": "operator",
          "type": "address"
        },
        {
          "indexed": true,
          "internalType": "address",
          "name": "from",
          "type": "address"
        },
        {
          "indexed": true,
          "internalType": "address",
          "name": "to",
          "type": "address"
        },
        {
          "indexed": false,
          "internalType": "uint256",
          "name": "id",
          "type": "uint256"
        },
        {
          "indexed": false,
          "internalType": "uint256",
          "name": "value",
          "type": "uint256"
        }
      ],
      "name": "TransferSingle",
      "type": "event"
    },
    {
      "anonymous": false,
      "inputs": [
        {
          "indexed": false,
          "internalType": "string",
          "name": "value",
          "type": "string"
        },
        {
          "indexed": true,
          "internalType": "uint256",
          "name": "id",
          "type": "uint256"
        }
      ],
      "name": "URI",
      "type": "event"
    },
    {
      "anonymous": false,
      "inputs": [
        {
          "indexed": false,
          "internalType": "address",
          "name": "account",
          "type": "address"
        }
      ],
      "name": "Unpaused",
      "type": "event"
    },
    {
      "inputs": [
        {
          "internalType": "address",
          "name": "account",
          "type": "address"
        },
        {
          "internalType": "uint256",
          "name": "id",
          "type": "uint256"
        }
      ],
      "name": "balanceOf",
      "outputs": [
        {
          "internalType": "uint256",
          "name": "",
          "type": "uint256"
        }
      ],
      "stateMutability": "view",
      "type": "function"
    },
    {
      "inputs": [
        {
          "internalType": "address[]",
          "name": "accounts",
          "type": "address[]"
        },
        {
          "internalType": "uint256[]",
          "name": "ids",
          "type": "uint256[]"
        }
      ],
      "name": "balanceOfBatch",
      "outputs": [
        {
          "internalType": "uint256[]",
          "name": "",
          "type": "uint256[]"
        }
      ],
      "stateMutability": "view",
      "type": "function"
    },
    {
      "inputs": [],
      "name": "blockEstateAssetsAddress",
      "outputs": [
        {
          "internalType": "address",
          "name": "",
          "type": "address"
        }
      ],
      "stateMutability": "view",
      "type": "function"
    },
    {
      "inputs": [],
      "name": "blockEstateMarketAddress",
      "outputs": [
        {
          "internalType": "address",
          "name": "",
          "type": "address"
        }
      ],
      "stateMutability": "view",
      "type": "function"
    },
    {
      "inputs": [
        {
          "internalType": "address",
          "name": "account",
          "type": "address"
        },
        {
          "internalType": "uint256",
          "name": "id",
          "type": "uint256"
        },
        {
          "internalType": "uint256",
          "name": "value",
          "type": "uint256"
        }
      ],
      "name": "burn",
      "outputs": [],
      "stateMutability": "nonpayable",
      "type": "function"
    },
    {
      "inputs": [
        {
          "internalType": "address",
          "name": "account",
          "type": "address"
        },
        {
          "internalType": "uint256[]",
          "name": "ids",
          "type": "uint256[]"
        },
        {
          "internalType": "uint256[]",
          "name": "values",
          "type": "uint256[]"
        }
      ],
      "name": "burnBatch",
      "outputs": [],
      "stateMutability": "nonpayable",
      "type": "function"
    },
    {
      "inputs": [
        {
          "internalType": "uint256",
          "name": "tokenId",
          "type": "uint256"
        },
        {
          "internalType": "uint256",
          "name": "amount",
          "type": "uint256"
        }
      ],
      "name": "burnShares",
      "outputs": [],
      "stateMutability": "nonpayable",
      "type": "function"
    },
    {
      "inputs": [
        {
          "internalType": "uint256",
          "name": "tokenId",
          "type": "uint256"
        },
        {
          "internalType": "uint256",
          "name": "amount",
          "type": "uint256"
        }
      ],
      "name": "createShares",
      "outputs": [],
      "stateMutability": "nonpayable",
      "type": "function"
    },
    {
      "inputs": [
        {
          "internalType": "address",
          "name": "to",
          "type": "address"
        },
        {
          "internalType": "uint256",
          "name": "tokenId",
          "type": "uint256"
        }
      ],
      "name": "createSharesAtCreation",
      "outputs": [],
      "stateMutability": "nonpayable",
      "type": "function"
    },
    {
      "inputs": [
        {
          "internalType": "uint256",
          "name": "tokenId",
          "type": "uint256"
        },
        {
          "internalType": "address[]",
          "name": "holders",
          "type": "address[]"
        },
        {
          "internalType": "uint256[]",
          "name": "amounts",
          "type": "uint256[]"
        }
      ],
      "name": "createSharesBatch",
      "outputs": [],
      "stateMutability": "nonpayable",
      "type": "function"
    },
    {
      "inputs": [
        {
          "internalType": "uint256",
          "name": "id",
          "type": "uint256"
        }
      ],
      "name": "exists",
      "outputs": [
        {
          "internalType": "bool",
          "name": "",
          "type": "bool"
        }
      ],
      "stateMutability": "view",
      "type": "function"
    },
    {
      "inputs": [
        {
          "internalType": "address",
          "name": "account",
          "type": "address"
        },
        {
          "internalType": "address",
          "name": "operator",
          "type": "address"
        }
      ],
      "name": "isApprovedForAll",
      "outputs": [
        {
          "internalType": "bool",
          "name": "",
          "type": "bool"
        }
      ],
      "stateMutability": "view",
      "type": "function"
    },
    {
      "inputs": [],
      "name": "owner",
      "outputs": [
        {
          "internalType": "address",
          "name": "",
          "type": "address"
        }
      ],
      "stateMutability": "view",
      "type": "function"
    },
    {
      "inputs": [],
      "name": "pause",
      "outputs": [],
      "stateMutability": "nonpayable",
      "type": "function"
    },
    {
      "inputs": [],
      "name": "paused",
      "outputs": [
        {
          "internalType": "bool",
          "name": "",
          "type": "bool"
        }
      ],
      "stateMutability": "view",
      "type": "function"
    },
    {
      "inputs": [
        {
          "internalType": "uint256",
          "name": "tokenId",
          "type": "uint256"
        }
      ],
      "name": "readShareholdersByToken",
      "outputs": [
        {
          "internalType": "address[]",
          "name": "",
          "type": "address[]"
        }
      ],
      "stateMutability": "view",
      "type": "function"
    },
    {
      "inputs": [
        {
          "internalType": "address",
          "name": "holder",
          "type": "address"
        }
      ],
      "name": "readSharesByHolder",
      "outputs": [
        {
          "internalType": "uint256[]",
          "name": "",
          "type": "uint256[]"
        }
      ],
      "stateMutability": "view",
      "type": "function"
    },
    {
      "inputs": [],
      "name": "renounceOwnership",
      "outputs": [],
      "stateMutability": "nonpayable",
      "type": "function"
    },
    {
      "inputs": [
        {
          "internalType": "address",
          "name": "from",
          "type": "address"
        },
        {
          "internalType": "address",
          "name": "to",
          "type": "address"
        },
        {
          "internalType": "uint256[]",
          "name": "ids",
          "type": "uint256[]"
        },
        {
          "internalType": "uint256[]",
          "name": "amounts",
          "type": "uint256[]"
        },
        {
          "internalType": "bytes",
          "name": "data",
          "type": "bytes"
        }
      ],
      "name": "safeBatchTransferFrom",
      "outputs": [],
      "stateMutability": "nonpayable",
      "type": "function"
    },
    {
      "inputs": [
        {
          "internalType": "address",
          "name": "from",
          "type": "address"
        },
        {
          "internalType": "address",
          "name": "to",
          "type": "address"
        },
        {
          "internalType": "uint256",
          "name": "id",
          "type": "uint256"
        },
        {
          "internalType": "uint256",
          "name": "amount",
          "type": "uint256"
        },
        {
          "internalType": "bytes",
          "name": "data",
          "type": "bytes"
        }
      ],
      "name": "safeTransferFrom",
      "outputs": [],
      "stateMutability": "nonpayable",
      "type": "function"
    },
    {
      "inputs": [
        {
          "internalType": "address",
          "name": "operator",
          "type": "address"
        },
        {
          "internalType": "bool",
          "name": "approved",
          "type": "bool"
        }
      ],
      "name": "setApprovalForAll",
      "outputs": [],
      "stateMutability": "nonpayable",
      "type": "function"
    },
    {
      "inputs": [
        {
          "internalType": "address",
          "name": "_blockEstateMarketAddress",
          "type": "address"
        }
      ],
      "name": "setBlockEstateMarketAddress",
      "outputs": [],
      "stateMutability": "nonpayable",
      "type": "function"
    },
    {
      "inputs": [
        {
          "internalType": "string",
          "name": "newuri",
          "type": "string"
        }
      ],
      "name": "setURI",
      "outputs": [],
      "stateMutability": "nonpayable",
      "type": "function"
    },
    {
      "inputs": [
        {
          "internalType": "uint256",
          "name": "",
          "type": "uint256"
        },
        {
          "internalType": "uint256",
          "name": "",
          "type": "uint256"
        }
      ],
      "name": "shareholdersHistory",
      "outputs": [
        {
          "internalType": "address",
          "name": "",
          "type": "address"
        }
      ],
      "stateMutability": "view",
      "type": "function"
    },
    {
      "inputs": [
        {
          "internalType": "bytes4",
          "name": "interfaceId",
          "type": "bytes4"
        }
      ],
      "name": "supportsInterface",
      "outputs": [
        {
          "internalType": "bool",
          "name": "",
          "type": "bool"
        }
      ],
      "stateMutability": "view",
      "type": "function"
    },
    {
      "inputs": [
        {
          "internalType": "address",
          "name": "",
          "type": "address"
        },
        {
          "internalType": "uint256",
          "name": "",
          "type": "uint256"
        }
      ],
      "name": "tokenHistory",
      "outputs": [
        {
          "internalType": "uint256",
          "name": "",
          "type": "uint256"
        }
      ],
      "stateMutability": "view",
      "type": "function"
    },
    {
      "inputs": [
        {
          "internalType": "uint256",
          "name": "id",
          "type": "uint256"
        }
      ],
      "name": "totalSupply",
      "outputs": [
        {
          "internalType": "uint256",
          "name": "",
          "type": "uint256"
        }
      ],
      "stateMutability": "view",
      "type": "function"
    },
    {
      "inputs": [
        {
          "internalType": "uint256[]",
          "name": "tokenIds",
          "type": "uint256[]"
        }
      ],
      "name": "totalSupplyBatch",
      "outputs": [
        {
          "internalType": "uint256[]",
          "name": "",
          "type": "uint256[]"
        }
      ],
      "stateMutability": "view",
      "type": "function"
    },
    {
      "inputs": [
        {
          "internalType": "address",
          "name": "newOwner",
          "type": "address"
        }
      ],
      "name": "transferOwnership",
      "outputs": [],
      "stateMutability": "nonpayable",
      "type": "function"
    },
    {
      "inputs": [],
      "name": "unpause",
      "outputs": [],
      "stateMutability": "nonpayable",
      "type": "function"
    },
    {
      "inputs": [
        {
          "internalType": "uint256",
          "name": "",
          "type": "uint256"
        }
      ],
      "name": "uri",
      "outputs": [
        {
          "internalType": "string",
          "name": "",
          "type": "string"
        }
      ],
      "stateMutability": "view",
      "type": "function"
    }
  ],
  "bytecode": "0x60806040523480156200001157600080fd5b50604051620056ac380380620056ac833981810160405281019062000037919062000233565b60405180606001604052806034815260200162005678603491396200006281620000e660201b60201c565b506200008362000077620000fb60201b60201c565b6200010360201b60201c565b6000600360146101000a81548160ff02191690831515021790555080600560006101000a81548173ffffffffffffffffffffffffffffffffffffffff021916908373ffffffffffffffffffffffffffffffffffffffff16021790555050620005c6565b8060029081620000f79190620004df565b5050565b600033905090565b6000600360009054906101000a900473ffffffffffffffffffffffffffffffffffffffff16905081600360006101000a81548173ffffffffffffffffffffffffffffffffffffffff021916908373ffffffffffffffffffffffffffffffffffffffff1602179055508173ffffffffffffffffffffffffffffffffffffffff168173ffffffffffffffffffffffffffffffffffffffff167f8be0079c531659141344cd1fd0a4f28419497f9722a3daafe3b4186f6b6457e060405160405180910390a35050565b600080fd5b600073ffffffffffffffffffffffffffffffffffffffff82169050919050565b6000620001fb82620001ce565b9050919050565b6200020d81620001ee565b81146200021957600080fd5b50565b6000815190506200022d8162000202565b92915050565b6000602082840312156200024c576200024b620001c9565b5b60006200025c848285016200021c565b91505092915050565b600081519050919050565b7f4e487b7100000000000000000000000000000000000000000000000000000000600052604160045260246000fd5b7f4e487b7100000000000000000000000000000000000000000000000000000000600052602260045260246000fd5b60006002820490506001821680620002e757607f821691505b602082108103620002fd57620002fc6200029f565b5b50919050565b60008190508160005260206000209050919050565b60006020601f8301049050919050565b600082821b905092915050565b600060088302620003677fffffffffffffffffffffffffffffffffffffffffffffffffffffffffffffffff8262000328565b62000373868362000328565b95508019841693508086168417925050509392505050565b6000819050919050565b6000819050919050565b6000620003c0620003ba620003b4846200038b565b62000395565b6200038b565b9050919050565b6000819050919050565b620003dc836200039f565b620003f4620003eb82620003c7565b84845462000335565b825550505050565b600090565b6200040b620003fc565b62000418818484620003d1565b505050565b5b8181101562000440576200043460008262000401565b6001810190506200041e565b5050565b601f8211156200048f57620004598162000303565b620004648462000318565b8101602085101562000474578190505b6200048c620004838562000318565b8301826200041d565b50505b505050565b600082821c905092915050565b6000620004b46000198460080262000494565b1980831691505092915050565b6000620004cf8383620004a1565b9150826002028217905092915050565b620004ea8262000265565b67ffffffffffffffff81111562000506576200050562000270565b5b620005128254620002ce565b6200051f82828562000444565b600060209050601f83116001811462000557576000841562000542578287015190505b6200054e8582620004c1565b865550620005be565b601f198416620005678662000303565b60005b8281101562000591578489015182556001820191506020850194506020810190506200056a565b86831015620005b15784890151620005ad601f891682620004a1565b8355505b6001600288020188555050505b505050505050565b6150a280620005d66000396000f3fe608060405234801561001057600080fd5b50600436106101e45760003560e01c80636d1fdfd01161010f578063a22cb465116100a2578063e985e9c511610071578063e985e9c51461058b578063f242432a146105bb578063f2fde38b146105d7578063f5298aca146105f3576101e4565b8063a22cb465146104f3578063b8cbbd901461050f578063bd85b0391461053f578063db55138d1461056f576101e4565b80637e25349b116100de5780637e25349b1461047d5780638456cb59146104ad5780638947473f146104b75780638da5cb5b146104d5576101e4565b80636d1fdfd01461040b578063715018a61461042757806377954ac2146104315780637c6f512714610461576101e4565b80634cfe601a116101875780635ed8bcbf116101565780635ed8bcbf14610385578063634837e7146103a15780636b20c454146103d15780636b78018b146103ed576101e4565b80634cfe601a146102eb5780634e1273f4146103075780634f558e79146103375780635c975abb14610367576101e4565b80630e89341c116101c35780630e89341c146102655780632eb2c2d6146102955780633f4ba83a146102b157806343e4c8cc146102bb576101e4565b8062fdd58e146101e957806301ffc9a71461021957806302fe530514610249575b600080fd5b61020360048036038101906101fe91906132d8565b61060f565b6040516102109190613327565b60405180910390f35b610233600480360381019061022e919061339a565b6106d7565b60405161024091906133e2565b60405180910390f35b610263600480360381019061025e9190613543565b6107b9565b005b61027f600480360381019061027a919061358c565b6107cd565b60405161028c9190613638565b60405180910390f35b6102af60048036038101906102aa91906137c3565b610861565b005b6102b9610902565b005b6102d560048036038101906102d0919061358c565b610914565b6040516102e29190613950565b60405180910390f35b61030560048036038101906103009190613972565b6109b5565b005b610321600480360381019061031c9190613a62565b610a2e565b60405161032e9190613b98565b60405180910390f35b610351600480360381019061034c919061358c565b610b47565b60405161035e91906133e2565b60405180910390f35b61036f610b5b565b60405161037c91906133e2565b60405180910390f35b61039f600480360381019061039a9190613bba565b610b72565b005b6103bb60048036038101906103b69190613972565b610d4c565b6040516103c89190613b98565b60405180910390f35b6103eb60048036038101906103e69190613c45565b610de3565b005b6103f5610e80565b6040516104029190613cdf565b60405180910390f35b610425600480360381019061042091906132d8565b610ea6565b005b61042f610f56565b005b61044b60048036038101906104469190613cfa565b610f6a565b6040516104589190613b98565b60405180910390f35b61047b60048036038101906104769190613d43565b611025565b005b610497600480360381019061049291906132d8565b611034565b6040516104a49190613327565b60405180910390f35b6104b5611065565b005b6104bf611077565b6040516104cc9190613cdf565b60405180910390f35b6104dd61109d565b6040516104ea9190613cdf565b60405180910390f35b61050d60048036038101906105089190613daf565b6110c7565b005b61052960048036038101906105249190613d43565b6110dd565b6040516105369190613cdf565b60405180910390f35b6105596004803603810190610554919061358c565b61112b565b6040516105669190613327565b60405180910390f35b61058960048036038101906105849190613d43565b611148565b005b6105a560048036038101906105a09190613def565b6112b3565b6040516105b291906133e2565b60405180910390f35b6105d560048036038101906105d09190613e2f565b611347565b005b6105f160048036038101906105ec9190613972565b6113e8565b005b61060d60048036038101906106089190613ec6565b61146b565b005b60008073ffffffffffffffffffffffffffffffffffffffff168373ffffffffffffffffffffffffffffffffffffffff160361067f576040517f08c379a000000000000000000000000000000000000000000000000000000000815260040161067690613f8b565b60405180910390fd5b60008083815260200190815260200160002060008473ffffffffffffffffffffffffffffffffffffffff1673ffffffffffffffffffffffffffffffffffffffff16815260200190815260200160002054905092915050565b60007fd9b67a26000000000000000000000000000000000000000000000000000000007bffffffffffffffffffffffffffffffffffffffffffffffffffffffff1916827bffffffffffffffffffffffffffffffffffffffffffffffffffffffff191614806107a257507f0e89341c000000000000000000000000000000000000000000000000000000007bffffffffffffffffffffffffffffffffffffffffffffffffffffffff1916827bffffffffffffffffffffffffffffffffffffffffffffffffffffffff1916145b806107b257506107b182611508565b5b9050919050565b6107c1611572565b6107ca816115f0565b50565b6060600280546107dc90613fda565b80601f016020809104026020016040519081016040528092919081815260200182805461080890613fda565b80156108555780601f1061082a57610100808354040283529160200191610855565b820191906000526020600020905b81548152906001019060200180831161083857829003601f168201915b50505050509050919050565b610869611603565b73ffffffffffffffffffffffffffffffffffffffff168573ffffffffffffffffffffffffffffffffffffffff1614806108af57506108ae856108a9611603565b6112b3565b5b6108ee576040517f08c379a00000000000000000000000000000000000000000000000000000000081526004016108e59061407d565b60405180910390fd5b6108fb858585858561160b565b5050505050565b61090a611572565b61091261192c565b565b6060600760008381526020019081526020016000208054806020026020016040519081016040528092919081815260200182805480156109a957602002820191906000526020600020905b8160009054906101000a900473ffffffffffffffffffffffffffffffffffffffff1673ffffffffffffffffffffffffffffffffffffffff168152602001906001019080831161095f575b50505050509050919050565b6109bd611572565b80600660006101000a81548173ffffffffffffffffffffffffffffffffffffffff021916908373ffffffffffffffffffffffffffffffffffffffff160217905550610a2b600660009054906101000a900473ffffffffffffffffffffffffffffffffffffffff1660016110c7565b50565b60608151835114610a74576040517f08c379a0000000000000000000000000000000000000000000000000000000008152600401610a6b9061410f565b60405180910390fd5b6000835167ffffffffffffffff811115610a9157610a90613418565b5b604051908082528060200260200182016040528015610abf5781602001602082028036833780820191505090505b50905060005b8451811015610b3c57610b0c858281518110610ae457610ae361412f565b5b6020026020010151858381518110610aff57610afe61412f565b5b602002602001015161060f565b828281518110610b1f57610b1e61412f565b5b60200260200101818152505080610b359061418d565b9050610ac5565b508091505092915050565b600080610b538361112b565b119050919050565b6000600360149054906101000a900460ff16905090565b3373ffffffffffffffffffffffffffffffffffffffff16600560009054906101000a900473ffffffffffffffffffffffffffffffffffffffff1673ffffffffffffffffffffffffffffffffffffffff16636352211e856040518263ffffffff1660e01b8152600401610be49190613327565b602060405180830381865afa158015610c01573d6000803e3d6000fd5b505050506040513d601f19601f82011682018060405250810190610c2591906141ea565b73ffffffffffffffffffffffffffffffffffffffff1614610c7b576040517f08c379a0000000000000000000000000000000000000000000000000000000008152600401610c7290614263565b60405180910390fd5b60005b8251811015610d46576000828281518110610c9c57610c9b61412f565b5b602002602001015111610ce4576040517f08c379a0000000000000000000000000000000000000000000000000000000008152600401610cdb906142cf565b60405180910390fd5b610d33838281518110610cfa57610cf961412f565b5b602002602001015185848481518110610d1657610d1561412f565b5b60200260200101516040518060200160405280600081525061198f565b8080610d3e9061418d565b915050610c7e565b50505050565b6060600860008373ffffffffffffffffffffffffffffffffffffffff1673ffffffffffffffffffffffffffffffffffffffff168152602001908152602001600020805480602002602001604051908101604052809291908181526020018280548015610dd757602002820191906000526020600020905b815481526020019060010190808311610dc3575b50505050509050919050565b610deb611603565b73ffffffffffffffffffffffffffffffffffffffff168373ffffffffffffffffffffffffffffffffffffffff161480610e315750610e3083610e2b611603565b6112b3565b5b610e70576040517f08c379a0000000000000000000000000000000000000000000000000000000008152600401610e679061407d565b60405180910390fd5b610e7b838383611b3f565b505050565b600560009054906101000a900473ffffffffffffffffffffffffffffffffffffffff1681565b600560009054906101000a900473ffffffffffffffffffffffffffffffffffffffff1673ffffffffffffffffffffffffffffffffffffffff163373ffffffffffffffffffffffffffffffffffffffff1614610f36576040517f08c379a0000000000000000000000000000000000000000000000000000000008152600401610f2d90614361565b60405180910390fd5b610f52828260646040518060200160405280600081525061198f565b5050565b610f5e611572565b610f686000611e0d565b565b60606000825167ffffffffffffffff811115610f8957610f88613418565b5b604051908082528060200260200182016040528015610fb75781602001602082028036833780820191505090505b50905060005b835181101561101b57610fe9848281518110610fdc57610fdb61412f565b5b602002602001015161112b565b828281518110610ffc57610ffb61412f565b5b60200260200101818152505080806110139061418d565b915050610fbd565b5080915050919050565b61103033838361146b565b5050565b6008602052816000526040600020818154811061105057600080fd5b90600052602060002001600091509150505481565b61106d611572565b611075611ed3565b565b600660009054906101000a900473ffffffffffffffffffffffffffffffffffffffff1681565b6000600360009054906101000a900473ffffffffffffffffffffffffffffffffffffffff16905090565b6110d96110d2611603565b8383611f36565b5050565b600760205281600052604060002081815481106110f957600080fd5b906000526020600020016000915091509054906101000a900473ffffffffffffffffffffffffffffffffffffffff1681565b600060046000838152602001908152602001600020549050919050565b3373ffffffffffffffffffffffffffffffffffffffff16600560009054906101000a900473ffffffffffffffffffffffffffffffffffffffff1673ffffffffffffffffffffffffffffffffffffffff16636352211e846040518263ffffffff1660e01b81526004016111ba9190613327565b602060405180830381865afa1580156111d7573d6000803e3d6000fd5b505050506040513d601f19601f820116820180604052508101906111fb91906141ea565b73ffffffffffffffffffffffffffffffffffffffff1614611251576040517f08c379a000000000000000000000000000000000000000000000000000000000815260040161124890614263565b60405180910390fd5b60008111611294576040517f08c379a000000000000000000000000000000000000000000000000000000000815260040161128b906142cf565b60405180910390fd5b6112af3383836040518060200160405280600081525061198f565b5050565b6000600160008473ffffffffffffffffffffffffffffffffffffffff1673ffffffffffffffffffffffffffffffffffffffff16815260200190815260200160002060008373ffffffffffffffffffffffffffffffffffffffff1673ffffffffffffffffffffffffffffffffffffffff16815260200190815260200160002060009054906101000a900460ff16905092915050565b61134f611603565b73ffffffffffffffffffffffffffffffffffffffff168573ffffffffffffffffffffffffffffffffffffffff16148061139557506113948561138f611603565b6112b3565b5b6113d4576040517f08c379a00000000000000000000000000000000000000000000000000000000081526004016113cb9061407d565b60405180910390fd5b6113e185858585856120a2565b5050505050565b6113f0611572565b600073ffffffffffffffffffffffffffffffffffffffff168173ffffffffffffffffffffffffffffffffffffffff160361145f576040517f08c379a0000000000000000000000000000000000000000000000000000000008152600401611456906143f3565b60405180910390fd5b61146881611e0d565b50565b611473611603565b73ffffffffffffffffffffffffffffffffffffffff168373ffffffffffffffffffffffffffffffffffffffff1614806114b957506114b8836114b3611603565b6112b3565b5b6114f8576040517f08c379a00000000000000000000000000000000000000000000000000000000081526004016114ef9061407d565b60405180910390fd5b61150383838361233d565b505050565b60007f01ffc9a7000000000000000000000000000000000000000000000000000000007bffffffffffffffffffffffffffffffffffffffffffffffffffffffff1916827bffffffffffffffffffffffffffffffffffffffffffffffffffffffff1916149050919050565b61157a611603565b73ffffffffffffffffffffffffffffffffffffffff1661159861109d565b73ffffffffffffffffffffffffffffffffffffffff16146115ee576040517f08c379a00000000000000000000000000000000000000000000000000000000081526004016115e59061445f565b60405180910390fd5b565b80600290816115ff919061462b565b5050565b600033905090565b815183511461164f576040517f08c379a00000000000000000000000000000000000000000000000000000000081526004016116469061476f565b60405180910390fd5b600073ffffffffffffffffffffffffffffffffffffffff168473ffffffffffffffffffffffffffffffffffffffff16036116be576040517f08c379a00000000000000000000000000000000000000000000000000000000081526004016116b590614801565b60405180910390fd5b60006116c8611603565b90506116d8818787878787612583565b60005b84518110156118895760008582815181106116f9576116f861412f565b5b6020026020010151905060008583815181106117185761171761412f565b5b60200260200101519050600080600084815260200190815260200160002060008b73ffffffffffffffffffffffffffffffffffffffff1673ffffffffffffffffffffffffffffffffffffffff168152602001908152602001600020549050818110156117b9576040517f08c379a00000000000000000000000000000000000000000000000000000000081526004016117b090614893565b60405180910390fd5b81810360008085815260200190815260200160002060008c73ffffffffffffffffffffffffffffffffffffffff1673ffffffffffffffffffffffffffffffffffffffff168152602001908152602001600020819055508160008085815260200190815260200160002060008b73ffffffffffffffffffffffffffffffffffffffff1673ffffffffffffffffffffffffffffffffffffffff168152602001908152602001600020600082825461186e91906148b3565b92505081905550505050806118829061418d565b90506116db565b508473ffffffffffffffffffffffffffffffffffffffff168673ffffffffffffffffffffffffffffffffffffffff168273ffffffffffffffffffffffffffffffffffffffff167f4a39dc06d4c0dbc64b70af90fd698a233a518aa5d07e595d983b8c0526c8f7fb87876040516119009291906148e7565b60405180910390a4611916818787878787612676565b611924818787878787612b72565b505050505050565b611934612d49565b6000600360146101000a81548160ff0219169083151502179055507f5db9ee0a495bf2e6ff9c91a7834c1ba4fdd244a5e8aa4e537bd38aeae4b073aa611978611603565b6040516119859190613cdf565b60405180910390a1565b600073ffffffffffffffffffffffffffffffffffffffff168473ffffffffffffffffffffffffffffffffffffffff16036119fe576040517f08c379a00000000000000000000000000000000000000000000000000000000081526004016119f590614990565b60405180910390fd5b6000611a08611603565b90506000611a1585612d92565b90506000611a2285612d92565b9050611a3383600089858589612583565b8460008088815260200190815260200160002060008973ffffffffffffffffffffffffffffffffffffffff1673ffffffffffffffffffffffffffffffffffffffff1681526020019081526020016000206000828254611a9291906148b3565b925050819055508673ffffffffffffffffffffffffffffffffffffffff16600073ffffffffffffffffffffffffffffffffffffffff168473ffffffffffffffffffffffffffffffffffffffff167fc3d58168c5ae7397731d063d5bbf3d657854427343f4c083240f7aacaa2d0f628989604051611b109291906149b0565b60405180910390a4611b2783600089858589612676565b611b3683600089898989612e0c565b50505050505050565b600073ffffffffffffffffffffffffffffffffffffffff168373ffffffffffffffffffffffffffffffffffffffff1603611bae576040517f08c379a0000000000000000000000000000000000000000000000000000000008152600401611ba590614a4b565b60405180910390fd5b8051825114611bf2576040517f08c379a0000000000000000000000000000000000000000000000000000000008152600401611be99061476f565b60405180910390fd5b6000611bfc611603565b9050611c1c81856000868660405180602001604052806000815250612583565b60005b8351811015611d69576000848281518110611c3d57611c3c61412f565b5b602002602001015190506000848381518110611c5c57611c5b61412f565b5b60200260200101519050600080600084815260200190815260200160002060008973ffffffffffffffffffffffffffffffffffffffff1673ffffffffffffffffffffffffffffffffffffffff16815260200190815260200160002054905081811015611cfd576040517f08c379a0000000000000000000000000000000000000000000000000000000008152600401611cf490614add565b60405180910390fd5b81810360008085815260200190815260200160002060008a73ffffffffffffffffffffffffffffffffffffffff1673ffffffffffffffffffffffffffffffffffffffff168152602001908152602001600020819055505050508080611d619061418d565b915050611c1f565b50600073ffffffffffffffffffffffffffffffffffffffff168473ffffffffffffffffffffffffffffffffffffffff168273ffffffffffffffffffffffffffffffffffffffff167f4a39dc06d4c0dbc64b70af90fd698a233a518aa5d07e595d983b8c0526c8f7fb8686604051611de19291906148e7565b60405180910390a4611e0781856000868660405180602001604052806000815250612676565b50505050565b6000600360009054906101000a900473ffffffffffffffffffffffffffffffffffffffff16905081600360006101000a81548173ffffffffffffffffffffffffffffffffffffffff021916908373ffffffffffffffffffffffffffffffffffffffff1602179055508173ffffffffffffffffffffffffffffffffffffffff168173ffffffffffffffffffffffffffffffffffffffff167f8be0079c531659141344cd1fd0a4f28419497f9722a3daafe3b4186f6b6457e060405160405180910390a35050565b611edb612fe3565b6001600360146101000a81548160ff0219169083151502179055507f62e78cea01bee320cd4e420270b5ea74000d11b0c9f74754ebdbfc544b05a258611f1f611603565b604051611f2c9190613cdf565b60405180910390a1565b8173ffffffffffffffffffffffffffffffffffffffff168373ffffffffffffffffffffffffffffffffffffffff1603611fa4576040517f08c379a0000000000000000000000000000000000000000000000000000000008152600401611f9b90614b6f565b60405180910390fd5b80600160008573ffffffffffffffffffffffffffffffffffffffff1673ffffffffffffffffffffffffffffffffffffffff16815260200190815260200160002060008473ffffffffffffffffffffffffffffffffffffffff1673ffffffffffffffffffffffffffffffffffffffff16815260200190815260200160002060006101000a81548160ff0219169083151502179055508173ffffffffffffffffffffffffffffffffffffffff168373ffffffffffffffffffffffffffffffffffffffff167f17307eab39ab6107e8899845ad3d59bd9653f200f220920489ca2b5937696c318360405161209591906133e2565b60405180910390a3505050565b600073ffffffffffffffffffffffffffffffffffffffff168473ffffffffffffffffffffffffffffffffffffffff1603612111576040517f08c379a000000000000000000000000000000000000000000000000000000000815260040161210890614801565b60405180910390fd5b600061211b611603565b9050600061212885612d92565b9050600061213585612d92565b9050612145838989858589612583565b600080600088815260200190815260200160002060008a73ffffffffffffffffffffffffffffffffffffffff1673ffffffffffffffffffffffffffffffffffffffff168152602001908152602001600020549050858110156121dc576040517f08c379a00000000000000000000000000000000000000000000000000000000081526004016121d390614893565b60405180910390fd5b85810360008089815260200190815260200160002060008b73ffffffffffffffffffffffffffffffffffffffff1673ffffffffffffffffffffffffffffffffffffffff168152602001908152602001600020819055508560008089815260200190815260200160002060008a73ffffffffffffffffffffffffffffffffffffffff1673ffffffffffffffffffffffffffffffffffffffff168152602001908152602001600020600082825461229191906148b3565b925050819055508773ffffffffffffffffffffffffffffffffffffffff168973ffffffffffffffffffffffffffffffffffffffff168573ffffffffffffffffffffffffffffffffffffffff167fc3d58168c5ae7397731d063d5bbf3d657854427343f4c083240f7aacaa2d0f628a8a60405161230e9291906149b0565b60405180910390a4612324848a8a86868a612676565b612332848a8a8a8a8a612e0c565b505050505050505050565b600073ffffffffffffffffffffffffffffffffffffffff168373ffffffffffffffffffffffffffffffffffffffff16036123ac576040517f08c379a00000000000000000000000000000000000000000000000000000000081526004016123a390614a4b565b60405180910390fd5b60006123b6611603565b905060006123c384612d92565b905060006123d084612d92565b90506123f083876000858560405180602001604052806000815250612583565b600080600087815260200190815260200160002060008873ffffffffffffffffffffffffffffffffffffffff1673ffffffffffffffffffffffffffffffffffffffff16815260200190815260200160002054905084811015612487576040517f08c379a000000000000000000000000000000000000000000000000000000000815260040161247e90614add565b60405180910390fd5b84810360008088815260200190815260200160002060008973ffffffffffffffffffffffffffffffffffffffff1673ffffffffffffffffffffffffffffffffffffffff16815260200190815260200160002081905550600073ffffffffffffffffffffffffffffffffffffffff168773ffffffffffffffffffffffffffffffffffffffff168573ffffffffffffffffffffffffffffffffffffffff167fc3d58168c5ae7397731d063d5bbf3d657854427343f4c083240f7aacaa2d0f6289896040516125549291906149b0565b60405180910390a461257a84886000868660405180602001604052806000815250612676565b50505050505050565b61258b612fe3565b61259986868686868661302d565b60005b835181101561266d57600073ffffffffffffffffffffffffffffffffffffffff168573ffffffffffffffffffffffffffffffffffffffff161461265a57600860008673ffffffffffffffffffffffffffffffffffffffff1673ffffffffffffffffffffffffffffffffffffffff16815260200190815260200160002084828151811061262b5761262a61412f565b5b602002602001015190806001815401808255809150506001900390600052602060002001600090919091909150555b80806126659061418d565b91505061259c565b50505050505050565b6126848686868686866131fd565b60005b8351811015612b6957600073ffffffffffffffffffffffffffffffffffffffff168573ffffffffffffffffffffffffffffffffffffffff161461275357600760008583815181106126db576126da61412f565b5b60200260200101518152602001908152602001600020859080600181540180825580915050600190039060005260206000200160009091909190916101000a81548173ffffffffffffffffffffffffffffffffffffffff021916908373ffffffffffffffffffffffffffffffffffffffff1602179055505b60006007600086848151811061276c5761276b61412f565b5b6020026020010151815260200190815260200160002080548060200260200160405190810160405280929190818152602001828054801561280257602002820191906000526020600020905b8160009054906101000a900473ffffffffffffffffffffffffffffffffffffffff1673ffffffffffffffffffffffffffffffffffffffff16815260200190600101908083116127b8575b5050505050905060008060005b83518110156128ce578261285785838151811061282f5761282e61412f565b5b60200260200101518a888151811061284a5761284961412f565b5b602002602001015161060f565b11156128bb5761289b8482815181106128735761287261412f565b5b602002602001015189878151811061288e5761288d61412f565b5b602002602001015161060f565b92508381815181106128b0576128af61412f565b5b602002602001015191505b80806128c69061418d565b91505061280f565b50600073ffffffffffffffffffffffffffffffffffffffff168173ffffffffffffffffffffffffffffffffffffffff16141580156129ed5750600560009054906101000a900473ffffffffffffffffffffffffffffffffffffffff1673ffffffffffffffffffffffffffffffffffffffff16636352211e8886815181106129585761295761412f565b5b60200260200101516040518263ffffffff1660e01b815260040161297c9190613327565b602060405180830381865afa158015612999573d6000803e3d6000fd5b505050506040513d601f19601f820116820180604052508101906129bd91906141ea565b73ffffffffffffffffffffffffffffffffffffffff168173ffffffffffffffffffffffffffffffffffffffff1614155b15612b5357600560009054906101000a900473ffffffffffffffffffffffffffffffffffffffff1673ffffffffffffffffffffffffffffffffffffffff166342842e0e600560009054906101000a900473ffffffffffffffffffffffffffffffffffffffff1673ffffffffffffffffffffffffffffffffffffffff16636352211e8a8881518110612a8157612a8061412f565b5b60200260200101516040518263ffffffff1660e01b8152600401612aa59190613327565b602060405180830381865afa158015612ac2573d6000803e3d6000fd5b505050506040513d601f19601f82011682018060405250810190612ae691906141ea565b838a8881518110612afa57612af961412f565b5b60200260200101516040518463ffffffff1660e01b8152600401612b2093929190614b8f565b600060405180830381600087803b158015612b3a57600080fd5b505af1158015612b4e573d6000803e3d6000fd5b505050505b5050508080612b619061418d565b915050612687565b50505050505050565b612b918473ffffffffffffffffffffffffffffffffffffffff16613205565b15612d41578373ffffffffffffffffffffffffffffffffffffffff1663bc197c8187878686866040518663ffffffff1660e01b8152600401612bd7959493929190614c1b565b6020604051808303816000875af1925050508015612c1357506040513d601f19601f82011682018060405250810190612c109190614c98565b60015b612cb857612c1f614cd2565b806308c379a003612c7b5750612c33614cf4565b80612c3e5750612c7d565b806040517f08c379a0000000000000000000000000000000000000000000000000000000008152600401612c729190613638565b60405180910390fd5b505b6040517f08c379a0000000000000000000000000000000000000000000000000000000008152600401612caf90614df6565b60405180910390fd5b63bc197c8160e01b7bffffffffffffffffffffffffffffffffffffffffffffffffffffffff1916817bffffffffffffffffffffffffffffffffffffffffffffffffffffffff191614612d3f576040517f08c379a0000000000000000000000000000000000000000000000000000000008152600401612d3690614e88565b60405180910390fd5b505b505050505050565b612d51610b5b565b612d90576040517f08c379a0000000000000000000000000000000000000000000000000000000008152600401612d8790614ef4565b60405180910390fd5b565b60606000600167ffffffffffffffff811115612db157612db0613418565b5b604051908082528060200260200182016040528015612ddf5781602001602082028036833780820191505090505b5090508281600081518110612df757612df661412f565b5b60200260200101818152505080915050919050565b612e2b8473ffffffffffffffffffffffffffffffffffffffff16613205565b15612fdb578373ffffffffffffffffffffffffffffffffffffffff1663f23a6e6187878686866040518663ffffffff1660e01b8152600401612e71959493929190614f14565b6020604051808303816000875af1925050508015612ead57506040513d601f19601f82011682018060405250810190612eaa9190614c98565b60015b612f5257612eb9614cd2565b806308c379a003612f155750612ecd614cf4565b80612ed85750612f17565b806040517f08c379a0000000000000000000000000000000000000000000000000000000008152600401612f0c9190613638565b60405180910390fd5b505b6040517f08c379a0000000000000000000000000000000000000000000000000000000008152600401612f4990614df6565b60405180910390fd5b63f23a6e6160e01b7bffffffffffffffffffffffffffffffffffffffffffffffffffffffff1916817bffffffffffffffffffffffffffffffffffffffffffffffffffffffff191614612fd9576040517f08c379a0000000000000000000000000000000000000000000000000000000008152600401612fd090614e88565b60405180910390fd5b505b505050505050565b612feb610b5b565b1561302b576040517f08c379a000000000000000000000000000000000000000000000000000000000815260040161302290614fba565b60405180910390fd5b565b61303b868686868686613228565b600073ffffffffffffffffffffffffffffffffffffffff168573ffffffffffffffffffffffffffffffffffffffff16036130ec5760005b83518110156130ea5782818151811061308e5761308d61412f565b5b6020026020010151600460008684815181106130ad576130ac61412f565b5b6020026020010151815260200190815260200160002060008282546130d291906148b3565b92505081905550806130e39061418d565b9050613072565b505b600073ffffffffffffffffffffffffffffffffffffffff168473ffffffffffffffffffffffffffffffffffffffff16036131f55760005b83518110156131f35760008482815181106131415761314061412f565b5b6020026020010151905060008483815181106131605761315f61412f565b5b60200260200101519050600060046000848152602001908152602001600020549050818110156131c5576040517f08c379a00000000000000000000000000000000000000000000000000000000081526004016131bc9061504c565b60405180910390fd5b8181036004600085815260200190815260200160002081905550505050806131ec9061418d565b9050613123565b505b505050505050565b505050505050565b6000808273ffffffffffffffffffffffffffffffffffffffff163b119050919050565b505050505050565b6000604051905090565b600080fd5b600080fd5b600073ffffffffffffffffffffffffffffffffffffffff82169050919050565b600061326f82613244565b9050919050565b61327f81613264565b811461328a57600080fd5b50565b60008135905061329c81613276565b92915050565b6000819050919050565b6132b5816132a2565b81146132c057600080fd5b50565b6000813590506132d2816132ac565b92915050565b600080604083850312156132ef576132ee61323a565b5b60006132fd8582860161328d565b925050602061330e858286016132c3565b9150509250929050565b613321816132a2565b82525050565b600060208201905061333c6000830184613318565b92915050565b60007fffffffff0000000000000000000000000000000000000000000000000000000082169050919050565b61337781613342565b811461338257600080fd5b50565b6000813590506133948161336e565b92915050565b6000602082840312156133b0576133af61323a565b5b60006133be84828501613385565b91505092915050565b60008115159050919050565b6133dc816133c7565b82525050565b60006020820190506133f760008301846133d3565b92915050565b600080fd5b600080fd5b6000601f19601f8301169050919050565b7f4e487b7100000000000000000000000000000000000000000000000000000000600052604160045260246000fd5b61345082613407565b810181811067ffffffffffffffff8211171561346f5761346e613418565b5b80604052505050565b6000613482613230565b905061348e8282613447565b919050565b600067ffffffffffffffff8211156134ae576134ad613418565b5b6134b782613407565b9050602081019050919050565b82818337600083830152505050565b60006134e66134e184613493565b613478565b90508281526020810184848401111561350257613501613402565b5b61350d8482856134c4565b509392505050565b600082601f83011261352a576135296133fd565b5b813561353a8482602086016134d3565b91505092915050565b6000602082840312156135595761355861323a565b5b600082013567ffffffffffffffff8111156135775761357661323f565b5b61358384828501613515565b91505092915050565b6000602082840312156135a2576135a161323a565b5b60006135b0848285016132c3565b91505092915050565b600081519050919050565b600082825260208201905092915050565b60005b838110156135f35780820151818401526020810190506135d8565b60008484015250505050565b600061360a826135b9565b61361481856135c4565b93506136248185602086016135d5565b61362d81613407565b840191505092915050565b6000602082019050818103600083015261365281846135ff565b905092915050565b600067ffffffffffffffff82111561367557613674613418565b5b602082029050602081019050919050565b600080fd5b600061369e6136998461365a565b613478565b905080838252602082019050602084028301858111156136c1576136c0613686565b5b835b818110156136ea57806136d688826132c3565b8452602084019350506020810190506136c3565b5050509392505050565b600082601f830112613709576137086133fd565b5b813561371984826020860161368b565b91505092915050565b600067ffffffffffffffff82111561373d5761373c613418565b5b61374682613407565b9050602081019050919050565b600061376661376184613722565b613478565b90508281526020810184848401111561378257613781613402565b5b61378d8482856134c4565b509392505050565b600082601f8301126137aa576137a96133fd565b5b81356137ba848260208601613753565b91505092915050565b600080600080600060a086880312156137df576137de61323a565b5b60006137ed8882890161328d565b95505060206137fe8882890161328d565b945050604086013567ffffffffffffffff81111561381f5761381e61323f565b5b61382b888289016136f4565b935050606086013567ffffffffffffffff81111561384c5761384b61323f565b5b613858888289016136f4565b925050608086013567ffffffffffffffff8111156138795761387861323f565b5b61388588828901613795565b9150509295509295909350565b600081519050919050565b600082825260208201905092915050565b6000819050602082019050919050565b6138c781613264565b82525050565b60006138d983836138be565b60208301905092915050565b6000602082019050919050565b60006138fd82613892565b613907818561389d565b9350613912836138ae565b8060005b8381101561394357815161392a88826138cd565b9750613935836138e5565b925050600181019050613916565b5085935050505092915050565b6000602082019050818103600083015261396a81846138f2565b905092915050565b6000602082840312156139885761398761323a565b5b60006139968482850161328d565b91505092915050565b600067ffffffffffffffff8211156139ba576139b9613418565b5b602082029050602081019050919050565b60006139de6139d98461399f565b613478565b90508083825260208201905060208402830185811115613a0157613a00613686565b5b835b81811015613a2a5780613a16888261328d565b845260208401935050602081019050613a03565b5050509392505050565b600082601f830112613a4957613a486133fd565b5b8135613a598482602086016139cb565b91505092915050565b60008060408385031215613a7957613a7861323a565b5b600083013567ffffffffffffffff811115613a9757613a9661323f565b5b613aa385828601613a34565b925050602083013567ffffffffffffffff811115613ac457613ac361323f565b5b613ad0858286016136f4565b9150509250929050565b600081519050919050565b600082825260208201905092915050565b6000819050602082019050919050565b613b0f816132a2565b82525050565b6000613b218383613b06565b60208301905092915050565b6000602082019050919050565b6000613b4582613ada565b613b4f8185613ae5565b9350613b5a83613af6565b8060005b83811015613b8b578151613b728882613b15565b9750613b7d83613b2d565b925050600181019050613b5e565b5085935050505092915050565b60006020820190508181036000830152613bb28184613b3a565b905092915050565b600080600060608486031215613bd357613bd261323a565b5b6000613be1868287016132c3565b935050602084013567ffffffffffffffff811115613c0257613c0161323f565b5b613c0e86828701613a34565b925050604084013567ffffffffffffffff811115613c2f57613c2e61323f565b5b613c3b868287016136f4565b9150509250925092565b600080600060608486031215613c5e57613c5d61323a565b5b6000613c6c8682870161328d565b935050602084013567ffffffffffffffff811115613c8d57613c8c61323f565b5b613c99868287016136f4565b925050604084013567ffffffffffffffff811115613cba57613cb961323f565b5b613cc6868287016136f4565b9150509250925092565b613cd981613264565b82525050565b6000602082019050613cf46000830184613cd0565b92915050565b600060208284031215613d1057613d0f61323a565b5b600082013567ffffffffffffffff811115613d2e57613d2d61323f565b5b613d3a848285016136f4565b91505092915050565b60008060408385031215613d5a57613d5961323a565b5b6000613d68858286016132c3565b9250506020613d79858286016132c3565b9150509250929050565b613d8c816133c7565b8114613d9757600080fd5b50565b600081359050613da981613d83565b92915050565b60008060408385031215613dc657613dc561323a565b5b6000613dd48582860161328d565b9250506020613de585828601613d9a565b9150509250929050565b60008060408385031215613e0657613e0561323a565b5b6000613e148582860161328d565b9250506020613e258582860161328d565b9150509250929050565b600080600080600060a08688031215613e4b57613e4a61323a565b5b6000613e598882890161328d565b9550506020613e6a8882890161328d565b9450506040613e7b888289016132c3565b9350506060613e8c888289016132c3565b925050608086013567ffffffffffffffff811115613ead57613eac61323f565b5b613eb988828901613795565b9150509295509295909350565b600080600060608486031215613edf57613ede61323a565b5b6000613eed8682870161328d565b9350506020613efe868287016132c3565b9250506040613f0f868287016132c3565b9150509250925092565b7f455243313135353a2061646472657373207a65726f206973206e6f742061207660008201527f616c6964206f776e657200000000000000000000000000000000000000000000602082015250565b6000613f75602a836135c4565b9150613f8082613f19565b604082019050919050565b60006020820190508181036000830152613fa481613f68565b9050919050565b7f4e487b7100000000000000000000000000000000000000000000000000000000600052602260045260246000fd5b60006002820490506001821680613ff257607f821691505b60208210810361400557614004613fab565b5b50919050565b7f455243313135353a2063616c6c6572206973206e6f7420746f6b656e206f776e60008201527f6572206f7220617070726f766564000000000000000000000000000000000000602082015250565b6000614067602e836135c4565b91506140728261400b565b604082019050919050565b600060208201905081810360008301526140968161405a565b9050919050565b7f455243313135353a206163636f756e747320616e6420696473206c656e67746860008201527f206d69736d617463680000000000000000000000000000000000000000000000602082015250565b60006140f96029836135c4565b91506141048261409d565b604082019050919050565b60006020820190508181036000830152614128816140ec565b9050919050565b7f4e487b7100000000000000000000000000000000000000000000000000000000600052603260045260246000fd5b7f4e487b7100000000000000000000000000000000000000000000000000000000600052601160045260246000fd5b6000614198826132a2565b91507fffffffffffffffffffffffffffffffffffffffffffffffffffffffffffffffff82036141ca576141c961415e565b5b600182019050919050565b6000815190506141e481613276565b92915050565b600060208284031215614200576141ff61323a565b5b600061420e848285016141d5565b91505092915050565b7f43616c6c6572206973206e6f74206f776e657200000000000000000000000000600082015250565b600061424d6013836135c4565b915061425882614217565b602082019050919050565b6000602082019050818103600083015261427c81614240565b9050919050565b7f4d75737420637265617465206174206c65617374203120536861726500000000600082015250565b60006142b9601c836135c4565b91506142c482614283565b602082019050919050565b600060208201905081810360008301526142e8816142ac565b9050919050565b7f43616c6c6572206973206e6f7420426c6f636b4573746174654173736574206360008201527f6f6e747261637400000000000000000000000000000000000000000000000000602082015250565b600061434b6027836135c4565b9150614356826142ef565b604082019050919050565b6000602082019050818103600083015261437a8161433e565b9050919050565b7f4f776e61626c653a206e6577206f776e657220697320746865207a65726f206160008201527f6464726573730000000000000000000000000000000000000000000000000000602082015250565b60006143dd6026836135c4565b91506143e882614381565b604082019050919050565b6000602082019050818103600083015261440c816143d0565b9050919050565b7f4f776e61626c653a2063616c6c6572206973206e6f7420746865206f776e6572600082015250565b60006144496020836135c4565b915061445482614413565b602082019050919050565b600060208201905081810360008301526144788161443c565b9050919050565b60008190508160005260206000209050919050565b60006020601f8301049050919050565b600082821b905092915050565b6000600883026144e17fffffffffffffffffffffffffffffffffffffffffffffffffffffffffffffffff826144a4565b6144eb86836144a4565b95508019841693508086168417925050509392505050565b6000819050919050565b600061452861452361451e846132a2565b614503565b6132a2565b9050919050565b6000819050919050565b6145428361450d565b61455661454e8261452f565b8484546144b1565b825550505050565b600090565b61456b61455e565b614576818484614539565b505050565b5b8181101561459a5761458f600082614563565b60018101905061457c565b5050565b601f8211156145df576145b08161447f565b6145b984614494565b810160208510156145c8578190505b6145dc6145d485614494565b83018261457b565b50505b505050565b600082821c905092915050565b6000614602600019846008026145e4565b1980831691505092915050565b600061461b83836145f1565b9150826002028217905092915050565b614634826135b9565b67ffffffffffffffff81111561464d5761464c613418565b5b6146578254613fda565b61466282828561459e565b600060209050601f8311600181146146955760008415614683578287015190505b61468d858261460f565b8655506146f5565b601f1984166146a38661447f565b60005b828110156146cb578489015182556001820191506020850194506020810190506146a6565b868310156146e857848901516146e4601f8916826145f1565b8355505b6001600288020188555050505b505050505050565b7f455243313135353a2069647320616e6420616d6f756e7473206c656e6774682060008201527f6d69736d61746368000000000000000000000000000000000000000000000000602082015250565b60006147596028836135c4565b9150614764826146fd565b604082019050919050565b600060208201905081810360008301526147888161474c565b9050919050565b7f455243313135353a207472616e7366657220746f20746865207a65726f20616460008201527f6472657373000000000000000000000000000000000000000000000000000000602082015250565b60006147eb6025836135c4565b91506147f68261478f565b604082019050919050565b6000602082019050818103600083015261481a816147de565b9050919050565b7f455243313135353a20696e73756666696369656e742062616c616e636520666f60008201527f72207472616e7366657200000000000000000000000000000000000000000000602082015250565b600061487d602a836135c4565b915061488882614821565b604082019050919050565b600060208201905081810360008301526148ac81614870565b9050919050565b60006148be826132a2565b91506148c9836132a2565b92508282019050808211156148e1576148e061415e565b5b92915050565b600060408201905081810360008301526149018185613b3a565b905081810360208301526149158184613b3a565b90509392505050565b7f455243313135353a206d696e7420746f20746865207a65726f2061646472657360008201527f7300000000000000000000000000000000000000000000000000000000000000602082015250565b600061497a6021836135c4565b91506149858261491e565b604082019050919050565b600060208201905081810360008301526149a98161496d565b9050919050565b60006040820190506149c56000830185613318565b6149d26020830184613318565b9392505050565b7f455243313135353a206275726e2066726f6d20746865207a65726f206164647260008201527f6573730000000000000000000000000000000000000000000000000000000000602082015250565b6000614a356023836135c4565b9150614a40826149d9565b604082019050919050565b60006020820190508181036000830152614a6481614a28565b9050919050565b7f455243313135353a206275726e20616d6f756e7420657863656564732062616c60008201527f616e636500000000000000000000000000000000000000000000000000000000602082015250565b6000614ac76024836135c4565b9150614ad282614a6b565b604082019050919050565b60006020820190508181036000830152614af681614aba565b9050919050565b7f455243313135353a2073657474696e6720617070726f76616c2073746174757360008201527f20666f722073656c660000000000000000000000000000000000000000000000602082015250565b6000614b596029836135c4565b9150614b6482614afd565b604082019050919050565b60006020820190508181036000830152614b8881614b4c565b9050919050565b6000606082019050614ba46000830186613cd0565b614bb16020830185613cd0565b614bbe6040830184613318565b949350505050565b600081519050919050565b600082825260208201905092915050565b6000614bed82614bc6565b614bf78185614bd1565b9350614c078185602086016135d5565b614c1081613407565b840191505092915050565b600060a082019050614c306000830188613cd0565b614c3d6020830187613cd0565b8181036040830152614c4f8186613b3a565b90508181036060830152614c638185613b3a565b90508181036080830152614c778184614be2565b90509695505050505050565b600081519050614c928161336e565b92915050565b600060208284031215614cae57614cad61323a565b5b6000614cbc84828501614c83565b91505092915050565b60008160e01c9050919050565b600060033d1115614cf15760046000803e614cee600051614cc5565b90505b90565b600060443d10614d8157614d06613230565b60043d036004823e80513d602482011167ffffffffffffffff82111715614d2e575050614d81565b808201805167ffffffffffffffff811115614d4c5750505050614d81565b80602083010160043d038501811115614d69575050505050614d81565b614d7882602001850186613447565b82955050505050505b90565b7f455243313135353a207472616e7366657220746f206e6f6e2d4552433131353560008201527f526563656976657220696d706c656d656e746572000000000000000000000000602082015250565b6000614de06034836135c4565b9150614deb82614d84565b604082019050919050565b60006020820190508181036000830152614e0f81614dd3565b9050919050565b7f455243313135353a204552433131353552656365697665722072656a6563746560008201527f6420746f6b656e73000000000000000000000000000000000000000000000000602082015250565b6000614e726028836135c4565b9150614e7d82614e16565b604082019050919050565b60006020820190508181036000830152614ea181614e65565b9050919050565b7f5061757361626c653a206e6f7420706175736564000000000000000000000000600082015250565b6000614ede6014836135c4565b9150614ee982614ea8565b602082019050919050565b60006020820190508181036000830152614f0d81614ed1565b9050919050565b600060a082019050614f296000830188613cd0565b614f366020830187613cd0565b614f436040830186613318565b614f506060830185613318565b8181036080830152614f628184614be2565b90509695505050505050565b7f5061757361626c653a2070617573656400000000000000000000000000000000600082015250565b6000614fa46010836135c4565b9150614faf82614f6e565b602082019050919050565b60006020820190508181036000830152614fd381614f97565b9050919050565b7f455243313135353a206275726e20616d6f756e74206578636565647320746f7460008201527f616c537570706c79000000000000000000000000000000000000000000000000602082015250565b60006150366028836135c4565b915061504182614fda565b604082019050919050565b6000602082019050818103600083015261506581615029565b905091905056fea2646970667358221220f9f7d0b3cbcd292d1fc189004aea7b651ae9bc8ae683286ca86f230dd043546164736f6c6343000812003368747470733a2f2f626c6f636b6573746174652e616c65786f6368732e64652f6170692f6d657461646174612f7368617265732f",
  "linkReferences": {},
  "deployedLinkReferences": {}
}