{
  "_format": "hh-sol-artifact-1",
  "contractName": "BlockEstateAssets",
  "sourceName": "contracts/BlockEstate/BlockEstateAssets.sol",
  "abi": [
    {
      "inputs": [],
      "stateMutability": "nonpayable",
      "type": "constructor"
    },
    {
      "anonymous": false,
      "inputs": [
        {
          "indexed": true,
          "internalType": "address",
          "name": "owner",
          "type": "address"
        },
        {
          "indexed": true,
          "internalType": "address",
          "name": "approved",
          "type": "address"
        },
        {
          "indexed": true,
          "internalType": "uint256",
          "name": "tokenId",
          "type": "uint256"
        }
      ],
      "name": "Approval",
      "type": "event"
    },
    {
      "anonymous": false,
      "inputs": [
        {
          "indexed": true,
          "internalType": "address",
          "name": "owner",
          "type": "address"
        },
        {
          "indexed": true,
          "internalType": "address",
          "name": "operator",
          "type": "address"
        },
        {
          "indexed": false,
          "internalType": "bool",
          "name": "approved",
          "type": "bool"
        }
      ],
      "name": "ApprovalForAll",
      "type": "event"
    },
    {
      "anonymous": false,
      "inputs": [
        {
          "indexed": false,
          "internalType": "uint256",
          "name": "tokenId",
          "type": "uint256"
        }
      ],
      "name": "AssetCreated",
      "type": "event"
    },
    {
      "anonymous": false,
      "inputs": [
        {
          "indexed": false,
          "internalType": "uint256",
          "name": "tokenId",
          "type": "uint256"
        }
      ],
      "name": "AssetDeleted",
      "type": "event"
    },
    {
      "anonymous": false,
      "inputs": [
        {
          "indexed": false,
          "internalType": "address",
          "name": "old",
          "type": "address"
        },
        {
          "indexed": false,
          "internalType": "address",
          "name": "updated",
          "type": "address"
        }
      ],
      "name": "BlockEstateMarketAddressUpdated",
      "type": "event"
    },
    {
      "anonymous": false,
      "inputs": [
        {
          "indexed": false,
          "internalType": "address",
          "name": "old",
          "type": "address"
        },
        {
          "indexed": false,
          "internalType": "address",
          "name": "updated",
          "type": "address"
        }
      ],
      "name": "BlockEstateSharesAddressUpdated",
      "type": "event"
    },
    {
      "anonymous": false,
      "inputs": [
        {
          "indexed": true,
          "internalType": "address",
          "name": "previousOwner",
          "type": "address"
        },
        {
          "indexed": true,
          "internalType": "address",
          "name": "newOwner",
          "type": "address"
        }
      ],
      "name": "OwnershipTransferred",
      "type": "event"
    },
    {
      "anonymous": false,
      "inputs": [
        {
          "indexed": false,
          "internalType": "address",
          "name": "account",
          "type": "address"
        }
      ],
      "name": "Paused",
      "type": "event"
    },
    {
      "anonymous": false,
      "inputs": [
        {
          "indexed": true,
          "internalType": "address",
          "name": "from",
          "type": "address"
        },
        {
          "indexed": true,
          "internalType": "address",
          "name": "to",
          "type": "address"
        },
        {
          "indexed": true,
          "internalType": "uint256",
          "name": "tokenId",
          "type": "uint256"
        }
      ],
      "name": "Transfer",
      "type": "event"
    },
    {
      "anonymous": false,
      "inputs": [
        {
          "indexed": false,
          "internalType": "address",
          "name": "account",
          "type": "address"
        }
      ],
      "name": "Unpaused",
      "type": "event"
    },
    {
      "inputs": [
        {
          "internalType": "address",
          "name": "to",
          "type": "address"
        },
        {
          "internalType": "uint256",
          "name": "tokenId",
          "type": "uint256"
        }
      ],
      "name": "approve",
      "outputs": [],
      "stateMutability": "nonpayable",
      "type": "function"
    },
    {
      "inputs": [
        {
          "internalType": "address",
          "name": "owner",
          "type": "address"
        }
      ],
      "name": "balanceOf",
      "outputs": [
        {
          "internalType": "uint256",
          "name": "",
          "type": "uint256"
        }
      ],
      "stateMutability": "view",
      "type": "function"
    },
    {
      "inputs": [],
      "name": "blockEstateMarketAddress",
      "outputs": [
        {
          "internalType": "address",
          "name": "",
          "type": "address"
        }
      ],
      "stateMutability": "view",
      "type": "function"
    },
    {
      "inputs": [],
      "name": "blockEstateSharesAddress",
      "outputs": [
        {
          "internalType": "address",
          "name": "",
          "type": "address"
        }
      ],
      "stateMutability": "view",
      "type": "function"
    },
    {
      "inputs": [
        {
          "internalType": "uint256",
          "name": "tokenId",
          "type": "uint256"
        }
      ],
      "name": "burn",
      "outputs": [],
      "stateMutability": "nonpayable",
      "type": "function"
    },
    {
      "inputs": [
        {
          "internalType": "uint8",
          "name": "category",
          "type": "uint8"
        },
        {
          "internalType": "string",
          "name": "street",
          "type": "string"
        },
        {
          "internalType": "uint16",
          "name": "number",
          "type": "uint16"
        },
        {
          "internalType": "uint16",
          "name": "apNumber",
          "type": "uint16"
        },
        {
          "internalType": "string",
          "name": "city",
          "type": "string"
        },
        {
          "internalType": "string",
          "name": "zip",
          "type": "string"
        },
        {
          "internalType": "string",
          "name": "country",
          "type": "string"
        },
        {
          "internalType": "uint8",
          "name": "sharesOption",
          "type": "uint8"
        }
      ],
      "name": "createAsset",
      "outputs": [
        {
          "internalType": "uint256",
          "name": "",
          "type": "uint256"
        }
      ],
      "stateMutability": "nonpayable",
      "type": "function"
    },
    {
      "inputs": [
        {
          "internalType": "uint256",
          "name": "tokenId",
          "type": "uint256"
        }
      ],
      "name": "createDeletionProposal",
      "outputs": [],
      "stateMutability": "nonpayable",
      "type": "function"
    },
    {
      "inputs": [
        {
          "internalType": "uint256",
          "name": "tokenId",
          "type": "uint256"
        }
      ],
      "name": "deleteAsset",
      "outputs": [],
      "stateMutability": "nonpayable",
      "type": "function"
    },
    {
      "inputs": [
        {
          "internalType": "uint256",
          "name": "tokenId",
          "type": "uint256"
        }
      ],
      "name": "exists",
      "outputs": [
        {
          "internalType": "bool",
          "name": "",
          "type": "bool"
        }
      ],
      "stateMutability": "view",
      "type": "function"
    },
    {
      "inputs": [
        {
          "internalType": "uint256",
          "name": "tokenId",
          "type": "uint256"
        }
      ],
      "name": "getApproved",
      "outputs": [
        {
          "internalType": "address",
          "name": "",
          "type": "address"
        }
      ],
      "stateMutability": "view",
      "type": "function"
    },
    {
      "inputs": [
        {
          "internalType": "address",
          "name": "owner",
          "type": "address"
        },
        {
          "internalType": "address",
          "name": "operator",
          "type": "address"
        }
      ],
      "name": "isApprovedForAll",
      "outputs": [
        {
          "internalType": "bool",
          "name": "",
          "type": "bool"
        }
      ],
      "stateMutability": "view",
      "type": "function"
    },
    {
      "inputs": [],
      "name": "name",
      "outputs": [
        {
          "internalType": "string",
          "name": "",
          "type": "string"
        }
      ],
      "stateMutability": "view",
      "type": "function"
    },
    {
      "inputs": [
        {
          "internalType": "address",
          "name": "",
          "type": "address"
        },
        {
          "internalType": "address",
          "name": "",
          "type": "address"
        },
        {
          "internalType": "uint256",
          "name": "",
          "type": "uint256"
        },
        {
          "internalType": "bytes",
          "name": "",
          "type": "bytes"
        }
      ],
      "name": "onERC721Received",
      "outputs": [
        {
          "internalType": "bytes4",
          "name": "",
          "type": "bytes4"
        }
      ],
      "stateMutability": "nonpayable",
      "type": "function"
    },
    {
      "inputs": [],
      "name": "owner",
      "outputs": [
        {
          "internalType": "address",
          "name": "",
          "type": "address"
        }
      ],
      "stateMutability": "view",
      "type": "function"
    },
    {
      "inputs": [
        {
          "internalType": "uint256",
          "name": "tokenId",
          "type": "uint256"
        }
      ],
      "name": "ownerOf",
      "outputs": [
        {
          "internalType": "address",
          "name": "",
          "type": "address"
        }
      ],
      "stateMutability": "view",
      "type": "function"
    },
    {
      "inputs": [],
      "name": "pause",
      "outputs": [],
      "stateMutability": "nonpayable",
      "type": "function"
    },
    {
      "inputs": [],
      "name": "paused",
      "outputs": [
        {
          "internalType": "bool",
          "name": "",
          "type": "bool"
        }
      ],
      "stateMutability": "view",
      "type": "function"
    },
    {
      "inputs": [],
      "name": "readAllAssets",
      "outputs": [
        {
          "components": [
            {
              "internalType": "uint256",
              "name": "tokenId",
              "type": "uint256"
            },
            {
              "internalType": "uint8",
              "name": "category",
              "type": "uint8"
            },
            {
              "components": [
                {
                  "internalType": "string",
                  "name": "street",
                  "type": "string"
                },
                {
                  "internalType": "uint16",
                  "name": "number",
                  "type": "uint16"
                },
                {
                  "internalType": "uint16",
                  "name": "apNumber",
                  "type": "uint16"
                },
                {
                  "internalType": "string",
                  "name": "city",
                  "type": "string"
                },
                {
                  "internalType": "string",
                  "name": "zip",
                  "type": "string"
                },
                {
                  "internalType": "string",
                  "name": "country",
                  "type": "string"
                }
              ],
              "internalType": "struct BlockEstateAssets.AssetLocation",
              "name": "location",
              "type": "tuple"
            }
          ],
          "internalType": "struct BlockEstateAssets.Asset[]",
          "name": "",
          "type": "tuple[]"
        }
      ],
      "stateMutability": "view",
      "type": "function"
    },
    {
      "inputs": [],
      "name": "readAllDeletionProposals",
      "outputs": [
        {
          "components": [
            {
              "internalType": "uint256",
              "name": "deletionProposalId",
              "type": "uint256"
            },
            {
              "internalType": "uint256",
              "name": "tokenId",
              "type": "uint256"
            },
            {
              "internalType": "uint256",
              "name": "positiveVotes",
              "type": "uint256"
            },
            {
              "internalType": "uint256",
              "name": "negativeVotes",
              "type": "uint256"
            },
            {
              "internalType": "address[]",
              "name": "allowed",
              "type": "address[]"
            },
            {
              "internalType": "address[]",
              "name": "voted",
              "type": "address[]"
            },
            {
              "internalType": "uint256",
              "name": "startDate",
              "type": "uint256"
            },
            {
              "internalType": "uint256",
              "name": "endDate",
              "type": "uint256"
            }
          ],
          "internalType": "struct BlockEstateAssets.DeletionProposal[]",
          "name": "",
          "type": "tuple[]"
        }
      ],
      "stateMutability": "view",
      "type": "function"
    },
    {
      "inputs": [
        {
          "internalType": "uint256",
          "name": "tokenId",
          "type": "uint256"
        }
      ],
      "name": "readAsset",
      "outputs": [
        {
          "components": [
            {
              "internalType": "uint256",
              "name": "tokenId",
              "type": "uint256"
            },
            {
              "internalType": "uint8",
              "name": "category",
              "type": "uint8"
            },
            {
              "components": [
                {
                  "internalType": "string",
                  "name": "street",
                  "type": "string"
                },
                {
                  "internalType": "uint16",
                  "name": "number",
                  "type": "uint16"
                },
                {
                  "internalType": "uint16",
                  "name": "apNumber",
                  "type": "uint16"
                },
                {
                  "internalType": "string",
                  "name": "city",
                  "type": "string"
                },
                {
                  "internalType": "string",
                  "name": "zip",
                  "type": "string"
                },
                {
                  "internalType": "string",
                  "name": "country",
                  "type": "string"
                }
              ],
              "internalType": "struct BlockEstateAssets.AssetLocation",
              "name": "location",
              "type": "tuple"
            }
          ],
          "internalType": "struct BlockEstateAssets.Asset",
          "name": "",
          "type": "tuple"
        }
      ],
      "stateMutability": "view",
      "type": "function"
    },
    {
      "inputs": [
        {
          "internalType": "uint256[]",
          "name": "tokenIds",
          "type": "uint256[]"
        }
      ],
      "name": "readAssetBatch",
      "outputs": [
        {
          "components": [
            {
              "internalType": "uint256",
              "name": "tokenId",
              "type": "uint256"
            },
            {
              "internalType": "uint8",
              "name": "category",
              "type": "uint8"
            },
            {
              "components": [
                {
                  "internalType": "string",
                  "name": "street",
                  "type": "string"
                },
                {
                  "internalType": "uint16",
                  "name": "number",
                  "type": "uint16"
                },
                {
                  "internalType": "uint16",
                  "name": "apNumber",
                  "type": "uint16"
                },
                {
                  "internalType": "string",
                  "name": "city",
                  "type": "string"
                },
                {
                  "internalType": "string",
                  "name": "zip",
                  "type": "string"
                },
                {
                  "internalType": "string",
                  "name": "country",
                  "type": "string"
                }
              ],
              "internalType": "struct BlockEstateAssets.AssetLocation",
              "name": "location",
              "type": "tuple"
            }
          ],
          "internalType": "struct BlockEstateAssets.Asset[]",
          "name": "",
          "type": "tuple[]"
        }
      ],
      "stateMutability": "view",
      "type": "function"
    },
    {
      "inputs": [
        {
          "internalType": "address",
          "name": "_address",
          "type": "address"
        }
      ],
      "name": "readAssetsByHolder",
      "outputs": [
        {
          "components": [
            {
              "internalType": "uint256",
              "name": "tokenId",
              "type": "uint256"
            },
            {
              "internalType": "uint8",
              "name": "category",
              "type": "uint8"
            },
            {
              "components": [
                {
                  "internalType": "string",
                  "name": "street",
                  "type": "string"
                },
                {
                  "internalType": "uint16",
                  "name": "number",
                  "type": "uint16"
                },
                {
                  "internalType": "uint16",
                  "name": "apNumber",
                  "type": "uint16"
                },
                {
                  "internalType": "string",
                  "name": "city",
                  "type": "string"
                },
                {
                  "internalType": "string",
                  "name": "zip",
                  "type": "string"
                },
                {
                  "internalType": "string",
                  "name": "country",
                  "type": "string"
                }
              ],
              "internalType": "struct BlockEstateAssets.AssetLocation",
              "name": "location",
              "type": "tuple"
            }
          ],
          "internalType": "struct BlockEstateAssets.Asset[]",
          "name": "",
          "type": "tuple[]"
        }
      ],
      "stateMutability": "view",
      "type": "function"
    },
    {
      "inputs": [
        {
          "internalType": "uint256",
          "name": "deletionProposalId",
          "type": "uint256"
        }
      ],
      "name": "readDeletionProposalById",
      "outputs": [
        {
          "components": [
            {
              "internalType": "uint256",
              "name": "deletionProposalId",
              "type": "uint256"
            },
            {
              "internalType": "uint256",
              "name": "tokenId",
              "type": "uint256"
            },
            {
              "internalType": "uint256",
              "name": "positiveVotes",
              "type": "uint256"
            },
            {
              "internalType": "uint256",
              "name": "negativeVotes",
              "type": "uint256"
            },
            {
              "internalType": "address[]",
              "name": "allowed",
              "type": "address[]"
            },
            {
              "internalType": "address[]",
              "name": "voted",
              "type": "address[]"
            },
            {
              "internalType": "uint256",
              "name": "startDate",
              "type": "uint256"
            },
            {
              "internalType": "uint256",
              "name": "endDate",
              "type": "uint256"
            }
          ],
          "internalType": "struct BlockEstateAssets.DeletionProposal",
          "name": "",
          "type": "tuple"
        }
      ],
      "stateMutability": "view",
      "type": "function"
    },
    {
      "inputs": [],
      "name": "readDeletionProposalsByAccount",
      "outputs": [
        {
          "components": [
            {
              "internalType": "uint256",
              "name": "deletionProposalId",
              "type": "uint256"
            },
            {
              "internalType": "uint256",
              "name": "tokenId",
              "type": "uint256"
            },
            {
              "internalType": "uint256",
              "name": "positiveVotes",
              "type": "uint256"
            },
            {
              "internalType": "uint256",
              "name": "negativeVotes",
              "type": "uint256"
            },
            {
              "internalType": "address[]",
              "name": "allowed",
              "type": "address[]"
            },
            {
              "internalType": "address[]",
              "name": "voted",
              "type": "address[]"
            },
            {
              "internalType": "uint256",
              "name": "startDate",
              "type": "uint256"
            },
            {
              "internalType": "uint256",
              "name": "endDate",
              "type": "uint256"
            }
          ],
          "internalType": "struct BlockEstateAssets.DeletionProposal[]",
          "name": "",
          "type": "tuple[]"
        }
      ],
      "stateMutability": "view",
      "type": "function"
    },
    {
      "inputs": [
        {
          "internalType": "uint256",
          "name": "tokenId",
          "type": "uint256"
        }
      ],
      "name": "readDeletionProposalsByAsset",
      "outputs": [
        {
          "components": [
            {
              "internalType": "uint256",
              "name": "deletionProposalId",
              "type": "uint256"
            },
            {
              "internalType": "uint256",
              "name": "tokenId",
              "type": "uint256"
            },
            {
              "internalType": "uint256",
              "name": "positiveVotes",
              "type": "uint256"
            },
            {
              "internalType": "uint256",
              "name": "negativeVotes",
              "type": "uint256"
            },
            {
              "internalType": "address[]",
              "name": "allowed",
              "type": "address[]"
            },
            {
              "internalType": "address[]",
              "name": "voted",
              "type": "address[]"
            },
            {
              "internalType": "uint256",
              "name": "startDate",
              "type": "uint256"
            },
            {
              "internalType": "uint256",
              "name": "endDate",
              "type": "uint256"
            }
          ],
          "internalType": "struct BlockEstateAssets.DeletionProposal[]",
          "name": "",
          "type": "tuple[]"
        }
      ],
      "stateMutability": "view",
      "type": "function"
    },
    {
      "inputs": [],
      "name": "renounceOwnership",
      "outputs": [],
      "stateMutability": "nonpayable",
      "type": "function"
    },
    {
      "inputs": [
        {
          "internalType": "address",
          "name": "from",
          "type": "address"
        },
        {
          "internalType": "address",
          "name": "to",
          "type": "address"
        },
        {
          "internalType": "uint256",
          "name": "tokenId",
          "type": "uint256"
        }
      ],
      "name": "safeTransferFrom",
      "outputs": [],
      "stateMutability": "nonpayable",
      "type": "function"
    },
    {
      "inputs": [
        {
          "internalType": "address",
          "name": "from",
          "type": "address"
        },
        {
          "internalType": "address",
          "name": "to",
          "type": "address"
        },
        {
          "internalType": "uint256",
          "name": "tokenId",
          "type": "uint256"
        },
        {
          "internalType": "bytes",
          "name": "data",
          "type": "bytes"
        }
      ],
      "name": "safeTransferFrom",
      "outputs": [],
      "stateMutability": "nonpayable",
      "type": "function"
    },
    {
      "inputs": [
        {
          "internalType": "address",
          "name": "operator",
          "type": "address"
        },
        {
          "internalType": "bool",
          "name": "approved",
          "type": "bool"
        }
      ],
      "name": "setApprovalForAll",
      "outputs": [],
      "stateMutability": "nonpayable",
      "type": "function"
    },
    {
      "inputs": [
        {
          "internalType": "address",
          "name": "_blockEstateMarketAddress",
          "type": "address"
        }
      ],
      "name": "setBlockEstateMarketAddress",
      "outputs": [],
      "stateMutability": "nonpayable",
      "type": "function"
    },
    {
      "inputs": [
        {
          "internalType": "address",
          "name": "_blockEstateSharesAddress",
          "type": "address"
        }
      ],
      "name": "setBlockEstateSharesAddress",
      "outputs": [],
      "stateMutability": "nonpayable",
      "type": "function"
    },
    {
      "inputs": [
        {
          "internalType": "bytes4",
          "name": "interfaceId",
          "type": "bytes4"
        }
      ],
      "name": "supportsInterface",
      "outputs": [
        {
          "internalType": "bool",
          "name": "",
          "type": "bool"
        }
      ],
      "stateMutability": "view",
      "type": "function"
    },
    {
      "inputs": [],
      "name": "symbol",
      "outputs": [
        {
          "internalType": "string",
          "name": "",
          "type": "string"
        }
      ],
      "stateMutability": "view",
      "type": "function"
    },
    {
      "inputs": [
        {
          "internalType": "uint256",
          "name": "index",
          "type": "uint256"
        }
      ],
      "name": "tokenByIndex",
      "outputs": [
        {
          "internalType": "uint256",
          "name": "",
          "type": "uint256"
        }
      ],
      "stateMutability": "view",
      "type": "function"
    },
    {
      "inputs": [
        {
          "internalType": "address",
          "name": "owner",
          "type": "address"
        },
        {
          "internalType": "uint256",
          "name": "index",
          "type": "uint256"
        }
      ],
      "name": "tokenOfOwnerByIndex",
      "outputs": [
        {
          "internalType": "uint256",
          "name": "",
          "type": "uint256"
        }
      ],
      "stateMutability": "view",
      "type": "function"
    },
    {
      "inputs": [
        {
          "internalType": "uint256",
          "name": "tokenId",
          "type": "uint256"
        }
      ],
      "name": "tokenURI",
      "outputs": [
        {
          "internalType": "string",
          "name": "",
          "type": "string"
        }
      ],
      "stateMutability": "view",
      "type": "function"
    },
    {
      "inputs": [],
      "name": "totalSupply",
      "outputs": [
        {
          "internalType": "uint256",
          "name": "",
          "type": "uint256"
        }
      ],
      "stateMutability": "view",
      "type": "function"
    },
    {
      "inputs": [
        {
          "internalType": "address",
          "name": "from",
          "type": "address"
        },
        {
          "internalType": "address",
          "name": "to",
          "type": "address"
        },
        {
          "internalType": "uint256",
          "name": "tokenId",
          "type": "uint256"
        }
      ],
      "name": "transferFrom",
      "outputs": [],
      "stateMutability": "nonpayable",
      "type": "function"
    },
    {
      "inputs": [
        {
          "internalType": "address",
          "name": "newOwner",
          "type": "address"
        }
      ],
      "name": "transferOwnership",
      "outputs": [],
      "stateMutability": "nonpayable",
      "type": "function"
    },
    {
      "inputs": [],
      "name": "unpause",
      "outputs": [],
      "stateMutability": "nonpayable",
      "type": "function"
    },
    {
      "inputs": [
        {
          "internalType": "uint256",
          "name": "deletionProposalId",
          "type": "uint256"
        },
        {
          "internalType": "bool",
          "name": "positive",
          "type": "bool"
        }
      ],
      "name": "voteDeletionProposal",
      "outputs": [],
      "stateMutability": "nonpayable",
      "type": "function"
    }
  ],
  "bytecode": "0x60806040523480156200001157600080fd5b5060405180604001604052806011815260200170426c6f636b45737461746541737365747360781b8152506040518060400160405280600381526020016242454160e81b8152508160009081620000699190620001bd565b506001620000788282620001bd565b5050600a805460ff19169055506200009033620000b5565b6001600b81905550620000af600c6200010f60201b620028c31760201c565b62000289565b600a80546001600160a01b03838116610100818102610100600160a81b031985161790945560405193909204169182907f8be0079c531659141344cd1fd0a4f28419497f9722a3daafe3b4186f6b6457e090600090a35050565b80546001019055565b634e487b7160e01b600052604160045260246000fd5b600181811c908216806200014357607f821691505b6020821081036200016457634e487b7160e01b600052602260045260246000fd5b50919050565b601f821115620001b857600081815260208120601f850160051c81016020861015620001935750805b601f850160051c820191505b81811015620001b4578281556001016200019f565b5050505b505050565b81516001600160401b03811115620001d957620001d962000118565b620001f181620001ea84546200012e565b846200016a565b602080601f831160018114620002295760008415620002105750858301515b600019600386901b1c1916600185901b178555620001b4565b600085815260208120601f198616915b828110156200025a5788860151825594840194600190910190840162000239565b5085821015620002795787850151600019600388901b60f8161c191681555b5050505050600190811b01905550565b6145f380620002996000396000f3fe608060405234801561001057600080fd5b50600436106102535760003560e01c80634f558e79116101465780638da5cb5b116100c3578063c36becd211610087578063c36becd21461051e578063c87b56dd14610526578063e1260a1914610539578063e15547cb1461054c578063e985e9c51461056c578063f2fde38b146105a857600080fd5b80638da5cb5b146104c757806395d89b41146104dd5780639f653c51146104e5578063a22cb465146104f8578063b88d4fde1461050b57600080fd5b806370a082311161010a57806370a082311461047e578063715018a6146104915780637eb79b53146104995780638456cb59146104ac5780638947473f146104b457600080fd5b80634f558e79146104275780634f6ccce71461043a5780635131e4e71461044d5780635c975abb146104605780636352211e1461046b57600080fd5b80632d192e6f116101d457806342842e0e1161019857806342842e0e146103c857806342966c68146103db5780634353d1b9146103ee57806344522934146104015780634cfe601a1461041457600080fd5b80632d192e6f1461037d5780632ee5ba2c146103905780632f745c591461039857806330187787146103ab5780633f4ba83a146103c057600080fd5b8063095ea7b31161021b578063095ea7b314610301578063150b7a021461031657806318160ddd14610342578063223baab41461034a57806323b872dd1461036a57600080fd5b806301ffc9a7146102585780630488a3b91461028057806306fdde03146102a0578063070643cf146102b5578063081812fc146102d6575b600080fd5b61026b61026636600461390d565b6105bb565b60405190151581526020015b60405180910390f35b61029361028e36600461392a565b6105cc565b6040516102779190613a4b565b6102a86108dd565b6040516102779190613a5e565b6102c86102c3366004613b56565b61096f565b604051908152602001610277565b6102e96102e436600461392a565b610fc8565b6040516001600160a01b039091168152602001610277565b61031461030f366004613c5a565b610fef565b005b610329610324366004613c86565b611104565b6040516001600160e01b03199091168152602001610277565b6008546102c8565b61035d610358366004613d05565b611115565b6040516102779190613d22565b610314610378366004613d84565b6111cc565b61035d61038b366004613de8565b6111fe565b61035d6112b5565b6102c86103a6366004613c5a565b61135e565b6103b36113f4565b6040516102779190613f3a565b61031461164e565b6103146103d6366004613d84565b611660565b6103146103e936600461392a565b61167b565b6103146103fc366004613f9f565b6116ac565b6103b361040f36600461392a565b611b1d565b610314610422366004613d05565b611ce6565b61026b61043536600461392a565b611da3565b6102c861044836600461392a565b611dae565b61031461045b366004613d05565b611e41565b600a5460ff1661026b565b6102e961047936600461392a565b611efe565b6102c861048c366004613d05565b611f5e565b610314611fe4565b6103146104a736600461392a565b611ff6565b6103146122a6565b600f546102e9906001600160a01b031681565b600a5461010090046001600160a01b03166102e9565b6102a86122b6565b600e546102e9906001600160a01b031681565b610314610506366004613fcb565b6122c5565b610314610519366004613c86565b6122d4565b6103b3612306565b6102a861053436600461392a565b6124b6565b61031461054736600461392a565b61251d565b61055f61055a36600461392a565b61272b565b6040516102779190613ff7565b61026b61057a36600461400a565b6001600160a01b03918216600090815260056020908152604080832093909416825291909152205460ff1690565b6103146105b6366004613d05565b61284d565b60006105c6826128cc565b92915050565b6105d461379c565b816105de816128f1565b6106275760405162461bcd60e51b8152602060048201526015602482015274546f6b656e20646f6573206e6f742065786973742160581b60448201526064015b60405180910390fd5b600083815260106020908152604091829020825160608101845281548152600182015460ff1692810192909252825160c08101845260028201805493949293928501928290829061067790614043565b80601f01602080910402602001604051908101604052809291908181526020018280546106a390614043565b80156106f05780601f106106c5576101008083540402835291602001916106f0565b820191906000526020600020905b8154815290600101906020018083116106d357829003601f168201915b5050509183525050600182015461ffff80821660208401526201000090910416604082015260028201805460609092019161072a90614043565b80601f016020809104026020016040519081016040528092919081815260200182805461075690614043565b80156107a35780601f10610778576101008083540402835291602001916107a3565b820191906000526020600020905b81548152906001019060200180831161078657829003601f168201915b505050505081526020016003820180546107bc90614043565b80601f01602080910402602001604051908101604052809291908181526020018280546107e890614043565b80156108355780601f1061080a57610100808354040283529160200191610835565b820191906000526020600020905b81548152906001019060200180831161081857829003601f168201915b5050505050815260200160048201805461084e90614043565b80601f016020809104026020016040519081016040528092919081815260200182805461087a90614043565b80156108c75780601f1061089c576101008083540402835291602001916108c7565b820191906000526020600020905b8154815290600101906020018083116108aa57829003601f168201915b5050505050815250508152505091505b50919050565b6060600080546108ec90614043565b80601f016020809104026020016040519081016040528092919081815260200182805461091890614043565b80156109655780601f1061093a57610100808354040283529160200191610965565b820191906000526020600020905b81548152906001019060200180831161094857829003601f168201915b5050505050905090565b600061097961290e565b600160ff8a1611156109cd5760405162461bcd60e51b815260206004820152601760248201527f496e76616c69642061737365742063617465676f727921000000000000000000604482015260640161061e565b6002885111610a385760405162461bcd60e51b815260206004820152603160248201527f537472656574206e616d652073686f756c64206265206174206c6561737420336044820152702063686172616374657273206c6f6e672160781b606482015260840161061e565b60008761ffff1611610a985760405162461bcd60e51b815260206004820152602360248201527f537472656574206e756d6265722073686f756c64206265206174206c6561737460448201526220312160e81b606482015260840161061e565b8860ff16600003610b065760008661ffff1611610b065760405162461bcd60e51b815260206004820152602660248201527f41706172746d656e74206e756d6265722073686f756c64206265206174206c6560448201526561737420312160d01b606482015260840161061e565b6000855111610b6e5760405162461bcd60e51b815260206004820152602e60248201527f43697479206e616d652073686f756c64206265206174206c656173742031206360448201526d6861726163746572206c6f6e672160901b606482015260840161061e565b6000845111610bd05760405162461bcd60e51b815260206004820152602860248201527f5a697020636f64652073686f756c64206265206174206c65617374206f66206c604482015267656e67746820312160c01b606482015260840161061e565b6003835111610c3c5760405162461bcd60e51b815260206004820152603260248201527f436f756e747279206e616d652073686f756c64206265206174206c6561737420604482015271342063686172616374657273206c6f6e672160701b606482015260840161061e565b60058260ff161115610c895760405162461bcd60e51b8152602060048201526016602482015275496e76616c696420736861726573206f7074696f6e2160501b604482015260640161061e565b60006040518060c001604052808a81526020018961ffff1681526020018861ffff168152602001878152602001868152602001858152509050601160008b836000015184602001518560400151866060015187608001518860a00151604051602001610cfb9796959493929190614077565b60408051601f198184030181529181528151602092830120835290820192909252016000205460ff1615610d825760405162461bcd60e51b815260206004820152602860248201527f417373657420776974682074686973206c6f636174696f6e20616c7265616479604482015267206578697374732160c01b606482015260840161061e565b610d9430610d8f600c5490565b612967565b6040518060600160405280610da8600c5490565b815260ff8c16602082015260400182905260106000610dc6600c5490565b81526020808201929092526040908101600020835181559183015160018301805460ff191660ff909216919091179055820151805160028301908190610e0c908261415a565b506020820151600182018054604085015161ffff908116620100000263ffffffff1990921693169290921791909117905560608201516002820190610e51908261415a565b5060808201516003820190610e66908261415a565b5060a08201516004820190610e7b908261415a565b5050509050506001601160008c846000015185602001518660400151876060015188608001518960a00151604051602001610ebc9796959493929190614077565b60408051808303601f19018152918152815160209283012083529082019290925201600020805460ff1916911515919091179055600c547fe9667cd49094a292b02a1d8555f54c265b42912082c2f32b2050393b06d835989060405190815260200160405180910390a16000610f31600c5490565b9050610f41600c80546001019055565b600e54604051631c13c9f560e21b81523360048201526024810183905260ff861660448201526001600160a01b039091169063704f27d490606401600060405180830381600087803b158015610f9657600080fd5b505af1158015610faa573d6000803e3d6000fd5b5092945050505050610fbc6001600b55565b98975050505050505050565b6000610fd382612981565b506000908152600460205260409020546001600160a01b031690565b6000610ffa82611efe565b9050806001600160a01b0316836001600160a01b0316036110675760405162461bcd60e51b815260206004820152602160248201527f4552433732313a20617070726f76616c20746f2063757272656e74206f776e656044820152603960f91b606482015260840161061e565b336001600160a01b03821614806110835750611083813361057a565b6110f55760405162461bcd60e51b815260206004820152603d60248201527f4552433732313a20617070726f76652063616c6c6572206973206e6f7420746f60448201527f6b656e206f776e6572206f7220617070726f76656420666f7220616c6c000000606482015260840161061e565b6110ff83836129d1565b505050565b630a85bd0160e11b5b949350505050565b6060600061112283611f5e565b6001600160401b0381111561113957611139613a87565b60405190808252806020026020018201604052801561117257816020015b61115f61379c565b8152602001906001900390816111575790505b50905060005b61118184611f5e565b8110156111c55761119561028e858361135e565b8282815181106111a7576111a7614219565b602002602001018190525080806111bd90614245565b915050611178565b5092915050565b6111d7335b82612a3f565b6111f35760405162461bcd60e51b815260040161061e9061425e565b6110ff838383612abd565b6060600082516001600160401b0381111561121b5761121b613a87565b60405190808252806020026020018201604052801561125457816020015b61124161379c565b8152602001906001900390816112395790505b50905060005b83518110156111c55761128584828151811061127857611278614219565b60200260200101516105cc565b82828151811061129757611297614219565b602002602001018190525080806112ad90614245565b91505061125a565b606060006112c260085490565b6001600160401b038111156112d9576112d9613a87565b60405190808252806020026020018201604052801561131257816020015b6112ff61379c565b8152602001906001900390816112f75790505b50905060005b6008548110156108d75761132e61028e82611dae565b82828151811061134057611340614219565b6020026020010181905250808061135690614245565b915050611318565b600061136983611f5e565b82106113cb5760405162461bcd60e51b815260206004820152602b60248201527f455243373231456e756d657261626c653a206f776e657220696e646578206f7560448201526a74206f6620626f756e647360a81b606482015260840161061e565b506001600160a01b03919091166000908152600660209081526040808320938352929052205490565b60606000611401600d5490565b6001600160401b0381111561141857611418613a87565b60405190808252806020026020018201604052801561145157816020015b61143e6137fe565b8152602001906001900390816114365790505b50905060005b600d548110156108d757600e546000906001600160a01b031662fdd58e33601284611481600d5490565b8152602001908152602001600020600101546040518363ffffffff1660e01b81526004016114c49291906001600160a01b03929092168252602082015260400190565b602060405180830381865afa1580156114e1573d6000803e3d6000fd5b505050506040513d601f19601f8201168201806040525081019061150591906142ab565b111561163c576000818152601260209081526040918290208251610100810184528154815260018201548184015260028201548185015260038201546060820152600482018054855181860281018601909652808652919492936080860193929083018282801561159f57602002820191906000526020600020905b81546001600160a01b03168152600190910190602001808311611581575b505050505081526020016005820180548060200260200160405190810160405280929190818152602001828054801561160157602002820191906000526020600020905b81546001600160a01b031681526001909101906020018083116115e3575b505050505081526020016006820154815260200160078201548152505082828151811061163057611630614219565b60200260200101819052505b8061164681614245565b915050611457565b611656612c2e565b61165e612c8e565b565b6110ff838383604051806020016040528060008152506122d4565b611684336111d1565b6116a05760405162461bcd60e51b815260040161061e9061425e565b6116a981612ce0565b50565b600e546000906001600160a01b031662fdd58e336012846116cc600d5490565b8152602001908152602001600020600101546040518363ffffffff1660e01b815260040161170f9291906001600160a01b03929092168252602082015260400190565b602060405180830381865afa15801561172c573d6000803e3d6000fd5b505050506040513d601f19601f8201168201806040525081019061175091906142ab565b1161178f5760405162461bcd60e51b815260206004820152600f60248201526e2737ba1039b430b932b437b63232b960891b604482015260640161061e565b60008281526012602052604090206007015442106117e25760405162461bcd60e51b815260206004820152601060248201526f141c9bdc1bdcd85b08195e1c1a5c995960821b604482015260640161061e565b60008281526012602052604090206006015442101561183a5760405162461bcd60e51b8152602060048201526014602482015273141c9bdc1bdcd85b081b9bdd081cdd185c9d195960621b604482015260640161061e565b60005b6000838152601260205260409020600501548110156118e057600083815260126020526040902060050180543391908390811061187c5761187c614219565b6000918252602090912001546001600160a01b0316036118ce5760405162461bcd60e51b815260206004820152600d60248201526c105b1c9958591e481d9bdd1959609a1b604482015260640161061e565b806118d881614245565b91505061183d565b506000805b60008481526012602052604090206004015481101561195557600084815260126020526040902060040180543391908390811061192457611924614219565b6000918252602090912001546001600160a01b03160361194357600191505b8061194d81614245565b9150506118e5565b50806119995760405162461bcd60e51b81526020600482015260136024820152724e6f7420616c6c6f77656420746f20766f746560681b604482015260640161061e565b600e546000906001600160a01b031662fdd58e336012846119b9600d5490565b8152602001908152602001600020600101546040518363ffffffff1660e01b81526004016119fc9291906001600160a01b03929092168252602082015260400190565b602060405180830381865afa158015611a19573d6000803e3d6000fd5b505050506040513d601f19601f82011682018060405250810190611a3d91906142ab565b90508215611a715760008481526012602052604081206002018054839290611a669084906142c4565b90915550611a989050565b60008481526012602052604081206003018054839290611a929084906142c4565b90915550505b6000848152601260209081526040822060058101805460018101825581855292842090920180546001600160a01b03191633179055918690525460049091015403611b1757600084815260126020526040902060038101546002909101541115611b1757600084815260126020526040902060010154611b1790611ff6565b50505050565b60606000611b2a600d5490565b6001600160401b03811115611b4157611b41613a87565b604051908082528060200260200182016040528015611b7a57816020015b611b676137fe565b815260200190600190039081611b5f5790505b50905060005b600d548110156111c557600081815260126020526040902060010154849003611cd45760008181526012602090815260409182902082516101008101845281548152600182015481840152600282015481850152600382015460608201526004820180548551818602810186019096528086529194929360808601939290830182828015611c3757602002820191906000526020600020905b81546001600160a01b03168152600190910190602001808311611c19575b5050505050815260200160058201805480602002602001604051908101604052809291908181526020018280548015611c9957602002820191906000526020600020905b81546001600160a01b03168152600190910190602001808311611c7b575b5050505050815260200160068201548152602001600782015481525050828281518110611cc857611cc8614219565b60200260200101819052505b80611cde81614245565b915050611b80565b611cee612c2e565b6001600160a01b038116611d335760405162461bcd60e51b815260206004820152600c60248201526b7a65726f206164647265737360a01b604482015260640161061e565b600f54604080516001600160a01b03928316815291831660208301527f5d9e527e2ab85eed8c12dbfdfa49903b509f3b367dec19463530d787dcfd2854910160405180910390a1600f80546001600160a01b0319166001600160a01b0383169081179091556116a99060016122c5565b60006105c6826128f1565b6000611db960085490565b8210611e1c5760405162461bcd60e51b815260206004820152602c60248201527f455243373231456e756d657261626c653a20676c6f62616c20696e646578206f60448201526b7574206f6620626f756e647360a01b606482015260840161061e565b60088281548110611e2f57611e2f614219565b90600052602060002001549050919050565b611e49612c2e565b6001600160a01b038116611e8e5760405162461bcd60e51b815260206004820152600c60248201526b7a65726f206164647265737360a01b604482015260640161061e565b600e54604080516001600160a01b03928316815291831660208301527f1a41fb6f752ad018610bf79716ec70546bbda4a0235520e04158d3c4f3486230910160405180910390a1600e80546001600160a01b0319166001600160a01b0383169081179091556116a99060016122c5565b6000818152600260205260408120546001600160a01b0316806105c65760405162461bcd60e51b8152602060048201526018602482015277115490cdcc8c4e881a5b9d985b1a59081d1bdad95b88125160421b604482015260640161061e565b60006001600160a01b038216611fc85760405162461bcd60e51b815260206004820152602960248201527f4552433732313a2061646472657373207a65726f206973206e6f7420612076616044820152683634b21037bbb732b960b91b606482015260840161061e565b506001600160a01b031660009081526003602052604090205490565b611fec612c2e565b61165e6000612d83565b80612000816128f1565b6120445760405162461bcd60e51b8152602060048201526015602482015274546f6b656e20646f6573206e6f742065786973742160581b604482015260640161061e565b600e5460405163bd85b03960e01b8152600481018490526001600160a01b039091169063bd85b03990602401602060405180830381865afa15801561208d573d6000803e3d6000fd5b505050506040513d601f19601f820116820180604052508101906120b191906142ab565b600e54604051627eeac760e11b8152336004820152602481018590526001600160a01b039091169062fdd58e90604401602060405180830381865afa1580156120fe573d6000803e3d6000fd5b505050506040513d601f19601f8201168201806040525081019061212291906142ab565b1461216f5760405162461bcd60e51b815260206004820152601f60248201527f43616c6c657220646f6573206e6f74206f776e20616c6c207368617265732100604482015260640161061e565b61217882612ce0565b6000828152601060209081526040808320600181015460038201549251601195946121ce9460ff90931693600281019361ffff80821694620100009092041692600483019260058101926006909101910161434a565b60408051601f1981840301815291815281516020928301208352828201939093529082016000908120805460ff19908116909155858252601090925291822082815560018101805490921690915590600282018161222c8282613843565b60018201805463ffffffff19169055612249600283016000613843565b612257600383016000613843565b612265600483016000613843565b505050507fa688c45cd59c2527ae60c477de2510cf8cec40aa54def51bae6c2725468871a28260405161229a91815260200190565b60405180910390a15050565b6122ae612c2e565b61165e612ddd565b6060600180546108ec90614043565b6122d0338383612e1a565b5050565b6122de3383612a3f565b6122fa5760405162461bcd60e51b815260040161061e9061425e565b611b1784848484612ee8565b60606000612313600d5490565b6001600160401b0381111561232a5761232a613a87565b60405190808252806020026020018201604052801561236357816020015b6123506137fe565b8152602001906001900390816123485790505b50905060005b600d548110156108d7576000818152601260209081526040918290208251610100810184528154815260018201548184015260028201548185015260038201546060820152600482018054855181860281018601909652808652919492936080860193929083018282801561240757602002820191906000526020600020905b81546001600160a01b031681526001909101906020018083116123e9575b505050505081526020016005820180548060200260200160405190810160405280929190818152602001828054801561246957602002820191906000526020600020905b81546001600160a01b0316815260019091019060200180831161244b575b505050505081526020016006820154815260200160078201548152505082828151811061249857612498614219565b602002602001018190525080806124ae90614245565b915050612369565b60606124c182612981565b60006124cb612f1b565b905060008151116124eb5760405180602001604052806000815250612516565b806124f584612f3b565b6040516020016125069291906143b2565b6040516020818303038152906040525b9392505050565b600e54604051627eeac760e11b8152336004820152602481018390526000916001600160a01b03169062fdd58e90604401602060405180830381865afa15801561256b573d6000803e3d6000fd5b505050506040513d601f19601f8201168201806040525081019061258f91906142ab565b116125ce5760405162461bcd60e51b815260206004820152600f60248201526e2737ba1039b430b932b437b63232b960891b604482015260640161061e565b600d546000818152601260205260408082209283556001909201839055600e5482516310f9323360e21b81526004810185905292516001600160a01b03909116926343e4c8cc9260248083019391928290030181865afa158015612636573d6000803e3d6000fd5b505050506040513d6000823e601f3d908101601f1916820160405261265e91908101906143e1565b6012600061266b600d5490565b8152602001908152602001600020600401908051906020019061268f92919061387d565b5060006012600061269f600d5490565b8152602001908152602001600020600201819055506000601260006126c3600d5490565b81526020019081526020016000206003018190555042601260006126e6600d5490565b81526020810191909152604001600020600601556127074262093a806142c4565b60126000612714600d5490565b815260208101919091526040016000206007015550565b6127336137fe565b600082815260126020908152604091829020825161010081018452815481526001820154818401526002820154818501526003820154606082015260048201805485518186028101860190965280865291949293608086019392908301828280156127c757602002820191906000526020600020905b81546001600160a01b031681526001909101906020018083116127a9575b505050505081526020016005820180548060200260200160405190810160405280929190818152602001828054801561282957602002820191906000526020600020905b81546001600160a01b0316815260019091019060200180831161280b575b50505050508152602001600682015481526020016007820154815250509050919050565b612855612c2e565b6001600160a01b0381166128ba5760405162461bcd60e51b815260206004820152602660248201527f4f776e61626c653a206e6577206f776e657220697320746865207a65726f206160448201526564647265737360d01b606482015260840161061e565b6116a981612d83565b80546001019055565b60006001600160e01b0319821663780e9d6360e01b14806105c657506105c682612fcd565b6000908152600260205260409020546001600160a01b0316151590565b6002600b54036129605760405162461bcd60e51b815260206004820152601f60248201527f5265656e7472616e637947756172643a207265656e7472616e742063616c6c00604482015260640161061e565b6002600b55565b6122d082826040518060200160405280600081525061301d565b61298a816128f1565b6116a95760405162461bcd60e51b8152602060048201526018602482015277115490cdcc8c4e881a5b9d985b1a59081d1bdad95b88125160421b604482015260640161061e565b600081815260046020526040902080546001600160a01b0319166001600160a01b0384169081179091558190612a0682611efe565b6001600160a01b03167f8c5be1e5ebec7d5bd14f71427d1e84f3dd0314c0f7b2291e5b200ac8c7c3b92560405160405180910390a45050565b600080612a4b83611efe565b9050806001600160a01b0316846001600160a01b03161480612a9257506001600160a01b0380821660009081526005602090815260408083209388168352929052205460ff165b8061110d5750836001600160a01b0316612aab84610fc8565b6001600160a01b031614949350505050565b826001600160a01b0316612ad082611efe565b6001600160a01b031614612af65760405162461bcd60e51b815260040161061e9061446f565b6001600160a01b038216612b585760405162461bcd60e51b8152602060048201526024808201527f4552433732313a207472616e7366657220746f20746865207a65726f206164646044820152637265737360e01b606482015260840161061e565b612b658383836001613050565b826001600160a01b0316612b7882611efe565b6001600160a01b031614612b9e5760405162461bcd60e51b815260040161061e9061446f565b600081815260046020908152604080832080546001600160a01b03199081169091556001600160a01b0387811680865260038552838620805460001901905590871680865283862080546001019055868652600290945282852080549092168417909155905184937fddf252ad1be2c89b69c2b068fc378daa952ba7f163c4a11628f55a4df523b3ef91a4505050565b600a546001600160a01b0361010090910416331461165e5760405162461bcd60e51b815260206004820181905260248201527f4f776e61626c653a2063616c6c6572206973206e6f7420746865206f776e6572604482015260640161061e565b612c96613064565b600a805460ff191690557f5db9ee0a495bf2e6ff9c91a7834c1ba4fdd244a5e8aa4e537bd38aeae4b073aa335b6040516001600160a01b03909116815260200160405180910390a1565b6000612ceb82611efe565b9050612cfb816000846001613050565b612d0482611efe565b600083815260046020908152604080832080546001600160a01b03199081169091556001600160a01b0385168085526003845282852080546000190190558785526002909352818420805490911690555192935084927fddf252ad1be2c89b69c2b068fc378daa952ba7f163c4a11628f55a4df523b3ef908390a45050565b600a80546001600160a01b03838116610100818102610100600160a81b031985161790945560405193909204169182907f8be0079c531659141344cd1fd0a4f28419497f9722a3daafe3b4186f6b6457e090600090a35050565b612de56130ad565b600a805460ff191660011790557f62e78cea01bee320cd4e420270b5ea74000d11b0c9f74754ebdbfc544b05a258612cc33390565b816001600160a01b0316836001600160a01b031603612e7b5760405162461bcd60e51b815260206004820152601960248201527f4552433732313a20617070726f766520746f2063616c6c657200000000000000604482015260640161061e565b6001600160a01b03838116600081815260056020908152604080832094871680845294825291829020805460ff191686151590811790915591519182527f17307eab39ab6107e8899845ad3d59bd9653f200f220920489ca2b5937696c31910160405180910390a3505050565b612ef3848484612abd565b612eff848484846130f3565b611b175760405162461bcd60e51b815260040161061e906144b4565b606060405180606001604052806034815260200161458a60349139905090565b60606000612f48836131f1565b60010190506000816001600160401b03811115612f6757612f67613a87565b6040519080825280601f01601f191660200182016040528015612f91576020820181803683370190505b5090508181016020015b600019016f181899199a1a9b1b9c1cb0b131b232b360811b600a86061a8153600a8504945084612f9b57509392505050565b60006001600160e01b031982166380ac58cd60e01b1480612ffe57506001600160e01b03198216635b5e139f60e01b145b806105c657506301ffc9a760e01b6001600160e01b03198316146105c6565b61302783836132c9565b61303460008484846130f3565b6110ff5760405162461bcd60e51b815260040161061e906144b4565b6130586130ad565b611b1784848484613444565b600a5460ff1661165e5760405162461bcd60e51b815260206004820152601460248201527314185d5cd8589b194e881b9bdd081c185d5cd95960621b604482015260640161061e565b600a5460ff161561165e5760405162461bcd60e51b815260206004820152601060248201526f14185d5cd8589b194e881c185d5cd95960821b604482015260640161061e565b60006001600160a01b0384163b156131e957604051630a85bd0160e11b81526001600160a01b0385169063150b7a0290613137903390899088908890600401614506565b6020604051808303816000875af1925050508015613172575060408051601f3d908101601f1916820190925261316f91810190614543565b60015b6131cf573d8080156131a0576040519150601f19603f3d011682016040523d82523d6000602084013e6131a5565b606091505b5080516000036131c75760405162461bcd60e51b815260040161061e906144b4565b805181602001fd5b6001600160e01b031916630a85bd0160e11b14905061110d565b50600161110d565b60008072184f03e93ff9f4daa797ed6e38ed64bf6a1f0160401b83106132305772184f03e93ff9f4daa797ed6e38ed64bf6a1f0160401b830492506040015b6d04ee2d6d415b85acef8100000000831061325c576d04ee2d6d415b85acef8100000000830492506020015b662386f26fc10000831061327a57662386f26fc10000830492506010015b6305f5e1008310613292576305f5e100830492506008015b61271083106132a657612710830492506004015b606483106132b8576064830492506002015b600a83106105c65760010192915050565b6001600160a01b03821661331f5760405162461bcd60e51b815260206004820181905260248201527f4552433732313a206d696e7420746f20746865207a65726f2061646472657373604482015260640161061e565b613328816128f1565b156133755760405162461bcd60e51b815260206004820152601c60248201527f4552433732313a20746f6b656e20616c7265616479206d696e74656400000000604482015260640161061e565b613383600083836001613050565b61338c816128f1565b156133d95760405162461bcd60e51b815260206004820152601c60248201527f4552433732313a20746f6b656e20616c7265616479206d696e74656400000000604482015260640161061e565b6001600160a01b038216600081815260036020908152604080832080546001019055848352600290915280822080546001600160a01b0319168417905551839291907fddf252ad1be2c89b69c2b068fc378daa952ba7f163c4a11628f55a4df523b3ef908290a45050565b61345084848484613584565b60018111156134bf5760405162461bcd60e51b815260206004820152603560248201527f455243373231456e756d657261626c653a20636f6e7365637574697665207472604482015274185b9cd9995c9cc81b9bdd081cdd5c1c1bdc9d1959605a1b606482015260840161061e565b816001600160a01b03851661351b5761351681600880546000838152600960205260408120829055600182018355919091527ff3f7a9fe364faab93b216da50a3214154f22a0a2b415b23a84c8169e8b636ee30155565b61353e565b836001600160a01b0316856001600160a01b03161461353e5761353e858261360c565b6001600160a01b03841661355a57613555816136a9565b61357d565b846001600160a01b0316846001600160a01b03161461357d5761357d8482613758565b5050505050565b6001811115611b17576001600160a01b038416156135ca576001600160a01b038416600090815260036020526040812080548392906135c4908490614560565b90915550505b6001600160a01b03831615611b17576001600160a01b038316600090815260036020526040812080548392906136019084906142c4565b909155505050505050565b6000600161361984611f5e565b6136239190614560565b600083815260076020526040902054909150808214613676576001600160a01b03841660009081526006602090815260408083208584528252808320548484528184208190558352600790915290208190555b5060009182526007602090815260408084208490556001600160a01b039094168352600681528383209183525290812055565b6008546000906136bb90600190614560565b600083815260096020526040812054600880549394509092849081106136e3576136e3614219565b90600052602060002001549050806008838154811061370457613704614219565b600091825260208083209091019290925582815260099091526040808220849055858252812055600880548061373c5761373c614573565b6001900381819060005260206000200160009055905550505050565b600061376383611f5e565b6001600160a01b039093166000908152600660209081526040808320868452825280832085905593825260079052919091209190915550565b604051806060016040528060008152602001600060ff1681526020016137f96040518060c0016040528060608152602001600061ffff168152602001600061ffff1681526020016060815260200160608152602001606081525090565b905290565b60405180610100016040528060008152602001600081526020016000815260200160008152602001606081526020016060815260200160008152602001600081525090565b50805461384f90614043565b6000825580601f1061385f575050565b601f0160209004906000526020600020908101906116a991906138e2565b8280548282559060005260206000209081019282156138d2579160200282015b828111156138d257825182546001600160a01b0319166001600160a01b0390911617825560209092019160019091019061389d565b506138de9291506138e2565b5090565b5b808211156138de57600081556001016138e3565b6001600160e01b0319811681146116a957600080fd5b60006020828403121561391f57600080fd5b8135612516816138f7565b60006020828403121561393c57600080fd5b5035919050565b60005b8381101561395e578181015183820152602001613946565b50506000910152565b6000815180845261397f816020860160208601613943565b601f01601f19169290920160200192915050565b8051825260ff60208201511660208301526000604082015160606040850152805160c060608601526139c9610120860182613967565b602083015161ffff908116608088015260408401511660a08701526060830151868203605f1990810160c089015291925090613a058383613967565b925060808401519150808784030160e0880152613a228383613967565b925060a0840151935080878403016101008801525050613a428183613967565b95945050505050565b6020815260006125166020830184613993565b6020815260006125166020830184613967565b803560ff81168114613a8257600080fd5b919050565b634e487b7160e01b600052604160045260246000fd5b604051601f8201601f191681016001600160401b0381118282101715613ac557613ac5613a87565b604052919050565b60006001600160401b03831115613ae657613ae6613a87565b613af9601f8401601f1916602001613a9d565b9050828152838383011115613b0d57600080fd5b828260208301376000602084830101529392505050565b600082601f830112613b3557600080fd5b61251683833560208501613acd565b803561ffff81168114613a8257600080fd5b600080600080600080600080610100898b031215613b7357600080fd5b613b7c89613a71565b975060208901356001600160401b0380821115613b9857600080fd5b613ba48c838d01613b24565b9850613bb260408c01613b44565b9750613bc060608c01613b44565b965060808b0135915080821115613bd657600080fd5b613be28c838d01613b24565b955060a08b0135915080821115613bf857600080fd5b613c048c838d01613b24565b945060c08b0135915080821115613c1a57600080fd5b50613c278b828c01613b24565b925050613c3660e08a01613a71565b90509295985092959890939650565b6001600160a01b03811681146116a957600080fd5b60008060408385031215613c6d57600080fd5b8235613c7881613c45565b946020939093013593505050565b60008060008060808587031215613c9c57600080fd5b8435613ca781613c45565b93506020850135613cb781613c45565b92506040850135915060608501356001600160401b03811115613cd957600080fd5b8501601f81018713613cea57600080fd5b613cf987823560208401613acd565b91505092959194509250565b600060208284031215613d1757600080fd5b813561251681613c45565b6000602080830181845280855180835260408601915060408160051b870101925083870160005b82811015613d7757603f19888603018452613d65858351613993565b94509285019290850190600101613d49565b5092979650505050505050565b600080600060608486031215613d9957600080fd5b8335613da481613c45565b92506020840135613db481613c45565b929592945050506040919091013590565b60006001600160401b03821115613dde57613dde613a87565b5060051b60200190565b60006020808385031215613dfb57600080fd5b82356001600160401b03811115613e1157600080fd5b8301601f81018513613e2257600080fd5b8035613e35613e3082613dc5565b613a9d565b81815260059190911b82018301908381019087831115613e5457600080fd5b928401925b82841015613e7257833582529284019290840190613e59565b979650505050505050565b600081518084526020808501945080840160005b83811015613eb65781516001600160a01b031687529582019590820190600101613e91565b509495945050505050565b6000610100825184526020830151602085015260408301516040850152606083015160608501526080830151816080860152613eff82860182613e7d565b91505060a083015184820360a0860152613f198282613e7d565b91505060c083015160c085015260e083015160e08501528091505092915050565b6000602080830181845280855180835260408601915060408160051b870101925083870160005b82811015613d7757603f19888603018452613f7d858351613ec1565b94509285019290850190600101613f61565b80358015158114613a8257600080fd5b60008060408385031215613fb257600080fd5b82359150613fc260208401613f8f565b90509250929050565b60008060408385031215613fde57600080fd5b8235613fe981613c45565b9150613fc260208401613f8f565b6020815260006125166020830184613ec1565b6000806040838503121561401d57600080fd5b823561402881613c45565b9150602083013561403881613c45565b809150509250929050565b600181811c9082168061405757607f821691505b6020821081036108d757634e487b7160e01b600052602260045260246000fd5b60ff60f81b8860f81b16815260008751614098816001850160208c01613943565b60f088811b6001600160f01b03199081166001938601938401529088901b16600382015285516140cf816005840160208a01613943565b85519101906140e5816005840160208901613943565b84519101906140fb816005840160208801613943565b016005019998505050505050505050565b601f8211156110ff57600081815260208120601f850160051c810160208610156141335750805b601f850160051c820191505b818110156141525782815560010161413f565b505050505050565b81516001600160401b0381111561417357614173613a87565b614187816141818454614043565b8461410c565b602080601f8311600181146141bc57600084156141a45750858301515b600019600386901b1c1916600185901b178555614152565b600085815260208120601f198616915b828110156141eb578886015182559484019460019091019084016141cc565b50858210156142095787850151600019600388901b60f8161c191681555b5050505050600190811b01905550565b634e487b7160e01b600052603260045260246000fd5b634e487b7160e01b600052601160045260246000fd5b6000600182016142575761425761422f565b5060010190565b6020808252602d908201527f4552433732313a2063616c6c6572206973206e6f7420746f6b656e206f776e6560408201526c1c881bdc88185c1c1c9bdd9959609a1b606082015260800190565b6000602082840312156142bd57600080fd5b5051919050565b808201808211156105c6576105c661422f565b600081546142e481614043565b600182811680156142fc576001811461431157614340565b60ff1984168752821515830287019450614340565b8560005260208060002060005b858110156143375781548a82015290840190820161431e565b50505082870194505b5050505092915050565b60f888901b6001600160f81b0319168152600061436a60018301896142d7565b6001600160f01b031960f089811b8216835288901b1660028201526143a461439e61439860048401896142d7565b876142d7565b856142d7565b9a9950505050505050505050565b600083516143c4818460208801613943565b8351908301906143d8818360208801613943565b01949350505050565b600060208083850312156143f457600080fd5b82516001600160401b0381111561440a57600080fd5b8301601f8101851361441b57600080fd5b8051614429613e3082613dc5565b81815260059190911b8201830190838101908783111561444857600080fd5b928401925b82841015613e7257835161446081613c45565b8252928401929084019061444d565b60208082526025908201527f4552433732313a207472616e736665722066726f6d20696e636f72726563742060408201526437bbb732b960d91b606082015260800190565b60208082526032908201527f4552433732313a207472616e7366657220746f206e6f6e20455243373231526560408201527131b2b4bb32b91034b6b83632b6b2b73a32b960711b606082015260800190565b6001600160a01b038581168252841660208201526040810183905260806060820181905260009061453990830184613967565b9695505050505050565b60006020828403121561455557600080fd5b8151612516816138f7565b818103818111156105c6576105c661422f565b634e487b7160e01b600052603160045260246000fdfe68747470733a2f2f626c6f636b6573746174652e616c65786f6368732e64652f6170692f6d657461646174612f6173736574732fa2646970667358221220225953b6e4c4aad5412f608549c80da3e5af234e3ebf58b056ba0ad34edeebc864736f6c63430008120033",
  "linkReferences": {},
  "deployedLinkReferences": {}
}