{
  "_format": "hh-sol-artifact-1",
  "contractName": "USDToken",
  "sourceName": "contracts/Mocks/USDToken.sol",
  "abi": [
    {
      "inputs": [],
      "stateMutability": "nonpayable",
      "type": "constructor"
    },
    {
      "anonymous": false,
      "inputs": [
        {
          "indexed": true,
          "internalType": "address",
          "name": "owner",
          "type": "address"
        },
        {
          "indexed": true,
          "internalType": "address",
          "name": "spender",
          "type": "address"
        },
        {
          "indexed": false,
          "internalType": "uint256",
          "name": "value",
          "type": "uint256"
        }
      ],
      "name": "Approval",
      "type": "event"
    },
    {
      "anonymous": false,
      "inputs": [
        {
          "indexed": true,
          "internalType": "address",
          "name": "from",
          "type": "address"
        },
        {
          "indexed": true,
          "internalType": "address",
          "name": "to",
          "type": "address"
        },
        {
          "indexed": false,
          "internalType": "uint256",
          "name": "value",
          "type": "uint256"
        }
      ],
      "name": "Transfer",
      "type": "event"
    },
    {
      "inputs": [
        {
          "internalType": "address",
          "name": "owner",
          "type": "address"
        },
        {
          "internalType": "address",
          "name": "spender",
          "type": "address"
        }
      ],
      "name": "allowance",
      "outputs": [
        {
          "internalType": "uint256",
          "name": "",
          "type": "uint256"
        }
      ],
      "stateMutability": "view",
      "type": "function"
    },
    {
      "inputs": [
        {
          "internalType": "address",
          "name": "spender",
          "type": "address"
        },
        {
          "internalType": "uint256",
          "name": "amount",
          "type": "uint256"
        }
      ],
      "name": "approve",
      "outputs": [
        {
          "internalType": "bool",
          "name": "",
          "type": "bool"
        }
      ],
      "stateMutability": "nonpayable",
      "type": "function"
    },
    {
      "inputs": [
        {
          "internalType": "address",
          "name": "account",
          "type": "address"
        }
      ],
      "name": "balanceOf",
      "outputs": [
        {
          "internalType": "uint256",
          "name": "",
          "type": "uint256"
        }
      ],
      "stateMutability": "view",
      "type": "function"
    },
    {
      "inputs": [],
      "name": "decimals",
      "outputs": [
        {
          "internalType": "uint8",
          "name": "",
          "type": "uint8"
        }
      ],
      "stateMutability": "view",
      "type": "function"
    },
    {
      "inputs": [
        {
          "internalType": "address",
          "name": "spender",
          "type": "address"
        },
        {
          "internalType": "uint256",
          "name": "subtractedValue",
          "type": "uint256"
        }
      ],
      "name": "decreaseAllowance",
      "outputs": [
        {
          "internalType": "bool",
          "name": "",
          "type": "bool"
        }
      ],
      "stateMutability": "nonpayable",
      "type": "function"
    },
    {
      "inputs": [],
      "name": "faucet",
      "outputs": [],
      "stateMutability": "nonpayable",
      "type": "function"
    },
    {
      "inputs": [
        {
          "internalType": "address",
          "name": "spender",
          "type": "address"
        },
        {
          "internalType": "uint256",
          "name": "addedValue",
          "type": "uint256"
        }
      ],
      "name": "increaseAllowance",
      "outputs": [
        {
          "internalType": "bool",
          "name": "",
          "type": "bool"
        }
      ],
      "stateMutability": "nonpayable",
      "type": "function"
    },
    {
      "inputs": [],
      "name": "name",
      "outputs": [
        {
          "internalType": "string",
          "name": "",
          "type": "string"
        }
      ],
      "stateMutability": "view",
      "type": "function"
    },
    {
      "inputs": [],
      "name": "symbol",
      "outputs": [
        {
          "internalType": "string",
          "name": "",
          "type": "string"
        }
      ],
      "stateMutability": "view",
      "type": "function"
    },
    {
      "inputs": [],
      "name": "totalSupply",
      "outputs": [
        {
          "internalType": "uint256",
          "name": "",
          "type": "uint256"
        }
      ],
      "stateMutability": "view",
      "type": "function"
    },
    {
      "inputs": [
        {
          "internalType": "address",
          "name": "to",
          "type": "address"
        },
        {
          "internalType": "uint256",
          "name": "amount",
          "type": "uint256"
        }
      ],
      "name": "transfer",
      "outputs": [
        {
          "internalType": "bool",
          "name": "",
          "type": "bool"
        }
      ],
      "stateMutability": "nonpayable",
      "type": "function"
    },
    {
      "inputs": [
        {
          "internalType": "address",
          "name": "from",
          "type": "address"
        },
        {
          "internalType": "address",
          "name": "to",
          "type": "address"
        },
        {
          "internalType": "uint256",
          "name": "amount",
          "type": "uint256"
        }
      ],
      "name": "transferFrom",
      "outputs": [
        {
          "internalType": "bool",
          "name": "",
          "type": "bool"
        }
      ],
      "stateMutability": "nonpayable",
      "type": "function"
    }
  ],
  "bytecode": "0x60806040523480156200001157600080fd5b50604051806040016040528060088152602001672aa9a22a37b5b2b760c11b815250604051806040016040528060038152602001621554d160ea1b815250816003908162000060919062000224565b5060046200006f828262000224565b505050620000aa3362000087620000b060201b60201c565b6200009490600a62000405565b620000a490633b9aca006200041d565b620000b5565b6200044d565b600690565b6001600160a01b038216620001105760405162461bcd60e51b815260206004820152601f60248201527f45524332303a206d696e7420746f20746865207a65726f206164647265737300604482015260640160405180910390fd5b806002600082825462000124919062000437565b90915550506001600160a01b038216600081815260208181526040808320805486019055518481527fddf252ad1be2c89b69c2b068fc378daa952ba7f163c4a11628f55a4df523b3ef910160405180910390a35050565b505050565b634e487b7160e01b600052604160045260246000fd5b600181811c90821680620001ab57607f821691505b602082108103620001cc57634e487b7160e01b600052602260045260246000fd5b50919050565b601f8211156200017b57600081815260208120601f850160051c81016020861015620001fb5750805b601f850160051c820191505b818110156200021c5782815560010162000207565b505050505050565b81516001600160401b0381111562000240576200024062000180565b620002588162000251845462000196565b84620001d2565b602080601f831160018114620002905760008415620002775750858301515b600019600386901b1c1916600185901b1785556200021c565b600085815260208120601f198616915b82811015620002c157888601518255948401946001909101908401620002a0565b5085821015620002e05787850151600019600388901b60f8161c191681555b5050505050600190811b01905550565b634e487b7160e01b600052601160045260246000fd5b600181815b80851115620003475781600019048211156200032b576200032b620002f0565b808516156200033957918102915b93841c93908002906200030b565b509250929050565b6000826200036057506001620003ff565b816200036f57506000620003ff565b81600181146200038857600281146200039357620003b3565b6001915050620003ff565b60ff841115620003a757620003a7620002f0565b50506001821b620003ff565b5060208310610133831016604e8410600b8410161715620003d8575081810a620003ff565b620003e4838362000306565b8060001904821115620003fb57620003fb620002f0565b0290505b92915050565b60006200041660ff8416836200034f565b9392505050565b8082028115828204841417620003ff57620003ff620002f0565b80820180821115620003ff57620003ff620002f0565b610937806200045d6000396000f3fe608060405234801561001057600080fd5b50600436106100b45760003560e01c806370a082311161007157806370a082311461014157806395d89b411461016a578063a457c2d714610172578063a9059cbb14610185578063dd62ed3e14610198578063de5f72fd146101ab57600080fd5b806306fdde03146100b9578063095ea7b3146100d757806318160ddd146100fa57806323b872dd1461010c578063313ce5671461011f578063395093511461012e575b600080fd5b6100c16101b5565b6040516100ce9190610781565b60405180910390f35b6100ea6100e53660046107eb565b610247565b60405190151581526020016100ce565b6002545b6040519081526020016100ce565b6100ea61011a366004610815565b610261565b604051600681526020016100ce565b6100ea61013c3660046107eb565b610285565b6100fe61014f366004610851565b6001600160a01b031660009081526020819052604090205490565b6100c16102a7565b6100ea6101803660046107eb565b6102b6565b6100ea6101933660046107eb565b610336565b6100fe6101a6366004610873565b610344565b6101b361036f565b005b6060600380546101c4906108a6565b80601f01602080910402602001604051908101604052809291908181526020018280546101f0906108a6565b801561023d5780601f106102125761010080835404028352916020019161023d565b820191906000526020600020905b81548152906001019060200180831161022057829003601f168201915b5050505050905090565b600033610255818585610380565b60019150505b92915050565b60003361026f8582856104a4565b61027a85858561051e565b506001949350505050565b6000336102558185856102988383610344565b6102a291906108e0565b610380565b6060600480546101c4906108a6565b600033816102c48286610344565b9050838110156103295760405162461bcd60e51b815260206004820152602560248201527f45524332303a2064656372656173656420616c6c6f77616e63652062656c6f77604482015264207a65726f60d81b60648201526084015b60405180910390fd5b61027a8286868403610380565b60003361025581858561051e565b6001600160a01b03918216600090815260016020908152604080832093909416825291909152205490565b61037e3364174876e8006106c2565b565b6001600160a01b0383166103e25760405162461bcd60e51b8152602060048201526024808201527f45524332303a20617070726f76652066726f6d20746865207a65726f206164646044820152637265737360e01b6064820152608401610320565b6001600160a01b0382166104435760405162461bcd60e51b815260206004820152602260248201527f45524332303a20617070726f766520746f20746865207a65726f206164647265604482015261737360f01b6064820152608401610320565b6001600160a01b0383811660008181526001602090815260408083209487168084529482529182902085905590518481527f8c5be1e5ebec7d5bd14f71427d1e84f3dd0314c0f7b2291e5b200ac8c7c3b925910160405180910390a3505050565b60006104b08484610344565b90506000198114610518578181101561050b5760405162461bcd60e51b815260206004820152601d60248201527f45524332303a20696e73756666696369656e7420616c6c6f77616e63650000006044820152606401610320565b6105188484848403610380565b50505050565b6001600160a01b0383166105825760405162461bcd60e51b815260206004820152602560248201527f45524332303a207472616e736665722066726f6d20746865207a65726f206164604482015264647265737360d81b6064820152608401610320565b6001600160a01b0382166105e45760405162461bcd60e51b815260206004820152602360248201527f45524332303a207472616e7366657220746f20746865207a65726f206164647260448201526265737360e81b6064820152608401610320565b6001600160a01b0383166000908152602081905260409020548181101561065c5760405162461bcd60e51b815260206004820152602660248201527f45524332303a207472616e7366657220616d6f756e7420657863656564732062604482015265616c616e636560d01b6064820152608401610320565b6001600160a01b03848116600081815260208181526040808320878703905593871680835291849020805487019055925185815290927fddf252ad1be2c89b69c2b068fc378daa952ba7f163c4a11628f55a4df523b3ef910160405180910390a3610518565b6001600160a01b0382166107185760405162461bcd60e51b815260206004820152601f60248201527f45524332303a206d696e7420746f20746865207a65726f2061646472657373006044820152606401610320565b806002600082825461072a91906108e0565b90915550506001600160a01b038216600081815260208181526040808320805486019055518481527fddf252ad1be2c89b69c2b068fc378daa952ba7f163c4a11628f55a4df523b3ef910160405180910390a35050565b600060208083528351808285015260005b818110156107ae57858101830151858201604001528201610792565b506000604082860101526040601f19601f8301168501019250505092915050565b80356001600160a01b03811681146107e657600080fd5b919050565b600080604083850312156107fe57600080fd5b610807836107cf565b946020939093013593505050565b60008060006060848603121561082a57600080fd5b610833846107cf565b9250610841602085016107cf565b9150604084013590509250925092565b60006020828403121561086357600080fd5b61086c826107cf565b9392505050565b6000806040838503121561088657600080fd5b61088f836107cf565b915061089d602084016107cf565b90509250929050565b600181811c908216806108ba57607f821691505b6020821081036108da57634e487b7160e01b600052602260045260246000fd5b50919050565b8082018082111561025b57634e487b7160e01b600052601160045260246000fdfea2646970667358221220c90f943914852351dbdc8c6a3d894c902e73412fba7588f324b7c1fe5f79dbf564736f6c63430008120033",
  "linkReferences": {},
  "deployedLinkReferences": {}
}