{
  "_format": "hh-sol-artifact-1",
  "contractName": "BlockEstate",
  "sourceName": "contracts/BlockEstate.sol",
  "abi": [
    {
      "inputs": [],
      "stateMutability": "nonpayable",
      "type": "constructor"
    },
    {
      "anonymous": false,
      "inputs": [
        {
          "indexed": true,
          "internalType": "address",
          "name": "account",
          "type": "address"
        },
        {
          "indexed": true,
          "internalType": "address",
          "name": "operator",
          "type": "address"
        },
        {
          "indexed": false,
          "internalType": "bool",
          "name": "approved",
          "type": "bool"
        }
      ],
      "name": "ApprovalForAll",
      "type": "event"
    },
    {
      "anonymous": false,
      "inputs": [
        {
          "indexed": false,
          "internalType": "uint256",
          "name": "tokenId",
          "type": "uint256"
        }
      ],
      "name": "AssetCreated",
      "type": "event"
    },
    {
      "anonymous": false,
      "inputs": [
        {
          "indexed": true,
          "internalType": "address",
          "name": "previousOwner",
          "type": "address"
        },
        {
          "indexed": true,
          "internalType": "address",
          "name": "newOwner",
          "type": "address"
        }
      ],
      "name": "OwnershipTransferred",
      "type": "event"
    },
    {
      "anonymous": false,
      "inputs": [
        {
          "indexed": false,
          "internalType": "uint256",
          "name": "assetId",
          "type": "uint256"
        },
        {
          "indexed": false,
          "internalType": "uint256",
          "name": "sharesId",
          "type": "uint256"
        },
        {
          "indexed": false,
          "internalType": "address[]",
          "name": "holders",
          "type": "address[]"
        },
        {
          "indexed": false,
          "internalType": "uint8[]",
          "name": "shares",
          "type": "uint8[]"
        }
      ],
      "name": "SharesCreated",
      "type": "event"
    },
    {
      "anonymous": false,
      "inputs": [
        {
          "indexed": true,
          "internalType": "address",
          "name": "operator",
          "type": "address"
        },
        {
          "indexed": true,
          "internalType": "address",
          "name": "from",
          "type": "address"
        },
        {
          "indexed": true,
          "internalType": "address",
          "name": "to",
          "type": "address"
        },
        {
          "indexed": false,
          "internalType": "uint256[]",
          "name": "ids",
          "type": "uint256[]"
        },
        {
          "indexed": false,
          "internalType": "uint256[]",
          "name": "values",
          "type": "uint256[]"
        }
      ],
      "name": "TransferBatch",
      "type": "event"
    },
    {
      "anonymous": false,
      "inputs": [
        {
          "indexed": true,
          "internalType": "address",
          "name": "operator",
          "type": "address"
        },
        {
          "indexed": true,
          "internalType": "address",
          "name": "from",
          "type": "address"
        },
        {
          "indexed": true,
          "internalType": "address",
          "name": "to",
          "type": "address"
        },
        {
          "indexed": false,
          "internalType": "uint256",
          "name": "id",
          "type": "uint256"
        },
        {
          "indexed": false,
          "internalType": "uint256",
          "name": "value",
          "type": "uint256"
        }
      ],
      "name": "TransferSingle",
      "type": "event"
    },
    {
      "anonymous": false,
      "inputs": [
        {
          "indexed": false,
          "internalType": "string",
          "name": "value",
          "type": "string"
        },
        {
          "indexed": true,
          "internalType": "uint256",
          "name": "id",
          "type": "uint256"
        }
      ],
      "name": "URI",
      "type": "event"
    },
    {
      "inputs": [
        {
          "internalType": "uint256",
          "name": "",
          "type": "uint256"
        }
      ],
      "name": "assetToShares",
      "outputs": [
        {
          "internalType": "uint256",
          "name": "",
          "type": "uint256"
        }
      ],
      "stateMutability": "view",
      "type": "function"
    },
    {
      "inputs": [
        {
          "internalType": "address",
          "name": "account",
          "type": "address"
        },
        {
          "internalType": "uint256",
          "name": "id",
          "type": "uint256"
        }
      ],
      "name": "balanceOf",
      "outputs": [
        {
          "internalType": "uint256",
          "name": "",
          "type": "uint256"
        }
      ],
      "stateMutability": "view",
      "type": "function"
    },
    {
      "inputs": [
        {
          "internalType": "address[]",
          "name": "accounts",
          "type": "address[]"
        },
        {
          "internalType": "uint256[]",
          "name": "ids",
          "type": "uint256[]"
        }
      ],
      "name": "balanceOfBatch",
      "outputs": [
        {
          "internalType": "uint256[]",
          "name": "",
          "type": "uint256[]"
        }
      ],
      "stateMutability": "view",
      "type": "function"
    },
    {
      "inputs": [
        {
          "internalType": "uint8",
          "name": "category",
          "type": "uint8"
        },
        {
          "internalType": "string",
          "name": "street",
          "type": "string"
        },
        {
          "internalType": "uint16",
          "name": "number",
          "type": "uint16"
        },
        {
          "internalType": "string",
          "name": "city",
          "type": "string"
        },
        {
          "internalType": "string",
          "name": "country",
          "type": "string"
        }
      ],
      "name": "createAsset",
      "outputs": [],
      "stateMutability": "nonpayable",
      "type": "function"
    },
    {
      "inputs": [
        {
          "internalType": "uint256",
          "name": "estateId",
          "type": "uint256"
        },
        {
          "internalType": "address[]",
          "name": "holders",
          "type": "address[]"
        },
        {
          "internalType": "uint8[]",
          "name": "shares",
          "type": "uint8[]"
        }
      ],
      "name": "createShares",
      "outputs": [],
      "stateMutability": "nonpayable",
      "type": "function"
    },
    {
      "inputs": [
        {
          "internalType": "uint256",
          "name": "id",
          "type": "uint256"
        }
      ],
      "name": "exists",
      "outputs": [
        {
          "internalType": "bool",
          "name": "",
          "type": "bool"
        }
      ],
      "stateMutability": "view",
      "type": "function"
    },
    {
      "inputs": [
        {
          "internalType": "address",
          "name": "owner",
          "type": "address"
        }
      ],
      "name": "getOwnedTokens",
      "outputs": [
        {
          "internalType": "uint256[]",
          "name": "",
          "type": "uint256[]"
        }
      ],
      "stateMutability": "view",
      "type": "function"
    },
    {
      "inputs": [
        {
          "internalType": "address",
          "name": "account",
          "type": "address"
        },
        {
          "internalType": "address",
          "name": "operator",
          "type": "address"
        }
      ],
      "name": "isApprovedForAll",
      "outputs": [
        {
          "internalType": "bool",
          "name": "",
          "type": "bool"
        }
      ],
      "stateMutability": "view",
      "type": "function"
    },
    {
      "inputs": [],
      "name": "owner",
      "outputs": [
        {
          "internalType": "address",
          "name": "",
          "type": "address"
        }
      ],
      "stateMutability": "view",
      "type": "function"
    },
    {
      "inputs": [],
      "name": "renounceOwnership",
      "outputs": [],
      "stateMutability": "nonpayable",
      "type": "function"
    },
    {
      "inputs": [
        {
          "internalType": "address",
          "name": "from",
          "type": "address"
        },
        {
          "internalType": "address",
          "name": "to",
          "type": "address"
        },
        {
          "internalType": "uint256[]",
          "name": "ids",
          "type": "uint256[]"
        },
        {
          "internalType": "uint256[]",
          "name": "amounts",
          "type": "uint256[]"
        },
        {
          "internalType": "bytes",
          "name": "data",
          "type": "bytes"
        }
      ],
      "name": "safeBatchTransferFrom",
      "outputs": [],
      "stateMutability": "nonpayable",
      "type": "function"
    },
    {
      "inputs": [
        {
          "internalType": "address",
          "name": "from",
          "type": "address"
        },
        {
          "internalType": "address",
          "name": "to",
          "type": "address"
        },
        {
          "internalType": "uint256",
          "name": "id",
          "type": "uint256"
        },
        {
          "internalType": "uint256",
          "name": "amount",
          "type": "uint256"
        },
        {
          "internalType": "bytes",
          "name": "data",
          "type": "bytes"
        }
      ],
      "name": "safeTransferFrom",
      "outputs": [],
      "stateMutability": "nonpayable",
      "type": "function"
    },
    {
      "inputs": [
        {
          "internalType": "address",
          "name": "operator",
          "type": "address"
        },
        {
          "internalType": "bool",
          "name": "approved",
          "type": "bool"
        }
      ],
      "name": "setApprovalForAll",
      "outputs": [],
      "stateMutability": "nonpayable",
      "type": "function"
    },
    {
      "inputs": [
        {
          "internalType": "string",
          "name": "newuri",
          "type": "string"
        }
      ],
      "name": "setURI",
      "outputs": [],
      "stateMutability": "nonpayable",
      "type": "function"
    },
    {
      "inputs": [
        {
          "internalType": "bytes4",
          "name": "interfaceId",
          "type": "bytes4"
        }
      ],
      "name": "supportsInterface",
      "outputs": [
        {
          "internalType": "bool",
          "name": "",
          "type": "bool"
        }
      ],
      "stateMutability": "view",
      "type": "function"
    },
    {
      "inputs": [
        {
          "internalType": "uint256",
          "name": "",
          "type": "uint256"
        }
      ],
      "name": "tokenToAsset",
      "outputs": [
        {
          "internalType": "uint256",
          "name": "tokenId",
          "type": "uint256"
        },
        {
          "internalType": "enum BlockEstate.AssetCategory",
          "name": "category",
          "type": "uint8"
        },
        {
          "components": [
            {
              "internalType": "string",
              "name": "street",
              "type": "string"
            },
            {
              "internalType": "uint16",
              "name": "number",
              "type": "uint16"
            },
            {
              "internalType": "string",
              "name": "city",
              "type": "string"
            },
            {
              "internalType": "string",
              "name": "country",
              "type": "string"
            }
          ],
          "internalType": "struct BlockEstate.AssetLocation",
          "name": "location",
          "type": "tuple"
        }
      ],
      "stateMutability": "view",
      "type": "function"
    },
    {
      "inputs": [
        {
          "internalType": "uint256",
          "name": "id",
          "type": "uint256"
        }
      ],
      "name": "totalSupply",
      "outputs": [
        {
          "internalType": "uint256",
          "name": "",
          "type": "uint256"
        }
      ],
      "stateMutability": "view",
      "type": "function"
    },
    {
      "inputs": [
        {
          "internalType": "address",
          "name": "newOwner",
          "type": "address"
        }
      ],
      "name": "transferOwnership",
      "outputs": [],
      "stateMutability": "nonpayable",
      "type": "function"
    },
    {
      "inputs": [
        {
          "internalType": "uint256",
          "name": "",
          "type": "uint256"
        }
      ],
      "name": "uri",
      "outputs": [
        {
          "internalType": "string",
          "name": "",
          "type": "string"
        }
      ],
      "stateMutability": "view",
      "type": "function"
    }
  ],
  "bytecode": "0x60806040523480156200001157600080fd5b506040518060600160405280602d815260200162004dad602d91396200003d816200006460201b60201c565b506200005e620000526200007960201b60201c565b6200008160201b60201c565b620004a8565b8060029081620000759190620003c1565b5050565b600033905090565b6000600360009054906101000a900473ffffffffffffffffffffffffffffffffffffffff16905081600360006101000a81548173ffffffffffffffffffffffffffffffffffffffff021916908373ffffffffffffffffffffffffffffffffffffffff1602179055508173ffffffffffffffffffffffffffffffffffffffff168173ffffffffffffffffffffffffffffffffffffffff167f8be0079c531659141344cd1fd0a4f28419497f9722a3daafe3b4186f6b6457e060405160405180910390a35050565b600081519050919050565b7f4e487b7100000000000000000000000000000000000000000000000000000000600052604160045260246000fd5b7f4e487b7100000000000000000000000000000000000000000000000000000000600052602260045260246000fd5b60006002820490506001821680620001c957607f821691505b602082108103620001df57620001de62000181565b5b50919050565b60008190508160005260206000209050919050565b60006020601f8301049050919050565b600082821b905092915050565b600060088302620002497fffffffffffffffffffffffffffffffffffffffffffffffffffffffffffffffff826200020a565b6200025586836200020a565b95508019841693508086168417925050509392505050565b6000819050919050565b6000819050919050565b6000620002a26200029c62000296846200026d565b62000277565b6200026d565b9050919050565b6000819050919050565b620002be8362000281565b620002d6620002cd82620002a9565b84845462000217565b825550505050565b600090565b620002ed620002de565b620002fa818484620002b3565b505050565b5b81811015620003225762000316600082620002e3565b60018101905062000300565b5050565b601f82111562000371576200033b81620001e5565b6200034684620001fa565b8101602085101562000356578190505b6200036e6200036585620001fa565b830182620002ff565b50505b505050565b600082821c905092915050565b6000620003966000198460080262000376565b1980831691505092915050565b6000620003b1838362000383565b9150826002028217905092915050565b620003cc8262000147565b67ffffffffffffffff811115620003e857620003e762000152565b5b620003f48254620001b0565b6200040182828562000326565b600060209050601f83116001811462000439576000841562000424578287015190505b620004308582620003a3565b865550620004a0565b601f1984166200044986620001e5565b60005b8281101562000473578489015182556001820191506020850194506020810190506200044c565b868310156200049357848901516200048f601f89168262000383565b8355505b6001600288020188555050505b505050505050565b6148f580620004b86000396000f3fe608060405234801561001057600080fd5b50600436106101205760003560e01c80634f558e79116100ad578063bd85b03911610071578063bd85b0391461032b578063d9d616551461035b578063e985e9c51461038b578063f242432a146103bb578063f2fde38b146103d757610120565b80634f558e791461028757806367706e4e146102b7578063715018a6146102e75780638da5cb5b146102f1578063a22cb4651461030f57610120565b8063110b55af116100f4578063110b55af146101d15780632eb2c2d6146101ed57806334dad8781461020957806343d7abeb1461023b5780634e1273f41461025757610120565b8062fdd58e1461012557806301ffc9a71461015557806302fe5305146101855780630e89341c146101a1575b600080fd5b61013f600480360381019061013a919061271f565b6103f3565b60405161014c919061276e565b60405180910390f35b61016f600480360381019061016a91906127e1565b6104bb565b60405161017c9190612829565b60405180910390f35b61019f600480360381019061019a919061298a565b61059d565b005b6101bb60048036038101906101b691906129d3565b6105b1565b6040516101c89190612a7f565b60405180910390f35b6101eb60048036038101906101e69190612b14565b610645565b005b61020760048036038101906102029190612d4c565b610967565b005b610223600480360381019061021e91906129d3565b610a08565b60405161023293929190612f5c565b60405180910390f35b61025560048036038101906102509190613120565b610c1f565b005b610271600480360381019061026c91906131ab565b610e27565b60405161027e91906132e1565b60405180910390f35b6102a1600480360381019061029c91906129d3565b610f40565b6040516102ae9190612829565b60405180910390f35b6102d160048036038101906102cc91906129d3565b610f54565b6040516102de919061276e565b60405180910390f35b6102ef610f6c565b005b6102f9610f80565b6040516103069190613312565b60405180910390f35b61032960048036038101906103249190613359565b610faa565b005b610345600480360381019061034091906129d3565b610fc0565b604051610352919061276e565b60405180910390f35b61037560048036038101906103709190613399565b610fdd565b60405161038291906132e1565b60405180910390f35b6103a560048036038101906103a091906133c6565b611074565b6040516103b29190612829565b60405180910390f35b6103d560048036038101906103d09190613406565b611108565b005b6103f160048036038101906103ec9190613399565b6111a9565b005b60008073ffffffffffffffffffffffffffffffffffffffff168373ffffffffffffffffffffffffffffffffffffffff1603610463576040517f08c379a000000000000000000000000000000000000000000000000000000000815260040161045a9061350f565b60405180910390fd5b60008083815260200190815260200160002060008473ffffffffffffffffffffffffffffffffffffffff1673ffffffffffffffffffffffffffffffffffffffff16815260200190815260200160002054905092915050565b60007fd9b67a26000000000000000000000000000000000000000000000000000000007bffffffffffffffffffffffffffffffffffffffffffffffffffffffff1916827bffffffffffffffffffffffffffffffffffffffffffffffffffffffff1916148061058657507f0e89341c000000000000000000000000000000000000000000000000000000007bffffffffffffffffffffffffffffffffffffffffffffffffffffffff1916827bffffffffffffffffffffffffffffffffffffffffffffffffffffffff1916145b8061059657506105958261122c565b5b9050919050565b6105a5611296565b6105ae81611314565b50565b6060600280546105c09061355e565b80601f01602080910402602001604051908101604052809291908181526020018280546105ec9061355e565b80156106395780601f1061060e57610100808354040283529160200191610639565b820191906000526020600020905b81548152906001019060200180831161061c57829003601f168201915b50505050509050919050565b6000600181111561065957610658612e1b565b5b60ff168560ff1610158015610686575060018081111561067c5761067b612e1b565b5b60ff168560ff1611155b6106c5576040517f08c379a00000000000000000000000000000000000000000000000000000000081526004016106bc906135db565b60405180910390fd5b6002845111610709576040517f08c379a00000000000000000000000000000000000000000000000000000000081526004016107009061366d565b60405180910390fd5b60008361ffff1611610750576040517f08c379a0000000000000000000000000000000000000000000000000000000008152600401610747906136ff565b60405180910390fd5b6000825111610794576040517f08c379a000000000000000000000000000000000000000000000000000000000815260040161078b90613791565b60405180910390fd5b60038151116107d8576040517f08c379a00000000000000000000000000000000000000000000000000000000081526004016107cf90613823565b60405180910390fd5b60008560ff1660018111156107f0576107ef612e1b565b5b905060006107fe6005611327565b905061080c33826001611335565b6108166005611355565b604051806060016040528082815260200183600181111561083a57610839612e1b565b5b815260200160405180608001604052808981526020018861ffff16815260200187815260200186815250815250600760008381526020019081526020016000206000820151816000015560208201518160010160006101000a81548160ff021916908360018111156108af576108ae612e1b565b5b021790555060408201518160020160008201518160000190816108d291906139ef565b5060208201518160010160006101000a81548161ffff021916908361ffff160217905550604082015181600201908161090b91906139ef565b50606082015181600301908161092191906139ef565b5050509050507fe9667cd49094a292b02a1d8555f54c265b42912082c2f32b2050393b06d8359881604051610956919061276e565b60405180910390a150505050505050565b61096f61136b565b73ffffffffffffffffffffffffffffffffffffffff168573ffffffffffffffffffffffffffffffffffffffff1614806109b557506109b4856109af61136b565b611074565b5b6109f4576040517f08c379a00000000000000000000000000000000000000000000000000000000081526004016109eb90613b33565b60405180910390fd5b610a018585858585611373565b5050505050565b60076020528060005260406000206000915090508060000154908060010160009054906101000a900460ff169080600201604051806080016040529081600082018054610a549061355e565b80601f0160208091040260200160405190810160405280929190818152602001828054610a809061355e565b8015610acd5780601f10610aa257610100808354040283529160200191610acd565b820191906000526020600020905b815481529060010190602001808311610ab057829003601f168201915b505050505081526020016001820160009054906101000a900461ffff1661ffff1661ffff168152602001600282018054610b069061355e565b80601f0160208091040260200160405190810160405280929190818152602001828054610b329061355e565b8015610b7f5780601f10610b5457610100808354040283529160200191610b7f565b820191906000526020600020905b815481529060010190602001808311610b6257829003601f168201915b50505050508152602001600382018054610b989061355e565b80601f0160208091040260200160405190810160405280929190818152602001828054610bc49061355e565b8015610c115780601f10610be657610100808354040283529160200191610c11565b820191906000526020600020905b815481529060010190602001808311610bf457829003601f168201915b505050505081525050905083565b6001610c2b33856103f3565b14610c6b576040517f08c379a0000000000000000000000000000000000000000000000000000000008152600401610c6290613b9f565b60405180910390fd5b8051825114610caf576040517f08c379a0000000000000000000000000000000000000000000000000000000008152600401610ca690613c31565b60405180910390fd5b600080600090505b82518160ff161015610d0157828160ff1681518110610cd957610cd8613c51565b5b602002602001015182610cec9190613caf565b91508080610cf990613ce4565b915050610cb7565b5060648160ff1614610d48576040517f08c379a0000000000000000000000000000000000000000000000000000000008152600401610d3f90613d59565b60405180910390fd5b6000610d546005611327565b905060005b84518160ff161015610dc057610dad858260ff1681518110610d7e57610d7d613c51565b5b602002602001015183868460ff1681518110610d9d57610d9c613c51565b5b602002602001015160ff16611335565b8080610db890613ce4565b915050610d59565b50610dcb6005611355565b8060086000878152602001908152602001600020819055507f5c874c1354792f06977014451e4027ebe8d3e323fecc234d41fe0f1cab13f68f85828686604051610e189493929190613ef5565b60405180910390a15050505050565b60608151835114610e6d576040517f08c379a0000000000000000000000000000000000000000000000000000000008152600401610e6490613fba565b60405180910390fd5b6000835167ffffffffffffffff811115610e8a57610e8961285f565b5b604051908082528060200260200182016040528015610eb85781602001602082028036833780820191505090505b50905060005b8451811015610f3557610f05858281518110610edd57610edc613c51565b5b6020026020010151858381518110610ef857610ef7613c51565b5b60200260200101516103f3565b828281518110610f1857610f17613c51565b5b60200260200101818152505080610f2e90613fda565b9050610ebe565b508091505092915050565b600080610f4c83610fc0565b119050919050565b60086020528060005260406000206000915090505481565b610f74611296565b610f7e6000611694565b565b6000600360009054906101000a900473ffffffffffffffffffffffffffffffffffffffff16905090565b610fbc610fb561136b565b838361175a565b5050565b600060046000838152602001908152602001600020549050919050565b6060600660008373ffffffffffffffffffffffffffffffffffffffff1673ffffffffffffffffffffffffffffffffffffffff16815260200190815260200160002080548060200260200160405190810160405280929190818152602001828054801561106857602002820191906000526020600020905b815481526020019060010190808311611054575b50505050509050919050565b6000600160008473ffffffffffffffffffffffffffffffffffffffff1673ffffffffffffffffffffffffffffffffffffffff16815260200190815260200160002060008373ffffffffffffffffffffffffffffffffffffffff1673ffffffffffffffffffffffffffffffffffffffff16815260200190815260200160002060009054906101000a900460ff16905092915050565b61111061136b565b73ffffffffffffffffffffffffffffffffffffffff168573ffffffffffffffffffffffffffffffffffffffff16148061115657506111558561115061136b565b611074565b5b611195576040517f08c379a000000000000000000000000000000000000000000000000000000000815260040161118c90613b33565b60405180910390fd5b6111a285858585856118c6565b5050505050565b6111b1611296565b600073ffffffffffffffffffffffffffffffffffffffff168173ffffffffffffffffffffffffffffffffffffffff1603611220576040517f08c379a000000000000000000000000000000000000000000000000000000000815260040161121790614094565b60405180910390fd5b61122981611694565b50565b60007f01ffc9a7000000000000000000000000000000000000000000000000000000007bffffffffffffffffffffffffffffffffffffffffffffffffffffffff1916827bffffffffffffffffffffffffffffffffffffffffffffffffffffffff1916149050919050565b61129e61136b565b73ffffffffffffffffffffffffffffffffffffffff166112bc610f80565b73ffffffffffffffffffffffffffffffffffffffff1614611312576040517f08c379a000000000000000000000000000000000000000000000000000000000815260040161130990614100565b60405180910390fd5b565b806002908161132391906139ef565b5050565b600081600001549050919050565b61135083838360405180602001604052806000815250611b61565b505050565b6001816000016000828254019250508190555050565b600033905090565b81518351146113b7576040517f08c379a00000000000000000000000000000000000000000000000000000000081526004016113ae90614192565b60405180910390fd5b600073ffffffffffffffffffffffffffffffffffffffff168473ffffffffffffffffffffffffffffffffffffffff1603611426576040517f08c379a000000000000000000000000000000000000000000000000000000000815260040161141d90614224565b60405180910390fd5b600061143061136b565b9050611440818787878787611d11565b60005b84518110156115f157600085828151811061146157611460613c51565b5b6020026020010151905060008583815181106114805761147f613c51565b5b60200260200101519050600080600084815260200190815260200160002060008b73ffffffffffffffffffffffffffffffffffffffff1673ffffffffffffffffffffffffffffffffffffffff16815260200190815260200160002054905081811015611521576040517f08c379a0000000000000000000000000000000000000000000000000000000008152600401611518906142b6565b60405180910390fd5b81810360008085815260200190815260200160002060008c73ffffffffffffffffffffffffffffffffffffffff1673ffffffffffffffffffffffffffffffffffffffff168152602001908152602001600020819055508160008085815260200190815260200160002060008b73ffffffffffffffffffffffffffffffffffffffff1673ffffffffffffffffffffffffffffffffffffffff16815260200190815260200160002060008282546115d691906142d6565b92505081905550505050806115ea90613fda565b9050611443565b508473ffffffffffffffffffffffffffffffffffffffff168673ffffffffffffffffffffffffffffffffffffffff168273ffffffffffffffffffffffffffffffffffffffff167f4a39dc06d4c0dbc64b70af90fd698a233a518aa5d07e595d983b8c0526c8f7fb878760405161166892919061430a565b60405180910390a461167e81878787878761204c565b61168c818787878787612054565b505050505050565b6000600360009054906101000a900473ffffffffffffffffffffffffffffffffffffffff16905081600360006101000a81548173ffffffffffffffffffffffffffffffffffffffff021916908373ffffffffffffffffffffffffffffffffffffffff1602179055508173ffffffffffffffffffffffffffffffffffffffff168173ffffffffffffffffffffffffffffffffffffffff167f8be0079c531659141344cd1fd0a4f28419497f9722a3daafe3b4186f6b6457e060405160405180910390a35050565b8173ffffffffffffffffffffffffffffffffffffffff168373ffffffffffffffffffffffffffffffffffffffff16036117c8576040517f08c379a00000000000000000000000000000000000000000000000000000000081526004016117bf906143b3565b60405180910390fd5b80600160008573ffffffffffffffffffffffffffffffffffffffff1673ffffffffffffffffffffffffffffffffffffffff16815260200190815260200160002060008473ffffffffffffffffffffffffffffffffffffffff1673ffffffffffffffffffffffffffffffffffffffff16815260200190815260200160002060006101000a81548160ff0219169083151502179055508173ffffffffffffffffffffffffffffffffffffffff168373ffffffffffffffffffffffffffffffffffffffff167f17307eab39ab6107e8899845ad3d59bd9653f200f220920489ca2b5937696c31836040516118b99190612829565b60405180910390a3505050565b600073ffffffffffffffffffffffffffffffffffffffff168473ffffffffffffffffffffffffffffffffffffffff1603611935576040517f08c379a000000000000000000000000000000000000000000000000000000000815260040161192c90614224565b60405180910390fd5b600061193f61136b565b9050600061194c8561222b565b905060006119598561222b565b9050611969838989858589611d11565b600080600088815260200190815260200160002060008a73ffffffffffffffffffffffffffffffffffffffff1673ffffffffffffffffffffffffffffffffffffffff16815260200190815260200160002054905085811015611a00576040517f08c379a00000000000000000000000000000000000000000000000000000000081526004016119f7906142b6565b60405180910390fd5b85810360008089815260200190815260200160002060008b73ffffffffffffffffffffffffffffffffffffffff1673ffffffffffffffffffffffffffffffffffffffff168152602001908152602001600020819055508560008089815260200190815260200160002060008a73ffffffffffffffffffffffffffffffffffffffff1673ffffffffffffffffffffffffffffffffffffffff1681526020019081526020016000206000828254611ab591906142d6565b925050819055508773ffffffffffffffffffffffffffffffffffffffff168973ffffffffffffffffffffffffffffffffffffffff168573ffffffffffffffffffffffffffffffffffffffff167fc3d58168c5ae7397731d063d5bbf3d657854427343f4c083240f7aacaa2d0f628a8a604051611b329291906143d3565b60405180910390a4611b48848a8a86868a61204c565b611b56848a8a8a8a8a6122a5565b505050505050505050565b600073ffffffffffffffffffffffffffffffffffffffff168473ffffffffffffffffffffffffffffffffffffffff1603611bd0576040517f08c379a0000000000000000000000000000000000000000000000000000000008152600401611bc79061446e565b60405180910390fd5b6000611bda61136b565b90506000611be78561222b565b90506000611bf48561222b565b9050611c0583600089858589611d11565b8460008088815260200190815260200160002060008973ffffffffffffffffffffffffffffffffffffffff1673ffffffffffffffffffffffffffffffffffffffff1681526020019081526020016000206000828254611c6491906142d6565b925050819055508673ffffffffffffffffffffffffffffffffffffffff16600073ffffffffffffffffffffffffffffffffffffffff168473ffffffffffffffffffffffffffffffffffffffff167fc3d58168c5ae7397731d063d5bbf3d657854427343f4c083240f7aacaa2d0f628989604051611ce29291906143d3565b60405180910390a4611cf98360008985858961204c565b611d08836000898989896122a5565b50505050505050565b611d1f86868686868661247c565b60005b835181101561204357600660008673ffffffffffffffffffffffffffffffffffffffff1673ffffffffffffffffffffffffffffffffffffffff168152602001908152602001600020848281518110611d7d57611d7c613c51565b5b60200260200101519080600181540180825580915050600190039060005260206000200160009091909190915055600073ffffffffffffffffffffffffffffffffffffffff168673ffffffffffffffffffffffffffffffffffffffff161461203057828181518110611df257611df1613c51565b5b6020026020010151611e1e87868481518110611e1157611e10613c51565b5b60200260200101516103f3565b0361202f5760005b845181101561202d57848281518110611e4257611e41613c51565b5b6020026020010151600660008973ffffffffffffffffffffffffffffffffffffffff1673ffffffffffffffffffffffffffffffffffffffff1681526020019081526020016000208281548110611e9b57611e9a613c51565b5b90600052602060002001540361201a57600660008873ffffffffffffffffffffffffffffffffffffffff1673ffffffffffffffffffffffffffffffffffffffff1681526020019081526020016000206001600660008a73ffffffffffffffffffffffffffffffffffffffff1673ffffffffffffffffffffffffffffffffffffffff16815260200190815260200160002080549050611f39919061448e565b81548110611f4a57611f49613c51565b5b9060005260206000200154600660008973ffffffffffffffffffffffffffffffffffffffff1673ffffffffffffffffffffffffffffffffffffffff1681526020019081526020016000208281548110611fa657611fa5613c51565b5b9060005260206000200181905550600660008873ffffffffffffffffffffffffffffffffffffffff1673ffffffffffffffffffffffffffffffffffffffff168152602001908152602001600020805480612003576120026144c2565b5b600190038181906000526020600020016000905590555b808061202590613fda565b915050611e26565b505b5b808061203b90613fda565b915050611d22565b50505050505050565b505050505050565b6120738473ffffffffffffffffffffffffffffffffffffffff1661264c565b15612223578373ffffffffffffffffffffffffffffffffffffffff1663bc197c8187878686866040518663ffffffff1660e01b81526004016120b9959493929190614546565b6020604051808303816000875af19250505080156120f557506040513d601f19601f820116820180604052508101906120f291906145c3565b60015b61219a576121016145fd565b806308c379a00361215d575061211561461f565b80612120575061215f565b806040517f08c379a00000000000000000000000000000000000000000000000000000000081526004016121549190612a7f565b60405180910390fd5b505b6040517f08c379a000000000000000000000000000000000000000000000000000000000815260040161219190614721565b60405180910390fd5b63bc197c8160e01b7bffffffffffffffffffffffffffffffffffffffffffffffffffffffff1916817bffffffffffffffffffffffffffffffffffffffffffffffffffffffff191614612221576040517f08c379a0000000000000000000000000000000000000000000000000000000008152600401612218906147b3565b60405180910390fd5b505b505050505050565b60606000600167ffffffffffffffff81111561224a5761224961285f565b5b6040519080825280602002602001820160405280156122785781602001602082028036833780820191505090505b50905082816000815181106122905761228f613c51565b5b60200260200101818152505080915050919050565b6122c48473ffffffffffffffffffffffffffffffffffffffff1661264c565b15612474578373ffffffffffffffffffffffffffffffffffffffff1663f23a6e6187878686866040518663ffffffff1660e01b815260040161230a9594939291906147d3565b6020604051808303816000875af192505050801561234657506040513d601f19601f8201168201806040525081019061234391906145c3565b60015b6123eb576123526145fd565b806308c379a0036123ae575061236661461f565b8061237157506123b0565b806040517f08c379a00000000000000000000000000000000000000000000000000000000081526004016123a59190612a7f565b60405180910390fd5b505b6040517f08c379a00000000000000000000000000000000000000000000000000000000081526004016123e290614721565b60405180910390fd5b63f23a6e6160e01b7bffffffffffffffffffffffffffffffffffffffffffffffffffffffff1916817bffffffffffffffffffffffffffffffffffffffffffffffffffffffff191614612472576040517f08c379a0000000000000000000000000000000000000000000000000000000008152600401612469906147b3565b60405180910390fd5b505b505050505050565b61248a86868686868661266f565b600073ffffffffffffffffffffffffffffffffffffffff168573ffffffffffffffffffffffffffffffffffffffff160361253b5760005b8351811015612539578281815181106124dd576124dc613c51565b5b6020026020010151600460008684815181106124fc576124fb613c51565b5b60200260200101518152602001908152602001600020600082825461252191906142d6565b925050819055508061253290613fda565b90506124c1565b505b600073ffffffffffffffffffffffffffffffffffffffff168473ffffffffffffffffffffffffffffffffffffffff16036126445760005b83518110156126425760008482815181106125905761258f613c51565b5b6020026020010151905060008483815181106125af576125ae613c51565b5b6020026020010151905060006004600084815260200190815260200160002054905081811015612614576040517f08c379a000000000000000000000000000000000000000000000000000000000815260040161260b9061489f565b60405180910390fd5b81810360046000858152602001908152602001600020819055505050508061263b90613fda565b9050612572565b505b505050505050565b6000808273ffffffffffffffffffffffffffffffffffffffff163b119050919050565b505050505050565b6000604051905090565b600080fd5b600080fd5b600073ffffffffffffffffffffffffffffffffffffffff82169050919050565b60006126b68261268b565b9050919050565b6126c6816126ab565b81146126d157600080fd5b50565b6000813590506126e3816126bd565b92915050565b6000819050919050565b6126fc816126e9565b811461270757600080fd5b50565b600081359050612719816126f3565b92915050565b6000806040838503121561273657612735612681565b5b6000612744858286016126d4565b92505060206127558582860161270a565b9150509250929050565b612768816126e9565b82525050565b6000602082019050612783600083018461275f565b92915050565b60007fffffffff0000000000000000000000000000000000000000000000000000000082169050919050565b6127be81612789565b81146127c957600080fd5b50565b6000813590506127db816127b5565b92915050565b6000602082840312156127f7576127f6612681565b5b6000612805848285016127cc565b91505092915050565b60008115159050919050565b6128238161280e565b82525050565b600060208201905061283e600083018461281a565b92915050565b600080fd5b600080fd5b6000601f19601f8301169050919050565b7f4e487b7100000000000000000000000000000000000000000000000000000000600052604160045260246000fd5b6128978261284e565b810181811067ffffffffffffffff821117156128b6576128b561285f565b5b80604052505050565b60006128c9612677565b90506128d5828261288e565b919050565b600067ffffffffffffffff8211156128f5576128f461285f565b5b6128fe8261284e565b9050602081019050919050565b82818337600083830152505050565b600061292d612928846128da565b6128bf565b90508281526020810184848401111561294957612948612849565b5b61295484828561290b565b509392505050565b600082601f83011261297157612970612844565b5b813561298184826020860161291a565b91505092915050565b6000602082840312156129a05761299f612681565b5b600082013567ffffffffffffffff8111156129be576129bd612686565b5b6129ca8482850161295c565b91505092915050565b6000602082840312156129e9576129e8612681565b5b60006129f78482850161270a565b91505092915050565b600081519050919050565b600082825260208201905092915050565b60005b83811015612a3a578082015181840152602081019050612a1f565b60008484015250505050565b6000612a5182612a00565b612a5b8185612a0b565b9350612a6b818560208601612a1c565b612a748161284e565b840191505092915050565b60006020820190508181036000830152612a998184612a46565b905092915050565b600060ff82169050919050565b612ab781612aa1565b8114612ac257600080fd5b50565b600081359050612ad481612aae565b92915050565b600061ffff82169050919050565b612af181612ada565b8114612afc57600080fd5b50565b600081359050612b0e81612ae8565b92915050565b600080600080600060a08688031215612b3057612b2f612681565b5b6000612b3e88828901612ac5565b955050602086013567ffffffffffffffff811115612b5f57612b5e612686565b5b612b6b8882890161295c565b9450506040612b7c88828901612aff565b935050606086013567ffffffffffffffff811115612b9d57612b9c612686565b5b612ba98882890161295c565b925050608086013567ffffffffffffffff811115612bca57612bc9612686565b5b612bd68882890161295c565b9150509295509295909350565b600067ffffffffffffffff821115612bfe57612bfd61285f565b5b602082029050602081019050919050565b600080fd5b6000612c27612c2284612be3565b6128bf565b90508083825260208201905060208402830185811115612c4a57612c49612c0f565b5b835b81811015612c735780612c5f888261270a565b845260208401935050602081019050612c4c565b5050509392505050565b600082601f830112612c9257612c91612844565b5b8135612ca2848260208601612c14565b91505092915050565b600067ffffffffffffffff821115612cc657612cc561285f565b5b612ccf8261284e565b9050602081019050919050565b6000612cef612cea84612cab565b6128bf565b905082815260208101848484011115612d0b57612d0a612849565b5b612d1684828561290b565b509392505050565b600082601f830112612d3357612d32612844565b5b8135612d43848260208601612cdc565b91505092915050565b600080600080600060a08688031215612d6857612d67612681565b5b6000612d76888289016126d4565b9550506020612d87888289016126d4565b945050604086013567ffffffffffffffff811115612da857612da7612686565b5b612db488828901612c7d565b935050606086013567ffffffffffffffff811115612dd557612dd4612686565b5b612de188828901612c7d565b925050608086013567ffffffffffffffff811115612e0257612e01612686565b5b612e0e88828901612d1e565b9150509295509295909350565b7f4e487b7100000000000000000000000000000000000000000000000000000000600052602160045260246000fd5b60028110612e5b57612e5a612e1b565b5b50565b6000819050612e6c82612e4a565b919050565b6000612e7c82612e5e565b9050919050565b612e8c81612e71565b82525050565b600082825260208201905092915050565b6000612eae82612a00565b612eb88185612e92565b9350612ec8818560208601612a1c565b612ed18161284e565b840191505092915050565b612ee581612ada565b82525050565b60006080830160008301518482036000860152612f088282612ea3565b9150506020830151612f1d6020860182612edc565b5060408301518482036040860152612f358282612ea3565b91505060608301518482036060860152612f4f8282612ea3565b9150508091505092915050565b6000606082019050612f71600083018661275f565b612f7e6020830185612e83565b8181036040830152612f908184612eeb565b9050949350505050565b600067ffffffffffffffff821115612fb557612fb461285f565b5b602082029050602081019050919050565b6000612fd9612fd484612f9a565b6128bf565b90508083825260208201905060208402830185811115612ffc57612ffb612c0f565b5b835b81811015613025578061301188826126d4565b845260208401935050602081019050612ffe565b5050509392505050565b600082601f83011261304457613043612844565b5b8135613054848260208601612fc6565b91505092915050565b600067ffffffffffffffff8211156130785761307761285f565b5b602082029050602081019050919050565b600061309c6130978461305d565b6128bf565b905080838252602082019050602084028301858111156130bf576130be612c0f565b5b835b818110156130e857806130d48882612ac5565b8452602084019350506020810190506130c1565b5050509392505050565b600082601f83011261310757613106612844565b5b8135613117848260208601613089565b91505092915050565b60008060006060848603121561313957613138612681565b5b60006131478682870161270a565b935050602084013567ffffffffffffffff81111561316857613167612686565b5b6131748682870161302f565b925050604084013567ffffffffffffffff81111561319557613194612686565b5b6131a1868287016130f2565b9150509250925092565b600080604083850312156131c2576131c1612681565b5b600083013567ffffffffffffffff8111156131e0576131df612686565b5b6131ec8582860161302f565b925050602083013567ffffffffffffffff81111561320d5761320c612686565b5b61321985828601612c7d565b9150509250929050565b600081519050919050565b600082825260208201905092915050565b6000819050602082019050919050565b613258816126e9565b82525050565b600061326a838361324f565b60208301905092915050565b6000602082019050919050565b600061328e82613223565b613298818561322e565b93506132a38361323f565b8060005b838110156132d45781516132bb888261325e565b97506132c683613276565b9250506001810190506132a7565b5085935050505092915050565b600060208201905081810360008301526132fb8184613283565b905092915050565b61330c816126ab565b82525050565b60006020820190506133276000830184613303565b92915050565b6133368161280e565b811461334157600080fd5b50565b6000813590506133538161332d565b92915050565b600080604083850312156133705761336f612681565b5b600061337e858286016126d4565b925050602061338f85828601613344565b9150509250929050565b6000602082840312156133af576133ae612681565b5b60006133bd848285016126d4565b91505092915050565b600080604083850312156133dd576133dc612681565b5b60006133eb858286016126d4565b92505060206133fc858286016126d4565b9150509250929050565b600080600080600060a0868803121561342257613421612681565b5b6000613430888289016126d4565b9550506020613441888289016126d4565b94505060406134528882890161270a565b93505060606134638882890161270a565b925050608086013567ffffffffffffffff81111561348457613483612686565b5b61349088828901612d1e565b9150509295509295909350565b7f455243313135353a2061646472657373207a65726f206973206e6f742061207660008201527f616c6964206f776e657200000000000000000000000000000000000000000000602082015250565b60006134f9602a83612a0b565b91506135048261349d565b604082019050919050565b60006020820190508181036000830152613528816134ec565b9050919050565b7f4e487b7100000000000000000000000000000000000000000000000000000000600052602260045260246000fd5b6000600282049050600182168061357657607f821691505b6020821081036135895761358861352f565b5b50919050565b7f496e76616c69642061737365742063617465676f727921000000000000000000600082015250565b60006135c5601783612a0b565b91506135d08261358f565b602082019050919050565b600060208201905081810360008301526135f4816135b8565b9050919050565b7f537472656574206e616d652073686f756c64206265206174206c65617374203360008201527f2063686172616374657273206c6f6e6721000000000000000000000000000000602082015250565b6000613657603183612a0b565b9150613662826135fb565b604082019050919050565b600060208201905081810360008301526136868161364a565b9050919050565b7f537472656574206e756d6265722073686f756c64206265206174206c6561737460008201527f2031210000000000000000000000000000000000000000000000000000000000602082015250565b60006136e9602383612a0b565b91506136f48261368d565b604082019050919050565b60006020820190508181036000830152613718816136dc565b9050919050565b7f43697479206e616d652073686f756c64206265206174206c656173742031206360008201527f6861726163746572206c6f6e6721000000000000000000000000000000000000602082015250565b600061377b602e83612a0b565b91506137868261371f565b604082019050919050565b600060208201905081810360008301526137aa8161376e565b9050919050565b7f436f756e747279206e616d652073686f756c64206265206174206c656173742060008201527f342063686172616374657273206c6f6e67210000000000000000000000000000602082015250565b600061380d603283612a0b565b9150613818826137b1565b604082019050919050565b6000602082019050818103600083015261383c81613800565b9050919050565b60008190508160005260206000209050919050565b60006020601f8301049050919050565b600082821b905092915050565b6000600883026138a57fffffffffffffffffffffffffffffffffffffffffffffffffffffffffffffffff82613868565b6138af8683613868565b95508019841693508086168417925050509392505050565b6000819050919050565b60006138ec6138e76138e2846126e9565b6138c7565b6126e9565b9050919050565b6000819050919050565b613906836138d1565b61391a613912826138f3565b848454613875565b825550505050565b600090565b61392f613922565b61393a8184846138fd565b505050565b5b8181101561395e57613953600082613927565b600181019050613940565b5050565b601f8211156139a35761397481613843565b61397d84613858565b8101602085101561398c578190505b6139a061399885613858565b83018261393f565b50505b505050565b600082821c905092915050565b60006139c6600019846008026139a8565b1980831691505092915050565b60006139df83836139b5565b9150826002028217905092915050565b6139f882612a00565b67ffffffffffffffff811115613a1157613a1061285f565b5b613a1b825461355e565b613a26828285613962565b600060209050601f831160018114613a595760008415613a47578287015190505b613a5185826139d3565b865550613ab9565b601f198416613a6786613843565b60005b82811015613a8f57848901518255600182019150602085019450602081019050613a6a565b86831015613aac5784890151613aa8601f8916826139b5565b8355505b6001600288020188555050505b505050505050565b7f455243313135353a2063616c6c6572206973206e6f7420746f6b656e206f776e60008201527f6572206f7220617070726f766564000000000000000000000000000000000000602082015250565b6000613b1d602e83612a0b565b9150613b2882613ac1565b604082019050919050565b60006020820190508181036000830152613b4c81613b10565b9050919050565b7f43616c6c657220646f6573206e6f74206f776e20457374617465210000000000600082015250565b6000613b89601b83612a0b565b9150613b9482613b53565b602082019050919050565b60006020820190508181036000830152613bb881613b7c565b9050919050565b7f4561636820686f6c646572206e6565647320616e20616d6f756e74206f66207360008201527f6861726573207370656369666965642100000000000000000000000000000000602082015250565b6000613c1b603083612a0b565b9150613c2682613bbf565b604082019050919050565b60006020820190508181036000830152613c4a81613c0e565b9050919050565b7f4e487b7100000000000000000000000000000000000000000000000000000000600052603260045260246000fd5b7f4e487b7100000000000000000000000000000000000000000000000000000000600052601160045260246000fd5b6000613cba82612aa1565b9150613cc583612aa1565b9250828201905060ff811115613cde57613cdd613c80565b5b92915050565b6000613cef82612aa1565b915060ff8203613d0257613d01613c80565b5b600182019050919050565b7f53756d206f66207368617265732073686f756c6420657175616c203130302100600082015250565b6000613d43601f83612a0b565b9150613d4e82613d0d565b602082019050919050565b60006020820190508181036000830152613d7281613d36565b9050919050565b600081519050919050565b600082825260208201905092915050565b6000819050602082019050919050565b613dae816126ab565b82525050565b6000613dc08383613da5565b60208301905092915050565b6000602082019050919050565b6000613de482613d79565b613dee8185613d84565b9350613df983613d95565b8060005b83811015613e2a578151613e118882613db4565b9750613e1c83613dcc565b925050600181019050613dfd565b5085935050505092915050565b600081519050919050565b600082825260208201905092915050565b6000819050602082019050919050565b613e6c81612aa1565b82525050565b6000613e7e8383613e63565b60208301905092915050565b6000602082019050919050565b6000613ea282613e37565b613eac8185613e42565b9350613eb783613e53565b8060005b83811015613ee8578151613ecf8882613e72565b9750613eda83613e8a565b925050600181019050613ebb565b5085935050505092915050565b6000608082019050613f0a600083018761275f565b613f17602083018661275f565b8181036040830152613f298185613dd9565b90508181036060830152613f3d8184613e97565b905095945050505050565b7f455243313135353a206163636f756e747320616e6420696473206c656e67746860008201527f206d69736d617463680000000000000000000000000000000000000000000000602082015250565b6000613fa4602983612a0b565b9150613faf82613f48565b604082019050919050565b60006020820190508181036000830152613fd381613f97565b9050919050565b6000613fe5826126e9565b91507fffffffffffffffffffffffffffffffffffffffffffffffffffffffffffffffff820361401757614016613c80565b5b600182019050919050565b7f4f776e61626c653a206e6577206f776e657220697320746865207a65726f206160008201527f6464726573730000000000000000000000000000000000000000000000000000602082015250565b600061407e602683612a0b565b915061408982614022565b604082019050919050565b600060208201905081810360008301526140ad81614071565b9050919050565b7f4f776e61626c653a2063616c6c6572206973206e6f7420746865206f776e6572600082015250565b60006140ea602083612a0b565b91506140f5826140b4565b602082019050919050565b60006020820190508181036000830152614119816140dd565b9050919050565b7f455243313135353a2069647320616e6420616d6f756e7473206c656e6774682060008201527f6d69736d61746368000000000000000000000000000000000000000000000000602082015250565b600061417c602883612a0b565b915061418782614120565b604082019050919050565b600060208201905081810360008301526141ab8161416f565b9050919050565b7f455243313135353a207472616e7366657220746f20746865207a65726f20616460008201527f6472657373000000000000000000000000000000000000000000000000000000602082015250565b600061420e602583612a0b565b9150614219826141b2565b604082019050919050565b6000602082019050818103600083015261423d81614201565b9050919050565b7f455243313135353a20696e73756666696369656e742062616c616e636520666f60008201527f72207472616e7366657200000000000000000000000000000000000000000000602082015250565b60006142a0602a83612a0b565b91506142ab82614244565b604082019050919050565b600060208201905081810360008301526142cf81614293565b9050919050565b60006142e1826126e9565b91506142ec836126e9565b925082820190508082111561430457614303613c80565b5b92915050565b600060408201905081810360008301526143248185613283565b905081810360208301526143388184613283565b90509392505050565b7f455243313135353a2073657474696e6720617070726f76616c2073746174757360008201527f20666f722073656c660000000000000000000000000000000000000000000000602082015250565b600061439d602983612a0b565b91506143a882614341565b604082019050919050565b600060208201905081810360008301526143cc81614390565b9050919050565b60006040820190506143e8600083018561275f565b6143f5602083018461275f565b9392505050565b7f455243313135353a206d696e7420746f20746865207a65726f2061646472657360008201527f7300000000000000000000000000000000000000000000000000000000000000602082015250565b6000614458602183612a0b565b9150614463826143fc565b604082019050919050565b600060208201905081810360008301526144878161444b565b9050919050565b6000614499826126e9565b91506144a4836126e9565b92508282039050818111156144bc576144bb613c80565b5b92915050565b7f4e487b7100000000000000000000000000000000000000000000000000000000600052603160045260246000fd5b600081519050919050565b600082825260208201905092915050565b6000614518826144f1565b61452281856144fc565b9350614532818560208601612a1c565b61453b8161284e565b840191505092915050565b600060a08201905061455b6000830188613303565b6145686020830187613303565b818103604083015261457a8186613283565b9050818103606083015261458e8185613283565b905081810360808301526145a2818461450d565b90509695505050505050565b6000815190506145bd816127b5565b92915050565b6000602082840312156145d9576145d8612681565b5b60006145e7848285016145ae565b91505092915050565b60008160e01c9050919050565b600060033d111561461c5760046000803e6146196000516145f0565b90505b90565b600060443d106146ac57614631612677565b60043d036004823e80513d602482011167ffffffffffffffff821117156146595750506146ac565b808201805167ffffffffffffffff81111561467757505050506146ac565b80602083010160043d0385018111156146945750505050506146ac565b6146a38260200185018661288e565b82955050505050505b90565b7f455243313135353a207472616e7366657220746f206e6f6e2d4552433131353560008201527f526563656976657220696d706c656d656e746572000000000000000000000000602082015250565b600061470b603483612a0b565b9150614716826146af565b604082019050919050565b6000602082019050818103600083015261473a816146fe565b9050919050565b7f455243313135353a204552433131353552656365697665722072656a6563746560008201527f6420746f6b656e73000000000000000000000000000000000000000000000000602082015250565b600061479d602883612a0b565b91506147a882614741565b604082019050919050565b600060208201905081810360008301526147cc81614790565b9050919050565b600060a0820190506147e86000830188613303565b6147f56020830187613303565b614802604083018661275f565b61480f606083018561275f565b8181036080830152614821818461450d565b90509695505050505050565b7f455243313135353a206275726e20616d6f756e74206578636565647320746f7460008201527f616c537570706c79000000000000000000000000000000000000000000000000602082015250565b6000614889602883612a0b565b91506148948261482d565b604082019050919050565b600060208201905081810360008301526148b88161487c565b905091905056fea26469706673582212200eabf006638a6e7421bd8efc8a215f730c6497e2305b0a36964bddf83c9244fc64736f6c6343000811003368747470733a2f2f626c6f636b6573746174652e616c65786f6368732e64652f6170692f6d657461646174612f",
  "linkReferences": {},
  "deployedLinkReferences": {}
}